{
  "address": "0x1B5cb49C8581831F85A987BFFd37EaE4F9cD48E5",
  "abi": [
    {
      "anonymous": false,
      "inputs": [
        {
          "indexed": false,
          "internalType": "address",
          "name": "newAddress",
          "type": "address"
        }
      ],
      "name": "ChildRegistrarAddressUpdated",
      "type": "event"
    },
    {
      "anonymous": false,
      "inputs": [
        {
          "indexed": false,
          "internalType": "address",
          "name": "newAddress",
          "type": "address"
        }
      ],
      "name": "DefaultCuratorVaultAddressUpdated",
      "type": "event"
    },
    {
      "anonymous": false,
      "inputs": [
        {
          "indexed": false,
          "internalType": "address",
          "name": "newAddress",
          "type": "address"
        }
      ],
      "name": "MakerRegistrarAddressUpdated",
      "type": "event"
    },
    {
      "anonymous": false,
      "inputs": [
        {
          "indexed": false,
          "internalType": "address",
          "name": "newAddress",
          "type": "address"
        }
      ],
      "name": "ParameterManagerAddressUpdated",
      "type": "event"
    },
    {
      "anonymous": false,
      "inputs": [
        {
          "indexed": false,
          "internalType": "address",
          "name": "newAddress",
          "type": "address"
        }
      ],
      "name": "ReactionNftContractAddressUpdated",
      "type": "event"
    },
    {
      "anonymous": false,
      "inputs": [
        {
          "indexed": false,
          "internalType": "address",
          "name": "newAddress",
          "type": "address"
        }
      ],
      "name": "RoleManagerAddressUpdated",
      "type": "event"
    },
    {
      "anonymous": false,
      "inputs": [
        {
          "indexed": false,
          "internalType": "address",
          "name": "newAddress",
          "type": "address"
        }
      ],
      "name": "RoyaltyRegistryAddressUpdated",
      "type": "event"
    },
    {
      "inputs": [],
      "name": "childRegistrar",
      "outputs": [
        {
          "internalType": "address",
          "name": "",
          "type": "address"
        }
      ],
      "stateMutability": "view",
      "type": "function"
    },
    {
      "inputs": [],
      "name": "defaultCuratorVault",
      "outputs": [
        {
          "internalType": "contract ICuratorVault",
          "name": "",
          "type": "address"
        }
      ],
      "stateMutability": "view",
      "type": "function"
    },
    {
      "inputs": [
        {
          "internalType": "contract IRoleManager",
          "name": "_roleManager",
          "type": "address"
        }
      ],
      "name": "initialize",
      "outputs": [],
      "stateMutability": "nonpayable",
      "type": "function"
    },
    {
      "inputs": [],
      "name": "makerRegistrar",
      "outputs": [
        {
          "internalType": "contract IMakerRegistrar",
          "name": "",
          "type": "address"
        }
      ],
      "stateMutability": "view",
      "type": "function"
    },
    {
      "inputs": [],
      "name": "parameterManager",
      "outputs": [
        {
          "internalType": "contract IParameterManager",
          "name": "",
          "type": "address"
        }
      ],
      "stateMutability": "view",
      "type": "function"
    },
    {
      "inputs": [],
      "name": "reactionNftContract",
      "outputs": [
        {
          "internalType": "contract IStandard1155",
          "name": "",
          "type": "address"
        }
      ],
      "stateMutability": "view",
      "type": "function"
    },
    {
      "inputs": [],
      "name": "roleManager",
      "outputs": [
        {
          "internalType": "contract IRoleManager",
          "name": "",
          "type": "address"
        }
      ],
      "stateMutability": "view",
      "type": "function"
    },
    {
      "inputs": [],
      "name": "royaltyRegistry",
      "outputs": [
        {
          "internalType": "address",
          "name": "",
          "type": "address"
        }
      ],
      "stateMutability": "view",
      "type": "function"
    },
    {
      "inputs": [
        {
          "internalType": "address",
          "name": "_childRegistrar",
          "type": "address"
        }
      ],
      "name": "setChildRegistrar",
      "outputs": [],
      "stateMutability": "nonpayable",
      "type": "function"
    },
    {
      "inputs": [
        {
          "internalType": "contract ICuratorVault",
          "name": "_defaultCuratorVault",
          "type": "address"
        }
      ],
      "name": "setDefaultCuratorVault",
      "outputs": [],
      "stateMutability": "nonpayable",
      "type": "function"
    },
    {
      "inputs": [
        {
          "internalType": "contract IMakerRegistrar",
          "name": "_makerRegistrar",
          "type": "address"
        }
      ],
      "name": "setMakerRegistrar",
      "outputs": [],
      "stateMutability": "nonpayable",
      "type": "function"
    },
    {
      "inputs": [
        {
          "internalType": "contract IParameterManager",
          "name": "_parameterManager",
          "type": "address"
        }
      ],
      "name": "setParameterManager",
      "outputs": [],
      "stateMutability": "nonpayable",
      "type": "function"
    },
    {
      "inputs": [
        {
          "internalType": "contract IStandard1155",
          "name": "_reactionNftContract",
          "type": "address"
        }
      ],
      "name": "setReactionNftContract",
      "outputs": [],
      "stateMutability": "nonpayable",
      "type": "function"
    },
    {
      "inputs": [
        {
          "internalType": "contract IRoleManager",
          "name": "_roleManager",
          "type": "address"
        }
      ],
      "name": "setRoleManager",
      "outputs": [],
      "stateMutability": "nonpayable",
      "type": "function"
    },
    {
      "inputs": [
        {
          "internalType": "address",
          "name": "_royaltyRegistry",
          "type": "address"
        }
      ],
      "name": "setRoyaltyRegistry",
      "outputs": [],
      "stateMutability": "nonpayable",
      "type": "function"
    }
  ],
  "transactionHash": "0x19e6fbd9073dfc833341adc51df1783c74efd455fe2113ac4e179d73feccf28c",
  "args": [],
  "numDeployments": 1,
  "solcInputHash": "0c452a7a2a2db8193582d74055ee849a",
  "bytecode": "0x608060405234801561001057600080fd5b50611b56806100206000396000f3fe608060405234801561001057600080fd5b50600436106100f45760003560e01c806376104ad511610097578063b27bcea111610066578063b27bcea114610239578063c0dc069714610257578063c4d66de814610273578063f1d588c51461028f576100f4565b806376104ad5146101c55780637ab0a0d8146101e357806384a608e2146101ff578063a11b07121461021b576100f4565b8063363f8a65116100d3578063363f8a65146101515780635c7bdf9d1461016f5780636345b9e51461018b5780636fdfe8c5146101a7576100f4565b8062435da5146100f9578063085da3101461011757806332823e2214610135575b600080fd5b6101016102ab565b60405161010e91906114da565b60405180910390f35b61011f6102d1565b60405161012c9190611516565b60405180910390f35b61014f600480360381019061014a9190611574565b6102f7565b005b610159610505565b60405161016691906115c2565b60405180910390f35b6101896004803603810190610184919061161b565b61052b565b005b6101a560048036038101906101a09190611686565b610739565b005b6101af610947565b6040516101bc91906116d4565b60405180910390f35b6101cd61096d565b6040516101da9190611710565b60405180910390f35b6101fd60048036038101906101f89190611769565b610993565b005b610219600480360381019061021491906117c2565b610ba1565b005b610223610d28565b6040516102309190611516565b60405180910390f35b610241610d4e565b60405161024e9190611810565b60405180910390f35b610271600480360381019061026c91906117c2565b610d74565b005b61028d60048036038101906102889190611869565b610f82565b005b6102a960048036038101906102a49190611869565b611151565b005b600060029054906101000a900473ffffffffffffffffffffffffffffffffffffffff1681565b600560009054906101000a900473ffffffffffffffffffffffffffffffffffffffff1681565b600060029054906101000a900473ffffffffffffffffffffffffffffffffffffffff1673ffffffffffffffffffffffffffffffffffffffff1663888e81fb336040518263ffffffff1660e01b81526004016103529190611516565b60206040518083038186803b15801561036a57600080fd5b505afa15801561037e573d6000803e3d6000fd5b505050506040513d601f19601f820116820180604052508101906103a291906118ce565b6103e1576040517f08c379a00000000000000000000000000000000000000000000000000000000081526004016103d890611958565b60405180910390fd5b600073ffffffffffffffffffffffffffffffffffffffff168173ffffffffffffffffffffffffffffffffffffffff1614156040518060400160405280600f81526020017f496e76616c6964203020696e707574000000000000000000000000000000000081525090610489576040517f08c379a00000000000000000000000000000000000000000000000000000000081526004016104809190611a00565b60405180910390fd5b5080600360006101000a81548173ffffffffffffffffffffffffffffffffffffffff021916908373ffffffffffffffffffffffffffffffffffffffff1602179055507fd54810c3e06d63f1327683c5d6138ee718e8e8f80931b67c8e89a91d82b4d85c816040516104fa9190611516565b60405180910390a150565b600260009054906101000a900473ffffffffffffffffffffffffffffffffffffffff1681565b600060029054906101000a900473ffffffffffffffffffffffffffffffffffffffff1673ffffffffffffffffffffffffffffffffffffffff1663888e81fb336040518263ffffffff1660e01b81526004016105869190611516565b60206040518083038186803b15801561059e57600080fd5b505afa1580156105b2573d6000803e3d6000fd5b505050506040513d601f19601f820116820180604052508101906105d691906118ce565b610615576040517f08c379a000000000000000000000000000000000000000000000000000000000815260040161060c90611958565b60405180910390fd5b600073ffffffffffffffffffffffffffffffffffffffff168173ffffffffffffffffffffffffffffffffffffffff1614156040518060400160405280600f81526020017f496e76616c6964203020696e7075740000000000000000000000000000000000815250906106bd576040517f08c379a00000000000000000000000000000000000000000000000000000000081526004016106b49190611a00565b60405180910390fd5b5080600260006101000a81548173ffffffffffffffffffffffffffffffffffffffff021916908373ffffffffffffffffffffffffffffffffffffffff1602179055507f173eeb4e9ab44eb875443418bb7ffb76588f582e08f232ca32871efaea8bbe4d8160405161072e9190611516565b60405180910390a150565b600060029054906101000a900473ffffffffffffffffffffffffffffffffffffffff1673ffffffffffffffffffffffffffffffffffffffff1663888e81fb336040518263ffffffff1660e01b81526004016107949190611516565b60206040518083038186803b1580156107ac57600080fd5b505afa1580156107c0573d6000803e3d6000fd5b505050506040513d601f19601f820116820180604052508101906107e491906118ce565b610823576040517f08c379a000000000000000000000000000000000000000000000000000000000815260040161081a90611958565b60405180910390fd5b600073ffffffffffffffffffffffffffffffffffffffff168173ffffffffffffffffffffffffffffffffffffffff1614156040518060400160405280600f81526020017f496e76616c6964203020696e7075740000000000000000000000000000000000815250906108cb576040517f08c379a00000000000000000000000000000000000000000000000000000000081526004016108c29190611a00565b60405180910390fd5b5080600460006101000a81548173ffffffffffffffffffffffffffffffffffffffff021916908373ffffffffffffffffffffffffffffffffffffffff1602179055507f48ffee3d1acca6256050fd4f23b086fcb8c5eaa5dc8388254cf85e54fe1f25c88160405161093c9190611516565b60405180910390a150565b600460009054906101000a900473ffffffffffffffffffffffffffffffffffffffff1681565b600360009054906101000a900473ffffffffffffffffffffffffffffffffffffffff1681565b600060029054906101000a900473ffffffffffffffffffffffffffffffffffffffff1673ffffffffffffffffffffffffffffffffffffffff1663888e81fb336040518263ffffffff1660e01b81526004016109ee9190611516565b60206040518083038186803b158015610a0657600080fd5b505afa158015610a1a573d6000803e3d6000fd5b505050506040513d601f19601f82011682018060405250810190610a3e91906118ce565b610a7d576040517f08c379a0000000000000000000000000000000000000000000000000000000008152600401610a7490611958565b60405180910390fd5b600073ffffffffffffffffffffffffffffffffffffffff168173ffffffffffffffffffffffffffffffffffffffff1614156040518060400160405280600f81526020017f496e76616c6964203020696e707574000000000000000000000000000000000081525090610b25576040517f08c379a0000000000000000000000000000000000000000000000000000000008152600401610b1c9190611a00565b60405180910390fd5b5080600160006101000a81548173ffffffffffffffffffffffffffffffffffffffff021916908373ffffffffffffffffffffffffffffffffffffffff1602179055507f3ca33f53fcbf1f72afcbe5c097ac9a979793e004e71ab84d580ad6e6313d953d81604051610b969190611516565b60405180910390a150565b600060029054906101000a900473ffffffffffffffffffffffffffffffffffffffff1673ffffffffffffffffffffffffffffffffffffffff1663888e81fb336040518263ffffffff1660e01b8152600401610bfc9190611516565b60206040518083038186803b158015610c1457600080fd5b505afa158015610c28573d6000803e3d6000fd5b505050506040513d601f19601f82011682018060405250810190610c4c91906118ce565b610c8b576040517f08c379a0000000000000000000000000000000000000000000000000000000008152600401610c8290611958565b60405180910390fd5b80600660006101000a81548173ffffffffffffffffffffffffffffffffffffffff021916908373ffffffffffffffffffffffffffffffffffffffff1602179055507f2bd46969b753ce8b44d5e046a713707b8caabd4204229093e8819fd2bc965449600660009054906101000a900473ffffffffffffffffffffffffffffffffffffffff16604051610d1d9190611516565b60405180910390a150565b600660009054906101000a900473ffffffffffffffffffffffffffffffffffffffff1681565b600160009054906101000a900473ffffffffffffffffffffffffffffffffffffffff1681565b600060029054906101000a900473ffffffffffffffffffffffffffffffffffffffff1673ffffffffffffffffffffffffffffffffffffffff1663888e81fb336040518263ffffffff1660e01b8152600401610dcf9190611516565b60206040518083038186803b158015610de757600080fd5b505afa158015610dfb573d6000803e3d6000fd5b505050506040513d601f19601f82011682018060405250810190610e1f91906118ce565b610e5e576040517f08c379a0000000000000000000000000000000000000000000000000000000008152600401610e5590611958565b60405180910390fd5b600073ffffffffffffffffffffffffffffffffffffffff168173ffffffffffffffffffffffffffffffffffffffff1614156040518060400160405280600f81526020017f496e76616c6964203020696e707574000000000000000000000000000000000081525090610f06576040517f08c379a0000000000000000000000000000000000000000000000000000000008152600401610efd9190611a00565b60405180910390fd5b5080600560006101000a81548173ffffffffffffffffffffffffffffffffffffffff021916908373ffffffffffffffffffffffffffffffffffffffff1602179055507f991776617152e8088820560d1b451617b5cddf5d2e1c1d0885e969fa1857675381604051610f779190611516565b60405180910390a150565b600060019054906101000a900460ff16610faa5760008054906101000a900460ff1615610fb3565b610fb2611427565b5b610ff2576040517f08c379a0000000000000000000000000000000000000000000000000000000008152600401610fe990611a94565b60405180910390fd5b60008060019054906101000a900460ff161590508015611042576001600060016101000a81548160ff02191690831515021790555060016000806101000a81548160ff0219169083151502179055505b600073ffffffffffffffffffffffffffffffffffffffff168273ffffffffffffffffffffffffffffffffffffffff1614156040518060400160405280600f81526020017f496e76616c6964203020696e7075740000000000000000000000000000000000815250906110ea576040517f08c379a00000000000000000000000000000000000000000000000000000000081526004016110e19190611a00565b60405180910390fd5b5081600060026101000a81548173ffffffffffffffffffffffffffffffffffffffff021916908373ffffffffffffffffffffffffffffffffffffffff160217905550801561114d5760008060016101000a81548160ff0219169083151502179055505b5050565b600060029054906101000a900473ffffffffffffffffffffffffffffffffffffffff1673ffffffffffffffffffffffffffffffffffffffff1663888e81fb336040518263ffffffff1660e01b81526004016111ac9190611516565b60206040518083038186803b1580156111c457600080fd5b505afa1580156111d8573d6000803e3d6000fd5b505050506040513d601f19601f820116820180604052508101906111fc91906118ce565b61123b576040517f08c379a000000000000000000000000000000000000000000000000000000000815260040161123290611958565b60405180910390fd5b600073ffffffffffffffffffffffffffffffffffffffff168173ffffffffffffffffffffffffffffffffffffffff1614156040518060400160405280600f81526020017f496e76616c6964203020696e7075740000000000000000000000000000000000815250906112e3576040517f08c379a00000000000000000000000000000000000000000000000000000000081526004016112da9190611a00565b60405180910390fd5b508073ffffffffffffffffffffffffffffffffffffffff166324d7806c336040518263ffffffff1660e01b815260040161131d9190611516565b60206040518083038186803b15801561133557600080fd5b505afa158015611349573d6000803e3d6000fd5b505050506040513d601f19601f8201168201806040525081019061136d91906118ce565b6113ac576040517f08c379a00000000000000000000000000000000000000000000000000000000081526004016113a390611b00565b60405180910390fd5b80600060026101000a81548173ffffffffffffffffffffffffffffffffffffffff021916908373ffffffffffffffffffffffffffffffffffffffff1602179055507ff147991653b648d23bf29ee376dc366e380264f25c11e005b8b1310bc58955b08160405161141c9190611516565b60405180910390a150565b600061143230611438565b15905090565b6000808273ffffffffffffffffffffffffffffffffffffffff163b119050919050565b600073ffffffffffffffffffffffffffffffffffffffff82169050919050565b6000819050919050565b60006114a061149b6114968461145b565b61147b565b61145b565b9050919050565b60006114b282611485565b9050919050565b60006114c4826114a7565b9050919050565b6114d4816114b9565b82525050565b60006020820190506114ef60008301846114cb565b92915050565b60006115008261145b565b9050919050565b611510816114f5565b82525050565b600060208201905061152b6000830184611507565b92915050565b600080fd5b6000611541826114f5565b9050919050565b61155181611536565b811461155c57600080fd5b50565b60008135905061156e81611548565b92915050565b60006020828403121561158a57611589611531565b5b60006115988482850161155f565b91505092915050565b60006115ac826114a7565b9050919050565b6115bc816115a1565b82525050565b60006020820190506115d760008301846115b3565b92915050565b60006115e8826114f5565b9050919050565b6115f8816115dd565b811461160357600080fd5b50565b600081359050611615816115ef565b92915050565b60006020828403121561163157611630611531565b5b600061163f84828501611606565b91505092915050565b6000611653826114f5565b9050919050565b61166381611648565b811461166e57600080fd5b50565b6000813590506116808161165a565b92915050565b60006020828403121561169c5761169b611531565b5b60006116aa84828501611671565b91505092915050565b60006116be826114a7565b9050919050565b6116ce816116b3565b82525050565b60006020820190506116e960008301846116c5565b92915050565b60006116fa826114a7565b9050919050565b61170a816116ef565b82525050565b60006020820190506117256000830184611701565b92915050565b6000611736826114f5565b9050919050565b6117468161172b565b811461175157600080fd5b50565b6000813590506117638161173d565b92915050565b60006020828403121561177f5761177e611531565b5b600061178d84828501611754565b91505092915050565b61179f816114f5565b81146117aa57600080fd5b50565b6000813590506117bc81611796565b92915050565b6000602082840312156117d8576117d7611531565b5b60006117e6848285016117ad565b91505092915050565b60006117fa826114a7565b9050919050565b61180a816117ef565b82525050565b60006020820190506118256000830184611801565b92915050565b6000611836826114f5565b9050919050565b6118468161182b565b811461185157600080fd5b50565b6000813590506118638161183d565b92915050565b60006020828403121561187f5761187e611531565b5b600061188d84828501611854565b91505092915050565b60008115159050919050565b6118ab81611896565b81146118b657600080fd5b50565b6000815190506118c8816118a2565b92915050565b6000602082840312156118e4576118e3611531565b5b60006118f2848285016118b9565b91505092915050565b600082825260208201905092915050565b7f4e6f742041646d696e0000000000000000000000000000000000000000000000600082015250565b60006119426009836118fb565b915061194d8261190c565b602082019050919050565b6000602082019050818103600083015261197181611935565b9050919050565b600081519050919050565b60005b838110156119a1578082015181840152602081019050611986565b838111156119b0576000848401525b50505050565b6000601f19601f8301169050919050565b60006119d282611978565b6119dc81856118fb565b93506119ec818560208601611983565b6119f5816119b6565b840191505092915050565b60006020820190508181036000830152611a1a81846119c7565b905092915050565b7f496e697469616c697a61626c653a20636f6e747261637420697320616c72656160008201527f647920696e697469616c697a6564000000000000000000000000000000000000602082015250565b6000611a7e602e836118fb565b9150611a8982611a22565b604082019050919050565b60006020820190508181036000830152611aad81611a71565b9050919050565b7f524d20696e76616c696400000000000000000000000000000000000000000000600082015250565b6000611aea600a836118fb565b9150611af582611ab4565b602082019050919050565b60006020820190508181036000830152611b1981611add565b905091905056fea2646970667358221220171b3508ef7684cd96b043ffa663ed55f9e8271e1d25402bbfa5abda455ee50f64736f6c63430008090033",
  "devdoc": {
    "details": "Note: This contract is protected via a permissioned account set in the role manager.  Caution should be used as the role owner could renounce the role leaving all future actions disabled.  Additionally, if a malicious account was able to obtain the role, they could use it to set values to malicious addresses. See the public documentation website for more details.",
    "events": {
      "RoleManagerAddressUpdated(address)": {
        "details": "Events emitted on updates"
      }
    },
    "kind": "dev",
    "methods": {
      "initialize(address)": {
        "details": "initializer to call after deployment, can only be called once"
      },
      "setChildRegistrar(address)": {
        "details": "Setter for the L2 bridge registrar"
      },
      "setDefaultCuratorVault(address)": {
        "details": "Setter for the default curator vault address"
      },
      "setMakerRegistrar(address)": {
        "details": "Setter for the maker registrar address"
      },
      "setParameterManager(address)": {
        "details": "Setter for the role manager address"
      },
      "setReactionNftContract(address)": {
        "details": "Setter for the maker registrar address"
      },
      "setRoleManager(address)": {
        "details": "Setter for the role manager address"
      },
      "setRoyaltyRegistry(address)": {
        "details": "Setter for the address of the royalty registry"
      }
    },
    "version": 1
  },
  "userdoc": {
    "kind": "user",
    "methods": {},
    "version": 1
  },
  "storageLayout": {
    "storage": [
      {
        "astId": 2355,
        "contract": "contracts/Config/AddressManager.sol:AddressManager",
        "label": "_initialized",
        "offset": 0,
        "slot": "0",
        "type": "t_bool"
      },
      {
        "astId": 2358,
        "contract": "contracts/Config/AddressManager.sol:AddressManager",
        "label": "_initializing",
        "offset": 1,
        "slot": "0",
        "type": "t_bool"
      },
      {
        "astId": 8082,
        "contract": "contracts/Config/AddressManager.sol:AddressManager",
        "label": "roleManager",
        "offset": 2,
        "slot": "0",
        "type": "t_contract(IRoleManager)9440"
      },
      {
        "astId": 8086,
        "contract": "contracts/Config/AddressManager.sol:AddressManager",
        "label": "parameterManager",
        "offset": 0,
        "slot": "1",
        "type": "t_contract(IParameterManager)9051"
      },
      {
        "astId": 8090,
        "contract": "contracts/Config/AddressManager.sol:AddressManager",
        "label": "makerRegistrar",
        "offset": 0,
        "slot": "2",
        "type": "t_contract(IMakerRegistrar)8421"
      },
      {
        "astId": 8094,
        "contract": "contracts/Config/AddressManager.sol:AddressManager",
        "label": "reactionNftContract",
        "offset": 0,
        "slot": "3",
        "type": "t_contract(IStandard1155)12535"
      },
      {
        "astId": 8098,
        "contract": "contracts/Config/AddressManager.sol:AddressManager",
        "label": "defaultCuratorVault",
        "offset": 0,
        "slot": "4",
        "type": "t_contract(ICuratorVault)8272"
      },
      {
        "astId": 8101,
        "contract": "contracts/Config/AddressManager.sol:AddressManager",
        "label": "childRegistrar",
        "offset": 0,
        "slot": "5",
        "type": "t_address"
      },
      {
        "astId": 8104,
        "contract": "contracts/Config/AddressManager.sol:AddressManager",
        "label": "royaltyRegistry",
        "offset": 0,
        "slot": "6",
        "type": "t_address"
      }
    ],
    "types": {
      "t_address": {
        "encoding": "inplace",
        "label": "address",
        "numberOfBytes": "20"
      },
      "t_bool": {
        "encoding": "inplace",
        "label": "bool",
        "numberOfBytes": "1"
      },
      "t_contract(ICuratorVault)8272": {
        "encoding": "inplace",
        "label": "contract ICuratorVault",
        "numberOfBytes": "20"
      },
      "t_contract(IMakerRegistrar)8421": {
        "encoding": "inplace",
        "label": "contract IMakerRegistrar",
        "numberOfBytes": "20"
      },
      "t_contract(IParameterManager)9051": {
        "encoding": "inplace",
        "label": "contract IParameterManager",
        "numberOfBytes": "20"
      },
      "t_contract(IRoleManager)9440": {
        "encoding": "inplace",
        "label": "contract IRoleManager",
        "numberOfBytes": "20"
      },
      "t_contract(IStandard1155)12535": {
        "encoding": "inplace",
        "label": "contract IStandard1155",
        "numberOfBytes": "20"
      }
    }
  }
}