{
  "address": "0x1Cf87B7B43F1B9f2A7fCe374e5721a95380e772a",
  "abi": [
    {
      "anonymous": false,
      "inputs": [
        {
          "indexed": false,
          "internalType": "address",
          "name": "newAddress",
          "type": "address"
        }
      ],
      "name": "ChildRegistrarAddressUpdated",
      "type": "event"
    },
    {
      "anonymous": false,
      "inputs": [
        {
          "indexed": false,
          "internalType": "address",
          "name": "newAddress",
          "type": "address"
        }
      ],
      "name": "DefaultCuratorVaultAddressUpdated",
      "type": "event"
    },
    {
      "anonymous": false,
      "inputs": [
        {
          "indexed": false,
          "internalType": "address",
          "name": "newAddress",
          "type": "address"
        }
      ],
      "name": "DispatcherManagerUpdated",
      "type": "event"
    },
    {
      "anonymous": false,
      "inputs": [
        {
          "indexed": false,
          "internalType": "uint8",
          "name": "version",
          "type": "uint8"
        }
      ],
      "name": "Initialized",
      "type": "event"
    },
    {
      "anonymous": false,
      "inputs": [
        {
          "indexed": false,
          "internalType": "address",
          "name": "newAddress",
          "type": "address"
        }
      ],
      "name": "LikeTokenFactoryAddressUpdated",
      "type": "event"
    },
    {
      "anonymous": false,
      "inputs": [
        {
          "indexed": false,
          "internalType": "address",
          "name": "newAddress",
          "type": "address"
        }
      ],
      "name": "MakerRegistrarAddressUpdated",
      "type": "event"
    },
    {
      "anonymous": false,
      "inputs": [
        {
          "indexed": false,
          "internalType": "address",
          "name": "newAddress",
          "type": "address"
        }
      ],
      "name": "ParameterManagerAddressUpdated",
      "type": "event"
    },
    {
      "anonymous": false,
      "inputs": [
        {
          "indexed": false,
          "internalType": "address",
          "name": "newAddress",
          "type": "address"
        }
      ],
      "name": "ReactionNftContractAddressUpdated",
      "type": "event"
    },
    {
      "anonymous": false,
      "inputs": [
        {
          "indexed": false,
          "internalType": "address",
          "name": "newAddress",
          "type": "address"
        }
      ],
      "name": "RoleManagerAddressUpdated",
      "type": "event"
    },
    {
      "anonymous": false,
      "inputs": [
        {
          "indexed": false,
          "internalType": "address",
          "name": "newAddress",
          "type": "address"
        }
      ],
      "name": "RoyaltyRegistryAddressUpdated",
      "type": "event"
    },
    {
      "inputs": [],
      "name": "childRegistrar",
      "outputs": [
        {
          "internalType": "address",
          "name": "",
          "type": "address"
        }
      ],
      "stateMutability": "view",
      "type": "function"
    },
    {
      "inputs": [],
      "name": "defaultCuratorVault",
      "outputs": [
        {
          "internalType": "contract ICuratorVault",
          "name": "",
          "type": "address"
        }
      ],
      "stateMutability": "view",
      "type": "function"
    },
    {
      "inputs": [],
      "name": "dispatcherManager",
      "outputs": [
        {
          "internalType": "contract IDispatcherManager",
          "name": "",
          "type": "address"
        }
      ],
      "stateMutability": "view",
      "type": "function"
    },
    {
      "inputs": [
        {
          "internalType": "contract IRoleManager",
          "name": "_roleManager",
          "type": "address"
        }
      ],
      "name": "initialize",
      "outputs": [],
      "stateMutability": "nonpayable",
      "type": "function"
    },
    {
      "inputs": [],
      "name": "likeTokenFactory",
      "outputs": [
        {
          "internalType": "address",
          "name": "",
          "type": "address"
        }
      ],
      "stateMutability": "view",
      "type": "function"
    },
    {
      "inputs": [],
      "name": "makerRegistrar",
      "outputs": [
        {
          "internalType": "contract IMakerRegistrar",
          "name": "",
          "type": "address"
        }
      ],
      "stateMutability": "view",
      "type": "function"
    },
    {
      "inputs": [],
      "name": "parameterManager",
      "outputs": [
        {
          "internalType": "contract IParameterManager",
          "name": "",
          "type": "address"
        }
      ],
      "stateMutability": "view",
      "type": "function"
    },
    {
      "inputs": [],
      "name": "reactionNftContract",
      "outputs": [
        {
          "internalType": "contract IStandard1155",
          "name": "",
          "type": "address"
        }
      ],
      "stateMutability": "view",
      "type": "function"
    },
    {
      "inputs": [],
      "name": "roleManager",
      "outputs": [
        {
          "internalType": "contract IRoleManager",
          "name": "",
          "type": "address"
        }
      ],
      "stateMutability": "view",
      "type": "function"
    },
    {
      "inputs": [],
      "name": "royaltyRegistry",
      "outputs": [
        {
          "internalType": "address",
          "name": "",
          "type": "address"
        }
      ],
      "stateMutability": "view",
      "type": "function"
    },
    {
      "inputs": [
        {
          "internalType": "address",
          "name": "_childRegistrar",
          "type": "address"
        }
      ],
      "name": "setChildRegistrar",
      "outputs": [],
      "stateMutability": "nonpayable",
      "type": "function"
    },
    {
      "inputs": [
        {
          "internalType": "contract ICuratorVault",
          "name": "_defaultCuratorVault",
          "type": "address"
        }
      ],
      "name": "setDefaultCuratorVault",
      "outputs": [],
      "stateMutability": "nonpayable",
      "type": "function"
    },
    {
      "inputs": [
        {
          "internalType": "contract IDispatcherManager",
          "name": "_dispatcherManager",
          "type": "address"
        }
      ],
      "name": "setDispatcherManager",
      "outputs": [],
      "stateMutability": "nonpayable",
      "type": "function"
    },
    {
      "inputs": [
        {
          "internalType": "address",
          "name": "_likeTokenFactory",
          "type": "address"
        }
      ],
      "name": "setLikeTokenFactory",
      "outputs": [],
      "stateMutability": "nonpayable",
      "type": "function"
    },
    {
      "inputs": [
        {
          "internalType": "contract IMakerRegistrar",
          "name": "_makerRegistrar",
          "type": "address"
        }
      ],
      "name": "setMakerRegistrar",
      "outputs": [],
      "stateMutability": "nonpayable",
      "type": "function"
    },
    {
      "inputs": [
        {
          "internalType": "contract IParameterManager",
          "name": "_parameterManager",
          "type": "address"
        }
      ],
      "name": "setParameterManager",
      "outputs": [],
      "stateMutability": "nonpayable",
      "type": "function"
    },
    {
      "inputs": [
        {
          "internalType": "contract IStandard1155",
          "name": "_reactionNftContract",
          "type": "address"
        }
      ],
      "name": "setReactionNftContract",
      "outputs": [],
      "stateMutability": "nonpayable",
      "type": "function"
    },
    {
      "inputs": [
        {
          "internalType": "contract IRoleManager",
          "name": "_roleManager",
          "type": "address"
        }
      ],
      "name": "setRoleManager",
      "outputs": [],
      "stateMutability": "nonpayable",
      "type": "function"
    },
    {
      "inputs": [
        {
          "internalType": "address",
          "name": "_royaltyRegistry",
          "type": "address"
        }
      ],
      "name": "setRoyaltyRegistry",
      "outputs": [],
      "stateMutability": "nonpayable",
      "type": "function"
    }
  ],
  "transactionHash": "0x0134e8e556c6769a3b4a84e0ab9817ac5fe5f3e8c0fb950011b8aa7b5b25fded",
  "args": [],
  "numDeployments": 3,
  "solcInputHash": "b84b00b90490290595acf2b30cb1ae9d",
  "bytecode": "0x608060405234801561001057600080fd5b50611073806100206000396000f3fe608060405234801561001057600080fd5b50600436106101105760003560e01c80636fdfe8c5116100ad578063a11b071211610071578063a11b07121461023d578063b27bcea114610250578063c0dc069714610263578063c4d66de814610276578063f1d588c51461028957600080fd5b80636fdfe8c5146101de57806376104ad5146101f15780637ab0a0d81461020457806384a608e2146102175780639971f8b51461022a57600080fd5b8062435da514610115578063085da3101461014457806332823e2214610157578063363f8a651461016c5780635c7bdf9d1461017f5780636116399c146101925780636345b9e5146101a5578063692f152f146101b85780636c9a9a0e146101cb575b600080fd5b60005461012e906201000090046001600160a01b031681565b60405161013b9190610f53565b60405180910390f35b60055461012e906001600160a01b031681565b61016a610165366004610f7f565b61029c565b005b60025461012e906001600160a01b031681565b61016a61018d366004610f7f565b6103ea565b60085461012e906001600160a01b031681565b61016a6101b3366004610f7f565b610524565b61016a6101c6366004610f7f565b61065e565b61016a6101d9366004610f7f565b610799565b60045461012e906001600160a01b031681565b60035461012e906001600160a01b031681565b61016a610212366004610f7f565b610886565b61016a610225366004610f7f565b6109c0565b60075461012e906001600160a01b031681565b60065461012e906001600160a01b031681565b60015461012e906001600160a01b031681565b61016a610271366004610f7f565b610aad565b61016a610284366004610f7f565b610be7565b61016a610297366004610f7f565b610d61565b60005460405163888e81fb60e01b8152620100009091046001600160a01b03169063888e81fb906102d1903390600401610f53565b60206040518083038186803b1580156102e957600080fd5b505afa1580156102fd573d6000803e3d6000fd5b505050506040513d601f19601f820116820180604052508101906103219190610fa3565b6103465760405162461bcd60e51b815260040161033d90610fc5565b60405180910390fd5b60408051808201909152600f81526e125b9d985b1a59080c081a5b9c1d5d608a1b60208201526001600160a01b0382166103935760405162461bcd60e51b815260040161033d9190610fe8565b50600380546001600160a01b0319166001600160a01b0383161790556040517fd54810c3e06d63f1327683c5d6138ee718e8e8f80931b67c8e89a91d82b4d85c906103df908390610f53565b60405180910390a150565b60005460405163888e81fb60e01b8152620100009091046001600160a01b03169063888e81fb9061041f903390600401610f53565b60206040518083038186803b15801561043757600080fd5b505afa15801561044b573d6000803e3d6000fd5b505050506040513d601f19601f8201168201806040525081019061046f9190610fa3565b61048b5760405162461bcd60e51b815260040161033d90610fc5565b60408051808201909152600f81526e125b9d985b1a59080c081a5b9c1d5d608a1b60208201526001600160a01b0382166104d85760405162461bcd60e51b815260040161033d9190610fe8565b50600280546001600160a01b0319166001600160a01b0383161790556040517f173eeb4e9ab44eb875443418bb7ffb76588f582e08f232ca32871efaea8bbe4d906103df908390610f53565b60005460405163888e81fb60e01b8152620100009091046001600160a01b03169063888e81fb90610559903390600401610f53565b60206040518083038186803b15801561057157600080fd5b505afa158015610585573d6000803e3d6000fd5b505050506040513d601f19601f820116820180604052508101906105a99190610fa3565b6105c55760405162461bcd60e51b815260040161033d90610fc5565b60408051808201909152600f81526e125b9d985b1a59080c081a5b9c1d5d608a1b60208201526001600160a01b0382166106125760405162461bcd60e51b815260040161033d9190610fe8565b50600480546001600160a01b0319166001600160a01b0383161790556040517f48ffee3d1acca6256050fd4f23b086fcb8c5eaa5dc8388254cf85e54fe1f25c8906103df908390610f53565b60005460405163888e81fb60e01b8152620100009091046001600160a01b03169063888e81fb90610693903390600401610f53565b60206040518083038186803b1580156106ab57600080fd5b505afa1580156106bf573d6000803e3d6000fd5b505050506040513d601f19601f820116820180604052508101906106e39190610fa3565b6106ff5760405162461bcd60e51b815260040161033d90610fc5565b60408051808201909152600f81526e125b9d985b1a59080c081a5b9c1d5d608a1b60208201526001600160a01b03821661074c5760405162461bcd60e51b815260040161033d9190610fe8565b50600880546001600160a01b0319166001600160a01b0383169081179091556040517f03757c0702d9e377cab801a0f3fc749a0281af4f4d18165fb2718abf6b735fc0916103df91610f53565b60005460405163888e81fb60e01b8152620100009091046001600160a01b03169063888e81fb906107ce903390600401610f53565b60206040518083038186803b1580156107e657600080fd5b505afa1580156107fa573d6000803e3d6000fd5b505050506040513d601f19601f8201168201806040525081019061081e9190610fa3565b61083a5760405162461bcd60e51b815260040161033d90610fc5565b600780546001600160a01b0319166001600160a01b0383169081179091556040517f056567443fff3c30a17df7b7a2a09f00d3f8d1984bd7d80bc0c6bd6767a323f2916103df91610f53565b60005460405163888e81fb60e01b8152620100009091046001600160a01b03169063888e81fb906108bb903390600401610f53565b60206040518083038186803b1580156108d357600080fd5b505afa1580156108e7573d6000803e3d6000fd5b505050506040513d601f19601f8201168201806040525081019061090b9190610fa3565b6109275760405162461bcd60e51b815260040161033d90610fc5565b60408051808201909152600f81526e125b9d985b1a59080c081a5b9c1d5d608a1b60208201526001600160a01b0382166109745760405162461bcd60e51b815260040161033d9190610fe8565b50600180546001600160a01b0319166001600160a01b0383161790556040517f3ca33f53fcbf1f72afcbe5c097ac9a979793e004e71ab84d580ad6e6313d953d906103df908390610f53565b60005460405163888e81fb60e01b8152620100009091046001600160a01b03169063888e81fb906109f5903390600401610f53565b60206040518083038186803b158015610a0d57600080fd5b505afa158015610a21573d6000803e3d6000fd5b505050506040513d601f19601f82011682018060405250810190610a459190610fa3565b610a615760405162461bcd60e51b815260040161033d90610fc5565b600680546001600160a01b0319166001600160a01b0383169081179091556040517f2bd46969b753ce8b44d5e046a713707b8caabd4204229093e8819fd2bc965449916103df91610f53565b60005460405163888e81fb60e01b8152620100009091046001600160a01b03169063888e81fb90610ae2903390600401610f53565b60206040518083038186803b158015610afa57600080fd5b505afa158015610b0e573d6000803e3d6000fd5b505050506040513d601f19601f82011682018060405250810190610b329190610fa3565b610b4e5760405162461bcd60e51b815260040161033d90610fc5565b60408051808201909152600f81526e125b9d985b1a59080c081a5b9c1d5d608a1b60208201526001600160a01b038216610b9b5760405162461bcd60e51b815260040161033d9190610fe8565b50600580546001600160a01b0319166001600160a01b0383161790556040517f991776617152e8088820560d1b451617b5cddf5d2e1c1d0885e969fa18576753906103df908390610f53565b600054610100900460ff1615808015610c075750600054600160ff909116105b80610c215750303b158015610c21575060005460ff166001145b610c845760405162461bcd60e51b815260206004820152602e60248201527f496e697469616c697a61626c653a20636f6e747261637420697320616c72656160448201526d191e481a5b9a5d1a585b1a5e995960921b606482015260840161033d565b6000805460ff191660011790558015610ca7576000805461ff0019166101001790555b60408051808201909152600f81526e125b9d985b1a59080c081a5b9c1d5d608a1b60208201526001600160a01b038316610cf45760405162461bcd60e51b815260040161033d9190610fe8565b506000805462010000600160b01b031916620100006001600160a01b038516021790558015610d5d576000805461ff0019169055604051600181527f7f26b83ff96e1f2b6a682f133852f6798a09c465da95921460cefb38474024989060200160405180910390a15b5050565b60005460405163888e81fb60e01b8152620100009091046001600160a01b03169063888e81fb90610d96903390600401610f53565b60206040518083038186803b158015610dae57600080fd5b505afa158015610dc2573d6000803e3d6000fd5b505050506040513d601f19601f82011682018060405250810190610de69190610fa3565b610e025760405162461bcd60e51b815260040161033d90610fc5565b60408051808201909152600f81526e125b9d985b1a59080c081a5b9c1d5d608a1b60208201526001600160a01b038216610e4f5760405162461bcd60e51b815260040161033d9190610fe8565b50604051630935e01b60e21b81526001600160a01b038216906324d7806c90610e7c903390600401610f53565b60206040518083038186803b158015610e9457600080fd5b505afa158015610ea8573d6000803e3d6000fd5b505050506040513d601f19601f82011682018060405250810190610ecc9190610fa3565b610f055760405162461bcd60e51b815260206004820152600a6024820152691493481a5b9d985b1a5960b21b604482015260640161033d565b6000805462010000600160b01b031916620100006001600160a01b038416021790556040517ff147991653b648d23bf29ee376dc366e380264f25c11e005b8b1310bc58955b0906103df9083905b6001600160a01b0391909116815260200190565b6001600160a01b0381168114610f7c57600080fd5b50565b600060208284031215610f9157600080fd5b8135610f9c81610f67565b9392505050565b600060208284031215610fb557600080fd5b81518015158114610f9c57600080fd5b6020808252600990820152682737ba1020b236b4b760b91b604082015260600190565b600060208083528351808285015260005b8181101561101557858101830151858201604001528201610ff9565b81811115611027576000604083870101525b50601f01601f191692909201604001939250505056fea264697066735822122016e185c329a8077176ccaf74358b1c2adb45d064a3335e3366c2fd4c049e849564736f6c63430008090033",
  "devdoc": {
    "details": "Note: This contract is protected via a permissioned account set in the role manager.  Caution should be used as the role owner could renounce the role leaving all future actions disabled.  Additionally, if a malicious account was able to obtain the role, they could use it to set values to malicious addresses. See the public documentation website for more details.",
    "events": {
      "RoleManagerAddressUpdated(address)": {
        "details": "Events emitted on updates"
      }
    },
    "kind": "dev",
    "methods": {
      "initialize(address)": {
        "details": "initializer to call after deployment, can only be called once"
      },
      "setChildRegistrar(address)": {
        "details": "Setter for the L2 bridge registrar"
      },
      "setDefaultCuratorVault(address)": {
        "details": "Setter for the default curator vault address"
      },
      "setDispatcherManager(address)": {
        "details": "Setter for the dispatcher manager address"
      },
      "setLikeTokenFactory(address)": {
        "details": "Setter for the address of the Like Token Factory"
      },
      "setMakerRegistrar(address)": {
        "details": "Setter for the maker registrar address"
      },
      "setParameterManager(address)": {
        "details": "Setter for the parameter manager address"
      },
      "setReactionNftContract(address)": {
        "details": "Setter for the reaction nft token address"
      },
      "setRoleManager(address)": {
        "details": "Setter for the role manager address"
      },
      "setRoyaltyRegistry(address)": {
        "details": "Setter for the address of the royalty registry"
      }
    },
    "version": 1
  },
  "userdoc": {
    "kind": "user",
    "methods": {},
    "version": 1
  },
  "storageLayout": {
    "storage": [
      {
        "astId": 2446,
        "contract": "contracts/Config/AddressManager.sol:AddressManager",
        "label": "_initialized",
        "offset": 0,
        "slot": "0",
        "type": "t_uint8"
      },
      {
        "astId": 2449,
        "contract": "contracts/Config/AddressManager.sol:AddressManager",
        "label": "_initializing",
        "offset": 1,
        "slot": "0",
        "type": "t_bool"
      },
      {
        "astId": 8552,
        "contract": "contracts/Config/AddressManager.sol:AddressManager",
        "label": "roleManager",
        "offset": 2,
        "slot": "0",
        "type": "t_contract(IRoleManager)13147"
      },
      {
        "astId": 8556,
        "contract": "contracts/Config/AddressManager.sol:AddressManager",
        "label": "parameterManager",
        "offset": 0,
        "slot": "1",
        "type": "t_contract(IParameterManager)12611"
      },
      {
        "astId": 8560,
        "contract": "contracts/Config/AddressManager.sol:AddressManager",
        "label": "makerRegistrar",
        "offset": 0,
        "slot": "2",
        "type": "t_contract(IMakerRegistrar)11747"
      },
      {
        "astId": 8564,
        "contract": "contracts/Config/AddressManager.sol:AddressManager",
        "label": "reactionNftContract",
        "offset": 0,
        "slot": "3",
        "type": "t_contract(IStandard1155)16122"
      },
      {
        "astId": 8568,
        "contract": "contracts/Config/AddressManager.sol:AddressManager",
        "label": "defaultCuratorVault",
        "offset": 0,
        "slot": "4",
        "type": "t_contract(ICuratorVault)9232"
      },
      {
        "astId": 8571,
        "contract": "contracts/Config/AddressManager.sol:AddressManager",
        "label": "childRegistrar",
        "offset": 0,
        "slot": "5",
        "type": "t_address"
      },
      {
        "astId": 8574,
        "contract": "contracts/Config/AddressManager.sol:AddressManager",
        "label": "royaltyRegistry",
        "offset": 0,
        "slot": "6",
        "type": "t_address"
      },
      {
        "astId": 8581,
        "contract": "contracts/Config/AddressManager.sol:AddressManager",
        "label": "likeTokenFactory",
        "offset": 0,
        "slot": "7",
        "type": "t_address"
      },
      {
        "astId": 8588,
        "contract": "contracts/Config/AddressManager.sol:AddressManager",
        "label": "dispatcherManager",
        "offset": 0,
        "slot": "8",
        "type": "t_contract(IDispatcherManager)11142"
      }
    ],
    "types": {
      "t_address": {
        "encoding": "inplace",
        "label": "address",
        "numberOfBytes": "20"
      },
      "t_bool": {
        "encoding": "inplace",
        "label": "bool",
        "numberOfBytes": "1"
      },
      "t_contract(ICuratorVault)9232": {
        "encoding": "inplace",
        "label": "contract ICuratorVault",
        "numberOfBytes": "20"
      },
      "t_contract(IDispatcherManager)11142": {
        "encoding": "inplace",
        "label": "contract IDispatcherManager",
        "numberOfBytes": "20"
      },
      "t_contract(IMakerRegistrar)11747": {
        "encoding": "inplace",
        "label": "contract IMakerRegistrar",
        "numberOfBytes": "20"
      },
      "t_contract(IParameterManager)12611": {
        "encoding": "inplace",
        "label": "contract IParameterManager",
        "numberOfBytes": "20"
      },
      "t_contract(IRoleManager)13147": {
        "encoding": "inplace",
        "label": "contract IRoleManager",
        "numberOfBytes": "20"
      },
      "t_contract(IStandard1155)16122": {
        "encoding": "inplace",
        "label": "contract IStandard1155",
        "numberOfBytes": "20"
      },
      "t_uint8": {
        "encoding": "inplace",
        "label": "uint8",
        "numberOfBytes": "1"
      }
    }
  }
}