{
  "address": "0xF584d1b43A02bA8Ac47d6a464b4e6B3c5A44df80",
  "abi": [
    {
      "inputs": [
        {
          "internalType": "address",
          "name": "_fxChild",
          "type": "address"
        },
        {
          "internalType": "contract IAddressManager",
          "name": "_addressManager",
          "type": "address"
        }
      ],
      "stateMutability": "nonpayable",
      "type": "constructor"
    },
    {
      "anonymous": false,
      "inputs": [
        {
          "indexed": false,
          "internalType": "bytes",
          "name": "message",
          "type": "bytes"
        }
      ],
      "name": "MessageSent",
      "type": "event"
    },
    {
      "inputs": [],
      "name": "DE_REGISTER",
      "outputs": [
        {
          "internalType": "bytes32",
          "name": "",
          "type": "bytes32"
        }
      ],
      "stateMutability": "view",
      "type": "function"
    },
    {
      "inputs": [],
      "name": "REGISTER",
      "outputs": [
        {
          "internalType": "bytes32",
          "name": "",
          "type": "bytes32"
        }
      ],
      "stateMutability": "view",
      "type": "function"
    },
    {
      "inputs": [],
      "name": "addressManager",
      "outputs": [
        {
          "internalType": "contract IAddressManager",
          "name": "",
          "type": "address"
        }
      ],
      "stateMutability": "view",
      "type": "function"
    },
    {
      "inputs": [],
      "name": "deployer",
      "outputs": [
        {
          "internalType": "address",
          "name": "",
          "type": "address"
        }
      ],
      "stateMutability": "view",
      "type": "function"
    },
    {
      "inputs": [],
      "name": "fxChild",
      "outputs": [
        {
          "internalType": "address",
          "name": "",
          "type": "address"
        }
      ],
      "stateMutability": "view",
      "type": "function"
    },
    {
      "inputs": [],
      "name": "fxRootTunnel",
      "outputs": [
        {
          "internalType": "address",
          "name": "",
          "type": "address"
        }
      ],
      "stateMutability": "view",
      "type": "function"
    },
    {
      "inputs": [
        {
          "internalType": "uint256",
          "name": "stateId",
          "type": "uint256"
        },
        {
          "internalType": "address",
          "name": "rootMessageSender",
          "type": "address"
        },
        {
          "internalType": "bytes",
          "name": "data",
          "type": "bytes"
        }
      ],
      "name": "processMessageFromRoot",
      "outputs": [],
      "stateMutability": "nonpayable",
      "type": "function"
    },
    {
      "inputs": [
        {
          "internalType": "address",
          "name": "_fxRootTunnel",
          "type": "address"
        }
      ],
      "name": "setFxRootTunnel",
      "outputs": [],
      "stateMutability": "nonpayable",
      "type": "function"
    }
  ],
  "transactionHash": "0xa9f2802824a21dff55a745380214a561c480377f2e25ebb02d5ba390f08f2efe",
  "args": [
    "0x8397259c983751DAf40400790063935a11afa28a",
    "0x2e6C454bde8a946172D0b43cCB84d19F12a0CE49"
  ],
  "numDeployments": 1,
  "solcInputHash": "0c452a7a2a2db8193582d74055ee849a",
  "bytecode": "0x60806040523480156200001157600080fd5b50604051620018c8380380620018c88339818101604052810190620000379190620001b2565b81806000806101000a81548173ffffffffffffffffffffffffffffffffffffffff021916908373ffffffffffffffffffffffffffffffffffffffff1602179055505080600260006101000a81548173ffffffffffffffffffffffffffffffffffffffff021916908373ffffffffffffffffffffffffffffffffffffffff16021790555033600360006101000a81548173ffffffffffffffffffffffffffffffffffffffff021916908373ffffffffffffffffffffffffffffffffffffffff1602179055505050620001f9565b600080fd5b600073ffffffffffffffffffffffffffffffffffffffff82169050919050565b6000620001358262000108565b9050919050565b620001478162000128565b81146200015357600080fd5b50565b60008151905062000167816200013c565b92915050565b60006200017a8262000128565b9050919050565b6200018c816200016d565b81146200019857600080fd5b50565b600081519050620001ac8162000181565b92915050565b60008060408385031215620001cc57620001cb62000103565b5b6000620001dc8582860162000156565b9250506020620001ef858286016200019b565b9150509250929050565b6116bf80620002096000396000f3fe608060405234801561001057600080fd5b50600436106100885760003560e01c8063888370941161005b57806388837094146101055780639a7c4b7114610121578063d5f394881461013d578063e8a28dd71461015b57610088565b8063103252641461008d5780633ab76e9f146100ab578063450d11f0146100c95780637f1e9cb0146100e7575b600080fd5b610095610179565b6040516100a291906108a4565b60405180910390f35b6100b361019d565b6040516100c0919061093e565b60405180910390f35b6100d16101c3565b6040516100de919061097a565b60405180910390f35b6100ef6101e7565b6040516100fc919061097a565b60405180910390f35b61011f600480360381019061011a91906109d5565b61020d565b005b61013b60048036038101906101369190610a9d565b610372565b005b610145610455565b604051610152919061097a565b60405180910390f35b61016361047b565b60405161017091906108a4565b60405180910390f35b7ff98aef635801dfa470eae0492dd6a267cc7e32661957109ef6316bfd8bea371e81565b600260009054906101000a900473ffffffffffffffffffffffffffffffffffffffff1681565b60008054906101000a900473ffffffffffffffffffffffffffffffffffffffff1681565b600160009054906101000a900473ffffffffffffffffffffffffffffffffffffffff1681565b3373ffffffffffffffffffffffffffffffffffffffff16600360009054906101000a900473ffffffffffffffffffffffffffffffffffffffff1673ffffffffffffffffffffffffffffffffffffffff161461029d576040517f08c379a000000000000000000000000000000000000000000000000000000000815260040161029490610b6e565b60405180910390fd5b600073ffffffffffffffffffffffffffffffffffffffff16600160009054906101000a900473ffffffffffffffffffffffffffffffffffffffff1673ffffffffffffffffffffffffffffffffffffffff161461032e576040517f08c379a000000000000000000000000000000000000000000000000000000000815260040161032590610bda565b60405180910390fd5b80600160006101000a81548173ffffffffffffffffffffffffffffffffffffffff021916908373ffffffffffffffffffffffffffffffffffffffff16021790555050565b60008054906101000a900473ffffffffffffffffffffffffffffffffffffffff1673ffffffffffffffffffffffffffffffffffffffff163373ffffffffffffffffffffffffffffffffffffffff1614610400576040517f08c379a00000000000000000000000000000000000000000000000000000000081526004016103f790610c6c565b60405180910390fd5b61044f848484848080601f016020809104026020016040519081016040528093929190818152602001838380828437600081840152601f19601f8201169050808301925050505050505061049f565b50505050565b600360009054906101000a900473ffffffffffffffffffffffffffffffffffffffff1681565b7f58cc5acb742fd5eb9df21407aed105abca7d37584645d014636aa13c7b7bc38781565b81600160009054906101000a900473ffffffffffffffffffffffffffffffffffffffff1673ffffffffffffffffffffffffffffffffffffffff168173ffffffffffffffffffffffffffffffffffffffff1614610530576040517f08c379a000000000000000000000000000000000000000000000000000000000815260040161052790610cfe565b60405180910390fd5b600080838060200190518101906105479190610eaf565b915091507f58cc5acb742fd5eb9df21407aed105abca7d37584645d014636aa13c7b7bc3878214156105815761057c816105fb565b6105f3565b7ff98aef635801dfa470eae0492dd6a267cc7e32661957109ef6316bfd8bea371e8214156105b7576105b281610750565b6105f2565b6040517f08c379a00000000000000000000000000000000000000000000000000000000081526004016105e990610f57565b60405180910390fd5b5b505050505050565b6000806000806000806000808880602001905181019061061b9190611206565b97509750975097509750975097509750600260009054906101000a900473ffffffffffffffffffffffffffffffffffffffff1673ffffffffffffffffffffffffffffffffffffffff1663363f8a656040518163ffffffff1660e01b8152600401602060405180830381600087803b15801561069557600080fd5b505af11580156106a9573d6000803e3d6000fd5b505050506040513d601f19601f820116820180604052508101906106cd919061134e565b73ffffffffffffffffffffffffffffffffffffffff1663edad684a89898989898989896040518963ffffffff1660e01b815260040161071398979695949392919061154a565b600060405180830381600087803b15801561072d57600080fd5b505af1158015610741573d6000803e3d6000fd5b50505050505050505050505050565b6000806000808480602001905181019061076a91906115dd565b9350935093509350600260009054906101000a900473ffffffffffffffffffffffffffffffffffffffff1673ffffffffffffffffffffffffffffffffffffffff1663363f8a656040518163ffffffff1660e01b8152600401602060405180830381600087803b1580156107dc57600080fd5b505af11580156107f0573d6000803e3d6000fd5b505050506040513d601f19601f82011682018060405250810190610814919061134e565b73ffffffffffffffffffffffffffffffffffffffff1663fb9b92bc858585856040518563ffffffff1660e01b81526004016108529493929190611644565b600060405180830381600087803b15801561086c57600080fd5b505af1158015610880573d6000803e3d6000fd5b505050505050505050565b6000819050919050565b61089e8161088b565b82525050565b60006020820190506108b96000830184610895565b92915050565b600073ffffffffffffffffffffffffffffffffffffffff82169050919050565b6000819050919050565b60006109046108ff6108fa846108bf565b6108df565b6108bf565b9050919050565b6000610916826108e9565b9050919050565b60006109288261090b565b9050919050565b6109388161091d565b82525050565b6000602082019050610953600083018461092f565b92915050565b6000610964826108bf565b9050919050565b61097481610959565b82525050565b600060208201905061098f600083018461096b565b92915050565b6000604051905090565b600080fd5b600080fd5b6109b281610959565b81146109bd57600080fd5b50565b6000813590506109cf816109a9565b92915050565b6000602082840312156109eb576109ea61099f565b5b60006109f9848285016109c0565b91505092915050565b6000819050919050565b610a1581610a02565b8114610a2057600080fd5b50565b600081359050610a3281610a0c565b92915050565b600080fd5b600080fd5b600080fd5b60008083601f840112610a5d57610a5c610a38565b5b8235905067ffffffffffffffff811115610a7a57610a79610a3d565b5b602083019150836001820283011115610a9657610a95610a42565b5b9250929050565b60008060008060608587031215610ab757610ab661099f565b5b6000610ac587828801610a23565b9450506020610ad6878288016109c0565b935050604085013567ffffffffffffffff811115610af757610af66109a4565b5b610b0387828801610a47565b925092505092959194509250565b600082825260208201905092915050565b7f4f6e6c79206465706c6f79657200000000000000000000000000000000000000600082015250565b6000610b58600d83610b11565b9150610b6382610b22565b602082019050919050565b60006020820190508181036000830152610b8781610b4b565b9050919050565b7f416c726561647920736574000000000000000000000000000000000000000000600082015250565b6000610bc4600b83610b11565b9150610bcf82610b8e565b602082019050919050565b60006020820190508181036000830152610bf381610bb7565b9050919050565b7f4678426173654368696c6454756e6e656c3a20494e56414c49445f53454e444560008201527f5200000000000000000000000000000000000000000000000000000000000000602082015250565b6000610c56602183610b11565b9150610c6182610bfa565b604082019050919050565b60006020820190508181036000830152610c8581610c49565b9050919050565b7f4678426173654368696c6454756e6e656c3a20494e56414c49445f53454e444560008201527f525f46524f4d5f524f4f54000000000000000000000000000000000000000000602082015250565b6000610ce8602b83610b11565b9150610cf382610c8c565b604082019050919050565b60006020820190508181036000830152610d1781610cdb565b9050919050565b610d278161088b565b8114610d3257600080fd5b50565b600081519050610d4481610d1e565b92915050565b600080fd5b6000601f19601f8301169050919050565b7f4e487b7100000000000000000000000000000000000000000000000000000000600052604160045260246000fd5b610d9882610d4f565b810181811067ffffffffffffffff82111715610db757610db6610d60565b5b80604052505050565b6000610dca610995565b9050610dd68282610d8f565b919050565b600067ffffffffffffffff821115610df657610df5610d60565b5b610dff82610d4f565b9050602081019050919050565b60005b83811015610e2a578082015181840152602081019050610e0f565b83811115610e39576000848401525b50505050565b6000610e52610e4d84610ddb565b610dc0565b905082815260208101848484011115610e6e57610e6d610d4a565b5b610e79848285610e0c565b509392505050565b600082601f830112610e9657610e95610a38565b5b8151610ea6848260208601610e3f565b91505092915050565b60008060408385031215610ec657610ec561099f565b5b6000610ed485828601610d35565b925050602083015167ffffffffffffffff811115610ef557610ef46109a4565b5b610f0185828601610e81565b9150509250929050565b7f455252204d534700000000000000000000000000000000000000000000000000600082015250565b6000610f41600783610b11565b9150610f4c82610f0b565b602082019050919050565b60006020820190508181036000830152610f7081610f34565b9050919050565b6000610f82826108bf565b9050919050565b610f9281610f77565b8114610f9d57600080fd5b50565b600081519050610faf81610f89565b92915050565b600081519050610fc481610a0c565b92915050565b600067ffffffffffffffff821115610fe557610fe4610d60565b5b602082029050602081019050919050565b600081519050611005816109a9565b92915050565b600061101e61101984610fca565b610dc0565b9050808382526020820190506020840283018581111561104157611040610a42565b5b835b8181101561106a57806110568882610ff6565b845260208401935050602081019050611043565b5050509392505050565b600082601f83011261108957611088610a38565b5b815161109984826020860161100b565b91505092915050565b600067ffffffffffffffff8211156110bd576110bc610d60565b5b602082029050602081019050919050565b60006110e16110dc846110a2565b610dc0565b9050808382526020820190506020840283018581111561110457611103610a42565b5b835b8181101561112d57806111198882610fb5565b845260208401935050602081019050611106565b5050509392505050565b600082601f83011261114c5761114b610a38565b5b815161115c8482602086016110ce565b91505092915050565b600067ffffffffffffffff8211156111805761117f610d60565b5b61118982610d4f565b9050602081019050919050565b60006111a96111a484611165565b610dc0565b9050828152602081018484840111156111c5576111c4610d4a565b5b6111d0848285610e0c565b509392505050565b600082601f8301126111ed576111ec610a38565b5b81516111fd848260208601611196565b91505092915050565b600080600080600080600080610100898b0312156112275761122661099f565b5b60006112358b828c01610fa0565b98505060206112468b828c01610fb5565b97505060406112578b828c01610fa0565b96505060606112688b828c01610fb5565b955050608089015167ffffffffffffffff811115611289576112886109a4565b5b6112958b828c01611074565b94505060a089015167ffffffffffffffff8111156112b6576112b56109a4565b5b6112c28b828c01611137565b93505060c06112d38b828c01610fb5565b92505060e089015167ffffffffffffffff8111156112f4576112f36109a4565b5b6113008b828c016111d8565b9150509295985092959890939650565b600061131b82610959565b9050919050565b61132b81611310565b811461133657600080fd5b50565b60008151905061134881611322565b92915050565b6000602082840312156113645761136361099f565b5b600061137284828501611339565b91505092915050565b61138481610a02565b82525050565b600081519050919050565b600082825260208201905092915050565b6000819050602082019050919050565b6113bf81610959565b82525050565b60006113d183836113b6565b60208301905092915050565b6000602082019050919050565b60006113f58261138a565b6113ff8185611395565b935061140a836113a6565b8060005b8381101561143b57815161142288826113c5565b975061142d836113dd565b92505060018101905061140e565b5085935050505092915050565b600081519050919050565b600082825260208201905092915050565b6000819050602082019050919050565b61147d81610a02565b82525050565b600061148f8383611474565b60208301905092915050565b6000602082019050919050565b60006114b382611448565b6114bd8185611453565b93506114c883611464565b8060005b838110156114f95781516114e08882611483565b97506114eb8361149b565b9250506001810190506114cc565b5085935050505092915050565b600081519050919050565b600061151c82611506565b6115268185610b11565b9350611536818560208601610e0c565b61153f81610d4f565b840191505092915050565b600061010082019050611560600083018b61096b565b61156d602083018a61137b565b61157a604083018961096b565b611587606083018861137b565b818103608083015261159981876113ea565b905081810360a08301526115ad81866114a8565b90506115bc60c083018561137b565b81810360e08301526115ce8184611511565b90509998505050505050505050565b600080600080608085870312156115f7576115f661099f565b5b600061160587828801610fa0565b945050602061161687828801610fb5565b935050604061162787828801610fa0565b925050606061163887828801610fb5565b91505092959194509250565b6000608082019050611659600083018761096b565b611666602083018661137b565b611673604083018561096b565b611680606083018461137b565b9594505050505056fea2646970667358221220d550979b85df087a6a3273add3b5112490a410c33973021a19b00f07b585c84464736f6c63430008090033",
  "devdoc": {
    "details": "This contract lives on the L2 and receives messages from the L1 to register and unregister NFTs on the L1 chain. This is not an upgradeable contract and should not be used with a proxy.",
    "kind": "dev",
    "methods": {
      "constructor": {
        "details": "After deployment you must call setFxRootTunnel() with the RootRegistrar Address on the L1.",
        "params": {
          "_addressManager": "- This is the address manager on the protocol",
          "_fxChild": "- This is the contract deployed on the L2 that will be sending messages here. This is a well known deployed contract that Matic has set up."
        }
      },
      "setFxRootTunnel(address)": {
        "details": "Set fxRootTunnel if not set already Only the deploying account can update this Overrides the function in the base contract"
      }
    },
    "stateVariables": {
      "addressManager": {
        "details": "local reference to the address manager contract"
      },
      "deployer": {
        "details": "the address that deployed this contract is the only one that can update the fxRootTunnel"
      }
    },
    "version": 1
  },
  "userdoc": {
    "kind": "user",
    "methods": {},
    "version": 1
  },
  "storageLayout": {
    "storage": [
      {
        "astId": 7098,
        "contract": "contracts/Bridge/ChildRegistrar.sol:ChildRegistrar",
        "label": "fxChild",
        "offset": 0,
        "slot": "0",
        "type": "t_address"
      },
      {
        "astId": 7100,
        "contract": "contracts/Bridge/ChildRegistrar.sol:ChildRegistrar",
        "label": "fxRootTunnel",
        "offset": 0,
        "slot": "1",
        "type": "t_address"
      },
      {
        "astId": 6864,
        "contract": "contracts/Bridge/ChildRegistrar.sol:ChildRegistrar",
        "label": "addressManager",
        "offset": 0,
        "slot": "2",
        "type": "t_contract(IAddressManager)8208"
      },
      {
        "astId": 6867,
        "contract": "contracts/Bridge/ChildRegistrar.sol:ChildRegistrar",
        "label": "deployer",
        "offset": 0,
        "slot": "3",
        "type": "t_address"
      }
    ],
    "types": {
      "t_address": {
        "encoding": "inplace",
        "label": "address",
        "numberOfBytes": "20"
      },
      "t_contract(IAddressManager)8208": {
        "encoding": "inplace",
        "label": "contract IAddressManager",
        "numberOfBytes": "20"
      }
    }
  }
}