{
  "address": "0x155359ac7a608CfFA802a1859AD7d1196b5709Fd",
  "abi": [
    {
      "inputs": [],
      "name": "SignatureExpired",
      "type": "error"
    },
    {
      "inputs": [],
      "name": "SignatureInvalid",
      "type": "error"
    },
    {
      "anonymous": false,
      "inputs": [
        {
          "indexed": false,
          "internalType": "address",
          "name": "account",
          "type": "address"
        },
        {
          "indexed": false,
          "internalType": "address",
          "name": "addedDispatcher",
          "type": "address"
        }
      ],
      "name": "DispatcherAdded",
      "type": "event"
    },
    {
      "anonymous": false,
      "inputs": [
        {
          "indexed": false,
          "internalType": "address",
          "name": "account",
          "type": "address"
        },
        {
          "indexed": false,
          "internalType": "address",
          "name": "removedDispatcher",
          "type": "address"
        }
      ],
      "name": "DispatcherRemoved",
      "type": "event"
    },
    {
      "anonymous": false,
      "inputs": [
        {
          "indexed": false,
          "internalType": "uint8",
          "name": "version",
          "type": "uint8"
        }
      ],
      "name": "Initialized",
      "type": "event"
    },
    {
      "inputs": [],
      "name": "SIG_DOMAIN_NAME",
      "outputs": [
        {
          "internalType": "string",
          "name": "",
          "type": "string"
        }
      ],
      "stateMutability": "view",
      "type": "function"
    },
    {
      "inputs": [
        {
          "internalType": "address",
          "name": "_dispatcher",
          "type": "address"
        }
      ],
      "name": "addDispatcher",
      "outputs": [],
      "stateMutability": "nonpayable",
      "type": "function"
    },
    {
      "inputs": [
        {
          "components": [
            {
              "internalType": "address",
              "name": "account",
              "type": "address"
            },
            {
              "internalType": "address",
              "name": "dispatcher",
              "type": "address"
            },
            {
              "components": [
                {
                  "internalType": "uint8",
                  "name": "v",
                  "type": "uint8"
                },
                {
                  "internalType": "bytes32",
                  "name": "r",
                  "type": "bytes32"
                },
                {
                  "internalType": "bytes32",
                  "name": "s",
                  "type": "bytes32"
                },
                {
                  "internalType": "uint256",
                  "name": "deadline",
                  "type": "uint256"
                }
              ],
              "internalType": "struct DataTypes.EIP712Signature",
              "name": "sig",
              "type": "tuple"
            }
          ],
          "internalType": "struct DataTypes.AddDispatcherWithSigData",
          "name": "vars",
          "type": "tuple"
        }
      ],
      "name": "addDispatcherWithSig",
      "outputs": [],
      "stateMutability": "nonpayable",
      "type": "function"
    },
    {
      "inputs": [],
      "name": "addressManager",
      "outputs": [
        {
          "internalType": "contract IAddressManager",
          "name": "",
          "type": "address"
        }
      ],
      "stateMutability": "view",
      "type": "function"
    },
    {
      "inputs": [
        {
          "internalType": "address",
          "name": "",
          "type": "address"
        },
        {
          "internalType": "address",
          "name": "",
          "type": "address"
        }
      ],
      "name": "dispatchersByAccount",
      "outputs": [
        {
          "internalType": "bool",
          "name": "",
          "type": "bool"
        }
      ],
      "stateMutability": "view",
      "type": "function"
    },
    {
      "inputs": [
        {
          "internalType": "contract IAddressManager",
          "name": "_addressManager",
          "type": "address"
        }
      ],
      "name": "initialize",
      "outputs": [],
      "stateMutability": "nonpayable",
      "type": "function"
    },
    {
      "inputs": [
        {
          "internalType": "address",
          "name": "_account",
          "type": "address"
        },
        {
          "internalType": "address",
          "name": "_maybeDispatcher",
          "type": "address"
        }
      ],
      "name": "isDispatcherFor",
      "outputs": [
        {
          "internalType": "bool",
          "name": "",
          "type": "bool"
        }
      ],
      "stateMutability": "view",
      "type": "function"
    },
    {
      "inputs": [
        {
          "internalType": "address",
          "name": "_dispatcher",
          "type": "address"
        }
      ],
      "name": "removeDispatcher",
      "outputs": [],
      "stateMutability": "nonpayable",
      "type": "function"
    },
    {
      "inputs": [
        {
          "components": [
            {
              "internalType": "address",
              "name": "account",
              "type": "address"
            },
            {
              "internalType": "address",
              "name": "dispatcher",
              "type": "address"
            },
            {
              "components": [
                {
                  "internalType": "uint8",
                  "name": "v",
                  "type": "uint8"
                },
                {
                  "internalType": "bytes32",
                  "name": "r",
                  "type": "bytes32"
                },
                {
                  "internalType": "bytes32",
                  "name": "s",
                  "type": "bytes32"
                },
                {
                  "internalType": "uint256",
                  "name": "deadline",
                  "type": "uint256"
                }
              ],
              "internalType": "struct DataTypes.EIP712Signature",
              "name": "sig",
              "type": "tuple"
            }
          ],
          "internalType": "struct DataTypes.RemoveDispatcherWithSigData",
          "name": "vars",
          "type": "tuple"
        }
      ],
      "name": "removeDispatcherWithSig",
      "outputs": [],
      "stateMutability": "nonpayable",
      "type": "function"
    }
  ],
  "transactionHash": "0xd17c8e98dc1fa62522f80d223ced5a4ef436aacd5205c94a200bf1b3b5647ff0",
  "args": [],
  "numDeployments": 1,
  "solcInputHash": "b84b00b90490290595acf2b30cb1ae9d",
  "bytecode": "0x608060405234801561001057600080fd5b50610c72806100206000396000f3fe608060405234801561001057600080fd5b50600436106100835760003560e01c8063203624a4146100885780632dac35f81461009d57806333285cd0146100e05780633ab76e9f146100f35780633fb2fdf11461011e5780635229fcb71461013157806375348d351461016a578063c4d66de81461017d578063ef97c55b14610190575b600080fd5b61009b610096366004610a7b565b6101cc565b005b6100cb6100ab366004610a9f565b603460209081526000928352604080842090915290825290205460ff1681565b60405190151581526020015b60405180910390f35b61009b6100ee366004610af0565b61020e565b603354610106906001600160a01b031681565b6040516001600160a01b0390911681526020016100d7565b61009b61012c366004610af0565b610420565b61015d6040518060400160405280600d81526020016c14985c9848141c9bdd1bd8dbdb609a1b81525081565b6040516100d79190610b0c565b61009b610178366004610a7b565b6104a1565b61009b61018b366004610a7b565b6104d3565b6100cb61019e366004610a9f565b6001600160a01b03918216600090815260346020908152604080832093909416825291909152205460ff1690565b600260015414156101f85760405162461bcd60e51b81526004016101ef90610b61565b60405180910390fd5b6002600155610207338261064f565b5060018055565b600260015414156102315760405162461bcd60e51b81526004016101ef90610b61565b60026001556103fb6103e57f6371f5b24693fc8dfb898f10379bddfd94336fa7504f2dc407bac20985a155ac61026a6020850185610a7b565b61027a6040860160208701610a7b565b603360009054906101000a90046001600160a01b03166001600160a01b031663b27bcea16040518163ffffffff1660e01b8152600401602060405180830381600087803b1580156102ca57600080fd5b505af11580156102de573d6000803e3d6000fd5b505050506040513d601f19601f820116820180604052508101906103029190610b98565b6001600160a01b031663c9fac01c61031d6020890189610a7b565b6040516001600160e01b031960e084901b1681526001600160a01b039091166004820152602401602060405180830381600087803b15801561035e57600080fd5b505af1158015610372573d6000803e3d6000fd5b505050506040513d601f19601f820116820180604052508101906103969190610bb5565b6040805160208101959095526001600160a01b039384169085015291166060830152608082015260a0848101359082015260c00160405160208183030381529060405280519060200120610736565b6103f26020840184610a7b565b8360400161083b565b61020761040b6020830183610a7b565b61041b6040840160208501610a7b565b61064f565b600260015414156104435760405162461bcd60e51b81526004016101ef90610b61565b600260015561047c6103e57f246352342d4a76225b06d93470bf1b864bd7963c6e724d344a0a94f30023211061026a6020850185610a7b565b61020761048c6020830183610a7b565b61049c6040840160208501610a7b565b61091f565b600260015414156104c45760405162461bcd60e51b81526004016101ef90610b61565b6002600155610207338261091f565b600054610100900460ff16158080156104f35750600054600160ff909116105b8061050d5750303b15801561050d575060005460ff166001145b6105705760405162461bcd60e51b815260206004820152602e60248201527f496e697469616c697a61626c653a20636f6e747261637420697320616c72656160448201526d191e481a5b9a5d1a585b1a5e995960921b60648201526084016101ef565b6000805460ff191660011790558015610593576000805461ff0019166101001790555b60408051808201909152600f81526e125b9d985b1a59080c081a5b9c1d5d608a1b60208201526001600160a01b0383166105e05760405162461bcd60e51b81526004016101ef9190610b0c565b506105e9610a05565b603380546001600160a01b0319166001600160a01b038416179055801561064b576000805461ff0019169055604051600181527f7f26b83ff96e1f2b6a682f133852f6798a09c465da95921460cefb3847402498906020015b60405180910390a15b5050565b6001600160a01b038083166000908152603460209081526040808320938516835292815290829020548251808401909352601d83527f4469737061746368657220616c726561647920756e61737369676e65640000009183019190915260ff1615156001146106d15760405162461bcd60e51b81526004016101ef9190610b0c565b506001600160a01b03828116600081815260346020908152604080832094861680845294825291829020805460ff1916905581519283528201929092527f3ebf5bc2b3019b1a8184599297ad4592117f522c97b984fa23430e9bb762b1119101610642565b6000806107fc604080518082018252600d81526c14985c9848141c9bdd1bd8dbdb609a1b60209182015281517f8b73c3c69bb8fe3d512ecc4cf759cc79239f7b179b0ffacaa9a75d522b39400f818301527f83a4bbdefa59dc908edca29c5353161283046ee5923d073615f615d480d5e519818401527fc89efdaa54c0f20c7adf612882df0950f5a951637e0307cdcb4c672f298b8bc660608201524660808201523060a0808301919091528351808303909101815260c0909101909252815191012090565b60405161190160f01b602082015260228101919091526042810184905260620160408051601f1981840301815291905280516020909101209392505050565b428160600135101561086057604051630819bdcd60e01b815260040160405180910390fd5b60006001846108726020850185610bce565b604080516000815260208181018084529490945260ff9092168282015291850135606082015290840135608082015260a0016020604051602081039080840390855afa1580156108c6573d6000803e3d6000fd5b5050604051601f1901519150506001600160a01b03811615806108fb5750826001600160a01b0316816001600160a01b031614155b15610919576040516337e8456b60e01b815260040160405180910390fd5b50505050565b6001600160a01b038083166000908152603460209081526040808320938516835292815290829020548251808401909352601b83527f4469737061746368657220616c72656164792061737369676e656400000000009183019190915260ff161561099d5760405162461bcd60e51b81526004016101ef9190610b0c565b506001600160a01b03828116600081815260346020908152604080832094861680845294825291829020805460ff1916600117905581519283528201929092527f7d02856c1623b3a0f1ba592da7cb5e5cdf6ec056a1244f503a8db972e0c586989101610642565b600054610100900460ff16610a2c5760405162461bcd60e51b81526004016101ef90610bf1565b610a34610a36565b565b600054610100900460ff16610a5d5760405162461bcd60e51b81526004016101ef90610bf1565b60018055565b6001600160a01b0381168114610a7857600080fd5b50565b600060208284031215610a8d57600080fd5b8135610a9881610a63565b9392505050565b60008060408385031215610ab257600080fd5b8235610abd81610a63565b91506020830135610acd81610a63565b809150509250929050565b600060c08284031215610aea57600080fd5b50919050565b600060c08284031215610b0257600080fd5b610a988383610ad8565b600060208083528351808285015260005b81811015610b3957858101830151858201604001528201610b1d565b81811115610b4b576000604083870101525b50601f01601f1916929092016040019392505050565b6020808252601f908201527f5265656e7472616e637947756172643a207265656e7472616e742063616c6c00604082015260600190565b600060208284031215610baa57600080fd5b8151610a9881610a63565b600060208284031215610bc757600080fd5b5051919050565b600060208284031215610be057600080fd5b813560ff81168114610a9857600080fd5b6020808252602b908201527f496e697469616c697a61626c653a20636f6e7472616374206973206e6f74206960408201526a6e697469616c697a696e6760a81b60608201526080019056fea264697066735822122095f9cf3e431ea2d388883c875238c4637a1ca360da7a2718b3b985e5ec5f455e64736f6c63430008090033",
  "devdoc": {
    "events": {
      "DispatcherAdded(address,address)": {
        "details": "Event emitted when a dispatcher is added"
      },
      "DispatcherRemoved(address,address)": {
        "details": "Event emitted when a dispatcher is removed"
      }
    },
    "kind": "dev",
    "methods": {
      "initialize(address)": {
        "details": "initializer to call after deployment, can only be called once"
      }
    },
    "version": 1
  },
  "userdoc": {
    "kind": "user",
    "methods": {},
    "version": 1
  },
  "storageLayout": {
    "storage": [
      {
        "astId": 2446,
        "contract": "contracts/DispatcherManager/DispatcherManager.sol:DispatcherManager",
        "label": "_initialized",
        "offset": 0,
        "slot": "0",
        "type": "t_uint8"
      },
      {
        "astId": 2449,
        "contract": "contracts/DispatcherManager/DispatcherManager.sol:DispatcherManager",
        "label": "_initializing",
        "offset": 1,
        "slot": "0",
        "type": "t_bool"
      },
      {
        "astId": 2604,
        "contract": "contracts/DispatcherManager/DispatcherManager.sol:DispatcherManager",
        "label": "_status",
        "offset": 0,
        "slot": "1",
        "type": "t_uint256"
      },
      {
        "astId": 2648,
        "contract": "contracts/DispatcherManager/DispatcherManager.sol:DispatcherManager",
        "label": "__gap",
        "offset": 0,
        "slot": "2",
        "type": "t_array(t_uint256)49_storage"
      },
      {
        "astId": 11077,
        "contract": "contracts/DispatcherManager/DispatcherManager.sol:DispatcherManager",
        "label": "addressManager",
        "offset": 0,
        "slot": "51",
        "type": "t_contract(IAddressManager)8719"
      },
      {
        "astId": 11084,
        "contract": "contracts/DispatcherManager/DispatcherManager.sol:DispatcherManager",
        "label": "dispatchersByAccount",
        "offset": 0,
        "slot": "52",
        "type": "t_mapping(t_address,t_mapping(t_address,t_bool))"
      }
    ],
    "types": {
      "t_address": {
        "encoding": "inplace",
        "label": "address",
        "numberOfBytes": "20"
      },
      "t_array(t_uint256)49_storage": {
        "base": "t_uint256",
        "encoding": "inplace",
        "label": "uint256[49]",
        "numberOfBytes": "1568"
      },
      "t_bool": {
        "encoding": "inplace",
        "label": "bool",
        "numberOfBytes": "1"
      },
      "t_contract(IAddressManager)8719": {
        "encoding": "inplace",
        "label": "contract IAddressManager",
        "numberOfBytes": "20"
      },
      "t_mapping(t_address,t_bool)": {
        "encoding": "mapping",
        "key": "t_address",
        "label": "mapping(address => bool)",
        "numberOfBytes": "32",
        "value": "t_bool"
      },
      "t_mapping(t_address,t_mapping(t_address,t_bool))": {
        "encoding": "mapping",
        "key": "t_address",
        "label": "mapping(address => mapping(address => bool))",
        "numberOfBytes": "32",
        "value": "t_mapping(t_address,t_bool)"
      },
      "t_uint256": {
        "encoding": "inplace",
        "label": "uint256",
        "numberOfBytes": "32"
      },
      "t_uint8": {
        "encoding": "inplace",
        "label": "uint8",
        "numberOfBytes": "1"
      }
    }
  }
}