{
  "address": "0x5D2f245BE30Eaae09b9c179714a1eF29ED46ed96",
  "abi": [
    {
      "anonymous": false,
      "inputs": [
        {
          "indexed": false,
          "internalType": "uint256",
          "name": "takerNftChainId",
          "type": "uint256"
        },
        {
          "indexed": false,
          "internalType": "address",
          "name": "takerNftAddress",
          "type": "address"
        },
        {
          "indexed": false,
          "internalType": "uint256",
          "name": "takerNftId",
          "type": "uint256"
        },
        {
          "indexed": false,
          "internalType": "address",
          "name": "deployedContract",
          "type": "address"
        }
      ],
      "name": "TokenDeployed",
      "type": "event"
    },
    {
      "anonymous": false,
      "inputs": [
        {
          "indexed": false,
          "internalType": "address",
          "name": "tokenContract",
          "type": "address"
        },
        {
          "indexed": false,
          "internalType": "uint256",
          "name": "tokenId",
          "type": "uint256"
        }
      ],
      "name": "TokenMinted",
      "type": "event"
    },
    {
      "inputs": [],
      "name": "addressManager",
      "outputs": [
        {
          "internalType": "contract IAddressManager",
          "name": "",
          "type": "address"
        }
      ],
      "stateMutability": "view",
      "type": "function"
    },
    {
      "inputs": [],
      "name": "baseTokenUri",
      "outputs": [
        {
          "internalType": "string",
          "name": "",
          "type": "string"
        }
      ],
      "stateMutability": "view",
      "type": "function"
    },
    {
      "inputs": [
        {
          "internalType": "contract IAddressManager",
          "name": "_addressManager",
          "type": "address"
        },
        {
          "internalType": "address",
          "name": "_tokenImplementation",
          "type": "address"
        },
        {
          "internalType": "string",
          "name": "_baseTokenUri",
          "type": "string"
        }
      ],
      "name": "initialize",
      "outputs": [],
      "stateMutability": "nonpayable",
      "type": "function"
    },
    {
      "inputs": [
        {
          "internalType": "address",
          "name": "targetAddress",
          "type": "address"
        },
        {
          "internalType": "uint256",
          "name": "takerNftChainId",
          "type": "uint256"
        },
        {
          "internalType": "address",
          "name": "takerNftAddress",
          "type": "address"
        },
        {
          "internalType": "uint256",
          "name": "takerNftId",
          "type": "uint256"
        }
      ],
      "name": "issueLikeToken",
      "outputs": [],
      "stateMutability": "nonpayable",
      "type": "function"
    },
    {
      "inputs": [
        {
          "internalType": "uint256",
          "name": "",
          "type": "uint256"
        }
      ],
      "name": "likeTokens",
      "outputs": [
        {
          "internalType": "contract ILikeToken1155",
          "name": "",
          "type": "address"
        }
      ],
      "stateMutability": "view",
      "type": "function"
    },
    {
      "inputs": [],
      "name": "tokenImplementation",
      "outputs": [
        {
          "internalType": "address",
          "name": "",
          "type": "address"
        }
      ],
      "stateMutability": "view",
      "type": "function"
    }
  ],
  "transactionHash": "0xbfd57c9efea5e6149a23f47c17c8248bf89d3832419cb57eb9249a36edb44e8a",
  "args": [],
  "numDeployments": 1,
  "solcInputHash": "77b0914e74bdf27924e25b415b8d4909",
  "bytecode": "0x608060405234801561001057600080fd5b50610e2f806100206000396000f3fe608060405234801561001057600080fd5b50600436106100625760003560e01c80632f3a3d5d146100675780633ab76e9f146100905780634571e3a6146100a95780634c690434146100be5780637a0101a2146100d1578063e242f76d146100e6575b600080fd5b60025461007a906001600160a01b031681565b60405161008791906109bf565b60405180910390f35b60005461007a906201000090046001600160a01b031681565b6100bc6100b73660046109eb565b61010f565b005b6100bc6100cc366004610a7d565b610266565b6100d9610658565b6040516100879190610b21565b61007a6100f4366004610b34565b6001602052600090815260409020546001600160a01b031681565b600054610100900460ff1661012a5760005460ff161561012e565b303b155b6101965760405162461bcd60e51b815260206004820152602e60248201527f496e697469616c697a61626c653a20636f6e747261637420697320616c72656160448201526d191e481a5b9a5d1a585b1a5e995960921b60648201526084015b60405180910390fd5b600054610100900460ff161580156101b8576000805461ffff19166101011790555b6001600160a01b0385166101de5760405162461bcd60e51b815260040161018d90610b4d565b600080546001600160a01b03808816620100000262010000600160b01b03199092169190911790915584166102255760405162461bcd60e51b815260040161018d90610b4d565b600280546001600160a01b0319166001600160a01b03861617905561024c60038484610926565b50801561025f576000805461ff00191690555b5050505050565b60008060029054906101000a90046001600160a01b03166001600160a01b031662435da56040518163ffffffff1660e01b8152600401602060405180830381600087803b1580156102b657600080fd5b505af11580156102ca573d6000803e3d6000fd5b505050506040513d601f19601f820116820180604052508101906102ee9190610b76565b6040516306cddfb760e51b81529091506001600160a01b0382169063d9bbf6e09061031d9033906004016109bf565b60206040518083038186803b15801561033557600080fd5b505afa158015610349573d6000803e3d6000fd5b505050506040513d601f19601f8201168201806040525081019061036d9190610b93565b6103a95760405162461bcd60e51b815260206004820152600d60248201526c2737ba1027232a1020b236b4b760991b604482015260640161018d565b6040805160208082018790526001600160a01b0386811683850152606080840187905284518085039091018152608090930184528251928201929092206000818152600190925292902054168061058857600254600090610412906001600160a01b03166106e6565b90506001600160a01b0381166395a2fadc6003610430836014610783565b604051602001610441929190610c89565b604051602081830303815290604052600060029054906101000a90046001600160a01b031660036040516020016104789190610cbe565b60405160208183030381529060405261049b866001600160a01b03166014610783565b6040516020016104ac929190610ce3565b6040516020818303038152906040526040518463ffffffff1660e01b81526004016104d993929190610d12565b600060405180830381600087803b1580156104f357600080fd5b505af1158015610507573d6000803e3d6000fd5b50505060008481526001602090815260409182902080546001600160a01b0319166001600160a01b0386811691821790925583518c8152918b1692820192909252918201889052606082015291925082917f5018656a5c4c1dafde997aba1d1703b2697ccf17eb2dfa247d6ad960b8814214915060800160405180910390a1505b6040516335313c2160e11b81526000906001600160a01b03831690636a627842906105b7908b906004016109bf565b602060405180830381600087803b1580156105d157600080fd5b505af11580156105e5573d6000803e3d6000fd5b505050506040513d601f19601f820116820180604052508101906106099190610d50565b604080516001600160a01b0385168152602081018390529192507fb9144c96c86541f6fa89c9f2f02495cccf4b08cd6643e26d34ee00aa586558a8910160405180910390a15050505050505050565b6003805461066590610bb5565b80601f016020809104026020016040519081016040528092919081815260200182805461069190610bb5565b80156106de5780601f106106b3576101008083540402835291602001916106de565b820191906000526020600020905b8154815290600101906020018083116106c157829003601f168201915b505050505081565b6000604051733d602d80600a3d3981f3363d3d373d3d3d363d7360601b81528260601b60148201526e5af43d82803e903d91602b57fd5bf360881b60288201526037816000f09150506001600160a01b03811661077e5760405162461bcd60e51b8152602060048201526016602482015275115490cc4c4d8dce8818dc99585d194819985a5b195960521b604482015260640161018d565b919050565b60606000610792836002610d7f565b61079d906002610d9e565b67ffffffffffffffff8111156107b5576107b5610db6565b6040519080825280601f01601f1916602001820160405280156107df576020820181803683370190505b509050600360fc1b816000815181106107fa576107fa610dcc565b60200101906001600160f81b031916908160001a905350600f60fb1b8160018151811061082957610829610dcc565b60200101906001600160f81b031916908160001a905350600061084d846002610d7f565b610858906001610d9e565b90505b60018111156108d0576f181899199a1a9b1b9c1cb0b131b232b360811b85600f166010811061088c5761088c610dcc565b1a60f81b8282815181106108a2576108a2610dcc565b60200101906001600160f81b031916908160001a90535060049490941c936108c981610de2565b905061085b565b50831561091f5760405162461bcd60e51b815260206004820181905260248201527f537472696e67733a20686578206c656e67746820696e73756666696369656e74604482015260640161018d565b9392505050565b82805461093290610bb5565b90600052602060002090601f016020900481019282610954576000855561099a565b82601f1061096d5782800160ff1982351617855561099a565b8280016001018555821561099a579182015b8281111561099a57823582559160200191906001019061097f565b506109a69291506109aa565b5090565b5b808211156109a657600081556001016109ab565b6001600160a01b0391909116815260200190565b6001600160a01b03811681146109e857600080fd5b50565b60008060008060608587031215610a0157600080fd5b8435610a0c816109d3565b93506020850135610a1c816109d3565b9250604085013567ffffffffffffffff80821115610a3957600080fd5b818701915087601f830112610a4d57600080fd5b813581811115610a5c57600080fd5b886020828501011115610a6e57600080fd5b95989497505060200194505050565b60008060008060808587031215610a9357600080fd5b8435610a9e816109d3565b9350602085013592506040850135610ab5816109d3565b9396929550929360600135925050565b60005b83811015610ae0578181015183820152602001610ac8565b83811115610aef576000848401525b50505050565b60008151808452610b0d816020860160208601610ac5565b601f01601f19169290920160200192915050565b60208152600061091f6020830184610af5565b600060208284031215610b4657600080fd5b5035919050565b6020808252600f908201526e125b9d985b1a59080c081a5b9c1d5d608a1b604082015260600190565b600060208284031215610b8857600080fd5b815161091f816109d3565b600060208284031215610ba557600080fd5b8151801515811461091f57600080fd5b600181811c90821680610bc957607f821691505b60208210811415610bea57634e487b7160e01b600052602260045260246000fd5b50919050565b8054600090600181811c9080831680610c0a57607f831692505b6020808410821415610c2c57634e487b7160e01b600052602260045260246000fd5b818015610c405760018114610c5157610c7d565b60ff19861689528489019650610c7d565b876000528160002060005b86811015610c755781548b820152908501908301610c5c565b505084890196505b50505050505092915050565b6000610c958285610bf0565b8351610ca5818360208801610ac5565b642f7b69647d60d81b9101908152600501949350505050565b6000610cca8284610bf0565b68636f6e74726163742f60b81b81526009019392505050565b60008351610cf5818460208801610ac5565b835190830190610d09818360208801610ac5565b01949350505050565b606081526000610d256060830186610af5565b6001600160a01b03851660208401528281036040840152610d468185610af5565b9695505050505050565b600060208284031215610d6257600080fd5b5051919050565b634e487b7160e01b600052601160045260246000fd5b6000816000190483118215151615610d9957610d99610d69565b500290565b60008219821115610db157610db1610d69565b500190565b634e487b7160e01b600052604160045260246000fd5b634e487b7160e01b600052603260045260246000fd5b600081610df157610df1610d69565b50600019019056fea26469706673582212202fab8df4d644da5cba027ed93a652b13e4405afb071528e3cf0a2c3469a6dd2264736f6c63430008090033",
  "devdoc": {
    "details": "This contract is responsible for issuing like tokens for a target NFT. It will keep track of like token contracts for each NFT.  When a new Like Token is issued, it will check to see if it already has deployed a like token contract and if not, deploy a new proxy contract for that token.",
    "events": {
      "TokenDeployed(uint256,address,uint256,address)": {
        "details": "emitted when new like token contract is created"
      }
    },
    "kind": "dev",
    "methods": {
      "initialize(address,address,string)": {
        "details": "initializer to call after deployment, can only be called once"
      },
      "issueLikeToken(address,uint256,address,uint256)": {
        "details": "issue like token to target address"
      }
    },
    "title": "LikeTokenFactory",
    "version": 1
  },
  "userdoc": {
    "kind": "user",
    "methods": {},
    "version": 1
  },
  "storageLayout": {
    "storage": [
      {
        "astId": 2435,
        "contract": "contracts/Likes/LikeTokenFactory.sol:LikeTokenFactory",
        "label": "_initialized",
        "offset": 0,
        "slot": "0",
        "type": "t_bool"
      },
      {
        "astId": 2438,
        "contract": "contracts/Likes/LikeTokenFactory.sol:LikeTokenFactory",
        "label": "_initializing",
        "offset": 1,
        "slot": "0",
        "type": "t_bool"
      },
      {
        "astId": 10660,
        "contract": "contracts/Likes/LikeTokenFactory.sol:LikeTokenFactory",
        "label": "addressManager",
        "offset": 2,
        "slot": "0",
        "type": "t_contract(IAddressManager)8328"
      },
      {
        "astId": 10666,
        "contract": "contracts/Likes/LikeTokenFactory.sol:LikeTokenFactory",
        "label": "likeTokens",
        "offset": 0,
        "slot": "1",
        "type": "t_mapping(t_uint256,t_contract(ILikeToken1155)10701)"
      },
      {
        "astId": 10669,
        "contract": "contracts/Likes/LikeTokenFactory.sol:LikeTokenFactory",
        "label": "tokenImplementation",
        "offset": 0,
        "slot": "2",
        "type": "t_address"
      },
      {
        "astId": 10672,
        "contract": "contracts/Likes/LikeTokenFactory.sol:LikeTokenFactory",
        "label": "baseTokenUri",
        "offset": 0,
        "slot": "3",
        "type": "t_string_storage"
      }
    ],
    "types": {
      "t_address": {
        "encoding": "inplace",
        "label": "address",
        "numberOfBytes": "20"
      },
      "t_bool": {
        "encoding": "inplace",
        "label": "bool",
        "numberOfBytes": "1"
      },
      "t_contract(IAddressManager)8328": {
        "encoding": "inplace",
        "label": "contract IAddressManager",
        "numberOfBytes": "20"
      },
      "t_contract(ILikeToken1155)10701": {
        "encoding": "inplace",
        "label": "contract ILikeToken1155",
        "numberOfBytes": "20"
      },
      "t_mapping(t_uint256,t_contract(ILikeToken1155)10701)": {
        "encoding": "mapping",
        "key": "t_uint256",
        "label": "mapping(uint256 => contract ILikeToken1155)",
        "numberOfBytes": "32",
        "value": "t_contract(ILikeToken1155)10701"
      },
      "t_string_storage": {
        "encoding": "bytes",
        "label": "string",
        "numberOfBytes": "32"
      },
      "t_uint256": {
        "encoding": "inplace",
        "label": "uint256",
        "numberOfBytes": "32"
      }
    }
  }
}