{
  "address": "0xCf581656593c6f8ddD24A11bCefc961c7777A072",
  "abi": [
    {
      "anonymous": false,
      "inputs": [
        {
          "indexed": false,
          "internalType": "uint256",
          "name": "nftChainId",
          "type": "uint256"
        },
        {
          "indexed": true,
          "internalType": "address",
          "name": "nftContractAddress",
          "type": "address"
        },
        {
          "indexed": true,
          "internalType": "uint256",
          "name": "nftId",
          "type": "uint256"
        },
        {
          "indexed": true,
          "internalType": "address",
          "name": "nftOwnerAddress",
          "type": "address"
        },
        {
          "indexed": false,
          "internalType": "uint256",
          "name": "sourceId",
          "type": "uint256"
        }
      ],
      "name": "Deregistered",
      "type": "event"
    },
    {
      "anonymous": false,
      "inputs": [
        {
          "indexed": false,
          "internalType": "uint256",
          "name": "nftChainId",
          "type": "uint256"
        },
        {
          "indexed": true,
          "internalType": "address",
          "name": "nftContractAddress",
          "type": "address"
        },
        {
          "indexed": true,
          "internalType": "uint256",
          "name": "nftId",
          "type": "uint256"
        },
        {
          "indexed": true,
          "internalType": "address",
          "name": "nftOwnerAddress",
          "type": "address"
        },
        {
          "indexed": false,
          "internalType": "address[]",
          "name": "nftCreatorAddresses",
          "type": "address[]"
        },
        {
          "indexed": false,
          "internalType": "uint256[]",
          "name": "creatorSaleBasisPoints",
          "type": "uint256[]"
        },
        {
          "indexed": false,
          "internalType": "uint256",
          "name": "optionBits",
          "type": "uint256"
        },
        {
          "indexed": false,
          "internalType": "uint256",
          "name": "sourceId",
          "type": "uint256"
        },
        {
          "indexed": false,
          "internalType": "uint256",
          "name": "transformId",
          "type": "uint256"
        },
        {
          "indexed": false,
          "internalType": "string",
          "name": "ipfsMetadataHash",
          "type": "string"
        }
      ],
      "name": "Registered",
      "type": "event"
    },
    {
      "inputs": [],
      "name": "MAKER_META_PREFIX",
      "outputs": [
        {
          "internalType": "string",
          "name": "",
          "type": "string"
        }
      ],
      "stateMutability": "view",
      "type": "function"
    },
    {
      "inputs": [],
      "name": "addressManager",
      "outputs": [
        {
          "internalType": "contract IAddressManager",
          "name": "",
          "type": "address"
        }
      ],
      "stateMutability": "view",
      "type": "function"
    },
    {
      "inputs": [
        {
          "internalType": "address",
          "name": "owner",
          "type": "address"
        },
        {
          "internalType": "uint256",
          "name": "chainId",
          "type": "uint256"
        },
        {
          "internalType": "address",
          "name": "nftContractAddress",
          "type": "address"
        },
        {
          "internalType": "uint256",
          "name": "nftId",
          "type": "uint256"
        }
      ],
      "name": "deRegisterNftFromBridge",
      "outputs": [],
      "stateMutability": "nonpayable",
      "type": "function"
    },
    {
      "inputs": [
        {
          "internalType": "address",
          "name": "nftContractAddress",
          "type": "address"
        },
        {
          "internalType": "uint256",
          "name": "nftId",
          "type": "uint256"
        }
      ],
      "name": "deregisterNft",
      "outputs": [],
      "stateMutability": "nonpayable",
      "type": "function"
    },
    {
      "inputs": [
        {
          "internalType": "uint256",
          "name": "chainId",
          "type": "uint256"
        },
        {
          "internalType": "address",
          "name": "nftContractAddress",
          "type": "address"
        },
        {
          "internalType": "uint256",
          "name": "nftId",
          "type": "uint256"
        }
      ],
      "name": "deriveSourceId",
      "outputs": [
        {
          "internalType": "uint256",
          "name": "",
          "type": "uint256"
        }
      ],
      "stateMutability": "pure",
      "type": "function"
    },
    {
      "inputs": [
        {
          "internalType": "contract IAddressManager",
          "name": "_addressManager",
          "type": "address"
        }
      ],
      "name": "initialize",
      "outputs": [],
      "stateMutability": "nonpayable",
      "type": "function"
    },
    {
      "inputs": [
        {
          "internalType": "address",
          "name": "nftContractAddress",
          "type": "address"
        },
        {
          "internalType": "uint256",
          "name": "nftId",
          "type": "uint256"
        },
        {
          "internalType": "address",
          "name": "creatorAddress",
          "type": "address"
        },
        {
          "internalType": "uint256",
          "name": "creatorSaleBasisPoints",
          "type": "uint256"
        },
        {
          "internalType": "uint256",
          "name": "optionBits",
          "type": "uint256"
        },
        {
          "internalType": "string",
          "name": "ipfsMetadataHash",
          "type": "string"
        }
      ],
      "name": "registerNft",
      "outputs": [],
      "stateMutability": "nonpayable",
      "type": "function"
    },
    {
      "inputs": [
        {
          "internalType": "address",
          "name": "owner",
          "type": "address"
        },
        {
          "internalType": "uint256",
          "name": "chainId",
          "type": "uint256"
        },
        {
          "internalType": "address",
          "name": "nftContractAddress",
          "type": "address"
        },
        {
          "internalType": "uint256",
          "name": "nftId",
          "type": "uint256"
        },
        {
          "internalType": "address[]",
          "name": "creatorAddresses",
          "type": "address[]"
        },
        {
          "internalType": "uint256[]",
          "name": "creatorSaleBasisPoints",
          "type": "uint256[]"
        },
        {
          "internalType": "uint256",
          "name": "optionBits",
          "type": "uint256"
        },
        {
          "internalType": "string",
          "name": "ipfsMetadataHash",
          "type": "string"
        }
      ],
      "name": "registerNftFromBridge",
      "outputs": [],
      "stateMutability": "nonpayable",
      "type": "function"
    },
    {
      "inputs": [
        {
          "internalType": "uint256",
          "name": "",
          "type": "uint256"
        }
      ],
      "name": "sourceToDetails",
      "outputs": [
        {
          "internalType": "bool",
          "name": "registered",
          "type": "bool"
        },
        {
          "internalType": "address",
          "name": "owner",
          "type": "address"
        }
      ],
      "stateMutability": "view",
      "type": "function"
    },
    {
      "inputs": [
        {
          "internalType": "uint256",
          "name": "index",
          "type": "uint256"
        }
      ],
      "name": "sourceToDetailsLookup",
      "outputs": [
        {
          "components": [
            {
              "internalType": "bool",
              "name": "registered",
              "type": "bool"
            },
            {
              "internalType": "address",
              "name": "owner",
              "type": "address"
            },
            {
              "internalType": "address[]",
              "name": "creators",
              "type": "address[]"
            },
            {
              "internalType": "uint256[]",
              "name": "creatorSaleBasisPoints",
              "type": "uint256[]"
            }
          ],
          "internalType": "struct IMakerRegistrar.NftDetails",
          "name": "",
          "type": "tuple"
        }
      ],
      "stateMutability": "view",
      "type": "function"
    },
    {
      "inputs": [
        {
          "internalType": "uint256",
          "name": "",
          "type": "uint256"
        }
      ],
      "name": "transformToSourceLookup",
      "outputs": [
        {
          "internalType": "uint256",
          "name": "",
          "type": "uint256"
        }
      ],
      "stateMutability": "view",
      "type": "function"
    },
    {
      "inputs": [
        {
          "internalType": "address",
          "name": "nftContractAddress",
          "type": "address"
        },
        {
          "internalType": "uint256",
          "name": "nftId",
          "type": "uint256"
        },
        {
          "internalType": "address",
          "name": "potentialOwner",
          "type": "address"
        }
      ],
      "name": "verifyOwnership",
      "outputs": [
        {
          "internalType": "bool",
          "name": "",
          "type": "bool"
        }
      ],
      "stateMutability": "view",
      "type": "function"
    }
  ],
  "transactionHash": "0x7f45e08dd2ddb105eff298b4016b0dbc41daf2f042c059aaf6cd3ddb10994205",
  "args": [],
  "numDeployments": 1,
  "solcInputHash": "0c452a7a2a2db8193582d74055ee849a",
  "bytecode": "0x608060405234801561001057600080fd5b50612881806100206000396000f3fe608060405234801561001057600080fd5b50600436106100b45760003560e01c8063c4d66de811610071578063c4d66de8146101a1578063c679ff9a146101bd578063c93b76c9146101d9578063e6c2c56014610209578063edad684a1461023a578063fb9b92bc14610256576100b4565b80633ab76e9f146100b957806371f0cca3146100d757806393d3b1b2146100f557806394b99569146101255780639cdce18814610155578063c46bd37914610171575b600080fd5b6100c1610272565b6040516100ce919061159c565b60405180910390f35b6100df610298565b6040516100ec9190611650565b60405180910390f35b61010f600480360381019061010a91906116fa565b6102d1565b60405161011c9190611768565b60405180910390f35b61013f600480360381019061013a9190611783565b6102e7565b60405161014c91906117bf565b60405180910390f35b61016f600480360381019061016a91906117da565b6102ff565b005b61018b60048036038101906101869190611783565b610359565b6040516101989190611a0f565b60405180910390f35b6101bb60048036038101906101b69190611a6f565b6104dd565b005b6101d760048036038101906101d29190611b01565b610603565b005b6101f360048036038101906101ee9190611bb0565b61071e565b60405161020091906117bf565b60405180910390f35b610223600480360381019061021e9190611783565b610734565b604051610231929190611c12565b60405180910390f35b610254600480360381019061024f9190611e3c565b610785565b005b610270600480360381019061026b9190611f4a565b6108b0565b005b600060029054906101000a900473ffffffffffffffffffffffffffffffffffffffff1681565b6040518060400160405280600581526020017f4d414b455200000000000000000000000000000000000000000000000000000081525081565b60006102de8484846109d1565b90509392505050565b60016020528060005260406000206000915090505481565b61030a8282336102d1565b610349576040517f08c379a000000000000000000000000000000000000000000000000000000000815260040161034090611ffd565b60405180910390fd5b61035533468484610bfb565b5050565b6103616113e9565b600260008381526020019081526020016000206040518060800160405290816000820160009054906101000a900460ff161515151581526020016000820160019054906101000a900473ffffffffffffffffffffffffffffffffffffffff1673ffffffffffffffffffffffffffffffffffffffff1673ffffffffffffffffffffffffffffffffffffffff1681526020016001820180548060200260200160405190810160405280929190818152602001828054801561047557602002820191906000526020600020905b8160009054906101000a900473ffffffffffffffffffffffffffffffffffffffff1673ffffffffffffffffffffffffffffffffffffffff168152602001906001019080831161042b575b50505050508152602001600282018054806020026020016040519081016040528092919081815260200182805480156104cd57602002820191906000526020600020905b8154815260200190600101908083116104b9575b5050505050815250509050919050565b600060019054906101000a900460ff166105055760008054906101000a900460ff161561050e565b61050d610cff565b5b61054d576040517f08c379a00000000000000000000000000000000000000000000000000000000081526004016105449061208f565b60405180910390fd5b60008060019054906101000a900460ff16159050801561059d576001600060016101000a81548160ff02191690831515021790555060016000806101000a81548160ff0219169083151502179055505b81600060026101000a81548173ffffffffffffffffffffffffffffffffffffffff021916908373ffffffffffffffffffffffffffffffffffffffff16021790555080156105ff5760008060016101000a81548160ff0219169083151502179055505b5050565b61060e8787336102d1565b61064d576040517f08c379a000000000000000000000000000000000000000000000000000000000815260040161064490611ffd565b60405180910390fd5b6000806106fe600060029054906101000a900473ffffffffffffffffffffffffffffffffffffffff1673ffffffffffffffffffffffffffffffffffffffff1663a11b07126040518163ffffffff1660e01b8152600401602060405180830381600087803b1580156106bd57600080fd5b505af11580156106d1573d6000803e3d6000fd5b505050506040513d601f19601f820116820180604052508101906106f591906120c4565b8a8a8a8a610d10565b9150915061071333468b8b86868b8b8b611041565b505050505050505050565b600061072b848484611241565b90509392505050565b60026020528060005260406000206000915090508060000160009054906101000a900460ff16908060000160019054906101000a900473ffffffffffffffffffffffffffffffffffffffff16905082565b600060029054906101000a900473ffffffffffffffffffffffffffffffffffffffff1673ffffffffffffffffffffffffffffffffffffffff1663085da3106040518163ffffffff1660e01b8152600401602060405180830381600087803b1580156107ef57600080fd5b505af1158015610803573d6000803e3d6000fd5b505050506040513d601f19601f8201168201806040525081019061082791906120c4565b73ffffffffffffffffffffffffffffffffffffffff163373ffffffffffffffffffffffffffffffffffffffff1614610894576040517f08c379a000000000000000000000000000000000000000000000000000000000815260040161088b9061213d565b60405180910390fd5b6108a5898989898989898989611041565b505050505050505050565b600060029054906101000a900473ffffffffffffffffffffffffffffffffffffffff1673ffffffffffffffffffffffffffffffffffffffff1663085da3106040518163ffffffff1660e01b8152600401602060405180830381600087803b15801561091a57600080fd5b505af115801561092e573d6000803e3d6000fd5b505050506040513d601f19601f8201168201806040525081019061095291906120c4565b73ffffffffffffffffffffffffffffffffffffffff163373ffffffffffffffffffffffffffffffffffffffff16146109bf576040517f08c379a00000000000000000000000000000000000000000000000000000000081526004016109b69061213d565b60405180910390fd5b6109cb84848484610bfb565b50505050565b60008373ffffffffffffffffffffffffffffffffffffffff1662fdd58e83856040518363ffffffff1660e01b8152600401610a0d92919061215d565b60206040518083038186803b158015610a2557600080fd5b505afa925050508015610a5657506040513d601f19601f82011682018060405250810190610a53919061219b565b60015b610a5f57610a6b565b60008111915050610bf4565b8373ffffffffffffffffffffffffffffffffffffffff16636352211e846040518263ffffffff1660e01b8152600401610aa491906117bf565b60206040518083038186803b158015610abc57600080fd5b505afa925050508015610aed57506040513d601f19601f82011682018060405250810190610aea91906120c4565b60015b610af657610b2d565b8273ffffffffffffffffffffffffffffffffffffffff168173ffffffffffffffffffffffffffffffffffffffff1614915050610bf4565b8373ffffffffffffffffffffffffffffffffffffffff166358178168846040518263ffffffff1660e01b8152600401610b6691906117bf565b60206040518083038186803b158015610b7e57600080fd5b505afa925050508015610baf57506040513d601f19601f82011682018060405250810190610bac91906120c4565b60015b610bb857610bef565b8273ffffffffffffffffffffffffffffffffffffffff168173ffffffffffffffffffffffffffffffffffffffff1614915050610bf4565b600090505b9392505050565b6000610c08848484611241565b905060006002600083815260200190815260200160002090508060000160009054906101000a900460ff16610c72576040517f08c379a0000000000000000000000000000000000000000000000000000000008152600401610c6990612214565b60405180910390fd5b60008160000160006101000a81548160ff0219169083151502179055508573ffffffffffffffffffffffffffffffffffffffff16838573ffffffffffffffffffffffffffffffffffffffff167fc28b8c1d4eaa6783dcb863be8316bc472cb667710ee0dd123a04397f91bab65f8886604051610cef929190612234565b60405180910390a4505050505050565b6000610d0a3061127a565b15905090565b606080600073ffffffffffffffffffffffffffffffffffffffff168773ffffffffffffffffffffffffffffffffffffffff1614610edd578673ffffffffffffffffffffffffffffffffffffffff16633e10401487876127106040518463ffffffff1660e01b8152600401610d8693929190612298565b60006040518083038186803b158015610d9e57600080fd5b505afa925050508015610dd457506040513d6000823e3d601f19601f82011682018060405250810190610dd19190612467565b60015b610ddd57610edc565b610de7828261129d565b15610ed9576000825167ffffffffffffffff811115610e0957610e08611c3b565b5b604051908082528060200260200182016040528015610e375781602001602082028036833780820191505090505b50905060005b83518160ff161015610eca57838160ff1681518110610e5f57610e5e6124df565b5b6020026020010151828260ff1681518110610e7d57610e7c6124df565b5b602002602001019073ffffffffffffffffffffffffffffffffffffffff16908173ffffffffffffffffffffffffffffffffffffffff16815250508080610ec29061254a565b915050610e3d565b50808294509450505050611037565b50505b5b6000600167ffffffffffffffff811115610efa57610ef9611c3b565b5b604051908082528060200260200182016040528015610f285781602001602082028036833780820191505090505b5090508481600081518110610f4057610f3f6124df565b5b602002602001019073ffffffffffffffffffffffffffffffffffffffff16908173ffffffffffffffffffffffffffffffffffffffff1681525050612710841115610fbf576040517f08c379a0000000000000000000000000000000000000000000000000000000008152600401610fb6906125c0565b60405180910390fd5b6000600167ffffffffffffffff811115610fdc57610fdb611c3b565b5b60405190808252806020026020018201604052801561100a5781602001602082028036833780820191505090505b5090508481600081518110611022576110216124df565b5b60200260200101818152505081819350935050505b9550959350505050565b600061104e898989611241565b905060405180608001604052806001151581526020018b73ffffffffffffffffffffffffffffffffffffffff168152602001878152602001868152506002600083815260200190815260200160002060008201518160000160006101000a81548160ff02191690831515021790555060208201518160000160016101000a81548173ffffffffffffffffffffffffffffffffffffffff021916908373ffffffffffffffffffffffffffffffffffffffff1602179055506040820151816001019080519060200190611120929190611429565b50606082015181600201908051906020019061113d9291906114b3565b5090505060006040518060400160405280600581526020017f4d414b4552000000000000000000000000000000000000000000000000000000815250828660405160200161118d939291906125e0565b6040516020818303038152906040528051906020012060001c90508160016000838152602001908152602001600020819055508a73ffffffffffffffffffffffffffffffffffffffff16888a73ffffffffffffffffffffffffffffffffffffffff167fdc43be3f8fe56f267b4076b025ac2b89403f51683a4c26ce0e06629a983f3c368d8b8b8b89898d8d60405161122c989796959493929190612738565b60405180910390a45050505050505050505050565b6000838383604051602001611258939291906127be565b6040516020818303038152906040528051906020012060001c90509392505050565b6000808273ffffffffffffffffffffffffffffffffffffffff163b119050919050565b600080835114156112b157600090506113e3565b81518351146112c357600090506113e3565b6000805b84518160ff1610156113c857600073ffffffffffffffffffffffffffffffffffffffff16858260ff1681518110611301576113006124df565b5b602002602001015173ffffffffffffffffffffffffffffffffffffffff161415611330576000925050506113e3565b6000848260ff1681518110611348576113476124df565b5b6020026020010151148061137a5750612710848260ff16815181106113705761136f6124df565b5b6020026020010151115b1561138a576000925050506113e3565b838160ff16815181106113a05761139f6124df565b5b6020026020010151826113b391906127f5565b915080806113c09061254a565b9150506112c7565b506127108111156113dd5760009150506113e3565b60019150505b92915050565b6040518060800160405280600015158152602001600073ffffffffffffffffffffffffffffffffffffffff16815260200160608152602001606081525090565b8280548282559060005260206000209081019282156114a2579160200282015b828111156114a15782518260006101000a81548173ffffffffffffffffffffffffffffffffffffffff021916908373ffffffffffffffffffffffffffffffffffffffff16021790555091602001919060010190611449565b5b5090506114af9190611500565b5090565b8280548282559060005260206000209081019282156114ef579160200282015b828111156114ee5782518255916020019190600101906114d3565b5b5090506114fc9190611500565b5090565b5b80821115611519576000816000905550600101611501565b5090565b600073ffffffffffffffffffffffffffffffffffffffff82169050919050565b6000819050919050565b600061156261155d6115588461151d565b61153d565b61151d565b9050919050565b600061157482611547565b9050919050565b600061158682611569565b9050919050565b6115968161157b565b82525050565b60006020820190506115b1600083018461158d565b92915050565b600081519050919050565b600082825260208201905092915050565b60005b838110156115f15780820151818401526020810190506115d6565b83811115611600576000848401525b50505050565b6000601f19601f8301169050919050565b6000611622826115b7565b61162c81856115c2565b935061163c8185602086016115d3565b61164581611606565b840191505092915050565b6000602082019050818103600083015261166a8184611617565b905092915050565b6000604051905090565b600080fd5b600080fd5b60006116918261151d565b9050919050565b6116a181611686565b81146116ac57600080fd5b50565b6000813590506116be81611698565b92915050565b6000819050919050565b6116d7816116c4565b81146116e257600080fd5b50565b6000813590506116f4816116ce565b92915050565b6000806000606084860312156117135761171261167c565b5b6000611721868287016116af565b9350506020611732868287016116e5565b9250506040611743868287016116af565b9150509250925092565b60008115159050919050565b6117628161174d565b82525050565b600060208201905061177d6000830184611759565b92915050565b6000602082840312156117995761179861167c565b5b60006117a7848285016116e5565b91505092915050565b6117b9816116c4565b82525050565b60006020820190506117d460008301846117b0565b92915050565b600080604083850312156117f1576117f061167c565b5b60006117ff858286016116af565b9250506020611810858286016116e5565b9150509250929050565b6118238161174d565b82525050565b61183281611686565b82525050565b600081519050919050565b600082825260208201905092915050565b6000819050602082019050919050565b60006118708383611829565b60208301905092915050565b6000602082019050919050565b600061189482611838565b61189e8185611843565b93506118a983611854565b8060005b838110156118da5781516118c18882611864565b97506118cc8361187c565b9250506001810190506118ad565b5085935050505092915050565b600081519050919050565b600082825260208201905092915050565b6000819050602082019050919050565b61191c816116c4565b82525050565b600061192e8383611913565b60208301905092915050565b6000602082019050919050565b6000611952826118e7565b61195c81856118f2565b935061196783611903565b8060005b8381101561199857815161197f8882611922565b975061198a8361193a565b92505060018101905061196b565b5085935050505092915050565b60006080830160008301516119bd600086018261181a565b5060208301516119d06020860182611829565b50604083015184820360408601526119e88282611889565b91505060608301518482036060860152611a028282611947565b9150508091505092915050565b60006020820190508181036000830152611a2981846119a5565b905092915050565b6000611a3c82611686565b9050919050565b611a4c81611a31565b8114611a5757600080fd5b50565b600081359050611a6981611a43565b92915050565b600060208284031215611a8557611a8461167c565b5b6000611a9384828501611a5a565b91505092915050565b600080fd5b600080fd5b600080fd5b60008083601f840112611ac157611ac0611a9c565b5b8235905067ffffffffffffffff811115611ade57611add611aa1565b5b602083019150836001820283011115611afa57611af9611aa6565b5b9250929050565b600080600080600080600060c0888a031215611b2057611b1f61167c565b5b6000611b2e8a828b016116af565b9750506020611b3f8a828b016116e5565b9650506040611b508a828b016116af565b9550506060611b618a828b016116e5565b9450506080611b728a828b016116e5565b93505060a088013567ffffffffffffffff811115611b9357611b92611681565b5b611b9f8a828b01611aab565b925092505092959891949750929550565b600080600060608486031215611bc957611bc861167c565b5b6000611bd7868287016116e5565b9350506020611be8868287016116af565b9250506040611bf9868287016116e5565b9150509250925092565b611c0c81611686565b82525050565b6000604082019050611c276000830185611759565b611c346020830184611c03565b9392505050565b7f4e487b7100000000000000000000000000000000000000000000000000000000600052604160045260246000fd5b611c7382611606565b810181811067ffffffffffffffff82111715611c9257611c91611c3b565b5b80604052505050565b6000611ca5611672565b9050611cb18282611c6a565b919050565b600067ffffffffffffffff821115611cd157611cd0611c3b565b5b602082029050602081019050919050565b6000611cf5611cf084611cb6565b611c9b565b90508083825260208201905060208402830185811115611d1857611d17611aa6565b5b835b81811015611d415780611d2d88826116af565b845260208401935050602081019050611d1a565b5050509392505050565b600082601f830112611d6057611d5f611a9c565b5b8135611d70848260208601611ce2565b91505092915050565b600067ffffffffffffffff821115611d9457611d93611c3b565b5b602082029050602081019050919050565b6000611db8611db384611d79565b611c9b565b90508083825260208201905060208402830185811115611ddb57611dda611aa6565b5b835b81811015611e045780611df088826116e5565b845260208401935050602081019050611ddd565b5050509392505050565b600082601f830112611e2357611e22611a9c565b5b8135611e33848260208601611da5565b91505092915050565b60008060008060008060008060006101008a8c031215611e5f57611e5e61167c565b5b6000611e6d8c828d016116af565b9950506020611e7e8c828d016116e5565b9850506040611e8f8c828d016116af565b9750506060611ea08c828d016116e5565b96505060808a013567ffffffffffffffff811115611ec157611ec0611681565b5b611ecd8c828d01611d4b565b95505060a08a013567ffffffffffffffff811115611eee57611eed611681565b5b611efa8c828d01611e0e565b94505060c0611f0b8c828d016116e5565b93505060e08a013567ffffffffffffffff811115611f2c57611f2b611681565b5b611f388c828d01611aab565b92509250509295985092959850929598565b60008060008060808587031215611f6457611f6361167c565b5b6000611f72878288016116af565b9450506020611f83878288016116e5565b9350506040611f94878288016116af565b9250506060611fa5878288016116e5565b91505092959194509250565b7f4e4654206e6f74206f776e656400000000000000000000000000000000000000600082015250565b6000611fe7600d836115c2565b9150611ff282611fb1565b602082019050919050565b6000602082019050818103600083015261201681611fda565b9050919050565b7f496e697469616c697a61626c653a20636f6e747261637420697320616c72656160008201527f647920696e697469616c697a6564000000000000000000000000000000000000602082015250565b6000612079602e836115c2565b91506120848261201d565b604082019050919050565b600060208201905081810360008301526120a88161206c565b9050919050565b6000815190506120be81611698565b92915050565b6000602082840312156120da576120d961167c565b5b60006120e8848285016120af565b91505092915050565b7f4e6f742042726964676500000000000000000000000000000000000000000000600082015250565b6000612127600a836115c2565b9150612132826120f1565b602082019050919050565b600060208201905081810360008301526121568161211a565b9050919050565b60006040820190506121726000830185611c03565b61217f60208301846117b0565b9392505050565b600081519050612195816116ce565b92915050565b6000602082840312156121b1576121b061167c565b5b60006121bf84828501612186565b91505092915050565b7f4e4654206e6f7420726567697374657265640000000000000000000000000000600082015250565b60006121fe6012836115c2565b9150612209826121c8565b602082019050919050565b6000602082019050818103600083015261222d816121f1565b9050919050565b600060408201905061224960008301856117b0565b61225660208301846117b0565b9392505050565b6000819050919050565b600061228261227d6122788461225d565b61153d565b6116c4565b9050919050565b61229281612267565b82525050565b60006060820190506122ad6000830186611c03565b6122ba60208301856117b0565b6122c76040830184612289565b949350505050565b600067ffffffffffffffff8211156122ea576122e9611c3b565b5b602082029050602081019050919050565b60006123068261151d565b9050919050565b612316816122fb565b811461232157600080fd5b50565b6000815190506123338161230d565b92915050565b600061234c612347846122cf565b611c9b565b9050808382526020820190506020840283018581111561236f5761236e611aa6565b5b835b8181101561239857806123848882612324565b845260208401935050602081019050612371565b5050509392505050565b600082601f8301126123b7576123b6611a9c565b5b81516123c7848260208601612339565b91505092915050565b60006123e36123de84611d79565b611c9b565b9050808382526020820190506020840283018581111561240657612405611aa6565b5b835b8181101561242f578061241b8882612186565b845260208401935050602081019050612408565b5050509392505050565b600082601f83011261244e5761244d611a9c565b5b815161245e8482602086016123d0565b91505092915050565b6000806040838503121561247e5761247d61167c565b5b600083015167ffffffffffffffff81111561249c5761249b611681565b5b6124a8858286016123a2565b925050602083015167ffffffffffffffff8111156124c9576124c8611681565b5b6124d585828601612439565b9150509250929050565b7f4e487b7100000000000000000000000000000000000000000000000000000000600052603260045260246000fd5b7f4e487b7100000000000000000000000000000000000000000000000000000000600052601160045260246000fd5b600060ff82169050919050565b60006125558261253d565b915060ff8214156125695761256861250e565b5b600182019050919050565b7f496e76616c696420627000000000000000000000000000000000000000000000600082015250565b60006125aa600a836115c2565b91506125b582612574565b602082019050919050565b600060208201905081810360008301526125d98161259d565b9050919050565b600060608201905081810360008301526125fa8186611617565b905061260960208301856117b0565b61261660408301846117b0565b949350505050565b600082825260208201905092915050565b600061263a82611838565b612644818561261e565b935061264f83611854565b8060005b838110156126805781516126678882611864565b97506126728361187c565b925050600181019050612653565b5085935050505092915050565b600082825260208201905092915050565b60006126a9826118e7565b6126b3818561268d565b93506126be83611903565b8060005b838110156126ef5781516126d68882611922565b97506126e18361193a565b9250506001810190506126c2565b5085935050505092915050565b82818337600083830152505050565b600061271783856115c2565b93506127248385846126fc565b61272d83611606565b840190509392505050565b600060e08201905061274d600083018b6117b0565b818103602083015261275f818a61262f565b90508181036040830152612773818961269e565b905061278260608301886117b0565b61278f60808301876117b0565b61279c60a08301866117b0565b81810360c08301526127af81848661270b565b90509998505050505050505050565b60006060820190506127d360008301866117b0565b6127e06020830185611c03565b6127ed60408301846117b0565b949350505050565b6000612800826116c4565b915061280b836116c4565b9250827fffffffffffffffffffffffffffffffffffffffffffffffffffffffffffffffff038211156128405761283f61250e565b5b82820190509291505056fea264697066735822122052afd3a8b01f015b22f3f07d919b4dedbc1260c998a0834acd49ffb7d747aba764736f6c63430008090033",
  "devdoc": {
    "details": "This contract tracks registered NFTs.  Owners of an NFT can register and deregister any NFTs owned in their wallet. Also, for the mappings, it is assumed the protocol will always look up the current owner of an NFT when running logic (which is why the owner address is not stored).  If desired, an off-chain indexer like The Graph can index registration addresses to NFTs.",
    "events": {
      "Deregistered(uint256,address,uint256,address,uint256)": {
        "details": "Event triggered when an NFT is deregistered from the system"
      },
      "Registered(uint256,address,uint256,address,address[],uint256[],uint256,uint256,uint256,string)": {
        "details": "Event triggered when an NFT is registered in the system"
      }
    },
    "kind": "dev",
    "methods": {
      "deregisterNft(address,uint256)": {
        "details": "Allow an NFT owner to deregister and remove capability for reactions to be sold. Caller must currently own the NFT being deregistered"
      },
      "initialize(address)": {
        "details": "initializer to call after deployment, can only be called once"
      },
      "registerNft(address,uint256,address,uint256,uint256,string)": {
        "details": "Allows a NFT owner to register the NFT in the protocol so that reactions can be sold. Owner registering must own the NFT in the wallet calling function."
      },
      "verifyOwnership(address,uint256,address)": {
        "details": "For the specified NFT, verify it is owned by the potential owner"
      }
    },
    "title": "MakerRegistrar",
    "version": 1
  },
  "userdoc": {
    "kind": "user",
    "methods": {},
    "version": 1
  },
  "storageLayout": {
    "storage": [
      {
        "astId": 2355,
        "contract": "contracts/Maker/MakerRegistrar.sol:MakerRegistrar",
        "label": "_initialized",
        "offset": 0,
        "slot": "0",
        "type": "t_bool"
      },
      {
        "astId": 2358,
        "contract": "contracts/Maker/MakerRegistrar.sol:MakerRegistrar",
        "label": "_initializing",
        "offset": 1,
        "slot": "0",
        "type": "t_bool"
      },
      {
        "astId": 8855,
        "contract": "contracts/Maker/MakerRegistrar.sol:MakerRegistrar",
        "label": "addressManager",
        "offset": 2,
        "slot": "0",
        "type": "t_contract(IAddressManager)8208"
      },
      {
        "astId": 8865,
        "contract": "contracts/Maker/MakerRegistrar.sol:MakerRegistrar",
        "label": "transformToSourceLookup",
        "offset": 0,
        "slot": "1",
        "type": "t_mapping(t_uint256,t_uint256)"
      },
      {
        "astId": 8871,
        "contract": "contracts/Maker/MakerRegistrar.sol:MakerRegistrar",
        "label": "sourceToDetails",
        "offset": 0,
        "slot": "2",
        "type": "t_mapping(t_uint256,t_struct(NftDetails)8350_storage)"
      }
    ],
    "types": {
      "t_address": {
        "encoding": "inplace",
        "label": "address",
        "numberOfBytes": "20"
      },
      "t_array(t_address)dyn_storage": {
        "base": "t_address",
        "encoding": "dynamic_array",
        "label": "address[]",
        "numberOfBytes": "32"
      },
      "t_array(t_uint256)dyn_storage": {
        "base": "t_uint256",
        "encoding": "dynamic_array",
        "label": "uint256[]",
        "numberOfBytes": "32"
      },
      "t_bool": {
        "encoding": "inplace",
        "label": "bool",
        "numberOfBytes": "1"
      },
      "t_contract(IAddressManager)8208": {
        "encoding": "inplace",
        "label": "contract IAddressManager",
        "numberOfBytes": "20"
      },
      "t_mapping(t_uint256,t_struct(NftDetails)8350_storage)": {
        "encoding": "mapping",
        "key": "t_uint256",
        "label": "mapping(uint256 => struct IMakerRegistrar.NftDetails)",
        "numberOfBytes": "32",
        "value": "t_struct(NftDetails)8350_storage"
      },
      "t_mapping(t_uint256,t_uint256)": {
        "encoding": "mapping",
        "key": "t_uint256",
        "label": "mapping(uint256 => uint256)",
        "numberOfBytes": "32",
        "value": "t_uint256"
      },
      "t_struct(NftDetails)8350_storage": {
        "encoding": "inplace",
        "label": "struct IMakerRegistrar.NftDetails",
        "members": [
          {
            "astId": 8341,
            "contract": "contracts/Maker/MakerRegistrar.sol:MakerRegistrar",
            "label": "registered",
            "offset": 0,
            "slot": "0",
            "type": "t_bool"
          },
          {
            "astId": 8343,
            "contract": "contracts/Maker/MakerRegistrar.sol:MakerRegistrar",
            "label": "owner",
            "offset": 1,
            "slot": "0",
            "type": "t_address"
          },
          {
            "astId": 8346,
            "contract": "contracts/Maker/MakerRegistrar.sol:MakerRegistrar",
            "label": "creators",
            "offset": 0,
            "slot": "1",
            "type": "t_array(t_address)dyn_storage"
          },
          {
            "astId": 8349,
            "contract": "contracts/Maker/MakerRegistrar.sol:MakerRegistrar",
            "label": "creatorSaleBasisPoints",
            "offset": 0,
            "slot": "2",
            "type": "t_array(t_uint256)dyn_storage"
          }
        ],
        "numberOfBytes": "96"
      },
      "t_uint256": {
        "encoding": "inplace",
        "label": "uint256",
        "numberOfBytes": "32"
      }
    }
  }
}