{
  "address": "0x80313dCBaA87EEeD43E288160666Ef7799BB54C7",
  "abi": [
    {
      "anonymous": false,
      "inputs": [
        {
          "indexed": false,
          "internalType": "address",
          "name": "vault",
          "type": "address"
        },
        {
          "indexed": false,
          "internalType": "bool",
          "name": "approved",
          "type": "bool"
        }
      ],
      "name": "ApprovedCuratorVaultsUpdated",
      "type": "event"
    },
    {
      "anonymous": false,
      "inputs": [
        {
          "indexed": false,
          "internalType": "contract IERC20Upgradeable",
          "name": "newValue",
          "type": "address"
        }
      ],
      "name": "PaymentTokenUpdated",
      "type": "event"
    },
    {
      "anonymous": false,
      "inputs": [
        {
          "indexed": false,
          "internalType": "uint256",
          "name": "newValue",
          "type": "uint256"
        }
      ],
      "name": "ReactionPriceUpdated",
      "type": "event"
    },
    {
      "anonymous": false,
      "inputs": [
        {
          "indexed": false,
          "internalType": "uint256",
          "name": "newValue",
          "type": "uint256"
        }
      ],
      "name": "SaleCuratorLiabilityBasisPointsUpdated",
      "type": "event"
    },
    {
      "anonymous": false,
      "inputs": [
        {
          "indexed": false,
          "internalType": "uint256",
          "name": "newValue",
          "type": "uint256"
        }
      ],
      "name": "SaleReferrerBasisPointsUpdated",
      "type": "event"
    },
    {
      "anonymous": false,
      "inputs": [
        {
          "indexed": false,
          "internalType": "uint256",
          "name": "newValue",
          "type": "uint256"
        }
      ],
      "name": "SpendReferrerBasisPointsUpdated",
      "type": "event"
    },
    {
      "anonymous": false,
      "inputs": [
        {
          "indexed": false,
          "internalType": "uint256",
          "name": "newValue",
          "type": "uint256"
        }
      ],
      "name": "SpendTakerBasisPointsUpdated",
      "type": "event"
    },
    {
      "inputs": [],
      "name": "addressManager",
      "outputs": [
        {
          "internalType": "contract IAddressManager",
          "name": "",
          "type": "address"
        }
      ],
      "stateMutability": "view",
      "type": "function"
    },
    {
      "inputs": [
        {
          "internalType": "address",
          "name": "",
          "type": "address"
        }
      ],
      "name": "approvedCuratorVaults",
      "outputs": [
        {
          "internalType": "bool",
          "name": "",
          "type": "bool"
        }
      ],
      "stateMutability": "view",
      "type": "function"
    },
    {
      "inputs": [
        {
          "internalType": "contract IAddressManager",
          "name": "_addressManager",
          "type": "address"
        }
      ],
      "name": "initialize",
      "outputs": [],
      "stateMutability": "nonpayable",
      "type": "function"
    },
    {
      "inputs": [],
      "name": "paymentToken",
      "outputs": [
        {
          "internalType": "contract IERC20Upgradeable",
          "name": "",
          "type": "address"
        }
      ],
      "stateMutability": "view",
      "type": "function"
    },
    {
      "inputs": [],
      "name": "reactionPrice",
      "outputs": [
        {
          "internalType": "uint256",
          "name": "",
          "type": "uint256"
        }
      ],
      "stateMutability": "view",
      "type": "function"
    },
    {
      "inputs": [],
      "name": "saleCuratorLiabilityBasisPoints",
      "outputs": [
        {
          "internalType": "uint256",
          "name": "",
          "type": "uint256"
        }
      ],
      "stateMutability": "view",
      "type": "function"
    },
    {
      "inputs": [],
      "name": "saleReferrerBasisPoints",
      "outputs": [
        {
          "internalType": "uint256",
          "name": "",
          "type": "uint256"
        }
      ],
      "stateMutability": "view",
      "type": "function"
    },
    {
      "inputs": [
        {
          "internalType": "address",
          "name": "vault",
          "type": "address"
        },
        {
          "internalType": "bool",
          "name": "approved",
          "type": "bool"
        }
      ],
      "name": "setApprovedCuratorVaults",
      "outputs": [],
      "stateMutability": "nonpayable",
      "type": "function"
    },
    {
      "inputs": [
        {
          "internalType": "contract IERC20Upgradeable",
          "name": "_paymentToken",
          "type": "address"
        }
      ],
      "name": "setPaymentToken",
      "outputs": [],
      "stateMutability": "nonpayable",
      "type": "function"
    },
    {
      "inputs": [
        {
          "internalType": "uint256",
          "name": "_reactionPrice",
          "type": "uint256"
        }
      ],
      "name": "setReactionPrice",
      "outputs": [],
      "stateMutability": "nonpayable",
      "type": "function"
    },
    {
      "inputs": [
        {
          "internalType": "uint256",
          "name": "_saleCuratorLiabilityBasisPoints",
          "type": "uint256"
        }
      ],
      "name": "setSaleCuratorLiabilityBasisPoints",
      "outputs": [],
      "stateMutability": "nonpayable",
      "type": "function"
    },
    {
      "inputs": [
        {
          "internalType": "uint256",
          "name": "_saleReferrerBasisPoints",
          "type": "uint256"
        }
      ],
      "name": "setSaleReferrerBasisPoints",
      "outputs": [],
      "stateMutability": "nonpayable",
      "type": "function"
    },
    {
      "inputs": [
        {
          "internalType": "uint256",
          "name": "_spendReferrerBasisPoints",
          "type": "uint256"
        }
      ],
      "name": "setSpendReferrerBasisPoints",
      "outputs": [],
      "stateMutability": "nonpayable",
      "type": "function"
    },
    {
      "inputs": [
        {
          "internalType": "uint256",
          "name": "_spendTakerBasisPoints",
          "type": "uint256"
        }
      ],
      "name": "setSpendTakerBasisPoints",
      "outputs": [],
      "stateMutability": "nonpayable",
      "type": "function"
    },
    {
      "inputs": [],
      "name": "spendReferrerBasisPoints",
      "outputs": [
        {
          "internalType": "uint256",
          "name": "",
          "type": "uint256"
        }
      ],
      "stateMutability": "view",
      "type": "function"
    },
    {
      "inputs": [],
      "name": "spendTakerBasisPoints",
      "outputs": [
        {
          "internalType": "uint256",
          "name": "",
          "type": "uint256"
        }
      ],
      "stateMutability": "view",
      "type": "function"
    }
  ],
  "transactionHash": "0x621f3830fe04806b8a3522f44cebeb082f40588c717d2e43b2421d712a6536cc",
  "args": [],
  "numDeployments": 1,
  "solcInputHash": "0c452a7a2a2db8193582d74055ee849a",
  "bytecode": "0x608060405234801561001057600080fd5b50611d1c806100206000396000f3fe608060405234801561001057600080fd5b50600436106100ff5760003560e01c806373cf2a6711610097578063e15a8ce811610066578063e15a8ce814610272578063f467320e1461028e578063f93c0d79146102ac578063fbc8cc58146102ca576100ff565b806373cf2a67146101ec578063c4d66de81461021c578063cc22c3e214610238578063dafe4f9a14610256576100ff565b80635ddb0cf2116100d35780635ddb0cf21461017a578063655f28c114610198578063690dafaf146101b45780636a326ab1146101d0576100ff565b8062ac1c5a146101045780633013ce29146101225780633ab76e9f146101405780635b3c42ff1461015e575b600080fd5b61010c6102e6565b604051610119919061168f565b60405180910390f35b61012a6102ec565b6040516101379190611729565b60405180910390f35b610148610312565b6040516101559190611765565b60405180910390f35b610178600480360381019061017391906117b1565b610338565b005b6101826105a3565b60405161018f919061168f565b60405180910390f35b6101b260048036038101906101ad91906117b1565b6105a9565b005b6101ce60048036038101906101c99190611854565b6107cf565b005b6101ea60048036038101906101e591906118d2565b610a74565b005b610206600480360381019061020191906118ff565b610d00565b604051610213919061193b565b60405180910390f35b61023660048036038101906102319190611994565b610d20565b005b610240610eef565b60405161024d919061168f565b60405180910390f35b610270600480360381019061026b91906117b1565b610ef5565b005b61028c600480360381019061028791906117b1565b611160565b005b6102966113cb565b6040516102a3919061168f565b60405180910390f35b6102b46113d1565b6040516102c1919061168f565b60405180910390f35b6102e460048036038101906102df91906117b1565b6113d7565b005b60055481565b600160009054906101000a900473ffffffffffffffffffffffffffffffffffffffff1681565b600060029054906101000a900473ffffffffffffffffffffffffffffffffffffffff1681565b600060029054906101000a900473ffffffffffffffffffffffffffffffffffffffff1673ffffffffffffffffffffffffffffffffffffffff1662435da56040518163ffffffff1660e01b8152600401602060405180830381600087803b1580156103a157600080fd5b505af11580156103b5573d6000803e3d6000fd5b505050506040513d601f19601f820116820180604052508101906103d991906119ff565b73ffffffffffffffffffffffffffffffffffffffff16636d993046336040518263ffffffff1660e01b81526004016104119190611a3b565b60206040518083038186803b15801561042957600080fd5b505afa15801561043d573d6000803e3d6000fd5b505050506040513d601f19601f820116820180604052508101906104619190611a6b565b6104a0576040517f08c379a000000000000000000000000000000000000000000000000000000000815260040161049790611af5565b60405180910390fd5b60008114156040518060400160405280600f81526020017f496e76616c6964203020696e70757400000000000000000000000000000000008152509061051c576040517f08c379a00000000000000000000000000000000000000000000000000000000081526004016105139190611b9d565b60405180910390fd5b50612710811115610562576040517f08c379a000000000000000000000000000000000000000000000000000000000815260040161055990611c0b565b60405180910390fd5b806005819055507f8675d4b071dd3bb74a333fda8ae022c69bab50eeafbf1ae61cbffc73f052ab0281604051610598919061168f565b60405180910390a150565b60025481565b600060029054906101000a900473ffffffffffffffffffffffffffffffffffffffff1673ffffffffffffffffffffffffffffffffffffffff1662435da56040518163ffffffff1660e01b8152600401602060405180830381600087803b15801561061257600080fd5b505af1158015610626573d6000803e3d6000fd5b505050506040513d601f19601f8201168201806040525081019061064a91906119ff565b73ffffffffffffffffffffffffffffffffffffffff16636d993046336040518263ffffffff1660e01b81526004016106829190611a3b565b60206040518083038186803b15801561069a57600080fd5b505afa1580156106ae573d6000803e3d6000fd5b505050506040513d601f19601f820116820180604052508101906106d29190611a6b565b610711576040517f08c379a000000000000000000000000000000000000000000000000000000000815260040161070890611af5565b60405180910390fd5b60008114156040518060400160405280600f81526020017f496e76616c6964203020696e70757400000000000000000000000000000000008152509061078d576040517f08c379a00000000000000000000000000000000000000000000000000000000081526004016107849190611b9d565b60405180910390fd5b50806002819055507f1efb1db4037f964fdb0d9ce83125a4e3f84d55efaf654830ed8d034c30ad25dc816040516107c4919061168f565b60405180910390a150565b600060029054906101000a900473ffffffffffffffffffffffffffffffffffffffff1673ffffffffffffffffffffffffffffffffffffffff1662435da56040518163ffffffff1660e01b8152600401602060405180830381600087803b15801561083857600080fd5b505af115801561084c573d6000803e3d6000fd5b505050506040513d601f19601f8201168201806040525081019061087091906119ff565b73ffffffffffffffffffffffffffffffffffffffff16636d993046336040518263ffffffff1660e01b81526004016108a89190611a3b565b60206040518083038186803b1580156108c057600080fd5b505afa1580156108d4573d6000803e3d6000fd5b505050506040513d601f19601f820116820180604052508101906108f89190611a6b565b610937576040517f08c379a000000000000000000000000000000000000000000000000000000000815260040161092e90611af5565b60405180910390fd5b600073ffffffffffffffffffffffffffffffffffffffff168273ffffffffffffffffffffffffffffffffffffffff1614156040518060400160405280600f81526020017f496e76616c6964203020696e7075740000000000000000000000000000000000815250906109df576040517f08c379a00000000000000000000000000000000000000000000000000000000081526004016109d69190611b9d565b60405180910390fd5b5080600760008473ffffffffffffffffffffffffffffffffffffffff1673ffffffffffffffffffffffffffffffffffffffff16815260200190815260200160002060006101000a81548160ff0219169083151502179055507f69dbdf6bdc042e90cff52a0317d54ee5ffb99ed454145bedb5f0967f948e2d408282604051610a68929190611c2b565b60405180910390a15050565b600060029054906101000a900473ffffffffffffffffffffffffffffffffffffffff1673ffffffffffffffffffffffffffffffffffffffff1662435da56040518163ffffffff1660e01b8152600401602060405180830381600087803b158015610add57600080fd5b505af1158015610af1573d6000803e3d6000fd5b505050506040513d601f19601f82011682018060405250810190610b1591906119ff565b73ffffffffffffffffffffffffffffffffffffffff16636d993046336040518263ffffffff1660e01b8152600401610b4d9190611a3b565b60206040518083038186803b158015610b6557600080fd5b505afa158015610b79573d6000803e3d6000fd5b505050506040513d601f19601f82011682018060405250810190610b9d9190611a6b565b610bdc576040517f08c379a0000000000000000000000000000000000000000000000000000000008152600401610bd390611af5565b60405180910390fd5b600073ffffffffffffffffffffffffffffffffffffffff168173ffffffffffffffffffffffffffffffffffffffff1614156040518060400160405280600f81526020017f496e76616c6964203020696e707574000000000000000000000000000000000081525090610c84576040517f08c379a0000000000000000000000000000000000000000000000000000000008152600401610c7b9190611b9d565b60405180910390fd5b5080600160006101000a81548173ffffffffffffffffffffffffffffffffffffffff021916908373ffffffffffffffffffffffffffffffffffffffff1602179055507fbd4032c1c91da2791730ea1bbc82c6b6f857da7c0a8318143d19ef74e62cd91381604051610cf59190611729565b60405180910390a150565b60076020528060005260406000206000915054906101000a900460ff1681565b600060019054906101000a900460ff16610d485760008054906101000a900460ff1615610d51565b610d50611642565b5b610d90576040517f08c379a0000000000000000000000000000000000000000000000000000000008152600401610d8790611cc6565b60405180910390fd5b60008060019054906101000a900460ff161590508015610de0576001600060016101000a81548160ff02191690831515021790555060016000806101000a81548160ff0219169083151502179055505b600073ffffffffffffffffffffffffffffffffffffffff168273ffffffffffffffffffffffffffffffffffffffff1614156040518060400160405280600f81526020017f496e76616c6964203020696e707574000000000000000000000000000000000081525090610e88576040517f08c379a0000000000000000000000000000000000000000000000000000000008152600401610e7f9190611b9d565b60405180910390fd5b5081600060026101000a81548173ffffffffffffffffffffffffffffffffffffffff021916908373ffffffffffffffffffffffffffffffffffffffff1602179055508015610eeb5760008060016101000a81548160ff0219169083151502179055505b5050565b60065481565b600060029054906101000a900473ffffffffffffffffffffffffffffffffffffffff1673ffffffffffffffffffffffffffffffffffffffff1662435da56040518163ffffffff1660e01b8152600401602060405180830381600087803b158015610f5e57600080fd5b505af1158015610f72573d6000803e3d6000fd5b505050506040513d601f19601f82011682018060405250810190610f9691906119ff565b73ffffffffffffffffffffffffffffffffffffffff16636d993046336040518263ffffffff1660e01b8152600401610fce9190611a3b565b60206040518083038186803b158015610fe657600080fd5b505afa158015610ffa573d6000803e3d6000fd5b505050506040513d601f19601f8201168201806040525081019061101e9190611a6b565b61105d576040517f08c379a000000000000000000000000000000000000000000000000000000000815260040161105490611af5565b60405180910390fd5b60008114156040518060400160405280600f81526020017f496e76616c6964203020696e7075740000000000000000000000000000000000815250906110d9576040517f08c379a00000000000000000000000000000000000000000000000000000000081526004016110d09190611b9d565b60405180910390fd5b5061271081111561111f576040517f08c379a000000000000000000000000000000000000000000000000000000000815260040161111690611c0b565b60405180910390fd5b806004819055507f7b568aa985a32d076146f32f69e22aadf408b8f76c3a2f4ee694228afc2cc82781604051611155919061168f565b60405180910390a150565b600060029054906101000a900473ffffffffffffffffffffffffffffffffffffffff1673ffffffffffffffffffffffffffffffffffffffff1662435da56040518163ffffffff1660e01b8152600401602060405180830381600087803b1580156111c957600080fd5b505af11580156111dd573d6000803e3d6000fd5b505050506040513d601f19601f8201168201806040525081019061120191906119ff565b73ffffffffffffffffffffffffffffffffffffffff16636d993046336040518263ffffffff1660e01b81526004016112399190611a3b565b60206040518083038186803b15801561125157600080fd5b505afa158015611265573d6000803e3d6000fd5b505050506040513d601f19601f820116820180604052508101906112899190611a6b565b6112c8576040517f08c379a00000000000000000000000000000000000000000000000000000000081526004016112bf90611af5565b60405180910390fd5b60008114156040518060400160405280600f81526020017f496e76616c6964203020696e707574000000000000000000000000000000000081525090611344576040517f08c379a000000000000000000000000000000000000000000000000000000000815260040161133b9190611b9d565b60405180910390fd5b5061271081111561138a576040517f08c379a000000000000000000000000000000000000000000000000000000000815260040161138190611c0b565b60405180910390fd5b806003819055507fab8f93c67b0c7463f6f99579fa9b11ae2cb0de74594b6562724ab1ddecddaeb2816040516113c0919061168f565b60405180910390a150565b60045481565b60035481565b600060029054906101000a900473ffffffffffffffffffffffffffffffffffffffff1673ffffffffffffffffffffffffffffffffffffffff1662435da56040518163ffffffff1660e01b8152600401602060405180830381600087803b15801561144057600080fd5b505af1158015611454573d6000803e3d6000fd5b505050506040513d601f19601f8201168201806040525081019061147891906119ff565b73ffffffffffffffffffffffffffffffffffffffff16636d993046336040518263ffffffff1660e01b81526004016114b09190611a3b565b60206040518083038186803b1580156114c857600080fd5b505afa1580156114dc573d6000803e3d6000fd5b505050506040513d601f19601f820116820180604052508101906115009190611a6b565b61153f576040517f08c379a000000000000000000000000000000000000000000000000000000000815260040161153690611af5565b60405180910390fd5b60008114156040518060400160405280600f81526020017f496e76616c6964203020696e7075740000000000000000000000000000000000815250906115bb576040517f08c379a00000000000000000000000000000000000000000000000000000000081526004016115b29190611b9d565b60405180910390fd5b50612710811115611601576040517f08c379a00000000000000000000000000000000000000000000000000000000081526004016115f890611c0b565b60405180910390fd5b806006819055507f5286e9f4ccb1f31b46dce4870d04977bb0cf83b6c79d0ba3d5cc760bc5902a7081604051611637919061168f565b60405180910390a150565b600061164d30611653565b15905090565b6000808273ffffffffffffffffffffffffffffffffffffffff163b119050919050565b6000819050919050565b61168981611676565b82525050565b60006020820190506116a46000830184611680565b92915050565b600073ffffffffffffffffffffffffffffffffffffffff82169050919050565b6000819050919050565b60006116ef6116ea6116e5846116aa565b6116ca565b6116aa565b9050919050565b6000611701826116d4565b9050919050565b6000611713826116f6565b9050919050565b61172381611708565b82525050565b600060208201905061173e600083018461171a565b92915050565b600061174f826116f6565b9050919050565b61175f81611744565b82525050565b600060208201905061177a6000830184611756565b92915050565b600080fd5b61178e81611676565b811461179957600080fd5b50565b6000813590506117ab81611785565b92915050565b6000602082840312156117c7576117c6611780565b5b60006117d58482850161179c565b91505092915050565b60006117e9826116aa565b9050919050565b6117f9816117de565b811461180457600080fd5b50565b600081359050611816816117f0565b92915050565b60008115159050919050565b6118318161181c565b811461183c57600080fd5b50565b60008135905061184e81611828565b92915050565b6000806040838503121561186b5761186a611780565b5b600061187985828601611807565b925050602061188a8582860161183f565b9150509250929050565b600061189f826117de565b9050919050565b6118af81611894565b81146118ba57600080fd5b50565b6000813590506118cc816118a6565b92915050565b6000602082840312156118e8576118e7611780565b5b60006118f6848285016118bd565b91505092915050565b60006020828403121561191557611914611780565b5b600061192384828501611807565b91505092915050565b6119358161181c565b82525050565b6000602082019050611950600083018461192c565b92915050565b6000611961826117de565b9050919050565b61197181611956565b811461197c57600080fd5b50565b60008135905061198e81611968565b92915050565b6000602082840312156119aa576119a9611780565b5b60006119b88482850161197f565b91505092915050565b60006119cc826117de565b9050919050565b6119dc816119c1565b81146119e757600080fd5b50565b6000815190506119f9816119d3565b92915050565b600060208284031215611a1557611a14611780565b5b6000611a23848285016119ea565b91505092915050565b611a35816117de565b82525050565b6000602082019050611a506000830184611a2c565b92915050565b600081519050611a6581611828565b92915050565b600060208284031215611a8157611a80611780565b5b6000611a8f84828501611a56565b91505092915050565b600082825260208201905092915050565b7f4e6f742041646d696e0000000000000000000000000000000000000000000000600082015250565b6000611adf600983611a98565b9150611aea82611aa9565b602082019050919050565b60006020820190508181036000830152611b0e81611ad2565b9050919050565b600081519050919050565b60005b83811015611b3e578082015181840152602081019050611b23565b83811115611b4d576000848401525b50505050565b6000601f19601f8301169050919050565b6000611b6f82611b15565b611b798185611a98565b9350611b89818560208601611b20565b611b9281611b53565b840191505092915050565b60006020820190508181036000830152611bb78184611b64565b905092915050565b7f496e76616c696420627000000000000000000000000000000000000000000000600082015250565b6000611bf5600a83611a98565b9150611c0082611bbf565b602082019050919050565b60006020820190508181036000830152611c2481611be8565b9050919050565b6000604082019050611c406000830185611a2c565b611c4d602083018461192c565b9392505050565b7f496e697469616c697a61626c653a20636f6e747261637420697320616c72656160008201527f647920696e697469616c697a6564000000000000000000000000000000000000602082015250565b6000611cb0602e83611a98565b9150611cbb82611c54565b604082019050919050565b60006020820190508181036000830152611cdf81611ca3565b905091905056fea2646970667358221220d41e313a2f8927f6a80f5743472e158ac7883fa51676615f6d161a02e3997aca64736f6c63430008090033",
  "devdoc": {
    "details": "Note: This contract is protected via a permissioned account set in the role manager.  Caution should be used as the role owner could renounce the role leaving all future actions disabled.  Additionally, if a malicious account was able to obtain the role, they could use it to set values to malicious values. See the public documentation website for more details.",
    "events": {
      "PaymentTokenUpdated(address)": {
        "details": "Events emitted on updates"
      }
    },
    "kind": "dev",
    "methods": {
      "initialize(address)": {
        "details": "initializer to call after deployment, can only be called once"
      },
      "setApprovedCuratorVaults(address,bool)": {
        "details": "Setter for the list of curator vaults allowed to be used"
      },
      "setPaymentToken(address)": {
        "details": "Setter for the payment token"
      },
      "setReactionPrice(uint256)": {
        "details": "Setter for the reaction price"
      },
      "setSaleCuratorLiabilityBasisPoints(uint256)": {
        "details": "Setter for the reaction price"
      },
      "setSaleReferrerBasisPoints(uint256)": {
        "details": "Setter for the reaction price"
      },
      "setSpendReferrerBasisPoints(uint256)": {
        "details": "Setter for the spend referrer basis points"
      },
      "setSpendTakerBasisPoints(uint256)": {
        "details": "Setter for the spend taker basis points"
      }
    },
    "version": 1
  },
  "userdoc": {
    "kind": "user",
    "methods": {},
    "version": 1
  },
  "storageLayout": {
    "storage": [
      {
        "astId": 2355,
        "contract": "contracts/Parameters/ParameterManager.sol:ParameterManager",
        "label": "_initialized",
        "offset": 0,
        "slot": "0",
        "type": "t_bool"
      },
      {
        "astId": 2358,
        "contract": "contracts/Parameters/ParameterManager.sol:ParameterManager",
        "label": "_initializing",
        "offset": 1,
        "slot": "0",
        "type": "t_bool"
      },
      {
        "astId": 9364,
        "contract": "contracts/Parameters/ParameterManager.sol:ParameterManager",
        "label": "addressManager",
        "offset": 2,
        "slot": "0",
        "type": "t_contract(IAddressManager)8208"
      },
      {
        "astId": 9368,
        "contract": "contracts/Parameters/ParameterManager.sol:ParameterManager",
        "label": "paymentToken",
        "offset": 0,
        "slot": "1",
        "type": "t_contract(IERC20Upgradeable)4593"
      },
      {
        "astId": 9371,
        "contract": "contracts/Parameters/ParameterManager.sol:ParameterManager",
        "label": "reactionPrice",
        "offset": 0,
        "slot": "2",
        "type": "t_uint256"
      },
      {
        "astId": 9374,
        "contract": "contracts/Parameters/ParameterManager.sol:ParameterManager",
        "label": "saleCuratorLiabilityBasisPoints",
        "offset": 0,
        "slot": "3",
        "type": "t_uint256"
      },
      {
        "astId": 9377,
        "contract": "contracts/Parameters/ParameterManager.sol:ParameterManager",
        "label": "saleReferrerBasisPoints",
        "offset": 0,
        "slot": "4",
        "type": "t_uint256"
      },
      {
        "astId": 9380,
        "contract": "contracts/Parameters/ParameterManager.sol:ParameterManager",
        "label": "spendTakerBasisPoints",
        "offset": 0,
        "slot": "5",
        "type": "t_uint256"
      },
      {
        "astId": 9383,
        "contract": "contracts/Parameters/ParameterManager.sol:ParameterManager",
        "label": "spendReferrerBasisPoints",
        "offset": 0,
        "slot": "6",
        "type": "t_uint256"
      },
      {
        "astId": 9388,
        "contract": "contracts/Parameters/ParameterManager.sol:ParameterManager",
        "label": "approvedCuratorVaults",
        "offset": 0,
        "slot": "7",
        "type": "t_mapping(t_address,t_bool)"
      }
    ],
    "types": {
      "t_address": {
        "encoding": "inplace",
        "label": "address",
        "numberOfBytes": "20"
      },
      "t_bool": {
        "encoding": "inplace",
        "label": "bool",
        "numberOfBytes": "1"
      },
      "t_contract(IAddressManager)8208": {
        "encoding": "inplace",
        "label": "contract IAddressManager",
        "numberOfBytes": "20"
      },
      "t_contract(IERC20Upgradeable)4593": {
        "encoding": "inplace",
        "label": "contract IERC20Upgradeable",
        "numberOfBytes": "20"
      },
      "t_mapping(t_address,t_bool)": {
        "encoding": "mapping",
        "key": "t_address",
        "label": "mapping(address => bool)",
        "numberOfBytes": "32",
        "value": "t_bool"
      },
      "t_uint256": {
        "encoding": "inplace",
        "label": "uint256",
        "numberOfBytes": "32"
      }
    }
  }
}