{
  "address": "0x8A7f06F3C950A19bdd592f754e4aeECD3F1D03F8",
  "abi": [
    {
      "anonymous": false,
      "inputs": [
        {
          "indexed": false,
          "internalType": "uint8",
          "name": "version",
          "type": "uint8"
        }
      ],
      "name": "Initialized",
      "type": "event"
    },
    {
      "anonymous": false,
      "inputs": [
        {
          "indexed": true,
          "internalType": "bytes32",
          "name": "role",
          "type": "bytes32"
        },
        {
          "indexed": true,
          "internalType": "bytes32",
          "name": "previousAdminRole",
          "type": "bytes32"
        },
        {
          "indexed": true,
          "internalType": "bytes32",
          "name": "newAdminRole",
          "type": "bytes32"
        }
      ],
      "name": "RoleAdminChanged",
      "type": "event"
    },
    {
      "anonymous": false,
      "inputs": [
        {
          "indexed": true,
          "internalType": "bytes32",
          "name": "role",
          "type": "bytes32"
        },
        {
          "indexed": true,
          "internalType": "address",
          "name": "account",
          "type": "address"
        },
        {
          "indexed": true,
          "internalType": "address",
          "name": "sender",
          "type": "address"
        }
      ],
      "name": "RoleGranted",
      "type": "event"
    },
    {
      "anonymous": false,
      "inputs": [
        {
          "indexed": true,
          "internalType": "bytes32",
          "name": "role",
          "type": "bytes32"
        },
        {
          "indexed": true,
          "internalType": "address",
          "name": "account",
          "type": "address"
        },
        {
          "indexed": true,
          "internalType": "address",
          "name": "sender",
          "type": "address"
        }
      ],
      "name": "RoleRevoked",
      "type": "event"
    },
    {
      "inputs": [],
      "name": "ADDRESS_MANAGER_ADMIN",
      "outputs": [
        {
          "internalType": "bytes32",
          "name": "",
          "type": "bytes32"
        }
      ],
      "stateMutability": "view",
      "type": "function"
    },
    {
      "inputs": [],
      "name": "CURATOR_TOKEN_ADMIN",
      "outputs": [
        {
          "internalType": "bytes32",
          "name": "",
          "type": "bytes32"
        }
      ],
      "stateMutability": "view",
      "type": "function"
    },
    {
      "inputs": [],
      "name": "CURATOR_VAULT_PURCHASER",
      "outputs": [
        {
          "internalType": "bytes32",
          "name": "",
          "type": "bytes32"
        }
      ],
      "stateMutability": "view",
      "type": "function"
    },
    {
      "inputs": [],
      "name": "DEFAULT_ADMIN_ROLE",
      "outputs": [
        {
          "internalType": "bytes32",
          "name": "",
          "type": "bytes32"
        }
      ],
      "stateMutability": "view",
      "type": "function"
    },
    {
      "inputs": [],
      "name": "PARAMETER_MANAGER_ADMIN",
      "outputs": [
        {
          "internalType": "bytes32",
          "name": "",
          "type": "bytes32"
        }
      ],
      "stateMutability": "view",
      "type": "function"
    },
    {
      "inputs": [],
      "name": "REACTION_NFT_ADMIN",
      "outputs": [
        {
          "internalType": "bytes32",
          "name": "",
          "type": "bytes32"
        }
      ],
      "stateMutability": "view",
      "type": "function"
    },
    {
      "inputs": [],
      "name": "SIG_NONCE_UPDATER",
      "outputs": [
        {
          "internalType": "bytes32",
          "name": "",
          "type": "bytes32"
        }
      ],
      "stateMutability": "view",
      "type": "function"
    },
    {
      "inputs": [
        {
          "internalType": "bytes32",
          "name": "role",
          "type": "bytes32"
        }
      ],
      "name": "getRoleAdmin",
      "outputs": [
        {
          "internalType": "bytes32",
          "name": "",
          "type": "bytes32"
        }
      ],
      "stateMutability": "view",
      "type": "function"
    },
    {
      "inputs": [
        {
          "internalType": "bytes32",
          "name": "role",
          "type": "bytes32"
        },
        {
          "internalType": "address",
          "name": "account",
          "type": "address"
        }
      ],
      "name": "grantRole",
      "outputs": [],
      "stateMutability": "nonpayable",
      "type": "function"
    },
    {
      "inputs": [
        {
          "internalType": "bytes32",
          "name": "role",
          "type": "bytes32"
        },
        {
          "internalType": "address",
          "name": "account",
          "type": "address"
        }
      ],
      "name": "hasRole",
      "outputs": [
        {
          "internalType": "bool",
          "name": "",
          "type": "bool"
        }
      ],
      "stateMutability": "view",
      "type": "function"
    },
    {
      "inputs": [
        {
          "internalType": "address",
          "name": "protocolAdmin",
          "type": "address"
        }
      ],
      "name": "initialize",
      "outputs": [],
      "stateMutability": "nonpayable",
      "type": "function"
    },
    {
      "inputs": [
        {
          "internalType": "address",
          "name": "potentialAddress",
          "type": "address"
        }
      ],
      "name": "isAddressManagerAdmin",
      "outputs": [
        {
          "internalType": "bool",
          "name": "",
          "type": "bool"
        }
      ],
      "stateMutability": "view",
      "type": "function"
    },
    {
      "inputs": [
        {
          "internalType": "address",
          "name": "potentialAddress",
          "type": "address"
        }
      ],
      "name": "isAdmin",
      "outputs": [
        {
          "internalType": "bool",
          "name": "",
          "type": "bool"
        }
      ],
      "stateMutability": "view",
      "type": "function"
    },
    {
      "inputs": [
        {
          "internalType": "address",
          "name": "potentialAddress",
          "type": "address"
        }
      ],
      "name": "isCuratorTokenAdmin",
      "outputs": [
        {
          "internalType": "bool",
          "name": "",
          "type": "bool"
        }
      ],
      "stateMutability": "view",
      "type": "function"
    },
    {
      "inputs": [
        {
          "internalType": "address",
          "name": "potentialAddress",
          "type": "address"
        }
      ],
      "name": "isCuratorVaultPurchaser",
      "outputs": [
        {
          "internalType": "bool",
          "name": "",
          "type": "bool"
        }
      ],
      "stateMutability": "view",
      "type": "function"
    },
    {
      "inputs": [
        {
          "internalType": "address",
          "name": "potentialAddress",
          "type": "address"
        }
      ],
      "name": "isParameterManagerAdmin",
      "outputs": [
        {
          "internalType": "bool",
          "name": "",
          "type": "bool"
        }
      ],
      "stateMutability": "view",
      "type": "function"
    },
    {
      "inputs": [
        {
          "internalType": "address",
          "name": "potentialAddress",
          "type": "address"
        }
      ],
      "name": "isReactionNftAdmin",
      "outputs": [
        {
          "internalType": "bool",
          "name": "",
          "type": "bool"
        }
      ],
      "stateMutability": "view",
      "type": "function"
    },
    {
      "inputs": [
        {
          "internalType": "address",
          "name": "potentialAddress",
          "type": "address"
        }
      ],
      "name": "isSigNonceUpdater",
      "outputs": [
        {
          "internalType": "bool",
          "name": "",
          "type": "bool"
        }
      ],
      "stateMutability": "view",
      "type": "function"
    },
    {
      "inputs": [
        {
          "internalType": "bytes32",
          "name": "role",
          "type": "bytes32"
        },
        {
          "internalType": "address",
          "name": "account",
          "type": "address"
        }
      ],
      "name": "renounceRole",
      "outputs": [],
      "stateMutability": "nonpayable",
      "type": "function"
    },
    {
      "inputs": [
        {
          "internalType": "bytes32",
          "name": "role",
          "type": "bytes32"
        },
        {
          "internalType": "address",
          "name": "account",
          "type": "address"
        }
      ],
      "name": "revokeRole",
      "outputs": [],
      "stateMutability": "nonpayable",
      "type": "function"
    },
    {
      "inputs": [
        {
          "internalType": "bytes4",
          "name": "interfaceId",
          "type": "bytes4"
        }
      ],
      "name": "supportsInterface",
      "outputs": [
        {
          "internalType": "bool",
          "name": "",
          "type": "bool"
        }
      ],
      "stateMutability": "view",
      "type": "function"
    }
  ],
  "transactionHash": "0x1466ee94306532bf5249f2d49b415fd7e2267cf98f61eb8dd021894cc91f5974",
  "args": [],
  "numDeployments": 2,
  "solcInputHash": "b84b00b90490290595acf2b30cb1ae9d",
  "bytecode": "0x608060405234801561001057600080fd5b50610ccb806100206000396000f3fe608060405234801561001057600080fd5b50600436106101375760003560e01c806374bdb092116100b85780639aeb7fae1161007c5780639aeb7fae14610306578063a217fddf14610319578063c4d66de814610321578063d547741f14610334578063d9bbf6e014610347578063fbac03521461035a57600080fd5b806374bdb0921461027f578063888e81fb146102a657806389c9ff31146102b95780638e975b35146102e057806391d14854146102f357600080fd5b80632f2ff15d116100ff5780632f2ff15d146101f657806336568abe1461020b57806339d54d0c1461021e5780636d99304614610245578063722718081461025857600080fd5b806301ffc9a71461013c5780631b24de2114610164578063248a9ca31461019957806324d7806c146101bc578063294f73fb146101cf575b600080fd5b61014f61014a366004610a8d565b61036d565b60405190151581526020015b60405180910390f35b61018b7f9853b7a5924aa3ac0064e26b523f06a82e4ad6d82dd6aa8150e1575a5d3e938981565b60405190815260200161015b565b61018b6101a7366004610ab7565b60009081526065602052604090206001015490565b61014f6101ca366004610aec565b6103a4565b61018b7f138efe8f12f8282cab3476701bdff50ec2a1a9b483cc61e09a1ed9823a93fe8081565b610209610204366004610b07565b6103b0565b005b610209610219366004610b07565b6103da565b61018b7fcfe9d48ad608b4249cdca6cda16c703c7e3d0d5593d5218f4405037d156dfe1b81565b61014f610253366004610aec565b61045d565b61018b7f70716ce1e24ca391a3006db7aa251d06748c9a5057deb328bf4a5ec1b2bcb3e881565b61018b7fbee2e640df22b89914439dc9451f3cdf1883a7a6d86c005ce72f72b39cd72b0d81565b61014f6102b4366004610aec565b610489565b61018b7f185f2c1e1e9de5db535741ac6e01b1c2b8f7117899898eca852707bc55218a2781565b61014f6102ee366004610aec565b6104b5565b61014f610301366004610b07565b6104dd565b61014f610314366004610aec565b610508565b61018b600081565b61020961032f366004610aec565b610534565b610209610342366004610b07565b610698565b61014f610355366004610aec565b6106bd565b61014f610368366004610aec565b6106e9565b60006001600160e01b03198216637965db0b60e01b148061039e57506301ffc9a760e01b6001600160e01b03198316145b92915050565b600061039e81836104dd565b6000828152606560205260409020600101546103cb81610715565b6103d58383610722565b505050565b6001600160a01b038116331461044f5760405162461bcd60e51b815260206004820152602f60248201527f416363657373436f6e74726f6c3a2063616e206f6e6c792072656e6f756e636560448201526e103937b632b9903337b91039b2b63360891b60648201526084015b60405180910390fd5b61045982826107a8565b5050565b600061039e7f9853b7a5924aa3ac0064e26b523f06a82e4ad6d82dd6aa8150e1575a5d3e9389836104dd565b600061039e7fcfe9d48ad608b4249cdca6cda16c703c7e3d0d5593d5218f4405037d156dfe1b836104dd565b600061039e7f70716ce1e24ca391a3006db7aa251d06748c9a5057deb328bf4a5ec1b2bcb3e8835b60009182526065602090815260408084206001600160a01b0393909316845291905290205460ff1690565b600061039e7f185f2c1e1e9de5db535741ac6e01b1c2b8f7117899898eca852707bc55218a27836104dd565b600054610100900460ff16158080156105545750600054600160ff909116105b8061056e5750303b15801561056e575060005460ff166001145b6105d15760405162461bcd60e51b815260206004820152602e60248201527f496e697469616c697a61626c653a20636f6e747261637420697320616c72656160448201526d191e481a5b9a5d1a585b1a5e995960921b6064820152608401610446565b6000805460ff1916600117905580156105f4576000805461ff0019166101001790555b6001600160a01b03821661063c5760405162461bcd60e51b815260206004820152600f60248201526e125b9d985b1a59080c081a5b9c1d5d608a1b6044820152606401610446565b61064461080f565b61064f60008361087c565b8015610459576000805461ff0019169055604051600181527f7f26b83ff96e1f2b6a682f133852f6798a09c465da95921460cefb38474024989060200160405180910390a15050565b6000828152606560205260409020600101546106b381610715565b6103d583836107a8565b600061039e7fbee2e640df22b89914439dc9451f3cdf1883a7a6d86c005ce72f72b39cd72b0d836104dd565b600061039e7f138efe8f12f8282cab3476701bdff50ec2a1a9b483cc61e09a1ed9823a93fe80836104dd565b61071f8133610886565b50565b61072c82826104dd565b6104595760008281526065602090815260408083206001600160a01b03851684529091529020805460ff191660011790556107643390565b6001600160a01b0316816001600160a01b0316837f2f8788117e7eff1d82e926ec794901d17c78024a50270940304540a733656f0d60405160405180910390a45050565b6107b282826104dd565b156104595760008281526065602090815260408083206001600160a01b0385168085529252808320805460ff1916905551339285917ff6391f5c32d9c69d2a47ea670b442974b53935d1edc7fd64eb21e047a839171b9190a45050565b600054610100900460ff1661087a5760405162461bcd60e51b815260206004820152602b60248201527f496e697469616c697a61626c653a20636f6e7472616374206973206e6f74206960448201526a6e697469616c697a696e6760a81b6064820152608401610446565b565b6104598282610722565b61089082826104dd565b610459576108a8816001600160a01b031660146108ea565b6108b38360206108ea565b6040516020016108c4929190610b63565b60408051601f198184030181529082905262461bcd60e51b825261044691600401610bd2565b606060006108f9836002610c1b565b610904906002610c3a565b67ffffffffffffffff81111561091c5761091c610c52565b6040519080825280601f01601f191660200182016040528015610946576020820181803683370190505b509050600360fc1b8160008151811061096157610961610c68565b60200101906001600160f81b031916908160001a905350600f60fb1b8160018151811061099057610990610c68565b60200101906001600160f81b031916908160001a90535060006109b4846002610c1b565b6109bf906001610c3a565b90505b6001811115610a37576f181899199a1a9b1b9c1cb0b131b232b360811b85600f16601081106109f3576109f3610c68565b1a60f81b828281518110610a0957610a09610c68565b60200101906001600160f81b031916908160001a90535060049490941c93610a3081610c7e565b90506109c2565b508315610a865760405162461bcd60e51b815260206004820181905260248201527f537472696e67733a20686578206c656e67746820696e73756666696369656e746044820152606401610446565b9392505050565b600060208284031215610a9f57600080fd5b81356001600160e01b031981168114610a8657600080fd5b600060208284031215610ac957600080fd5b5035919050565b80356001600160a01b0381168114610ae757600080fd5b919050565b600060208284031215610afe57600080fd5b610a8682610ad0565b60008060408385031215610b1a57600080fd5b82359150610b2a60208401610ad0565b90509250929050565b60005b83811015610b4e578181015183820152602001610b36565b83811115610b5d576000848401525b50505050565b76020b1b1b2b9b9a1b7b73a3937b61d1030b1b1b7bab73a1604d1b815260008351610b95816017850160208801610b33565b7001034b99036b4b9b9b4b733903937b6329607d1b6017918401918201528351610bc6816028840160208801610b33565b01602801949350505050565b6020815260008251806020840152610bf1816040850160208701610b33565b601f01601f19169190910160400192915050565b634e487b7160e01b600052601160045260246000fd5b6000816000190483118215151615610c3557610c35610c05565b500290565b60008219821115610c4d57610c4d610c05565b500190565b634e487b7160e01b600052604160045260246000fd5b634e487b7160e01b600052603260045260246000fd5b600081610c8d57610c8d610c05565b50600019019056fea2646970667358221220b5020455a5eb2149373735a8597887c4c60021e216a854e873df141ef31a5a9364736f6c63430008090033",
  "devdoc": {
    "details": "This contract will track the roles and permissions in the RARA protocol Note: This contract is protected via a permissioned account set via the initializer.  Caution should be used as the owner could renounce the role leaving all future actions disabled.  Additionally, if a malicious account was able to obtain the role, they could use it to grant permissions to malicious accounts. See the public documentation website for more details.",
    "kind": "dev",
    "methods": {
      "getRoleAdmin(bytes32)": {
        "details": "Returns the admin role that controls `role`. See {grantRole} and {revokeRole}. To change a role's admin, use {_setRoleAdmin}."
      },
      "grantRole(bytes32,address)": {
        "details": "Grants `role` to `account`. If `account` had not been already granted `role`, emits a {RoleGranted} event. Requirements: - the caller must have ``role``'s admin role. May emit a {RoleGranted} event."
      },
      "hasRole(bytes32,address)": {
        "details": "Returns `true` if `account` has been granted `role`."
      },
      "initialize(address)": {
        "details": "initializer to call after deployment, can only be called once"
      },
      "isAddressManagerAdmin(address)": {
        "details": "Determines if the specified address has permission to udpate addresses in the protocol",
        "params": {
          "potentialAddress": "Address to check"
        }
      },
      "isAdmin(address)": {
        "details": "Determines if the specified address is the owner account",
        "params": {
          "potentialAddress": "Address to check"
        }
      },
      "isCuratorTokenAdmin(address)": {
        "details": "Determines if the specified address has permission to mint and burn curator token",
        "params": {
          "potentialAddress": "Address to check"
        }
      },
      "isCuratorVaultPurchaser(address)": {
        "details": "Determines if the specified address has permission to purchase curator vaults token",
        "params": {
          "potentialAddress": "Address to check"
        }
      },
      "isParameterManagerAdmin(address)": {
        "details": "Determines if the specified address has permission to update parameters in the protocol",
        "params": {
          "potentialAddress": "Address to check"
        }
      },
      "isReactionNftAdmin(address)": {
        "details": "Determines if the specified address has permission to to mint and burn reaction NFTs",
        "params": {
          "potentialAddress": "Address to check"
        }
      },
      "isSigNonceUpdater(address)": {
        "details": "Determines if the specified address has permission to update sigNonces",
        "params": {
          "potentialAddress": "Address to check"
        }
      },
      "renounceRole(bytes32,address)": {
        "details": "Revokes `role` from the calling account. Roles are often managed via {grantRole} and {revokeRole}: this function's purpose is to provide a mechanism for accounts to lose their privileges if they are compromised (such as when a trusted device is misplaced). If the calling account had been revoked `role`, emits a {RoleRevoked} event. Requirements: - the caller must be `account`. May emit a {RoleRevoked} event."
      },
      "revokeRole(bytes32,address)": {
        "details": "Revokes `role` from `account`. If `account` had been granted `role`, emits a {RoleRevoked} event. Requirements: - the caller must have ``role``'s admin role. May emit a {RoleRevoked} event."
      },
      "supportsInterface(bytes4)": {
        "details": "See {IERC165-supportsInterface}."
      }
    },
    "title": "RoleManager",
    "version": 1
  },
  "userdoc": {
    "kind": "user",
    "methods": {},
    "version": 1
  },
  "storageLayout": {
    "storage": [
      {
        "astId": 2446,
        "contract": "contracts/Permissions/RoleManager.sol:RoleManager",
        "label": "_initialized",
        "offset": 0,
        "slot": "0",
        "type": "t_uint8"
      },
      {
        "astId": 2449,
        "contract": "contracts/Permissions/RoleManager.sol:RoleManager",
        "label": "_initializing",
        "offset": 1,
        "slot": "0",
        "type": "t_bool"
      },
      {
        "astId": 6565,
        "contract": "contracts/Permissions/RoleManager.sol:RoleManager",
        "label": "__gap",
        "offset": 0,
        "slot": "1",
        "type": "t_array(t_uint256)50_storage"
      },
      {
        "astId": 6835,
        "contract": "contracts/Permissions/RoleManager.sol:RoleManager",
        "label": "__gap",
        "offset": 0,
        "slot": "51",
        "type": "t_array(t_uint256)50_storage"
      },
      {
        "astId": 1986,
        "contract": "contracts/Permissions/RoleManager.sol:RoleManager",
        "label": "_roles",
        "offset": 0,
        "slot": "101",
        "type": "t_mapping(t_bytes32,t_struct(RoleData)1981_storage)"
      },
      {
        "astId": 2285,
        "contract": "contracts/Permissions/RoleManager.sol:RoleManager",
        "label": "__gap",
        "offset": 0,
        "slot": "102",
        "type": "t_array(t_uint256)49_storage"
      }
    ],
    "types": {
      "t_address": {
        "encoding": "inplace",
        "label": "address",
        "numberOfBytes": "20"
      },
      "t_array(t_uint256)49_storage": {
        "base": "t_uint256",
        "encoding": "inplace",
        "label": "uint256[49]",
        "numberOfBytes": "1568"
      },
      "t_array(t_uint256)50_storage": {
        "base": "t_uint256",
        "encoding": "inplace",
        "label": "uint256[50]",
        "numberOfBytes": "1600"
      },
      "t_bool": {
        "encoding": "inplace",
        "label": "bool",
        "numberOfBytes": "1"
      },
      "t_bytes32": {
        "encoding": "inplace",
        "label": "bytes32",
        "numberOfBytes": "32"
      },
      "t_mapping(t_address,t_bool)": {
        "encoding": "mapping",
        "key": "t_address",
        "label": "mapping(address => bool)",
        "numberOfBytes": "32",
        "value": "t_bool"
      },
      "t_mapping(t_bytes32,t_struct(RoleData)1981_storage)": {
        "encoding": "mapping",
        "key": "t_bytes32",
        "label": "mapping(bytes32 => struct AccessControlUpgradeable.RoleData)",
        "numberOfBytes": "32",
        "value": "t_struct(RoleData)1981_storage"
      },
      "t_struct(RoleData)1981_storage": {
        "encoding": "inplace",
        "label": "struct AccessControlUpgradeable.RoleData",
        "members": [
          {
            "astId": 1978,
            "contract": "contracts/Permissions/RoleManager.sol:RoleManager",
            "label": "members",
            "offset": 0,
            "slot": "0",
            "type": "t_mapping(t_address,t_bool)"
          },
          {
            "astId": 1980,
            "contract": "contracts/Permissions/RoleManager.sol:RoleManager",
            "label": "adminRole",
            "offset": 0,
            "slot": "1",
            "type": "t_bytes32"
          }
        ],
        "numberOfBytes": "64"
      },
      "t_uint256": {
        "encoding": "inplace",
        "label": "uint256",
        "numberOfBytes": "32"
      },
      "t_uint8": {
        "encoding": "inplace",
        "label": "uint8",
        "numberOfBytes": "1"
      }
    }
  }
}