{
  "address": "0xb76D5090fD25C633970337b63F3A8EBa96E9f993",
  "abi": [
    {
      "anonymous": false,
      "inputs": [
        {
          "indexed": false,
          "internalType": "address",
          "name": "newAddress",
          "type": "address"
        }
      ],
      "name": "ChildRegistrarAddressUpdated",
      "type": "event"
    },
    {
      "anonymous": false,
      "inputs": [
        {
          "indexed": false,
          "internalType": "address",
          "name": "newAddress",
          "type": "address"
        }
      ],
      "name": "DefaultCuratorVaultAddressUpdated",
      "type": "event"
    },
    {
      "anonymous": false,
      "inputs": [
        {
          "indexed": false,
          "internalType": "uint8",
          "name": "version",
          "type": "uint8"
        }
      ],
      "name": "Initialized",
      "type": "event"
    },
    {
      "anonymous": false,
      "inputs": [
        {
          "indexed": false,
          "internalType": "address",
          "name": "newAddress",
          "type": "address"
        }
      ],
      "name": "MakerRegistrarAddressUpdated",
      "type": "event"
    },
    {
      "anonymous": false,
      "inputs": [
        {
          "indexed": false,
          "internalType": "address",
          "name": "newAddress",
          "type": "address"
        }
      ],
      "name": "ParameterManagerAddressUpdated",
      "type": "event"
    },
    {
      "anonymous": false,
      "inputs": [
        {
          "indexed": false,
          "internalType": "address",
          "name": "newAddress",
          "type": "address"
        }
      ],
      "name": "ReactionNftContractAddressUpdated",
      "type": "event"
    },
    {
      "anonymous": false,
      "inputs": [
        {
          "indexed": false,
          "internalType": "address",
          "name": "newAddress",
          "type": "address"
        }
      ],
      "name": "RoleManagerAddressUpdated",
      "type": "event"
    },
    {
      "anonymous": false,
      "inputs": [
        {
          "indexed": false,
          "internalType": "address",
          "name": "newAddress",
          "type": "address"
        }
      ],
      "name": "RoyaltyRegistryAddressUpdated",
      "type": "event"
    },
    {
      "inputs": [],
      "name": "childRegistrar",
      "outputs": [
        {
          "internalType": "address",
          "name": "",
          "type": "address"
        }
      ],
      "stateMutability": "view",
      "type": "function"
    },
    {
      "inputs": [],
      "name": "defaultCuratorVault",
      "outputs": [
        {
          "internalType": "contract ICuratorVault",
          "name": "",
          "type": "address"
        }
      ],
      "stateMutability": "view",
      "type": "function"
    },
    {
      "inputs": [
        {
          "internalType": "contract IRoleManager",
          "name": "_roleManager",
          "type": "address"
        }
      ],
      "name": "initialize",
      "outputs": [],
      "stateMutability": "nonpayable",
      "type": "function"
    },
    {
      "inputs": [],
      "name": "makerRegistrar",
      "outputs": [
        {
          "internalType": "contract IMakerRegistrar",
          "name": "",
          "type": "address"
        }
      ],
      "stateMutability": "view",
      "type": "function"
    },
    {
      "inputs": [],
      "name": "parameterManager",
      "outputs": [
        {
          "internalType": "contract IParameterManager",
          "name": "",
          "type": "address"
        }
      ],
      "stateMutability": "view",
      "type": "function"
    },
    {
      "inputs": [],
      "name": "reactionNftContract",
      "outputs": [
        {
          "internalType": "contract IStandard1155",
          "name": "",
          "type": "address"
        }
      ],
      "stateMutability": "view",
      "type": "function"
    },
    {
      "inputs": [],
      "name": "roleManager",
      "outputs": [
        {
          "internalType": "contract IRoleManager",
          "name": "",
          "type": "address"
        }
      ],
      "stateMutability": "view",
      "type": "function"
    },
    {
      "inputs": [],
      "name": "royaltyRegistry",
      "outputs": [
        {
          "internalType": "address",
          "name": "",
          "type": "address"
        }
      ],
      "stateMutability": "view",
      "type": "function"
    },
    {
      "inputs": [
        {
          "internalType": "address",
          "name": "_childRegistrar",
          "type": "address"
        }
      ],
      "name": "setChildRegistrar",
      "outputs": [],
      "stateMutability": "nonpayable",
      "type": "function"
    },
    {
      "inputs": [
        {
          "internalType": "contract ICuratorVault",
          "name": "_defaultCuratorVault",
          "type": "address"
        }
      ],
      "name": "setDefaultCuratorVault",
      "outputs": [],
      "stateMutability": "nonpayable",
      "type": "function"
    },
    {
      "inputs": [
        {
          "internalType": "contract IMakerRegistrar",
          "name": "_makerRegistrar",
          "type": "address"
        }
      ],
      "name": "setMakerRegistrar",
      "outputs": [],
      "stateMutability": "nonpayable",
      "type": "function"
    },
    {
      "inputs": [
        {
          "internalType": "contract IParameterManager",
          "name": "_parameterManager",
          "type": "address"
        }
      ],
      "name": "setParameterManager",
      "outputs": [],
      "stateMutability": "nonpayable",
      "type": "function"
    },
    {
      "inputs": [
        {
          "internalType": "contract IStandard1155",
          "name": "_reactionNftContract",
          "type": "address"
        }
      ],
      "name": "setReactionNftContract",
      "outputs": [],
      "stateMutability": "nonpayable",
      "type": "function"
    },
    {
      "inputs": [
        {
          "internalType": "contract IRoleManager",
          "name": "_roleManager",
          "type": "address"
        }
      ],
      "name": "setRoleManager",
      "outputs": [],
      "stateMutability": "nonpayable",
      "type": "function"
    },
    {
      "inputs": [
        {
          "internalType": "address",
          "name": "_royaltyRegistry",
          "type": "address"
        }
      ],
      "name": "setRoyaltyRegistry",
      "outputs": [],
      "stateMutability": "nonpayable",
      "type": "function"
    }
  ],
  "transactionHash": "0x5906f70dc56361b96f910252ee33b77a16859099292e69a655e310a534d06165",
  "args": [],
  "numDeployments": 1,
  "solcInputHash": "e5086af1310b7ca1d6194e2a0e3afebd",
  "bytecode": "0x608060405234801561001057600080fd5b50611bfa806100206000396000f3fe608060405234801561001057600080fd5b50600436106100f45760003560e01c806376104ad511610097578063b27bcea111610066578063b27bcea114610239578063c0dc069714610257578063c4d66de814610273578063f1d588c51461028f576100f4565b806376104ad5146101c55780637ab0a0d8146101e357806384a608e2146101ff578063a11b07121461021b576100f4565b8063363f8a65116100d3578063363f8a65146101515780635c7bdf9d1461016f5780636345b9e51461018b5780636fdfe8c5146101a7576100f4565b8062435da5146100f9578063085da3101461011757806332823e2214610135575b600080fd5b6101016102ab565b60405161010e919061151b565b60405180910390f35b61011f6102d1565b60405161012c9190611557565b60405180910390f35b61014f600480360381019061014a91906115b5565b6102f7565b005b610159610505565b6040516101669190611603565b60405180910390f35b6101896004803603810190610184919061165c565b61052b565b005b6101a560048036038101906101a091906116c7565b610739565b005b6101af610947565b6040516101bc9190611715565b60405180910390f35b6101cd61096d565b6040516101da9190611751565b60405180910390f35b6101fd60048036038101906101f891906117aa565b610993565b005b61021960048036038101906102149190611803565b610ba1565b005b610223610d28565b6040516102309190611557565b60405180910390f35b610241610d4e565b60405161024e9190611851565b60405180910390f35b610271600480360381019061026c9190611803565b610d74565b005b61028d600480360381019061028891906118aa565b610f82565b005b6102a960048036038101906102a491906118aa565b6111a3565b005b600060029054906101000a900473ffffffffffffffffffffffffffffffffffffffff1681565b600560009054906101000a900473ffffffffffffffffffffffffffffffffffffffff1681565b600060029054906101000a900473ffffffffffffffffffffffffffffffffffffffff1673ffffffffffffffffffffffffffffffffffffffff1663888e81fb336040518263ffffffff1660e01b81526004016103529190611557565b60206040518083038186803b15801561036a57600080fd5b505afa15801561037e573d6000803e3d6000fd5b505050506040513d601f19601f820116820180604052508101906103a2919061190f565b6103e1576040517f08c379a00000000000000000000000000000000000000000000000000000000081526004016103d890611999565b60405180910390fd5b600073ffffffffffffffffffffffffffffffffffffffff168173ffffffffffffffffffffffffffffffffffffffff1614156040518060400160405280600f81526020017f496e76616c6964203020696e707574000000000000000000000000000000000081525090610489576040517f08c379a00000000000000000000000000000000000000000000000000000000081526004016104809190611a41565b60405180910390fd5b5080600360006101000a81548173ffffffffffffffffffffffffffffffffffffffff021916908373ffffffffffffffffffffffffffffffffffffffff1602179055507fd54810c3e06d63f1327683c5d6138ee718e8e8f80931b67c8e89a91d82b4d85c816040516104fa9190611557565b60405180910390a150565b600260009054906101000a900473ffffffffffffffffffffffffffffffffffffffff1681565b600060029054906101000a900473ffffffffffffffffffffffffffffffffffffffff1673ffffffffffffffffffffffffffffffffffffffff1663888e81fb336040518263ffffffff1660e01b81526004016105869190611557565b60206040518083038186803b15801561059e57600080fd5b505afa1580156105b2573d6000803e3d6000fd5b505050506040513d601f19601f820116820180604052508101906105d6919061190f565b610615576040517f08c379a000000000000000000000000000000000000000000000000000000000815260040161060c90611999565b60405180910390fd5b600073ffffffffffffffffffffffffffffffffffffffff168173ffffffffffffffffffffffffffffffffffffffff1614156040518060400160405280600f81526020017f496e76616c6964203020696e7075740000000000000000000000000000000000815250906106bd576040517f08c379a00000000000000000000000000000000000000000000000000000000081526004016106b49190611a41565b60405180910390fd5b5080600260006101000a81548173ffffffffffffffffffffffffffffffffffffffff021916908373ffffffffffffffffffffffffffffffffffffffff1602179055507f173eeb4e9ab44eb875443418bb7ffb76588f582e08f232ca32871efaea8bbe4d8160405161072e9190611557565b60405180910390a150565b600060029054906101000a900473ffffffffffffffffffffffffffffffffffffffff1673ffffffffffffffffffffffffffffffffffffffff1663888e81fb336040518263ffffffff1660e01b81526004016107949190611557565b60206040518083038186803b1580156107ac57600080fd5b505afa1580156107c0573d6000803e3d6000fd5b505050506040513d601f19601f820116820180604052508101906107e4919061190f565b610823576040517f08c379a000000000000000000000000000000000000000000000000000000000815260040161081a90611999565b60405180910390fd5b600073ffffffffffffffffffffffffffffffffffffffff168173ffffffffffffffffffffffffffffffffffffffff1614156040518060400160405280600f81526020017f496e76616c6964203020696e7075740000000000000000000000000000000000815250906108cb576040517f08c379a00000000000000000000000000000000000000000000000000000000081526004016108c29190611a41565b60405180910390fd5b5080600460006101000a81548173ffffffffffffffffffffffffffffffffffffffff021916908373ffffffffffffffffffffffffffffffffffffffff1602179055507f48ffee3d1acca6256050fd4f23b086fcb8c5eaa5dc8388254cf85e54fe1f25c88160405161093c9190611557565b60405180910390a150565b600460009054906101000a900473ffffffffffffffffffffffffffffffffffffffff1681565b600360009054906101000a900473ffffffffffffffffffffffffffffffffffffffff1681565b600060029054906101000a900473ffffffffffffffffffffffffffffffffffffffff1673ffffffffffffffffffffffffffffffffffffffff1663888e81fb336040518263ffffffff1660e01b81526004016109ee9190611557565b60206040518083038186803b158015610a0657600080fd5b505afa158015610a1a573d6000803e3d6000fd5b505050506040513d601f19601f82011682018060405250810190610a3e919061190f565b610a7d576040517f08c379a0000000000000000000000000000000000000000000000000000000008152600401610a7490611999565b60405180910390fd5b600073ffffffffffffffffffffffffffffffffffffffff168173ffffffffffffffffffffffffffffffffffffffff1614156040518060400160405280600f81526020017f496e76616c6964203020696e707574000000000000000000000000000000000081525090610b25576040517f08c379a0000000000000000000000000000000000000000000000000000000008152600401610b1c9190611a41565b60405180910390fd5b5080600160006101000a81548173ffffffffffffffffffffffffffffffffffffffff021916908373ffffffffffffffffffffffffffffffffffffffff1602179055507f3ca33f53fcbf1f72afcbe5c097ac9a979793e004e71ab84d580ad6e6313d953d81604051610b969190611557565b60405180910390a150565b600060029054906101000a900473ffffffffffffffffffffffffffffffffffffffff1673ffffffffffffffffffffffffffffffffffffffff1663888e81fb336040518263ffffffff1660e01b8152600401610bfc9190611557565b60206040518083038186803b158015610c1457600080fd5b505afa158015610c28573d6000803e3d6000fd5b505050506040513d601f19601f82011682018060405250810190610c4c919061190f565b610c8b576040517f08c379a0000000000000000000000000000000000000000000000000000000008152600401610c8290611999565b60405180910390fd5b80600660006101000a81548173ffffffffffffffffffffffffffffffffffffffff021916908373ffffffffffffffffffffffffffffffffffffffff1602179055507f2bd46969b753ce8b44d5e046a713707b8caabd4204229093e8819fd2bc965449600660009054906101000a900473ffffffffffffffffffffffffffffffffffffffff16604051610d1d9190611557565b60405180910390a150565b600660009054906101000a900473ffffffffffffffffffffffffffffffffffffffff1681565b600160009054906101000a900473ffffffffffffffffffffffffffffffffffffffff1681565b600060029054906101000a900473ffffffffffffffffffffffffffffffffffffffff1673ffffffffffffffffffffffffffffffffffffffff1663888e81fb336040518263ffffffff1660e01b8152600401610dcf9190611557565b60206040518083038186803b158015610de757600080fd5b505afa158015610dfb573d6000803e3d6000fd5b505050506040513d601f19601f82011682018060405250810190610e1f919061190f565b610e5e576040517f08c379a0000000000000000000000000000000000000000000000000000000008152600401610e5590611999565b60405180910390fd5b600073ffffffffffffffffffffffffffffffffffffffff168173ffffffffffffffffffffffffffffffffffffffff1614156040518060400160405280600f81526020017f496e76616c6964203020696e707574000000000000000000000000000000000081525090610f06576040517f08c379a0000000000000000000000000000000000000000000000000000000008152600401610efd9190611a41565b60405180910390fd5b5080600560006101000a81548173ffffffffffffffffffffffffffffffffffffffff021916908373ffffffffffffffffffffffffffffffffffffffff1602179055507f991776617152e8088820560d1b451617b5cddf5d2e1c1d0885e969fa1857675381604051610f779190611557565b60405180910390a150565b60008060019054906101000a900460ff16159050808015610fb35750600160008054906101000a900460ff1660ff16105b80610fe05750610fc230611479565b158015610fdf5750600160008054906101000a900460ff1660ff16145b5b61101f576040517f08c379a000000000000000000000000000000000000000000000000000000000815260040161101690611ad5565b60405180910390fd5b60016000806101000a81548160ff021916908360ff160217905550801561105c576001600060016101000a81548160ff0219169083151502179055505b600073ffffffffffffffffffffffffffffffffffffffff168273ffffffffffffffffffffffffffffffffffffffff1614156040518060400160405280600f81526020017f496e76616c6964203020696e707574000000000000000000000000000000000081525090611104576040517f08c379a00000000000000000000000000000000000000000000000000000000081526004016110fb9190611a41565b60405180910390fd5b5081600060026101000a81548173ffffffffffffffffffffffffffffffffffffffff021916908373ffffffffffffffffffffffffffffffffffffffff160217905550801561119f5760008060016101000a81548160ff0219169083151502179055507f7f26b83ff96e1f2b6a682f133852f6798a09c465da95921460cefb384740249860016040516111969190611b3d565b60405180910390a15b5050565b600060029054906101000a900473ffffffffffffffffffffffffffffffffffffffff1673ffffffffffffffffffffffffffffffffffffffff1663888e81fb336040518263ffffffff1660e01b81526004016111fe9190611557565b60206040518083038186803b15801561121657600080fd5b505afa15801561122a573d6000803e3d6000fd5b505050506040513d601f19601f8201168201806040525081019061124e919061190f565b61128d576040517f08c379a000000000000000000000000000000000000000000000000000000000815260040161128490611999565b60405180910390fd5b600073ffffffffffffffffffffffffffffffffffffffff168173ffffffffffffffffffffffffffffffffffffffff1614156040518060400160405280600f81526020017f496e76616c6964203020696e707574000000000000000000000000000000000081525090611335576040517f08c379a000000000000000000000000000000000000000000000000000000000815260040161132c9190611a41565b60405180910390fd5b508073ffffffffffffffffffffffffffffffffffffffff166324d7806c336040518263ffffffff1660e01b815260040161136f9190611557565b60206040518083038186803b15801561138757600080fd5b505afa15801561139b573d6000803e3d6000fd5b505050506040513d601f19601f820116820180604052508101906113bf919061190f565b6113fe576040517f08c379a00000000000000000000000000000000000000000000000000000000081526004016113f590611ba4565b60405180910390fd5b80600060026101000a81548173ffffffffffffffffffffffffffffffffffffffff021916908373ffffffffffffffffffffffffffffffffffffffff1602179055507ff147991653b648d23bf29ee376dc366e380264f25c11e005b8b1310bc58955b08160405161146e9190611557565b60405180910390a150565b6000808273ffffffffffffffffffffffffffffffffffffffff163b119050919050565b600073ffffffffffffffffffffffffffffffffffffffff82169050919050565b6000819050919050565b60006114e16114dc6114d78461149c565b6114bc565b61149c565b9050919050565b60006114f3826114c6565b9050919050565b6000611505826114e8565b9050919050565b611515816114fa565b82525050565b6000602082019050611530600083018461150c565b92915050565b60006115418261149c565b9050919050565b61155181611536565b82525050565b600060208201905061156c6000830184611548565b92915050565b600080fd5b600061158282611536565b9050919050565b61159281611577565b811461159d57600080fd5b50565b6000813590506115af81611589565b92915050565b6000602082840312156115cb576115ca611572565b5b60006115d9848285016115a0565b91505092915050565b60006115ed826114e8565b9050919050565b6115fd816115e2565b82525050565b600060208201905061161860008301846115f4565b92915050565b600061162982611536565b9050919050565b6116398161161e565b811461164457600080fd5b50565b60008135905061165681611630565b92915050565b60006020828403121561167257611671611572565b5b600061168084828501611647565b91505092915050565b600061169482611536565b9050919050565b6116a481611689565b81146116af57600080fd5b50565b6000813590506116c18161169b565b92915050565b6000602082840312156116dd576116dc611572565b5b60006116eb848285016116b2565b91505092915050565b60006116ff826114e8565b9050919050565b61170f816116f4565b82525050565b600060208201905061172a6000830184611706565b92915050565b600061173b826114e8565b9050919050565b61174b81611730565b82525050565b60006020820190506117666000830184611742565b92915050565b600061177782611536565b9050919050565b6117878161176c565b811461179257600080fd5b50565b6000813590506117a48161177e565b92915050565b6000602082840312156117c0576117bf611572565b5b60006117ce84828501611795565b91505092915050565b6117e081611536565b81146117eb57600080fd5b50565b6000813590506117fd816117d7565b92915050565b60006020828403121561181957611818611572565b5b6000611827848285016117ee565b91505092915050565b600061183b826114e8565b9050919050565b61184b81611830565b82525050565b60006020820190506118666000830184611842565b92915050565b600061187782611536565b9050919050565b6118878161186c565b811461189257600080fd5b50565b6000813590506118a48161187e565b92915050565b6000602082840312156118c0576118bf611572565b5b60006118ce84828501611895565b91505092915050565b60008115159050919050565b6118ec816118d7565b81146118f757600080fd5b50565b600081519050611909816118e3565b92915050565b60006020828403121561192557611924611572565b5b6000611933848285016118fa565b91505092915050565b600082825260208201905092915050565b7f4e6f742041646d696e0000000000000000000000000000000000000000000000600082015250565b600061198360098361193c565b915061198e8261194d565b602082019050919050565b600060208201905081810360008301526119b281611976565b9050919050565b600081519050919050565b60005b838110156119e25780820151818401526020810190506119c7565b838111156119f1576000848401525b50505050565b6000601f19601f8301169050919050565b6000611a13826119b9565b611a1d818561193c565b9350611a2d8185602086016119c4565b611a36816119f7565b840191505092915050565b60006020820190508181036000830152611a5b8184611a08565b905092915050565b7f496e697469616c697a61626c653a20636f6e747261637420697320616c72656160008201527f647920696e697469616c697a6564000000000000000000000000000000000000602082015250565b6000611abf602e8361193c565b9150611aca82611a63565b604082019050919050565b60006020820190508181036000830152611aee81611ab2565b9050919050565b6000819050919050565b600060ff82169050919050565b6000611b27611b22611b1d84611af5565b6114bc565b611aff565b9050919050565b611b3781611b0c565b82525050565b6000602082019050611b526000830184611b2e565b92915050565b7f524d20696e76616c696400000000000000000000000000000000000000000000600082015250565b6000611b8e600a8361193c565b9150611b9982611b58565b602082019050919050565b60006020820190508181036000830152611bbd81611b81565b905091905056fea26469706673582212200472bbadd9575dc5db09095f35fbc715738e3c896aeaff4597c2a45422b0e43a64736f6c63430008090033",
  "devdoc": {
    "details": "Note: This contract is protected via a permissioned account set in the role manager.  Caution should be used as the role owner could renounce the role leaving all future actions disabled.  Additionally, if a malicious account was able to obtain the role, they could use it to set values to malicious addresses. See the public documentation website for more details.",
    "events": {
      "RoleManagerAddressUpdated(address)": {
        "details": "Events emitted on updates"
      }
    },
    "kind": "dev",
    "methods": {
      "initialize(address)": {
        "details": "initializer to call after deployment, can only be called once"
      },
      "setChildRegistrar(address)": {
        "details": "Setter for the L2 bridge registrar"
      },
      "setDefaultCuratorVault(address)": {
        "details": "Setter for the default curator vault address"
      },
      "setMakerRegistrar(address)": {
        "details": "Setter for the maker registrar address"
      },
      "setParameterManager(address)": {
        "details": "Setter for the role manager address"
      },
      "setReactionNftContract(address)": {
        "details": "Setter for the maker registrar address"
      },
      "setRoleManager(address)": {
        "details": "Setter for the role manager address"
      },
      "setRoyaltyRegistry(address)": {
        "details": "Setter for the address of the royalty registry"
      }
    },
    "version": 1
  },
  "userdoc": {
    "kind": "user",
    "methods": {},
    "version": 1
  },
  "storageLayout": {
    "storage": [
      {
        "astId": 2366,
        "contract": "contracts/Config/AddressManager.sol:AddressManager",
        "label": "_initialized",
        "offset": 0,
        "slot": "0",
        "type": "t_uint8"
      },
      {
        "astId": 2369,
        "contract": "contracts/Config/AddressManager.sol:AddressManager",
        "label": "_initializing",
        "offset": 1,
        "slot": "0",
        "type": "t_bool"
      },
      {
        "astId": 8412,
        "contract": "contracts/Config/AddressManager.sol:AddressManager",
        "label": "roleManager",
        "offset": 2,
        "slot": "0",
        "type": "t_contract(IRoleManager)9770"
      },
      {
        "astId": 8416,
        "contract": "contracts/Config/AddressManager.sol:AddressManager",
        "label": "parameterManager",
        "offset": 0,
        "slot": "1",
        "type": "t_contract(IParameterManager)9381"
      },
      {
        "astId": 8420,
        "contract": "contracts/Config/AddressManager.sol:AddressManager",
        "label": "makerRegistrar",
        "offset": 0,
        "slot": "2",
        "type": "t_contract(IMakerRegistrar)8751"
      },
      {
        "astId": 8424,
        "contract": "contracts/Config/AddressManager.sol:AddressManager",
        "label": "reactionNftContract",
        "offset": 0,
        "slot": "3",
        "type": "t_contract(IStandard1155)12865"
      },
      {
        "astId": 8428,
        "contract": "contracts/Config/AddressManager.sol:AddressManager",
        "label": "defaultCuratorVault",
        "offset": 0,
        "slot": "4",
        "type": "t_contract(ICuratorVault)8602"
      },
      {
        "astId": 8431,
        "contract": "contracts/Config/AddressManager.sol:AddressManager",
        "label": "childRegistrar",
        "offset": 0,
        "slot": "5",
        "type": "t_address"
      },
      {
        "astId": 8434,
        "contract": "contracts/Config/AddressManager.sol:AddressManager",
        "label": "royaltyRegistry",
        "offset": 0,
        "slot": "6",
        "type": "t_address"
      }
    ],
    "types": {
      "t_address": {
        "encoding": "inplace",
        "label": "address",
        "numberOfBytes": "20"
      },
      "t_bool": {
        "encoding": "inplace",
        "label": "bool",
        "numberOfBytes": "1"
      },
      "t_contract(ICuratorVault)8602": {
        "encoding": "inplace",
        "label": "contract ICuratorVault",
        "numberOfBytes": "20"
      },
      "t_contract(IMakerRegistrar)8751": {
        "encoding": "inplace",
        "label": "contract IMakerRegistrar",
        "numberOfBytes": "20"
      },
      "t_contract(IParameterManager)9381": {
        "encoding": "inplace",
        "label": "contract IParameterManager",
        "numberOfBytes": "20"
      },
      "t_contract(IRoleManager)9770": {
        "encoding": "inplace",
        "label": "contract IRoleManager",
        "numberOfBytes": "20"
      },
      "t_contract(IStandard1155)12865": {
        "encoding": "inplace",
        "label": "contract IStandard1155",
        "numberOfBytes": "20"
      },
      "t_uint8": {
        "encoding": "inplace",
        "label": "uint8",
        "numberOfBytes": "1"
      }
    }
  }
}