{
  "address": "0x8940522aF61FeDA91632aad25d952629e71a720e",
  "abi": [
    {
      "inputs": [],
      "name": "childRegistrar",
      "outputs": [
        {
          "internalType": "address",
          "name": "",
          "type": "address"
        }
      ],
      "stateMutability": "view",
      "type": "function"
    },
    {
      "inputs": [],
      "name": "defaultCuratorVault",
      "outputs": [
        {
          "internalType": "contract ICuratorVault",
          "name": "",
          "type": "address"
        }
      ],
      "stateMutability": "view",
      "type": "function"
    },
    {
      "inputs": [
        {
          "internalType": "contract IRoleManager",
          "name": "_roleManager",
          "type": "address"
        }
      ],
      "name": "initialize",
      "outputs": [],
      "stateMutability": "nonpayable",
      "type": "function"
    },
    {
      "inputs": [],
      "name": "makerRegistrar",
      "outputs": [
        {
          "internalType": "contract IMakerRegistrar",
          "name": "",
          "type": "address"
        }
      ],
      "stateMutability": "view",
      "type": "function"
    },
    {
      "inputs": [],
      "name": "parameterManager",
      "outputs": [
        {
          "internalType": "contract IParameterManager",
          "name": "",
          "type": "address"
        }
      ],
      "stateMutability": "view",
      "type": "function"
    },
    {
      "inputs": [],
      "name": "reactionNftContract",
      "outputs": [
        {
          "internalType": "contract IStandard1155",
          "name": "",
          "type": "address"
        }
      ],
      "stateMutability": "view",
      "type": "function"
    },
    {
      "inputs": [],
      "name": "roleManager",
      "outputs": [
        {
          "internalType": "contract IRoleManager",
          "name": "",
          "type": "address"
        }
      ],
      "stateMutability": "view",
      "type": "function"
    },
    {
      "inputs": [
        {
          "internalType": "address",
          "name": "_childRegistrar",
          "type": "address"
        }
      ],
      "name": "setChildRegistrar",
      "outputs": [],
      "stateMutability": "nonpayable",
      "type": "function"
    },
    {
      "inputs": [
        {
          "internalType": "contract ICuratorVault",
          "name": "_defaultCuratorVault",
          "type": "address"
        }
      ],
      "name": "setDefaultCuratorVault",
      "outputs": [],
      "stateMutability": "nonpayable",
      "type": "function"
    },
    {
      "inputs": [
        {
          "internalType": "contract IMakerRegistrar",
          "name": "_makerRegistrar",
          "type": "address"
        }
      ],
      "name": "setMakerRegistrar",
      "outputs": [],
      "stateMutability": "nonpayable",
      "type": "function"
    },
    {
      "inputs": [
        {
          "internalType": "contract IParameterManager",
          "name": "_parameterManager",
          "type": "address"
        }
      ],
      "name": "setParameterManager",
      "outputs": [],
      "stateMutability": "nonpayable",
      "type": "function"
    },
    {
      "inputs": [
        {
          "internalType": "contract IStandard1155",
          "name": "_reactionNftContract",
          "type": "address"
        }
      ],
      "name": "setReactionNftContract",
      "outputs": [],
      "stateMutability": "nonpayable",
      "type": "function"
    },
    {
      "inputs": [
        {
          "internalType": "contract IRoleManager",
          "name": "_roleManager",
          "type": "address"
        }
      ],
      "name": "setRoleManager",
      "outputs": [],
      "stateMutability": "nonpayable",
      "type": "function"
    }
  ],
  "transactionHash": "0x36059c0984e04e3872d0d45e87c7608c42d2dedb4e908d84aa000b8b2ab600f9",
  "args": [],
  "numDeployments": 1,
  "solcInputHash": "0aa2446dfdd461104da7fca84166983e",
  "bytecode": "0x608060405234801561001057600080fd5b506117ff806100206000396000f3fe608060405234801561001057600080fd5b50600436106100ce5760003560e01c80636fdfe8c51161008c578063b27bcea111610066578063b27bcea1146101d9578063c0dc0697146101f7578063c4d66de814610213578063f1d588c51461022f576100ce565b80636fdfe8c51461018157806376104ad51461019f5780637ab0a0d8146101bd576100ce565b8062435da5146100d3578063085da310146100f157806332823e221461010f578063363f8a651461012b5780635c7bdf9d146101495780636345b9e514610165575b600080fd5b6100db61024b565b6040516100e89190611183565b60405180910390f35b6100f9610271565b60405161010691906111bf565b60405180910390f35b6101296004803603810190610124919061121d565b610297565b005b61013361046e565b604051610140919061126b565b60405180910390f35b610163600480360381019061015e91906112c4565b610494565b005b61017f600480360381019061017a919061132f565b61066b565b005b610189610842565b604051610196919061137d565b60405180910390f35b6101a7610868565b6040516101b491906113b9565b60405180910390f35b6101d760048036038101906101d29190611412565b61088e565b005b6101e1610a65565b6040516101ee9190611460565b60405180910390f35b610211600480360381019061020c91906114a7565b610a8b565b005b61022d60048036038101906102289190611512565b610c62565b005b61024960048036038101906102449190611512565b610e31565b005b600060029054906101000a900473ffffffffffffffffffffffffffffffffffffffff1681565b600560009054906101000a900473ffffffffffffffffffffffffffffffffffffffff1681565b600060029054906101000a900473ffffffffffffffffffffffffffffffffffffffff1673ffffffffffffffffffffffffffffffffffffffff1663888e81fb336040518263ffffffff1660e01b81526004016102f291906111bf565b60206040518083038186803b15801561030a57600080fd5b505afa15801561031e573d6000803e3d6000fd5b505050506040513d601f19601f820116820180604052508101906103429190611577565b610381576040517f08c379a000000000000000000000000000000000000000000000000000000000815260040161037890611601565b60405180910390fd5b600073ffffffffffffffffffffffffffffffffffffffff168173ffffffffffffffffffffffffffffffffffffffff1614156040518060400160405280600f81526020017f496e76616c6964203020696e707574000000000000000000000000000000000081525090610429576040517f08c379a000000000000000000000000000000000000000000000000000000000815260040161042091906116a9565b60405180910390fd5b5080600360006101000a81548173ffffffffffffffffffffffffffffffffffffffff021916908373ffffffffffffffffffffffffffffffffffffffff16021790555050565b600260009054906101000a900473ffffffffffffffffffffffffffffffffffffffff1681565b600060029054906101000a900473ffffffffffffffffffffffffffffffffffffffff1673ffffffffffffffffffffffffffffffffffffffff1663888e81fb336040518263ffffffff1660e01b81526004016104ef91906111bf565b60206040518083038186803b15801561050757600080fd5b505afa15801561051b573d6000803e3d6000fd5b505050506040513d601f19601f8201168201806040525081019061053f9190611577565b61057e576040517f08c379a000000000000000000000000000000000000000000000000000000000815260040161057590611601565b60405180910390fd5b600073ffffffffffffffffffffffffffffffffffffffff168173ffffffffffffffffffffffffffffffffffffffff1614156040518060400160405280600f81526020017f496e76616c6964203020696e707574000000000000000000000000000000000081525090610626576040517f08c379a000000000000000000000000000000000000000000000000000000000815260040161061d91906116a9565b60405180910390fd5b5080600260006101000a81548173ffffffffffffffffffffffffffffffffffffffff021916908373ffffffffffffffffffffffffffffffffffffffff16021790555050565b600060029054906101000a900473ffffffffffffffffffffffffffffffffffffffff1673ffffffffffffffffffffffffffffffffffffffff1663888e81fb336040518263ffffffff1660e01b81526004016106c691906111bf565b60206040518083038186803b1580156106de57600080fd5b505afa1580156106f2573d6000803e3d6000fd5b505050506040513d601f19601f820116820180604052508101906107169190611577565b610755576040517f08c379a000000000000000000000000000000000000000000000000000000000815260040161074c90611601565b60405180910390fd5b600073ffffffffffffffffffffffffffffffffffffffff168173ffffffffffffffffffffffffffffffffffffffff1614156040518060400160405280600f81526020017f496e76616c6964203020696e7075740000000000000000000000000000000000815250906107fd576040517f08c379a00000000000000000000000000000000000000000000000000000000081526004016107f491906116a9565b60405180910390fd5b5080600460006101000a81548173ffffffffffffffffffffffffffffffffffffffff021916908373ffffffffffffffffffffffffffffffffffffffff16021790555050565b600460009054906101000a900473ffffffffffffffffffffffffffffffffffffffff1681565b600360009054906101000a900473ffffffffffffffffffffffffffffffffffffffff1681565b600060029054906101000a900473ffffffffffffffffffffffffffffffffffffffff1673ffffffffffffffffffffffffffffffffffffffff1663888e81fb336040518263ffffffff1660e01b81526004016108e991906111bf565b60206040518083038186803b15801561090157600080fd5b505afa158015610915573d6000803e3d6000fd5b505050506040513d601f19601f820116820180604052508101906109399190611577565b610978576040517f08c379a000000000000000000000000000000000000000000000000000000000815260040161096f90611601565b60405180910390fd5b600073ffffffffffffffffffffffffffffffffffffffff168173ffffffffffffffffffffffffffffffffffffffff1614156040518060400160405280600f81526020017f496e76616c6964203020696e707574000000000000000000000000000000000081525090610a20576040517f08c379a0000000000000000000000000000000000000000000000000000000008152600401610a1791906116a9565b60405180910390fd5b5080600160006101000a81548173ffffffffffffffffffffffffffffffffffffffff021916908373ffffffffffffffffffffffffffffffffffffffff16021790555050565b600160009054906101000a900473ffffffffffffffffffffffffffffffffffffffff1681565b600060029054906101000a900473ffffffffffffffffffffffffffffffffffffffff1673ffffffffffffffffffffffffffffffffffffffff1663888e81fb336040518263ffffffff1660e01b8152600401610ae691906111bf565b60206040518083038186803b158015610afe57600080fd5b505afa158015610b12573d6000803e3d6000fd5b505050506040513d601f19601f82011682018060405250810190610b369190611577565b610b75576040517f08c379a0000000000000000000000000000000000000000000000000000000008152600401610b6c90611601565b60405180910390fd5b600073ffffffffffffffffffffffffffffffffffffffff168173ffffffffffffffffffffffffffffffffffffffff1614156040518060400160405280600f81526020017f496e76616c6964203020696e707574000000000000000000000000000000000081525090610c1d576040517f08c379a0000000000000000000000000000000000000000000000000000000008152600401610c1491906116a9565b60405180910390fd5b5080600560006101000a81548173ffffffffffffffffffffffffffffffffffffffff021916908373ffffffffffffffffffffffffffffffffffffffff16021790555050565b600060019054906101000a900460ff16610c8a5760008054906101000a900460ff1615610c93565b610c926110d0565b5b610cd2576040517f08c379a0000000000000000000000000000000000000000000000000000000008152600401610cc99061173d565b60405180910390fd5b60008060019054906101000a900460ff161590508015610d22576001600060016101000a81548160ff02191690831515021790555060016000806101000a81548160ff0219169083151502179055505b600073ffffffffffffffffffffffffffffffffffffffff168273ffffffffffffffffffffffffffffffffffffffff1614156040518060400160405280600f81526020017f496e76616c6964203020696e707574000000000000000000000000000000000081525090610dca576040517f08c379a0000000000000000000000000000000000000000000000000000000008152600401610dc191906116a9565b60405180910390fd5b5081600060026101000a81548173ffffffffffffffffffffffffffffffffffffffff021916908373ffffffffffffffffffffffffffffffffffffffff1602179055508015610e2d5760008060016101000a81548160ff0219169083151502179055505b5050565b600060029054906101000a900473ffffffffffffffffffffffffffffffffffffffff1673ffffffffffffffffffffffffffffffffffffffff1663888e81fb336040518263ffffffff1660e01b8152600401610e8c91906111bf565b60206040518083038186803b158015610ea457600080fd5b505afa158015610eb8573d6000803e3d6000fd5b505050506040513d601f19601f82011682018060405250810190610edc9190611577565b610f1b576040517f08c379a0000000000000000000000000000000000000000000000000000000008152600401610f1290611601565b60405180910390fd5b600073ffffffffffffffffffffffffffffffffffffffff168173ffffffffffffffffffffffffffffffffffffffff1614156040518060400160405280600f81526020017f496e76616c6964203020696e707574000000000000000000000000000000000081525090610fc3576040517f08c379a0000000000000000000000000000000000000000000000000000000008152600401610fba91906116a9565b60405180910390fd5b508073ffffffffffffffffffffffffffffffffffffffff166324d7806c336040518263ffffffff1660e01b8152600401610ffd91906111bf565b60206040518083038186803b15801561101557600080fd5b505afa158015611029573d6000803e3d6000fd5b505050506040513d601f19601f8201168201806040525081019061104d9190611577565b61108c576040517f08c379a0000000000000000000000000000000000000000000000000000000008152600401611083906117a9565b60405180910390fd5b80600060026101000a81548173ffffffffffffffffffffffffffffffffffffffff021916908373ffffffffffffffffffffffffffffffffffffffff16021790555050565b60006110db306110e1565b15905090565b6000808273ffffffffffffffffffffffffffffffffffffffff163b119050919050565b600073ffffffffffffffffffffffffffffffffffffffff82169050919050565b6000819050919050565b600061114961114461113f84611104565b611124565b611104565b9050919050565b600061115b8261112e565b9050919050565b600061116d82611150565b9050919050565b61117d81611162565b82525050565b60006020820190506111986000830184611174565b92915050565b60006111a982611104565b9050919050565b6111b98161119e565b82525050565b60006020820190506111d460008301846111b0565b92915050565b600080fd5b60006111ea8261119e565b9050919050565b6111fa816111df565b811461120557600080fd5b50565b600081359050611217816111f1565b92915050565b600060208284031215611233576112326111da565b5b600061124184828501611208565b91505092915050565b600061125582611150565b9050919050565b6112658161124a565b82525050565b6000602082019050611280600083018461125c565b92915050565b60006112918261119e565b9050919050565b6112a181611286565b81146112ac57600080fd5b50565b6000813590506112be81611298565b92915050565b6000602082840312156112da576112d96111da565b5b60006112e8848285016112af565b91505092915050565b60006112fc8261119e565b9050919050565b61130c816112f1565b811461131757600080fd5b50565b60008135905061132981611303565b92915050565b600060208284031215611345576113446111da565b5b60006113538482850161131a565b91505092915050565b600061136782611150565b9050919050565b6113778161135c565b82525050565b6000602082019050611392600083018461136e565b92915050565b60006113a382611150565b9050919050565b6113b381611398565b82525050565b60006020820190506113ce60008301846113aa565b92915050565b60006113df8261119e565b9050919050565b6113ef816113d4565b81146113fa57600080fd5b50565b60008135905061140c816113e6565b92915050565b600060208284031215611428576114276111da565b5b6000611436848285016113fd565b91505092915050565b600061144a82611150565b9050919050565b61145a8161143f565b82525050565b60006020820190506114756000830184611451565b92915050565b6114848161119e565b811461148f57600080fd5b50565b6000813590506114a18161147b565b92915050565b6000602082840312156114bd576114bc6111da565b5b60006114cb84828501611492565b91505092915050565b60006114df8261119e565b9050919050565b6114ef816114d4565b81146114fa57600080fd5b50565b60008135905061150c816114e6565b92915050565b600060208284031215611528576115276111da565b5b6000611536848285016114fd565b91505092915050565b60008115159050919050565b6115548161153f565b811461155f57600080fd5b50565b6000815190506115718161154b565b92915050565b60006020828403121561158d5761158c6111da565b5b600061159b84828501611562565b91505092915050565b600082825260208201905092915050565b7f4e6f742041646d696e0000000000000000000000000000000000000000000000600082015250565b60006115eb6009836115a4565b91506115f6826115b5565b602082019050919050565b6000602082019050818103600083015261161a816115de565b9050919050565b600081519050919050565b60005b8381101561164a57808201518184015260208101905061162f565b83811115611659576000848401525b50505050565b6000601f19601f8301169050919050565b600061167b82611621565b61168581856115a4565b935061169581856020860161162c565b61169e8161165f565b840191505092915050565b600060208201905081810360008301526116c38184611670565b905092915050565b7f496e697469616c697a61626c653a20636f6e747261637420697320616c72656160008201527f647920696e697469616c697a6564000000000000000000000000000000000000602082015250565b6000611727602e836115a4565b9150611732826116cb565b604082019050919050565b600060208201905081810360008301526117568161171a565b9050919050565b7f524d20696e76616c696400000000000000000000000000000000000000000000600082015250565b6000611793600a836115a4565b915061179e8261175d565b602082019050919050565b600060208201905081810360008301526117c281611786565b905091905056fea26469706673582212203b6c3dc179bf75d02ed6120e792e4982c33e7ce955b3d88cce4ca93d78051df164736f6c63430008090033",
  "devdoc": {
    "kind": "dev",
    "methods": {
      "initialize(address)": {
        "details": "initializer to call after deployment, can only be called once"
      },
      "setChildRegistrar(address)": {
        "details": "Setter for the L2 bridge registrar"
      },
      "setDefaultCuratorVault(address)": {
        "details": "Setter for the default curator vault address"
      },
      "setMakerRegistrar(address)": {
        "details": "Setter for the maker registrar address"
      },
      "setParameterManager(address)": {
        "details": "Setter for the role manager address"
      },
      "setReactionNftContract(address)": {
        "details": "Setter for the maker registrar address"
      },
      "setRoleManager(address)": {
        "details": "Setter for the role manager address"
      }
    },
    "version": 1
  },
  "userdoc": {
    "kind": "user",
    "methods": {},
    "version": 1
  },
  "storageLayout": {
    "storage": [
      {
        "astId": 2797,
        "contract": "contracts/Config/AddressManager.sol:AddressManager",
        "label": "_initialized",
        "offset": 0,
        "slot": "0",
        "type": "t_bool"
      },
      {
        "astId": 2800,
        "contract": "contracts/Config/AddressManager.sol:AddressManager",
        "label": "_initializing",
        "offset": 1,
        "slot": "0",
        "type": "t_bool"
      },
      {
        "astId": 7440,
        "contract": "contracts/Config/AddressManager.sol:AddressManager",
        "label": "roleManager",
        "offset": 2,
        "slot": "0",
        "type": "t_contract(IRoleManager)8741"
      },
      {
        "astId": 7444,
        "contract": "contracts/Config/AddressManager.sol:AddressManager",
        "label": "parameterManager",
        "offset": 0,
        "slot": "1",
        "type": "t_contract(IParameterManager)8416"
      },
      {
        "astId": 7448,
        "contract": "contracts/Config/AddressManager.sol:AddressManager",
        "label": "makerRegistrar",
        "offset": 0,
        "slot": "2",
        "type": "t_contract(IMakerRegistrar)7765"
      },
      {
        "astId": 7452,
        "contract": "contracts/Config/AddressManager.sol:AddressManager",
        "label": "reactionNftContract",
        "offset": 0,
        "slot": "3",
        "type": "t_contract(IStandard1155)11442"
      },
      {
        "astId": 7456,
        "contract": "contracts/Config/AddressManager.sol:AddressManager",
        "label": "defaultCuratorVault",
        "offset": 0,
        "slot": "4",
        "type": "t_contract(ICuratorVault)7615"
      },
      {
        "astId": 7459,
        "contract": "contracts/Config/AddressManager.sol:AddressManager",
        "label": "childRegistrar",
        "offset": 0,
        "slot": "5",
        "type": "t_address"
      }
    ],
    "types": {
      "t_address": {
        "encoding": "inplace",
        "label": "address",
        "numberOfBytes": "20"
      },
      "t_bool": {
        "encoding": "inplace",
        "label": "bool",
        "numberOfBytes": "1"
      },
      "t_contract(ICuratorVault)7615": {
        "encoding": "inplace",
        "label": "contract ICuratorVault",
        "numberOfBytes": "20"
      },
      "t_contract(IMakerRegistrar)7765": {
        "encoding": "inplace",
        "label": "contract IMakerRegistrar",
        "numberOfBytes": "20"
      },
      "t_contract(IParameterManager)8416": {
        "encoding": "inplace",
        "label": "contract IParameterManager",
        "numberOfBytes": "20"
      },
      "t_contract(IRoleManager)8741": {
        "encoding": "inplace",
        "label": "contract IRoleManager",
        "numberOfBytes": "20"
      },
      "t_contract(IStandard1155)11442": {
        "encoding": "inplace",
        "label": "contract IStandard1155",
        "numberOfBytes": "20"
      }
    }
  }
}