{
  "address": "0x6a64e7E4a2248657d50D10f5bEe9c4D7Cb1E88ba",
  "abi": [
    {
      "anonymous": false,
      "inputs": [
        {
          "indexed": false,
          "internalType": "address",
          "name": "newAddress",
          "type": "address"
        }
      ],
      "name": "ChildRegistrarAddressUpdated",
      "type": "event"
    },
    {
      "anonymous": false,
      "inputs": [
        {
          "indexed": false,
          "internalType": "address",
          "name": "newAddress",
          "type": "address"
        }
      ],
      "name": "DefaultCuratorVaultAddressUpdated",
      "type": "event"
    },
    {
      "anonymous": false,
      "inputs": [
        {
          "indexed": false,
          "internalType": "address",
          "name": "newAddress",
          "type": "address"
        }
      ],
      "name": "LikeTokenFactoryAddressUpdated",
      "type": "event"
    },
    {
      "anonymous": false,
      "inputs": [
        {
          "indexed": false,
          "internalType": "address",
          "name": "newAddress",
          "type": "address"
        }
      ],
      "name": "MakerRegistrarAddressUpdated",
      "type": "event"
    },
    {
      "anonymous": false,
      "inputs": [
        {
          "indexed": false,
          "internalType": "address",
          "name": "newAddress",
          "type": "address"
        }
      ],
      "name": "ParameterManagerAddressUpdated",
      "type": "event"
    },
    {
      "anonymous": false,
      "inputs": [
        {
          "indexed": false,
          "internalType": "address",
          "name": "newAddress",
          "type": "address"
        }
      ],
      "name": "ReactionNftContractAddressUpdated",
      "type": "event"
    },
    {
      "anonymous": false,
      "inputs": [
        {
          "indexed": false,
          "internalType": "address",
          "name": "newAddress",
          "type": "address"
        }
      ],
      "name": "RoleManagerAddressUpdated",
      "type": "event"
    },
    {
      "anonymous": false,
      "inputs": [
        {
          "indexed": false,
          "internalType": "address",
          "name": "newAddress",
          "type": "address"
        }
      ],
      "name": "RoyaltyRegistryAddressUpdated",
      "type": "event"
    },
    {
      "inputs": [],
      "name": "childRegistrar",
      "outputs": [
        {
          "internalType": "address",
          "name": "",
          "type": "address"
        }
      ],
      "stateMutability": "view",
      "type": "function"
    },
    {
      "inputs": [],
      "name": "defaultCuratorVault",
      "outputs": [
        {
          "internalType": "contract ICuratorVault",
          "name": "",
          "type": "address"
        }
      ],
      "stateMutability": "view",
      "type": "function"
    },
    {
      "inputs": [
        {
          "internalType": "contract IRoleManager",
          "name": "_roleManager",
          "type": "address"
        }
      ],
      "name": "initialize",
      "outputs": [],
      "stateMutability": "nonpayable",
      "type": "function"
    },
    {
      "inputs": [],
      "name": "likeTokenFactory",
      "outputs": [
        {
          "internalType": "address",
          "name": "",
          "type": "address"
        }
      ],
      "stateMutability": "view",
      "type": "function"
    },
    {
      "inputs": [],
      "name": "makerRegistrar",
      "outputs": [
        {
          "internalType": "contract IMakerRegistrar",
          "name": "",
          "type": "address"
        }
      ],
      "stateMutability": "view",
      "type": "function"
    },
    {
      "inputs": [],
      "name": "parameterManager",
      "outputs": [
        {
          "internalType": "contract IParameterManager",
          "name": "",
          "type": "address"
        }
      ],
      "stateMutability": "view",
      "type": "function"
    },
    {
      "inputs": [],
      "name": "reactionNftContract",
      "outputs": [
        {
          "internalType": "contract IStandard1155",
          "name": "",
          "type": "address"
        }
      ],
      "stateMutability": "view",
      "type": "function"
    },
    {
      "inputs": [],
      "name": "roleManager",
      "outputs": [
        {
          "internalType": "contract IRoleManager",
          "name": "",
          "type": "address"
        }
      ],
      "stateMutability": "view",
      "type": "function"
    },
    {
      "inputs": [],
      "name": "royaltyRegistry",
      "outputs": [
        {
          "internalType": "address",
          "name": "",
          "type": "address"
        }
      ],
      "stateMutability": "view",
      "type": "function"
    },
    {
      "inputs": [
        {
          "internalType": "address",
          "name": "_childRegistrar",
          "type": "address"
        }
      ],
      "name": "setChildRegistrar",
      "outputs": [],
      "stateMutability": "nonpayable",
      "type": "function"
    },
    {
      "inputs": [
        {
          "internalType": "contract ICuratorVault",
          "name": "_defaultCuratorVault",
          "type": "address"
        }
      ],
      "name": "setDefaultCuratorVault",
      "outputs": [],
      "stateMutability": "nonpayable",
      "type": "function"
    },
    {
      "inputs": [
        {
          "internalType": "address",
          "name": "_likeTokenFactory",
          "type": "address"
        }
      ],
      "name": "setLikeTokenFactory",
      "outputs": [],
      "stateMutability": "nonpayable",
      "type": "function"
    },
    {
      "inputs": [
        {
          "internalType": "contract IMakerRegistrar",
          "name": "_makerRegistrar",
          "type": "address"
        }
      ],
      "name": "setMakerRegistrar",
      "outputs": [],
      "stateMutability": "nonpayable",
      "type": "function"
    },
    {
      "inputs": [
        {
          "internalType": "contract IParameterManager",
          "name": "_parameterManager",
          "type": "address"
        }
      ],
      "name": "setParameterManager",
      "outputs": [],
      "stateMutability": "nonpayable",
      "type": "function"
    },
    {
      "inputs": [
        {
          "internalType": "contract IStandard1155",
          "name": "_reactionNftContract",
          "type": "address"
        }
      ],
      "name": "setReactionNftContract",
      "outputs": [],
      "stateMutability": "nonpayable",
      "type": "function"
    },
    {
      "inputs": [
        {
          "internalType": "contract IRoleManager",
          "name": "_roleManager",
          "type": "address"
        }
      ],
      "name": "setRoleManager",
      "outputs": [],
      "stateMutability": "nonpayable",
      "type": "function"
    },
    {
      "inputs": [
        {
          "internalType": "address",
          "name": "_royaltyRegistry",
          "type": "address"
        }
      ],
      "name": "setRoyaltyRegistry",
      "outputs": [],
      "stateMutability": "nonpayable",
      "type": "function"
    }
  ],
  "transactionHash": "0x7bcbff0b9f4b7e6c81337fc2c9d514b01229eda023080edac780f98915bb61f6",
  "args": [],
  "numDeployments": 2,
  "solcInputHash": "c5133092ee888b5b6431f6825032026e",
  "bytecode": "0x608060405234801561001057600080fd5b50610e9c806100206000396000f3fe608060405234801561001057600080fd5b50600436106100ea5760003560e01c806376104ad51161009257806376104ad5146101a55780637ab0a0d8146101b857806384a608e2146101cb5780639971f8b5146101de578063a11b0712146101f1578063b27bcea114610204578063c0dc069714610217578063c4d66de81461022a578063f1d588c51461023d57600080fd5b8062435da5146100ef578063085da3101461011e57806332823e2214610131578063363f8a65146101465780635c7bdf9d146101595780636345b9e51461016c5780636c9a9a0e1461017f5780636fdfe8c514610192575b600080fd5b600054610108906201000090046001600160a01b031681565b6040516101159190610d7c565b60405180910390f35b600554610108906001600160a01b031681565b61014461013f366004610da8565b610250565b005b600254610108906001600160a01b031681565b610144610167366004610da8565b61039e565b61014461017a366004610da8565b6104d8565b61014461018d366004610da8565b610612565b600454610108906001600160a01b031681565b600354610108906001600160a01b031681565b6101446101c6366004610da8565b6106ff565b6101446101d9366004610da8565b610839565b600754610108906001600160a01b031681565b600654610108906001600160a01b031681565b600154610108906001600160a01b031681565b610144610225366004610da8565b610926565b610144610238366004610da8565b610a60565b61014461024b366004610da8565b610b8a565b60005460405163888e81fb60e01b8152620100009091046001600160a01b03169063888e81fb90610285903390600401610d7c565b60206040518083038186803b15801561029d57600080fd5b505afa1580156102b1573d6000803e3d6000fd5b505050506040513d601f19601f820116820180604052508101906102d59190610dcc565b6102fa5760405162461bcd60e51b81526004016102f190610dee565b60405180910390fd5b60408051808201909152600f81526e125b9d985b1a59080c081a5b9c1d5d608a1b60208201526001600160a01b0382166103475760405162461bcd60e51b81526004016102f19190610e11565b50600380546001600160a01b0319166001600160a01b0383161790556040517fd54810c3e06d63f1327683c5d6138ee718e8e8f80931b67c8e89a91d82b4d85c90610393908390610d7c565b60405180910390a150565b60005460405163888e81fb60e01b8152620100009091046001600160a01b03169063888e81fb906103d3903390600401610d7c565b60206040518083038186803b1580156103eb57600080fd5b505afa1580156103ff573d6000803e3d6000fd5b505050506040513d601f19601f820116820180604052508101906104239190610dcc565b61043f5760405162461bcd60e51b81526004016102f190610dee565b60408051808201909152600f81526e125b9d985b1a59080c081a5b9c1d5d608a1b60208201526001600160a01b03821661048c5760405162461bcd60e51b81526004016102f19190610e11565b50600280546001600160a01b0319166001600160a01b0383161790556040517f173eeb4e9ab44eb875443418bb7ffb76588f582e08f232ca32871efaea8bbe4d90610393908390610d7c565b60005460405163888e81fb60e01b8152620100009091046001600160a01b03169063888e81fb9061050d903390600401610d7c565b60206040518083038186803b15801561052557600080fd5b505afa158015610539573d6000803e3d6000fd5b505050506040513d601f19601f8201168201806040525081019061055d9190610dcc565b6105795760405162461bcd60e51b81526004016102f190610dee565b60408051808201909152600f81526e125b9d985b1a59080c081a5b9c1d5d608a1b60208201526001600160a01b0382166105c65760405162461bcd60e51b81526004016102f19190610e11565b50600480546001600160a01b0319166001600160a01b0383161790556040517f48ffee3d1acca6256050fd4f23b086fcb8c5eaa5dc8388254cf85e54fe1f25c890610393908390610d7c565b60005460405163888e81fb60e01b8152620100009091046001600160a01b03169063888e81fb90610647903390600401610d7c565b60206040518083038186803b15801561065f57600080fd5b505afa158015610673573d6000803e3d6000fd5b505050506040513d601f19601f820116820180604052508101906106979190610dcc565b6106b35760405162461bcd60e51b81526004016102f190610dee565b600780546001600160a01b0319166001600160a01b0383169081179091556040517f056567443fff3c30a17df7b7a2a09f00d3f8d1984bd7d80bc0c6bd6767a323f29161039391610d7c565b60005460405163888e81fb60e01b8152620100009091046001600160a01b03169063888e81fb90610734903390600401610d7c565b60206040518083038186803b15801561074c57600080fd5b505afa158015610760573d6000803e3d6000fd5b505050506040513d601f19601f820116820180604052508101906107849190610dcc565b6107a05760405162461bcd60e51b81526004016102f190610dee565b60408051808201909152600f81526e125b9d985b1a59080c081a5b9c1d5d608a1b60208201526001600160a01b0382166107ed5760405162461bcd60e51b81526004016102f19190610e11565b50600180546001600160a01b0319166001600160a01b0383161790556040517f3ca33f53fcbf1f72afcbe5c097ac9a979793e004e71ab84d580ad6e6313d953d90610393908390610d7c565b60005460405163888e81fb60e01b8152620100009091046001600160a01b03169063888e81fb9061086e903390600401610d7c565b60206040518083038186803b15801561088657600080fd5b505afa15801561089a573d6000803e3d6000fd5b505050506040513d601f19601f820116820180604052508101906108be9190610dcc565b6108da5760405162461bcd60e51b81526004016102f190610dee565b600680546001600160a01b0319166001600160a01b0383169081179091556040517f2bd46969b753ce8b44d5e046a713707b8caabd4204229093e8819fd2bc9654499161039391610d7c565b60005460405163888e81fb60e01b8152620100009091046001600160a01b03169063888e81fb9061095b903390600401610d7c565b60206040518083038186803b15801561097357600080fd5b505afa158015610987573d6000803e3d6000fd5b505050506040513d601f19601f820116820180604052508101906109ab9190610dcc565b6109c75760405162461bcd60e51b81526004016102f190610dee565b60408051808201909152600f81526e125b9d985b1a59080c081a5b9c1d5d608a1b60208201526001600160a01b038216610a145760405162461bcd60e51b81526004016102f19190610e11565b50600580546001600160a01b0319166001600160a01b0383161790556040517f991776617152e8088820560d1b451617b5cddf5d2e1c1d0885e969fa1857675390610393908390610d7c565b600054610100900460ff16610a7b5760005460ff1615610a7f565b303b155b610ae25760405162461bcd60e51b815260206004820152602e60248201527f496e697469616c697a61626c653a20636f6e747261637420697320616c72656160448201526d191e481a5b9a5d1a585b1a5e995960921b60648201526084016102f1565b600054610100900460ff16158015610b04576000805461ffff19166101011790555b60408051808201909152600f81526e125b9d985b1a59080c081a5b9c1d5d608a1b60208201526001600160a01b038316610b515760405162461bcd60e51b81526004016102f19190610e11565b506000805462010000600160b01b031916620100006001600160a01b038516021790558015610b86576000805461ff00191690555b5050565b60005460405163888e81fb60e01b8152620100009091046001600160a01b03169063888e81fb90610bbf903390600401610d7c565b60206040518083038186803b158015610bd757600080fd5b505afa158015610beb573d6000803e3d6000fd5b505050506040513d601f19601f82011682018060405250810190610c0f9190610dcc565b610c2b5760405162461bcd60e51b81526004016102f190610dee565b60408051808201909152600f81526e125b9d985b1a59080c081a5b9c1d5d608a1b60208201526001600160a01b038216610c785760405162461bcd60e51b81526004016102f19190610e11565b50604051630935e01b60e21b81526001600160a01b038216906324d7806c90610ca5903390600401610d7c565b60206040518083038186803b158015610cbd57600080fd5b505afa158015610cd1573d6000803e3d6000fd5b505050506040513d601f19601f82011682018060405250810190610cf59190610dcc565b610d2e5760405162461bcd60e51b815260206004820152600a6024820152691493481a5b9d985b1a5960b21b60448201526064016102f1565b6000805462010000600160b01b031916620100006001600160a01b038416021790556040517ff147991653b648d23bf29ee376dc366e380264f25c11e005b8b1310bc58955b0906103939083905b6001600160a01b0391909116815260200190565b6001600160a01b0381168114610da557600080fd5b50565b600060208284031215610dba57600080fd5b8135610dc581610d90565b9392505050565b600060208284031215610dde57600080fd5b81518015158114610dc557600080fd5b6020808252600990820152682737ba1020b236b4b760b91b604082015260600190565b600060208083528351808285015260005b81811015610e3e57858101830151858201604001528201610e22565b81811115610e50576000604083870101525b50601f01601f191692909201604001939250505056fea2646970667358221220de448aa585028998e3d35972f7a34f20f674898367c634b7eb8c56f28467f43364736f6c63430008090033",
  "devdoc": {
    "details": "Note: This contract is protected via a permissioned account set in the role manager.  Caution should be used as the role owner could renounce the role leaving all future actions disabled.  Additionally, if a malicious account was able to obtain the role, they could use it to set values to malicious addresses. See the public documentation website for more details.",
    "events": {
      "RoleManagerAddressUpdated(address)": {
        "details": "Events emitted on updates"
      }
    },
    "kind": "dev",
    "methods": {
      "initialize(address)": {
        "details": "initializer to call after deployment, can only be called once"
      },
      "setChildRegistrar(address)": {
        "details": "Setter for the L2 bridge registrar"
      },
      "setDefaultCuratorVault(address)": {
        "details": "Setter for the default curator vault address"
      },
      "setLikeTokenFactory(address)": {
        "details": "Setter for the address of the Like Token Factory"
      },
      "setMakerRegistrar(address)": {
        "details": "Setter for the maker registrar address"
      },
      "setParameterManager(address)": {
        "details": "Setter for the role manager address"
      },
      "setReactionNftContract(address)": {
        "details": "Setter for the maker registrar address"
      },
      "setRoleManager(address)": {
        "details": "Setter for the role manager address"
      },
      "setRoyaltyRegistry(address)": {
        "details": "Setter for the address of the royalty registry"
      }
    },
    "version": 1
  },
  "userdoc": {
    "kind": "user",
    "methods": {},
    "version": 1
  },
  "storageLayout": {
    "storage": [
      {
        "astId": 2435,
        "contract": "contracts/Config/AddressManager.sol:AddressManager",
        "label": "_initialized",
        "offset": 0,
        "slot": "0",
        "type": "t_bool"
      },
      {
        "astId": 2438,
        "contract": "contracts/Config/AddressManager.sol:AddressManager",
        "label": "_initializing",
        "offset": 1,
        "slot": "0",
        "type": "t_bool"
      },
      {
        "astId": 8183,
        "contract": "contracts/Config/AddressManager.sol:AddressManager",
        "label": "roleManager",
        "offset": 2,
        "slot": "0",
        "type": "t_contract(IRoleManager)10176"
      },
      {
        "astId": 8187,
        "contract": "contracts/Config/AddressManager.sol:AddressManager",
        "label": "parameterManager",
        "offset": 0,
        "slot": "1",
        "type": "t_contract(IParameterManager)9712"
      },
      {
        "astId": 8191,
        "contract": "contracts/Config/AddressManager.sol:AddressManager",
        "label": "makerRegistrar",
        "offset": 0,
        "slot": "2",
        "type": "t_contract(IMakerRegistrar)9056"
      },
      {
        "astId": 8195,
        "contract": "contracts/Config/AddressManager.sol:AddressManager",
        "label": "reactionNftContract",
        "offset": 0,
        "slot": "3",
        "type": "t_contract(IStandard1155)13706"
      },
      {
        "astId": 8199,
        "contract": "contracts/Config/AddressManager.sol:AddressManager",
        "label": "defaultCuratorVault",
        "offset": 0,
        "slot": "4",
        "type": "t_contract(ICuratorVault)8392"
      },
      {
        "astId": 8202,
        "contract": "contracts/Config/AddressManager.sol:AddressManager",
        "label": "childRegistrar",
        "offset": 0,
        "slot": "5",
        "type": "t_address"
      },
      {
        "astId": 8205,
        "contract": "contracts/Config/AddressManager.sol:AddressManager",
        "label": "royaltyRegistry",
        "offset": 0,
        "slot": "6",
        "type": "t_address"
      },
      {
        "astId": 8212,
        "contract": "contracts/Config/AddressManager.sol:AddressManager",
        "label": "likeTokenFactory",
        "offset": 0,
        "slot": "7",
        "type": "t_address"
      }
    ],
    "types": {
      "t_address": {
        "encoding": "inplace",
        "label": "address",
        "numberOfBytes": "20"
      },
      "t_bool": {
        "encoding": "inplace",
        "label": "bool",
        "numberOfBytes": "1"
      },
      "t_contract(ICuratorVault)8392": {
        "encoding": "inplace",
        "label": "contract ICuratorVault",
        "numberOfBytes": "20"
      },
      "t_contract(IMakerRegistrar)9056": {
        "encoding": "inplace",
        "label": "contract IMakerRegistrar",
        "numberOfBytes": "20"
      },
      "t_contract(IParameterManager)9712": {
        "encoding": "inplace",
        "label": "contract IParameterManager",
        "numberOfBytes": "20"
      },
      "t_contract(IRoleManager)10176": {
        "encoding": "inplace",
        "label": "contract IRoleManager",
        "numberOfBytes": "20"
      },
      "t_contract(IStandard1155)13706": {
        "encoding": "inplace",
        "label": "contract IStandard1155",
        "numberOfBytes": "20"
      }
    }
  }
}