{
  "address": "0x10F892F9e8A2Bb0C098457e2ae74a3863A723703",
  "abi": [
    {
      "inputs": [
        {
          "internalType": "address",
          "name": "_fxChild",
          "type": "address"
        },
        {
          "internalType": "contract IAddressManager",
          "name": "_addressManager",
          "type": "address"
        }
      ],
      "stateMutability": "nonpayable",
      "type": "constructor"
    },
    {
      "anonymous": false,
      "inputs": [
        {
          "indexed": false,
          "internalType": "bytes",
          "name": "message",
          "type": "bytes"
        }
      ],
      "name": "MessageSent",
      "type": "event"
    },
    {
      "inputs": [],
      "name": "DE_REGISTER",
      "outputs": [
        {
          "internalType": "bytes32",
          "name": "",
          "type": "bytes32"
        }
      ],
      "stateMutability": "view",
      "type": "function"
    },
    {
      "inputs": [],
      "name": "REGISTER",
      "outputs": [
        {
          "internalType": "bytes32",
          "name": "",
          "type": "bytes32"
        }
      ],
      "stateMutability": "view",
      "type": "function"
    },
    {
      "inputs": [],
      "name": "addressManager",
      "outputs": [
        {
          "internalType": "contract IAddressManager",
          "name": "",
          "type": "address"
        }
      ],
      "stateMutability": "view",
      "type": "function"
    },
    {
      "inputs": [],
      "name": "fxChild",
      "outputs": [
        {
          "internalType": "address",
          "name": "",
          "type": "address"
        }
      ],
      "stateMutability": "view",
      "type": "function"
    },
    {
      "inputs": [],
      "name": "fxRootTunnel",
      "outputs": [
        {
          "internalType": "address",
          "name": "",
          "type": "address"
        }
      ],
      "stateMutability": "view",
      "type": "function"
    },
    {
      "inputs": [
        {
          "internalType": "uint256",
          "name": "stateId",
          "type": "uint256"
        },
        {
          "internalType": "address",
          "name": "rootMessageSender",
          "type": "address"
        },
        {
          "internalType": "bytes",
          "name": "data",
          "type": "bytes"
        }
      ],
      "name": "processMessageFromRoot",
      "outputs": [],
      "stateMutability": "nonpayable",
      "type": "function"
    },
    {
      "inputs": [
        {
          "internalType": "address",
          "name": "_fxRootTunnel",
          "type": "address"
        }
      ],
      "name": "setFxRootTunnel",
      "outputs": [],
      "stateMutability": "nonpayable",
      "type": "function"
    }
  ],
  "transactionHash": "0x037dbc3060f7a15603dc1981565018395d6da5f5043a8777601aae28b48f2bd1",
  "args": [
    "0xCf73231F28B7331BBe3124B907840A94851f9f11",
    "0x56b97055FEc20E4c244Bb3C0200956f4F9558ed3"
  ],
  "numDeployments": 1,
  "solcInputHash": "0aa2446dfdd461104da7fca84166983e",
  "bytecode": "0x60806040523480156200001157600080fd5b506040516200140538038062001405833981810160405281019062000037919062000171565b81806000806101000a81548173ffffffffffffffffffffffffffffffffffffffff021916908373ffffffffffffffffffffffffffffffffffffffff1602179055505080600260006101000a81548173ffffffffffffffffffffffffffffffffffffffff021916908373ffffffffffffffffffffffffffffffffffffffff1602179055505050620001b8565b600080fd5b600073ffffffffffffffffffffffffffffffffffffffff82169050919050565b6000620000f482620000c7565b9050919050565b6200010681620000e7565b81146200011257600080fd5b50565b6000815190506200012681620000fb565b92915050565b60006200013982620000e7565b9050919050565b6200014b816200012c565b81146200015757600080fd5b50565b6000815190506200016b8162000140565b92915050565b600080604083850312156200018b576200018a620000c2565b5b60006200019b8582860162000115565b9250506020620001ae858286016200015a565b9150509250929050565b61123d80620001c86000396000f3fe608060405234801561001057600080fd5b506004361061007d5760003560e01c80637f1e9cb01161005b5780637f1e9cb0146100dc57806388837094146100fa5780639a7c4b7114610116578063e8a28dd7146101325761007d565b806310325264146100825780633ab76e9f146100a0578063450d11f0146100be575b600080fd5b61008a610150565b60405161009791906107c5565b60405180910390f35b6100a8610174565b6040516100b5919061085f565b60405180910390f35b6100c661019a565b6040516100d3919061089b565b60405180910390f35b6100e46101be565b6040516100f1919061089b565b60405180910390f35b610114600480360381019061010f91906108f6565b6101e4565b005b610130600480360381019061012b91906109be565b6102b9565b005b61013a61039c565b60405161014791906107c5565b60405180910390f35b7ff98aef635801dfa470eae0492dd6a267cc7e32661957109ef6316bfd8bea371e81565b600260009054906101000a900473ffffffffffffffffffffffffffffffffffffffff1681565b60008054906101000a900473ffffffffffffffffffffffffffffffffffffffff1681565b600160009054906101000a900473ffffffffffffffffffffffffffffffffffffffff1681565b600073ffffffffffffffffffffffffffffffffffffffff16600160009054906101000a900473ffffffffffffffffffffffffffffffffffffffff1673ffffffffffffffffffffffffffffffffffffffff1614610275576040517f08c379a000000000000000000000000000000000000000000000000000000000815260040161026c90610ab5565b60405180910390fd5b80600160006101000a81548173ffffffffffffffffffffffffffffffffffffffff021916908373ffffffffffffffffffffffffffffffffffffffff16021790555050565b60008054906101000a900473ffffffffffffffffffffffffffffffffffffffff1673ffffffffffffffffffffffffffffffffffffffff163373ffffffffffffffffffffffffffffffffffffffff1614610347576040517f08c379a000000000000000000000000000000000000000000000000000000000815260040161033e90610b47565b60405180910390fd5b610396848484848080601f016020809104026020016040519081016040528093929190818152602001838380828437600081840152601f19601f820116905080830192505050505050506103c0565b50505050565b7f58cc5acb742fd5eb9df21407aed105abca7d37584645d014636aa13c7b7bc38781565b81600160009054906101000a900473ffffffffffffffffffffffffffffffffffffffff1673ffffffffffffffffffffffffffffffffffffffff168173ffffffffffffffffffffffffffffffffffffffff1614610451576040517f08c379a000000000000000000000000000000000000000000000000000000000815260040161044890610bd9565b60405180910390fd5b600080838060200190518101906104689190610d8a565b915091507f58cc5acb742fd5eb9df21407aed105abca7d37584645d014636aa13c7b7bc3878214156104a25761049d8161051c565b610514565b7ff98aef635801dfa470eae0492dd6a267cc7e32661957109ef6316bfd8bea371e8214156104d8576104d381610671565b610513565b6040517f08c379a000000000000000000000000000000000000000000000000000000000815260040161050a90610e32565b60405180910390fd5b5b505050505050565b6000806000806000806000808880602001905181019061053c9190610f46565b97509750975097509750975097509750600260009054906101000a900473ffffffffffffffffffffffffffffffffffffffff1673ffffffffffffffffffffffffffffffffffffffff1663363f8a656040518163ffffffff1660e01b8152600401602060405180830381600087803b1580156105b657600080fd5b505af11580156105ca573d6000803e3d6000fd5b505050506040513d601f19601f820116820180604052508101906105ee9190611056565b73ffffffffffffffffffffffffffffffffffffffff166343f6c17e89898989898989896040518963ffffffff1660e01b81526004016106349897969594939291906110d6565b600060405180830381600087803b15801561064e57600080fd5b505af1158015610662573d6000803e3d6000fd5b50505050505050505050505050565b6000806000808480602001905181019061068b919061115b565b9350935093509350600260009054906101000a900473ffffffffffffffffffffffffffffffffffffffff1673ffffffffffffffffffffffffffffffffffffffff1663363f8a656040518163ffffffff1660e01b8152600401602060405180830381600087803b1580156106fd57600080fd5b505af1158015610711573d6000803e3d6000fd5b505050506040513d601f19601f820116820180604052508101906107359190611056565b73ffffffffffffffffffffffffffffffffffffffff1663fb9b92bc858585856040518563ffffffff1660e01b815260040161077394939291906111c2565b600060405180830381600087803b15801561078d57600080fd5b505af11580156107a1573d6000803e3d6000fd5b505050505050505050565b6000819050919050565b6107bf816107ac565b82525050565b60006020820190506107da60008301846107b6565b92915050565b600073ffffffffffffffffffffffffffffffffffffffff82169050919050565b6000819050919050565b600061082561082061081b846107e0565b610800565b6107e0565b9050919050565b60006108378261080a565b9050919050565b60006108498261082c565b9050919050565b6108598161083e565b82525050565b60006020820190506108746000830184610850565b92915050565b6000610885826107e0565b9050919050565b6108958161087a565b82525050565b60006020820190506108b0600083018461088c565b92915050565b6000604051905090565b600080fd5b600080fd5b6108d38161087a565b81146108de57600080fd5b50565b6000813590506108f0816108ca565b92915050565b60006020828403121561090c5761090b6108c0565b5b600061091a848285016108e1565b91505092915050565b6000819050919050565b61093681610923565b811461094157600080fd5b50565b6000813590506109538161092d565b92915050565b600080fd5b600080fd5b600080fd5b60008083601f84011261097e5761097d610959565b5b8235905067ffffffffffffffff81111561099b5761099a61095e565b5b6020830191508360018202830111156109b7576109b6610963565b5b9250929050565b600080600080606085870312156109d8576109d76108c0565b5b60006109e687828801610944565b94505060206109f7878288016108e1565b935050604085013567ffffffffffffffff811115610a1857610a176108c5565b5b610a2487828801610968565b925092505092959194509250565b600082825260208201905092915050565b7f4678426173654368696c6454756e6e656c3a20524f4f545f54554e4e454c5f4160008201527f4c52454144595f53455400000000000000000000000000000000000000000000602082015250565b6000610a9f602a83610a32565b9150610aaa82610a43565b604082019050919050565b60006020820190508181036000830152610ace81610a92565b9050919050565b7f4678426173654368696c6454756e6e656c3a20494e56414c49445f53454e444560008201527f5200000000000000000000000000000000000000000000000000000000000000602082015250565b6000610b31602183610a32565b9150610b3c82610ad5565b604082019050919050565b60006020820190508181036000830152610b6081610b24565b9050919050565b7f4678426173654368696c6454756e6e656c3a20494e56414c49445f53454e444560008201527f525f46524f4d5f524f4f54000000000000000000000000000000000000000000602082015250565b6000610bc3602b83610a32565b9150610bce82610b67565b604082019050919050565b60006020820190508181036000830152610bf281610bb6565b9050919050565b610c02816107ac565b8114610c0d57600080fd5b50565b600081519050610c1f81610bf9565b92915050565b600080fd5b6000601f19601f8301169050919050565b7f4e487b7100000000000000000000000000000000000000000000000000000000600052604160045260246000fd5b610c7382610c2a565b810181811067ffffffffffffffff82111715610c9257610c91610c3b565b5b80604052505050565b6000610ca56108b6565b9050610cb18282610c6a565b919050565b600067ffffffffffffffff821115610cd157610cd0610c3b565b5b610cda82610c2a565b9050602081019050919050565b60005b83811015610d05578082015181840152602081019050610cea565b83811115610d14576000848401525b50505050565b6000610d2d610d2884610cb6565b610c9b565b905082815260208101848484011115610d4957610d48610c25565b5b610d54848285610ce7565b509392505050565b600082601f830112610d7157610d70610959565b5b8151610d81848260208601610d1a565b91505092915050565b60008060408385031215610da157610da06108c0565b5b6000610daf85828601610c10565b925050602083015167ffffffffffffffff811115610dd057610dcf6108c5565b5b610ddc85828601610d5c565b9150509250929050565b7f455252204d534700000000000000000000000000000000000000000000000000600082015250565b6000610e1c600783610a32565b9150610e2782610de6565b602082019050919050565b60006020820190508181036000830152610e4b81610e0f565b9050919050565b6000610e5d826107e0565b9050919050565b610e6d81610e52565b8114610e7857600080fd5b50565b600081519050610e8a81610e64565b92915050565b600081519050610e9f8161092d565b92915050565b600067ffffffffffffffff821115610ec057610ebf610c3b565b5b610ec982610c2a565b9050602081019050919050565b6000610ee9610ee484610ea5565b610c9b565b905082815260208101848484011115610f0557610f04610c25565b5b610f10848285610ce7565b509392505050565b600082601f830112610f2d57610f2c610959565b5b8151610f3d848260208601610ed6565b91505092915050565b600080600080600080600080610100898b031215610f6757610f666108c0565b5b6000610f758b828c01610e7b565b9850506020610f868b828c01610e90565b9750506040610f978b828c01610e7b565b9650506060610fa88b828c01610e90565b9550506080610fb98b828c01610e7b565b94505060a0610fca8b828c01610e90565b93505060c0610fdb8b828c01610e90565b92505060e089015167ffffffffffffffff811115610ffc57610ffb6108c5565b5b6110088b828c01610f18565b9150509295985092959890939650565b60006110238261087a565b9050919050565b61103381611018565b811461103e57600080fd5b50565b6000815190506110508161102a565b92915050565b60006020828403121561106c5761106b6108c0565b5b600061107a84828501611041565b91505092915050565b61108c81610923565b82525050565b600081519050919050565b60006110a882611092565b6110b28185610a32565b93506110c2818560208601610ce7565b6110cb81610c2a565b840191505092915050565b6000610100820190506110ec600083018b61088c565b6110f9602083018a611083565b611106604083018961088c565b6111136060830188611083565b611120608083018761088c565b61112d60a0830186611083565b61113a60c0830185611083565b81810360e083015261114c818461109d565b90509998505050505050505050565b60008060008060808587031215611175576111746108c0565b5b600061118387828801610e7b565b945050602061119487828801610e90565b93505060406111a587828801610e7b565b92505060606111b687828801610e90565b91505092959194509250565b60006080820190506111d7600083018761088c565b6111e46020830186611083565b6111f1604083018561088c565b6111fe6060830184611083565b9594505050505056fea2646970667358221220d968caf4639e371f781acbb5d11ef784d76922203993e02ed50b4681fbb1195164736f6c63430008090033",
  "devdoc": {
    "details": "This contract lives on the L2 and receives messages from the L1 to register and unregister NFTs on the L1 chain. This is not an upgradeable contract and should not be used with a proxy.",
    "kind": "dev",
    "methods": {
      "constructor": {
        "details": "After deployment you must call setFxRootTunnel() with the RootRegistrar Address on the L1.",
        "params": {
          "_addressManager": "- This is the address manager on the protocol",
          "_fxChild": "- This is the contract deployed on the L2 that will be sending messages here. This is a well known deployed contract that Matic has set up."
        }
      }
    },
    "stateVariables": {
      "addressManager": {
        "details": "local reference to the address manager contract"
      }
    },
    "version": 1
  },
  "userdoc": {
    "kind": "user",
    "methods": {},
    "version": 1
  },
  "storageLayout": {
    "storage": [
      {
        "astId": 1928,
        "contract": "contracts/Bridge/ChildRegistrar.sol:ChildRegistrar",
        "label": "fxChild",
        "offset": 0,
        "slot": "0",
        "type": "t_address"
      },
      {
        "astId": 1930,
        "contract": "contracts/Bridge/ChildRegistrar.sol:ChildRegistrar",
        "label": "fxRootTunnel",
        "offset": 0,
        "slot": "1",
        "type": "t_address"
      },
      {
        "astId": 6901,
        "contract": "contracts/Bridge/ChildRegistrar.sol:ChildRegistrar",
        "label": "addressManager",
        "offset": 0,
        "slot": "2",
        "type": "t_contract(IAddressManager)7551"
      }
    ],
    "types": {
      "t_address": {
        "encoding": "inplace",
        "label": "address",
        "numberOfBytes": "20"
      },
      "t_contract(IAddressManager)7551": {
        "encoding": "inplace",
        "label": "contract IAddressManager",
        "numberOfBytes": "20"
      }
    }
  }
}