{
  "address": "0xee68B2a50BE3262122088cD067b9f2817C4230B2",
  "abi": [
    {
      "inputs": [
        {
          "internalType": "address",
          "name": "_fxChild",
          "type": "address"
        },
        {
          "internalType": "contract IAddressManager",
          "name": "_addressManager",
          "type": "address"
        }
      ],
      "stateMutability": "nonpayable",
      "type": "constructor"
    },
    {
      "anonymous": false,
      "inputs": [
        {
          "indexed": false,
          "internalType": "bytes",
          "name": "message",
          "type": "bytes"
        }
      ],
      "name": "MessageSent",
      "type": "event"
    },
    {
      "inputs": [],
      "name": "DE_REGISTER",
      "outputs": [
        {
          "internalType": "bytes32",
          "name": "",
          "type": "bytes32"
        }
      ],
      "stateMutability": "view",
      "type": "function"
    },
    {
      "inputs": [],
      "name": "REGISTER",
      "outputs": [
        {
          "internalType": "bytes32",
          "name": "",
          "type": "bytes32"
        }
      ],
      "stateMutability": "view",
      "type": "function"
    },
    {
      "inputs": [],
      "name": "addressManager",
      "outputs": [
        {
          "internalType": "contract IAddressManager",
          "name": "",
          "type": "address"
        }
      ],
      "stateMutability": "view",
      "type": "function"
    },
    {
      "inputs": [],
      "name": "deployer",
      "outputs": [
        {
          "internalType": "address",
          "name": "",
          "type": "address"
        }
      ],
      "stateMutability": "view",
      "type": "function"
    },
    {
      "inputs": [],
      "name": "fxChild",
      "outputs": [
        {
          "internalType": "address",
          "name": "",
          "type": "address"
        }
      ],
      "stateMutability": "view",
      "type": "function"
    },
    {
      "inputs": [],
      "name": "fxRootTunnel",
      "outputs": [
        {
          "internalType": "address",
          "name": "",
          "type": "address"
        }
      ],
      "stateMutability": "view",
      "type": "function"
    },
    {
      "inputs": [
        {
          "internalType": "uint256",
          "name": "stateId",
          "type": "uint256"
        },
        {
          "internalType": "address",
          "name": "rootMessageSender",
          "type": "address"
        },
        {
          "internalType": "bytes",
          "name": "data",
          "type": "bytes"
        }
      ],
      "name": "processMessageFromRoot",
      "outputs": [],
      "stateMutability": "nonpayable",
      "type": "function"
    },
    {
      "inputs": [
        {
          "internalType": "address",
          "name": "_fxRootTunnel",
          "type": "address"
        }
      ],
      "name": "setFxRootTunnel",
      "outputs": [],
      "stateMutability": "nonpayable",
      "type": "function"
    }
  ],
  "transactionHash": "0x0f926bc0e9f9ca49f1bdf343c86e005c5dd4463c22b3b85d11382a9eb4f84bb6",
  "args": [
    "0xCf73231F28B7331BBe3124B907840A94851f9f11",
    "0x66C3752f87A867De5747ac49ED54326Db3Ca8604"
  ],
  "numDeployments": 1,
  "solcInputHash": "c483293f20911aec6d7b5b1bd97849ba",
  "bytecode": "0x608060405234801561001057600080fd5b50604051610c91380380610c9183398101604081905261002f91610088565b600080546001600160a01b039384166001600160a01b03199182161790915560028054929093169181169190911790915560038054909116331790556100c2565b6001600160a01b038116811461008557600080fd5b50565b6000806040838503121561009b57600080fd5b82516100a681610070565b60208401519092506100b781610070565b809150509250929050565b610bc0806100d16000396000f3fe608060405234801561001057600080fd5b50600436106100785760003560e01c8063103252641461007d5780633ab76e9f146100b7578063450d11f0146100e25780637f1e9cb0146100f557806388837094146101085780639a7c4b711461011d578063d5f3948814610130578063e8a28dd714610143575b600080fd5b6100a47ff98aef635801dfa470eae0492dd6a267cc7e32661957109ef6316bfd8bea371e81565b6040519081526020015b60405180910390f35b6002546100ca906001600160a01b031681565b6040516001600160a01b0390911681526020016100ae565b6000546100ca906001600160a01b031681565b6001546100ca906001600160a01b031681565b61011b610116366004610666565b61016a565b005b61011b61012b36600461068a565b610222565b6003546100ca906001600160a01b031681565b6100a47f58cc5acb742fd5eb9df21407aed105abca7d37584645d014636aa13c7b7bc38781565b6003546001600160a01b031633146101b95760405162461bcd60e51b815260206004820152600d60248201526c27b7363c903232b83637bcb2b960991b60448201526064015b60405180910390fd5b6001546001600160a01b0316156102005760405162461bcd60e51b815260206004820152600b60248201526a105b1c9958591e481cd95d60aa1b60448201526064016101b0565b600180546001600160a01b0319166001600160a01b0392909216919091179055565b6000546001600160a01b031633146102865760405162461bcd60e51b815260206004820152602160248201527f4678426173654368696c6454756e6e656c3a20494e56414c49445f53454e44456044820152602960f91b60648201526084016101b0565b6102c7848484848080601f0160208091040260200160405190810160405280939291908181526020018383808284376000920191909152506102cd92505050565b50505050565b60015482906001600160a01b038083169116146103405760405162461bcd60e51b815260206004820152602b60248201527f4678426173654368696c6454756e6e656c3a20494e56414c49445f53454e444560448201526a1497d19493d357d493d3d560aa1b60648201526084016101b0565b6000808380602001905181019061035791906107d5565b915091507f58cc5acb742fd5eb9df21407aed105abca7d37584645d014636aa13c7b7bc3878214156103915761038c816103fc565b6103f4565b7ff98aef635801dfa470eae0492dd6a267cc7e32661957109ef6316bfd8bea371e8214156103c25761038c8161052a565b60405162461bcd60e51b8152602060048201526007602482015266455252204d534760c81b60448201526064016101b0565b505050505050565b6000806000806000806000808880602001905181019061041c9190610953565b97509750975097509750975097509750600260009054906101000a90046001600160a01b03166001600160a01b031663363f8a656040518163ffffffff1660e01b8152600401602060405180830381600087803b15801561047c57600080fd5b505af1158015610490573d6000803e3d6000fd5b505050506040513d601f19601f820116820180604052508101906104b49190610a1a565b6001600160a01b031663edad684a89898989898989896040518963ffffffff1660e01b81526004016104ed989796959493929190610a9e565b600060405180830381600087803b15801561050757600080fd5b505af115801561051b573d6000803e3d6000fd5b50505050505050505050505050565b600080600080848060200190518101906105449190610b41565b9350935093509350600260009054906101000a90046001600160a01b03166001600160a01b031663363f8a656040518163ffffffff1660e01b8152600401602060405180830381600087803b15801561059c57600080fd5b505af11580156105b0573d6000803e3d6000fd5b505050506040513d601f19601f820116820180604052508101906105d49190610a1a565b604051633ee6e4af60e21b81526001600160a01b03868116600483015260248201869052848116604483015260648201849052919091169063fb9b92bc90608401600060405180830381600087803b15801561062f57600080fd5b505af1158015610643573d6000803e3d6000fd5b505050505050505050565b6001600160a01b038116811461066357600080fd5b50565b60006020828403121561067857600080fd5b81356106838161064e565b9392505050565b600080600080606085870312156106a057600080fd5b8435935060208501356106b28161064e565b9250604085013567ffffffffffffffff808211156106cf57600080fd5b818701915087601f8301126106e357600080fd5b8135818111156106f257600080fd5b88602082850101111561070457600080fd5b95989497505060200194505050565b634e487b7160e01b600052604160045260246000fd5b604051601f8201601f1916810167ffffffffffffffff8111828210171561075257610752610713565b604052919050565b60005b8381101561077557818101518382015260200161075d565b838111156102c75750506000910152565b600067ffffffffffffffff8311156107a0576107a0610713565b6107b3601f8401601f1916602001610729565b90508281528383830111156107c757600080fd5b61068383602083018461075a565b600080604083850312156107e857600080fd5b82519150602083015167ffffffffffffffff81111561080657600080fd5b8301601f8101851361081757600080fd5b61082685825160208401610786565b9150509250929050565b805161083b8161064e565b919050565b600067ffffffffffffffff82111561085a5761085a610713565b5060051b60200190565b600082601f83011261087557600080fd5b8151602061088a61088583610840565b610729565b82815260059290921b840181019181810190868411156108a957600080fd5b8286015b848110156108cd5780516108c08161064e565b83529183019183016108ad565b509695505050505050565b600082601f8301126108e957600080fd5b815160206108f961088583610840565b82815260059290921b8401810191818101908684111561091857600080fd5b8286015b848110156108cd578051835291830191830161091c565b600082601f83011261094457600080fd5b61068383835160208501610786565b600080600080600080600080610100898b03121561097057600080fd5b61097989610830565b97506020890151965061098e60408a01610830565b955060608901519450608089015167ffffffffffffffff808211156109b257600080fd5b6109be8c838d01610864565b955060a08b01519150808211156109d457600080fd5b6109e08c838d016108d8565b945060c08b0151935060e08b01519150808211156109fd57600080fd5b50610a0a8b828c01610933565b9150509295985092959890939650565b600060208284031215610a2c57600080fd5b81516106838161064e565b600081518084526020808501945080840160005b83811015610a6757815187529582019590820190600101610a4b565b509495945050505050565b60008151808452610a8a81602086016020860161075a565b601f01601f19169290920160200192915050565b6001600160a01b03898116825260208083018a905288821660408401526060830188905261010060808401819052875190840181905260009261012085019289810192855b81811015610b01578451841686529482019493820193600101610ae3565b505050505082810360a0840152610b188187610a37565b90508460c084015282810360e0840152610b328185610a72565b9b9a5050505050505050505050565b60008060008060808587031215610b5757600080fd5b8451610b628161064e565b602086015160408701519195509350610b7a8161064e565b606095909501519396929550505056fea2646970667358221220c1aa37fdb7dded851f66a4583fe44cc14d44fb63bf99ba90d5846102e9c5320364736f6c63430008090033",
  "devdoc": {
    "details": "This contract lives on the L2 and receives messages from the L1 to register and unregister NFTs on the L1 chain. This is not an upgradeable contract and should not be used with a proxy.",
    "kind": "dev",
    "methods": {
      "constructor": {
        "details": "After deployment you must call setFxRootTunnel() with the RootRegistrar Address on the L1.",
        "params": {
          "_addressManager": "- This is the address manager on the protocol",
          "_fxChild": "- This is the contract deployed on the L2 that will be sending messages here. This is a well known deployed contract that Matic has set up."
        }
      },
      "setFxRootTunnel(address)": {
        "details": "Set fxRootTunnel if not set already Only the deploying account can update this Overrides the function in the base contract"
      }
    },
    "stateVariables": {
      "addressManager": {
        "details": "local reference to the address manager contract"
      },
      "deployer": {
        "details": "the address that deployed this contract is the only one that can update the fxRootTunnel"
      }
    },
    "version": 1
  },
  "userdoc": {
    "kind": "user",
    "methods": {},
    "version": 1
  },
  "storageLayout": {
    "storage": [
      {
        "astId": 7508,
        "contract": "contracts/Bridge/ChildRegistrar.sol:ChildRegistrar",
        "label": "fxChild",
        "offset": 0,
        "slot": "0",
        "type": "t_address"
      },
      {
        "astId": 7510,
        "contract": "contracts/Bridge/ChildRegistrar.sol:ChildRegistrar",
        "label": "fxRootTunnel",
        "offset": 0,
        "slot": "1",
        "type": "t_address"
      },
      {
        "astId": 7274,
        "contract": "contracts/Bridge/ChildRegistrar.sol:ChildRegistrar",
        "label": "addressManager",
        "offset": 0,
        "slot": "2",
        "type": "t_contract(IAddressManager)8658"
      },
      {
        "astId": 7277,
        "contract": "contracts/Bridge/ChildRegistrar.sol:ChildRegistrar",
        "label": "deployer",
        "offset": 0,
        "slot": "3",
        "type": "t_address"
      }
    ],
    "types": {
      "t_address": {
        "encoding": "inplace",
        "label": "address",
        "numberOfBytes": "20"
      },
      "t_contract(IAddressManager)8658": {
        "encoding": "inplace",
        "label": "contract IAddressManager",
        "numberOfBytes": "20"
      }
    }
  }
}