{
  "address": "0x1dC10f0aaE8B93FD97f0122b5fC30F8B1b5fCEc5",
  "abi": [
    {
      "inputs": [
        {
          "internalType": "address",
          "name": "_fxChild",
          "type": "address"
        },
        {
          "internalType": "contract IAddressManager",
          "name": "_addressManager",
          "type": "address"
        }
      ],
      "stateMutability": "nonpayable",
      "type": "constructor"
    },
    {
      "anonymous": false,
      "inputs": [
        {
          "indexed": false,
          "internalType": "bytes",
          "name": "message",
          "type": "bytes"
        }
      ],
      "name": "MessageSent",
      "type": "event"
    },
    {
      "inputs": [],
      "name": "DE_REGISTER",
      "outputs": [
        {
          "internalType": "bytes32",
          "name": "",
          "type": "bytes32"
        }
      ],
      "stateMutability": "view",
      "type": "function"
    },
    {
      "inputs": [],
      "name": "REGISTER",
      "outputs": [
        {
          "internalType": "bytes32",
          "name": "",
          "type": "bytes32"
        }
      ],
      "stateMutability": "view",
      "type": "function"
    },
    {
      "inputs": [],
      "name": "addressManager",
      "outputs": [
        {
          "internalType": "contract IAddressManager",
          "name": "",
          "type": "address"
        }
      ],
      "stateMutability": "view",
      "type": "function"
    },
    {
      "inputs": [],
      "name": "fxChild",
      "outputs": [
        {
          "internalType": "address",
          "name": "",
          "type": "address"
        }
      ],
      "stateMutability": "view",
      "type": "function"
    },
    {
      "inputs": [],
      "name": "fxRootTunnel",
      "outputs": [
        {
          "internalType": "address",
          "name": "",
          "type": "address"
        }
      ],
      "stateMutability": "view",
      "type": "function"
    },
    {
      "inputs": [
        {
          "internalType": "uint256",
          "name": "stateId",
          "type": "uint256"
        },
        {
          "internalType": "address",
          "name": "rootMessageSender",
          "type": "address"
        },
        {
          "internalType": "bytes",
          "name": "data",
          "type": "bytes"
        }
      ],
      "name": "processMessageFromRoot",
      "outputs": [],
      "stateMutability": "nonpayable",
      "type": "function"
    },
    {
      "inputs": [
        {
          "internalType": "address",
          "name": "_fxRootTunnel",
          "type": "address"
        }
      ],
      "name": "setFxRootTunnel",
      "outputs": [],
      "stateMutability": "nonpayable",
      "type": "function"
    }
  ],
  "transactionHash": "0xbc7eefbbb383fa00fdab3f0e7b6b4d06910c1955e7d4d19ba121f8e7c34e7d05",
  "args": [
    "0xCf73231F28B7331BBe3124B907840A94851f9f11",
    "0x9F87ef076165229Da4231C90cdc5b21840CD630A"
  ],
  "numDeployments": 1,
  "solcInputHash": "ceb95f7bc4a63ad25349627214c0303f",
  "bytecode": "0x60806040523480156200001157600080fd5b50604051620012d4380380620012d4833981810160405281019062000037919062000171565b81806000806101000a81548173ffffffffffffffffffffffffffffffffffffffff021916908373ffffffffffffffffffffffffffffffffffffffff1602179055505080600260006101000a81548173ffffffffffffffffffffffffffffffffffffffff021916908373ffffffffffffffffffffffffffffffffffffffff1602179055505050620001b8565b600080fd5b600073ffffffffffffffffffffffffffffffffffffffff82169050919050565b6000620000f482620000c7565b9050919050565b6200010681620000e7565b81146200011257600080fd5b50565b6000815190506200012681620000fb565b92915050565b60006200013982620000e7565b9050919050565b6200014b816200012c565b81146200015757600080fd5b50565b6000815190506200016b8162000140565b92915050565b600080604083850312156200018b576200018a620000c2565b5b60006200019b8582860162000115565b9250506020620001ae858286016200015a565b9150509250929050565b61110c80620001c86000396000f3fe608060405234801561001057600080fd5b506004361061007d5760003560e01c80637f1e9cb01161005b5780637f1e9cb0146100dc57806388837094146100fa5780639a7c4b7114610116578063e8a28dd7146101325761007d565b806310325264146100825780633ab76e9f146100a0578063450d11f0146100be575b600080fd5b61008a610150565b60405161009791906107bf565b60405180910390f35b6100a8610174565b6040516100b59190610859565b60405180910390f35b6100c661019a565b6040516100d39190610895565b60405180910390f35b6100e46101be565b6040516100f19190610895565b60405180910390f35b610114600480360381019061010f91906108f0565b6101e4565b005b610130600480360381019061012b91906109b8565b6102b9565b005b61013a61039c565b60405161014791906107bf565b60405180910390f35b7ff98aef635801dfa470eae0492dd6a267cc7e32661957109ef6316bfd8bea371e81565b600260009054906101000a900473ffffffffffffffffffffffffffffffffffffffff1681565b60008054906101000a900473ffffffffffffffffffffffffffffffffffffffff1681565b600160009054906101000a900473ffffffffffffffffffffffffffffffffffffffff1681565b600073ffffffffffffffffffffffffffffffffffffffff16600160009054906101000a900473ffffffffffffffffffffffffffffffffffffffff1673ffffffffffffffffffffffffffffffffffffffff1614610275576040517f08c379a000000000000000000000000000000000000000000000000000000000815260040161026c90610aaf565b60405180910390fd5b80600160006101000a81548173ffffffffffffffffffffffffffffffffffffffff021916908373ffffffffffffffffffffffffffffffffffffffff16021790555050565b60008054906101000a900473ffffffffffffffffffffffffffffffffffffffff1673ffffffffffffffffffffffffffffffffffffffff163373ffffffffffffffffffffffffffffffffffffffff1614610347576040517f08c379a000000000000000000000000000000000000000000000000000000000815260040161033e90610b41565b60405180910390fd5b610396848484848080601f016020809104026020016040519081016040528093929190818152602001838380828437600081840152601f19601f820116905080830192505050505050506103c0565b50505050565b7f58cc5acb742fd5eb9df21407aed105abca7d37584645d014636aa13c7b7bc38781565b81600160009054906101000a900473ffffffffffffffffffffffffffffffffffffffff1673ffffffffffffffffffffffffffffffffffffffff168173ffffffffffffffffffffffffffffffffffffffff1614610451576040517f08c379a000000000000000000000000000000000000000000000000000000000815260040161044890610bd3565b60405180910390fd5b600080838060200190518101906104689190610d84565b915091507f58cc5acb742fd5eb9df21407aed105abca7d37584645d014636aa13c7b7bc3878214156104a25761049d8161051c565b610514565b7ff98aef635801dfa470eae0492dd6a267cc7e32661957109ef6316bfd8bea371e8214156104d8576104d38161066b565b610513565b6040517f08c379a000000000000000000000000000000000000000000000000000000000815260040161050a90610e2c565b60405180910390fd5b5b505050505050565b60008060008060008060008780602001905181019061053b9190610e9f565b9650965096509650965096509650600260009054906101000a900473ffffffffffffffffffffffffffffffffffffffff1673ffffffffffffffffffffffffffffffffffffffff1663363f8a656040518163ffffffff1660e01b8152600401602060405180830381600087803b1580156105b357600080fd5b505af11580156105c7573d6000803e3d6000fd5b505050506040513d601f19601f820116820180604052508101906105eb9190610f7f565b73ffffffffffffffffffffffffffffffffffffffff1663ef5a1eb0888888888888886040518863ffffffff1660e01b815260040161062f9796959493929190610fbb565b600060405180830381600087803b15801561064957600080fd5b505af115801561065d573d6000803e3d6000fd5b505050505050505050505050565b60008060008084806020019051810190610685919061102a565b9350935093509350600260009054906101000a900473ffffffffffffffffffffffffffffffffffffffff1673ffffffffffffffffffffffffffffffffffffffff1663363f8a656040518163ffffffff1660e01b8152600401602060405180830381600087803b1580156106f757600080fd5b505af115801561070b573d6000803e3d6000fd5b505050506040513d601f19601f8201168201806040525081019061072f9190610f7f565b73ffffffffffffffffffffffffffffffffffffffff1663fb9b92bc858585856040518563ffffffff1660e01b815260040161076d9493929190611091565b600060405180830381600087803b15801561078757600080fd5b505af115801561079b573d6000803e3d6000fd5b505050505050505050565b6000819050919050565b6107b9816107a6565b82525050565b60006020820190506107d460008301846107b0565b92915050565b600073ffffffffffffffffffffffffffffffffffffffff82169050919050565b6000819050919050565b600061081f61081a610815846107da565b6107fa565b6107da565b9050919050565b600061083182610804565b9050919050565b600061084382610826565b9050919050565b61085381610838565b82525050565b600060208201905061086e600083018461084a565b92915050565b600061087f826107da565b9050919050565b61088f81610874565b82525050565b60006020820190506108aa6000830184610886565b92915050565b6000604051905090565b600080fd5b600080fd5b6108cd81610874565b81146108d857600080fd5b50565b6000813590506108ea816108c4565b92915050565b600060208284031215610906576109056108ba565b5b6000610914848285016108db565b91505092915050565b6000819050919050565b6109308161091d565b811461093b57600080fd5b50565b60008135905061094d81610927565b92915050565b600080fd5b600080fd5b600080fd5b60008083601f84011261097857610977610953565b5b8235905067ffffffffffffffff81111561099557610994610958565b5b6020830191508360018202830111156109b1576109b061095d565b5b9250929050565b600080600080606085870312156109d2576109d16108ba565b5b60006109e08782880161093e565b94505060206109f1878288016108db565b935050604085013567ffffffffffffffff811115610a1257610a116108bf565b5b610a1e87828801610962565b925092505092959194509250565b600082825260208201905092915050565b7f4678426173654368696c6454756e6e656c3a20524f4f545f54554e4e454c5f4160008201527f4c52454144595f53455400000000000000000000000000000000000000000000602082015250565b6000610a99602a83610a2c565b9150610aa482610a3d565b604082019050919050565b60006020820190508181036000830152610ac881610a8c565b9050919050565b7f4678426173654368696c6454756e6e656c3a20494e56414c49445f53454e444560008201527f5200000000000000000000000000000000000000000000000000000000000000602082015250565b6000610b2b602183610a2c565b9150610b3682610acf565b604082019050919050565b60006020820190508181036000830152610b5a81610b1e565b9050919050565b7f4678426173654368696c6454756e6e656c3a20494e56414c49445f53454e444560008201527f525f46524f4d5f524f4f54000000000000000000000000000000000000000000602082015250565b6000610bbd602b83610a2c565b9150610bc882610b61565b604082019050919050565b60006020820190508181036000830152610bec81610bb0565b9050919050565b610bfc816107a6565b8114610c0757600080fd5b50565b600081519050610c1981610bf3565b92915050565b600080fd5b6000601f19601f8301169050919050565b7f4e487b7100000000000000000000000000000000000000000000000000000000600052604160045260246000fd5b610c6d82610c24565b810181811067ffffffffffffffff82111715610c8c57610c8b610c35565b5b80604052505050565b6000610c9f6108b0565b9050610cab8282610c64565b919050565b600067ffffffffffffffff821115610ccb57610cca610c35565b5b610cd482610c24565b9050602081019050919050565b60005b83811015610cff578082015181840152602081019050610ce4565b83811115610d0e576000848401525b50505050565b6000610d27610d2284610cb0565b610c95565b905082815260208101848484011115610d4357610d42610c1f565b5b610d4e848285610ce1565b509392505050565b600082601f830112610d6b57610d6a610953565b5b8151610d7b848260208601610d14565b91505092915050565b60008060408385031215610d9b57610d9a6108ba565b5b6000610da985828601610c0a565b925050602083015167ffffffffffffffff811115610dca57610dc96108bf565b5b610dd685828601610d56565b9150509250929050565b7f455252204d534700000000000000000000000000000000000000000000000000600082015250565b6000610e16600783610a2c565b9150610e2182610de0565b602082019050919050565b60006020820190508181036000830152610e4581610e09565b9050919050565b6000610e57826107da565b9050919050565b610e6781610e4c565b8114610e7257600080fd5b50565b600081519050610e8481610e5e565b92915050565b600081519050610e9981610927565b92915050565b600080600080600080600060e0888a031215610ebe57610ebd6108ba565b5b6000610ecc8a828b01610e75565b9750506020610edd8a828b01610e8a565b9650506040610eee8a828b01610e75565b9550506060610eff8a828b01610e8a565b9450506080610f108a828b01610e75565b93505060a0610f218a828b01610e8a565b92505060c0610f328a828b01610e8a565b91505092959891949750929550565b6000610f4c82610874565b9050919050565b610f5c81610f41565b8114610f6757600080fd5b50565b600081519050610f7981610f53565b92915050565b600060208284031215610f9557610f946108ba565b5b6000610fa384828501610f6a565b91505092915050565b610fb58161091d565b82525050565b600060e082019050610fd0600083018a610886565b610fdd6020830189610fac565b610fea6040830188610886565b610ff76060830187610fac565b6110046080830186610886565b61101160a0830185610fac565b61101e60c0830184610fac565b98975050505050505050565b60008060008060808587031215611044576110436108ba565b5b600061105287828801610e75565b945050602061106387828801610e8a565b935050604061107487828801610e75565b925050606061108587828801610e8a565b91505092959194509250565b60006080820190506110a66000830187610886565b6110b36020830186610fac565b6110c06040830185610886565b6110cd6060830184610fac565b9594505050505056fea26469706673582212205dfa63f758229a4d19246d8ce55b6974d50bf9ce055341f24f474a2faf10686d64736f6c63430008090033",
  "devdoc": {
    "details": "This contract lives on the L2 and receives messages from the L1 to register and unregister NFTs on the L1 chain. This is not an upgradeable contract and should not be used with a proxy.",
    "kind": "dev",
    "methods": {
      "constructor": {
        "details": "After deployment you must call setFxRootTunnel() with the RootRegistrar Address on the L1.",
        "params": {
          "_addressManager": "- This is the address manager on the protocol",
          "_fxChild": "- This is the contract deployed on the L2 that will be sending messages here. This is a well known deployed contract that Matic has set up."
        }
      }
    },
    "stateVariables": {
      "addressManager": {
        "details": "local reference to the address manager contract"
      }
    },
    "version": 1
  },
  "userdoc": {
    "kind": "user",
    "methods": {},
    "version": 1
  },
  "storageLayout": {
    "storage": [
      {
        "astId": 1928,
        "contract": "contracts/Bridge/ChildRegistrar.sol:ChildRegistrar",
        "label": "fxChild",
        "offset": 0,
        "slot": "0",
        "type": "t_address"
      },
      {
        "astId": 1930,
        "contract": "contracts/Bridge/ChildRegistrar.sol:ChildRegistrar",
        "label": "fxRootTunnel",
        "offset": 0,
        "slot": "1",
        "type": "t_address"
      },
      {
        "astId": 6901,
        "contract": "contracts/Bridge/ChildRegistrar.sol:ChildRegistrar",
        "label": "addressManager",
        "offset": 0,
        "slot": "2",
        "type": "t_contract(IAddressManager)7543"
      }
    ],
    "types": {
      "t_address": {
        "encoding": "inplace",
        "label": "address",
        "numberOfBytes": "20"
      },
      "t_contract(IAddressManager)7543": {
        "encoding": "inplace",
        "label": "contract IAddressManager",
        "numberOfBytes": "20"
      }
    }
  }
}