{
  "address": "0xc552eb248197bf84798cdf82c97a31772022aa12",
  "abi": [
    {
      "anonymous": false,
      "inputs": [
        {
          "indexed": true,
          "internalType": "address",
          "name": "account",
          "type": "address"
        },
        {
          "indexed": true,
          "internalType": "address",
          "name": "operator",
          "type": "address"
        },
        {
          "indexed": false,
          "internalType": "bool",
          "name": "approved",
          "type": "bool"
        }
      ],
      "name": "ApprovalForAll",
      "type": "event"
    },
    {
      "anonymous": false,
      "inputs": [
        {
          "indexed": true,
          "internalType": "address",
          "name": "operator",
          "type": "address"
        },
        {
          "indexed": true,
          "internalType": "address",
          "name": "from",
          "type": "address"
        },
        {
          "indexed": true,
          "internalType": "address",
          "name": "to",
          "type": "address"
        },
        {
          "indexed": false,
          "internalType": "uint256[]",
          "name": "ids",
          "type": "uint256[]"
        },
        {
          "indexed": false,
          "internalType": "uint256[]",
          "name": "values",
          "type": "uint256[]"
        }
      ],
      "name": "TransferBatch",
      "type": "event"
    },
    {
      "anonymous": false,
      "inputs": [
        {
          "indexed": true,
          "internalType": "address",
          "name": "operator",
          "type": "address"
        },
        {
          "indexed": true,
          "internalType": "address",
          "name": "from",
          "type": "address"
        },
        {
          "indexed": true,
          "internalType": "address",
          "name": "to",
          "type": "address"
        },
        {
          "indexed": false,
          "internalType": "uint256",
          "name": "id",
          "type": "uint256"
        },
        {
          "indexed": false,
          "internalType": "uint256",
          "name": "value",
          "type": "uint256"
        }
      ],
      "name": "TransferSingle",
      "type": "event"
    },
    {
      "anonymous": false,
      "inputs": [
        {
          "indexed": false,
          "internalType": "string",
          "name": "value",
          "type": "string"
        },
        {
          "indexed": true,
          "internalType": "uint256",
          "name": "id",
          "type": "uint256"
        }
      ],
      "name": "URI",
      "type": "event"
    },
    {
      "inputs": [],
      "name": "addressManager",
      "outputs": [
        {
          "internalType": "contract IAddressManager",
          "name": "",
          "type": "address"
        }
      ],
      "stateMutability": "view",
      "type": "function"
    },
    {
      "inputs": [
        {
          "internalType": "address",
          "name": "account",
          "type": "address"
        },
        {
          "internalType": "uint256",
          "name": "id",
          "type": "uint256"
        }
      ],
      "name": "balanceOf",
      "outputs": [
        {
          "internalType": "uint256",
          "name": "",
          "type": "uint256"
        }
      ],
      "stateMutability": "view",
      "type": "function"
    },
    {
      "inputs": [
        {
          "internalType": "address[]",
          "name": "accounts",
          "type": "address[]"
        },
        {
          "internalType": "uint256[]",
          "name": "ids",
          "type": "uint256[]"
        }
      ],
      "name": "balanceOfBatch",
      "outputs": [
        {
          "internalType": "uint256[]",
          "name": "",
          "type": "uint256[]"
        }
      ],
      "stateMutability": "view",
      "type": "function"
    },
    {
      "inputs": [
        {
          "internalType": "address",
          "name": "from",
          "type": "address"
        },
        {
          "internalType": "uint256",
          "name": "id",
          "type": "uint256"
        },
        {
          "internalType": "uint256",
          "name": "amount",
          "type": "uint256"
        }
      ],
      "name": "burn",
      "outputs": [],
      "stateMutability": "nonpayable",
      "type": "function"
    },
    {
      "inputs": [],
      "name": "contractUri",
      "outputs": [
        {
          "internalType": "string",
          "name": "",
          "type": "string"
        }
      ],
      "stateMutability": "view",
      "type": "function"
    },
    {
      "inputs": [
        {
          "internalType": "string",
          "name": "_uri",
          "type": "string"
        },
        {
          "internalType": "address",
          "name": "_addressManager",
          "type": "address"
        },
        {
          "internalType": "string",
          "name": "_contractUri",
          "type": "string"
        }
      ],
      "name": "initialize",
      "outputs": [],
      "stateMutability": "nonpayable",
      "type": "function"
    },
    {
      "inputs": [
        {
          "internalType": "address",
          "name": "account",
          "type": "address"
        },
        {
          "internalType": "address",
          "name": "operator",
          "type": "address"
        }
      ],
      "name": "isApprovedForAll",
      "outputs": [
        {
          "internalType": "bool",
          "name": "",
          "type": "bool"
        }
      ],
      "stateMutability": "view",
      "type": "function"
    },
    {
      "inputs": [
        {
          "internalType": "address",
          "name": "to",
          "type": "address"
        },
        {
          "internalType": "uint256",
          "name": "id",
          "type": "uint256"
        },
        {
          "internalType": "uint256",
          "name": "amount",
          "type": "uint256"
        },
        {
          "internalType": "bytes",
          "name": "data",
          "type": "bytes"
        }
      ],
      "name": "mint",
      "outputs": [],
      "stateMutability": "nonpayable",
      "type": "function"
    },
    {
      "inputs": [
        {
          "internalType": "address",
          "name": "from",
          "type": "address"
        },
        {
          "internalType": "address",
          "name": "to",
          "type": "address"
        },
        {
          "internalType": "uint256[]",
          "name": "ids",
          "type": "uint256[]"
        },
        {
          "internalType": "uint256[]",
          "name": "amounts",
          "type": "uint256[]"
        },
        {
          "internalType": "bytes",
          "name": "data",
          "type": "bytes"
        }
      ],
      "name": "safeBatchTransferFrom",
      "outputs": [],
      "stateMutability": "nonpayable",
      "type": "function"
    },
    {
      "inputs": [
        {
          "internalType": "address",
          "name": "from",
          "type": "address"
        },
        {
          "internalType": "address",
          "name": "to",
          "type": "address"
        },
        {
          "internalType": "uint256",
          "name": "id",
          "type": "uint256"
        },
        {
          "internalType": "uint256",
          "name": "amount",
          "type": "uint256"
        },
        {
          "internalType": "bytes",
          "name": "data",
          "type": "bytes"
        }
      ],
      "name": "safeTransferFrom",
      "outputs": [],
      "stateMutability": "nonpayable",
      "type": "function"
    },
    {
      "inputs": [
        {
          "internalType": "address",
          "name": "operator",
          "type": "address"
        },
        {
          "internalType": "bool",
          "name": "approved",
          "type": "bool"
        }
      ],
      "name": "setApprovalForAll",
      "outputs": [],
      "stateMutability": "nonpayable",
      "type": "function"
    },
    {
      "inputs": [
        {
          "internalType": "string",
          "name": "_contractUri",
          "type": "string"
        }
      ],
      "name": "setContractUri",
      "outputs": [
        {
          "internalType": "bool",
          "name": "success",
          "type": "bool"
        }
      ],
      "stateMutability": "nonpayable",
      "type": "function"
    },
    {
      "inputs": [
        {
          "internalType": "bytes4",
          "name": "interfaceId",
          "type": "bytes4"
        }
      ],
      "name": "supportsInterface",
      "outputs": [
        {
          "internalType": "bool",
          "name": "",
          "type": "bool"
        }
      ],
      "stateMutability": "view",
      "type": "function"
    },
    {
      "inputs": [
        {
          "internalType": "uint256",
          "name": "",
          "type": "uint256"
        }
      ],
      "name": "uri",
      "outputs": [
        {
          "internalType": "string",
          "name": "",
          "type": "string"
        }
      ],
      "stateMutability": "view",
      "type": "function"
    }
  ],
  "transactionHash": "0xebfa0bf1dabcde2dcd66f1e43bfb64a3f0d24e5f2b14a099f86dcbc0b3fafc88",
  "args": [],
  "numDeployments": 2,
  "solcInputHash": "7b9ff270f7f36eb43b92fcd577b48b8e",
  "bytecode": "0x608060405234801561001057600080fd5b5061395e806100206000396000f3fe608060405234801561001057600080fd5b50600436106100e95760003560e01c806395a2fadc1161008c578063ccb4807b11610066578063ccb4807b1461025a578063e985e9c51461028a578063f242432a146102ba578063f5298aca146102d6576100e9565b806395a2fadc14610204578063a22cb46514610220578063c0e24d5e1461023c576100e9565b80632eb2c2d6116100c85780632eb2c2d61461017e5780633ab76e9f1461019a5780634e1273f4146101b8578063731133e9146101e8576100e9565b8062fdd58e146100ee57806301ffc9a71461011e5780630e89341c1461014e575b600080fd5b6101086004803603810190610103919061207f565b6102f2565b60405161011591906120ce565b60405180910390f35b61013860048036038101906101339190612141565b6103bc565b6040516101459190612189565b60405180910390f35b610168600480360381019061016391906121a4565b61049e565b604051610175919061226a565b60405180910390f35b61019860048036038101906101939190612489565b610532565b005b6101a26105d3565b6040516101af91906125b7565b60405180910390f35b6101d260048036038101906101cd9190612695565b6105f9565b6040516101df91906127cb565b60405180910390f35b61020260048036038101906101fd91906127ed565b610712565b005b61021e60048036038101906102199190612911565b61088c565b005b61023a600480360381019061023591906129c8565b6109d4565b005b6102446109ea565b604051610251919061226a565b60405180910390f35b610274600480360381019061026f9190612a08565b610a78565b6040516102819190612189565b60405180910390f35b6102a4600480360381019061029f9190612a51565b610c02565b6040516102b19190612189565b60405180910390f35b6102d460048036038101906102cf9190612a91565b610c96565b005b6102f060048036038101906102eb9190612b28565b610d37565b005b60008073ffffffffffffffffffffffffffffffffffffffff168373ffffffffffffffffffffffffffffffffffffffff161415610363576040517f08c379a000000000000000000000000000000000000000000000000000000000815260040161035a90612bed565b60405180910390fd5b6065600083815260200190815260200160002060008473ffffffffffffffffffffffffffffffffffffffff1673ffffffffffffffffffffffffffffffffffffffff16815260200190815260200160002054905092915050565b60007fd9b67a26000000000000000000000000000000000000000000000000000000007bffffffffffffffffffffffffffffffffffffffffffffffffffffffff1916827bffffffffffffffffffffffffffffffffffffffffffffffffffffffff1916148061048757507f0e89341c000000000000000000000000000000000000000000000000000000007bffffffffffffffffffffffffffffffffffffffffffffffffffffffff1916827bffffffffffffffffffffffffffffffffffffffffffffffffffffffff1916145b80610497575061049682610eaf565b5b9050919050565b6060606780546104ad90612c3c565b80601f01602080910402602001604051908101604052809291908181526020018280546104d990612c3c565b80156105265780601f106104fb57610100808354040283529160200191610526565b820191906000526020600020905b81548152906001019060200180831161050957829003601f168201915b50505050509050919050565b61053a610f19565b73ffffffffffffffffffffffffffffffffffffffff168573ffffffffffffffffffffffffffffffffffffffff161480610580575061057f8561057a610f19565b610c02565b5b6105bf576040517f08c379a00000000000000000000000000000000000000000000000000000000081526004016105b690612ce0565b60405180910390fd5b6105cc8585858585610f21565b5050505050565b609760009054906101000a900473ffffffffffffffffffffffffffffffffffffffff1681565b6060815183511461063f576040517f08c379a000000000000000000000000000000000000000000000000000000000815260040161063690612d72565b60405180910390fd5b6000835167ffffffffffffffff81111561065c5761065b612291565b5b60405190808252806020026020018201604052801561068a5781602001602082028036833780820191505090505b50905060005b8451811015610707576106d78582815181106106af576106ae612d92565b5b60200260200101518583815181106106ca576106c9612d92565b5b60200260200101516102f2565b8282815181106106ea576106e9612d92565b5b6020026020010181815250508061070090612df0565b9050610690565b508091505092915050565b609760009054906101000a900473ffffffffffffffffffffffffffffffffffffffff1673ffffffffffffffffffffffffffffffffffffffff1662435da56040518163ffffffff1660e01b8152600401602060405180830381600087803b15801561077b57600080fd5b505af115801561078f573d6000803e3d6000fd5b505050506040513d601f19601f820116820180604052508101906107b39190612e77565b73ffffffffffffffffffffffffffffffffffffffff1663fbac0352336040518263ffffffff1660e01b81526004016107eb9190612eb3565b60206040518083038186803b15801561080357600080fd5b505afa158015610817573d6000803e3d6000fd5b505050506040513d601f19601f8201168201806040525081019061083b9190612ee3565b61087a576040517f08c379a000000000000000000000000000000000000000000000000000000000815260040161087190612f5c565b60405180910390fd5b61088684848484611238565b50505050565b600060019054906101000a900460ff166108b45760008054906101000a900460ff16156108bd565b6108bc6113cf565b5b6108fc576040517f08c379a00000000000000000000000000000000000000000000000000000000081526004016108f390612fee565b60405180910390fd5b60008060019054906101000a900460ff16159050801561094c576001600060016101000a81548160ff02191690831515021790555060016000806101000a81548160ff0219169083151502179055505b610955846113e0565b82609760006101000a81548173ffffffffffffffffffffffffffffffffffffffff021916908373ffffffffffffffffffffffffffffffffffffffff16021790555081609890805190602001906109ac929190611f34565b5080156109ce5760008060016101000a81548160ff0219169083151502179055505b50505050565b6109e66109df610f19565b838361143b565b5050565b609880546109f790612c3c565b80601f0160208091040260200160405190810160405280929190818152602001828054610a2390612c3c565b8015610a705780601f10610a4557610100808354040283529160200191610a70565b820191906000526020600020905b815481529060010190602001808311610a5357829003601f168201915b505050505081565b6000609760009054906101000a900473ffffffffffffffffffffffffffffffffffffffff1673ffffffffffffffffffffffffffffffffffffffff1662435da56040518163ffffffff1660e01b8152600401602060405180830381600087803b158015610ae357600080fd5b505af1158015610af7573d6000803e3d6000fd5b505050506040513d601f19601f82011682018060405250810190610b1b9190612e77565b73ffffffffffffffffffffffffffffffffffffffff1663fbac0352336040518263ffffffff1660e01b8152600401610b539190612eb3565b60206040518083038186803b158015610b6b57600080fd5b505afa158015610b7f573d6000803e3d6000fd5b505050506040513d601f19601f82011682018060405250810190610ba39190612ee3565b610be2576040517f08c379a0000000000000000000000000000000000000000000000000000000008152600401610bd990612f5c565b60405180910390fd5b8160989080519060200190610bf8929190611f34565b5060019050919050565b6000606660008473ffffffffffffffffffffffffffffffffffffffff1673ffffffffffffffffffffffffffffffffffffffff16815260200190815260200160002060008373ffffffffffffffffffffffffffffffffffffffff1673ffffffffffffffffffffffffffffffffffffffff16815260200190815260200160002060009054906101000a900460ff16905092915050565b610c9e610f19565b73ffffffffffffffffffffffffffffffffffffffff168573ffffffffffffffffffffffffffffffffffffffff161480610ce45750610ce385610cde610f19565b610c02565b5b610d23576040517f08c379a0000000000000000000000000000000000000000000000000000000008152600401610d1a90613080565b60405180910390fd5b610d3085858585856115a8565b5050505050565b609760009054906101000a900473ffffffffffffffffffffffffffffffffffffffff1673ffffffffffffffffffffffffffffffffffffffff1662435da56040518163ffffffff1660e01b8152600401602060405180830381600087803b158015610da057600080fd5b505af1158015610db4573d6000803e3d6000fd5b505050506040513d601f19601f82011682018060405250810190610dd89190612e77565b73ffffffffffffffffffffffffffffffffffffffff1663fbac0352336040518263ffffffff1660e01b8152600401610e109190612eb3565b60206040518083038186803b158015610e2857600080fd5b505afa158015610e3c573d6000803e3d6000fd5b505050506040513d601f19601f82011682018060405250810190610e609190612ee3565b610e9f576040517f08c379a0000000000000000000000000000000000000000000000000000000008152600401610e9690612f5c565b60405180910390fd5b610eaa83838361182d565b505050565b60007f01ffc9a7000000000000000000000000000000000000000000000000000000007bffffffffffffffffffffffffffffffffffffffffffffffffffffffff1916827bffffffffffffffffffffffffffffffffffffffffffffffffffffffff1916149050919050565b600033905090565b8151835114610f65576040517f08c379a0000000000000000000000000000000000000000000000000000000008152600401610f5c90613112565b60405180910390fd5b600073ffffffffffffffffffffffffffffffffffffffff168473ffffffffffffffffffffffffffffffffffffffff161415610fd5576040517f08c379a0000000000000000000000000000000000000000000000000000000008152600401610fcc906131a4565b60405180910390fd5b6000610fdf610f19565b9050610fef818787878787611a4c565b60005b84518110156111a35760008582815181106110105761100f612d92565b5b60200260200101519050600085838151811061102f5761102e612d92565b5b6020026020010151905060006065600084815260200190815260200160002060008b73ffffffffffffffffffffffffffffffffffffffff1673ffffffffffffffffffffffffffffffffffffffff168152602001908152602001600020549050818110156110d1576040517f08c379a00000000000000000000000000000000000000000000000000000000081526004016110c890613236565b60405180910390fd5b8181036065600085815260200190815260200160002060008c73ffffffffffffffffffffffffffffffffffffffff1673ffffffffffffffffffffffffffffffffffffffff16815260200190815260200160002081905550816065600085815260200190815260200160002060008b73ffffffffffffffffffffffffffffffffffffffff1673ffffffffffffffffffffffffffffffffffffffff16815260200190815260200160002060008282546111889190613256565b925050819055505050508061119c90612df0565b9050610ff2565b508473ffffffffffffffffffffffffffffffffffffffff168673ffffffffffffffffffffffffffffffffffffffff168273ffffffffffffffffffffffffffffffffffffffff167f4a39dc06d4c0dbc64b70af90fd698a233a518aa5d07e595d983b8c0526c8f7fb878760405161121a9291906132ac565b60405180910390a4611230818787878787611a54565b505050505050565b600073ffffffffffffffffffffffffffffffffffffffff168473ffffffffffffffffffffffffffffffffffffffff1614156112a8576040517f08c379a000000000000000000000000000000000000000000000000000000000815260040161129f90613355565b60405180910390fd5b60006112b2610f19565b90506112d3816000876112c488611c3b565b6112cd88611c3b565b87611a4c565b826065600086815260200190815260200160002060008773ffffffffffffffffffffffffffffffffffffffff1673ffffffffffffffffffffffffffffffffffffffff16815260200190815260200160002060008282546113339190613256565b925050819055508473ffffffffffffffffffffffffffffffffffffffff16600073ffffffffffffffffffffffffffffffffffffffff168273ffffffffffffffffffffffffffffffffffffffff167fc3d58168c5ae7397731d063d5bbf3d657854427343f4c083240f7aacaa2d0f6287876040516113b1929190613375565b60405180910390a46113c881600087878787611cb5565b5050505050565b60006113da30611e9c565b15905090565b600060019054906101000a900460ff1661142f576040517f08c379a000000000000000000000000000000000000000000000000000000000815260040161142690613410565b60405180910390fd5b61143881611ebf565b50565b8173ffffffffffffffffffffffffffffffffffffffff168373ffffffffffffffffffffffffffffffffffffffff1614156114aa576040517f08c379a00000000000000000000000000000000000000000000000000000000081526004016114a1906134a2565b60405180910390fd5b80606660008573ffffffffffffffffffffffffffffffffffffffff1673ffffffffffffffffffffffffffffffffffffffff16815260200190815260200160002060008473ffffffffffffffffffffffffffffffffffffffff1673ffffffffffffffffffffffffffffffffffffffff16815260200190815260200160002060006101000a81548160ff0219169083151502179055508173ffffffffffffffffffffffffffffffffffffffff168373ffffffffffffffffffffffffffffffffffffffff167f17307eab39ab6107e8899845ad3d59bd9653f200f220920489ca2b5937696c318360405161159b9190612189565b60405180910390a3505050565b600073ffffffffffffffffffffffffffffffffffffffff168473ffffffffffffffffffffffffffffffffffffffff161415611618576040517f08c379a000000000000000000000000000000000000000000000000000000000815260040161160f906131a4565b60405180910390fd5b6000611622610f19565b905061164281878761163388611c3b565b61163c88611c3b565b87611a4c565b60006065600086815260200190815260200160002060008873ffffffffffffffffffffffffffffffffffffffff1673ffffffffffffffffffffffffffffffffffffffff168152602001908152602001600020549050838110156116da576040517f08c379a00000000000000000000000000000000000000000000000000000000081526004016116d190613236565b60405180910390fd5b8381036065600087815260200190815260200160002060008973ffffffffffffffffffffffffffffffffffffffff1673ffffffffffffffffffffffffffffffffffffffff16815260200190815260200160002081905550836065600087815260200190815260200160002060008873ffffffffffffffffffffffffffffffffffffffff1673ffffffffffffffffffffffffffffffffffffffff16815260200190815260200160002060008282546117919190613256565b925050819055508573ffffffffffffffffffffffffffffffffffffffff168773ffffffffffffffffffffffffffffffffffffffff168373ffffffffffffffffffffffffffffffffffffffff167fc3d58168c5ae7397731d063d5bbf3d657854427343f4c083240f7aacaa2d0f62888860405161180e929190613375565b60405180910390a4611824828888888888611cb5565b50505050505050565b600073ffffffffffffffffffffffffffffffffffffffff168373ffffffffffffffffffffffffffffffffffffffff16141561189d576040517f08c379a000000000000000000000000000000000000000000000000000000000815260040161189490613534565b60405180910390fd5b60006118a7610f19565b90506118d7818560006118b987611c3b565b6118c287611c3b565b60405180602001604052806000815250611a4c565b60006065600085815260200190815260200160002060008673ffffffffffffffffffffffffffffffffffffffff1673ffffffffffffffffffffffffffffffffffffffff1681526020019081526020016000205490508281101561196f576040517f08c379a0000000000000000000000000000000000000000000000000000000008152600401611966906135c6565b60405180910390fd5b8281036065600086815260200190815260200160002060008773ffffffffffffffffffffffffffffffffffffffff1673ffffffffffffffffffffffffffffffffffffffff16815260200190815260200160002081905550600073ffffffffffffffffffffffffffffffffffffffff168573ffffffffffffffffffffffffffffffffffffffff168373ffffffffffffffffffffffffffffffffffffffff167fc3d58168c5ae7397731d063d5bbf3d657854427343f4c083240f7aacaa2d0f628787604051611a3d929190613375565b60405180910390a45050505050565b505050505050565b611a738473ffffffffffffffffffffffffffffffffffffffff16611e9c565b15611c33578373ffffffffffffffffffffffffffffffffffffffff1663bc197c8187878686866040518663ffffffff1660e01b8152600401611ab995949392919061363b565b602060405180830381600087803b158015611ad357600080fd5b505af1925050508015611b0457506040513d601f19601f82011682018060405250810190611b0191906136b8565b60015b611baa57611b106136f2565b806308c379a01415611b6d5750611b25613714565b80611b305750611b6f565b806040517f08c379a0000000000000000000000000000000000000000000000000000000008152600401611b64919061226a565b60405180910390fd5b505b6040517f08c379a0000000000000000000000000000000000000000000000000000000008152600401611ba19061381c565b60405180910390fd5b63bc197c8160e01b7bffffffffffffffffffffffffffffffffffffffffffffffffffffffff1916817bffffffffffffffffffffffffffffffffffffffffffffffffffffffff191614611c31576040517f08c379a0000000000000000000000000000000000000000000000000000000008152600401611c28906138ae565b60405180910390fd5b505b505050505050565b60606000600167ffffffffffffffff811115611c5a57611c59612291565b5b604051908082528060200260200182016040528015611c885781602001602082028036833780820191505090505b5090508281600081518110611ca057611c9f612d92565b5b60200260200101818152505080915050919050565b611cd48473ffffffffffffffffffffffffffffffffffffffff16611e9c565b15611e94578373ffffffffffffffffffffffffffffffffffffffff1663f23a6e6187878686866040518663ffffffff1660e01b8152600401611d1a9594939291906138ce565b602060405180830381600087803b158015611d3457600080fd5b505af1925050508015611d6557506040513d601f19601f82011682018060405250810190611d6291906136b8565b60015b611e0b57611d716136f2565b806308c379a01415611dce5750611d86613714565b80611d915750611dd0565b806040517f08c379a0000000000000000000000000000000000000000000000000000000008152600401611dc5919061226a565b60405180910390fd5b505b6040517f08c379a0000000000000000000000000000000000000000000000000000000008152600401611e029061381c565b60405180910390fd5b63f23a6e6160e01b7bffffffffffffffffffffffffffffffffffffffffffffffffffffffff1916817bffffffffffffffffffffffffffffffffffffffffffffffffffffffff191614611e92576040517f08c379a0000000000000000000000000000000000000000000000000000000008152600401611e89906138ae565b60405180910390fd5b505b505050505050565b6000808273ffffffffffffffffffffffffffffffffffffffff163b119050919050565b600060019054906101000a900460ff16611f0e576040517f08c379a0000000000000000000000000000000000000000000000000000000008152600401611f0590613410565b60405180910390fd5b611f1781611f1a565b50565b8060679080519060200190611f30929190611f34565b5050565b828054611f4090612c3c565b90600052602060002090601f016020900481019282611f625760008555611fa9565b82601f10611f7b57805160ff1916838001178555611fa9565b82800160010185558215611fa9579182015b82811115611fa8578251825591602001919060010190611f8d565b5b509050611fb69190611fba565b5090565b5b80821115611fd3576000816000905550600101611fbb565b5090565b6000604051905090565b600080fd5b600080fd5b600073ffffffffffffffffffffffffffffffffffffffff82169050919050565b600061201682611feb565b9050919050565b6120268161200b565b811461203157600080fd5b50565b6000813590506120438161201d565b92915050565b6000819050919050565b61205c81612049565b811461206757600080fd5b50565b60008135905061207981612053565b92915050565b6000806040838503121561209657612095611fe1565b5b60006120a485828601612034565b92505060206120b58582860161206a565b9150509250929050565b6120c881612049565b82525050565b60006020820190506120e360008301846120bf565b92915050565b60007fffffffff0000000000000000000000000000000000000000000000000000000082169050919050565b61211e816120e9565b811461212957600080fd5b50565b60008135905061213b81612115565b92915050565b60006020828403121561215757612156611fe1565b5b60006121658482850161212c565b91505092915050565b60008115159050919050565b6121838161216e565b82525050565b600060208201905061219e600083018461217a565b92915050565b6000602082840312156121ba576121b9611fe1565b5b60006121c88482850161206a565b91505092915050565b600081519050919050565b600082825260208201905092915050565b60005b8381101561220b5780820151818401526020810190506121f0565b8381111561221a576000848401525b50505050565b6000601f19601f8301169050919050565b600061223c826121d1565b61224681856121dc565b93506122568185602086016121ed565b61225f81612220565b840191505092915050565b600060208201905081810360008301526122848184612231565b905092915050565b600080fd5b7f4e487b7100000000000000000000000000000000000000000000000000000000600052604160045260246000fd5b6122c982612220565b810181811067ffffffffffffffff821117156122e8576122e7612291565b5b80604052505050565b60006122fb611fd7565b905061230782826122c0565b919050565b600067ffffffffffffffff82111561232757612326612291565b5b602082029050602081019050919050565b600080fd5b600061235061234b8461230c565b6122f1565b9050808382526020820190506020840283018581111561237357612372612338565b5b835b8181101561239c5780612388888261206a565b845260208401935050602081019050612375565b5050509392505050565b600082601f8301126123bb576123ba61228c565b5b81356123cb84826020860161233d565b91505092915050565b600080fd5b600067ffffffffffffffff8211156123f4576123f3612291565b5b6123fd82612220565b9050602081019050919050565b82818337600083830152505050565b600061242c612427846123d9565b6122f1565b905082815260208101848484011115612448576124476123d4565b5b61245384828561240a565b509392505050565b600082601f8301126124705761246f61228c565b5b8135612480848260208601612419565b91505092915050565b600080600080600060a086880312156124a5576124a4611fe1565b5b60006124b388828901612034565b95505060206124c488828901612034565b945050604086013567ffffffffffffffff8111156124e5576124e4611fe6565b5b6124f1888289016123a6565b935050606086013567ffffffffffffffff81111561251257612511611fe6565b5b61251e888289016123a6565b925050608086013567ffffffffffffffff81111561253f5761253e611fe6565b5b61254b8882890161245b565b9150509295509295909350565b6000819050919050565b600061257d61257861257384611feb565b612558565b611feb565b9050919050565b600061258f82612562565b9050919050565b60006125a182612584565b9050919050565b6125b181612596565b82525050565b60006020820190506125cc60008301846125a8565b92915050565b600067ffffffffffffffff8211156125ed576125ec612291565b5b602082029050602081019050919050565b600061261161260c846125d2565b6122f1565b9050808382526020820190506020840283018581111561263457612633612338565b5b835b8181101561265d57806126498882612034565b845260208401935050602081019050612636565b5050509392505050565b600082601f83011261267c5761267b61228c565b5b813561268c8482602086016125fe565b91505092915050565b600080604083850312156126ac576126ab611fe1565b5b600083013567ffffffffffffffff8111156126ca576126c9611fe6565b5b6126d685828601612667565b925050602083013567ffffffffffffffff8111156126f7576126f6611fe6565b5b612703858286016123a6565b9150509250929050565b600081519050919050565b600082825260208201905092915050565b6000819050602082019050919050565b61274281612049565b82525050565b60006127548383612739565b60208301905092915050565b6000602082019050919050565b60006127788261270d565b6127828185612718565b935061278d83612729565b8060005b838110156127be5781516127a58882612748565b97506127b083612760565b925050600181019050612791565b5085935050505092915050565b600060208201905081810360008301526127e5818461276d565b905092915050565b6000806000806080858703121561280757612806611fe1565b5b600061281587828801612034565b94505060206128268782880161206a565b93505060406128378782880161206a565b925050606085013567ffffffffffffffff81111561285857612857611fe6565b5b6128648782880161245b565b91505092959194509250565b600067ffffffffffffffff82111561288b5761288a612291565b5b61289482612220565b9050602081019050919050565b60006128b46128af84612870565b6122f1565b9050828152602081018484840111156128d0576128cf6123d4565b5b6128db84828561240a565b509392505050565b600082601f8301126128f8576128f761228c565b5b81356129088482602086016128a1565b91505092915050565b60008060006060848603121561292a57612929611fe1565b5b600084013567ffffffffffffffff81111561294857612947611fe6565b5b612954868287016128e3565b935050602061296586828701612034565b925050604084013567ffffffffffffffff81111561298657612985611fe6565b5b612992868287016128e3565b9150509250925092565b6129a58161216e565b81146129b057600080fd5b50565b6000813590506129c28161299c565b92915050565b600080604083850312156129df576129de611fe1565b5b60006129ed85828601612034565b92505060206129fe858286016129b3565b9150509250929050565b600060208284031215612a1e57612a1d611fe1565b5b600082013567ffffffffffffffff811115612a3c57612a3b611fe6565b5b612a48848285016128e3565b91505092915050565b60008060408385031215612a6857612a67611fe1565b5b6000612a7685828601612034565b9250506020612a8785828601612034565b9150509250929050565b600080600080600060a08688031215612aad57612aac611fe1565b5b6000612abb88828901612034565b9550506020612acc88828901612034565b9450506040612add8882890161206a565b9350506060612aee8882890161206a565b925050608086013567ffffffffffffffff811115612b0f57612b0e611fe6565b5b612b1b8882890161245b565b9150509295509295909350565b600080600060608486031215612b4157612b40611fe1565b5b6000612b4f86828701612034565b9350506020612b608682870161206a565b9250506040612b718682870161206a565b9150509250925092565b7f455243313135353a2062616c616e636520717565727920666f7220746865207a60008201527f65726f2061646472657373000000000000000000000000000000000000000000602082015250565b6000612bd7602b836121dc565b9150612be282612b7b565b604082019050919050565b60006020820190508181036000830152612c0681612bca565b9050919050565b7f4e487b7100000000000000000000000000000000000000000000000000000000600052602260045260246000fd5b60006002820490506001821680612c5457607f821691505b60208210811415612c6857612c67612c0d565b5b50919050565b7f455243313135353a207472616e736665722063616c6c6572206973206e6f742060008201527f6f776e6572206e6f7220617070726f7665640000000000000000000000000000602082015250565b6000612cca6032836121dc565b9150612cd582612c6e565b604082019050919050565b60006020820190508181036000830152612cf981612cbd565b9050919050565b7f455243313135353a206163636f756e747320616e6420696473206c656e67746860008201527f206d69736d617463680000000000000000000000000000000000000000000000602082015250565b6000612d5c6029836121dc565b9150612d6782612d00565b604082019050919050565b60006020820190508181036000830152612d8b81612d4f565b9050919050565b7f4e487b7100000000000000000000000000000000000000000000000000000000600052603260045260246000fd5b7f4e487b7100000000000000000000000000000000000000000000000000000000600052601160045260246000fd5b6000612dfb82612049565b91507fffffffffffffffffffffffffffffffffffffffffffffffffffffffffffffffff821415612e2e57612e2d612dc1565b5b600182019050919050565b6000612e448261200b565b9050919050565b612e5481612e39565b8114612e5f57600080fd5b50565b600081519050612e7181612e4b565b92915050565b600060208284031215612e8d57612e8c611fe1565b5b6000612e9b84828501612e62565b91505092915050565b612ead8161200b565b82525050565b6000602082019050612ec86000830184612ea4565b92915050565b600081519050612edd8161299c565b92915050565b600060208284031215612ef957612ef8611fe1565b5b6000612f0784828501612ece565b91505092915050565b7f4e6f742041646d696e0000000000000000000000000000000000000000000000600082015250565b6000612f466009836121dc565b9150612f5182612f10565b602082019050919050565b60006020820190508181036000830152612f7581612f39565b9050919050565b7f496e697469616c697a61626c653a20636f6e747261637420697320616c72656160008201527f647920696e697469616c697a6564000000000000000000000000000000000000602082015250565b6000612fd8602e836121dc565b9150612fe382612f7c565b604082019050919050565b6000602082019050818103600083015261300781612fcb565b9050919050565b7f455243313135353a2063616c6c6572206973206e6f74206f776e6572206e6f7260008201527f20617070726f7665640000000000000000000000000000000000000000000000602082015250565b600061306a6029836121dc565b91506130758261300e565b604082019050919050565b600060208201905081810360008301526130998161305d565b9050919050565b7f455243313135353a2069647320616e6420616d6f756e7473206c656e6774682060008201527f6d69736d61746368000000000000000000000000000000000000000000000000602082015250565b60006130fc6028836121dc565b9150613107826130a0565b604082019050919050565b6000602082019050818103600083015261312b816130ef565b9050919050565b7f455243313135353a207472616e7366657220746f20746865207a65726f20616460008201527f6472657373000000000000000000000000000000000000000000000000000000602082015250565b600061318e6025836121dc565b915061319982613132565b604082019050919050565b600060208201905081810360008301526131bd81613181565b9050919050565b7f455243313135353a20696e73756666696369656e742062616c616e636520666f60008201527f72207472616e7366657200000000000000000000000000000000000000000000602082015250565b6000613220602a836121dc565b915061322b826131c4565b604082019050919050565b6000602082019050818103600083015261324f81613213565b9050919050565b600061326182612049565b915061326c83612049565b9250827fffffffffffffffffffffffffffffffffffffffffffffffffffffffffffffffff038211156132a1576132a0612dc1565b5b828201905092915050565b600060408201905081810360008301526132c6818561276d565b905081810360208301526132da818461276d565b90509392505050565b7f455243313135353a206d696e7420746f20746865207a65726f2061646472657360008201527f7300000000000000000000000000000000000000000000000000000000000000602082015250565b600061333f6021836121dc565b915061334a826132e3565b604082019050919050565b6000602082019050818103600083015261336e81613332565b9050919050565b600060408201905061338a60008301856120bf565b61339760208301846120bf565b9392505050565b7f496e697469616c697a61626c653a20636f6e7472616374206973206e6f74206960008201527f6e697469616c697a696e67000000000000000000000000000000000000000000602082015250565b60006133fa602b836121dc565b91506134058261339e565b604082019050919050565b60006020820190508181036000830152613429816133ed565b9050919050565b7f455243313135353a2073657474696e6720617070726f76616c2073746174757360008201527f20666f722073656c660000000000000000000000000000000000000000000000602082015250565b600061348c6029836121dc565b915061349782613430565b604082019050919050565b600060208201905081810360008301526134bb8161347f565b9050919050565b7f455243313135353a206275726e2066726f6d20746865207a65726f206164647260008201527f6573730000000000000000000000000000000000000000000000000000000000602082015250565b600061351e6023836121dc565b9150613529826134c2565b604082019050919050565b6000602082019050818103600083015261354d81613511565b9050919050565b7f455243313135353a206275726e20616d6f756e7420657863656564732062616c60008201527f616e636500000000000000000000000000000000000000000000000000000000602082015250565b60006135b06024836121dc565b91506135bb82613554565b604082019050919050565b600060208201905081810360008301526135df816135a3565b9050919050565b600081519050919050565b600082825260208201905092915050565b600061360d826135e6565b61361781856135f1565b93506136278185602086016121ed565b61363081612220565b840191505092915050565b600060a0820190506136506000830188612ea4565b61365d6020830187612ea4565b818103604083015261366f818661276d565b90508181036060830152613683818561276d565b905081810360808301526136978184613602565b90509695505050505050565b6000815190506136b281612115565b92915050565b6000602082840312156136ce576136cd611fe1565b5b60006136dc848285016136a3565b91505092915050565b60008160e01c9050919050565b600060033d11156137115760046000803e61370e6000516136e5565b90505b90565b600060443d1015613724576137a7565b61372c611fd7565b60043d036004823e80513d602482011167ffffffffffffffff821117156137545750506137a7565b808201805167ffffffffffffffff81111561377257505050506137a7565b80602083010160043d03850181111561378f5750505050506137a7565b61379e826020018501866122c0565b82955050505050505b90565b7f455243313135353a207472616e7366657220746f206e6f6e204552433131353560008201527f526563656976657220696d706c656d656e746572000000000000000000000000602082015250565b60006138066034836121dc565b9150613811826137aa565b604082019050919050565b60006020820190508181036000830152613835816137f9565b9050919050565b7f455243313135353a204552433131353552656365697665722072656a6563746560008201527f6420746f6b656e73000000000000000000000000000000000000000000000000602082015250565b60006138986028836121dc565b91506138a38261383c565b604082019050919050565b600060208201905081810360008301526138c78161388b565b9050919050565b600060a0820190506138e36000830188612ea4565b6138f06020830187612ea4565b6138fd60408301866120bf565b61390a60608301856120bf565b818103608083015261391c8184613602565b9050969550505050505056fea2646970667358221220dab1512cdd554acc0ae64f56c811eac62859d1e4d0d984fd166b6704f28e5b6264736f6c63430008090033",
  "devdoc": {
    "details": "This contract will be used to track Curator Token ownership Only the Curator Vault can mint or burn tokens Note: This contract is protected via a permissioned account set in the role manager.  Caution should be used as the role owner could renounce the role leaving all future actions disabled.  Additionally, if a malicious account was able to obtain the role, they could use it to mint or burn tokens. See the public documentation website for more details.",
    "kind": "dev",
    "methods": {
      "balanceOf(address,uint256)": {
        "details": "See {IERC1155-balanceOf}. Requirements: - `account` cannot be the zero address."
      },
      "balanceOfBatch(address[],uint256[])": {
        "details": "See {IERC1155-balanceOfBatch}. Requirements: - `accounts` and `ids` must have the same length."
      },
      "burn(address,uint256,uint256)": {
        "details": "Allows reaction burner role to burn tokens"
      },
      "initialize(string,address,string)": {
        "details": "initializer to call after deployment, can only be called once"
      },
      "isApprovedForAll(address,address)": {
        "details": "See {IERC1155-isApprovedForAll}."
      },
      "mint(address,uint256,uint256,bytes)": {
        "details": "Allows reaction minter role to mint tokens"
      },
      "safeBatchTransferFrom(address,address,uint256[],uint256[],bytes)": {
        "details": "See {IERC1155-safeBatchTransferFrom}."
      },
      "safeTransferFrom(address,address,uint256,uint256,bytes)": {
        "details": "See {IERC1155-safeTransferFrom}."
      },
      "setApprovalForAll(address,bool)": {
        "details": "See {IERC1155-setApprovalForAll}."
      },
      "supportsInterface(bytes4)": {
        "details": "See {IERC165-supportsInterface}."
      },
      "uri(uint256)": {
        "details": "See {IERC1155MetadataURI-uri}. This implementation returns the same URI for *all* token types. It relies on the token type ID substitution mechanism https://eips.ethereum.org/EIPS/eip-1155#metadata[defined in the EIP]. Clients calling this function must replace the `\\{id\\}` substring with the actual token type ID."
      }
    },
    "title": "CuratorToken1155",
    "version": 1
  },
  "userdoc": {
    "kind": "user",
    "methods": {},
    "version": 1
  },
  "storageLayout": {
    "storage": [
      {
        "astId": 6,
        "contract": "contracts/CuratorVault/Token/CuratorToken1155.sol:CuratorToken1155",
        "label": "_initialized",
        "offset": 0,
        "slot": "0",
        "type": "t_bool"
      },
      {
        "astId": 9,
        "contract": "contracts/CuratorVault/Token/CuratorToken1155.sol:CuratorToken1155",
        "label": "_initializing",
        "offset": 1,
        "slot": "0",
        "type": "t_bool"
      },
      {
        "astId": 1955,
        "contract": "contracts/CuratorVault/Token/CuratorToken1155.sol:CuratorToken1155",
        "label": "__gap",
        "offset": 0,
        "slot": "1",
        "type": "t_array(t_uint256)50_storage"
      },
      {
        "astId": 1999,
        "contract": "contracts/CuratorVault/Token/CuratorToken1155.sol:CuratorToken1155",
        "label": "__gap",
        "offset": 0,
        "slot": "51",
        "type": "t_array(t_uint256)50_storage"
      },
      {
        "astId": 102,
        "contract": "contracts/CuratorVault/Token/CuratorToken1155.sol:CuratorToken1155",
        "label": "_balances",
        "offset": 0,
        "slot": "101",
        "type": "t_mapping(t_uint256,t_mapping(t_address,t_uint256))"
      },
      {
        "astId": 108,
        "contract": "contracts/CuratorVault/Token/CuratorToken1155.sol:CuratorToken1155",
        "label": "_operatorApprovals",
        "offset": 0,
        "slot": "102",
        "type": "t_mapping(t_address,t_mapping(t_address,t_bool))"
      },
      {
        "astId": 110,
        "contract": "contracts/CuratorVault/Token/CuratorToken1155.sol:CuratorToken1155",
        "label": "_uri",
        "offset": 0,
        "slot": "103",
        "type": "t_string_storage"
      },
      {
        "astId": 1190,
        "contract": "contracts/CuratorVault/Token/CuratorToken1155.sol:CuratorToken1155",
        "label": "__gap",
        "offset": 0,
        "slot": "104",
        "type": "t_array(t_uint256)47_storage"
      },
      {
        "astId": 2755,
        "contract": "contracts/CuratorVault/Token/CuratorToken1155.sol:CuratorToken1155",
        "label": "addressManager",
        "offset": 0,
        "slot": "151",
        "type": "t_contract(IAddressManager)2115"
      },
      {
        "astId": 2761,
        "contract": "contracts/CuratorVault/Token/CuratorToken1155.sol:CuratorToken1155",
        "label": "contractUri",
        "offset": 0,
        "slot": "152",
        "type": "t_string_storage"
      }
    ],
    "types": {
      "t_address": {
        "encoding": "inplace",
        "label": "address",
        "numberOfBytes": "20"
      },
      "t_array(t_uint256)47_storage": {
        "base": "t_uint256",
        "encoding": "inplace",
        "label": "uint256[47]",
        "numberOfBytes": "1504"
      },
      "t_array(t_uint256)50_storage": {
        "base": "t_uint256",
        "encoding": "inplace",
        "label": "uint256[50]",
        "numberOfBytes": "1600"
      },
      "t_bool": {
        "encoding": "inplace",
        "label": "bool",
        "numberOfBytes": "1"
      },
      "t_contract(IAddressManager)2115": {
        "encoding": "inplace",
        "label": "contract IAddressManager",
        "numberOfBytes": "20"
      },
      "t_mapping(t_address,t_bool)": {
        "encoding": "mapping",
        "key": "t_address",
        "label": "mapping(address => bool)",
        "numberOfBytes": "32",
        "value": "t_bool"
      },
      "t_mapping(t_address,t_mapping(t_address,t_bool))": {
        "encoding": "mapping",
        "key": "t_address",
        "label": "mapping(address => mapping(address => bool))",
        "numberOfBytes": "32",
        "value": "t_mapping(t_address,t_bool)"
      },
      "t_mapping(t_address,t_uint256)": {
        "encoding": "mapping",
        "key": "t_address",
        "label": "mapping(address => uint256)",
        "numberOfBytes": "32",
        "value": "t_uint256"
      },
      "t_mapping(t_uint256,t_mapping(t_address,t_uint256))": {
        "encoding": "mapping",
        "key": "t_uint256",
        "label": "mapping(uint256 => mapping(address => uint256))",
        "numberOfBytes": "32",
        "value": "t_mapping(t_address,t_uint256)"
      },
      "t_string_storage": {
        "encoding": "bytes",
        "label": "string",
        "numberOfBytes": "32"
      },
      "t_uint256": {
        "encoding": "inplace",
        "label": "uint256",
        "numberOfBytes": "32"
      }
    }
  }
}