{
  "address": "0xC73A37EE81E26008eC11688C45c07406fF8EdDF8",
  "abi": [
    {
      "anonymous": false,
      "inputs": [
        {
          "indexed": true,
          "internalType": "address",
          "name": "account",
          "type": "address"
        },
        {
          "indexed": true,
          "internalType": "address",
          "name": "operator",
          "type": "address"
        },
        {
          "indexed": false,
          "internalType": "bool",
          "name": "approved",
          "type": "bool"
        }
      ],
      "name": "ApprovalForAll",
      "type": "event"
    },
    {
      "anonymous": false,
      "inputs": [
        {
          "indexed": true,
          "internalType": "address",
          "name": "operator",
          "type": "address"
        },
        {
          "indexed": true,
          "internalType": "address",
          "name": "from",
          "type": "address"
        },
        {
          "indexed": true,
          "internalType": "address",
          "name": "to",
          "type": "address"
        },
        {
          "indexed": false,
          "internalType": "uint256[]",
          "name": "ids",
          "type": "uint256[]"
        },
        {
          "indexed": false,
          "internalType": "uint256[]",
          "name": "values",
          "type": "uint256[]"
        }
      ],
      "name": "TransferBatch",
      "type": "event"
    },
    {
      "anonymous": false,
      "inputs": [
        {
          "indexed": true,
          "internalType": "address",
          "name": "operator",
          "type": "address"
        },
        {
          "indexed": true,
          "internalType": "address",
          "name": "from",
          "type": "address"
        },
        {
          "indexed": true,
          "internalType": "address",
          "name": "to",
          "type": "address"
        },
        {
          "indexed": false,
          "internalType": "uint256",
          "name": "id",
          "type": "uint256"
        },
        {
          "indexed": false,
          "internalType": "uint256",
          "name": "value",
          "type": "uint256"
        }
      ],
      "name": "TransferSingle",
      "type": "event"
    },
    {
      "anonymous": false,
      "inputs": [
        {
          "indexed": false,
          "internalType": "string",
          "name": "value",
          "type": "string"
        },
        {
          "indexed": true,
          "internalType": "uint256",
          "name": "id",
          "type": "uint256"
        }
      ],
      "name": "URI",
      "type": "event"
    },
    {
      "inputs": [],
      "name": "addressManager",
      "outputs": [
        {
          "internalType": "contract IAddressManager",
          "name": "",
          "type": "address"
        }
      ],
      "stateMutability": "view",
      "type": "function"
    },
    {
      "inputs": [
        {
          "internalType": "address",
          "name": "account",
          "type": "address"
        },
        {
          "internalType": "uint256",
          "name": "id",
          "type": "uint256"
        }
      ],
      "name": "balanceOf",
      "outputs": [
        {
          "internalType": "uint256",
          "name": "",
          "type": "uint256"
        }
      ],
      "stateMutability": "view",
      "type": "function"
    },
    {
      "inputs": [
        {
          "internalType": "address[]",
          "name": "accounts",
          "type": "address[]"
        },
        {
          "internalType": "uint256[]",
          "name": "ids",
          "type": "uint256[]"
        }
      ],
      "name": "balanceOfBatch",
      "outputs": [
        {
          "internalType": "uint256[]",
          "name": "",
          "type": "uint256[]"
        }
      ],
      "stateMutability": "view",
      "type": "function"
    },
    {
      "inputs": [
        {
          "internalType": "address",
          "name": "from",
          "type": "address"
        },
        {
          "internalType": "uint256",
          "name": "id",
          "type": "uint256"
        },
        {
          "internalType": "uint256",
          "name": "amount",
          "type": "uint256"
        }
      ],
      "name": "burn",
      "outputs": [],
      "stateMutability": "nonpayable",
      "type": "function"
    },
    {
      "inputs": [],
      "name": "contractURI",
      "outputs": [
        {
          "internalType": "string",
          "name": "",
          "type": "string"
        }
      ],
      "stateMutability": "view",
      "type": "function"
    },
    {
      "inputs": [
        {
          "internalType": "string",
          "name": "_uri",
          "type": "string"
        },
        {
          "internalType": "address",
          "name": "_addressManager",
          "type": "address"
        },
        {
          "internalType": "string",
          "name": "_contractUri",
          "type": "string"
        }
      ],
      "name": "initialize",
      "outputs": [],
      "stateMutability": "nonpayable",
      "type": "function"
    },
    {
      "inputs": [
        {
          "internalType": "address",
          "name": "account",
          "type": "address"
        },
        {
          "internalType": "address",
          "name": "operator",
          "type": "address"
        }
      ],
      "name": "isApprovedForAll",
      "outputs": [
        {
          "internalType": "bool",
          "name": "",
          "type": "bool"
        }
      ],
      "stateMutability": "view",
      "type": "function"
    },
    {
      "inputs": [
        {
          "internalType": "address",
          "name": "to",
          "type": "address"
        },
        {
          "internalType": "uint256",
          "name": "id",
          "type": "uint256"
        },
        {
          "internalType": "uint256",
          "name": "amount",
          "type": "uint256"
        },
        {
          "internalType": "bytes",
          "name": "data",
          "type": "bytes"
        }
      ],
      "name": "mint",
      "outputs": [],
      "stateMutability": "nonpayable",
      "type": "function"
    },
    {
      "inputs": [
        {
          "internalType": "address",
          "name": "from",
          "type": "address"
        },
        {
          "internalType": "address",
          "name": "to",
          "type": "address"
        },
        {
          "internalType": "uint256[]",
          "name": "ids",
          "type": "uint256[]"
        },
        {
          "internalType": "uint256[]",
          "name": "amounts",
          "type": "uint256[]"
        },
        {
          "internalType": "bytes",
          "name": "data",
          "type": "bytes"
        }
      ],
      "name": "safeBatchTransferFrom",
      "outputs": [],
      "stateMutability": "nonpayable",
      "type": "function"
    },
    {
      "inputs": [
        {
          "internalType": "address",
          "name": "from",
          "type": "address"
        },
        {
          "internalType": "address",
          "name": "to",
          "type": "address"
        },
        {
          "internalType": "uint256",
          "name": "id",
          "type": "uint256"
        },
        {
          "internalType": "uint256",
          "name": "amount",
          "type": "uint256"
        },
        {
          "internalType": "bytes",
          "name": "data",
          "type": "bytes"
        }
      ],
      "name": "safeTransferFrom",
      "outputs": [],
      "stateMutability": "nonpayable",
      "type": "function"
    },
    {
      "inputs": [
        {
          "internalType": "address",
          "name": "operator",
          "type": "address"
        },
        {
          "internalType": "bool",
          "name": "approved",
          "type": "bool"
        }
      ],
      "name": "setApprovalForAll",
      "outputs": [],
      "stateMutability": "nonpayable",
      "type": "function"
    },
    {
      "inputs": [
        {
          "internalType": "string",
          "name": "_contractUri",
          "type": "string"
        }
      ],
      "name": "setContractUri",
      "outputs": [
        {
          "internalType": "bool",
          "name": "success",
          "type": "bool"
        }
      ],
      "stateMutability": "nonpayable",
      "type": "function"
    },
    {
      "inputs": [
        {
          "internalType": "bytes4",
          "name": "interfaceId",
          "type": "bytes4"
        }
      ],
      "name": "supportsInterface",
      "outputs": [
        {
          "internalType": "bool",
          "name": "",
          "type": "bool"
        }
      ],
      "stateMutability": "view",
      "type": "function"
    },
    {
      "inputs": [
        {
          "internalType": "uint256",
          "name": "",
          "type": "uint256"
        }
      ],
      "name": "uri",
      "outputs": [
        {
          "internalType": "string",
          "name": "",
          "type": "string"
        }
      ],
      "stateMutability": "view",
      "type": "function"
    }
  ],
  "transactionHash": "0xa26b4bd4aef3b35d36a2ad411004692ec6a61b177d825e8cd2e403272e6e6ca9",
  "args": [],
  "numDeployments": 3,
  "solcInputHash": "c5133092ee888b5b6431f6825032026e",
  "bytecode": "0x608060405234801561001057600080fd5b50611f22806100206000396000f3fe608060405234801561001057600080fd5b50600436106100c95760003560e01c806395a2fadc1161007c57806395a2fadc1461019f578063a22cb465146101b2578063ccb4807b146101c5578063e8a3d485146101d8578063e985e9c5146101e0578063f242432a1461021c578063f5298aca1461022f57600080fd5b8062fdd58e146100ce57806301ffc9a7146100f45780630e89341c146101175780632eb2c2d6146101375780633ab76e9f1461014c5780634e1273f41461016c578063731133e91461018c575b600080fd5b6100e16100dc3660046114f6565b610242565b6040519081526020015b60405180910390f35b610107610102366004611538565b6102db565b60405190151581526020016100eb565b61012a61012536600461155c565b61032d565b6040516100eb91906115c2565b61014a61014536600461171e565b6103c1565b005b60975461015f906001600160a01b031681565b6040516100eb91906117cb565b61017f61017a3660046117df565b610458565b6040516100eb91906118e6565b61014a61019a3660046118f9565b610581565b61014a6101ad36600461195b565b6106b1565b61014a6101c03660046119e0565b6107a4565b6101076101d3366004611a19565b6107b3565b61012a6108e2565b6101076101ee366004611a55565b6001600160a01b03918216600090815260666020908152604080832093909416825291909152205460ff1690565b61014a61022a366004611a83565b610970565b61014a61023d366004611aeb565b6109f7565b60006001600160a01b0383166102b35760405162461bcd60e51b815260206004820152602b60248201527f455243313135353a2062616c616e636520717565727920666f7220746865207a60448201526a65726f206164647265737360a81b60648201526084015b60405180910390fd5b5060009081526065602090815260408083206001600160a01b03949094168352929052205490565b60006001600160e01b03198216636cdb3d1360e11b148061030c57506001600160e01b031982166303a24d0760e21b145b8061032757506301ffc9a760e01b6001600160e01b03198316145b92915050565b60606067805461033c90611b20565b80601f016020809104026020016040519081016040528092919081815260200182805461036890611b20565b80156103b55780601f1061038a576101008083540402835291602001916103b5565b820191906000526020600020905b81548152906001019060200180831161039857829003601f168201915b50505050509050919050565b6001600160a01b0385163314806103dd57506103dd85336101ee565b6104445760405162461bcd60e51b815260206004820152603260248201527f455243313135353a207472616e736665722063616c6c6572206973206e6f74206044820152711bdddb995c881b9bdc88185c1c1c9bdd995960721b60648201526084016102aa565b6104518585858585610b25565b5050505050565b606081518351146104bd5760405162461bcd60e51b815260206004820152602960248201527f455243313135353a206163636f756e747320616e6420696473206c656e677468604482015268040dad2e6dac2e8c6d60bb1b60648201526084016102aa565b600083516001600160401b038111156104d8576104d86115d5565b604051908082528060200260200182016040528015610501578160200160208202803683370190505b50905060005b84518110156105795761054c85828151811061052557610525611b5b565b602002602001015185838151811061053f5761053f611b5b565b6020026020010151610242565b82828151811061055e5761055e611b5b565b602090810291909101015261057281611b87565b9050610507565b509392505050565b609760009054906101000a90046001600160a01b03166001600160a01b031662435da56040518163ffffffff1660e01b8152600401602060405180830381600087803b1580156105d057600080fd5b505af11580156105e4573d6000803e3d6000fd5b505050506040513d601f19601f820116820180604052508101906106089190611ba2565b6001600160a01b031663fbac0352336040518263ffffffff1660e01b815260040161063391906117cb565b60206040518083038186803b15801561064b57600080fd5b505afa15801561065f573d6000803e3d6000fd5b505050506040513d601f19601f820116820180604052508101906106839190611bbf565b61069f5760405162461bcd60e51b81526004016102aa90611bdc565b6106ab84848484610d05565b50505050565b600054610100900460ff166106cc5760005460ff16156106d0565b303b155b6107335760405162461bcd60e51b815260206004820152602e60248201527f496e697469616c697a61626c653a20636f6e747261637420697320616c72656160448201526d191e481a5b9a5d1a585b1a5e995960921b60648201526084016102aa565b600054610100900460ff16158015610755576000805461ffff19166101011790555b61075e84610dff565b609780546001600160a01b0319166001600160a01b038516179055815161078c906098906020850190611448565b5080156106ab576000805461ff001916905550505050565b6107af338383610e32565b5050565b6097546040805162435da560e01b815290516000926001600160a01b03169162435da591600480830192602092919082900301818787803b1580156107f757600080fd5b505af115801561080b573d6000803e3d6000fd5b505050506040513d601f19601f8201168201806040525081019061082f9190611ba2565b6001600160a01b031663fbac0352336040518263ffffffff1660e01b815260040161085a91906117cb565b60206040518083038186803b15801561087257600080fd5b505afa158015610886573d6000803e3d6000fd5b505050506040513d601f19601f820116820180604052508101906108aa9190611bbf565b6108c65760405162461bcd60e51b81526004016102aa90611bdc565b81516108d9906098906020850190611448565b50600192915050565b609880546108ef90611b20565b80601f016020809104026020016040519081016040528092919081815260200182805461091b90611b20565b80156109685780601f1061093d57610100808354040283529160200191610968565b820191906000526020600020905b81548152906001019060200180831161094b57829003601f168201915b505050505081565b6001600160a01b03851633148061098c575061098c85336101ee565b6109ea5760405162461bcd60e51b815260206004820152602960248201527f455243313135353a2063616c6c6572206973206e6f74206f776e6572206e6f7260448201526808185c1c1c9bdd995960ba1b60648201526084016102aa565b6104518585858585610f13565b609760009054906101000a90046001600160a01b03166001600160a01b031662435da56040518163ffffffff1660e01b8152600401602060405180830381600087803b158015610a4657600080fd5b505af1158015610a5a573d6000803e3d6000fd5b505050506040513d601f19601f82011682018060405250810190610a7e9190611ba2565b6001600160a01b031663fbac0352336040518263ffffffff1660e01b8152600401610aa991906117cb565b60206040518083038186803b158015610ac157600080fd5b505afa158015610ad5573d6000803e3d6000fd5b505050506040513d601f19601f82011682018060405250810190610af99190611bbf565b610b155760405162461bcd60e51b81526004016102aa90611bdc565b610b20838383611022565b505050565b8151835114610b875760405162461bcd60e51b815260206004820152602860248201527f455243313135353a2069647320616e6420616d6f756e7473206c656e677468206044820152670dad2e6dac2e8c6d60c31b60648201526084016102aa565b6001600160a01b038416610bad5760405162461bcd60e51b81526004016102aa90611bff565b3360005b8451811015610c97576000858281518110610bce57610bce611b5b565b602002602001015190506000858381518110610bec57610bec611b5b565b60209081029190910181015160008481526065835260408082206001600160a01b038e168352909352919091205490915081811015610c3d5760405162461bcd60e51b81526004016102aa90611c44565b60008381526065602090815260408083206001600160a01b038e8116855292528083208585039055908b16825281208054849290610c7c908490611c8e565b9250508190555050505080610c9090611b87565b9050610bb1565b50846001600160a01b0316866001600160a01b0316826001600160a01b03167f4a39dc06d4c0dbc64b70af90fd698a233a518aa5d07e595d983b8c0526c8f7fb8787604051610ce7929190611ca6565b60405180910390a4610cfd81878787878761118e565b505050505050565b6001600160a01b038416610d655760405162461bcd60e51b815260206004820152602160248201527f455243313135353a206d696e7420746f20746865207a65726f206164647265736044820152607360f81b60648201526084016102aa565b33610d7f81600087610d76886112f9565b610451886112f9565b60008481526065602090815260408083206001600160a01b038916845290915281208054859290610db1908490611c8e565b909155505060408051858152602081018590526001600160a01b038088169260009291851691600080516020611ecd833981519152910160405180910390a461045181600087878787611344565b600054610100900460ff16610e265760405162461bcd60e51b81526004016102aa90611cd4565b610e2f8161140e565b50565b816001600160a01b0316836001600160a01b03161415610ea65760405162461bcd60e51b815260206004820152602960248201527f455243313135353a2073657474696e6720617070726f76616c20737461747573604482015268103337b91039b2b63360b91b60648201526084016102aa565b6001600160a01b03838116600081815260666020908152604080832094871680845294825291829020805460ff191686151590811790915591519182527f17307eab39ab6107e8899845ad3d59bd9653f200f220920489ca2b5937696c31910160405180910390a3505050565b6001600160a01b038416610f395760405162461bcd60e51b81526004016102aa90611bff565b33610f49818787610d76886112f9565b60008481526065602090815260408083206001600160a01b038a16845290915290205483811015610f8c5760405162461bcd60e51b81526004016102aa90611c44565b60008581526065602090815260408083206001600160a01b038b8116855292528083208785039055908816825281208054869290610fcb908490611c8e565b909155505060408051868152602081018690526001600160a01b03808916928a82169291861691600080516020611ecd833981519152910160405180910390a4611019828888888888611344565b50505050505050565b6001600160a01b0383166110845760405162461bcd60e51b815260206004820152602360248201527f455243313135353a206275726e2066726f6d20746865207a65726f206164647260448201526265737360e81b60648201526084016102aa565b336110b481856000611095876112f9565b61109e876112f9565b5050604080516020810190915260009052505050565b60008381526065602090815260408083206001600160a01b0388168452909152902054828110156111335760405162461bcd60e51b8152602060048201526024808201527f455243313135353a206275726e20616d6f756e7420657863656564732062616c604482015263616e636560e01b60648201526084016102aa565b60008481526065602090815260408083206001600160a01b0389811680865291845282852088870390558251898152938401889052909290861691600080516020611ecd833981519152910160405180910390a45050505050565b6001600160a01b0384163b15610cfd5760405163bc197c8160e01b81526001600160a01b0385169063bc197c81906111d29089908990889088908890600401611d1f565b602060405180830381600087803b1580156111ec57600080fd5b505af192505050801561121c575060408051601f3d908101601f1916820190925261121991810190611d7d565b60015b6112c957611228611d9a565b806308c379a01415611262575061123d611db6565b806112485750611264565b8060405162461bcd60e51b81526004016102aa91906115c2565b505b60405162461bcd60e51b815260206004820152603460248201527f455243313135353a207472616e7366657220746f206e6f6e20455243313135356044820152732932b1b2b4bb32b91034b6b83632b6b2b73a32b960611b60648201526084016102aa565b6001600160e01b0319811663bc197c8160e01b146110195760405162461bcd60e51b81526004016102aa90611e3f565b6040805160018082528183019092526060916000919060208083019080368337019050509050828160008151811061133357611333611b5b565b602090810291909101015292915050565b6001600160a01b0384163b15610cfd5760405163f23a6e6160e01b81526001600160a01b0385169063f23a6e61906113889089908990889088908890600401611e87565b602060405180830381600087803b1580156113a257600080fd5b505af19250505080156113d2575060408051601f3d908101601f191682019092526113cf91810190611d7d565b60015b6113de57611228611d9a565b6001600160e01b0319811663f23a6e6160e01b146110195760405162461bcd60e51b81526004016102aa90611e3f565b600054610100900460ff166114355760405162461bcd60e51b81526004016102aa90611cd4565b610e2f8180516107af9060679060208401905b82805461145490611b20565b90600052602060002090601f01602090048101928261147657600085556114bc565b82601f1061148f57805160ff19168380011785556114bc565b828001600101855582156114bc579182015b828111156114bc5782518255916020019190600101906114a1565b506114c89291506114cc565b5090565b5b808211156114c857600081556001016114cd565b6001600160a01b0381168114610e2f57600080fd5b6000806040838503121561150957600080fd5b8235611514816114e1565b946020939093013593505050565b6001600160e01b031981168114610e2f57600080fd5b60006020828403121561154a57600080fd5b813561155581611522565b9392505050565b60006020828403121561156e57600080fd5b5035919050565b6000815180845260005b8181101561159b5760208185018101518683018201520161157f565b818111156115ad576000602083870101525b50601f01601f19169290920160200192915050565b6020815260006115556020830184611575565b634e487b7160e01b600052604160045260246000fd5b601f8201601f191681016001600160401b0381118282101715611610576116106115d5565b6040525050565b60006001600160401b03821115611630576116306115d5565b5060051b60200190565b600082601f83011261164b57600080fd5b8135602061165882611617565b60405161166582826115eb565b83815260059390931b850182019282810191508684111561168557600080fd5b8286015b848110156116a05780358352918301918301611689565b509695505050505050565b600082601f8301126116bc57600080fd5b81356001600160401b038111156116d5576116d56115d5565b6040516116ec601f8301601f1916602001826115eb565b81815284602083860101111561170157600080fd5b816020850160208301376000918101602001919091529392505050565b600080600080600060a0868803121561173657600080fd5b8535611741816114e1565b94506020860135611751816114e1565b935060408601356001600160401b038082111561176d57600080fd5b61177989838a0161163a565b9450606088013591508082111561178f57600080fd5b61179b89838a0161163a565b935060808801359150808211156117b157600080fd5b506117be888289016116ab565b9150509295509295909350565b6001600160a01b0391909116815260200190565b600080604083850312156117f257600080fd5b82356001600160401b038082111561180957600080fd5b818501915085601f83011261181d57600080fd5b8135602061182a82611617565b60405161183782826115eb565b83815260059390931b850182019282810191508984111561185757600080fd5b948201945b8386101561187e57853561186f816114e1565b8252948201949082019061185c565b9650508601359250508082111561189457600080fd5b506118a18582860161163a565b9150509250929050565b600081518084526020808501945080840160005b838110156118db578151875295820195908201906001016118bf565b509495945050505050565b60208152600061155560208301846118ab565b6000806000806080858703121561190f57600080fd5b843561191a816114e1565b9350602085013592506040850135915060608501356001600160401b0381111561194357600080fd5b61194f878288016116ab565b91505092959194509250565b60008060006060848603121561197057600080fd5b83356001600160401b038082111561198757600080fd5b611993878388016116ab565b9450602086013591506119a5826114e1565b909250604085013590808211156119bb57600080fd5b506119c8868287016116ab565b9150509250925092565b8015158114610e2f57600080fd5b600080604083850312156119f357600080fd5b82356119fe816114e1565b91506020830135611a0e816119d2565b809150509250929050565b600060208284031215611a2b57600080fd5b81356001600160401b03811115611a4157600080fd5b611a4d848285016116ab565b949350505050565b60008060408385031215611a6857600080fd5b8235611a73816114e1565b91506020830135611a0e816114e1565b600080600080600060a08688031215611a9b57600080fd5b8535611aa6816114e1565b94506020860135611ab6816114e1565b9350604086013592506060860135915060808601356001600160401b03811115611adf57600080fd5b6117be888289016116ab565b600080600060608486031215611b0057600080fd5b8335611b0b816114e1565b95602085013595506040909401359392505050565b600181811c90821680611b3457607f821691505b60208210811415611b5557634e487b7160e01b600052602260045260246000fd5b50919050565b634e487b7160e01b600052603260045260246000fd5b634e487b7160e01b600052601160045260246000fd5b6000600019821415611b9b57611b9b611b71565b5060010190565b600060208284031215611bb457600080fd5b8151611555816114e1565b600060208284031215611bd157600080fd5b8151611555816119d2565b6020808252600990820152682737ba1020b236b4b760b91b604082015260600190565b60208082526025908201527f455243313135353a207472616e7366657220746f20746865207a65726f206164604082015264647265737360d81b606082015260800190565b6020808252602a908201527f455243313135353a20696e73756666696369656e742062616c616e636520666f60408201526939103a3930b739b332b960b11b606082015260800190565b60008219821115611ca157611ca1611b71565b500190565b604081526000611cb960408301856118ab565b8281036020840152611ccb81856118ab565b95945050505050565b6020808252602b908201527f496e697469616c697a61626c653a20636f6e7472616374206973206e6f74206960408201526a6e697469616c697a696e6760a81b606082015260800190565b6001600160a01b0386811682528516602082015260a060408201819052600090611d4b908301866118ab565b8281036060840152611d5d81866118ab565b90508281036080840152611d718185611575565b98975050505050505050565b600060208284031215611d8f57600080fd5b815161155581611522565b600060033d1115611db35760046000803e5060005160e01c5b90565b600060443d1015611dc45790565b6040516003193d81016004833e81513d6001600160401b038160248401118184111715611df357505050505090565b8285019150815181811115611e0b5750505050505090565b843d8701016020828501011115611e255750505050505090565b611e34602082860101876115eb565b509095945050505050565b60208082526028908201527f455243313135353a204552433131353552656365697665722072656a656374656040820152676420746f6b656e7360c01b606082015260800190565b6001600160a01b03868116825285166020820152604081018490526060810183905260a060808201819052600090611ec190830184611575565b97965050505050505056fec3d58168c5ae7397731d063d5bbf3d657854427343f4c083240f7aacaa2d0f62a2646970667358221220051e050a9a4e0e5c11beca026459feb43cfddadf664495ec8d37c6f3d3d5ba7064736f6c63430008090033",
  "devdoc": {
    "details": "This contract will be used to track Curator Token ownership Only the Curator Vault can mint or burn tokens Note: This contract is protected via a permissioned account set in the role manager.  Caution should be used as the role owner could renounce the role leaving all future actions disabled.  Additionally, if a malicious account was able to obtain the role, they could use it to mint or burn tokens. See the public documentation website for more details.",
    "kind": "dev",
    "methods": {
      "balanceOf(address,uint256)": {
        "details": "See {IERC1155-balanceOf}. Requirements: - `account` cannot be the zero address."
      },
      "balanceOfBatch(address[],uint256[])": {
        "details": "See {IERC1155-balanceOfBatch}. Requirements: - `accounts` and `ids` must have the same length."
      },
      "burn(address,uint256,uint256)": {
        "details": "Allows reaction burner role to burn tokens"
      },
      "initialize(string,address,string)": {
        "details": "initializer to call after deployment, can only be called once"
      },
      "isApprovedForAll(address,address)": {
        "details": "See {IERC1155-isApprovedForAll}."
      },
      "mint(address,uint256,uint256,bytes)": {
        "details": "Allows reaction minter role to mint tokens"
      },
      "safeBatchTransferFrom(address,address,uint256[],uint256[],bytes)": {
        "details": "See {IERC1155-safeBatchTransferFrom}."
      },
      "safeTransferFrom(address,address,uint256,uint256,bytes)": {
        "details": "See {IERC1155-safeTransferFrom}."
      },
      "setApprovalForAll(address,bool)": {
        "details": "See {IERC1155-setApprovalForAll}."
      },
      "supportsInterface(bytes4)": {
        "details": "See {IERC165-supportsInterface}."
      },
      "uri(uint256)": {
        "details": "See {IERC1155MetadataURI-uri}. This implementation returns the same URI for *all* token types. It relies on the token type ID substitution mechanism https://eips.ethereum.org/EIPS/eip-1155#metadata[defined in the EIP]. Clients calling this function must replace the `\\{id\\}` substring with the actual token type ID."
      }
    },
    "title": "CuratorToken1155",
    "version": 1
  },
  "userdoc": {
    "kind": "user",
    "methods": {},
    "version": 1
  },
  "storageLayout": {
    "storage": [
      {
        "astId": 2435,
        "contract": "contracts/CuratorVault/Token/CuratorToken1155.sol:CuratorToken1155",
        "label": "_initialized",
        "offset": 0,
        "slot": "0",
        "type": "t_bool"
      },
      {
        "astId": 2438,
        "contract": "contracts/CuratorVault/Token/CuratorToken1155.sol:CuratorToken1155",
        "label": "_initializing",
        "offset": 1,
        "slot": "0",
        "type": "t_bool"
      },
      {
        "astId": 6258,
        "contract": "contracts/CuratorVault/Token/CuratorToken1155.sol:CuratorToken1155",
        "label": "__gap",
        "offset": 0,
        "slot": "1",
        "type": "t_array(t_uint256)50_storage"
      },
      {
        "astId": 6505,
        "contract": "contracts/CuratorVault/Token/CuratorToken1155.sol:CuratorToken1155",
        "label": "__gap",
        "offset": 0,
        "slot": "51",
        "type": "t_array(t_uint256)50_storage"
      },
      {
        "astId": 2590,
        "contract": "contracts/CuratorVault/Token/CuratorToken1155.sol:CuratorToken1155",
        "label": "_balances",
        "offset": 0,
        "slot": "101",
        "type": "t_mapping(t_uint256,t_mapping(t_address,t_uint256))"
      },
      {
        "astId": 2596,
        "contract": "contracts/CuratorVault/Token/CuratorToken1155.sol:CuratorToken1155",
        "label": "_operatorApprovals",
        "offset": 0,
        "slot": "102",
        "type": "t_mapping(t_address,t_mapping(t_address,t_bool))"
      },
      {
        "astId": 2598,
        "contract": "contracts/CuratorVault/Token/CuratorToken1155.sol:CuratorToken1155",
        "label": "_uri",
        "offset": 0,
        "slot": "103",
        "type": "t_string_storage"
      },
      {
        "astId": 3678,
        "contract": "contracts/CuratorVault/Token/CuratorToken1155.sol:CuratorToken1155",
        "label": "__gap",
        "offset": 0,
        "slot": "104",
        "type": "t_array(t_uint256)47_storage"
      },
      {
        "astId": 13771,
        "contract": "contracts/CuratorVault/Token/CuratorToken1155.sol:CuratorToken1155",
        "label": "addressManager",
        "offset": 0,
        "slot": "151",
        "type": "t_contract(IAddressManager)8328"
      },
      {
        "astId": 13777,
        "contract": "contracts/CuratorVault/Token/CuratorToken1155.sol:CuratorToken1155",
        "label": "contractURI",
        "offset": 0,
        "slot": "152",
        "type": "t_string_storage"
      }
    ],
    "types": {
      "t_address": {
        "encoding": "inplace",
        "label": "address",
        "numberOfBytes": "20"
      },
      "t_array(t_uint256)47_storage": {
        "base": "t_uint256",
        "encoding": "inplace",
        "label": "uint256[47]",
        "numberOfBytes": "1504"
      },
      "t_array(t_uint256)50_storage": {
        "base": "t_uint256",
        "encoding": "inplace",
        "label": "uint256[50]",
        "numberOfBytes": "1600"
      },
      "t_bool": {
        "encoding": "inplace",
        "label": "bool",
        "numberOfBytes": "1"
      },
      "t_contract(IAddressManager)8328": {
        "encoding": "inplace",
        "label": "contract IAddressManager",
        "numberOfBytes": "20"
      },
      "t_mapping(t_address,t_bool)": {
        "encoding": "mapping",
        "key": "t_address",
        "label": "mapping(address => bool)",
        "numberOfBytes": "32",
        "value": "t_bool"
      },
      "t_mapping(t_address,t_mapping(t_address,t_bool))": {
        "encoding": "mapping",
        "key": "t_address",
        "label": "mapping(address => mapping(address => bool))",
        "numberOfBytes": "32",
        "value": "t_mapping(t_address,t_bool)"
      },
      "t_mapping(t_address,t_uint256)": {
        "encoding": "mapping",
        "key": "t_address",
        "label": "mapping(address => uint256)",
        "numberOfBytes": "32",
        "value": "t_uint256"
      },
      "t_mapping(t_uint256,t_mapping(t_address,t_uint256))": {
        "encoding": "mapping",
        "key": "t_uint256",
        "label": "mapping(uint256 => mapping(address => uint256))",
        "numberOfBytes": "32",
        "value": "t_mapping(t_address,t_uint256)"
      },
      "t_string_storage": {
        "encoding": "bytes",
        "label": "string",
        "numberOfBytes": "32"
      },
      "t_uint256": {
        "encoding": "inplace",
        "label": "uint256",
        "numberOfBytes": "32"
      }
    }
  }
}