{
  "address": "0xa4b0AaA1325E54698176Ce93E5253dF70A1cBbd1",
  "abi": [
    {
      "anonymous": false,
      "inputs": [
        {
          "indexed": true,
          "internalType": "address",
          "name": "account",
          "type": "address"
        },
        {
          "indexed": true,
          "internalType": "address",
          "name": "operator",
          "type": "address"
        },
        {
          "indexed": false,
          "internalType": "bool",
          "name": "approved",
          "type": "bool"
        }
      ],
      "name": "ApprovalForAll",
      "type": "event"
    },
    {
      "anonymous": false,
      "inputs": [
        {
          "indexed": false,
          "internalType": "uint8",
          "name": "version",
          "type": "uint8"
        }
      ],
      "name": "Initialized",
      "type": "event"
    },
    {
      "anonymous": false,
      "inputs": [
        {
          "indexed": true,
          "internalType": "address",
          "name": "operator",
          "type": "address"
        },
        {
          "indexed": true,
          "internalType": "address",
          "name": "from",
          "type": "address"
        },
        {
          "indexed": true,
          "internalType": "address",
          "name": "to",
          "type": "address"
        },
        {
          "indexed": false,
          "internalType": "uint256[]",
          "name": "ids",
          "type": "uint256[]"
        },
        {
          "indexed": false,
          "internalType": "uint256[]",
          "name": "values",
          "type": "uint256[]"
        }
      ],
      "name": "TransferBatch",
      "type": "event"
    },
    {
      "anonymous": false,
      "inputs": [
        {
          "indexed": true,
          "internalType": "address",
          "name": "operator",
          "type": "address"
        },
        {
          "indexed": true,
          "internalType": "address",
          "name": "from",
          "type": "address"
        },
        {
          "indexed": true,
          "internalType": "address",
          "name": "to",
          "type": "address"
        },
        {
          "indexed": false,
          "internalType": "uint256",
          "name": "id",
          "type": "uint256"
        },
        {
          "indexed": false,
          "internalType": "uint256",
          "name": "value",
          "type": "uint256"
        }
      ],
      "name": "TransferSingle",
      "type": "event"
    },
    {
      "anonymous": false,
      "inputs": [
        {
          "indexed": false,
          "internalType": "string",
          "name": "value",
          "type": "string"
        },
        {
          "indexed": true,
          "internalType": "uint256",
          "name": "id",
          "type": "uint256"
        }
      ],
      "name": "URI",
      "type": "event"
    },
    {
      "inputs": [],
      "name": "addressManager",
      "outputs": [
        {
          "internalType": "contract IAddressManager",
          "name": "",
          "type": "address"
        }
      ],
      "stateMutability": "view",
      "type": "function"
    },
    {
      "inputs": [
        {
          "internalType": "address",
          "name": "account",
          "type": "address"
        },
        {
          "internalType": "uint256",
          "name": "id",
          "type": "uint256"
        }
      ],
      "name": "balanceOf",
      "outputs": [
        {
          "internalType": "uint256",
          "name": "",
          "type": "uint256"
        }
      ],
      "stateMutability": "view",
      "type": "function"
    },
    {
      "inputs": [
        {
          "internalType": "address[]",
          "name": "accounts",
          "type": "address[]"
        },
        {
          "internalType": "uint256[]",
          "name": "ids",
          "type": "uint256[]"
        }
      ],
      "name": "balanceOfBatch",
      "outputs": [
        {
          "internalType": "uint256[]",
          "name": "",
          "type": "uint256[]"
        }
      ],
      "stateMutability": "view",
      "type": "function"
    },
    {
      "inputs": [
        {
          "internalType": "address",
          "name": "from",
          "type": "address"
        },
        {
          "internalType": "uint256",
          "name": "id",
          "type": "uint256"
        },
        {
          "internalType": "uint256",
          "name": "amount",
          "type": "uint256"
        }
      ],
      "name": "burn",
      "outputs": [],
      "stateMutability": "nonpayable",
      "type": "function"
    },
    {
      "inputs": [
        {
          "internalType": "string",
          "name": "_uri",
          "type": "string"
        },
        {
          "internalType": "address",
          "name": "_addressManager",
          "type": "address"
        }
      ],
      "name": "initialize",
      "outputs": [],
      "stateMutability": "nonpayable",
      "type": "function"
    },
    {
      "inputs": [
        {
          "internalType": "address",
          "name": "account",
          "type": "address"
        },
        {
          "internalType": "address",
          "name": "operator",
          "type": "address"
        }
      ],
      "name": "isApprovedForAll",
      "outputs": [
        {
          "internalType": "bool",
          "name": "",
          "type": "bool"
        }
      ],
      "stateMutability": "view",
      "type": "function"
    },
    {
      "inputs": [
        {
          "internalType": "address",
          "name": "to",
          "type": "address"
        },
        {
          "internalType": "uint256",
          "name": "id",
          "type": "uint256"
        },
        {
          "internalType": "uint256",
          "name": "amount",
          "type": "uint256"
        },
        {
          "internalType": "bytes",
          "name": "data",
          "type": "bytes"
        }
      ],
      "name": "mint",
      "outputs": [],
      "stateMutability": "nonpayable",
      "type": "function"
    },
    {
      "inputs": [
        {
          "internalType": "address",
          "name": "from",
          "type": "address"
        },
        {
          "internalType": "address",
          "name": "to",
          "type": "address"
        },
        {
          "internalType": "uint256[]",
          "name": "ids",
          "type": "uint256[]"
        },
        {
          "internalType": "uint256[]",
          "name": "amounts",
          "type": "uint256[]"
        },
        {
          "internalType": "bytes",
          "name": "data",
          "type": "bytes"
        }
      ],
      "name": "safeBatchTransferFrom",
      "outputs": [],
      "stateMutability": "nonpayable",
      "type": "function"
    },
    {
      "inputs": [
        {
          "internalType": "address",
          "name": "from",
          "type": "address"
        },
        {
          "internalType": "address",
          "name": "to",
          "type": "address"
        },
        {
          "internalType": "uint256",
          "name": "id",
          "type": "uint256"
        },
        {
          "internalType": "uint256",
          "name": "amount",
          "type": "uint256"
        },
        {
          "internalType": "bytes",
          "name": "data",
          "type": "bytes"
        }
      ],
      "name": "safeTransferFrom",
      "outputs": [],
      "stateMutability": "nonpayable",
      "type": "function"
    },
    {
      "inputs": [
        {
          "internalType": "address",
          "name": "operator",
          "type": "address"
        },
        {
          "internalType": "bool",
          "name": "approved",
          "type": "bool"
        }
      ],
      "name": "setApprovalForAll",
      "outputs": [],
      "stateMutability": "nonpayable",
      "type": "function"
    },
    {
      "inputs": [
        {
          "internalType": "bytes4",
          "name": "interfaceId",
          "type": "bytes4"
        }
      ],
      "name": "supportsInterface",
      "outputs": [
        {
          "internalType": "bool",
          "name": "",
          "type": "bool"
        }
      ],
      "stateMutability": "view",
      "type": "function"
    },
    {
      "inputs": [
        {
          "internalType": "uint256",
          "name": "",
          "type": "uint256"
        }
      ],
      "name": "uri",
      "outputs": [
        {
          "internalType": "string",
          "name": "",
          "type": "string"
        }
      ],
      "stateMutability": "view",
      "type": "function"
    }
  ],
  "transactionHash": "0x7d6246940cda5a3cc8e0e0c81beecb8a2c930cc8e35a134d9d031fdbb46e9c1c",
  "args": [],
  "numDeployments": 1,
  "solcInputHash": "e5086af1310b7ca1d6194e2a0e3afebd",
  "bytecode": "0x608060405234801561001057600080fd5b506136b9806100206000396000f3fe608060405234801561001057600080fd5b50600436106100b35760003560e01c8063731133e911610071578063731133e9146101b25780637ab4339d146101ce578063a22cb465146101ea578063e985e9c514610206578063f242432a14610236578063f5298aca14610252576100b3565b8062fdd58e146100b857806301ffc9a7146100e85780630e89341c146101185780632eb2c2d6146101485780633ab76e9f146101645780634e1273f414610182575b600080fd5b6100d260048036038101906100cd9190611e81565b61026e565b6040516100df9190611ed0565b60405180910390f35b61010260048036038101906100fd9190611f43565b610338565b60405161010f9190611f8b565b60405180910390f35b610132600480360381019061012d9190611fa6565b61041a565b60405161013f919061206c565b60405180910390f35b610162600480360381019061015d919061228b565b6104ae565b005b61016c61054f565b60405161017991906123b9565b60405180910390f35b61019c60048036038101906101979190612497565b610575565b6040516101a991906125cd565b60405180910390f35b6101cc60048036038101906101c791906125ef565b61068e565b005b6101e860048036038101906101e39190612713565b610808565b005b61020460048036038101906101ff919061279b565b61098a565b005b610220600480360381019061021b91906127db565b6109a0565b60405161022d9190611f8b565b60405180910390f35b610250600480360381019061024b919061281b565b610a34565b005b61026c600480360381019061026791906128b2565b610ad5565b005b60008073ffffffffffffffffffffffffffffffffffffffff168373ffffffffffffffffffffffffffffffffffffffff1614156102df576040517f08c379a00000000000000000000000000000000000000000000000000000000081526004016102d690612977565b60405180910390fd5b6065600083815260200190815260200160002060008473ffffffffffffffffffffffffffffffffffffffff1673ffffffffffffffffffffffffffffffffffffffff16815260200190815260200160002054905092915050565b60007fd9b67a26000000000000000000000000000000000000000000000000000000007bffffffffffffffffffffffffffffffffffffffffffffffffffffffff1916827bffffffffffffffffffffffffffffffffffffffffffffffffffffffff1916148061040357507f0e89341c000000000000000000000000000000000000000000000000000000007bffffffffffffffffffffffffffffffffffffffffffffffffffffffff1916827bffffffffffffffffffffffffffffffffffffffffffffffffffffffff1916145b80610413575061041282610c4d565b5b9050919050565b606060678054610429906129c6565b80601f0160208091040260200160405190810160405280929190818152602001828054610455906129c6565b80156104a25780601f10610477576101008083540402835291602001916104a2565b820191906000526020600020905b81548152906001019060200180831161048557829003601f168201915b50505050509050919050565b6104b6610cb7565b73ffffffffffffffffffffffffffffffffffffffff168573ffffffffffffffffffffffffffffffffffffffff1614806104fc57506104fb856104f6610cb7565b6109a0565b5b61053b576040517f08c379a000000000000000000000000000000000000000000000000000000000815260040161053290612a6a565b60405180910390fd5b6105488585858585610cbf565b5050505050565b609760009054906101000a900473ffffffffffffffffffffffffffffffffffffffff1681565b606081518351146105bb576040517f08c379a00000000000000000000000000000000000000000000000000000000081526004016105b290612afc565b60405180910390fd5b6000835167ffffffffffffffff8111156105d8576105d7612093565b5b6040519080825280602002602001820160405280156106065781602001602082028036833780820191505090505b50905060005b84518110156106835761065385828151811061062b5761062a612b1c565b5b602002602001015185838151811061064657610645612b1c565b5b602002602001015161026e565b82828151811061066657610665612b1c565b5b6020026020010181815250508061067c90612b7a565b905061060c565b508091505092915050565b609760009054906101000a900473ffffffffffffffffffffffffffffffffffffffff1673ffffffffffffffffffffffffffffffffffffffff1662435da56040518163ffffffff1660e01b8152600401602060405180830381600087803b1580156106f757600080fd5b505af115801561070b573d6000803e3d6000fd5b505050506040513d601f19601f8201168201806040525081019061072f9190612c01565b73ffffffffffffffffffffffffffffffffffffffff1663fbac0352336040518263ffffffff1660e01b81526004016107679190612c3d565b60206040518083038186803b15801561077f57600080fd5b505afa158015610793573d6000803e3d6000fd5b505050506040513d601f19601f820116820180604052508101906107b79190612c6d565b6107f6576040517f08c379a00000000000000000000000000000000000000000000000000000000081526004016107ed90612ce6565b60405180910390fd5b61080284848484610fe4565b50505050565b60008060019054906101000a900460ff161590508080156108395750600160008054906101000a900460ff1660ff16105b80610866575061084830611196565b1580156108655750600160008054906101000a900460ff1660ff16145b5b6108a5576040517f08c379a000000000000000000000000000000000000000000000000000000000815260040161089c90612d78565b60405180910390fd5b60016000806101000a81548160ff021916908360ff16021790555080156108e2576001600060016101000a81548160ff0219169083151502179055505b6108eb836111b9565b81609760006101000a81548173ffffffffffffffffffffffffffffffffffffffff021916908373ffffffffffffffffffffffffffffffffffffffff16021790555080156109855760008060016101000a81548160ff0219169083151502179055507f7f26b83ff96e1f2b6a682f133852f6798a09c465da95921460cefb3847402498600160405161097c9190612de0565b60405180910390a15b505050565b61099c610995610cb7565b8383611214565b5050565b6000606660008473ffffffffffffffffffffffffffffffffffffffff1673ffffffffffffffffffffffffffffffffffffffff16815260200190815260200160002060008373ffffffffffffffffffffffffffffffffffffffff1673ffffffffffffffffffffffffffffffffffffffff16815260200190815260200160002060009054906101000a900460ff16905092915050565b610a3c610cb7565b73ffffffffffffffffffffffffffffffffffffffff168573ffffffffffffffffffffffffffffffffffffffff161480610a825750610a8185610a7c610cb7565b6109a0565b5b610ac1576040517f08c379a0000000000000000000000000000000000000000000000000000000008152600401610ab890612a6a565b60405180910390fd5b610ace8585858585611381565b5050505050565b609760009054906101000a900473ffffffffffffffffffffffffffffffffffffffff1673ffffffffffffffffffffffffffffffffffffffff1662435da56040518163ffffffff1660e01b8152600401602060405180830381600087803b158015610b3e57600080fd5b505af1158015610b52573d6000803e3d6000fd5b505050506040513d601f19601f82011682018060405250810190610b769190612c01565b73ffffffffffffffffffffffffffffffffffffffff1663fbac0352336040518263ffffffff1660e01b8152600401610bae9190612c3d565b60206040518083038186803b158015610bc657600080fd5b505afa158015610bda573d6000803e3d6000fd5b505050506040513d601f19601f82011682018060405250810190610bfe9190612c6d565b610c3d576040517f08c379a0000000000000000000000000000000000000000000000000000000008152600401610c3490612ce6565b60405180910390fd5b610c48838383611620565b505050565b60007f01ffc9a7000000000000000000000000000000000000000000000000000000007bffffffffffffffffffffffffffffffffffffffffffffffffffffffff1916827bffffffffffffffffffffffffffffffffffffffffffffffffffffffff1916149050919050565b600033905090565b8151835114610d03576040517f08c379a0000000000000000000000000000000000000000000000000000000008152600401610cfa90612e6d565b60405180910390fd5b600073ffffffffffffffffffffffffffffffffffffffff168473ffffffffffffffffffffffffffffffffffffffff161415610d73576040517f08c379a0000000000000000000000000000000000000000000000000000000008152600401610d6a90612eff565b60405180910390fd5b6000610d7d610cb7565b9050610d8d818787878787611869565b60005b8451811015610f41576000858281518110610dae57610dad612b1c565b5b602002602001015190506000858381518110610dcd57610dcc612b1c565b5b6020026020010151905060006065600084815260200190815260200160002060008b73ffffffffffffffffffffffffffffffffffffffff1673ffffffffffffffffffffffffffffffffffffffff16815260200190815260200160002054905081811015610e6f576040517f08c379a0000000000000000000000000000000000000000000000000000000008152600401610e6690612f91565b60405180910390fd5b8181036065600085815260200190815260200160002060008c73ffffffffffffffffffffffffffffffffffffffff1673ffffffffffffffffffffffffffffffffffffffff16815260200190815260200160002081905550816065600085815260200190815260200160002060008b73ffffffffffffffffffffffffffffffffffffffff1673ffffffffffffffffffffffffffffffffffffffff1681526020019081526020016000206000828254610f269190612fb1565b9250508190555050505080610f3a90612b7a565b9050610d90565b508473ffffffffffffffffffffffffffffffffffffffff168673ffffffffffffffffffffffffffffffffffffffff168273ffffffffffffffffffffffffffffffffffffffff167f4a39dc06d4c0dbc64b70af90fd698a233a518aa5d07e595d983b8c0526c8f7fb8787604051610fb8929190613007565b60405180910390a4610fce818787878787611871565b610fdc818787878787611879565b505050505050565b600073ffffffffffffffffffffffffffffffffffffffff168473ffffffffffffffffffffffffffffffffffffffff161415611054576040517f08c379a000000000000000000000000000000000000000000000000000000000815260040161104b906130b0565b60405180910390fd5b600061105e610cb7565b9050600061106b85611a60565b9050600061107885611a60565b905061108983600089858589611869565b846065600088815260200190815260200160002060008973ffffffffffffffffffffffffffffffffffffffff1673ffffffffffffffffffffffffffffffffffffffff16815260200190815260200160002060008282546110e99190612fb1565b925050819055508673ffffffffffffffffffffffffffffffffffffffff16600073ffffffffffffffffffffffffffffffffffffffff168473ffffffffffffffffffffffffffffffffffffffff167fc3d58168c5ae7397731d063d5bbf3d657854427343f4c083240f7aacaa2d0f6289896040516111679291906130d0565b60405180910390a461117e83600089858589611871565b61118d83600089898989611ada565b50505050505050565b6000808273ffffffffffffffffffffffffffffffffffffffff163b119050919050565b600060019054906101000a900460ff16611208576040517f08c379a00000000000000000000000000000000000000000000000000000000081526004016111ff9061316b565b60405180910390fd5b61121181611cc1565b50565b8173ffffffffffffffffffffffffffffffffffffffff168373ffffffffffffffffffffffffffffffffffffffff161415611283576040517f08c379a000000000000000000000000000000000000000000000000000000000815260040161127a906131fd565b60405180910390fd5b80606660008573ffffffffffffffffffffffffffffffffffffffff1673ffffffffffffffffffffffffffffffffffffffff16815260200190815260200160002060008473ffffffffffffffffffffffffffffffffffffffff1673ffffffffffffffffffffffffffffffffffffffff16815260200190815260200160002060006101000a81548160ff0219169083151502179055508173ffffffffffffffffffffffffffffffffffffffff168373ffffffffffffffffffffffffffffffffffffffff167f17307eab39ab6107e8899845ad3d59bd9653f200f220920489ca2b5937696c31836040516113749190611f8b565b60405180910390a3505050565b600073ffffffffffffffffffffffffffffffffffffffff168473ffffffffffffffffffffffffffffffffffffffff1614156113f1576040517f08c379a00000000000000000000000000000000000000000000000000000000081526004016113e890612eff565b60405180910390fd5b60006113fb610cb7565b9050600061140885611a60565b9050600061141585611a60565b9050611425838989858589611869565b60006065600088815260200190815260200160002060008a73ffffffffffffffffffffffffffffffffffffffff1673ffffffffffffffffffffffffffffffffffffffff168152602001908152602001600020549050858110156114bd576040517f08c379a00000000000000000000000000000000000000000000000000000000081526004016114b490612f91565b60405180910390fd5b8581036065600089815260200190815260200160002060008b73ffffffffffffffffffffffffffffffffffffffff1673ffffffffffffffffffffffffffffffffffffffff16815260200190815260200160002081905550856065600089815260200190815260200160002060008a73ffffffffffffffffffffffffffffffffffffffff1673ffffffffffffffffffffffffffffffffffffffff16815260200190815260200160002060008282546115749190612fb1565b925050819055508773ffffffffffffffffffffffffffffffffffffffff168973ffffffffffffffffffffffffffffffffffffffff168573ffffffffffffffffffffffffffffffffffffffff167fc3d58168c5ae7397731d063d5bbf3d657854427343f4c083240f7aacaa2d0f628a8a6040516115f19291906130d0565b60405180910390a4611607848a8a86868a611871565b611615848a8a8a8a8a611ada565b505050505050505050565b600073ffffffffffffffffffffffffffffffffffffffff168373ffffffffffffffffffffffffffffffffffffffff161415611690576040517f08c379a00000000000000000000000000000000000000000000000000000000081526004016116879061328f565b60405180910390fd5b600061169a610cb7565b905060006116a784611a60565b905060006116b484611a60565b90506116d483876000858560405180602001604052806000815250611869565b60006065600087815260200190815260200160002060008873ffffffffffffffffffffffffffffffffffffffff1673ffffffffffffffffffffffffffffffffffffffff1681526020019081526020016000205490508481101561176c576040517f08c379a000000000000000000000000000000000000000000000000000000000815260040161176390613321565b60405180910390fd5b8481036065600088815260200190815260200160002060008973ffffffffffffffffffffffffffffffffffffffff1673ffffffffffffffffffffffffffffffffffffffff16815260200190815260200160002081905550600073ffffffffffffffffffffffffffffffffffffffff168773ffffffffffffffffffffffffffffffffffffffff168573ffffffffffffffffffffffffffffffffffffffff167fc3d58168c5ae7397731d063d5bbf3d657854427343f4c083240f7aacaa2d0f62898960405161183a9291906130d0565b60405180910390a461186084886000868660405180602001604052806000815250611871565b50505050505050565b505050505050565b505050505050565b6118988473ffffffffffffffffffffffffffffffffffffffff16611196565b15611a58578373ffffffffffffffffffffffffffffffffffffffff1663bc197c8187878686866040518663ffffffff1660e01b81526004016118de959493929190613396565b602060405180830381600087803b1580156118f857600080fd5b505af192505050801561192957506040513d601f19601f820116820180604052508101906119269190613413565b60015b6119cf5761193561344d565b806308c379a01415611992575061194a61346f565b806119555750611994565b806040517f08c379a0000000000000000000000000000000000000000000000000000000008152600401611989919061206c565b60405180910390fd5b505b6040517f08c379a00000000000000000000000000000000000000000000000000000000081526004016119c690613577565b60405180910390fd5b63bc197c8160e01b7bffffffffffffffffffffffffffffffffffffffffffffffffffffffff1916817bffffffffffffffffffffffffffffffffffffffffffffffffffffffff191614611a56576040517f08c379a0000000000000000000000000000000000000000000000000000000008152600401611a4d90613609565b60405180910390fd5b505b505050505050565b60606000600167ffffffffffffffff811115611a7f57611a7e612093565b5b604051908082528060200260200182016040528015611aad5781602001602082028036833780820191505090505b5090508281600081518110611ac557611ac4612b1c565b5b60200260200101818152505080915050919050565b611af98473ffffffffffffffffffffffffffffffffffffffff16611196565b15611cb9578373ffffffffffffffffffffffffffffffffffffffff1663f23a6e6187878686866040518663ffffffff1660e01b8152600401611b3f959493929190613629565b602060405180830381600087803b158015611b5957600080fd5b505af1925050508015611b8a57506040513d601f19601f82011682018060405250810190611b879190613413565b60015b611c3057611b9661344d565b806308c379a01415611bf35750611bab61346f565b80611bb65750611bf5565b806040517f08c379a0000000000000000000000000000000000000000000000000000000008152600401611bea919061206c565b60405180910390fd5b505b6040517f08c379a0000000000000000000000000000000000000000000000000000000008152600401611c2790613577565b60405180910390fd5b63f23a6e6160e01b7bffffffffffffffffffffffffffffffffffffffffffffffffffffffff1916817bffffffffffffffffffffffffffffffffffffffffffffffffffffffff191614611cb7576040517f08c379a0000000000000000000000000000000000000000000000000000000008152600401611cae90613609565b60405180910390fd5b505b505050505050565b600060019054906101000a900460ff16611d10576040517f08c379a0000000000000000000000000000000000000000000000000000000008152600401611d079061316b565b60405180910390fd5b611d1981611d1c565b50565b8060679080519060200190611d32929190611d36565b5050565b828054611d42906129c6565b90600052602060002090601f016020900481019282611d645760008555611dab565b82601f10611d7d57805160ff1916838001178555611dab565b82800160010185558215611dab579182015b82811115611daa578251825591602001919060010190611d8f565b5b509050611db89190611dbc565b5090565b5b80821115611dd5576000816000905550600101611dbd565b5090565b6000604051905090565b600080fd5b600080fd5b600073ffffffffffffffffffffffffffffffffffffffff82169050919050565b6000611e1882611ded565b9050919050565b611e2881611e0d565b8114611e3357600080fd5b50565b600081359050611e4581611e1f565b92915050565b6000819050919050565b611e5e81611e4b565b8114611e6957600080fd5b50565b600081359050611e7b81611e55565b92915050565b60008060408385031215611e9857611e97611de3565b5b6000611ea685828601611e36565b9250506020611eb785828601611e6c565b9150509250929050565b611eca81611e4b565b82525050565b6000602082019050611ee56000830184611ec1565b92915050565b60007fffffffff0000000000000000000000000000000000000000000000000000000082169050919050565b611f2081611eeb565b8114611f2b57600080fd5b50565b600081359050611f3d81611f17565b92915050565b600060208284031215611f5957611f58611de3565b5b6000611f6784828501611f2e565b91505092915050565b60008115159050919050565b611f8581611f70565b82525050565b6000602082019050611fa06000830184611f7c565b92915050565b600060208284031215611fbc57611fbb611de3565b5b6000611fca84828501611e6c565b91505092915050565b600081519050919050565b600082825260208201905092915050565b60005b8381101561200d578082015181840152602081019050611ff2565b8381111561201c576000848401525b50505050565b6000601f19601f8301169050919050565b600061203e82611fd3565b6120488185611fde565b9350612058818560208601611fef565b61206181612022565b840191505092915050565b600060208201905081810360008301526120868184612033565b905092915050565b600080fd5b7f4e487b7100000000000000000000000000000000000000000000000000000000600052604160045260246000fd5b6120cb82612022565b810181811067ffffffffffffffff821117156120ea576120e9612093565b5b80604052505050565b60006120fd611dd9565b905061210982826120c2565b919050565b600067ffffffffffffffff82111561212957612128612093565b5b602082029050602081019050919050565b600080fd5b600061215261214d8461210e565b6120f3565b905080838252602082019050602084028301858111156121755761217461213a565b5b835b8181101561219e578061218a8882611e6c565b845260208401935050602081019050612177565b5050509392505050565b600082601f8301126121bd576121bc61208e565b5b81356121cd84826020860161213f565b91505092915050565b600080fd5b600067ffffffffffffffff8211156121f6576121f5612093565b5b6121ff82612022565b9050602081019050919050565b82818337600083830152505050565b600061222e612229846121db565b6120f3565b90508281526020810184848401111561224a576122496121d6565b5b61225584828561220c565b509392505050565b600082601f8301126122725761227161208e565b5b813561228284826020860161221b565b91505092915050565b600080600080600060a086880312156122a7576122a6611de3565b5b60006122b588828901611e36565b95505060206122c688828901611e36565b945050604086013567ffffffffffffffff8111156122e7576122e6611de8565b5b6122f3888289016121a8565b935050606086013567ffffffffffffffff81111561231457612313611de8565b5b612320888289016121a8565b925050608086013567ffffffffffffffff81111561234157612340611de8565b5b61234d8882890161225d565b9150509295509295909350565b6000819050919050565b600061237f61237a61237584611ded565b61235a565b611ded565b9050919050565b600061239182612364565b9050919050565b60006123a382612386565b9050919050565b6123b381612398565b82525050565b60006020820190506123ce60008301846123aa565b92915050565b600067ffffffffffffffff8211156123ef576123ee612093565b5b602082029050602081019050919050565b600061241361240e846123d4565b6120f3565b905080838252602082019050602084028301858111156124365761243561213a565b5b835b8181101561245f578061244b8882611e36565b845260208401935050602081019050612438565b5050509392505050565b600082601f83011261247e5761247d61208e565b5b813561248e848260208601612400565b91505092915050565b600080604083850312156124ae576124ad611de3565b5b600083013567ffffffffffffffff8111156124cc576124cb611de8565b5b6124d885828601612469565b925050602083013567ffffffffffffffff8111156124f9576124f8611de8565b5b612505858286016121a8565b9150509250929050565b600081519050919050565b600082825260208201905092915050565b6000819050602082019050919050565b61254481611e4b565b82525050565b6000612556838361253b565b60208301905092915050565b6000602082019050919050565b600061257a8261250f565b612584818561251a565b935061258f8361252b565b8060005b838110156125c05781516125a7888261254a565b97506125b283612562565b925050600181019050612593565b5085935050505092915050565b600060208201905081810360008301526125e7818461256f565b905092915050565b6000806000806080858703121561260957612608611de3565b5b600061261787828801611e36565b945050602061262887828801611e6c565b935050604061263987828801611e6c565b925050606085013567ffffffffffffffff81111561265a57612659611de8565b5b6126668782880161225d565b91505092959194509250565b600067ffffffffffffffff82111561268d5761268c612093565b5b61269682612022565b9050602081019050919050565b60006126b66126b184612672565b6120f3565b9050828152602081018484840111156126d2576126d16121d6565b5b6126dd84828561220c565b509392505050565b600082601f8301126126fa576126f961208e565b5b813561270a8482602086016126a3565b91505092915050565b6000806040838503121561272a57612729611de3565b5b600083013567ffffffffffffffff81111561274857612747611de8565b5b612754858286016126e5565b925050602061276585828601611e36565b9150509250929050565b61277881611f70565b811461278357600080fd5b50565b6000813590506127958161276f565b92915050565b600080604083850312156127b2576127b1611de3565b5b60006127c085828601611e36565b92505060206127d185828601612786565b9150509250929050565b600080604083850312156127f2576127f1611de3565b5b600061280085828601611e36565b925050602061281185828601611e36565b9150509250929050565b600080600080600060a0868803121561283757612836611de3565b5b600061284588828901611e36565b955050602061285688828901611e36565b945050604061286788828901611e6c565b935050606061287888828901611e6c565b925050608086013567ffffffffffffffff81111561289957612898611de8565b5b6128a58882890161225d565b9150509295509295909350565b6000806000606084860312156128cb576128ca611de3565b5b60006128d986828701611e36565b93505060206128ea86828701611e6c565b92505060406128fb86828701611e6c565b9150509250925092565b7f455243313135353a2061646472657373207a65726f206973206e6f742061207660008201527f616c6964206f776e657200000000000000000000000000000000000000000000602082015250565b6000612961602a83611fde565b915061296c82612905565b604082019050919050565b6000602082019050818103600083015261299081612954565b9050919050565b7f4e487b7100000000000000000000000000000000000000000000000000000000600052602260045260246000fd5b600060028204905060018216806129de57607f821691505b602082108114156129f2576129f1612997565b5b50919050565b7f455243313135353a2063616c6c6572206973206e6f7420746f6b656e206f776e60008201527f6572206e6f7220617070726f7665640000000000000000000000000000000000602082015250565b6000612a54602f83611fde565b9150612a5f826129f8565b604082019050919050565b60006020820190508181036000830152612a8381612a47565b9050919050565b7f455243313135353a206163636f756e747320616e6420696473206c656e67746860008201527f206d69736d617463680000000000000000000000000000000000000000000000602082015250565b6000612ae6602983611fde565b9150612af182612a8a565b604082019050919050565b60006020820190508181036000830152612b1581612ad9565b9050919050565b7f4e487b7100000000000000000000000000000000000000000000000000000000600052603260045260246000fd5b7f4e487b7100000000000000000000000000000000000000000000000000000000600052601160045260246000fd5b6000612b8582611e4b565b91507fffffffffffffffffffffffffffffffffffffffffffffffffffffffffffffffff821415612bb857612bb7612b4b565b5b600182019050919050565b6000612bce82611e0d565b9050919050565b612bde81612bc3565b8114612be957600080fd5b50565b600081519050612bfb81612bd5565b92915050565b600060208284031215612c1757612c16611de3565b5b6000612c2584828501612bec565b91505092915050565b612c3781611e0d565b82525050565b6000602082019050612c526000830184612c2e565b92915050565b600081519050612c678161276f565b92915050565b600060208284031215612c8357612c82611de3565b5b6000612c9184828501612c58565b91505092915050565b7f4e6f742041646d696e0000000000000000000000000000000000000000000000600082015250565b6000612cd0600983611fde565b9150612cdb82612c9a565b602082019050919050565b60006020820190508181036000830152612cff81612cc3565b9050919050565b7f496e697469616c697a61626c653a20636f6e747261637420697320616c72656160008201527f647920696e697469616c697a6564000000000000000000000000000000000000602082015250565b6000612d62602e83611fde565b9150612d6d82612d06565b604082019050919050565b60006020820190508181036000830152612d9181612d55565b9050919050565b6000819050919050565b600060ff82169050919050565b6000612dca612dc5612dc084612d98565b61235a565b612da2565b9050919050565b612dda81612daf565b82525050565b6000602082019050612df56000830184612dd1565b92915050565b7f455243313135353a2069647320616e6420616d6f756e7473206c656e6774682060008201527f6d69736d61746368000000000000000000000000000000000000000000000000602082015250565b6000612e57602883611fde565b9150612e6282612dfb565b604082019050919050565b60006020820190508181036000830152612e8681612e4a565b9050919050565b7f455243313135353a207472616e7366657220746f20746865207a65726f20616460008201527f6472657373000000000000000000000000000000000000000000000000000000602082015250565b6000612ee9602583611fde565b9150612ef482612e8d565b604082019050919050565b60006020820190508181036000830152612f1881612edc565b9050919050565b7f455243313135353a20696e73756666696369656e742062616c616e636520666f60008201527f72207472616e7366657200000000000000000000000000000000000000000000602082015250565b6000612f7b602a83611fde565b9150612f8682612f1f565b604082019050919050565b60006020820190508181036000830152612faa81612f6e565b9050919050565b6000612fbc82611e4b565b9150612fc783611e4b565b9250827fffffffffffffffffffffffffffffffffffffffffffffffffffffffffffffffff03821115612ffc57612ffb612b4b565b5b828201905092915050565b60006040820190508181036000830152613021818561256f565b90508181036020830152613035818461256f565b90509392505050565b7f455243313135353a206d696e7420746f20746865207a65726f2061646472657360008201527f7300000000000000000000000000000000000000000000000000000000000000602082015250565b600061309a602183611fde565b91506130a58261303e565b604082019050919050565b600060208201905081810360008301526130c98161308d565b9050919050565b60006040820190506130e56000830185611ec1565b6130f26020830184611ec1565b9392505050565b7f496e697469616c697a61626c653a20636f6e7472616374206973206e6f74206960008201527f6e697469616c697a696e67000000000000000000000000000000000000000000602082015250565b6000613155602b83611fde565b9150613160826130f9565b604082019050919050565b6000602082019050818103600083015261318481613148565b9050919050565b7f455243313135353a2073657474696e6720617070726f76616c2073746174757360008201527f20666f722073656c660000000000000000000000000000000000000000000000602082015250565b60006131e7602983611fde565b91506131f28261318b565b604082019050919050565b60006020820190508181036000830152613216816131da565b9050919050565b7f455243313135353a206275726e2066726f6d20746865207a65726f206164647260008201527f6573730000000000000000000000000000000000000000000000000000000000602082015250565b6000613279602383611fde565b91506132848261321d565b604082019050919050565b600060208201905081810360008301526132a88161326c565b9050919050565b7f455243313135353a206275726e20616d6f756e7420657863656564732062616c60008201527f616e636500000000000000000000000000000000000000000000000000000000602082015250565b600061330b602483611fde565b9150613316826132af565b604082019050919050565b6000602082019050818103600083015261333a816132fe565b9050919050565b600081519050919050565b600082825260208201905092915050565b600061336882613341565b613372818561334c565b9350613382818560208601611fef565b61338b81612022565b840191505092915050565b600060a0820190506133ab6000830188612c2e565b6133b86020830187612c2e565b81810360408301526133ca818661256f565b905081810360608301526133de818561256f565b905081810360808301526133f2818461335d565b90509695505050505050565b60008151905061340d81611f17565b92915050565b60006020828403121561342957613428611de3565b5b6000613437848285016133fe565b91505092915050565b60008160e01c9050919050565b600060033d111561346c5760046000803e613469600051613440565b90505b90565b600060443d101561347f57613502565b613487611dd9565b60043d036004823e80513d602482011167ffffffffffffffff821117156134af575050613502565b808201805167ffffffffffffffff8111156134cd5750505050613502565b80602083010160043d0385018111156134ea575050505050613502565b6134f9826020018501866120c2565b82955050505050505b90565b7f455243313135353a207472616e7366657220746f206e6f6e204552433131353560008201527f526563656976657220696d706c656d656e746572000000000000000000000000602082015250565b6000613561603483611fde565b915061356c82613505565b604082019050919050565b6000602082019050818103600083015261359081613554565b9050919050565b7f455243313135353a204552433131353552656365697665722072656a6563746560008201527f6420746f6b656e73000000000000000000000000000000000000000000000000602082015250565b60006135f3602883611fde565b91506135fe82613597565b604082019050919050565b60006020820190508181036000830152613622816135e6565b9050919050565b600060a08201905061363e6000830188612c2e565b61364b6020830187612c2e565b6136586040830186611ec1565b6136656060830185611ec1565b8181036080830152613677818461335d565b9050969550505050505056fea264697066735822122061adaa52d57e6ed25d0281cf4ccaab896604a7d71306bf522e318a53919b88e564736f6c63430008090033",
  "devdoc": {
    "details": "This contract will be used to track Curator Token ownership Only the Curator Vault can mint or burn tokens Note: This contract is protected via a permissioned account set in the role manager.  Caution should be used as the role owner could renounce the role leaving all future actions disabled.  Additionally, if a malicious account was able to obtain the role, they could use it to mint or burn tokens. See the public documentation website for more details.",
    "kind": "dev",
    "methods": {
      "balanceOf(address,uint256)": {
        "details": "See {IERC1155-balanceOf}. Requirements: - `account` cannot be the zero address."
      },
      "balanceOfBatch(address[],uint256[])": {
        "details": "See {IERC1155-balanceOfBatch}. Requirements: - `accounts` and `ids` must have the same length."
      },
      "burn(address,uint256,uint256)": {
        "details": "Allows reaction burner role to burn tokens"
      },
      "initialize(string,address)": {
        "details": "initializer to call after deployment, can only be called once"
      },
      "isApprovedForAll(address,address)": {
        "details": "See {IERC1155-isApprovedForAll}."
      },
      "mint(address,uint256,uint256,bytes)": {
        "details": "Allows reaction minter role to mint tokens"
      },
      "safeBatchTransferFrom(address,address,uint256[],uint256[],bytes)": {
        "details": "See {IERC1155-safeBatchTransferFrom}."
      },
      "safeTransferFrom(address,address,uint256,uint256,bytes)": {
        "details": "See {IERC1155-safeTransferFrom}."
      },
      "setApprovalForAll(address,bool)": {
        "details": "See {IERC1155-setApprovalForAll}."
      },
      "supportsInterface(bytes4)": {
        "details": "See {IERC165-supportsInterface}."
      },
      "uri(uint256)": {
        "details": "See {IERC1155MetadataURI-uri}. This implementation returns the same URI for *all* token types. It relies on the token type ID substitution mechanism https://eips.ethereum.org/EIPS/eip-1155#metadata[defined in the EIP]. Clients calling this function must replace the `\\{id\\}` substring with the actual token type ID."
      }
    },
    "title": "CuratorToken1155",
    "version": 1
  },
  "userdoc": {
    "kind": "user",
    "methods": {},
    "version": 1
  },
  "storageLayout": {
    "storage": [
      {
        "astId": 2366,
        "contract": "contracts/CuratorVault/Token/CuratorToken1155.sol:CuratorToken1155",
        "label": "_initialized",
        "offset": 0,
        "slot": "0",
        "type": "t_uint8"
      },
      {
        "astId": 2369,
        "contract": "contracts/CuratorVault/Token/CuratorToken1155.sol:CuratorToken1155",
        "label": "_initializing",
        "offset": 1,
        "slot": "0",
        "type": "t_bool"
      },
      {
        "astId": 6485,
        "contract": "contracts/CuratorVault/Token/CuratorToken1155.sol:CuratorToken1155",
        "label": "__gap",
        "offset": 0,
        "slot": "1",
        "type": "t_array(t_uint256)50_storage"
      },
      {
        "astId": 6755,
        "contract": "contracts/CuratorVault/Token/CuratorToken1155.sol:CuratorToken1155",
        "label": "__gap",
        "offset": 0,
        "slot": "51",
        "type": "t_array(t_uint256)50_storage"
      },
      {
        "astId": 2598,
        "contract": "contracts/CuratorVault/Token/CuratorToken1155.sol:CuratorToken1155",
        "label": "_balances",
        "offset": 0,
        "slot": "101",
        "type": "t_mapping(t_uint256,t_mapping(t_address,t_uint256))"
      },
      {
        "astId": 2604,
        "contract": "contracts/CuratorVault/Token/CuratorToken1155.sol:CuratorToken1155",
        "label": "_operatorApprovals",
        "offset": 0,
        "slot": "102",
        "type": "t_mapping(t_address,t_mapping(t_address,t_bool))"
      },
      {
        "astId": 2606,
        "contract": "contracts/CuratorVault/Token/CuratorToken1155.sol:CuratorToken1155",
        "label": "_uri",
        "offset": 0,
        "slot": "103",
        "type": "t_string_storage"
      },
      {
        "astId": 3813,
        "contract": "contracts/CuratorVault/Token/CuratorToken1155.sol:CuratorToken1155",
        "label": "__gap",
        "offset": 0,
        "slot": "104",
        "type": "t_array(t_uint256)47_storage"
      },
      {
        "astId": 12906,
        "contract": "contracts/CuratorVault/Token/CuratorToken1155.sol:CuratorToken1155",
        "label": "addressManager",
        "offset": 0,
        "slot": "151",
        "type": "t_contract(IAddressManager)8538"
      }
    ],
    "types": {
      "t_address": {
        "encoding": "inplace",
        "label": "address",
        "numberOfBytes": "20"
      },
      "t_array(t_uint256)47_storage": {
        "base": "t_uint256",
        "encoding": "inplace",
        "label": "uint256[47]",
        "numberOfBytes": "1504"
      },
      "t_array(t_uint256)50_storage": {
        "base": "t_uint256",
        "encoding": "inplace",
        "label": "uint256[50]",
        "numberOfBytes": "1600"
      },
      "t_bool": {
        "encoding": "inplace",
        "label": "bool",
        "numberOfBytes": "1"
      },
      "t_contract(IAddressManager)8538": {
        "encoding": "inplace",
        "label": "contract IAddressManager",
        "numberOfBytes": "20"
      },
      "t_mapping(t_address,t_bool)": {
        "encoding": "mapping",
        "key": "t_address",
        "label": "mapping(address => bool)",
        "numberOfBytes": "32",
        "value": "t_bool"
      },
      "t_mapping(t_address,t_mapping(t_address,t_bool))": {
        "encoding": "mapping",
        "key": "t_address",
        "label": "mapping(address => mapping(address => bool))",
        "numberOfBytes": "32",
        "value": "t_mapping(t_address,t_bool)"
      },
      "t_mapping(t_address,t_uint256)": {
        "encoding": "mapping",
        "key": "t_address",
        "label": "mapping(address => uint256)",
        "numberOfBytes": "32",
        "value": "t_uint256"
      },
      "t_mapping(t_uint256,t_mapping(t_address,t_uint256))": {
        "encoding": "mapping",
        "key": "t_uint256",
        "label": "mapping(uint256 => mapping(address => uint256))",
        "numberOfBytes": "32",
        "value": "t_mapping(t_address,t_uint256)"
      },
      "t_string_storage": {
        "encoding": "bytes",
        "label": "string",
        "numberOfBytes": "32"
      },
      "t_uint256": {
        "encoding": "inplace",
        "label": "uint256",
        "numberOfBytes": "32"
      },
      "t_uint8": {
        "encoding": "inplace",
        "label": "uint8",
        "numberOfBytes": "1"
      }
    }
  }
}