{
  "address": "0x71e52AffE853714aef81253Fd38116f18D5b3264",
  "abi": [
    {
      "anonymous": false,
      "inputs": [
        {
          "indexed": false,
          "internalType": "uint256",
          "name": "takerNftChainId",
          "type": "uint256"
        },
        {
          "indexed": false,
          "internalType": "address",
          "name": "takerNftAddress",
          "type": "address"
        },
        {
          "indexed": false,
          "internalType": "uint256",
          "name": "takerNftId",
          "type": "uint256"
        },
        {
          "indexed": false,
          "internalType": "address",
          "name": "deployedContract",
          "type": "address"
        }
      ],
      "name": "TokenDeployed",
      "type": "event"
    },
    {
      "inputs": [],
      "name": "addressManager",
      "outputs": [
        {
          "internalType": "contract IAddressManager",
          "name": "",
          "type": "address"
        }
      ],
      "stateMutability": "view",
      "type": "function"
    },
    {
      "inputs": [],
      "name": "baseTokenUri",
      "outputs": [
        {
          "internalType": "string",
          "name": "",
          "type": "string"
        }
      ],
      "stateMutability": "view",
      "type": "function"
    },
    {
      "inputs": [
        {
          "internalType": "contract IAddressManager",
          "name": "_addressManager",
          "type": "address"
        },
        {
          "internalType": "address",
          "name": "_tokenImplementation",
          "type": "address"
        },
        {
          "internalType": "string",
          "name": "_baseTokenUri",
          "type": "string"
        }
      ],
      "name": "initialize",
      "outputs": [],
      "stateMutability": "nonpayable",
      "type": "function"
    },
    {
      "inputs": [
        {
          "internalType": "address",
          "name": "targetAddress",
          "type": "address"
        },
        {
          "internalType": "uint256",
          "name": "takerNftChainId",
          "type": "uint256"
        },
        {
          "internalType": "address",
          "name": "takerNftAddress",
          "type": "address"
        },
        {
          "internalType": "uint256",
          "name": "takerNftId",
          "type": "uint256"
        }
      ],
      "name": "issueLikeToken",
      "outputs": [
        {
          "internalType": "address",
          "name": "",
          "type": "address"
        },
        {
          "internalType": "uint256",
          "name": "",
          "type": "uint256"
        }
      ],
      "stateMutability": "nonpayable",
      "type": "function"
    },
    {
      "inputs": [
        {
          "internalType": "uint256",
          "name": "",
          "type": "uint256"
        }
      ],
      "name": "likeTokens",
      "outputs": [
        {
          "internalType": "contract ILikeToken1155",
          "name": "",
          "type": "address"
        }
      ],
      "stateMutability": "view",
      "type": "function"
    },
    {
      "inputs": [],
      "name": "tokenImplementation",
      "outputs": [
        {
          "internalType": "address",
          "name": "",
          "type": "address"
        }
      ],
      "stateMutability": "view",
      "type": "function"
    }
  ],
  "transactionHash": "0x8bfb92847cb4df2b82bfc96554de389dc67339b4f373fcea0afbe0182aaef9e3",
  "args": [],
  "numDeployments": 3,
  "solcInputHash": "ce4e5efcce12a63bbd861be302cf8cc2",
  "bytecode": "0x608060405234801561001057600080fd5b50610e11806100206000396000f3fe608060405234801561001057600080fd5b50600436106100625760003560e01c80632f3a3d5d146100675780633ab76e9f146100905780634571e3a6146100a95780634c690434146100be5780637a0101a2146100f0578063e242f76d14610105575b600080fd5b60025461007a906001600160a01b031681565b60405161008791906109a0565b60405180910390f35b60005461007a906201000090046001600160a01b031681565b6100bc6100b73660046109cc565b61012e565b005b6100d16100cc366004610a5e565b610285565b604080516001600160a01b039093168352602083019190915201610087565b6100f8610639565b6040516100879190610b02565b61007a610113366004610b15565b6001602052600090815260409020546001600160a01b031681565b600054610100900460ff166101495760005460ff161561014d565b303b155b6101b55760405162461bcd60e51b815260206004820152602e60248201527f496e697469616c697a61626c653a20636f6e747261637420697320616c72656160448201526d191e481a5b9a5d1a585b1a5e995960921b60648201526084015b60405180910390fd5b600054610100900460ff161580156101d7576000805461ffff19166101011790555b6001600160a01b0385166101fd5760405162461bcd60e51b81526004016101ac90610b2e565b600080546001600160a01b03808816620100000262010000600160b01b03199092169190911790915584166102445760405162461bcd60e51b81526004016101ac90610b2e565b600280546001600160a01b0319166001600160a01b03861617905561026b60038484610907565b50801561027e576000805461ff00191690555b5050505050565b60008060008060029054906101000a90046001600160a01b03166001600160a01b031662435da56040518163ffffffff1660e01b8152600401602060405180830381600087803b1580156102d857600080fd5b505af11580156102ec573d6000803e3d6000fd5b505050506040513d601f19601f820116820180604052508101906103109190610b57565b6040516306cddfb760e51b81529091506001600160a01b0382169063d9bbf6e09061033f9033906004016109a0565b60206040518083038186803b15801561035757600080fd5b505afa15801561036b573d6000803e3d6000fd5b505050506040513d601f19601f8201168201806040525081019061038f9190610b74565b6103cb5760405162461bcd60e51b815260206004820152600d60248201526c2737ba1027232a1020b236b4b760991b60448201526064016101ac565b6040805160208082018990526001600160a01b038881168385015260608084018990528451808503909101815260809093018452825192820192909220600081815260019092529290205416806105aa57600254600090610434906001600160a01b03166106c7565b90506001600160a01b0381166395a2fadc6003610452836014610764565b604051602001610463929190610c6a565b604051602081830303815290604052600060029054906101000a90046001600160a01b0316600360405160200161049a9190610c9f565b6040516020818303038152906040526104bd866001600160a01b03166014610764565b6040516020016104ce929190610cc5565b6040516020818303038152906040526040518463ffffffff1660e01b81526004016104fb93929190610cf4565b600060405180830381600087803b15801561051557600080fd5b505af1158015610529573d6000803e3d6000fd5b50505060008481526001602090815260409182902080546001600160a01b0319166001600160a01b0386811691821790925583518e8152918d16928201929092529182018a9052606082015291925082917f5018656a5c4c1dafde997aba1d1703b2697ccf17eb2dfa247d6ad960b8814214915060800160405180910390a1505b6040516335313c2160e11b81526000906001600160a01b03831690636a627842906105d9908d906004016109a0565b602060405180830381600087803b1580156105f357600080fd5b505af1158015610607573d6000803e3d6000fd5b505050506040513d601f19601f8201168201806040525081019061062b9190610d32565b999a98505050505050505050565b6003805461064690610b96565b80601f016020809104026020016040519081016040528092919081815260200182805461067290610b96565b80156106bf5780601f10610694576101008083540402835291602001916106bf565b820191906000526020600020905b8154815290600101906020018083116106a257829003601f168201915b505050505081565b6000604051733d602d80600a3d3981f3363d3d373d3d3d363d7360601b81528260601b60148201526e5af43d82803e903d91602b57fd5bf360881b60288201526037816000f09150506001600160a01b03811661075f5760405162461bcd60e51b8152602060048201526016602482015275115490cc4c4d8dce8818dc99585d194819985a5b195960521b60448201526064016101ac565b919050565b60606000610773836002610d61565b61077e906002610d80565b67ffffffffffffffff81111561079657610796610d98565b6040519080825280601f01601f1916602001820160405280156107c0576020820181803683370190505b509050600360fc1b816000815181106107db576107db610dae565b60200101906001600160f81b031916908160001a905350600f60fb1b8160018151811061080a5761080a610dae565b60200101906001600160f81b031916908160001a905350600061082e846002610d61565b610839906001610d80565b90505b60018111156108b1576f181899199a1a9b1b9c1cb0b131b232b360811b85600f166010811061086d5761086d610dae565b1a60f81b82828151811061088357610883610dae565b60200101906001600160f81b031916908160001a90535060049490941c936108aa81610dc4565b905061083c565b5083156109005760405162461bcd60e51b815260206004820181905260248201527f537472696e67733a20686578206c656e67746820696e73756666696369656e7460448201526064016101ac565b9392505050565b82805461091390610b96565b90600052602060002090601f016020900481019282610935576000855561097b565b82601f1061094e5782800160ff1982351617855561097b565b8280016001018555821561097b579182015b8281111561097b578235825591602001919060010190610960565b5061098792915061098b565b5090565b5b80821115610987576000815560010161098c565b6001600160a01b0391909116815260200190565b6001600160a01b03811681146109c957600080fd5b50565b600080600080606085870312156109e257600080fd5b84356109ed816109b4565b935060208501356109fd816109b4565b9250604085013567ffffffffffffffff80821115610a1a57600080fd5b818701915087601f830112610a2e57600080fd5b813581811115610a3d57600080fd5b886020828501011115610a4f57600080fd5b95989497505060200194505050565b60008060008060808587031215610a7457600080fd5b8435610a7f816109b4565b9350602085013592506040850135610a96816109b4565b9396929550929360600135925050565b60005b83811015610ac1578181015183820152602001610aa9565b83811115610ad0576000848401525b50505050565b60008151808452610aee816020860160208601610aa6565b601f01601f19169290920160200192915050565b6020815260006109006020830184610ad6565b600060208284031215610b2757600080fd5b5035919050565b6020808252600f908201526e125b9d985b1a59080c081a5b9c1d5d608a1b604082015260600190565b600060208284031215610b6957600080fd5b8151610900816109b4565b600060208284031215610b8657600080fd5b8151801515811461090057600080fd5b600181811c90821680610baa57607f821691505b60208210811415610bcb57634e487b7160e01b600052602260045260246000fd5b50919050565b8054600090600181811c9080831680610beb57607f831692505b6020808410821415610c0d57634e487b7160e01b600052602260045260246000fd5b818015610c215760018114610c3257610c5e565b60ff19861689528489019650610c5e565b876000528160002060005b86811015610c565781548b820152908501908301610c3d565b505084890196505b50505050505092915050565b6000610c768285610bd1565b8351610c86818360208801610aa6565b642f7b69647d60d81b9101908152600501949350505050565b6000610cab8284610bd1565b692f636f6e74726163742f60b01b8152600a019392505050565b60008351610cd7818460208801610aa6565b835190830190610ceb818360208801610aa6565b01949350505050565b606081526000610d076060830186610ad6565b6001600160a01b03851660208401528281036040840152610d288185610ad6565b9695505050505050565b600060208284031215610d4457600080fd5b5051919050565b634e487b7160e01b600052601160045260246000fd5b6000816000190483118215151615610d7b57610d7b610d4b565b500290565b60008219821115610d9357610d93610d4b565b500190565b634e487b7160e01b600052604160045260246000fd5b634e487b7160e01b600052603260045260246000fd5b600081610dd357610dd3610d4b565b50600019019056fea2646970667358221220dd11a7a5f42699bf48384a88eee5c5c251bff487e734981ac4a4d5d225f0566c64736f6c63430008090033",
  "devdoc": {
    "details": "This contract is responsible for issuing like tokens for a target NFT. It will keep track of like token contracts for each NFT.  When a new Like Token is issued, it will check to see if it already has deployed a like token contract and if not, deploy a new proxy contract for that token.",
    "events": {
      "TokenDeployed(uint256,address,uint256,address)": {
        "details": "emitted when new like token contract is created"
      }
    },
    "kind": "dev",
    "methods": {
      "initialize(address,address,string)": {
        "details": "initializer to call after deployment, can only be called once"
      },
      "issueLikeToken(address,uint256,address,uint256)": {
        "details": "issue like token to target address"
      }
    },
    "title": "LikeTokenFactory",
    "version": 1
  },
  "userdoc": {
    "kind": "user",
    "methods": {},
    "version": 1
  },
  "storageLayout": {
    "storage": [
      {
        "astId": 2435,
        "contract": "contracts/Likes/LikeTokenFactory.sol:LikeTokenFactory",
        "label": "_initialized",
        "offset": 0,
        "slot": "0",
        "type": "t_bool"
      },
      {
        "astId": 2438,
        "contract": "contracts/Likes/LikeTokenFactory.sol:LikeTokenFactory",
        "label": "_initializing",
        "offset": 1,
        "slot": "0",
        "type": "t_bool"
      },
      {
        "astId": 10658,
        "contract": "contracts/Likes/LikeTokenFactory.sol:LikeTokenFactory",
        "label": "addressManager",
        "offset": 2,
        "slot": "0",
        "type": "t_contract(IAddressManager)8328"
      },
      {
        "astId": 10664,
        "contract": "contracts/Likes/LikeTokenFactory.sol:LikeTokenFactory",
        "label": "likeTokens",
        "offset": 0,
        "slot": "1",
        "type": "t_mapping(t_uint256,t_contract(ILikeToken1155)10699)"
      },
      {
        "astId": 10667,
        "contract": "contracts/Likes/LikeTokenFactory.sol:LikeTokenFactory",
        "label": "tokenImplementation",
        "offset": 0,
        "slot": "2",
        "type": "t_address"
      },
      {
        "astId": 10670,
        "contract": "contracts/Likes/LikeTokenFactory.sol:LikeTokenFactory",
        "label": "baseTokenUri",
        "offset": 0,
        "slot": "3",
        "type": "t_string_storage"
      }
    ],
    "types": {
      "t_address": {
        "encoding": "inplace",
        "label": "address",
        "numberOfBytes": "20"
      },
      "t_bool": {
        "encoding": "inplace",
        "label": "bool",
        "numberOfBytes": "1"
      },
      "t_contract(IAddressManager)8328": {
        "encoding": "inplace",
        "label": "contract IAddressManager",
        "numberOfBytes": "20"
      },
      "t_contract(ILikeToken1155)10699": {
        "encoding": "inplace",
        "label": "contract ILikeToken1155",
        "numberOfBytes": "20"
      },
      "t_mapping(t_uint256,t_contract(ILikeToken1155)10699)": {
        "encoding": "mapping",
        "key": "t_uint256",
        "label": "mapping(uint256 => contract ILikeToken1155)",
        "numberOfBytes": "32",
        "value": "t_contract(ILikeToken1155)10699"
      },
      "t_string_storage": {
        "encoding": "bytes",
        "label": "string",
        "numberOfBytes": "32"
      },
      "t_uint256": {
        "encoding": "inplace",
        "label": "uint256",
        "numberOfBytes": "32"
      }
    }
  }
}