{
  "address": "0x7F652952B341a698343ED92BAfc727b0b82F63CA",
  "abi": [
    {
      "inputs": [],
      "name": "SignatureExpired",
      "type": "error"
    },
    {
      "inputs": [],
      "name": "SignatureInvalid",
      "type": "error"
    },
    {
      "anonymous": false,
      "inputs": [
        {
          "indexed": false,
          "internalType": "uint256",
          "name": "nftChainId",
          "type": "uint256"
        },
        {
          "indexed": true,
          "internalType": "address",
          "name": "nftContractAddress",
          "type": "address"
        },
        {
          "indexed": true,
          "internalType": "uint256",
          "name": "nftId",
          "type": "uint256"
        },
        {
          "indexed": true,
          "internalType": "address",
          "name": "nftOwnerAddress",
          "type": "address"
        },
        {
          "indexed": false,
          "internalType": "uint256",
          "name": "sourceId",
          "type": "uint256"
        }
      ],
      "name": "Deregistered",
      "type": "event"
    },
    {
      "anonymous": false,
      "inputs": [
        {
          "indexed": false,
          "internalType": "uint8",
          "name": "version",
          "type": "uint8"
        }
      ],
      "name": "Initialized",
      "type": "event"
    },
    {
      "anonymous": false,
      "inputs": [
        {
          "indexed": false,
          "internalType": "uint256",
          "name": "nftChainId",
          "type": "uint256"
        },
        {
          "indexed": true,
          "internalType": "address",
          "name": "nftContractAddress",
          "type": "address"
        },
        {
          "indexed": true,
          "internalType": "uint256",
          "name": "nftId",
          "type": "uint256"
        },
        {
          "indexed": true,
          "internalType": "address",
          "name": "nftOwnerAddress",
          "type": "address"
        },
        {
          "indexed": false,
          "internalType": "address[]",
          "name": "nftCreatorAddresses",
          "type": "address[]"
        },
        {
          "indexed": false,
          "internalType": "uint256[]",
          "name": "creatorSaleBasisPoints",
          "type": "uint256[]"
        },
        {
          "indexed": false,
          "internalType": "uint256",
          "name": "optionBits",
          "type": "uint256"
        },
        {
          "indexed": false,
          "internalType": "uint256",
          "name": "sourceId",
          "type": "uint256"
        },
        {
          "indexed": false,
          "internalType": "uint256",
          "name": "transformId",
          "type": "uint256"
        },
        {
          "indexed": false,
          "internalType": "string",
          "name": "ipfsMetadataHash",
          "type": "string"
        }
      ],
      "name": "Registered",
      "type": "event"
    },
    {
      "inputs": [],
      "name": "MAKER_META_PREFIX",
      "outputs": [
        {
          "internalType": "string",
          "name": "",
          "type": "string"
        }
      ],
      "stateMutability": "view",
      "type": "function"
    },
    {
      "inputs": [],
      "name": "SIG_DOMAIN_NAME",
      "outputs": [
        {
          "internalType": "string",
          "name": "",
          "type": "string"
        }
      ],
      "stateMutability": "view",
      "type": "function"
    },
    {
      "inputs": [],
      "name": "addressManager",
      "outputs": [
        {
          "internalType": "contract IAddressManager",
          "name": "",
          "type": "address"
        }
      ],
      "stateMutability": "view",
      "type": "function"
    },
    {
      "inputs": [
        {
          "internalType": "address",
          "name": "owner",
          "type": "address"
        },
        {
          "internalType": "uint256",
          "name": "chainId",
          "type": "uint256"
        },
        {
          "internalType": "address",
          "name": "nftContractAddress",
          "type": "address"
        },
        {
          "internalType": "uint256",
          "name": "nftId",
          "type": "uint256"
        }
      ],
      "name": "deRegisterNftFromBridge",
      "outputs": [],
      "stateMutability": "nonpayable",
      "type": "function"
    },
    {
      "inputs": [
        {
          "internalType": "address",
          "name": "nftContractAddress",
          "type": "address"
        },
        {
          "internalType": "uint256",
          "name": "nftId",
          "type": "uint256"
        }
      ],
      "name": "deregisterNft",
      "outputs": [],
      "stateMutability": "nonpayable",
      "type": "function"
    },
    {
      "inputs": [
        {
          "internalType": "uint256",
          "name": "chainId",
          "type": "uint256"
        },
        {
          "internalType": "address",
          "name": "nftContractAddress",
          "type": "address"
        },
        {
          "internalType": "uint256",
          "name": "nftId",
          "type": "uint256"
        }
      ],
      "name": "deriveSourceId",
      "outputs": [
        {
          "internalType": "uint256",
          "name": "",
          "type": "uint256"
        }
      ],
      "stateMutability": "pure",
      "type": "function"
    },
    {
      "inputs": [
        {
          "internalType": "contract IAddressManager",
          "name": "_addressManager",
          "type": "address"
        }
      ],
      "name": "initialize",
      "outputs": [],
      "stateMutability": "nonpayable",
      "type": "function"
    },
    {
      "inputs": [
        {
          "internalType": "address",
          "name": "nftContractAddress",
          "type": "address"
        },
        {
          "internalType": "uint256",
          "name": "nftId",
          "type": "uint256"
        },
        {
          "internalType": "address",
          "name": "creatorAddress",
          "type": "address"
        },
        {
          "internalType": "uint256",
          "name": "creatorSaleBasisPoints",
          "type": "uint256"
        },
        {
          "internalType": "uint256",
          "name": "optionBits",
          "type": "uint256"
        },
        {
          "internalType": "string",
          "name": "ipfsMetadataHash",
          "type": "string"
        }
      ],
      "name": "registerNft",
      "outputs": [],
      "stateMutability": "nonpayable",
      "type": "function"
    },
    {
      "inputs": [
        {
          "internalType": "address",
          "name": "registrant",
          "type": "address"
        },
        {
          "internalType": "address",
          "name": "nftContractAddress",
          "type": "address"
        },
        {
          "internalType": "uint256",
          "name": "nftId",
          "type": "uint256"
        },
        {
          "internalType": "address",
          "name": "creatorAddress",
          "type": "address"
        },
        {
          "internalType": "uint256",
          "name": "creatorSaleBasisPoints",
          "type": "uint256"
        },
        {
          "internalType": "uint256",
          "name": "optionBits",
          "type": "uint256"
        },
        {
          "internalType": "string",
          "name": "ipfsMetadataHash",
          "type": "string"
        }
      ],
      "name": "registerNftAsDispatcher",
      "outputs": [],
      "stateMutability": "nonpayable",
      "type": "function"
    },
    {
      "inputs": [
        {
          "internalType": "address",
          "name": "owner",
          "type": "address"
        },
        {
          "internalType": "uint256",
          "name": "chainId",
          "type": "uint256"
        },
        {
          "internalType": "address",
          "name": "nftContractAddress",
          "type": "address"
        },
        {
          "internalType": "uint256",
          "name": "nftId",
          "type": "uint256"
        },
        {
          "internalType": "address[]",
          "name": "creatorAddresses",
          "type": "address[]"
        },
        {
          "internalType": "uint256[]",
          "name": "creatorSaleBasisPoints",
          "type": "uint256[]"
        },
        {
          "internalType": "uint256",
          "name": "optionBits",
          "type": "uint256"
        },
        {
          "internalType": "string",
          "name": "ipfsMetadataHash",
          "type": "string"
        }
      ],
      "name": "registerNftFromBridge",
      "outputs": [],
      "stateMutability": "nonpayable",
      "type": "function"
    },
    {
      "inputs": [
        {
          "components": [
            {
              "internalType": "address",
              "name": "registrant",
              "type": "address"
            },
            {
              "internalType": "address",
              "name": "nftContractAddress",
              "type": "address"
            },
            {
              "internalType": "uint256",
              "name": "nftId",
              "type": "uint256"
            },
            {
              "internalType": "address",
              "name": "creatorAddress",
              "type": "address"
            },
            {
              "internalType": "uint256",
              "name": "creatorSaleBasisPoints",
              "type": "uint256"
            },
            {
              "internalType": "uint256",
              "name": "optionBits",
              "type": "uint256"
            },
            {
              "internalType": "string",
              "name": "ipfsMetadataHash",
              "type": "string"
            },
            {
              "components": [
                {
                  "internalType": "uint8",
                  "name": "v",
                  "type": "uint8"
                },
                {
                  "internalType": "bytes32",
                  "name": "r",
                  "type": "bytes32"
                },
                {
                  "internalType": "bytes32",
                  "name": "s",
                  "type": "bytes32"
                },
                {
                  "internalType": "uint256",
                  "name": "deadline",
                  "type": "uint256"
                }
              ],
              "internalType": "struct DataTypes.EIP712Signature",
              "name": "sig",
              "type": "tuple"
            }
          ],
          "internalType": "struct DataTypes.RegisterNftWithSigData",
          "name": "vars",
          "type": "tuple"
        }
      ],
      "name": "registerNftWithSig",
      "outputs": [],
      "stateMutability": "nonpayable",
      "type": "function"
    },
    {
      "inputs": [
        {
          "internalType": "uint256",
          "name": "",
          "type": "uint256"
        }
      ],
      "name": "sourceToDetails",
      "outputs": [
        {
          "internalType": "bool",
          "name": "registered",
          "type": "bool"
        },
        {
          "internalType": "address",
          "name": "owner",
          "type": "address"
        }
      ],
      "stateMutability": "view",
      "type": "function"
    },
    {
      "inputs": [
        {
          "internalType": "uint256",
          "name": "index",
          "type": "uint256"
        }
      ],
      "name": "sourceToDetailsLookup",
      "outputs": [
        {
          "components": [
            {
              "internalType": "bool",
              "name": "registered",
              "type": "bool"
            },
            {
              "internalType": "address",
              "name": "owner",
              "type": "address"
            },
            {
              "internalType": "address[]",
              "name": "creators",
              "type": "address[]"
            },
            {
              "internalType": "uint256[]",
              "name": "creatorSaleBasisPoints",
              "type": "uint256[]"
            }
          ],
          "internalType": "struct IMakerRegistrar.NftDetails",
          "name": "",
          "type": "tuple"
        }
      ],
      "stateMutability": "view",
      "type": "function"
    },
    {
      "inputs": [
        {
          "internalType": "uint256",
          "name": "",
          "type": "uint256"
        }
      ],
      "name": "transformToSourceLookup",
      "outputs": [
        {
          "internalType": "uint256",
          "name": "",
          "type": "uint256"
        }
      ],
      "stateMutability": "view",
      "type": "function"
    },
    {
      "inputs": [
        {
          "internalType": "address",
          "name": "nftContractAddress",
          "type": "address"
        },
        {
          "internalType": "uint256",
          "name": "nftId",
          "type": "uint256"
        },
        {
          "internalType": "address",
          "name": "potentialOwner",
          "type": "address"
        }
      ],
      "name": "verifyOwnership",
      "outputs": [
        {
          "internalType": "bool",
          "name": "",
          "type": "bool"
        }
      ],
      "stateMutability": "view",
      "type": "function"
    }
  ],
  "transactionHash": "0xf5bebfa120dc385de60685fb68746bac149d910127ea65cb46d2665ff3dc08fd",
  "args": [],
  "numDeployments": 2,
  "solcInputHash": "b84b00b90490290595acf2b30cb1ae9d",
  "bytecode": "0x608060405234801561001057600080fd5b50612161806100206000396000f3fe608060405234801561001057600080fd5b50600436106100d55760003560e01c80639cdce188116100875780639cdce188146101e6578063c46bd379146101f9578063c4d66de814610219578063c679ff9a1461022c578063c93b76c91461023f578063e6c2c56014610252578063edad684a146102a4578063fb9b92bc146102b757600080fd5b80633ab76e9f146100da5780633d834f3b146101105780635229fcb71461012557806371f0cca31461015e57806377c3ccdc1461018257806393d3b1b21461019557806394b99569146101b8575b600080fd5b6000546100f3906201000090046001600160a01b031681565b6040516001600160a01b0390911681526020015b60405180910390f35b61012361011e366004611786565b6102ca565b005b6101516040518060400160405280600d81526020016c14985c9848141c9bdd1bd8dbdb609a1b81525081565b604051610107919061180e565b6101516040518060400160405280600581526020016426a0a5a2a960d91b81525081565b610123610190366004611891565b61064c565b6101a86101a3366004611928565b610892565b6040519015158152602001610107565b6101d86101c636600461196a565b60016020526000908152604090205481565b604051908152602001610107565b6101236101f4366004611983565b6108a9565b61020c61020736600461196a565b6108e0565b60405161010791906119ea565b610123610227366004611a7e565b6109f0565b61012361023a366004611a9b565b610b1b565b6101d861024d366004611b20565b610bb8565b61028561026036600461196a565b60026020526000908152604090205460ff81169061010090046001600160a01b031682565b6040805192151583526001600160a01b03909116602083015201610107565b6101236102b2366004611c90565b610bc5565b6101236102c5366004611d5f565b610c8e565b6104fc6104e67fa158b160637d2fcc14bb25ce42048195b5d832df1b3332bc8543c42dac9a5fe76102fe6020850185611a7e565b61030e6040860160208701611a7e565b60408601356103236080880160608901611a7e565b608088013560a089013561033a60c08b018b611da7565b604051610348929190611ded565b6040518091039020600060029054906101000a90046001600160a01b03166001600160a01b031663b27bcea16040518163ffffffff1660e01b8152600401602060405180830381600087803b1580156103a057600080fd5b505af11580156103b4573d6000803e3d6000fd5b505050506040513d601f19601f820116820180604052508101906103d89190611dfd565b6001600160a01b031663c9fac01c6103f360208e018e611a7e565b6040516001600160e01b031960e084901b1681526001600160a01b039091166004820152602401602060405180830381600087803b15801561043457600080fd5b505af1158015610448573d6000803e3d6000fd5b505050506040513d601f19601f8201168201806040525081019061046c9190611e1a565b60408051602081019a909a526001600160a01b03988916908a0152958716606089015260808801949094529490911660a086015260c085015260e084019290925261010083019190915261012082015261014084810135908201526101600160405160208183030381529060405280519060200120610d58565b6104f36020840184611a7e565b8360e001610e5d565b61052161050f6040830160208401611a7e565b60408301356101a36020850185611a7e565b6105465760405162461bcd60e51b815260040161053d90611e33565b60405180910390fd5b600080610603600060029054906101000a90046001600160a01b03166001600160a01b031663a11b07126040518163ffffffff1660e01b8152600401602060405180830381600087803b15801561059c57600080fd5b505af11580156105b0573d6000803e3d6000fd5b505050506040513d601f19601f820116820180604052508101906105d49190611dfd565b6105e46040860160208701611a7e565b60408601356105f96080880160608901611a7e565b8760800135610f3b565b90925090506106476106186020850185611a7e565b466106296040870160208801611a7e565b6040870135868660a08a013561064260c08c018c611da7565b611191565b505050565b336001600160a01b03891614806107675750600060029054906101000a90046001600160a01b03166001600160a01b0316636116399c6040518163ffffffff1660e01b8152600401602060405180830381600087803b1580156106ae57600080fd5b505af11580156106c2573d6000803e3d6000fd5b505050506040513d601f19601f820116820180604052508101906106e69190611dfd565b60405163ef97c55b60e01b81526001600160a01b038a81166004830152336024830152919091169063ef97c55b9060440160206040518083038186803b15801561072f57600080fd5b505afa158015610743573d6000803e3d6000fd5b505050506040513d601f19601f820116820180604052508101906107679190611e5a565b6107b35760405162461bcd60e51b815260206004820181905260248201527f4e6f74206163636f756e7420686f6c646572206f722064697370617463686572604482015260640161053d565b6107be87878a610892565b6107da5760405162461bcd60e51b815260040161053d90611e33565b600080610871600060029054906101000a90046001600160a01b03166001600160a01b031663a11b07126040518163ffffffff1660e01b8152600401602060405180830381600087803b15801561083057600080fd5b505af1158015610844573d6000803e3d6000fd5b505050506040513d601f19601f820116820180604052508101906108689190611dfd565b8a8a8a8a610f3b565b915091506108868a468b8b86868b8b8b611191565b50505050505050505050565b600061089f848484611305565b90505b9392505050565b6108b4828233610892565b6108d05760405162461bcd60e51b815260040161053d90611e33565b6108dc334684846114a5565b5050565b604080516080808201835260008083526020808401829052606084860181905280850152858252600281529084902084519283018552805460ff81161515845261010090046001600160a01b031683830152600181018054865181850281018501885281815295969495929486019383018282801561098857602002820191906000526020600020905b81546001600160a01b0316815260019091019060200180831161096a575b50505050508152602001600282018054806020026020016040519081016040528092919081815260200182805480156109e057602002820191906000526020600020905b8154815260200190600101908083116109cc575b5050505050815250509050919050565b600054610100900460ff1615808015610a105750600054600160ff909116105b80610a2a5750303b158015610a2a575060005460ff166001145b610a8d5760405162461bcd60e51b815260206004820152602e60248201527f496e697469616c697a61626c653a20636f6e747261637420697320616c72656160448201526d191e481a5b9a5d1a585b1a5e995960921b606482015260840161053d565b6000805460ff191660011790558015610ab0576000805461ff0019166101001790555b6000805462010000600160b01b031916620100006001600160a01b0385160217905580156108dc576000805461ff0019169055604051600181527f7f26b83ff96e1f2b6a682f133852f6798a09c465da95921460cefb38474024989060200160405180910390a15050565b610b26878733610892565b610b425760405162461bcd60e51b815260040161053d90611e33565b600080610b98600060029054906101000a90046001600160a01b03166001600160a01b031663a11b07126040518163ffffffff1660e01b8152600401602060405180830381600087803b15801561083057600080fd5b91509150610bad33468b8b86868b8b8b611191565b505050505050505050565b600061089f848484611565565b600060029054906101000a90046001600160a01b03166001600160a01b031663085da3106040518163ffffffff1660e01b8152600401602060405180830381600087803b158015610c1557600080fd5b505af1158015610c29573d6000803e3d6000fd5b505050506040513d601f19601f82011682018060405250810190610c4d9190611dfd565b6001600160a01b0316336001600160a01b031614610c7d5760405162461bcd60e51b815260040161053d90611e7c565b610bad898989898989898989611191565b600060029054906101000a90046001600160a01b03166001600160a01b031663085da3106040518163ffffffff1660e01b8152600401602060405180830381600087803b158015610cde57600080fd5b505af1158015610cf2573d6000803e3d6000fd5b505050506040513d601f19601f82011682018060405250810190610d169190611dfd565b6001600160a01b0316336001600160a01b031614610d465760405162461bcd60e51b815260040161053d90611e7c565b610d52848484846114a5565b50505050565b600080610e1e604080518082018252600d81526c14985c9848141c9bdd1bd8dbdb609a1b60209182015281517f8b73c3c69bb8fe3d512ecc4cf759cc79239f7b179b0ffacaa9a75d522b39400f818301527f83a4bbdefa59dc908edca29c5353161283046ee5923d073615f615d480d5e519818401527fc89efdaa54c0f20c7adf612882df0950f5a951637e0307cdcb4c672f298b8bc660608201524660808201523060a0808301919091528351808303909101815260c0909101909252815191012090565b60405161190160f01b602082015260228101919091526042810184905260620160408051601f1981840301815291905280516020909101209392505050565b4281606001351015610e8257604051630819bdcd60e01b815260040160405180910390fd5b6000600184610e946020850185611ea0565b604080516000815260208181018084529490945260ff9092168282015291850135606082015290840135608082015260a0016020604051602081039080840390855afa158015610ee8573d6000803e3d6000fd5b5050604051601f1901519150506001600160a01b0381161580610f1d5750826001600160a01b0316816001600160a01b031614155b15610d52576040516337e8456b60e01b815260040160405180910390fd5b6060806001600160a01b038716156110ab57604051630f84100560e21b81526001600160a01b038781166004830152602482018790526127106044830152881690633e1040149060640160006040518083038186803b158015610f9d57600080fd5b505afa925050508015610fd257506040513d6000823e601f3d908101601f19168201604052610fcf9190810190611f1e565b60015b610fdb576110ab565b610fe582826115a5565b156110a857600082516001600160401b0381111561100557611005611b58565b60405190808252806020026020018201604052801561102e578160200160208202803683370190505b50905060005b83518160ff16101561109c57838160ff168151811061105557611055611fe2565b6020026020010151828260ff168151811061107257611072611fe2565b6001600160a01b0390921660209283029190910190910152806110948161200e565b915050611034565b50935091506111879050565b50505b6040805160018082528183019092526000916020808301908036833701905050905084816000815181106110e1576110e1611fe2565b60200260200101906001600160a01b031690816001600160a01b0316815250506127108411156111405760405162461bcd60e51b815260206004820152600a6024820152690496e76616c69642062760b41b604482015260640161053d565b60408051600180825281830190925260009160208083019080368337019050509050848160008151811061117657611176611fe2565b602090810291909101015290925090505b9550959350505050565b600061119e898989611565565b6040805160808101825260018082526001600160a01b038e811660208085019182528486018d8152606086018d9052600088815260028352969096208551815493516001600160a81b0319909416901515610100600160a81b0319161761010093909416929092029290921781559351805195965092946112269392850192909101906116d1565b5060608201518051611242916002840191602090910190611736565b5090505060006040518060400160405280600581526020016426a0a5a2a960d91b815250828660405160200161127a9392919061202e565b60408051601f1981840301815282825280516020918201206000818152600190925291902084905591506001600160a01b03808d16918a918c16907fdc43be3f8fe56f267b4076b025ac2b89403f51683a4c26ce0e06629a983f3c36906112f0908f908d908d908d908b908b908f908f9061207c565b60405180910390a45050505050505050505050565b604051627eeac760e11b81526001600160a01b038281166004830152602482018490526000919085169062fdd58e9060440160206040518083038186803b15801561134f57600080fd5b505afa92505050801561137f575060408051601f3d908101601f1916820190925261137c91810190611e1a565b60015b61138857611391565b151590506108a2565b6040516331a9108f60e11b8152600481018490526001600160a01b03851690636352211e9060240160206040518083038186803b1580156113d157600080fd5b505afa925050508015611401575060408051601f3d908101601f191682019092526113fe91810190611dfd565b60015b61140a57611427565b826001600160a01b0316816001600160a01b0316149150506108a2565b604051630b02f02d60e31b8152600481018490526001600160a01b0385169063581781689060240160206040518083038186803b15801561146757600080fd5b505afa925050508015611497575060408051601f3d908101601f1916820190925261149491810190611dfd565b60015b61140a575060009392505050565b60006114b2848484611565565b600081815260026020526040902080549192509060ff1661150a5760405162461bcd60e51b8152602060048201526012602482015271139195081b9bdd081c9959da5cdd195c995960721b604482015260640161053d565b805460ff1916815560408051868152602081018490526001600160a01b03888116928692918816917fc28b8c1d4eaa6783dcb863be8316bc472cb667710ee0dd123a04397f91bab65f910160405180910390a4505050505050565b604080516020808201959095526001600160a01b039390931683820152606080840192909252805180840390920182526080909201909152805191012090565b60008251600014156115b9575060006116cb565b81518351146115ca575060006116cb565b6000805b84518160ff1610156116b05760006001600160a01b0316858260ff16815181106115fa576115fa611fe2565b60200260200101516001600160a01b0316141561161c576000925050506116cb565b838160ff168151811061163157611631611fe2565b6020026020010151600014806116645750612710848260ff168151811061165a5761165a611fe2565b6020026020010151115b15611674576000925050506116cb565b838160ff168151811061168957611689611fe2565b60200260200101518261169c9190612113565b9150806116a88161200e565b9150506115ce565b506127108111156116c55760009150506116cb565b60019150505b92915050565b828054828255906000526020600020908101928215611726579160200282015b8281111561172657825182546001600160a01b0319166001600160a01b039091161782556020909201916001909101906116f1565b50611732929150611771565b5090565b828054828255906000526020600020908101928215611726579160200282015b82811115611726578251825591602001919060010190611756565b5b808211156117325760008155600101611772565b60006020828403121561179857600080fd5b81356001600160401b038111156117ae57600080fd5b820161016081850312156108a257600080fd5b6000815180845260005b818110156117e7576020818501810151868301820152016117cb565b818111156117f9576000602083870101525b50601f01601f19169290920160200192915050565b6020815260006108a260208301846117c1565b6001600160a01b038116811461183657600080fd5b50565b803561184481611821565b919050565b60008083601f84011261185b57600080fd5b5081356001600160401b0381111561187257600080fd5b60208301915083602082850101111561188a57600080fd5b9250929050565b60008060008060008060008060e0898b0312156118ad57600080fd5b88356118b881611821565b975060208901356118c881611821565b96506040890135955060608901356118df81611821565b94506080890135935060a0890135925060c08901356001600160401b0381111561190857600080fd5b6119148b828c01611849565b999c989b5096995094979396929594505050565b60008060006060848603121561193d57600080fd5b833561194881611821565b925060208401359150604084013561195f81611821565b809150509250925092565b60006020828403121561197c57600080fd5b5035919050565b6000806040838503121561199657600080fd5b82356119a181611821565b946020939093013593505050565b600081518084526020808501945080840160005b838110156119df578151875295820195908201906001016119c3565b509495945050505050565b60208082528251151582820152828101516001600160a01b0390811660408085019190915284015160806060850152805160a085018190526000939291830191849160c08701905b80841015611a5457845183168252938501936001939093019290850190611a32565b506060880151878203601f190160808901529450611a7281866119af565b98975050505050505050565b600060208284031215611a9057600080fd5b81356108a281611821565b600080600080600080600060c0888a031215611ab657600080fd5b8735611ac181611821565b9650602088013595506040880135611ad881611821565b9450606088013593506080880135925060a08801356001600160401b03811115611b0157600080fd5b611b0d8a828b01611849565b989b979a50959850939692959293505050565b600080600060608486031215611b3557600080fd5b833592506020840135611b4781611821565b929592945050506040919091013590565b634e487b7160e01b600052604160045260246000fd5b604051601f8201601f191681016001600160401b0381118282101715611b9657611b96611b58565b604052919050565b60006001600160401b03821115611bb757611bb7611b58565b5060051b60200190565b600082601f830112611bd257600080fd5b81356020611be7611be283611b9e565b611b6e565b82815260059290921b84018101918181019086841115611c0657600080fd5b8286015b84811015611c2a578035611c1d81611821565b8352918301918301611c0a565b509695505050505050565b600082601f830112611c4657600080fd5b81356020611c56611be283611b9e565b82815260059290921b84018101918181019086841115611c7557600080fd5b8286015b84811015611c2a5780358352918301918301611c79565b60008060008060008060008060006101008a8c031215611caf57600080fd5b611cb88a611839565b985060208a01359750611ccd60408b01611839565b965060608a0135955060808a01356001600160401b0380821115611cf057600080fd5b611cfc8d838e01611bc1565b965060a08c0135915080821115611d1257600080fd5b611d1e8d838e01611c35565b955060c08c0135945060e08c0135915080821115611d3b57600080fd5b50611d488c828d01611849565b915080935050809150509295985092959850929598565b60008060008060808587031215611d7557600080fd5b8435611d8081611821565b9350602085013592506040850135611d9781611821565b9396929550929360600135925050565b6000808335601e19843603018112611dbe57600080fd5b8301803591506001600160401b03821115611dd857600080fd5b60200191503681900382131561188a57600080fd5b8183823760009101908152919050565b600060208284031215611e0f57600080fd5b81516108a281611821565b600060208284031215611e2c57600080fd5b5051919050565b6020808252600d908201526c139195081b9bdd081bdddb9959609a1b604082015260600190565b600060208284031215611e6c57600080fd5b815180151581146108a257600080fd5b6020808252600a90820152694e6f742042726964676560b01b604082015260600190565b600060208284031215611eb257600080fd5b813560ff811681146108a257600080fd5b600082601f830112611ed457600080fd5b81516020611ee4611be283611b9e565b82815260059290921b84018101918181019086841115611f0357600080fd5b8286015b84811015611c2a5780518352918301918301611f07565b60008060408385031215611f3157600080fd5b82516001600160401b0380821115611f4857600080fd5b818501915085601f830112611f5c57600080fd5b81516020611f6c611be283611b9e565b82815260059290921b84018101918181019089841115611f8b57600080fd5b948201945b83861015611fb2578551611fa381611821565b82529482019490820190611f90565b91880151919650909350505080821115611fcb57600080fd5b50611fd885828601611ec3565b9150509250929050565b634e487b7160e01b600052603260045260246000fd5b634e487b7160e01b600052601160045260246000fd5b600060ff821660ff81141561202557612025611ff8565b60010192915050565b60608152600061204160608301866117c1565b60208301949094525060400152919050565b81835281816020850137506000828201602090810191909152601f909101601f19169091010190565b600060e082018a8352602060e081850152818b5180845261010086019150828d01935060005b818110156120c75784516001600160a01b0316835293830193918301916001016120a2565b505084810360408601526120db818c6119af565b925050508760608401528660808401528560a084015282810360c0840152612104818587612053565b9b9a5050505050505050505050565b6000821982111561212657612126611ff8565b50019056fea2646970667358221220c1ae809ff5b73143f24d9dff41177b771429ccc490d40dce3c7317bfd79ca88264736f6c63430008090033",
  "devdoc": {
    "details": "This contract tracks registered NFTs.  Owners of an NFT can register and deregister any NFTs owned in their wallet. Also, for the mappings, it is assumed the protocol will always look up the current owner of an NFT when running logic (which is why the owner address is not stored).  If desired, an off-chain indexer like The Graph can index registration addresses to NFTs.",
    "events": {
      "Deregistered(uint256,address,uint256,address,uint256)": {
        "details": "Event triggered when an NFT is deregistered from the system"
      },
      "Registered(uint256,address,uint256,address,address[],uint256[],uint256,uint256,uint256,string)": {
        "details": "Event triggered when an NFT is registered in the system"
      }
    },
    "kind": "dev",
    "methods": {
      "deregisterNft(address,uint256)": {
        "details": "Allow an NFT owner to deregister and remove capability for reactions to be sold. Caller must currently own the NFT being deregistered"
      },
      "initialize(address)": {
        "details": "initializer to call after deployment, can only be called once"
      },
      "registerNft(address,uint256,address,uint256,uint256,string)": {
        "details": "Allows a NFT owner to register the NFT in the protocol so that reactions can be sold. Owner registering must own the NFT in the wallet calling function."
      },
      "registerNftWithSig((address,address,uint256,address,uint256,uint256,string,(uint8,bytes32,bytes32,uint256)))": {
        "details": "Allows a NFT owner to register the NFT in the protocol so that reactions can be sold. Owner registering must own the NFT in the wallet calling function."
      },
      "verifyOwnership(address,uint256,address)": {
        "details": "For the specified NFT, verify it is owned by the potential owner"
      }
    },
    "title": "MakerRegistrar",
    "version": 1
  },
  "userdoc": {
    "kind": "user",
    "methods": {},
    "version": 1
  },
  "storageLayout": {
    "storage": [
      {
        "astId": 2446,
        "contract": "contracts/Maker/MakerRegistrar.sol:MakerRegistrar",
        "label": "_initialized",
        "offset": 0,
        "slot": "0",
        "type": "t_uint8"
      },
      {
        "astId": 2449,
        "contract": "contracts/Maker/MakerRegistrar.sol:MakerRegistrar",
        "label": "_initializing",
        "offset": 1,
        "slot": "0",
        "type": "t_bool"
      },
      {
        "astId": 12365,
        "contract": "contracts/Maker/MakerRegistrar.sol:MakerRegistrar",
        "label": "addressManager",
        "offset": 2,
        "slot": "0",
        "type": "t_contract(IAddressManager)8719"
      },
      {
        "astId": 12375,
        "contract": "contracts/Maker/MakerRegistrar.sol:MakerRegistrar",
        "label": "transformToSourceLookup",
        "offset": 0,
        "slot": "1",
        "type": "t_mapping(t_uint256,t_uint256)"
      },
      {
        "astId": 12381,
        "contract": "contracts/Maker/MakerRegistrar.sol:MakerRegistrar",
        "label": "sourceToDetails",
        "offset": 0,
        "slot": "2",
        "type": "t_mapping(t_uint256,t_struct(NftDetails)11676_storage)"
      }
    ],
    "types": {
      "t_address": {
        "encoding": "inplace",
        "label": "address",
        "numberOfBytes": "20"
      },
      "t_array(t_address)dyn_storage": {
        "base": "t_address",
        "encoding": "dynamic_array",
        "label": "address[]",
        "numberOfBytes": "32"
      },
      "t_array(t_uint256)dyn_storage": {
        "base": "t_uint256",
        "encoding": "dynamic_array",
        "label": "uint256[]",
        "numberOfBytes": "32"
      },
      "t_bool": {
        "encoding": "inplace",
        "label": "bool",
        "numberOfBytes": "1"
      },
      "t_contract(IAddressManager)8719": {
        "encoding": "inplace",
        "label": "contract IAddressManager",
        "numberOfBytes": "20"
      },
      "t_mapping(t_uint256,t_struct(NftDetails)11676_storage)": {
        "encoding": "mapping",
        "key": "t_uint256",
        "label": "mapping(uint256 => struct IMakerRegistrar.NftDetails)",
        "numberOfBytes": "32",
        "value": "t_struct(NftDetails)11676_storage"
      },
      "t_mapping(t_uint256,t_uint256)": {
        "encoding": "mapping",
        "key": "t_uint256",
        "label": "mapping(uint256 => uint256)",
        "numberOfBytes": "32",
        "value": "t_uint256"
      },
      "t_struct(NftDetails)11676_storage": {
        "encoding": "inplace",
        "label": "struct IMakerRegistrar.NftDetails",
        "members": [
          {
            "astId": 11667,
            "contract": "contracts/Maker/MakerRegistrar.sol:MakerRegistrar",
            "label": "registered",
            "offset": 0,
            "slot": "0",
            "type": "t_bool"
          },
          {
            "astId": 11669,
            "contract": "contracts/Maker/MakerRegistrar.sol:MakerRegistrar",
            "label": "owner",
            "offset": 1,
            "slot": "0",
            "type": "t_address"
          },
          {
            "astId": 11672,
            "contract": "contracts/Maker/MakerRegistrar.sol:MakerRegistrar",
            "label": "creators",
            "offset": 0,
            "slot": "1",
            "type": "t_array(t_address)dyn_storage"
          },
          {
            "astId": 11675,
            "contract": "contracts/Maker/MakerRegistrar.sol:MakerRegistrar",
            "label": "creatorSaleBasisPoints",
            "offset": 0,
            "slot": "2",
            "type": "t_array(t_uint256)dyn_storage"
          }
        ],
        "numberOfBytes": "96"
      },
      "t_uint256": {
        "encoding": "inplace",
        "label": "uint256",
        "numberOfBytes": "32"
      },
      "t_uint8": {
        "encoding": "inplace",
        "label": "uint8",
        "numberOfBytes": "1"
      }
    }
  }
}