{
  "address": "0xFC22b655CA2021D785F2D39CE5Aa2b186c13b352",
  "abi": [
    {
      "anonymous": false,
      "inputs": [
        {
          "indexed": false,
          "internalType": "uint256",
          "name": "nftChainId",
          "type": "uint256"
        },
        {
          "indexed": true,
          "internalType": "address",
          "name": "nftContractAddress",
          "type": "address"
        },
        {
          "indexed": true,
          "internalType": "uint256",
          "name": "nftId",
          "type": "uint256"
        },
        {
          "indexed": true,
          "internalType": "address",
          "name": "nftOwnerAddress",
          "type": "address"
        },
        {
          "indexed": false,
          "internalType": "uint256",
          "name": "sourceId",
          "type": "uint256"
        }
      ],
      "name": "Deregistered",
      "type": "event"
    },
    {
      "anonymous": false,
      "inputs": [
        {
          "indexed": false,
          "internalType": "uint8",
          "name": "version",
          "type": "uint8"
        }
      ],
      "name": "Initialized",
      "type": "event"
    },
    {
      "anonymous": false,
      "inputs": [
        {
          "indexed": false,
          "internalType": "uint256",
          "name": "nftChainId",
          "type": "uint256"
        },
        {
          "indexed": true,
          "internalType": "address",
          "name": "nftContractAddress",
          "type": "address"
        },
        {
          "indexed": true,
          "internalType": "uint256",
          "name": "nftId",
          "type": "uint256"
        },
        {
          "indexed": true,
          "internalType": "address",
          "name": "nftOwnerAddress",
          "type": "address"
        },
        {
          "indexed": false,
          "internalType": "address[]",
          "name": "nftCreatorAddresses",
          "type": "address[]"
        },
        {
          "indexed": false,
          "internalType": "uint256[]",
          "name": "creatorSaleBasisPoints",
          "type": "uint256[]"
        },
        {
          "indexed": false,
          "internalType": "uint256",
          "name": "optionBits",
          "type": "uint256"
        },
        {
          "indexed": false,
          "internalType": "uint256",
          "name": "sourceId",
          "type": "uint256"
        },
        {
          "indexed": false,
          "internalType": "uint256",
          "name": "transformId",
          "type": "uint256"
        },
        {
          "indexed": false,
          "internalType": "string",
          "name": "ipfsMetadataHash",
          "type": "string"
        }
      ],
      "name": "Registered",
      "type": "event"
    },
    {
      "inputs": [],
      "name": "MAKER_META_PREFIX",
      "outputs": [
        {
          "internalType": "string",
          "name": "",
          "type": "string"
        }
      ],
      "stateMutability": "view",
      "type": "function"
    },
    {
      "inputs": [],
      "name": "addressManager",
      "outputs": [
        {
          "internalType": "contract IAddressManager",
          "name": "",
          "type": "address"
        }
      ],
      "stateMutability": "view",
      "type": "function"
    },
    {
      "inputs": [
        {
          "internalType": "address",
          "name": "owner",
          "type": "address"
        },
        {
          "internalType": "uint256",
          "name": "chainId",
          "type": "uint256"
        },
        {
          "internalType": "address",
          "name": "nftContractAddress",
          "type": "address"
        },
        {
          "internalType": "uint256",
          "name": "nftId",
          "type": "uint256"
        }
      ],
      "name": "deRegisterNftFromBridge",
      "outputs": [],
      "stateMutability": "nonpayable",
      "type": "function"
    },
    {
      "inputs": [
        {
          "internalType": "address",
          "name": "nftContractAddress",
          "type": "address"
        },
        {
          "internalType": "uint256",
          "name": "nftId",
          "type": "uint256"
        }
      ],
      "name": "deregisterNft",
      "outputs": [],
      "stateMutability": "nonpayable",
      "type": "function"
    },
    {
      "inputs": [
        {
          "internalType": "uint256",
          "name": "chainId",
          "type": "uint256"
        },
        {
          "internalType": "address",
          "name": "nftContractAddress",
          "type": "address"
        },
        {
          "internalType": "uint256",
          "name": "nftId",
          "type": "uint256"
        }
      ],
      "name": "deriveSourceId",
      "outputs": [
        {
          "internalType": "uint256",
          "name": "",
          "type": "uint256"
        }
      ],
      "stateMutability": "pure",
      "type": "function"
    },
    {
      "inputs": [
        {
          "internalType": "contract IAddressManager",
          "name": "_addressManager",
          "type": "address"
        }
      ],
      "name": "initialize",
      "outputs": [],
      "stateMutability": "nonpayable",
      "type": "function"
    },
    {
      "inputs": [
        {
          "internalType": "address",
          "name": "nftContractAddress",
          "type": "address"
        },
        {
          "internalType": "uint256",
          "name": "nftId",
          "type": "uint256"
        },
        {
          "internalType": "address",
          "name": "creatorAddress",
          "type": "address"
        },
        {
          "internalType": "uint256",
          "name": "creatorSaleBasisPoints",
          "type": "uint256"
        },
        {
          "internalType": "uint256",
          "name": "optionBits",
          "type": "uint256"
        },
        {
          "internalType": "string",
          "name": "ipfsMetadataHash",
          "type": "string"
        }
      ],
      "name": "registerNft",
      "outputs": [],
      "stateMutability": "nonpayable",
      "type": "function"
    },
    {
      "inputs": [
        {
          "internalType": "address",
          "name": "owner",
          "type": "address"
        },
        {
          "internalType": "uint256",
          "name": "chainId",
          "type": "uint256"
        },
        {
          "internalType": "address",
          "name": "nftContractAddress",
          "type": "address"
        },
        {
          "internalType": "uint256",
          "name": "nftId",
          "type": "uint256"
        },
        {
          "internalType": "address[]",
          "name": "creatorAddresses",
          "type": "address[]"
        },
        {
          "internalType": "uint256[]",
          "name": "creatorSaleBasisPoints",
          "type": "uint256[]"
        },
        {
          "internalType": "uint256",
          "name": "optionBits",
          "type": "uint256"
        },
        {
          "internalType": "string",
          "name": "ipfsMetadataHash",
          "type": "string"
        }
      ],
      "name": "registerNftFromBridge",
      "outputs": [],
      "stateMutability": "nonpayable",
      "type": "function"
    },
    {
      "inputs": [
        {
          "internalType": "uint256",
          "name": "",
          "type": "uint256"
        }
      ],
      "name": "sourceToDetails",
      "outputs": [
        {
          "internalType": "bool",
          "name": "registered",
          "type": "bool"
        },
        {
          "internalType": "address",
          "name": "owner",
          "type": "address"
        }
      ],
      "stateMutability": "view",
      "type": "function"
    },
    {
      "inputs": [
        {
          "internalType": "uint256",
          "name": "index",
          "type": "uint256"
        }
      ],
      "name": "sourceToDetailsLookup",
      "outputs": [
        {
          "components": [
            {
              "internalType": "bool",
              "name": "registered",
              "type": "bool"
            },
            {
              "internalType": "address",
              "name": "owner",
              "type": "address"
            },
            {
              "internalType": "address[]",
              "name": "creators",
              "type": "address[]"
            },
            {
              "internalType": "uint256[]",
              "name": "creatorSaleBasisPoints",
              "type": "uint256[]"
            }
          ],
          "internalType": "struct IMakerRegistrar.NftDetails",
          "name": "",
          "type": "tuple"
        }
      ],
      "stateMutability": "view",
      "type": "function"
    },
    {
      "inputs": [
        {
          "internalType": "uint256",
          "name": "",
          "type": "uint256"
        }
      ],
      "name": "transformToSourceLookup",
      "outputs": [
        {
          "internalType": "uint256",
          "name": "",
          "type": "uint256"
        }
      ],
      "stateMutability": "view",
      "type": "function"
    },
    {
      "inputs": [
        {
          "internalType": "address",
          "name": "nftContractAddress",
          "type": "address"
        },
        {
          "internalType": "uint256",
          "name": "nftId",
          "type": "uint256"
        },
        {
          "internalType": "address",
          "name": "potentialOwner",
          "type": "address"
        }
      ],
      "name": "verifyOwnership",
      "outputs": [
        {
          "internalType": "bool",
          "name": "",
          "type": "bool"
        }
      ],
      "stateMutability": "view",
      "type": "function"
    }
  ],
  "transactionHash": "0x055319bf3d04ff3c413cf92ef4001125bb17ebc84413478e0653e39946b31f79",
  "args": [],
  "numDeployments": 1,
  "solcInputHash": "c483293f20911aec6d7b5b1bd97849ba",
  "bytecode": "0x608060405234801561001057600080fd5b50611820806100206000396000f3fe608060405234801561001057600080fd5b50600436106100b45760003560e01c8063c4d66de811610071578063c4d66de8146101a6578063c679ff9a146101b9578063c93b76c9146101cc578063e6c2c560146101df578063edad684a14610231578063fb9b92bc1461024457600080fd5b80633ab76e9f146100b957806371f0cca3146100ef57806393d3b1b21461012057806394b99569146101435780639cdce18814610171578063c46bd37914610186575b600080fd5b6000546100d2906201000090046001600160a01b031681565b6040516001600160a01b0390911681526020015b60405180910390f35b6101136040518060400160405280600581526020016426a0a5a2a960d91b81525081565b6040516100e69190610fff565b61013361012e36600461103a565b610257565b60405190151581526020016100e6565b61016361015136600461107c565b60016020526000908152604090205481565b6040519081526020016100e6565b61018461017f366004611095565b61026e565b005b61019961019436600461107c565b6102ae565b6040516100e691906110fc565b6101846101b4366004611190565b6103be565b6101846101c73660046111f5565b6104e9565b6101636101da36600461127a565b6105c7565b6102126101ed36600461107c565b60026020526000908152604090205460ff81169061010090046001600160a01b031682565b6040805192151583526001600160a01b039091166020830152016100e6565b61018461023f3660046113ea565b6105d4565b6101846102523660046114b9565b61069d565b6000610264848484610767565b90505b9392505050565b610279828233610257565b61029e5760405162461bcd60e51b815260040161029590611501565b60405180910390fd5b6102aa33468484610907565b5050565b604080516080808201835260008083526020808401829052606084860181905280850152858252600281529084902084519283018552805460ff81161515845261010090046001600160a01b031683830152600181018054865181850281018501885281815295969495929486019383018282801561035657602002820191906000526020600020905b81546001600160a01b03168152600190910190602001808311610338575b50505050508152602001600282018054806020026020016040519081016040528092919081815260200182805480156103ae57602002820191906000526020600020905b81548152602001906001019080831161039a575b5050505050815250509050919050565b600054610100900460ff16158080156103de5750600054600160ff909116105b806103f85750303b1580156103f8575060005460ff166001145b61045b5760405162461bcd60e51b815260206004820152602e60248201527f496e697469616c697a61626c653a20636f6e747261637420697320616c72656160448201526d191e481a5b9a5d1a585b1a5e995960921b6064820152608401610295565b6000805460ff19166001179055801561047e576000805461ff0019166101001790555b6000805462010000600160b01b031916620100006001600160a01b0385160217905580156102aa576000805461ff0019169055604051600181527f7f26b83ff96e1f2b6a682f133852f6798a09c465da95921460cefb38474024989060200160405180910390a15050565b6104f4878733610257565b6105105760405162461bcd60e51b815260040161029590611501565b6000806105a7600060029054906101000a90046001600160a01b03166001600160a01b031663a11b07126040518163ffffffff1660e01b8152600401602060405180830381600087803b15801561056657600080fd5b505af115801561057a573d6000803e3d6000fd5b505050506040513d601f19601f8201168201806040525081019061059e9190611528565b8a8a8a8a6109c7565b915091506105bc33468b8b86868b8b8b610c1d565b505050505050505050565b6000610264848484610d91565b600060029054906101000a90046001600160a01b03166001600160a01b031663085da3106040518163ffffffff1660e01b8152600401602060405180830381600087803b15801561062457600080fd5b505af1158015610638573d6000803e3d6000fd5b505050506040513d601f19601f8201168201806040525081019061065c9190611528565b6001600160a01b0316336001600160a01b03161461068c5760405162461bcd60e51b815260040161029590611545565b6105bc898989898989898989610c1d565b600060029054906101000a90046001600160a01b03166001600160a01b031663085da3106040518163ffffffff1660e01b8152600401602060405180830381600087803b1580156106ed57600080fd5b505af1158015610701573d6000803e3d6000fd5b505050506040513d601f19601f820116820180604052508101906107259190611528565b6001600160a01b0316336001600160a01b0316146107555760405162461bcd60e51b815260040161029590611545565b61076184848484610907565b50505050565b604051627eeac760e11b81526001600160a01b038281166004830152602482018490526000919085169062fdd58e9060440160206040518083038186803b1580156107b157600080fd5b505afa9250505080156107e1575060408051601f3d908101601f191682019092526107de91810190611569565b60015b6107ea576107f3565b15159050610267565b6040516331a9108f60e11b8152600481018490526001600160a01b03851690636352211e9060240160206040518083038186803b15801561083357600080fd5b505afa925050508015610863575060408051601f3d908101601f1916820190925261086091810190611528565b60015b61086c57610889565b826001600160a01b0316816001600160a01b031614915050610267565b604051630b02f02d60e31b8152600481018490526001600160a01b0385169063581781689060240160206040518083038186803b1580156108c957600080fd5b505afa9250505080156108f9575060408051601f3d908101601f191682019092526108f691810190611528565b60015b61086c575060009392505050565b6000610914848484610d91565b600081815260026020526040902080549192509060ff1661096c5760405162461bcd60e51b8152602060048201526012602482015271139195081b9bdd081c9959da5cdd195c995960721b6044820152606401610295565b805460ff1916815560408051868152602081018490526001600160a01b03888116928692918816917fc28b8c1d4eaa6783dcb863be8316bc472cb667710ee0dd123a04397f91bab65f910160405180910390a4505050505050565b6060806001600160a01b03871615610b3757604051630f84100560e21b81526001600160a01b038781166004830152602482018790526127106044830152881690633e1040149060640160006040518083038186803b158015610a2957600080fd5b505afa925050508015610a5e57506040513d6000823e601f3d908101601f19168201604052610a5b91908101906115dd565b60015b610a6757610b37565b610a718282610dd1565b15610b3457600082516001600160401b03811115610a9157610a916112b2565b604051908082528060200260200182016040528015610aba578160200160208202803683370190505b50905060005b83518160ff161015610b2857838160ff1681518110610ae157610ae16116a1565b6020026020010151828260ff1681518110610afe57610afe6116a1565b6001600160a01b039092166020928302919091019091015280610b20816116cd565b915050610ac0565b5093509150610c139050565b50505b604080516001808252818301909252600091602080830190803683370190505090508481600081518110610b6d57610b6d6116a1565b60200260200101906001600160a01b031690816001600160a01b031681525050612710841115610bcc5760405162461bcd60e51b815260206004820152600a6024820152690496e76616c69642062760b41b6044820152606401610295565b604080516001808252818301909252600091602080830190803683370190505090508481600081518110610c0257610c026116a1565b602090810291909101015290925090505b9550959350505050565b6000610c2a898989610d91565b6040805160808101825260018082526001600160a01b038e811660208085019182528486018d8152606086018d9052600088815260028352969096208551815493516001600160a81b0319909416901515610100600160a81b031916176101009390941692909202929092178155935180519596509294610cb2939285019290910190610efd565b5060608201518051610cce916002840191602090910190610f62565b5090505060006040518060400160405280600581526020016426a0a5a2a960d91b8152508286604051602001610d06939291906116ed565b60408051601f1981840301815282825280516020918201206000818152600190925291902084905591506001600160a01b03808d16918a918c16907fdc43be3f8fe56f267b4076b025ac2b89403f51683a4c26ce0e06629a983f3c3690610d7c908f908d908d908d908b908b908f908f9061173b565b60405180910390a45050505050505050505050565b604080516020808201959095526001600160a01b039390931683820152606080840192909252805180840390920182526080909201909152805191012090565b6000825160001415610de557506000610ef7565b8151835114610df657506000610ef7565b6000805b84518160ff161015610edc5760006001600160a01b0316858260ff1681518110610e2657610e266116a1565b60200260200101516001600160a01b03161415610e4857600092505050610ef7565b838160ff1681518110610e5d57610e5d6116a1565b602002602001015160001480610e905750612710848260ff1681518110610e8657610e866116a1565b6020026020010151115b15610ea057600092505050610ef7565b838160ff1681518110610eb557610eb56116a1565b602002602001015182610ec891906117d2565b915080610ed4816116cd565b915050610dfa565b50612710811115610ef1576000915050610ef7565b60019150505b92915050565b828054828255906000526020600020908101928215610f52579160200282015b82811115610f5257825182546001600160a01b0319166001600160a01b03909116178255602090920191600190910190610f1d565b50610f5e929150610f9d565b5090565b828054828255906000526020600020908101928215610f52579160200282015b82811115610f52578251825591602001919060010190610f82565b5b80821115610f5e5760008155600101610f9e565b6000815180845260005b81811015610fd857602081850181015186830182015201610fbc565b81811115610fea576000602083870101525b50601f01601f19169290920160200192915050565b6020815260006102676020830184610fb2565b6001600160a01b038116811461102757600080fd5b50565b803561103581611012565b919050565b60008060006060848603121561104f57600080fd5b833561105a81611012565b925060208401359150604084013561107181611012565b809150509250925092565b60006020828403121561108e57600080fd5b5035919050565b600080604083850312156110a857600080fd5b82356110b381611012565b946020939093013593505050565b600081518084526020808501945080840160005b838110156110f1578151875295820195908201906001016110d5565b509495945050505050565b60208082528251151582820152828101516001600160a01b0390811660408085019190915284015160806060850152805160a085018190526000939291830191849160c08701905b8084101561116657845183168252938501936001939093019290850190611144565b506060880151878203601f19016080890152945061118481866110c1565b98975050505050505050565b6000602082840312156111a257600080fd5b813561026781611012565b60008083601f8401126111bf57600080fd5b5081356001600160401b038111156111d657600080fd5b6020830191508360208285010111156111ee57600080fd5b9250929050565b600080600080600080600060c0888a03121561121057600080fd5b873561121b81611012565b965060208801359550604088013561123281611012565b9450606088013593506080880135925060a08801356001600160401b0381111561125b57600080fd5b6112678a828b016111ad565b989b979a50959850939692959293505050565b60008060006060848603121561128f57600080fd5b8335925060208401356112a181611012565b929592945050506040919091013590565b634e487b7160e01b600052604160045260246000fd5b604051601f8201601f191681016001600160401b03811182821017156112f0576112f06112b2565b604052919050565b60006001600160401b03821115611311576113116112b2565b5060051b60200190565b600082601f83011261132c57600080fd5b8135602061134161133c836112f8565b6112c8565b82815260059290921b8401810191818101908684111561136057600080fd5b8286015b8481101561138457803561137781611012565b8352918301918301611364565b509695505050505050565b600082601f8301126113a057600080fd5b813560206113b061133c836112f8565b82815260059290921b840181019181810190868411156113cf57600080fd5b8286015b8481101561138457803583529183019183016113d3565b60008060008060008060008060006101008a8c03121561140957600080fd5b6114128a61102a565b985060208a0135975061142760408b0161102a565b965060608a0135955060808a01356001600160401b038082111561144a57600080fd5b6114568d838e0161131b565b965060a08c013591508082111561146c57600080fd5b6114788d838e0161138f565b955060c08c0135945060e08c013591508082111561149557600080fd5b506114a28c828d016111ad565b915080935050809150509295985092959850929598565b600080600080608085870312156114cf57600080fd5b84356114da81611012565b93506020850135925060408501356114f181611012565b9396929550929360600135925050565b6020808252600d908201526c139195081b9bdd081bdddb9959609a1b604082015260600190565b60006020828403121561153a57600080fd5b815161026781611012565b6020808252600a90820152694e6f742042726964676560b01b604082015260600190565b60006020828403121561157b57600080fd5b5051919050565b600082601f83011261159357600080fd5b815160206115a361133c836112f8565b82815260059290921b840181019181810190868411156115c257600080fd5b8286015b8481101561138457805183529183019183016115c6565b600080604083850312156115f057600080fd5b82516001600160401b038082111561160757600080fd5b818501915085601f83011261161b57600080fd5b8151602061162b61133c836112f8565b82815260059290921b8401810191818101908984111561164a57600080fd5b948201945b8386101561167157855161166281611012565b8252948201949082019061164f565b9188015191965090935050508082111561168a57600080fd5b5061169785828601611582565b9150509250929050565b634e487b7160e01b600052603260045260246000fd5b634e487b7160e01b600052601160045260246000fd5b600060ff821660ff8114156116e4576116e46116b7565b60010192915050565b6060815260006117006060830186610fb2565b60208301949094525060400152919050565b81835281816020850137506000828201602090810191909152601f909101601f19169091010190565b600060e082018a8352602060e081850152818b5180845261010086019150828d01935060005b818110156117865784516001600160a01b031683529383019391830191600101611761565b5050848103604086015261179a818c6110c1565b925050508760608401528660808401528560a084015282810360c08401526117c3818587611712565b9b9a5050505050505050505050565b600082198211156117e5576117e56116b7565b50019056fea26469706673582212208267d3ec0403c07e3bd0a1ed6954df2088070c2bc8bf8f897fa63008826896eb64736f6c63430008090033",
  "devdoc": {
    "details": "This contract tracks registered NFTs.  Owners of an NFT can register and deregister any NFTs owned in their wallet. Also, for the mappings, it is assumed the protocol will always look up the current owner of an NFT when running logic (which is why the owner address is not stored).  If desired, an off-chain indexer like The Graph can index registration addresses to NFTs.",
    "events": {
      "Deregistered(uint256,address,uint256,address,uint256)": {
        "details": "Event triggered when an NFT is deregistered from the system"
      },
      "Registered(uint256,address,uint256,address,address[],uint256[],uint256,uint256,uint256,string)": {
        "details": "Event triggered when an NFT is registered in the system"
      }
    },
    "kind": "dev",
    "methods": {
      "deregisterNft(address,uint256)": {
        "details": "Allow an NFT owner to deregister and remove capability for reactions to be sold. Caller must currently own the NFT being deregistered"
      },
      "initialize(address)": {
        "details": "initializer to call after deployment, can only be called once"
      },
      "registerNft(address,uint256,address,uint256,uint256,string)": {
        "details": "Allows a NFT owner to register the NFT in the protocol so that reactions can be sold. Owner registering must own the NFT in the wallet calling function."
      },
      "verifyOwnership(address,uint256,address)": {
        "details": "For the specified NFT, verify it is owned by the potential owner"
      }
    },
    "title": "MakerRegistrar",
    "version": 1
  },
  "userdoc": {
    "kind": "user",
    "methods": {},
    "version": 1
  },
  "storageLayout": {
    "storage": [
      {
        "astId": 2446,
        "contract": "contracts/Maker/MakerRegistrar.sol:MakerRegistrar",
        "label": "_initialized",
        "offset": 0,
        "slot": "0",
        "type": "t_uint8"
      },
      {
        "astId": 2449,
        "contract": "contracts/Maker/MakerRegistrar.sol:MakerRegistrar",
        "label": "_initializing",
        "offset": 1,
        "slot": "0",
        "type": "t_bool"
      },
      {
        "astId": 9820,
        "contract": "contracts/Maker/MakerRegistrar.sol:MakerRegistrar",
        "label": "addressManager",
        "offset": 2,
        "slot": "0",
        "type": "t_contract(IAddressManager)8658"
      },
      {
        "astId": 9830,
        "contract": "contracts/Maker/MakerRegistrar.sol:MakerRegistrar",
        "label": "transformToSourceLookup",
        "offset": 0,
        "slot": "1",
        "type": "t_mapping(t_uint256,t_uint256)"
      },
      {
        "astId": 9836,
        "contract": "contracts/Maker/MakerRegistrar.sol:MakerRegistrar",
        "label": "sourceToDetails",
        "offset": 0,
        "slot": "2",
        "type": "t_mapping(t_uint256,t_struct(NftDetails)9315_storage)"
      }
    ],
    "types": {
      "t_address": {
        "encoding": "inplace",
        "label": "address",
        "numberOfBytes": "20"
      },
      "t_array(t_address)dyn_storage": {
        "base": "t_address",
        "encoding": "dynamic_array",
        "label": "address[]",
        "numberOfBytes": "32"
      },
      "t_array(t_uint256)dyn_storage": {
        "base": "t_uint256",
        "encoding": "dynamic_array",
        "label": "uint256[]",
        "numberOfBytes": "32"
      },
      "t_bool": {
        "encoding": "inplace",
        "label": "bool",
        "numberOfBytes": "1"
      },
      "t_contract(IAddressManager)8658": {
        "encoding": "inplace",
        "label": "contract IAddressManager",
        "numberOfBytes": "20"
      },
      "t_mapping(t_uint256,t_struct(NftDetails)9315_storage)": {
        "encoding": "mapping",
        "key": "t_uint256",
        "label": "mapping(uint256 => struct IMakerRegistrar.NftDetails)",
        "numberOfBytes": "32",
        "value": "t_struct(NftDetails)9315_storage"
      },
      "t_mapping(t_uint256,t_uint256)": {
        "encoding": "mapping",
        "key": "t_uint256",
        "label": "mapping(uint256 => uint256)",
        "numberOfBytes": "32",
        "value": "t_uint256"
      },
      "t_struct(NftDetails)9315_storage": {
        "encoding": "inplace",
        "label": "struct IMakerRegistrar.NftDetails",
        "members": [
          {
            "astId": 9306,
            "contract": "contracts/Maker/MakerRegistrar.sol:MakerRegistrar",
            "label": "registered",
            "offset": 0,
            "slot": "0",
            "type": "t_bool"
          },
          {
            "astId": 9308,
            "contract": "contracts/Maker/MakerRegistrar.sol:MakerRegistrar",
            "label": "owner",
            "offset": 1,
            "slot": "0",
            "type": "t_address"
          },
          {
            "astId": 9311,
            "contract": "contracts/Maker/MakerRegistrar.sol:MakerRegistrar",
            "label": "creators",
            "offset": 0,
            "slot": "1",
            "type": "t_array(t_address)dyn_storage"
          },
          {
            "astId": 9314,
            "contract": "contracts/Maker/MakerRegistrar.sol:MakerRegistrar",
            "label": "creatorSaleBasisPoints",
            "offset": 0,
            "slot": "2",
            "type": "t_array(t_uint256)dyn_storage"
          }
        ],
        "numberOfBytes": "96"
      },
      "t_uint256": {
        "encoding": "inplace",
        "label": "uint256",
        "numberOfBytes": "32"
      },
      "t_uint8": {
        "encoding": "inplace",
        "label": "uint8",
        "numberOfBytes": "1"
      }
    }
  }
}