{
  "address": "0x49118D954DC436Eb6999EcC8b35D5FCAF2bFf34d",
  "abi": [
    {
      "anonymous": false,
      "inputs": [
        {
          "indexed": false,
          "internalType": "uint256",
          "name": "nftChainId",
          "type": "uint256"
        },
        {
          "indexed": true,
          "internalType": "address",
          "name": "nftContractAddress",
          "type": "address"
        },
        {
          "indexed": true,
          "internalType": "uint256",
          "name": "nftId",
          "type": "uint256"
        },
        {
          "indexed": true,
          "internalType": "address",
          "name": "nftOwnerAddress",
          "type": "address"
        },
        {
          "indexed": false,
          "internalType": "uint256",
          "name": "sourceId",
          "type": "uint256"
        }
      ],
      "name": "Deregistered",
      "type": "event"
    },
    {
      "anonymous": false,
      "inputs": [
        {
          "indexed": false,
          "internalType": "uint256",
          "name": "nftChainId",
          "type": "uint256"
        },
        {
          "indexed": true,
          "internalType": "address",
          "name": "nftContractAddress",
          "type": "address"
        },
        {
          "indexed": true,
          "internalType": "uint256",
          "name": "nftId",
          "type": "uint256"
        },
        {
          "indexed": true,
          "internalType": "address",
          "name": "nftOwnerAddress",
          "type": "address"
        },
        {
          "indexed": false,
          "internalType": "address",
          "name": "nftCreatorAddress",
          "type": "address"
        },
        {
          "indexed": false,
          "internalType": "uint256",
          "name": "creatorSaleBasisPoints",
          "type": "uint256"
        },
        {
          "indexed": false,
          "internalType": "uint256",
          "name": "optionBits",
          "type": "uint256"
        },
        {
          "indexed": false,
          "internalType": "uint256",
          "name": "sourceId",
          "type": "uint256"
        },
        {
          "indexed": false,
          "internalType": "uint256",
          "name": "transformId",
          "type": "uint256"
        },
        {
          "indexed": false,
          "internalType": "string",
          "name": "ipfsMetadataHash",
          "type": "string"
        }
      ],
      "name": "Registered",
      "type": "event"
    },
    {
      "inputs": [],
      "name": "MAKER_META_PREFIX",
      "outputs": [
        {
          "internalType": "string",
          "name": "",
          "type": "string"
        }
      ],
      "stateMutability": "view",
      "type": "function"
    },
    {
      "inputs": [],
      "name": "addressManager",
      "outputs": [
        {
          "internalType": "contract IAddressManager",
          "name": "",
          "type": "address"
        }
      ],
      "stateMutability": "view",
      "type": "function"
    },
    {
      "inputs": [
        {
          "internalType": "address",
          "name": "owner",
          "type": "address"
        },
        {
          "internalType": "uint256",
          "name": "chainId",
          "type": "uint256"
        },
        {
          "internalType": "address",
          "name": "nftContractAddress",
          "type": "address"
        },
        {
          "internalType": "uint256",
          "name": "nftId",
          "type": "uint256"
        }
      ],
      "name": "deRegisterNftFromBridge",
      "outputs": [],
      "stateMutability": "nonpayable",
      "type": "function"
    },
    {
      "inputs": [
        {
          "internalType": "address",
          "name": "nftContractAddress",
          "type": "address"
        },
        {
          "internalType": "uint256",
          "name": "nftId",
          "type": "uint256"
        }
      ],
      "name": "deregisterNft",
      "outputs": [],
      "stateMutability": "nonpayable",
      "type": "function"
    },
    {
      "inputs": [
        {
          "internalType": "uint256",
          "name": "chainId",
          "type": "uint256"
        },
        {
          "internalType": "address",
          "name": "nftContractAddress",
          "type": "address"
        },
        {
          "internalType": "uint256",
          "name": "nftId",
          "type": "uint256"
        }
      ],
      "name": "deriveSourceId",
      "outputs": [
        {
          "internalType": "uint256",
          "name": "",
          "type": "uint256"
        }
      ],
      "stateMutability": "pure",
      "type": "function"
    },
    {
      "inputs": [
        {
          "internalType": "contract IAddressManager",
          "name": "_addressManager",
          "type": "address"
        }
      ],
      "name": "initialize",
      "outputs": [],
      "stateMutability": "nonpayable",
      "type": "function"
    },
    {
      "inputs": [
        {
          "internalType": "address",
          "name": "nftContractAddress",
          "type": "address"
        },
        {
          "internalType": "uint256",
          "name": "nftId",
          "type": "uint256"
        },
        {
          "internalType": "address",
          "name": "creatorAddress",
          "type": "address"
        },
        {
          "internalType": "uint256",
          "name": "creatorSaleBasisPoints",
          "type": "uint256"
        },
        {
          "internalType": "uint256",
          "name": "optionBits",
          "type": "uint256"
        },
        {
          "internalType": "string",
          "name": "ipfsMetadataHash",
          "type": "string"
        }
      ],
      "name": "registerNft",
      "outputs": [],
      "stateMutability": "nonpayable",
      "type": "function"
    },
    {
      "inputs": [
        {
          "internalType": "address",
          "name": "owner",
          "type": "address"
        },
        {
          "internalType": "uint256",
          "name": "chainId",
          "type": "uint256"
        },
        {
          "internalType": "address",
          "name": "nftContractAddress",
          "type": "address"
        },
        {
          "internalType": "uint256",
          "name": "nftId",
          "type": "uint256"
        },
        {
          "internalType": "address",
          "name": "creatorAddress",
          "type": "address"
        },
        {
          "internalType": "uint256",
          "name": "creatorSaleBasisPoints",
          "type": "uint256"
        },
        {
          "internalType": "uint256",
          "name": "optionBits",
          "type": "uint256"
        },
        {
          "internalType": "string",
          "name": "ipfsMetadataHash",
          "type": "string"
        }
      ],
      "name": "registerNftFromBridge",
      "outputs": [],
      "stateMutability": "nonpayable",
      "type": "function"
    },
    {
      "inputs": [
        {
          "internalType": "uint256",
          "name": "",
          "type": "uint256"
        }
      ],
      "name": "sourceToDetailsLookup",
      "outputs": [
        {
          "internalType": "bool",
          "name": "registered",
          "type": "bool"
        },
        {
          "internalType": "address",
          "name": "owner",
          "type": "address"
        },
        {
          "internalType": "address",
          "name": "creator",
          "type": "address"
        },
        {
          "internalType": "uint256",
          "name": "creatorSaleBasisPoints",
          "type": "uint256"
        }
      ],
      "stateMutability": "view",
      "type": "function"
    },
    {
      "inputs": [
        {
          "internalType": "uint256",
          "name": "",
          "type": "uint256"
        }
      ],
      "name": "transformToSourceLookup",
      "outputs": [
        {
          "internalType": "uint256",
          "name": "",
          "type": "uint256"
        }
      ],
      "stateMutability": "view",
      "type": "function"
    },
    {
      "inputs": [
        {
          "internalType": "address",
          "name": "nftContractAddress",
          "type": "address"
        },
        {
          "internalType": "uint256",
          "name": "nftId",
          "type": "uint256"
        },
        {
          "internalType": "address",
          "name": "potentialOwner",
          "type": "address"
        }
      ],
      "name": "verifyOwnership",
      "outputs": [
        {
          "internalType": "bool",
          "name": "",
          "type": "bool"
        }
      ],
      "stateMutability": "view",
      "type": "function"
    }
  ],
  "transactionHash": "0xf4c2125add2398fbf00556ab4380ecea187edd205c010d373b24c181083d437c",
  "args": [],
  "numDeployments": 1,
  "solcInputHash": "0aa2446dfdd461104da7fca84166983e",
  "bytecode": "0x608060405234801561001057600080fd5b50611b68806100206000396000f3fe608060405234801561001057600080fd5b50600436106100a95760003560e01c80639cdce188116100715780639cdce18814610166578063c46bd37914610182578063c4d66de8146101b5578063c679ff9a146101d1578063c93b76c9146101ed578063fb9b92bc1461021d576100a9565b80633ab76e9f146100ae57806343f6c17e146100cc57806371f0cca3146100e857806393d3b1b21461010657806394b9956914610136575b600080fd5b6100b6610239565b6040516100c39190610fbf565b60405180910390f35b6100e660048036038101906100e191906111a8565b61025f565b005b6100f0610388565b6040516100fd9190611302565b60405180910390f35b610120600480360381019061011b9190611324565b6103c1565b60405161012d9190611392565b60405180910390f35b610150600480360381019061014b91906113ad565b6103d7565b60405161015d91906113e9565b60405180910390f35b610180600480360381019061017b9190611404565b6103ef565b005b61019c600480360381019061019791906113ad565b610449565b6040516101ac9493929190611453565b60405180910390f35b6101cf60048036038101906101ca91906114d6565b6104c6565b005b6101eb60048036038101906101e69190611503565b6105ec565b005b610207600480360381019061020291906115ac565b61064e565b60405161021491906113e9565b60405180910390f35b610237600480360381019061023291906115ff565b610664565b005b600060029054906101000a900473ffffffffffffffffffffffffffffffffffffffff1681565b600060029054906101000a900473ffffffffffffffffffffffffffffffffffffffff1673ffffffffffffffffffffffffffffffffffffffff1663085da3106040518163ffffffff1660e01b8152600401602060405180830381600087803b1580156102c957600080fd5b505af11580156102dd573d6000803e3d6000fd5b505050506040513d601f19601f82011682018060405250810190610301919061167b565b73ffffffffffffffffffffffffffffffffffffffff163373ffffffffffffffffffffffffffffffffffffffff161461036e576040517f08c379a0000000000000000000000000000000000000000000000000000000008152600401610365906116f4565b60405180910390fd5b61037e8888888888888888610785565b5050505050505050565b6040518060400160405280600581526020017f4d414b455200000000000000000000000000000000000000000000000000000081525081565b60006103ce8484846109f4565b90509392505050565b60016020528060005260406000206000915090505481565b6103fa8282336103c1565b610439576040517f08c379a000000000000000000000000000000000000000000000000000000000815260040161043090611760565b60405180910390fd5b61044533468484610dcf565b5050565b60026020528060005260406000206000915090508060000160009054906101000a900460ff16908060000160019054906101000a900473ffffffffffffffffffffffffffffffffffffffff16908060010160009054906101000a900473ffffffffffffffffffffffffffffffffffffffff16908060020154905084565b600060019054906101000a900460ff166104ee5760008054906101000a900460ff16156104f7565b6104f6610ed3565b5b610536576040517f08c379a000000000000000000000000000000000000000000000000000000000815260040161052d906117f2565b60405180910390fd5b60008060019054906101000a900460ff161590508015610586576001600060016101000a81548160ff02191690831515021790555060016000806101000a81548160ff0219169083151502179055505b81600060026101000a81548173ffffffffffffffffffffffffffffffffffffffff021916908373ffffffffffffffffffffffffffffffffffffffff16021790555080156105e85760008060016101000a81548160ff0219169083151502179055505b5050565b6105f78686336103c1565b610636576040517f08c379a000000000000000000000000000000000000000000000000000000000815260040161062d90611760565b60405180910390fd5b6106463346888888888888610785565b505050505050565b600061065b848484610ee4565b90509392505050565b600060029054906101000a900473ffffffffffffffffffffffffffffffffffffffff1673ffffffffffffffffffffffffffffffffffffffff1663085da3106040518163ffffffff1660e01b8152600401602060405180830381600087803b1580156106ce57600080fd5b505af11580156106e2573d6000803e3d6000fd5b505050506040513d601f19601f82011682018060405250810190610706919061167b565b73ffffffffffffffffffffffffffffffffffffffff163373ffffffffffffffffffffffffffffffffffffffff1614610773576040517f08c379a000000000000000000000000000000000000000000000000000000000815260040161076a906116f4565b60405180910390fd5b61077f84848484610dcf565b50505050565b6127108311156107ca576040517f08c379a00000000000000000000000000000000000000000000000000000000081526004016107c19061185e565b60405180910390fd5b60006107d7888888610ee4565b905060405180608001604052806001151581526020018a73ffffffffffffffffffffffffffffffffffffffff1681526020018673ffffffffffffffffffffffffffffffffffffffff168152602001858152506002600083815260200190815260200160002060008201518160000160006101000a81548160ff02191690831515021790555060208201518160000160016101000a81548173ffffffffffffffffffffffffffffffffffffffff021916908373ffffffffffffffffffffffffffffffffffffffff16021790555060408201518160010160006101000a81548173ffffffffffffffffffffffffffffffffffffffff021916908373ffffffffffffffffffffffffffffffffffffffff1602179055506060820151816002015590505060006040518060400160405280600581526020017f4d414b455200000000000000000000000000000000000000000000000000000081525082856040516020016109439392919061187e565b6040516020818303038152906040528051906020012060001c90508160016000838152602001908152602001600020819055508973ffffffffffffffffffffffffffffffffffffffff16878973ffffffffffffffffffffffffffffffffffffffff167f44d604fc06a8e6524b075b22dfb47b7c7ebea20ff387cba15f518f2b2445add18c8a8a8a89898c6040516109e097969594939291906118bc565b60405180910390a450505050505050505050565b60008060008573ffffffffffffffffffffffffffffffffffffffff168486604051602401610a23929190611932565b6040516020818303038152906040527efdd58e000000000000000000000000000000000000000000000000000000007bffffffffffffffffffffffffffffffffffffffffffffffffffffffff19166020820180517bffffffffffffffffffffffffffffffffffffffffffffffffffffffff8381831617835250505050604051610aac91906119a2565b600060405180830381855afa9150503d8060008114610ae7576040519150601f19603f3d011682016040523d82523d6000602084013e610aec565b606091505b50915091508115610b1d57600081806020019051810190610b0d91906119ce565b9050600081119350505050610dc8565b8573ffffffffffffffffffffffffffffffffffffffff1685604051602401610b4591906113e9565b6040516020818303038152906040527f6352211e000000000000000000000000000000000000000000000000000000007bffffffffffffffffffffffffffffffffffffffffffffffffffffffff19166020820180517bffffffffffffffffffffffffffffffffffffffffffffffffffffffff8381831617835250505050604051610bcf91906119a2565b600060405180830381855afa9150503d8060008114610c0a576040519150601f19603f3d011682016040523d82523d6000602084013e610c0f565b606091505b5080925081935050508115610c6f57600081806020019051810190610c349190611a39565b90508473ffffffffffffffffffffffffffffffffffffffff168173ffffffffffffffffffffffffffffffffffffffff16149350505050610dc8565b8573ffffffffffffffffffffffffffffffffffffffff1685604051602401610c9791906113e9565b6040516020818303038152906040527f58178168000000000000000000000000000000000000000000000000000000007bffffffffffffffffffffffffffffffffffffffffffffffffffffffff19166020820180517bffffffffffffffffffffffffffffffffffffffffffffffffffffffff8381831617835250505050604051610d2191906119a2565b600060405180830381855afa9150503d8060008114610d5c576040519150601f19603f3d011682016040523d82523d6000602084013e610d61565b606091505b5080925081935050508115610dc157600081806020019051810190610d869190611a39565b90508473ffffffffffffffffffffffffffffffffffffffff168173ffffffffffffffffffffffffffffffffffffffff16149350505050610dc8565b6000925050505b9392505050565b6000610ddc848484610ee4565b905060006002600083815260200190815260200160002090508060000160009054906101000a900460ff16610e46576040517f08c379a0000000000000000000000000000000000000000000000000000000008152600401610e3d90611ab2565b60405180910390fd5b60008160000160006101000a81548160ff0219169083151502179055508573ffffffffffffffffffffffffffffffffffffffff16838573ffffffffffffffffffffffffffffffffffffffff167fc28b8c1d4eaa6783dcb863be8316bc472cb667710ee0dd123a04397f91bab65f8886604051610ec3929190611ad2565b60405180910390a4505050505050565b6000610ede30610f1d565b15905090565b6000838383604051602001610efb93929190611afb565b6040516020818303038152906040528051906020012060001c90509392505050565b6000808273ffffffffffffffffffffffffffffffffffffffff163b119050919050565b600073ffffffffffffffffffffffffffffffffffffffff82169050919050565b6000819050919050565b6000610f85610f80610f7b84610f40565b610f60565b610f40565b9050919050565b6000610f9782610f6a565b9050919050565b6000610fa982610f8c565b9050919050565b610fb981610f9e565b82525050565b6000602082019050610fd46000830184610fb0565b92915050565b6000604051905090565b600080fd5b600080fd5b6000610ff982610f40565b9050919050565b61100981610fee565b811461101457600080fd5b50565b60008135905061102681611000565b92915050565b6000819050919050565b61103f8161102c565b811461104a57600080fd5b50565b60008135905061105c81611036565b92915050565b600080fd5b600080fd5b6000601f19601f8301169050919050565b7f4e487b7100000000000000000000000000000000000000000000000000000000600052604160045260246000fd5b6110b58261106c565b810181811067ffffffffffffffff821117156110d4576110d361107d565b5b80604052505050565b60006110e7610fda565b90506110f382826110ac565b919050565b600067ffffffffffffffff8211156111135761111261107d565b5b61111c8261106c565b9050602081019050919050565b82818337600083830152505050565b600061114b611146846110f8565b6110dd565b90508281526020810184848401111561116757611166611067565b5b611172848285611129565b509392505050565b600082601f83011261118f5761118e611062565b5b813561119f848260208601611138565b91505092915050565b600080600080600080600080610100898b0312156111c9576111c8610fe4565b5b60006111d78b828c01611017565b98505060206111e88b828c0161104d565b97505060406111f98b828c01611017565b965050606061120a8b828c0161104d565b955050608061121b8b828c01611017565b94505060a061122c8b828c0161104d565b93505060c061123d8b828c0161104d565b92505060e089013567ffffffffffffffff81111561125e5761125d610fe9565b5b61126a8b828c0161117a565b9150509295985092959890939650565b600081519050919050565b600082825260208201905092915050565b60005b838110156112b4578082015181840152602081019050611299565b838111156112c3576000848401525b50505050565b60006112d48261127a565b6112de8185611285565b93506112ee818560208601611296565b6112f78161106c565b840191505092915050565b6000602082019050818103600083015261131c81846112c9565b905092915050565b60008060006060848603121561133d5761133c610fe4565b5b600061134b86828701611017565b935050602061135c8682870161104d565b925050604061136d86828701611017565b9150509250925092565b60008115159050919050565b61138c81611377565b82525050565b60006020820190506113a76000830184611383565b92915050565b6000602082840312156113c3576113c2610fe4565b5b60006113d18482850161104d565b91505092915050565b6113e38161102c565b82525050565b60006020820190506113fe60008301846113da565b92915050565b6000806040838503121561141b5761141a610fe4565b5b600061142985828601611017565b925050602061143a8582860161104d565b9150509250929050565b61144d81610fee565b82525050565b60006080820190506114686000830187611383565b6114756020830186611444565b6114826040830185611444565b61148f60608301846113da565b95945050505050565b60006114a382610fee565b9050919050565b6114b381611498565b81146114be57600080fd5b50565b6000813590506114d0816114aa565b92915050565b6000602082840312156114ec576114eb610fe4565b5b60006114fa848285016114c1565b91505092915050565b60008060008060008060c087890312156115205761151f610fe4565b5b600061152e89828a01611017565b965050602061153f89828a0161104d565b955050604061155089828a01611017565b945050606061156189828a0161104d565b935050608061157289828a0161104d565b92505060a087013567ffffffffffffffff81111561159357611592610fe9565b5b61159f89828a0161117a565b9150509295509295509295565b6000806000606084860312156115c5576115c4610fe4565b5b60006115d38682870161104d565b93505060206115e486828701611017565b92505060406115f58682870161104d565b9150509250925092565b6000806000806080858703121561161957611618610fe4565b5b600061162787828801611017565b94505060206116388782880161104d565b935050604061164987828801611017565b925050606061165a8782880161104d565b91505092959194509250565b60008151905061167581611000565b92915050565b60006020828403121561169157611690610fe4565b5b600061169f84828501611666565b91505092915050565b7f4e6f742042726964676500000000000000000000000000000000000000000000600082015250565b60006116de600a83611285565b91506116e9826116a8565b602082019050919050565b6000602082019050818103600083015261170d816116d1565b9050919050565b7f4e4654206e6f74206f776e656400000000000000000000000000000000000000600082015250565b600061174a600d83611285565b915061175582611714565b602082019050919050565b600060208201905081810360008301526117798161173d565b9050919050565b7f496e697469616c697a61626c653a20636f6e747261637420697320616c72656160008201527f647920696e697469616c697a6564000000000000000000000000000000000000602082015250565b60006117dc602e83611285565b91506117e782611780565b604082019050919050565b6000602082019050818103600083015261180b816117cf565b9050919050565b7f496e76616c69642063726561746f722062700000000000000000000000000000600082015250565b6000611848601283611285565b915061185382611812565b602082019050919050565b600060208201905081810360008301526118778161183b565b9050919050565b6000606082019050818103600083015261189881866112c9565b90506118a760208301856113da565b6118b460408301846113da565b949350505050565b600060e0820190506118d1600083018a6113da565b6118de6020830189611444565b6118eb60408301886113da565b6118f860608301876113da565b61190560808301866113da565b61191260a08301856113da565b81810360c083015261192481846112c9565b905098975050505050505050565b60006040820190506119476000830185611444565b61195460208301846113da565b9392505050565b600081519050919050565b600081905092915050565b600061197c8261195b565b6119868185611966565b9350611996818560208601611296565b80840191505092915050565b60006119ae8284611971565b915081905092915050565b6000815190506119c881611036565b92915050565b6000602082840312156119e4576119e3610fe4565b5b60006119f2848285016119b9565b91505092915050565b6000611a0682610f40565b9050919050565b611a16816119fb565b8114611a2157600080fd5b50565b600081519050611a3381611a0d565b92915050565b600060208284031215611a4f57611a4e610fe4565b5b6000611a5d84828501611a24565b91505092915050565b7f4e4654206e6f7420726567697374657265640000000000000000000000000000600082015250565b6000611a9c601283611285565b9150611aa782611a66565b602082019050919050565b60006020820190508181036000830152611acb81611a8f565b9050919050565b6000604082019050611ae760008301856113da565b611af460208301846113da565b9392505050565b6000606082019050611b1060008301866113da565b611b1d6020830185611444565b611b2a60408301846113da565b94935050505056fea2646970667358221220276cf291fe1c4b7cf7cb9a648b57c8653d252857f60b07d5a5e3a0efedf6627264736f6c63430008090033",
  "devdoc": {
    "details": "This contract tracks registered NFTs.  Owners of an NFT can register and deregister any NFTs owned in their wallet. Also, for the mappings, it is assumed the protocol will always look up the current owner of an NFT when running logic (which is why the owner address is not stored).  If desired, an off-chain indexer like The Graph can index registration addresses to NFTs.",
    "events": {
      "Deregistered(uint256,address,uint256,address,uint256)": {
        "details": "Event triggered when an NFT is deregistered from the system"
      },
      "Registered(uint256,address,uint256,address,address,uint256,uint256,uint256,uint256,string)": {
        "details": "Event triggered when an NFT is registered in the system"
      }
    },
    "kind": "dev",
    "methods": {
      "deregisterNft(address,uint256)": {
        "details": "Allow an NFT owner to deregister and remove capability for reactions to be sold. Caller must currently own the NFT being deregistered"
      },
      "initialize(address)": {
        "details": "initializer to call after deployment, can only be called once"
      },
      "registerNft(address,uint256,address,uint256,uint256,string)": {
        "details": "Allows a NFT owner to register the NFT in the protocol so that reactions can be sold. Owner registering must own the NFT in the wallet calling function."
      },
      "verifyOwnership(address,uint256,address)": {
        "details": "For the specified NFT, verify it is owned by the potential owner"
      }
    },
    "title": "MakerRegistrar",
    "version": 1
  },
  "userdoc": {
    "kind": "user",
    "methods": {},
    "version": 1
  },
  "storageLayout": {
    "storage": [
      {
        "astId": 2797,
        "contract": "contracts/Maker/MakerRegistrar.sol:MakerRegistrar",
        "label": "_initialized",
        "offset": 0,
        "slot": "0",
        "type": "t_bool"
      },
      {
        "astId": 2800,
        "contract": "contracts/Maker/MakerRegistrar.sol:MakerRegistrar",
        "label": "_initializing",
        "offset": 1,
        "slot": "0",
        "type": "t_bool"
      },
      {
        "astId": 8167,
        "contract": "contracts/Maker/MakerRegistrar.sol:MakerRegistrar",
        "label": "addressManager",
        "offset": 2,
        "slot": "0",
        "type": "t_contract(IAddressManager)7551"
      },
      {
        "astId": 8177,
        "contract": "contracts/Maker/MakerRegistrar.sol:MakerRegistrar",
        "label": "transformToSourceLookup",
        "offset": 0,
        "slot": "1",
        "type": "t_mapping(t_uint256,t_uint256)"
      },
      {
        "astId": 8184,
        "contract": "contracts/Maker/MakerRegistrar.sol:MakerRegistrar",
        "label": "sourceToDetailsLookup",
        "offset": 0,
        "slot": "2",
        "type": "t_mapping(t_uint256,t_struct(NftDetails)7691_storage)"
      }
    ],
    "types": {
      "t_address": {
        "encoding": "inplace",
        "label": "address",
        "numberOfBytes": "20"
      },
      "t_bool": {
        "encoding": "inplace",
        "label": "bool",
        "numberOfBytes": "1"
      },
      "t_contract(IAddressManager)7551": {
        "encoding": "inplace",
        "label": "contract IAddressManager",
        "numberOfBytes": "20"
      },
      "t_mapping(t_uint256,t_struct(NftDetails)7691_storage)": {
        "encoding": "mapping",
        "key": "t_uint256",
        "label": "mapping(uint256 => struct IMakerRegistrar.NftDetails)",
        "numberOfBytes": "32",
        "value": "t_struct(NftDetails)7691_storage"
      },
      "t_mapping(t_uint256,t_uint256)": {
        "encoding": "mapping",
        "key": "t_uint256",
        "label": "mapping(uint256 => uint256)",
        "numberOfBytes": "32",
        "value": "t_uint256"
      },
      "t_struct(NftDetails)7691_storage": {
        "encoding": "inplace",
        "label": "struct IMakerRegistrar.NftDetails",
        "members": [
          {
            "astId": 7684,
            "contract": "contracts/Maker/MakerRegistrar.sol:MakerRegistrar",
            "label": "registered",
            "offset": 0,
            "slot": "0",
            "type": "t_bool"
          },
          {
            "astId": 7686,
            "contract": "contracts/Maker/MakerRegistrar.sol:MakerRegistrar",
            "label": "owner",
            "offset": 1,
            "slot": "0",
            "type": "t_address"
          },
          {
            "astId": 7688,
            "contract": "contracts/Maker/MakerRegistrar.sol:MakerRegistrar",
            "label": "creator",
            "offset": 0,
            "slot": "1",
            "type": "t_address"
          },
          {
            "astId": 7690,
            "contract": "contracts/Maker/MakerRegistrar.sol:MakerRegistrar",
            "label": "creatorSaleBasisPoints",
            "offset": 0,
            "slot": "2",
            "type": "t_uint256"
          }
        ],
        "numberOfBytes": "96"
      },
      "t_uint256": {
        "encoding": "inplace",
        "label": "uint256",
        "numberOfBytes": "32"
      }
    }
  }
}