{
  "address": "0x967ff1Fa8C06eB6511c54F8C7A6e6475c360cB55",
  "abi": [
    {
      "anonymous": false,
      "inputs": [
        {
          "indexed": false,
          "internalType": "address",
          "name": "vault",
          "type": "address"
        },
        {
          "indexed": false,
          "internalType": "bool",
          "name": "approved",
          "type": "bool"
        }
      ],
      "name": "ApprovedCuratorVaultsUpdated",
      "type": "event"
    },
    {
      "anonymous": false,
      "inputs": [
        {
          "indexed": false,
          "internalType": "uint256",
          "name": "reactionLimit",
          "type": "uint256"
        }
      ],
      "name": "FreeReactionLimitUpdated",
      "type": "event"
    },
    {
      "anonymous": false,
      "inputs": [
        {
          "indexed": false,
          "internalType": "contract IERC20Upgradeable",
          "name": "newValue",
          "type": "address"
        }
      ],
      "name": "NativeWrappedTokenUpdated",
      "type": "event"
    },
    {
      "anonymous": false,
      "inputs": [
        {
          "indexed": false,
          "internalType": "contract IWMATIC",
          "name": "newValue",
          "type": "address"
        }
      ],
      "name": "PaymentTokenUpdated",
      "type": "event"
    },
    {
      "anonymous": false,
      "inputs": [
        {
          "indexed": false,
          "internalType": "uint256",
          "name": "newValue",
          "type": "uint256"
        }
      ],
      "name": "ReactionPriceUpdated",
      "type": "event"
    },
    {
      "anonymous": false,
      "inputs": [
        {
          "indexed": false,
          "internalType": "uint256",
          "name": "newValue",
          "type": "uint256"
        }
      ],
      "name": "SaleCuratorLiabilityBasisPointsUpdated",
      "type": "event"
    },
    {
      "anonymous": false,
      "inputs": [
        {
          "indexed": false,
          "internalType": "uint256",
          "name": "newValue",
          "type": "uint256"
        }
      ],
      "name": "SaleReferrerBasisPointsUpdated",
      "type": "event"
    },
    {
      "anonymous": false,
      "inputs": [
        {
          "indexed": false,
          "internalType": "uint256",
          "name": "newValue",
          "type": "uint256"
        }
      ],
      "name": "SpendReferrerBasisPointsUpdated",
      "type": "event"
    },
    {
      "anonymous": false,
      "inputs": [
        {
          "indexed": false,
          "internalType": "uint256",
          "name": "newValue",
          "type": "uint256"
        }
      ],
      "name": "SpendTakerBasisPointsUpdated",
      "type": "event"
    },
    {
      "inputs": [],
      "name": "addressManager",
      "outputs": [
        {
          "internalType": "contract IAddressManager",
          "name": "",
          "type": "address"
        }
      ],
      "stateMutability": "view",
      "type": "function"
    },
    {
      "inputs": [
        {
          "internalType": "address",
          "name": "",
          "type": "address"
        }
      ],
      "name": "approvedCuratorVaults",
      "outputs": [
        {
          "internalType": "bool",
          "name": "",
          "type": "bool"
        }
      ],
      "stateMutability": "view",
      "type": "function"
    },
    {
      "inputs": [],
      "name": "freeReactionLimit",
      "outputs": [
        {
          "internalType": "uint256",
          "name": "",
          "type": "uint256"
        }
      ],
      "stateMutability": "view",
      "type": "function"
    },
    {
      "inputs": [
        {
          "internalType": "contract IAddressManager",
          "name": "_addressManager",
          "type": "address"
        }
      ],
      "name": "initialize",
      "outputs": [],
      "stateMutability": "nonpayable",
      "type": "function"
    },
    {
      "inputs": [],
      "name": "nativeWrappedToken",
      "outputs": [
        {
          "internalType": "contract IERC20Upgradeable",
          "name": "",
          "type": "address"
        }
      ],
      "stateMutability": "view",
      "type": "function"
    },
    {
      "inputs": [],
      "name": "paymentToken",
      "outputs": [
        {
          "internalType": "contract IWMATIC",
          "name": "",
          "type": "address"
        }
      ],
      "stateMutability": "view",
      "type": "function"
    },
    {
      "inputs": [],
      "name": "reactionPrice",
      "outputs": [
        {
          "internalType": "uint256",
          "name": "",
          "type": "uint256"
        }
      ],
      "stateMutability": "view",
      "type": "function"
    },
    {
      "inputs": [],
      "name": "saleCuratorLiabilityBasisPoints",
      "outputs": [
        {
          "internalType": "uint256",
          "name": "",
          "type": "uint256"
        }
      ],
      "stateMutability": "view",
      "type": "function"
    },
    {
      "inputs": [],
      "name": "saleReferrerBasisPoints",
      "outputs": [
        {
          "internalType": "uint256",
          "name": "",
          "type": "uint256"
        }
      ],
      "stateMutability": "view",
      "type": "function"
    },
    {
      "inputs": [
        {
          "internalType": "address",
          "name": "vault",
          "type": "address"
        },
        {
          "internalType": "bool",
          "name": "approved",
          "type": "bool"
        }
      ],
      "name": "setApprovedCuratorVaults",
      "outputs": [],
      "stateMutability": "nonpayable",
      "type": "function"
    },
    {
      "inputs": [
        {
          "internalType": "uint256",
          "name": "_reactionLimit",
          "type": "uint256"
        }
      ],
      "name": "setFreeReactionLimit",
      "outputs": [],
      "stateMutability": "nonpayable",
      "type": "function"
    },
    {
      "inputs": [
        {
          "internalType": "contract IERC20Upgradeable",
          "name": "_nativeWrappedToken",
          "type": "address"
        }
      ],
      "name": "setNativeWrappedToken",
      "outputs": [],
      "stateMutability": "nonpayable",
      "type": "function"
    },
    {
      "inputs": [
        {
          "internalType": "contract IWMATIC",
          "name": "_paymentToken",
          "type": "address"
        }
      ],
      "name": "setPaymentToken",
      "outputs": [],
      "stateMutability": "nonpayable",
      "type": "function"
    },
    {
      "inputs": [
        {
          "internalType": "uint256",
          "name": "_reactionPrice",
          "type": "uint256"
        }
      ],
      "name": "setReactionPrice",
      "outputs": [],
      "stateMutability": "nonpayable",
      "type": "function"
    },
    {
      "inputs": [
        {
          "internalType": "uint256",
          "name": "_saleCuratorLiabilityBasisPoints",
          "type": "uint256"
        }
      ],
      "name": "setSaleCuratorLiabilityBasisPoints",
      "outputs": [],
      "stateMutability": "nonpayable",
      "type": "function"
    },
    {
      "inputs": [
        {
          "internalType": "uint256",
          "name": "_saleReferrerBasisPoints",
          "type": "uint256"
        }
      ],
      "name": "setSaleReferrerBasisPoints",
      "outputs": [],
      "stateMutability": "nonpayable",
      "type": "function"
    },
    {
      "inputs": [
        {
          "internalType": "uint256",
          "name": "_spendReferrerBasisPoints",
          "type": "uint256"
        }
      ],
      "name": "setSpendReferrerBasisPoints",
      "outputs": [],
      "stateMutability": "nonpayable",
      "type": "function"
    },
    {
      "inputs": [
        {
          "internalType": "uint256",
          "name": "_spendTakerBasisPoints",
          "type": "uint256"
        }
      ],
      "name": "setSpendTakerBasisPoints",
      "outputs": [],
      "stateMutability": "nonpayable",
      "type": "function"
    },
    {
      "inputs": [],
      "name": "spendReferrerBasisPoints",
      "outputs": [
        {
          "internalType": "uint256",
          "name": "",
          "type": "uint256"
        }
      ],
      "stateMutability": "view",
      "type": "function"
    },
    {
      "inputs": [],
      "name": "spendTakerBasisPoints",
      "outputs": [
        {
          "internalType": "uint256",
          "name": "",
          "type": "uint256"
        }
      ],
      "stateMutability": "view",
      "type": "function"
    }
  ],
  "transactionHash": "0x92b687b4610d9d5c20cc7fe33c72a8f37ddf245658d0243c08c8097a893b48af",
  "args": [],
  "numDeployments": 2,
  "solcInputHash": "c5133092ee888b5b6431f6825032026e",
  "bytecode": "0x608060405234801561001057600080fd5b50611503806100206000396000f3fe608060405234801561001057600080fd5b506004361061012b5760003560e01c8063bfa53ada116100ad578063e4301ec511610071578063e4301ec51461026d578063f467320e14610280578063f93c0d7914610289578063f9911c7314610292578063fbc8cc58146102a557600080fd5b8063bfa53ada14610218578063c4d66de81461022b578063cc22c3e21461023e578063dafe4f9a14610247578063e15a8ce81461025a57600080fd5b80635ddb0cf2116100f45780635ddb0cf2146101a3578063655f28c1146101ac578063690dafaf146101bf5780636a326ab1146101d257806373cf2a67146101e557600080fd5b8062ac1c5a146101305780630ba9ced01461014c5780633013ce29146101555780633ab76e9f146101755780635b3c42ff1461018e575b600080fd5b61013960055481565b6040519081526020015b60405180910390f35b61013960095481565b600154610168906001600160a01b031681565b6040516101439190611347565b600054610168906201000090046001600160a01b031681565b6101a161019c36600461135b565b6102b8565b005b61013960025481565b6101a16101ba36600461135b565b610482565b6101a16101cd36600461139a565b61061a565b6101a16101e03660046113d3565b6107e9565b6102086101f33660046113d3565b60076020526000908152604090205460ff1681565b6040519015158152602001610143565b6101a161022636600461135b565b6109a0565b6101a16102393660046113d3565b610b38565b61013960065481565b6101a161025536600461135b565b610c62565b6101a161026836600461135b565b610e1c565b600854610168906001600160a01b031681565b61013960045481565b61013960035481565b6101a16102a03660046113d3565b610fd6565b6101a16102b336600461135b565b61118d565b600060029054906101000a90046001600160a01b03166001600160a01b031662435da56040518163ffffffff1660e01b8152600401602060405180830381600087803b15801561030757600080fd5b505af115801561031b573d6000803e3d6000fd5b505050506040513d601f19601f8201168201806040525081019061033f91906113f7565b6001600160a01b0316636d993046336040518263ffffffff1660e01b815260040161036a9190611347565b60206040518083038186803b15801561038257600080fd5b505afa158015610396573d6000803e3d6000fd5b505050506040513d601f19601f820116820180604052508101906103ba9190611414565b6103df5760405162461bcd60e51b81526004016103d690611431565b60405180910390fd5b60408051808201909152600f81526e125b9d985b1a59080c081a5b9c1d5d608a1b6020820152816104235760405162461bcd60e51b81526004016103d69190611454565b506127108111156104465760405162461bcd60e51b81526004016103d6906114a9565b60058190556040518181527f8675d4b071dd3bb74a333fda8ae022c69bab50eeafbf1ae61cbffc73f052ab02906020015b60405180910390a150565b600060029054906101000a90046001600160a01b03166001600160a01b031662435da56040518163ffffffff1660e01b8152600401602060405180830381600087803b1580156104d157600080fd5b505af11580156104e5573d6000803e3d6000fd5b505050506040513d601f19601f8201168201806040525081019061050991906113f7565b6001600160a01b0316636d993046336040518263ffffffff1660e01b81526004016105349190611347565b60206040518083038186803b15801561054c57600080fd5b505afa158015610560573d6000803e3d6000fd5b505050506040513d601f19601f820116820180604052508101906105849190611414565b6105a05760405162461bcd60e51b81526004016103d690611431565b60408051808201909152600f81526e125b9d985b1a59080c081a5b9c1d5d608a1b6020820152816105e45760405162461bcd60e51b81526004016103d69190611454565b5060028190556040518181527f1efb1db4037f964fdb0d9ce83125a4e3f84d55efaf654830ed8d034c30ad25dc90602001610477565b600060029054906101000a90046001600160a01b03166001600160a01b031662435da56040518163ffffffff1660e01b8152600401602060405180830381600087803b15801561066957600080fd5b505af115801561067d573d6000803e3d6000fd5b505050506040513d601f19601f820116820180604052508101906106a191906113f7565b6001600160a01b0316636d993046336040518263ffffffff1660e01b81526004016106cc9190611347565b60206040518083038186803b1580156106e457600080fd5b505afa1580156106f8573d6000803e3d6000fd5b505050506040513d601f19601f8201168201806040525081019061071c9190611414565b6107385760405162461bcd60e51b81526004016103d690611431565b60408051808201909152600f81526e125b9d985b1a59080c081a5b9c1d5d608a1b60208201526001600160a01b0383166107855760405162461bcd60e51b81526004016103d69190611454565b506001600160a01b038216600081815260076020908152604091829020805460ff19168515159081179091558251938452908301527f69dbdf6bdc042e90cff52a0317d54ee5ffb99ed454145bedb5f0967f948e2d40910160405180910390a15050565b600060029054906101000a90046001600160a01b03166001600160a01b031662435da56040518163ffffffff1660e01b8152600401602060405180830381600087803b15801561083857600080fd5b505af115801561084c573d6000803e3d6000fd5b505050506040513d601f19601f8201168201806040525081019061087091906113f7565b6001600160a01b0316636d993046336040518263ffffffff1660e01b815260040161089b9190611347565b60206040518083038186803b1580156108b357600080fd5b505afa1580156108c7573d6000803e3d6000fd5b505050506040513d601f19601f820116820180604052508101906108eb9190611414565b6109075760405162461bcd60e51b81526004016103d690611431565b60408051808201909152600f81526e125b9d985b1a59080c081a5b9c1d5d608a1b60208201526001600160a01b0382166109545760405162461bcd60e51b81526004016103d69190611454565b50600180546001600160a01b0319166001600160a01b0383161790556040517fbd4032c1c91da2791730ea1bbc82c6b6f857da7c0a8318143d19ef74e62cd91390610477908390611347565b600060029054906101000a90046001600160a01b03166001600160a01b031662435da56040518163ffffffff1660e01b8152600401602060405180830381600087803b1580156109ef57600080fd5b505af1158015610a03573d6000803e3d6000fd5b505050506040513d601f19601f82011682018060405250810190610a2791906113f7565b6001600160a01b0316636d993046336040518263ffffffff1660e01b8152600401610a529190611347565b60206040518083038186803b158015610a6a57600080fd5b505afa158015610a7e573d6000803e3d6000fd5b505050506040513d601f19601f82011682018060405250810190610aa29190611414565b610abe5760405162461bcd60e51b81526004016103d690611431565b60408051808201909152600f81526e125b9d985b1a59080c081a5b9c1d5d608a1b602082015281610b025760405162461bcd60e51b81526004016103d69190611454565b5060098190556040518181527fce5c5f3d530cb7e178242c6d0339af2741497ab1d0d5a84a7bab48b5c590a6b090602001610477565b600054610100900460ff16610b535760005460ff1615610b57565b303b155b610bba5760405162461bcd60e51b815260206004820152602e60248201527f496e697469616c697a61626c653a20636f6e747261637420697320616c72656160448201526d191e481a5b9a5d1a585b1a5e995960921b60648201526084016103d6565b600054610100900460ff16158015610bdc576000805461ffff19166101011790555b60408051808201909152600f81526e125b9d985b1a59080c081a5b9c1d5d608a1b60208201526001600160a01b038316610c295760405162461bcd60e51b81526004016103d69190611454565b506000805462010000600160b01b031916620100006001600160a01b038516021790558015610c5e576000805461ff00191690555b5050565b600060029054906101000a90046001600160a01b03166001600160a01b031662435da56040518163ffffffff1660e01b8152600401602060405180830381600087803b158015610cb157600080fd5b505af1158015610cc5573d6000803e3d6000fd5b505050506040513d601f19601f82011682018060405250810190610ce991906113f7565b6001600160a01b0316636d993046336040518263ffffffff1660e01b8152600401610d149190611347565b60206040518083038186803b158015610d2c57600080fd5b505afa158015610d40573d6000803e3d6000fd5b505050506040513d601f19601f82011682018060405250810190610d649190611414565b610d805760405162461bcd60e51b81526004016103d690611431565b60408051808201909152600f81526e125b9d985b1a59080c081a5b9c1d5d608a1b602082015281610dc45760405162461bcd60e51b81526004016103d69190611454565b50612710811115610de75760405162461bcd60e51b81526004016103d6906114a9565b60048190556040518181527f7b568aa985a32d076146f32f69e22aadf408b8f76c3a2f4ee694228afc2cc82790602001610477565b600060029054906101000a90046001600160a01b03166001600160a01b031662435da56040518163ffffffff1660e01b8152600401602060405180830381600087803b158015610e6b57600080fd5b505af1158015610e7f573d6000803e3d6000fd5b505050506040513d601f19601f82011682018060405250810190610ea391906113f7565b6001600160a01b0316636d993046336040518263ffffffff1660e01b8152600401610ece9190611347565b60206040518083038186803b158015610ee657600080fd5b505afa158015610efa573d6000803e3d6000fd5b505050506040513d601f19601f82011682018060405250810190610f1e9190611414565b610f3a5760405162461bcd60e51b81526004016103d690611431565b60408051808201909152600f81526e125b9d985b1a59080c081a5b9c1d5d608a1b602082015281610f7e5760405162461bcd60e51b81526004016103d69190611454565b50612710811115610fa15760405162461bcd60e51b81526004016103d6906114a9565b60038190556040518181527fab8f93c67b0c7463f6f99579fa9b11ae2cb0de74594b6562724ab1ddecddaeb290602001610477565b600060029054906101000a90046001600160a01b03166001600160a01b031662435da56040518163ffffffff1660e01b8152600401602060405180830381600087803b15801561102557600080fd5b505af1158015611039573d6000803e3d6000fd5b505050506040513d601f19601f8201168201806040525081019061105d91906113f7565b6001600160a01b0316636d993046336040518263ffffffff1660e01b81526004016110889190611347565b60206040518083038186803b1580156110a057600080fd5b505afa1580156110b4573d6000803e3d6000fd5b505050506040513d601f19601f820116820180604052508101906110d89190611414565b6110f45760405162461bcd60e51b81526004016103d690611431565b60408051808201909152600f81526e125b9d985b1a59080c081a5b9c1d5d608a1b60208201526001600160a01b0382166111415760405162461bcd60e51b81526004016103d69190611454565b50600880546001600160a01b0319166001600160a01b0383161790556040517fb76854c9a4a92dc33c696090a8a86f40eed75f651baa9531b9b68e59f4d4001b90610477908390611347565b600060029054906101000a90046001600160a01b03166001600160a01b031662435da56040518163ffffffff1660e01b8152600401602060405180830381600087803b1580156111dc57600080fd5b505af11580156111f0573d6000803e3d6000fd5b505050506040513d601f19601f8201168201806040525081019061121491906113f7565b6001600160a01b0316636d993046336040518263ffffffff1660e01b815260040161123f9190611347565b60206040518083038186803b15801561125757600080fd5b505afa15801561126b573d6000803e3d6000fd5b505050506040513d601f19601f8201168201806040525081019061128f9190611414565b6112ab5760405162461bcd60e51b81526004016103d690611431565b60408051808201909152600f81526e125b9d985b1a59080c081a5b9c1d5d608a1b6020820152816112ef5760405162461bcd60e51b81526004016103d69190611454565b506127108111156113125760405162461bcd60e51b81526004016103d6906114a9565b60068190556040518181527f5286e9f4ccb1f31b46dce4870d04977bb0cf83b6c79d0ba3d5cc760bc5902a7090602001610477565b6001600160a01b0391909116815260200190565b60006020828403121561136d57600080fd5b5035919050565b6001600160a01b038116811461138957600080fd5b50565b801515811461138957600080fd5b600080604083850312156113ad57600080fd5b82356113b881611374565b915060208301356113c88161138c565b809150509250929050565b6000602082840312156113e557600080fd5b81356113f081611374565b9392505050565b60006020828403121561140957600080fd5b81516113f081611374565b60006020828403121561142657600080fd5b81516113f08161138c565b6020808252600990820152682737ba1020b236b4b760b91b604082015260600190565b600060208083528351808285015260005b8181101561148157858101830151858201604001528201611465565b81811115611493576000604083870101525b50601f01601f1916929092016040019392505050565b6020808252600a90820152690496e76616c69642062760b41b60408201526060019056fea26469706673582212204b8402e150657c1e89d90a3cf8edb0addfbef2b81fb0a2cdc5cd96d051f66b4064736f6c63430008090033",
  "devdoc": {
    "details": "Note: This contract is protected via a permissioned account set in the role manager.  Caution should be used as the role owner could renounce the role leaving all future actions disabled.  Additionally, if a malicious account was able to obtain the role, they could use it to set values to malicious values. See the public documentation website for more details.",
    "events": {
      "PaymentTokenUpdated(address)": {
        "details": "Events emitted on updates"
      }
    },
    "kind": "dev",
    "methods": {
      "initialize(address)": {
        "details": "initializer to call after deployment, can only be called once"
      },
      "setApprovedCuratorVaults(address,bool)": {
        "details": "Setter for the list of curator vaults allowed to be used"
      },
      "setFreeReactionLimit(uint256)": {
        "details": "Setter for the amount of reactions allowed per free reaction"
      },
      "setNativeWrappedToken(address)": {
        "details": "Setter for the native wrapped ERC20 token (e.g. WMATIC)"
      },
      "setPaymentToken(address)": {
        "details": "Setter for the payment token"
      },
      "setReactionPrice(uint256)": {
        "details": "Setter for the reaction price"
      },
      "setSaleCuratorLiabilityBasisPoints(uint256)": {
        "details": "Setter for the reaction price"
      },
      "setSaleReferrerBasisPoints(uint256)": {
        "details": "Setter for the reaction price"
      },
      "setSpendReferrerBasisPoints(uint256)": {
        "details": "Setter for the spend referrer basis points"
      },
      "setSpendTakerBasisPoints(uint256)": {
        "details": "Setter for the spend taker basis points"
      }
    },
    "version": 1
  },
  "userdoc": {
    "kind": "user",
    "methods": {},
    "version": 1
  },
  "storageLayout": {
    "storage": [
      {
        "astId": 2435,
        "contract": "contracts/Parameters/ParameterManager.sol:ParameterManager",
        "label": "_initialized",
        "offset": 0,
        "slot": "0",
        "type": "t_bool"
      },
      {
        "astId": 2438,
        "contract": "contracts/Parameters/ParameterManager.sol:ParameterManager",
        "label": "_initializing",
        "offset": 1,
        "slot": "0",
        "type": "t_bool"
      },
      {
        "astId": 10090,
        "contract": "contracts/Parameters/ParameterManager.sol:ParameterManager",
        "label": "addressManager",
        "offset": 2,
        "slot": "0",
        "type": "t_contract(IAddressManager)8328"
      },
      {
        "astId": 10094,
        "contract": "contracts/Parameters/ParameterManager.sol:ParameterManager",
        "label": "paymentToken",
        "offset": 0,
        "slot": "1",
        "type": "t_contract(IWMATIC)13724"
      },
      {
        "astId": 10097,
        "contract": "contracts/Parameters/ParameterManager.sol:ParameterManager",
        "label": "reactionPrice",
        "offset": 0,
        "slot": "2",
        "type": "t_uint256"
      },
      {
        "astId": 10100,
        "contract": "contracts/Parameters/ParameterManager.sol:ParameterManager",
        "label": "saleCuratorLiabilityBasisPoints",
        "offset": 0,
        "slot": "3",
        "type": "t_uint256"
      },
      {
        "astId": 10103,
        "contract": "contracts/Parameters/ParameterManager.sol:ParameterManager",
        "label": "saleReferrerBasisPoints",
        "offset": 0,
        "slot": "4",
        "type": "t_uint256"
      },
      {
        "astId": 10106,
        "contract": "contracts/Parameters/ParameterManager.sol:ParameterManager",
        "label": "spendTakerBasisPoints",
        "offset": 0,
        "slot": "5",
        "type": "t_uint256"
      },
      {
        "astId": 10109,
        "contract": "contracts/Parameters/ParameterManager.sol:ParameterManager",
        "label": "spendReferrerBasisPoints",
        "offset": 0,
        "slot": "6",
        "type": "t_uint256"
      },
      {
        "astId": 10114,
        "contract": "contracts/Parameters/ParameterManager.sol:ParameterManager",
        "label": "approvedCuratorVaults",
        "offset": 0,
        "slot": "7",
        "type": "t_mapping(t_address,t_bool)"
      },
      {
        "astId": 10121,
        "contract": "contracts/Parameters/ParameterManager.sol:ParameterManager",
        "label": "nativeWrappedToken",
        "offset": 0,
        "slot": "8",
        "type": "t_contract(IERC20Upgradeable)4673"
      },
      {
        "astId": 10124,
        "contract": "contracts/Parameters/ParameterManager.sol:ParameterManager",
        "label": "freeReactionLimit",
        "offset": 0,
        "slot": "9",
        "type": "t_uint256"
      }
    ],
    "types": {
      "t_address": {
        "encoding": "inplace",
        "label": "address",
        "numberOfBytes": "20"
      },
      "t_bool": {
        "encoding": "inplace",
        "label": "bool",
        "numberOfBytes": "1"
      },
      "t_contract(IAddressManager)8328": {
        "encoding": "inplace",
        "label": "contract IAddressManager",
        "numberOfBytes": "20"
      },
      "t_contract(IERC20Upgradeable)4673": {
        "encoding": "inplace",
        "label": "contract IERC20Upgradeable",
        "numberOfBytes": "20"
      },
      "t_contract(IWMATIC)13724": {
        "encoding": "inplace",
        "label": "contract IWMATIC",
        "numberOfBytes": "20"
      },
      "t_mapping(t_address,t_bool)": {
        "encoding": "mapping",
        "key": "t_address",
        "label": "mapping(address => bool)",
        "numberOfBytes": "32",
        "value": "t_bool"
      },
      "t_uint256": {
        "encoding": "inplace",
        "label": "uint256",
        "numberOfBytes": "32"
      }
    }
  }
}