{
  "address": "0x39A74FD4d83e7F48971BFA50347883a4304cE4D8",
  "abi": [
    {
      "anonymous": false,
      "inputs": [
        {
          "indexed": false,
          "internalType": "address",
          "name": "vault",
          "type": "address"
        },
        {
          "indexed": false,
          "internalType": "bool",
          "name": "approved",
          "type": "bool"
        }
      ],
      "name": "ApprovedCuratorVaultsUpdated",
      "type": "event"
    },
    {
      "anonymous": false,
      "inputs": [
        {
          "indexed": false,
          "internalType": "uint8",
          "name": "version",
          "type": "uint8"
        }
      ],
      "name": "Initialized",
      "type": "event"
    },
    {
      "anonymous": false,
      "inputs": [
        {
          "indexed": false,
          "internalType": "contract IERC20Upgradeable",
          "name": "newValue",
          "type": "address"
        }
      ],
      "name": "PaymentTokenUpdated",
      "type": "event"
    },
    {
      "anonymous": false,
      "inputs": [
        {
          "indexed": false,
          "internalType": "uint256",
          "name": "newValue",
          "type": "uint256"
        }
      ],
      "name": "ReactionPriceUpdated",
      "type": "event"
    },
    {
      "anonymous": false,
      "inputs": [
        {
          "indexed": false,
          "internalType": "uint256",
          "name": "newValue",
          "type": "uint256"
        }
      ],
      "name": "SaleCuratorLiabilityBasisPointsUpdated",
      "type": "event"
    },
    {
      "anonymous": false,
      "inputs": [
        {
          "indexed": false,
          "internalType": "uint256",
          "name": "newValue",
          "type": "uint256"
        }
      ],
      "name": "SaleReferrerBasisPointsUpdated",
      "type": "event"
    },
    {
      "anonymous": false,
      "inputs": [
        {
          "indexed": false,
          "internalType": "uint256",
          "name": "newValue",
          "type": "uint256"
        }
      ],
      "name": "SpendReferrerBasisPointsUpdated",
      "type": "event"
    },
    {
      "anonymous": false,
      "inputs": [
        {
          "indexed": false,
          "internalType": "uint256",
          "name": "newValue",
          "type": "uint256"
        }
      ],
      "name": "SpendTakerBasisPointsUpdated",
      "type": "event"
    },
    {
      "inputs": [],
      "name": "addressManager",
      "outputs": [
        {
          "internalType": "contract IAddressManager",
          "name": "",
          "type": "address"
        }
      ],
      "stateMutability": "view",
      "type": "function"
    },
    {
      "inputs": [
        {
          "internalType": "address",
          "name": "",
          "type": "address"
        }
      ],
      "name": "approvedCuratorVaults",
      "outputs": [
        {
          "internalType": "bool",
          "name": "",
          "type": "bool"
        }
      ],
      "stateMutability": "view",
      "type": "function"
    },
    {
      "inputs": [
        {
          "internalType": "contract IAddressManager",
          "name": "_addressManager",
          "type": "address"
        }
      ],
      "name": "initialize",
      "outputs": [],
      "stateMutability": "nonpayable",
      "type": "function"
    },
    {
      "inputs": [],
      "name": "paymentToken",
      "outputs": [
        {
          "internalType": "contract IERC20Upgradeable",
          "name": "",
          "type": "address"
        }
      ],
      "stateMutability": "view",
      "type": "function"
    },
    {
      "inputs": [],
      "name": "reactionPrice",
      "outputs": [
        {
          "internalType": "uint256",
          "name": "",
          "type": "uint256"
        }
      ],
      "stateMutability": "view",
      "type": "function"
    },
    {
      "inputs": [],
      "name": "saleCuratorLiabilityBasisPoints",
      "outputs": [
        {
          "internalType": "uint256",
          "name": "",
          "type": "uint256"
        }
      ],
      "stateMutability": "view",
      "type": "function"
    },
    {
      "inputs": [],
      "name": "saleReferrerBasisPoints",
      "outputs": [
        {
          "internalType": "uint256",
          "name": "",
          "type": "uint256"
        }
      ],
      "stateMutability": "view",
      "type": "function"
    },
    {
      "inputs": [
        {
          "internalType": "address",
          "name": "vault",
          "type": "address"
        },
        {
          "internalType": "bool",
          "name": "approved",
          "type": "bool"
        }
      ],
      "name": "setApprovedCuratorVaults",
      "outputs": [],
      "stateMutability": "nonpayable",
      "type": "function"
    },
    {
      "inputs": [
        {
          "internalType": "contract IERC20Upgradeable",
          "name": "_paymentToken",
          "type": "address"
        }
      ],
      "name": "setPaymentToken",
      "outputs": [],
      "stateMutability": "nonpayable",
      "type": "function"
    },
    {
      "inputs": [
        {
          "internalType": "uint256",
          "name": "_reactionPrice",
          "type": "uint256"
        }
      ],
      "name": "setReactionPrice",
      "outputs": [],
      "stateMutability": "nonpayable",
      "type": "function"
    },
    {
      "inputs": [
        {
          "internalType": "uint256",
          "name": "_saleCuratorLiabilityBasisPoints",
          "type": "uint256"
        }
      ],
      "name": "setSaleCuratorLiabilityBasisPoints",
      "outputs": [],
      "stateMutability": "nonpayable",
      "type": "function"
    },
    {
      "inputs": [
        {
          "internalType": "uint256",
          "name": "_saleReferrerBasisPoints",
          "type": "uint256"
        }
      ],
      "name": "setSaleReferrerBasisPoints",
      "outputs": [],
      "stateMutability": "nonpayable",
      "type": "function"
    },
    {
      "inputs": [
        {
          "internalType": "uint256",
          "name": "_spendReferrerBasisPoints",
          "type": "uint256"
        }
      ],
      "name": "setSpendReferrerBasisPoints",
      "outputs": [],
      "stateMutability": "nonpayable",
      "type": "function"
    },
    {
      "inputs": [
        {
          "internalType": "uint256",
          "name": "_spendTakerBasisPoints",
          "type": "uint256"
        }
      ],
      "name": "setSpendTakerBasisPoints",
      "outputs": [],
      "stateMutability": "nonpayable",
      "type": "function"
    },
    {
      "inputs": [],
      "name": "spendReferrerBasisPoints",
      "outputs": [
        {
          "internalType": "uint256",
          "name": "",
          "type": "uint256"
        }
      ],
      "stateMutability": "view",
      "type": "function"
    },
    {
      "inputs": [],
      "name": "spendTakerBasisPoints",
      "outputs": [
        {
          "internalType": "uint256",
          "name": "",
          "type": "uint256"
        }
      ],
      "stateMutability": "view",
      "type": "function"
    }
  ],
  "transactionHash": "0x20be2d4e2963dac09787a8692e63e903a40a26f555b81c43ba30deda7e70e572",
  "args": [],
  "numDeployments": 1,
  "solcInputHash": "e5086af1310b7ca1d6194e2a0e3afebd",
  "bytecode": "0x608060405234801561001057600080fd5b50611dc0806100206000396000f3fe608060405234801561001057600080fd5b50600436106100ff5760003560e01c806373cf2a6711610097578063e15a8ce811610066578063e15a8ce814610272578063f467320e1461028e578063f93c0d79146102ac578063fbc8cc58146102ca576100ff565b806373cf2a67146101ec578063c4d66de81461021c578063cc22c3e214610238578063dafe4f9a14610256576100ff565b80635ddb0cf2116100d35780635ddb0cf21461017a578063655f28c114610198578063690dafaf146101b45780636a326ab1146101d0576100ff565b8062ac1c5a146101045780633013ce29146101225780633ab76e9f146101405780635b3c42ff1461015e575b600080fd5b61010c6102e6565b60405161011991906116d0565b60405180910390f35b61012a6102ec565b604051610137919061176a565b60405180910390f35b610148610312565b60405161015591906117a6565b60405180910390f35b610178600480360381019061017391906117f2565b610338565b005b6101826105a3565b60405161018f91906116d0565b60405180910390f35b6101b260048036038101906101ad91906117f2565b6105a9565b005b6101ce60048036038101906101c99190611895565b6107cf565b005b6101ea60048036038101906101e59190611913565b610a74565b005b61020660048036038101906102019190611940565b610d00565b604051610213919061197c565b60405180910390f35b610236600480360381019061023191906119d5565b610d20565b005b610240610f41565b60405161024d91906116d0565b60405180910390f35b610270600480360381019061026b91906117f2565b610f47565b005b61028c600480360381019061028791906117f2565b6111b2565b005b61029661141d565b6040516102a391906116d0565b60405180910390f35b6102b4611423565b6040516102c191906116d0565b60405180910390f35b6102e460048036038101906102df91906117f2565b611429565b005b60055481565b600160009054906101000a900473ffffffffffffffffffffffffffffffffffffffff1681565b600060029054906101000a900473ffffffffffffffffffffffffffffffffffffffff1681565b600060029054906101000a900473ffffffffffffffffffffffffffffffffffffffff1673ffffffffffffffffffffffffffffffffffffffff1662435da56040518163ffffffff1660e01b8152600401602060405180830381600087803b1580156103a157600080fd5b505af11580156103b5573d6000803e3d6000fd5b505050506040513d601f19601f820116820180604052508101906103d99190611a40565b73ffffffffffffffffffffffffffffffffffffffff16636d993046336040518263ffffffff1660e01b81526004016104119190611a7c565b60206040518083038186803b15801561042957600080fd5b505afa15801561043d573d6000803e3d6000fd5b505050506040513d601f19601f820116820180604052508101906104619190611aac565b6104a0576040517f08c379a000000000000000000000000000000000000000000000000000000000815260040161049790611b36565b60405180910390fd5b60008114156040518060400160405280600f81526020017f496e76616c6964203020696e70757400000000000000000000000000000000008152509061051c576040517f08c379a00000000000000000000000000000000000000000000000000000000081526004016105139190611bde565b60405180910390fd5b50612710811115610562576040517f08c379a000000000000000000000000000000000000000000000000000000000815260040161055990611c4c565b60405180910390fd5b806005819055507f8675d4b071dd3bb74a333fda8ae022c69bab50eeafbf1ae61cbffc73f052ab028160405161059891906116d0565b60405180910390a150565b60025481565b600060029054906101000a900473ffffffffffffffffffffffffffffffffffffffff1673ffffffffffffffffffffffffffffffffffffffff1662435da56040518163ffffffff1660e01b8152600401602060405180830381600087803b15801561061257600080fd5b505af1158015610626573d6000803e3d6000fd5b505050506040513d601f19601f8201168201806040525081019061064a9190611a40565b73ffffffffffffffffffffffffffffffffffffffff16636d993046336040518263ffffffff1660e01b81526004016106829190611a7c565b60206040518083038186803b15801561069a57600080fd5b505afa1580156106ae573d6000803e3d6000fd5b505050506040513d601f19601f820116820180604052508101906106d29190611aac565b610711576040517f08c379a000000000000000000000000000000000000000000000000000000000815260040161070890611b36565b60405180910390fd5b60008114156040518060400160405280600f81526020017f496e76616c6964203020696e70757400000000000000000000000000000000008152509061078d576040517f08c379a00000000000000000000000000000000000000000000000000000000081526004016107849190611bde565b60405180910390fd5b50806002819055507f1efb1db4037f964fdb0d9ce83125a4e3f84d55efaf654830ed8d034c30ad25dc816040516107c491906116d0565b60405180910390a150565b600060029054906101000a900473ffffffffffffffffffffffffffffffffffffffff1673ffffffffffffffffffffffffffffffffffffffff1662435da56040518163ffffffff1660e01b8152600401602060405180830381600087803b15801561083857600080fd5b505af115801561084c573d6000803e3d6000fd5b505050506040513d601f19601f820116820180604052508101906108709190611a40565b73ffffffffffffffffffffffffffffffffffffffff16636d993046336040518263ffffffff1660e01b81526004016108a89190611a7c565b60206040518083038186803b1580156108c057600080fd5b505afa1580156108d4573d6000803e3d6000fd5b505050506040513d601f19601f820116820180604052508101906108f89190611aac565b610937576040517f08c379a000000000000000000000000000000000000000000000000000000000815260040161092e90611b36565b60405180910390fd5b600073ffffffffffffffffffffffffffffffffffffffff168273ffffffffffffffffffffffffffffffffffffffff1614156040518060400160405280600f81526020017f496e76616c6964203020696e7075740000000000000000000000000000000000815250906109df576040517f08c379a00000000000000000000000000000000000000000000000000000000081526004016109d69190611bde565b60405180910390fd5b5080600760008473ffffffffffffffffffffffffffffffffffffffff1673ffffffffffffffffffffffffffffffffffffffff16815260200190815260200160002060006101000a81548160ff0219169083151502179055507f69dbdf6bdc042e90cff52a0317d54ee5ffb99ed454145bedb5f0967f948e2d408282604051610a68929190611c6c565b60405180910390a15050565b600060029054906101000a900473ffffffffffffffffffffffffffffffffffffffff1673ffffffffffffffffffffffffffffffffffffffff1662435da56040518163ffffffff1660e01b8152600401602060405180830381600087803b158015610add57600080fd5b505af1158015610af1573d6000803e3d6000fd5b505050506040513d601f19601f82011682018060405250810190610b159190611a40565b73ffffffffffffffffffffffffffffffffffffffff16636d993046336040518263ffffffff1660e01b8152600401610b4d9190611a7c565b60206040518083038186803b158015610b6557600080fd5b505afa158015610b79573d6000803e3d6000fd5b505050506040513d601f19601f82011682018060405250810190610b9d9190611aac565b610bdc576040517f08c379a0000000000000000000000000000000000000000000000000000000008152600401610bd390611b36565b60405180910390fd5b600073ffffffffffffffffffffffffffffffffffffffff168173ffffffffffffffffffffffffffffffffffffffff1614156040518060400160405280600f81526020017f496e76616c6964203020696e707574000000000000000000000000000000000081525090610c84576040517f08c379a0000000000000000000000000000000000000000000000000000000008152600401610c7b9190611bde565b60405180910390fd5b5080600160006101000a81548173ffffffffffffffffffffffffffffffffffffffff021916908373ffffffffffffffffffffffffffffffffffffffff1602179055507fbd4032c1c91da2791730ea1bbc82c6b6f857da7c0a8318143d19ef74e62cd91381604051610cf5919061176a565b60405180910390a150565b60076020528060005260406000206000915054906101000a900460ff1681565b60008060019054906101000a900460ff16159050808015610d515750600160008054906101000a900460ff1660ff16105b80610d7e5750610d6030611694565b158015610d7d5750600160008054906101000a900460ff1660ff16145b5b610dbd576040517f08c379a0000000000000000000000000000000000000000000000000000000008152600401610db490611d07565b60405180910390fd5b60016000806101000a81548160ff021916908360ff1602179055508015610dfa576001600060016101000a81548160ff0219169083151502179055505b600073ffffffffffffffffffffffffffffffffffffffff168273ffffffffffffffffffffffffffffffffffffffff1614156040518060400160405280600f81526020017f496e76616c6964203020696e707574000000000000000000000000000000000081525090610ea2576040517f08c379a0000000000000000000000000000000000000000000000000000000008152600401610e999190611bde565b60405180910390fd5b5081600060026101000a81548173ffffffffffffffffffffffffffffffffffffffff021916908373ffffffffffffffffffffffffffffffffffffffff1602179055508015610f3d5760008060016101000a81548160ff0219169083151502179055507f7f26b83ff96e1f2b6a682f133852f6798a09c465da95921460cefb38474024986001604051610f349190611d6f565b60405180910390a15b5050565b60065481565b600060029054906101000a900473ffffffffffffffffffffffffffffffffffffffff1673ffffffffffffffffffffffffffffffffffffffff1662435da56040518163ffffffff1660e01b8152600401602060405180830381600087803b158015610fb057600080fd5b505af1158015610fc4573d6000803e3d6000fd5b505050506040513d601f19601f82011682018060405250810190610fe89190611a40565b73ffffffffffffffffffffffffffffffffffffffff16636d993046336040518263ffffffff1660e01b81526004016110209190611a7c565b60206040518083038186803b15801561103857600080fd5b505afa15801561104c573d6000803e3d6000fd5b505050506040513d601f19601f820116820180604052508101906110709190611aac565b6110af576040517f08c379a00000000000000000000000000000000000000000000000000000000081526004016110a690611b36565b60405180910390fd5b60008114156040518060400160405280600f81526020017f496e76616c6964203020696e70757400000000000000000000000000000000008152509061112b576040517f08c379a00000000000000000000000000000000000000000000000000000000081526004016111229190611bde565b60405180910390fd5b50612710811115611171576040517f08c379a000000000000000000000000000000000000000000000000000000000815260040161116890611c4c565b60405180910390fd5b806004819055507f7b568aa985a32d076146f32f69e22aadf408b8f76c3a2f4ee694228afc2cc827816040516111a791906116d0565b60405180910390a150565b600060029054906101000a900473ffffffffffffffffffffffffffffffffffffffff1673ffffffffffffffffffffffffffffffffffffffff1662435da56040518163ffffffff1660e01b8152600401602060405180830381600087803b15801561121b57600080fd5b505af115801561122f573d6000803e3d6000fd5b505050506040513d601f19601f820116820180604052508101906112539190611a40565b73ffffffffffffffffffffffffffffffffffffffff16636d993046336040518263ffffffff1660e01b815260040161128b9190611a7c565b60206040518083038186803b1580156112a357600080fd5b505afa1580156112b7573d6000803e3d6000fd5b505050506040513d601f19601f820116820180604052508101906112db9190611aac565b61131a576040517f08c379a000000000000000000000000000000000000000000000000000000000815260040161131190611b36565b60405180910390fd5b60008114156040518060400160405280600f81526020017f496e76616c6964203020696e707574000000000000000000000000000000000081525090611396576040517f08c379a000000000000000000000000000000000000000000000000000000000815260040161138d9190611bde565b60405180910390fd5b506127108111156113dc576040517f08c379a00000000000000000000000000000000000000000000000000000000081526004016113d390611c4c565b60405180910390fd5b806003819055507fab8f93c67b0c7463f6f99579fa9b11ae2cb0de74594b6562724ab1ddecddaeb28160405161141291906116d0565b60405180910390a150565b60045481565b60035481565b600060029054906101000a900473ffffffffffffffffffffffffffffffffffffffff1673ffffffffffffffffffffffffffffffffffffffff1662435da56040518163ffffffff1660e01b8152600401602060405180830381600087803b15801561149257600080fd5b505af11580156114a6573d6000803e3d6000fd5b505050506040513d601f19601f820116820180604052508101906114ca9190611a40565b73ffffffffffffffffffffffffffffffffffffffff16636d993046336040518263ffffffff1660e01b81526004016115029190611a7c565b60206040518083038186803b15801561151a57600080fd5b505afa15801561152e573d6000803e3d6000fd5b505050506040513d601f19601f820116820180604052508101906115529190611aac565b611591576040517f08c379a000000000000000000000000000000000000000000000000000000000815260040161158890611b36565b60405180910390fd5b60008114156040518060400160405280600f81526020017f496e76616c6964203020696e70757400000000000000000000000000000000008152509061160d576040517f08c379a00000000000000000000000000000000000000000000000000000000081526004016116049190611bde565b60405180910390fd5b50612710811115611653576040517f08c379a000000000000000000000000000000000000000000000000000000000815260040161164a90611c4c565b60405180910390fd5b806006819055507f5286e9f4ccb1f31b46dce4870d04977bb0cf83b6c79d0ba3d5cc760bc5902a708160405161168991906116d0565b60405180910390a150565b6000808273ffffffffffffffffffffffffffffffffffffffff163b119050919050565b6000819050919050565b6116ca816116b7565b82525050565b60006020820190506116e560008301846116c1565b92915050565b600073ffffffffffffffffffffffffffffffffffffffff82169050919050565b6000819050919050565b600061173061172b611726846116eb565b61170b565b6116eb565b9050919050565b600061174282611715565b9050919050565b600061175482611737565b9050919050565b61176481611749565b82525050565b600060208201905061177f600083018461175b565b92915050565b600061179082611737565b9050919050565b6117a081611785565b82525050565b60006020820190506117bb6000830184611797565b92915050565b600080fd5b6117cf816116b7565b81146117da57600080fd5b50565b6000813590506117ec816117c6565b92915050565b600060208284031215611808576118076117c1565b5b6000611816848285016117dd565b91505092915050565b600061182a826116eb565b9050919050565b61183a8161181f565b811461184557600080fd5b50565b60008135905061185781611831565b92915050565b60008115159050919050565b6118728161185d565b811461187d57600080fd5b50565b60008135905061188f81611869565b92915050565b600080604083850312156118ac576118ab6117c1565b5b60006118ba85828601611848565b92505060206118cb85828601611880565b9150509250929050565b60006118e08261181f565b9050919050565b6118f0816118d5565b81146118fb57600080fd5b50565b60008135905061190d816118e7565b92915050565b600060208284031215611929576119286117c1565b5b6000611937848285016118fe565b91505092915050565b600060208284031215611956576119556117c1565b5b600061196484828501611848565b91505092915050565b6119768161185d565b82525050565b6000602082019050611991600083018461196d565b92915050565b60006119a28261181f565b9050919050565b6119b281611997565b81146119bd57600080fd5b50565b6000813590506119cf816119a9565b92915050565b6000602082840312156119eb576119ea6117c1565b5b60006119f9848285016119c0565b91505092915050565b6000611a0d8261181f565b9050919050565b611a1d81611a02565b8114611a2857600080fd5b50565b600081519050611a3a81611a14565b92915050565b600060208284031215611a5657611a556117c1565b5b6000611a6484828501611a2b565b91505092915050565b611a768161181f565b82525050565b6000602082019050611a916000830184611a6d565b92915050565b600081519050611aa681611869565b92915050565b600060208284031215611ac257611ac16117c1565b5b6000611ad084828501611a97565b91505092915050565b600082825260208201905092915050565b7f4e6f742041646d696e0000000000000000000000000000000000000000000000600082015250565b6000611b20600983611ad9565b9150611b2b82611aea565b602082019050919050565b60006020820190508181036000830152611b4f81611b13565b9050919050565b600081519050919050565b60005b83811015611b7f578082015181840152602081019050611b64565b83811115611b8e576000848401525b50505050565b6000601f19601f8301169050919050565b6000611bb082611b56565b611bba8185611ad9565b9350611bca818560208601611b61565b611bd381611b94565b840191505092915050565b60006020820190508181036000830152611bf88184611ba5565b905092915050565b7f496e76616c696420627000000000000000000000000000000000000000000000600082015250565b6000611c36600a83611ad9565b9150611c4182611c00565b602082019050919050565b60006020820190508181036000830152611c6581611c29565b9050919050565b6000604082019050611c816000830185611a6d565b611c8e602083018461196d565b9392505050565b7f496e697469616c697a61626c653a20636f6e747261637420697320616c72656160008201527f647920696e697469616c697a6564000000000000000000000000000000000000602082015250565b6000611cf1602e83611ad9565b9150611cfc82611c95565b604082019050919050565b60006020820190508181036000830152611d2081611ce4565b9050919050565b6000819050919050565b600060ff82169050919050565b6000611d59611d54611d4f84611d27565b61170b565b611d31565b9050919050565b611d6981611d3e565b82525050565b6000602082019050611d846000830184611d60565b9291505056fea2646970667358221220242d3a0d8cc4ac3a05f3adcce444b8530789209ecf9c62acfd78978890f6158764736f6c63430008090033",
  "devdoc": {
    "details": "Note: This contract is protected via a permissioned account set in the role manager.  Caution should be used as the role owner could renounce the role leaving all future actions disabled.  Additionally, if a malicious account was able to obtain the role, they could use it to set values to malicious values. See the public documentation website for more details.",
    "events": {
      "PaymentTokenUpdated(address)": {
        "details": "Events emitted on updates"
      }
    },
    "kind": "dev",
    "methods": {
      "initialize(address)": {
        "details": "initializer to call after deployment, can only be called once"
      },
      "setApprovedCuratorVaults(address,bool)": {
        "details": "Setter for the list of curator vaults allowed to be used"
      },
      "setPaymentToken(address)": {
        "details": "Setter for the payment token"
      },
      "setReactionPrice(uint256)": {
        "details": "Setter for the reaction price"
      },
      "setSaleCuratorLiabilityBasisPoints(uint256)": {
        "details": "Setter for the reaction price"
      },
      "setSaleReferrerBasisPoints(uint256)": {
        "details": "Setter for the reaction price"
      },
      "setSpendReferrerBasisPoints(uint256)": {
        "details": "Setter for the spend referrer basis points"
      },
      "setSpendTakerBasisPoints(uint256)": {
        "details": "Setter for the spend taker basis points"
      }
    },
    "version": 1
  },
  "userdoc": {
    "kind": "user",
    "methods": {},
    "version": 1
  },
  "storageLayout": {
    "storage": [
      {
        "astId": 2366,
        "contract": "contracts/Parameters/ParameterManager.sol:ParameterManager",
        "label": "_initialized",
        "offset": 0,
        "slot": "0",
        "type": "t_uint8"
      },
      {
        "astId": 2369,
        "contract": "contracts/Parameters/ParameterManager.sol:ParameterManager",
        "label": "_initializing",
        "offset": 1,
        "slot": "0",
        "type": "t_bool"
      },
      {
        "astId": 9694,
        "contract": "contracts/Parameters/ParameterManager.sol:ParameterManager",
        "label": "addressManager",
        "offset": 2,
        "slot": "0",
        "type": "t_contract(IAddressManager)8538"
      },
      {
        "astId": 9698,
        "contract": "contracts/Parameters/ParameterManager.sol:ParameterManager",
        "label": "paymentToken",
        "offset": 0,
        "slot": "1",
        "type": "t_contract(IERC20Upgradeable)4806"
      },
      {
        "astId": 9701,
        "contract": "contracts/Parameters/ParameterManager.sol:ParameterManager",
        "label": "reactionPrice",
        "offset": 0,
        "slot": "2",
        "type": "t_uint256"
      },
      {
        "astId": 9704,
        "contract": "contracts/Parameters/ParameterManager.sol:ParameterManager",
        "label": "saleCuratorLiabilityBasisPoints",
        "offset": 0,
        "slot": "3",
        "type": "t_uint256"
      },
      {
        "astId": 9707,
        "contract": "contracts/Parameters/ParameterManager.sol:ParameterManager",
        "label": "saleReferrerBasisPoints",
        "offset": 0,
        "slot": "4",
        "type": "t_uint256"
      },
      {
        "astId": 9710,
        "contract": "contracts/Parameters/ParameterManager.sol:ParameterManager",
        "label": "spendTakerBasisPoints",
        "offset": 0,
        "slot": "5",
        "type": "t_uint256"
      },
      {
        "astId": 9713,
        "contract": "contracts/Parameters/ParameterManager.sol:ParameterManager",
        "label": "spendReferrerBasisPoints",
        "offset": 0,
        "slot": "6",
        "type": "t_uint256"
      },
      {
        "astId": 9718,
        "contract": "contracts/Parameters/ParameterManager.sol:ParameterManager",
        "label": "approvedCuratorVaults",
        "offset": 0,
        "slot": "7",
        "type": "t_mapping(t_address,t_bool)"
      }
    ],
    "types": {
      "t_address": {
        "encoding": "inplace",
        "label": "address",
        "numberOfBytes": "20"
      },
      "t_bool": {
        "encoding": "inplace",
        "label": "bool",
        "numberOfBytes": "1"
      },
      "t_contract(IAddressManager)8538": {
        "encoding": "inplace",
        "label": "contract IAddressManager",
        "numberOfBytes": "20"
      },
      "t_contract(IERC20Upgradeable)4806": {
        "encoding": "inplace",
        "label": "contract IERC20Upgradeable",
        "numberOfBytes": "20"
      },
      "t_mapping(t_address,t_bool)": {
        "encoding": "mapping",
        "key": "t_address",
        "label": "mapping(address => bool)",
        "numberOfBytes": "32",
        "value": "t_bool"
      },
      "t_uint256": {
        "encoding": "inplace",
        "label": "uint256",
        "numberOfBytes": "32"
      },
      "t_uint8": {
        "encoding": "inplace",
        "label": "uint8",
        "numberOfBytes": "1"
      }
    }
  }
}