{
  "address": "0xE144020f972476DFe936dDB84E8bb75D959f36d8",
  "abi": [
    {
      "anonymous": false,
      "inputs": [
        {
          "indexed": false,
          "internalType": "address",
          "name": "vault",
          "type": "address"
        },
        {
          "indexed": false,
          "internalType": "bool",
          "name": "approved",
          "type": "bool"
        }
      ],
      "name": "ApprovedCuratorVaultsUpdated",
      "type": "event"
    },
    {
      "anonymous": false,
      "inputs": [
        {
          "indexed": false,
          "internalType": "uint256",
          "name": "reactionLimit",
          "type": "uint256"
        }
      ],
      "name": "FreeReactionLimitUpdated",
      "type": "event"
    },
    {
      "anonymous": false,
      "inputs": [
        {
          "indexed": false,
          "internalType": "uint8",
          "name": "version",
          "type": "uint8"
        }
      ],
      "name": "Initialized",
      "type": "event"
    },
    {
      "anonymous": false,
      "inputs": [
        {
          "indexed": false,
          "internalType": "contract IERC20Upgradeable",
          "name": "newValue",
          "type": "address"
        }
      ],
      "name": "NativeWrappedTokenUpdated",
      "type": "event"
    },
    {
      "anonymous": false,
      "inputs": [
        {
          "indexed": false,
          "internalType": "contract IWMATIC",
          "name": "newValue",
          "type": "address"
        }
      ],
      "name": "PaymentTokenUpdated",
      "type": "event"
    },
    {
      "anonymous": false,
      "inputs": [
        {
          "indexed": false,
          "internalType": "uint256",
          "name": "newValue",
          "type": "uint256"
        }
      ],
      "name": "ReactionPriceUpdated",
      "type": "event"
    },
    {
      "anonymous": false,
      "inputs": [
        {
          "indexed": false,
          "internalType": "uint256",
          "name": "newValue",
          "type": "uint256"
        }
      ],
      "name": "SaleCuratorLiabilityBasisPointsUpdated",
      "type": "event"
    },
    {
      "anonymous": false,
      "inputs": [
        {
          "indexed": false,
          "internalType": "uint256",
          "name": "newValue",
          "type": "uint256"
        }
      ],
      "name": "SaleReferrerBasisPointsUpdated",
      "type": "event"
    },
    {
      "anonymous": false,
      "inputs": [
        {
          "indexed": false,
          "internalType": "address",
          "name": "signer",
          "type": "address"
        },
        {
          "indexed": false,
          "internalType": "uint256",
          "name": "newNonce",
          "type": "uint256"
        }
      ],
      "name": "SignatureNonceUpdated",
      "type": "event"
    },
    {
      "anonymous": false,
      "inputs": [
        {
          "indexed": false,
          "internalType": "uint256",
          "name": "newValue",
          "type": "uint256"
        }
      ],
      "name": "SpendReferrerBasisPointsUpdated",
      "type": "event"
    },
    {
      "anonymous": false,
      "inputs": [
        {
          "indexed": false,
          "internalType": "uint256",
          "name": "newValue",
          "type": "uint256"
        }
      ],
      "name": "SpendTakerBasisPointsUpdated",
      "type": "event"
    },
    {
      "inputs": [],
      "name": "addressManager",
      "outputs": [
        {
          "internalType": "contract IAddressManager",
          "name": "",
          "type": "address"
        }
      ],
      "stateMutability": "view",
      "type": "function"
    },
    {
      "inputs": [
        {
          "internalType": "address",
          "name": "",
          "type": "address"
        }
      ],
      "name": "approvedCuratorVaults",
      "outputs": [
        {
          "internalType": "bool",
          "name": "",
          "type": "bool"
        }
      ],
      "stateMutability": "view",
      "type": "function"
    },
    {
      "inputs": [],
      "name": "freeReactionLimit",
      "outputs": [
        {
          "internalType": "uint256",
          "name": "",
          "type": "uint256"
        }
      ],
      "stateMutability": "view",
      "type": "function"
    },
    {
      "inputs": [
        {
          "internalType": "address",
          "name": "signer",
          "type": "address"
        }
      ],
      "name": "incSigNonceFor",
      "outputs": [
        {
          "internalType": "uint256",
          "name": "nonce",
          "type": "uint256"
        }
      ],
      "stateMutability": "nonpayable",
      "type": "function"
    },
    {
      "inputs": [
        {
          "internalType": "contract IAddressManager",
          "name": "_addressManager",
          "type": "address"
        }
      ],
      "name": "initialize",
      "outputs": [],
      "stateMutability": "nonpayable",
      "type": "function"
    },
    {
      "inputs": [],
      "name": "nativeWrappedToken",
      "outputs": [
        {
          "internalType": "contract IERC20Upgradeable",
          "name": "",
          "type": "address"
        }
      ],
      "stateMutability": "view",
      "type": "function"
    },
    {
      "inputs": [],
      "name": "paymentToken",
      "outputs": [
        {
          "internalType": "contract IWMATIC",
          "name": "",
          "type": "address"
        }
      ],
      "stateMutability": "view",
      "type": "function"
    },
    {
      "inputs": [],
      "name": "reactionPrice",
      "outputs": [
        {
          "internalType": "uint256",
          "name": "",
          "type": "uint256"
        }
      ],
      "stateMutability": "view",
      "type": "function"
    },
    {
      "inputs": [],
      "name": "saleCuratorLiabilityBasisPoints",
      "outputs": [
        {
          "internalType": "uint256",
          "name": "",
          "type": "uint256"
        }
      ],
      "stateMutability": "view",
      "type": "function"
    },
    {
      "inputs": [],
      "name": "saleReferrerBasisPoints",
      "outputs": [
        {
          "internalType": "uint256",
          "name": "",
          "type": "uint256"
        }
      ],
      "stateMutability": "view",
      "type": "function"
    },
    {
      "inputs": [
        {
          "internalType": "address",
          "name": "vault",
          "type": "address"
        },
        {
          "internalType": "bool",
          "name": "approved",
          "type": "bool"
        }
      ],
      "name": "setApprovedCuratorVaults",
      "outputs": [],
      "stateMutability": "nonpayable",
      "type": "function"
    },
    {
      "inputs": [
        {
          "internalType": "uint256",
          "name": "_reactionLimit",
          "type": "uint256"
        }
      ],
      "name": "setFreeReactionLimit",
      "outputs": [],
      "stateMutability": "nonpayable",
      "type": "function"
    },
    {
      "inputs": [
        {
          "internalType": "contract IERC20Upgradeable",
          "name": "_nativeWrappedToken",
          "type": "address"
        }
      ],
      "name": "setNativeWrappedToken",
      "outputs": [],
      "stateMutability": "nonpayable",
      "type": "function"
    },
    {
      "inputs": [
        {
          "internalType": "contract IWMATIC",
          "name": "_paymentToken",
          "type": "address"
        }
      ],
      "name": "setPaymentToken",
      "outputs": [],
      "stateMutability": "nonpayable",
      "type": "function"
    },
    {
      "inputs": [
        {
          "internalType": "uint256",
          "name": "_reactionPrice",
          "type": "uint256"
        }
      ],
      "name": "setReactionPrice",
      "outputs": [],
      "stateMutability": "nonpayable",
      "type": "function"
    },
    {
      "inputs": [
        {
          "internalType": "uint256",
          "name": "_saleCuratorLiabilityBasisPoints",
          "type": "uint256"
        }
      ],
      "name": "setSaleCuratorLiabilityBasisPoints",
      "outputs": [],
      "stateMutability": "nonpayable",
      "type": "function"
    },
    {
      "inputs": [
        {
          "internalType": "uint256",
          "name": "_saleReferrerBasisPoints",
          "type": "uint256"
        }
      ],
      "name": "setSaleReferrerBasisPoints",
      "outputs": [],
      "stateMutability": "nonpayable",
      "type": "function"
    },
    {
      "inputs": [
        {
          "internalType": "uint256",
          "name": "_spendReferrerBasisPoints",
          "type": "uint256"
        }
      ],
      "name": "setSpendReferrerBasisPoints",
      "outputs": [],
      "stateMutability": "nonpayable",
      "type": "function"
    },
    {
      "inputs": [
        {
          "internalType": "uint256",
          "name": "_spendTakerBasisPoints",
          "type": "uint256"
        }
      ],
      "name": "setSpendTakerBasisPoints",
      "outputs": [],
      "stateMutability": "nonpayable",
      "type": "function"
    },
    {
      "inputs": [
        {
          "internalType": "address",
          "name": "",
          "type": "address"
        }
      ],
      "name": "sigNonces",
      "outputs": [
        {
          "internalType": "uint256",
          "name": "",
          "type": "uint256"
        }
      ],
      "stateMutability": "view",
      "type": "function"
    },
    {
      "inputs": [],
      "name": "spendReferrerBasisPoints",
      "outputs": [
        {
          "internalType": "uint256",
          "name": "",
          "type": "uint256"
        }
      ],
      "stateMutability": "view",
      "type": "function"
    },
    {
      "inputs": [],
      "name": "spendTakerBasisPoints",
      "outputs": [
        {
          "internalType": "uint256",
          "name": "",
          "type": "uint256"
        }
      ],
      "stateMutability": "view",
      "type": "function"
    }
  ],
  "transactionHash": "0x081a27986a2be24cb86b815de7e38498bd82c159a943afc3a91fd423a98be0ff",
  "args": [],
  "numDeployments": 4,
  "solcInputHash": "b84b00b90490290595acf2b30cb1ae9d",
  "bytecode": "0x608060405234801561001057600080fd5b50611791806100206000396000f3fe608060405234801561001057600080fd5b50600436106101415760003560e01c8063c4d66de8116100b8578063e4301ec51161007c578063e4301ec514610296578063f467320e146102a9578063f93c0d79146102b2578063f990ccd7146102bb578063f9911c73146102db578063fbc8cc58146102ee57600080fd5b8063c4d66de814610241578063c9fac01c14610254578063cc22c3e214610267578063dafe4f9a14610270578063e15a8ce81461028357600080fd5b80635ddb0cf21161010a5780635ddb0cf2146101b9578063655f28c1146101c2578063690dafaf146101d55780636a326ab1146101e857806373cf2a67146101fb578063bfa53ada1461022e57600080fd5b8062ac1c5a146101465780630ba9ced0146101625780633013ce291461016b5780633ab76e9f1461018b5780635b3c42ff146101a4575b600080fd5b61014f60055481565b6040519081526020015b60405180910390f35b61014f60095481565b60015461017e906001600160a01b031681565b60405161015991906115af565b60005461017e906201000090046001600160a01b031681565b6101b76101b23660046115c3565b610301565b005b61014f60025481565b6101b76101d03660046115c3565b6104cb565b6101b76101e3366004611602565b610663565b6101b76101f636600461163b565b610833565b61021e61020936600461163b565b60076020526000908152604090205460ff1681565b6040519015158152602001610159565b6101b761023c3660046115c3565b6109ea565b6101b761024f36600461163b565b610b82565b61014f61026236600461163b565b610cf8565b61014f60065481565b6101b761027e3660046115c3565b610eca565b6101b76102913660046115c3565b611084565b60085461017e906001600160a01b031681565b61014f60045481565b61014f60035481565b61014f6102c936600461163b565b600a6020526000908152604090205481565b6101b76102e936600461163b565b61123e565b6101b76102fc3660046115c3565b6113f5565b600060029054906101000a90046001600160a01b03166001600160a01b031662435da56040518163ffffffff1660e01b8152600401602060405180830381600087803b15801561035057600080fd5b505af1158015610364573d6000803e3d6000fd5b505050506040513d601f19601f82011682018060405250810190610388919061165f565b6001600160a01b0316636d993046336040518263ffffffff1660e01b81526004016103b391906115af565b60206040518083038186803b1580156103cb57600080fd5b505afa1580156103df573d6000803e3d6000fd5b505050506040513d601f19601f82011682018060405250810190610403919061167c565b6104285760405162461bcd60e51b815260040161041f90611699565b60405180910390fd5b60408051808201909152600f81526e125b9d985b1a59080c081a5b9c1d5d608a1b60208201528161046c5760405162461bcd60e51b815260040161041f91906116bc565b5061271081111561048f5760405162461bcd60e51b815260040161041f90611711565b60058190556040518181527f8675d4b071dd3bb74a333fda8ae022c69bab50eeafbf1ae61cbffc73f052ab02906020015b60405180910390a150565b600060029054906101000a90046001600160a01b03166001600160a01b031662435da56040518163ffffffff1660e01b8152600401602060405180830381600087803b15801561051a57600080fd5b505af115801561052e573d6000803e3d6000fd5b505050506040513d601f19601f82011682018060405250810190610552919061165f565b6001600160a01b0316636d993046336040518263ffffffff1660e01b815260040161057d91906115af565b60206040518083038186803b15801561059557600080fd5b505afa1580156105a9573d6000803e3d6000fd5b505050506040513d601f19601f820116820180604052508101906105cd919061167c565b6105e95760405162461bcd60e51b815260040161041f90611699565b60408051808201909152600f81526e125b9d985b1a59080c081a5b9c1d5d608a1b60208201528161062d5760405162461bcd60e51b815260040161041f91906116bc565b5060028190556040518181527f1efb1db4037f964fdb0d9ce83125a4e3f84d55efaf654830ed8d034c30ad25dc906020016104c0565b600060029054906101000a90046001600160a01b03166001600160a01b031662435da56040518163ffffffff1660e01b8152600401602060405180830381600087803b1580156106b257600080fd5b505af11580156106c6573d6000803e3d6000fd5b505050506040513d601f19601f820116820180604052508101906106ea919061165f565b6001600160a01b0316636d993046336040518263ffffffff1660e01b815260040161071591906115af565b60206040518083038186803b15801561072d57600080fd5b505afa158015610741573d6000803e3d6000fd5b505050506040513d601f19601f82011682018060405250810190610765919061167c565b6107815760405162461bcd60e51b815260040161041f90611699565b60408051808201909152600f81526e125b9d985b1a59080c081a5b9c1d5d608a1b60208201526001600160a01b0383166107ce5760405162461bcd60e51b815260040161041f91906116bc565b506001600160a01b038216600081815260076020908152604091829020805460ff19168515159081179091558251938452908301527f69dbdf6bdc042e90cff52a0317d54ee5ffb99ed454145bedb5f0967f948e2d4091015b60405180910390a15050565b600060029054906101000a90046001600160a01b03166001600160a01b031662435da56040518163ffffffff1660e01b8152600401602060405180830381600087803b15801561088257600080fd5b505af1158015610896573d6000803e3d6000fd5b505050506040513d601f19601f820116820180604052508101906108ba919061165f565b6001600160a01b0316636d993046336040518263ffffffff1660e01b81526004016108e591906115af565b60206040518083038186803b1580156108fd57600080fd5b505afa158015610911573d6000803e3d6000fd5b505050506040513d601f19601f82011682018060405250810190610935919061167c565b6109515760405162461bcd60e51b815260040161041f90611699565b60408051808201909152600f81526e125b9d985b1a59080c081a5b9c1d5d608a1b60208201526001600160a01b03821661099e5760405162461bcd60e51b815260040161041f91906116bc565b50600180546001600160a01b0319166001600160a01b0383161790556040517fbd4032c1c91da2791730ea1bbc82c6b6f857da7c0a8318143d19ef74e62cd913906104c09083906115af565b600060029054906101000a90046001600160a01b03166001600160a01b031662435da56040518163ffffffff1660e01b8152600401602060405180830381600087803b158015610a3957600080fd5b505af1158015610a4d573d6000803e3d6000fd5b505050506040513d601f19601f82011682018060405250810190610a71919061165f565b6001600160a01b0316636d993046336040518263ffffffff1660e01b8152600401610a9c91906115af565b60206040518083038186803b158015610ab457600080fd5b505afa158015610ac8573d6000803e3d6000fd5b505050506040513d601f19601f82011682018060405250810190610aec919061167c565b610b085760405162461bcd60e51b815260040161041f90611699565b60408051808201909152600f81526e125b9d985b1a59080c081a5b9c1d5d608a1b602082015281610b4c5760405162461bcd60e51b815260040161041f91906116bc565b5060098190556040518181527fce5c5f3d530cb7e178242c6d0339af2741497ab1d0d5a84a7bab48b5c590a6b0906020016104c0565b600054610100900460ff1615808015610ba25750600054600160ff909116105b80610bbc5750303b158015610bbc575060005460ff166001145b610c1f5760405162461bcd60e51b815260206004820152602e60248201527f496e697469616c697a61626c653a20636f6e747261637420697320616c72656160448201526d191e481a5b9a5d1a585b1a5e995960921b606482015260840161041f565b6000805460ff191660011790558015610c42576000805461ff0019166101001790555b60408051808201909152600f81526e125b9d985b1a59080c081a5b9c1d5d608a1b60208201526001600160a01b038316610c8f5760405162461bcd60e51b815260040161041f91906116bc565b506000805462010000600160b01b031916620100006001600160a01b038516021790558015610cf4576000805461ff0019169055604051600181527f7f26b83ff96e1f2b6a682f133852f6798a09c465da95921460cefb384740249890602001610827565b5050565b60008060029054906101000a90046001600160a01b03166001600160a01b031662435da56040518163ffffffff1660e01b8152600401602060405180830381600087803b158015610d4857600080fd5b505af1158015610d5c573d6000803e3d6000fd5b505050506040513d601f19601f82011682018060405250810190610d80919061165f565b6001600160a01b0316639aeb7fae336040518263ffffffff1660e01b8152600401610dab91906115af565b60206040518083038186803b158015610dc357600080fd5b505afa158015610dd7573d6000803e3d6000fd5b505050506040513d601f19601f82011682018060405250810190610dfb919061167c565b610e475760405162461bcd60e51b815260206004820152601b60248201527f4e6f74207369676e6174757265206e6f6e636520757064617465720000000000604482015260640161041f565b506001600160a01b0381166000908152600a602052604081205490610e6d826001611735565b6001600160a01b0384166000818152600a6020908152604091829020849055815192835282018390529192507fe3a37128c09b4d45c84765acff94a4e940a081f69cf95882dd0e7f2b0e57fe7c910160405180910390a150919050565b600060029054906101000a90046001600160a01b03166001600160a01b031662435da56040518163ffffffff1660e01b8152600401602060405180830381600087803b158015610f1957600080fd5b505af1158015610f2d573d6000803e3d6000fd5b505050506040513d601f19601f82011682018060405250810190610f51919061165f565b6001600160a01b0316636d993046336040518263ffffffff1660e01b8152600401610f7c91906115af565b60206040518083038186803b158015610f9457600080fd5b505afa158015610fa8573d6000803e3d6000fd5b505050506040513d601f19601f82011682018060405250810190610fcc919061167c565b610fe85760405162461bcd60e51b815260040161041f90611699565b60408051808201909152600f81526e125b9d985b1a59080c081a5b9c1d5d608a1b60208201528161102c5760405162461bcd60e51b815260040161041f91906116bc565b5061271081111561104f5760405162461bcd60e51b815260040161041f90611711565b60048190556040518181527f7b568aa985a32d076146f32f69e22aadf408b8f76c3a2f4ee694228afc2cc827906020016104c0565b600060029054906101000a90046001600160a01b03166001600160a01b031662435da56040518163ffffffff1660e01b8152600401602060405180830381600087803b1580156110d357600080fd5b505af11580156110e7573d6000803e3d6000fd5b505050506040513d601f19601f8201168201806040525081019061110b919061165f565b6001600160a01b0316636d993046336040518263ffffffff1660e01b815260040161113691906115af565b60206040518083038186803b15801561114e57600080fd5b505afa158015611162573d6000803e3d6000fd5b505050506040513d601f19601f82011682018060405250810190611186919061167c565b6111a25760405162461bcd60e51b815260040161041f90611699565b60408051808201909152600f81526e125b9d985b1a59080c081a5b9c1d5d608a1b6020820152816111e65760405162461bcd60e51b815260040161041f91906116bc565b506127108111156112095760405162461bcd60e51b815260040161041f90611711565b60038190556040518181527fab8f93c67b0c7463f6f99579fa9b11ae2cb0de74594b6562724ab1ddecddaeb2906020016104c0565b600060029054906101000a90046001600160a01b03166001600160a01b031662435da56040518163ffffffff1660e01b8152600401602060405180830381600087803b15801561128d57600080fd5b505af11580156112a1573d6000803e3d6000fd5b505050506040513d601f19601f820116820180604052508101906112c5919061165f565b6001600160a01b0316636d993046336040518263ffffffff1660e01b81526004016112f091906115af565b60206040518083038186803b15801561130857600080fd5b505afa15801561131c573d6000803e3d6000fd5b505050506040513d601f19601f82011682018060405250810190611340919061167c565b61135c5760405162461bcd60e51b815260040161041f90611699565b60408051808201909152600f81526e125b9d985b1a59080c081a5b9c1d5d608a1b60208201526001600160a01b0382166113a95760405162461bcd60e51b815260040161041f91906116bc565b50600880546001600160a01b0319166001600160a01b0383161790556040517fb76854c9a4a92dc33c696090a8a86f40eed75f651baa9531b9b68e59f4d4001b906104c09083906115af565b600060029054906101000a90046001600160a01b03166001600160a01b031662435da56040518163ffffffff1660e01b8152600401602060405180830381600087803b15801561144457600080fd5b505af1158015611458573d6000803e3d6000fd5b505050506040513d601f19601f8201168201806040525081019061147c919061165f565b6001600160a01b0316636d993046336040518263ffffffff1660e01b81526004016114a791906115af565b60206040518083038186803b1580156114bf57600080fd5b505afa1580156114d3573d6000803e3d6000fd5b505050506040513d601f19601f820116820180604052508101906114f7919061167c565b6115135760405162461bcd60e51b815260040161041f90611699565b60408051808201909152600f81526e125b9d985b1a59080c081a5b9c1d5d608a1b6020820152816115575760405162461bcd60e51b815260040161041f91906116bc565b5061271081111561157a5760405162461bcd60e51b815260040161041f90611711565b60068190556040518181527f5286e9f4ccb1f31b46dce4870d04977bb0cf83b6c79d0ba3d5cc760bc5902a70906020016104c0565b6001600160a01b0391909116815260200190565b6000602082840312156115d557600080fd5b5035919050565b6001600160a01b03811681146115f157600080fd5b50565b80151581146115f157600080fd5b6000806040838503121561161557600080fd5b8235611620816115dc565b91506020830135611630816115f4565b809150509250929050565b60006020828403121561164d57600080fd5b8135611658816115dc565b9392505050565b60006020828403121561167157600080fd5b8151611658816115dc565b60006020828403121561168e57600080fd5b8151611658816115f4565b6020808252600990820152682737ba1020b236b4b760b91b604082015260600190565b600060208083528351808285015260005b818110156116e9578581018301518582016040015282016116cd565b818111156116fb576000604083870101525b50601f01601f1916929092016040019392505050565b6020808252600a90820152690496e76616c69642062760b41b604082015260600190565b6000821982111561175657634e487b7160e01b600052601160045260246000fd5b50019056fea264697066735822122065b1fdcbd64bc6445a88e59ec28837b2db6e242df7de76067f2ac45be425fcf764736f6c63430008090033",
  "devdoc": {
    "details": "Note: This contract is protected via a permissioned account set in the role manager.  Caution should be used as the role owner could renounce the role leaving all future actions disabled.  Additionally, if a malicious account was able to obtain the role, they could use it to set values to malicious values. See the public documentation website for more details.",
    "events": {
      "PaymentTokenUpdated(address)": {
        "details": "Events emitted on updates"
      }
    },
    "kind": "dev",
    "methods": {
      "incSigNonceFor(address)": {
        "details": "Incrementer for an account's current EIP-712 signature nonce"
      },
      "initialize(address)": {
        "details": "initializer to call after deployment, can only be called once"
      },
      "setApprovedCuratorVaults(address,bool)": {
        "details": "Setter for the list of curator vaults allowed to be used"
      },
      "setFreeReactionLimit(uint256)": {
        "details": "Setter for the amount of reactions allowed per free reaction"
      },
      "setNativeWrappedToken(address)": {
        "details": "Setter for the native wrapped ERC20 token (e.g. WMATIC)"
      },
      "setPaymentToken(address)": {
        "details": "Setter for the payment token"
      },
      "setReactionPrice(uint256)": {
        "details": "Setter for the reaction price"
      },
      "setSaleCuratorLiabilityBasisPoints(uint256)": {
        "details": "Setter for the reaction price"
      },
      "setSaleReferrerBasisPoints(uint256)": {
        "details": "Setter for the reaction price"
      },
      "setSpendReferrerBasisPoints(uint256)": {
        "details": "Setter for the spend referrer basis points"
      },
      "setSpendTakerBasisPoints(uint256)": {
        "details": "Setter for the spend taker basis points"
      }
    },
    "version": 1
  },
  "userdoc": {
    "kind": "user",
    "methods": {},
    "version": 1
  },
  "storageLayout": {
    "storage": [
      {
        "astId": 2446,
        "contract": "contracts/Parameters/ParameterManager.sol:ParameterManager",
        "label": "_initialized",
        "offset": 0,
        "slot": "0",
        "type": "t_uint8"
      },
      {
        "astId": 2449,
        "contract": "contracts/Parameters/ParameterManager.sol:ParameterManager",
        "label": "_initializing",
        "offset": 1,
        "slot": "0",
        "type": "t_bool"
      },
      {
        "astId": 13045,
        "contract": "contracts/Parameters/ParameterManager.sol:ParameterManager",
        "label": "addressManager",
        "offset": 2,
        "slot": "0",
        "type": "t_contract(IAddressManager)8719"
      },
      {
        "astId": 13049,
        "contract": "contracts/Parameters/ParameterManager.sol:ParameterManager",
        "label": "paymentToken",
        "offset": 0,
        "slot": "1",
        "type": "t_contract(IWMATIC)16140"
      },
      {
        "astId": 13052,
        "contract": "contracts/Parameters/ParameterManager.sol:ParameterManager",
        "label": "reactionPrice",
        "offset": 0,
        "slot": "2",
        "type": "t_uint256"
      },
      {
        "astId": 13055,
        "contract": "contracts/Parameters/ParameterManager.sol:ParameterManager",
        "label": "saleCuratorLiabilityBasisPoints",
        "offset": 0,
        "slot": "3",
        "type": "t_uint256"
      },
      {
        "astId": 13058,
        "contract": "contracts/Parameters/ParameterManager.sol:ParameterManager",
        "label": "saleReferrerBasisPoints",
        "offset": 0,
        "slot": "4",
        "type": "t_uint256"
      },
      {
        "astId": 13061,
        "contract": "contracts/Parameters/ParameterManager.sol:ParameterManager",
        "label": "spendTakerBasisPoints",
        "offset": 0,
        "slot": "5",
        "type": "t_uint256"
      },
      {
        "astId": 13064,
        "contract": "contracts/Parameters/ParameterManager.sol:ParameterManager",
        "label": "spendReferrerBasisPoints",
        "offset": 0,
        "slot": "6",
        "type": "t_uint256"
      },
      {
        "astId": 13069,
        "contract": "contracts/Parameters/ParameterManager.sol:ParameterManager",
        "label": "approvedCuratorVaults",
        "offset": 0,
        "slot": "7",
        "type": "t_mapping(t_address,t_bool)"
      },
      {
        "astId": 13076,
        "contract": "contracts/Parameters/ParameterManager.sol:ParameterManager",
        "label": "nativeWrappedToken",
        "offset": 0,
        "slot": "8",
        "type": "t_contract(IERC20Upgradeable)4886"
      },
      {
        "astId": 13079,
        "contract": "contracts/Parameters/ParameterManager.sol:ParameterManager",
        "label": "freeReactionLimit",
        "offset": 0,
        "slot": "9",
        "type": "t_uint256"
      },
      {
        "astId": 13087,
        "contract": "contracts/Parameters/ParameterManager.sol:ParameterManager",
        "label": "sigNonces",
        "offset": 0,
        "slot": "10",
        "type": "t_mapping(t_address,t_uint256)"
      }
    ],
    "types": {
      "t_address": {
        "encoding": "inplace",
        "label": "address",
        "numberOfBytes": "20"
      },
      "t_bool": {
        "encoding": "inplace",
        "label": "bool",
        "numberOfBytes": "1"
      },
      "t_contract(IAddressManager)8719": {
        "encoding": "inplace",
        "label": "contract IAddressManager",
        "numberOfBytes": "20"
      },
      "t_contract(IERC20Upgradeable)4886": {
        "encoding": "inplace",
        "label": "contract IERC20Upgradeable",
        "numberOfBytes": "20"
      },
      "t_contract(IWMATIC)16140": {
        "encoding": "inplace",
        "label": "contract IWMATIC",
        "numberOfBytes": "20"
      },
      "t_mapping(t_address,t_bool)": {
        "encoding": "mapping",
        "key": "t_address",
        "label": "mapping(address => bool)",
        "numberOfBytes": "32",
        "value": "t_bool"
      },
      "t_mapping(t_address,t_uint256)": {
        "encoding": "mapping",
        "key": "t_address",
        "label": "mapping(address => uint256)",
        "numberOfBytes": "32",
        "value": "t_uint256"
      },
      "t_uint256": {
        "encoding": "inplace",
        "label": "uint256",
        "numberOfBytes": "32"
      },
      "t_uint8": {
        "encoding": "inplace",
        "label": "uint8",
        "numberOfBytes": "1"
      }
    }
  }
}