{
  "address": "0xA47c49884025ac35A24Fb2689484Dc08367F0429",
  "abi": [
    {
      "inputs": [],
      "name": "addressManager",
      "outputs": [
        {
          "internalType": "contract IAddressManager",
          "name": "",
          "type": "address"
        }
      ],
      "stateMutability": "view",
      "type": "function"
    },
    {
      "inputs": [
        {
          "internalType": "address",
          "name": "",
          "type": "address"
        }
      ],
      "name": "approvedCuratorVaults",
      "outputs": [
        {
          "internalType": "bool",
          "name": "",
          "type": "bool"
        }
      ],
      "stateMutability": "view",
      "type": "function"
    },
    {
      "inputs": [],
      "name": "bondingCurveParams",
      "outputs": [
        {
          "internalType": "uint256",
          "name": "a",
          "type": "uint256"
        },
        {
          "internalType": "uint256",
          "name": "b",
          "type": "uint256"
        },
        {
          "internalType": "uint256",
          "name": "c",
          "type": "uint256"
        }
      ],
      "stateMutability": "view",
      "type": "function"
    },
    {
      "inputs": [
        {
          "internalType": "contract IAddressManager",
          "name": "_addressManager",
          "type": "address"
        }
      ],
      "name": "initialize",
      "outputs": [],
      "stateMutability": "nonpayable",
      "type": "function"
    },
    {
      "inputs": [],
      "name": "paymentToken",
      "outputs": [
        {
          "internalType": "contract IERC20Upgradeable",
          "name": "",
          "type": "address"
        }
      ],
      "stateMutability": "view",
      "type": "function"
    },
    {
      "inputs": [],
      "name": "reactionPrice",
      "outputs": [
        {
          "internalType": "uint256",
          "name": "",
          "type": "uint256"
        }
      ],
      "stateMutability": "view",
      "type": "function"
    },
    {
      "inputs": [],
      "name": "saleCuratorLiabilityBasisPoints",
      "outputs": [
        {
          "internalType": "uint256",
          "name": "",
          "type": "uint256"
        }
      ],
      "stateMutability": "view",
      "type": "function"
    },
    {
      "inputs": [],
      "name": "saleReferrerBasisPoints",
      "outputs": [
        {
          "internalType": "uint256",
          "name": "",
          "type": "uint256"
        }
      ],
      "stateMutability": "view",
      "type": "function"
    },
    {
      "inputs": [
        {
          "internalType": "address",
          "name": "vault",
          "type": "address"
        },
        {
          "internalType": "bool",
          "name": "approved",
          "type": "bool"
        }
      ],
      "name": "setApprovedCuratorVaults",
      "outputs": [],
      "stateMutability": "nonpayable",
      "type": "function"
    },
    {
      "inputs": [
        {
          "internalType": "uint256",
          "name": "a",
          "type": "uint256"
        },
        {
          "internalType": "uint256",
          "name": "b",
          "type": "uint256"
        },
        {
          "internalType": "uint256",
          "name": "c",
          "type": "uint256"
        }
      ],
      "name": "setBondingCurveParams",
      "outputs": [],
      "stateMutability": "nonpayable",
      "type": "function"
    },
    {
      "inputs": [
        {
          "internalType": "contract IERC20Upgradeable",
          "name": "_paymentToken",
          "type": "address"
        }
      ],
      "name": "setPaymentToken",
      "outputs": [],
      "stateMutability": "nonpayable",
      "type": "function"
    },
    {
      "inputs": [
        {
          "internalType": "uint256",
          "name": "_reactionPrice",
          "type": "uint256"
        }
      ],
      "name": "setReactionPrice",
      "outputs": [],
      "stateMutability": "nonpayable",
      "type": "function"
    },
    {
      "inputs": [
        {
          "internalType": "uint256",
          "name": "_saleCuratorLiabilityBasisPoints",
          "type": "uint256"
        }
      ],
      "name": "setSaleCuratorLiabilityBasisPoints",
      "outputs": [],
      "stateMutability": "nonpayable",
      "type": "function"
    },
    {
      "inputs": [
        {
          "internalType": "uint256",
          "name": "_saleReferrerBasisPoints",
          "type": "uint256"
        }
      ],
      "name": "setSaleReferrerBasisPoints",
      "outputs": [],
      "stateMutability": "nonpayable",
      "type": "function"
    },
    {
      "inputs": [
        {
          "internalType": "uint256",
          "name": "_spendReferrerBasisPoints",
          "type": "uint256"
        }
      ],
      "name": "setSpendReferrerBasisPoints",
      "outputs": [],
      "stateMutability": "nonpayable",
      "type": "function"
    },
    {
      "inputs": [
        {
          "internalType": "uint256",
          "name": "_spendTakerBasisPoints",
          "type": "uint256"
        }
      ],
      "name": "setSpendTakerBasisPoints",
      "outputs": [],
      "stateMutability": "nonpayable",
      "type": "function"
    },
    {
      "inputs": [],
      "name": "spendReferrerBasisPoints",
      "outputs": [
        {
          "internalType": "uint256",
          "name": "",
          "type": "uint256"
        }
      ],
      "stateMutability": "view",
      "type": "function"
    },
    {
      "inputs": [],
      "name": "spendTakerBasisPoints",
      "outputs": [
        {
          "internalType": "uint256",
          "name": "",
          "type": "uint256"
        }
      ],
      "stateMutability": "view",
      "type": "function"
    }
  ],
  "transactionHash": "0xbe081ab36e72cc3e4ed970e03a012392a97be9d0f67d9818f08f222b30d5ea62",
  "args": [],
  "numDeployments": 1,
  "solcInputHash": "98ed655dfe93b2144762bf03a912e3f6",
  "bytecode": "0x608060405234801561001057600080fd5b50611c7a806100206000396000f3fe608060405234801561001057600080fd5b50600436106101155760003560e01c806373cf2a67116100a2578063dafe4f9a11610071578063dafe4f9a146102a8578063e15a8ce8146102c4578063f467320e146102e0578063f93c0d79146102fe578063fbc8cc581461031c57610115565b806373cf2a671461021e578063c03ac3ea1461024e578063c4d66de81461026e578063cc22c3e21461028a57610115565b80635b3c42ff116100e95780635b3c42ff146101905780635ddb0cf2146101ac578063655f28c1146101ca578063690dafaf146101e65780636a326ab11461020257610115565b8062ac1c5a1461011a57806305ce6b49146101385780633013ce29146101545780633ab76e9f14610172575b600080fd5b610122610338565b60405161012f91906115f8565b60405180910390f35b610152600480360381019061014d9190611644565b61033e565b005b61015c61057d565b6040516101699190611716565b60405180910390f35b61017a6105a3565b6040516101879190611752565b60405180910390f35b6101aa60048036038101906101a5919061176d565b6105c9565b005b6101b46107b8565b6040516101c191906115f8565b60405180910390f35b6101e460048036038101906101df919061176d565b6107be565b005b61020060048036038101906101fb9190611810565b6109ad565b005b61021c6004803603810190610217919061188e565b610c19565b005b610238600480360381019061023391906118bb565b610e6e565b60405161024591906118f7565b60405180910390f35b610256610e8e565b60405161026593929190611912565b60405180910390f35b61028860048036038101906102839190611987565b610ea6565b005b610292610fcc565b60405161029f91906115f8565b60405180910390f35b6102c260048036038101906102bd919061176d565b610fd2565b005b6102de60048036038101906102d9919061176d565b6111c1565b005b6102e86113b0565b6040516102f591906115f8565b60405180910390f35b6103066113b6565b60405161031391906115f8565b60405180910390f35b6103366004803603810190610331919061176d565b6113bc565b005b60055481565b600060029054906101000a900473ffffffffffffffffffffffffffffffffffffffff1673ffffffffffffffffffffffffffffffffffffffff1662435da56040518163ffffffff1660e01b8152600401602060405180830381600087803b1580156103a757600080fd5b505af11580156103bb573d6000803e3d6000fd5b505050506040513d601f19601f820116820180604052508101906103df91906119f2565b73ffffffffffffffffffffffffffffffffffffffff16636d993046336040518263ffffffff1660e01b81526004016104179190611a2e565b60206040518083038186803b15801561042f57600080fd5b505afa158015610443573d6000803e3d6000fd5b505050506040513d601f19601f820116820180604052508101906104679190611a5e565b6104a6576040517f08c379a000000000000000000000000000000000000000000000000000000000815260040161049d90611ae8565b60405180910390fd5b6000831180156104b65750600082115b80156104c25750600081115b6040518060400160405280600f81526020017f496e76616c6964203020696e707574000000000000000000000000000000000081525090610539576040517f08c379a00000000000000000000000000000000000000000000000000000000081526004016105309190611b90565b60405180910390fd5b506040518060600160405280848152602001838152602001828152506008600082015181600001556020820151816001015560408201518160020155905050505050565b600160009054906101000a900473ffffffffffffffffffffffffffffffffffffffff1681565b600060029054906101000a900473ffffffffffffffffffffffffffffffffffffffff1681565b600060029054906101000a900473ffffffffffffffffffffffffffffffffffffffff1673ffffffffffffffffffffffffffffffffffffffff1662435da56040518163ffffffff1660e01b8152600401602060405180830381600087803b15801561063257600080fd5b505af1158015610646573d6000803e3d6000fd5b505050506040513d601f19601f8201168201806040525081019061066a91906119f2565b73ffffffffffffffffffffffffffffffffffffffff16636d993046336040518263ffffffff1660e01b81526004016106a29190611a2e565b60206040518083038186803b1580156106ba57600080fd5b505afa1580156106ce573d6000803e3d6000fd5b505050506040513d601f19601f820116820180604052508101906106f29190611a5e565b610731576040517f08c379a000000000000000000000000000000000000000000000000000000000815260040161072890611ae8565b60405180910390fd5b60008114156040518060400160405280600f81526020017f496e76616c6964203020696e7075740000000000000000000000000000000000815250906107ad576040517f08c379a00000000000000000000000000000000000000000000000000000000081526004016107a49190611b90565b60405180910390fd5b508060058190555050565b60025481565b600060029054906101000a900473ffffffffffffffffffffffffffffffffffffffff1673ffffffffffffffffffffffffffffffffffffffff1662435da56040518163ffffffff1660e01b8152600401602060405180830381600087803b15801561082757600080fd5b505af115801561083b573d6000803e3d6000fd5b505050506040513d601f19601f8201168201806040525081019061085f91906119f2565b73ffffffffffffffffffffffffffffffffffffffff16636d993046336040518263ffffffff1660e01b81526004016108979190611a2e565b60206040518083038186803b1580156108af57600080fd5b505afa1580156108c3573d6000803e3d6000fd5b505050506040513d601f19601f820116820180604052508101906108e79190611a5e565b610926576040517f08c379a000000000000000000000000000000000000000000000000000000000815260040161091d90611ae8565b60405180910390fd5b60008114156040518060400160405280600f81526020017f496e76616c6964203020696e7075740000000000000000000000000000000000815250906109a2576040517f08c379a00000000000000000000000000000000000000000000000000000000081526004016109999190611b90565b60405180910390fd5b508060028190555050565b600060029054906101000a900473ffffffffffffffffffffffffffffffffffffffff1673ffffffffffffffffffffffffffffffffffffffff1662435da56040518163ffffffff1660e01b8152600401602060405180830381600087803b158015610a1657600080fd5b505af1158015610a2a573d6000803e3d6000fd5b505050506040513d601f19601f82011682018060405250810190610a4e91906119f2565b73ffffffffffffffffffffffffffffffffffffffff16636d993046336040518263ffffffff1660e01b8152600401610a869190611a2e565b60206040518083038186803b158015610a9e57600080fd5b505afa158015610ab2573d6000803e3d6000fd5b505050506040513d601f19601f82011682018060405250810190610ad69190611a5e565b610b15576040517f08c379a0000000000000000000000000000000000000000000000000000000008152600401610b0c90611ae8565b60405180910390fd5b600073ffffffffffffffffffffffffffffffffffffffff168273ffffffffffffffffffffffffffffffffffffffff1614156040518060400160405280600f81526020017f496e76616c6964203020696e707574000000000000000000000000000000000081525090610bbd576040517f08c379a0000000000000000000000000000000000000000000000000000000008152600401610bb49190611b90565b60405180910390fd5b5080600760008473ffffffffffffffffffffffffffffffffffffffff1673ffffffffffffffffffffffffffffffffffffffff16815260200190815260200160002060006101000a81548160ff0219169083151502179055505050565b600060029054906101000a900473ffffffffffffffffffffffffffffffffffffffff1673ffffffffffffffffffffffffffffffffffffffff1662435da56040518163ffffffff1660e01b8152600401602060405180830381600087803b158015610c8257600080fd5b505af1158015610c96573d6000803e3d6000fd5b505050506040513d601f19601f82011682018060405250810190610cba91906119f2565b73ffffffffffffffffffffffffffffffffffffffff16636d993046336040518263ffffffff1660e01b8152600401610cf29190611a2e565b60206040518083038186803b158015610d0a57600080fd5b505afa158015610d1e573d6000803e3d6000fd5b505050506040513d601f19601f82011682018060405250810190610d429190611a5e565b610d81576040517f08c379a0000000000000000000000000000000000000000000000000000000008152600401610d7890611ae8565b60405180910390fd5b600073ffffffffffffffffffffffffffffffffffffffff168173ffffffffffffffffffffffffffffffffffffffff1614156040518060400160405280600f81526020017f496e76616c6964203020696e707574000000000000000000000000000000000081525090610e29576040517f08c379a0000000000000000000000000000000000000000000000000000000008152600401610e209190611b90565b60405180910390fd5b5080600160006101000a81548173ffffffffffffffffffffffffffffffffffffffff021916908373ffffffffffffffffffffffffffffffffffffffff16021790555050565b60076020528060005260406000206000915054906101000a900460ff1681565b60088060000154908060010154908060020154905083565b600060019054906101000a900460ff16610ece5760008054906101000a900460ff1615610ed7565b610ed66115ab565b5b610f16576040517f08c379a0000000000000000000000000000000000000000000000000000000008152600401610f0d90611c24565b60405180910390fd5b60008060019054906101000a900460ff161590508015610f66576001600060016101000a81548160ff02191690831515021790555060016000806101000a81548160ff0219169083151502179055505b81600060026101000a81548173ffffffffffffffffffffffffffffffffffffffff021916908373ffffffffffffffffffffffffffffffffffffffff1602179055508015610fc85760008060016101000a81548160ff0219169083151502179055505b5050565b60065481565b600060029054906101000a900473ffffffffffffffffffffffffffffffffffffffff1673ffffffffffffffffffffffffffffffffffffffff1662435da56040518163ffffffff1660e01b8152600401602060405180830381600087803b15801561103b57600080fd5b505af115801561104f573d6000803e3d6000fd5b505050506040513d601f19601f8201168201806040525081019061107391906119f2565b73ffffffffffffffffffffffffffffffffffffffff16636d993046336040518263ffffffff1660e01b81526004016110ab9190611a2e565b60206040518083038186803b1580156110c357600080fd5b505afa1580156110d7573d6000803e3d6000fd5b505050506040513d601f19601f820116820180604052508101906110fb9190611a5e565b61113a576040517f08c379a000000000000000000000000000000000000000000000000000000000815260040161113190611ae8565b60405180910390fd5b60008114156040518060400160405280600f81526020017f496e76616c6964203020696e7075740000000000000000000000000000000000815250906111b6576040517f08c379a00000000000000000000000000000000000000000000000000000000081526004016111ad9190611b90565b60405180910390fd5b508060048190555050565b600060029054906101000a900473ffffffffffffffffffffffffffffffffffffffff1673ffffffffffffffffffffffffffffffffffffffff1662435da56040518163ffffffff1660e01b8152600401602060405180830381600087803b15801561122a57600080fd5b505af115801561123e573d6000803e3d6000fd5b505050506040513d601f19601f8201168201806040525081019061126291906119f2565b73ffffffffffffffffffffffffffffffffffffffff16636d993046336040518263ffffffff1660e01b815260040161129a9190611a2e565b60206040518083038186803b1580156112b257600080fd5b505afa1580156112c6573d6000803e3d6000fd5b505050506040513d601f19601f820116820180604052508101906112ea9190611a5e565b611329576040517f08c379a000000000000000000000000000000000000000000000000000000000815260040161132090611ae8565b60405180910390fd5b60008114156040518060400160405280600f81526020017f496e76616c6964203020696e7075740000000000000000000000000000000000815250906113a5576040517f08c379a000000000000000000000000000000000000000000000000000000000815260040161139c9190611b90565b60405180910390fd5b508060038190555050565b60045481565b60035481565b600060029054906101000a900473ffffffffffffffffffffffffffffffffffffffff1673ffffffffffffffffffffffffffffffffffffffff1662435da56040518163ffffffff1660e01b8152600401602060405180830381600087803b15801561142557600080fd5b505af1158015611439573d6000803e3d6000fd5b505050506040513d601f19601f8201168201806040525081019061145d91906119f2565b73ffffffffffffffffffffffffffffffffffffffff16636d993046336040518263ffffffff1660e01b81526004016114959190611a2e565b60206040518083038186803b1580156114ad57600080fd5b505afa1580156114c1573d6000803e3d6000fd5b505050506040513d601f19601f820116820180604052508101906114e59190611a5e565b611524576040517f08c379a000000000000000000000000000000000000000000000000000000000815260040161151b90611ae8565b60405180910390fd5b60008114156040518060400160405280600f81526020017f496e76616c6964203020696e7075740000000000000000000000000000000000815250906115a0576040517f08c379a00000000000000000000000000000000000000000000000000000000081526004016115979190611b90565b60405180910390fd5b508060068190555050565b60006115b6306115bc565b15905090565b6000808273ffffffffffffffffffffffffffffffffffffffff163b119050919050565b6000819050919050565b6115f2816115df565b82525050565b600060208201905061160d60008301846115e9565b92915050565b600080fd5b611621816115df565b811461162c57600080fd5b50565b60008135905061163e81611618565b92915050565b60008060006060848603121561165d5761165c611613565b5b600061166b8682870161162f565b935050602061167c8682870161162f565b925050604061168d8682870161162f565b9150509250925092565b600073ffffffffffffffffffffffffffffffffffffffff82169050919050565b6000819050919050565b60006116dc6116d76116d284611697565b6116b7565b611697565b9050919050565b60006116ee826116c1565b9050919050565b6000611700826116e3565b9050919050565b611710816116f5565b82525050565b600060208201905061172b6000830184611707565b92915050565b600061173c826116e3565b9050919050565b61174c81611731565b82525050565b60006020820190506117676000830184611743565b92915050565b60006020828403121561178357611782611613565b5b60006117918482850161162f565b91505092915050565b60006117a582611697565b9050919050565b6117b58161179a565b81146117c057600080fd5b50565b6000813590506117d2816117ac565b92915050565b60008115159050919050565b6117ed816117d8565b81146117f857600080fd5b50565b60008135905061180a816117e4565b92915050565b6000806040838503121561182757611826611613565b5b6000611835858286016117c3565b9250506020611846858286016117fb565b9150509250929050565b600061185b8261179a565b9050919050565b61186b81611850565b811461187657600080fd5b50565b60008135905061188881611862565b92915050565b6000602082840312156118a4576118a3611613565b5b60006118b284828501611879565b91505092915050565b6000602082840312156118d1576118d0611613565b5b60006118df848285016117c3565b91505092915050565b6118f1816117d8565b82525050565b600060208201905061190c60008301846118e8565b92915050565b600060608201905061192760008301866115e9565b61193460208301856115e9565b61194160408301846115e9565b949350505050565b60006119548261179a565b9050919050565b61196481611949565b811461196f57600080fd5b50565b6000813590506119818161195b565b92915050565b60006020828403121561199d5761199c611613565b5b60006119ab84828501611972565b91505092915050565b60006119bf8261179a565b9050919050565b6119cf816119b4565b81146119da57600080fd5b50565b6000815190506119ec816119c6565b92915050565b600060208284031215611a0857611a07611613565b5b6000611a16848285016119dd565b91505092915050565b611a288161179a565b82525050565b6000602082019050611a436000830184611a1f565b92915050565b600081519050611a58816117e4565b92915050565b600060208284031215611a7457611a73611613565b5b6000611a8284828501611a49565b91505092915050565b600082825260208201905092915050565b7f4e6f742041646d696e0000000000000000000000000000000000000000000000600082015250565b6000611ad2600983611a8b565b9150611add82611a9c565b602082019050919050565b60006020820190508181036000830152611b0181611ac5565b9050919050565b600081519050919050565b60005b83811015611b31578082015181840152602081019050611b16565b83811115611b40576000848401525b50505050565b6000601f19601f8301169050919050565b6000611b6282611b08565b611b6c8185611a8b565b9350611b7c818560208601611b13565b611b8581611b46565b840191505092915050565b60006020820190508181036000830152611baa8184611b57565b905092915050565b7f496e697469616c697a61626c653a20636f6e747261637420697320616c72656160008201527f647920696e697469616c697a6564000000000000000000000000000000000000602082015250565b6000611c0e602e83611a8b565b9150611c1982611bb2565b604082019050919050565b60006020820190508181036000830152611c3d81611c01565b905091905056fea2646970667358221220643bcd4795605d6a7ed18282a9111c30e7cd4f12d77c586c18a4773b5dc32d9564736f6c63430008090033",
  "devdoc": {
    "kind": "dev",
    "methods": {
      "initialize(address)": {
        "details": "initializer to call after deployment, can only be called once"
      },
      "setApprovedCuratorVaults(address,bool)": {
        "details": "Setter for the list of curator vaults allowed to be used"
      },
      "setPaymentToken(address)": {
        "details": "Setter for the payment token"
      },
      "setReactionPrice(uint256)": {
        "details": "Setter for the reaction price"
      },
      "setSaleCuratorLiabilityBasisPoints(uint256)": {
        "details": "Setter for the reaction price"
      },
      "setSaleReferrerBasisPoints(uint256)": {
        "details": "Setter for the reaction price"
      },
      "setSpendReferrerBasisPoints(uint256)": {
        "details": "Setter for the spend referrer basis points"
      },
      "setSpendTakerBasisPoints(uint256)": {
        "details": "Setter for the spend taker basis points"
      }
    },
    "version": 1
  },
  "userdoc": {
    "kind": "user",
    "methods": {},
    "version": 1
  },
  "storageLayout": {
    "storage": [
      {
        "astId": 2797,
        "contract": "contracts/Parameters/ParameterManager.sol:ParameterManager",
        "label": "_initialized",
        "offset": 0,
        "slot": "0",
        "type": "t_bool"
      },
      {
        "astId": 2800,
        "contract": "contracts/Parameters/ParameterManager.sol:ParameterManager",
        "label": "_initializing",
        "offset": 1,
        "slot": "0",
        "type": "t_bool"
      },
      {
        "astId": 8640,
        "contract": "contracts/Parameters/ParameterManager.sol:ParameterManager",
        "label": "addressManager",
        "offset": 2,
        "slot": "0",
        "type": "t_contract(IAddressManager)7543"
      },
      {
        "astId": 8644,
        "contract": "contracts/Parameters/ParameterManager.sol:ParameterManager",
        "label": "paymentToken",
        "offset": 0,
        "slot": "1",
        "type": "t_contract(IERC20Upgradeable)5035"
      },
      {
        "astId": 8647,
        "contract": "contracts/Parameters/ParameterManager.sol:ParameterManager",
        "label": "reactionPrice",
        "offset": 0,
        "slot": "2",
        "type": "t_uint256"
      },
      {
        "astId": 8650,
        "contract": "contracts/Parameters/ParameterManager.sol:ParameterManager",
        "label": "saleCuratorLiabilityBasisPoints",
        "offset": 0,
        "slot": "3",
        "type": "t_uint256"
      },
      {
        "astId": 8653,
        "contract": "contracts/Parameters/ParameterManager.sol:ParameterManager",
        "label": "saleReferrerBasisPoints",
        "offset": 0,
        "slot": "4",
        "type": "t_uint256"
      },
      {
        "astId": 8656,
        "contract": "contracts/Parameters/ParameterManager.sol:ParameterManager",
        "label": "spendTakerBasisPoints",
        "offset": 0,
        "slot": "5",
        "type": "t_uint256"
      },
      {
        "astId": 8659,
        "contract": "contracts/Parameters/ParameterManager.sol:ParameterManager",
        "label": "spendReferrerBasisPoints",
        "offset": 0,
        "slot": "6",
        "type": "t_uint256"
      },
      {
        "astId": 8664,
        "contract": "contracts/Parameters/ParameterManager.sol:ParameterManager",
        "label": "approvedCuratorVaults",
        "offset": 0,
        "slot": "7",
        "type": "t_mapping(t_address,t_bool)"
      },
      {
        "astId": 8668,
        "contract": "contracts/Parameters/ParameterManager.sol:ParameterManager",
        "label": "bondingCurveParams",
        "offset": 0,
        "slot": "8",
        "type": "t_struct(SigmoidCurveParameters)8286_storage"
      }
    ],
    "types": {
      "t_address": {
        "encoding": "inplace",
        "label": "address",
        "numberOfBytes": "20"
      },
      "t_bool": {
        "encoding": "inplace",
        "label": "bool",
        "numberOfBytes": "1"
      },
      "t_contract(IAddressManager)7543": {
        "encoding": "inplace",
        "label": "contract IAddressManager",
        "numberOfBytes": "20"
      },
      "t_contract(IERC20Upgradeable)5035": {
        "encoding": "inplace",
        "label": "contract IERC20Upgradeable",
        "numberOfBytes": "20"
      },
      "t_mapping(t_address,t_bool)": {
        "encoding": "mapping",
        "key": "t_address",
        "label": "mapping(address => bool)",
        "numberOfBytes": "32",
        "value": "t_bool"
      },
      "t_struct(SigmoidCurveParameters)8286_storage": {
        "encoding": "inplace",
        "label": "struct IParameterManager.SigmoidCurveParameters",
        "members": [
          {
            "astId": 8281,
            "contract": "contracts/Parameters/ParameterManager.sol:ParameterManager",
            "label": "a",
            "offset": 0,
            "slot": "0",
            "type": "t_uint256"
          },
          {
            "astId": 8283,
            "contract": "contracts/Parameters/ParameterManager.sol:ParameterManager",
            "label": "b",
            "offset": 0,
            "slot": "1",
            "type": "t_uint256"
          },
          {
            "astId": 8285,
            "contract": "contracts/Parameters/ParameterManager.sol:ParameterManager",
            "label": "c",
            "offset": 0,
            "slot": "2",
            "type": "t_uint256"
          }
        ],
        "numberOfBytes": "96"
      },
      "t_uint256": {
        "encoding": "inplace",
        "label": "uint256",
        "numberOfBytes": "32"
      }
    }
  }
}