{
  "address": "0xf77B19CaF8D443efeF6C0969b606f228Ffa1aa4E",
  "abi": [
    {
      "anonymous": false,
      "inputs": [
        {
          "indexed": true,
          "internalType": "address",
          "name": "account",
          "type": "address"
        },
        {
          "indexed": true,
          "internalType": "address",
          "name": "operator",
          "type": "address"
        },
        {
          "indexed": false,
          "internalType": "bool",
          "name": "approved",
          "type": "bool"
        }
      ],
      "name": "ApprovalForAll",
      "type": "event"
    },
    {
      "anonymous": false,
      "inputs": [
        {
          "indexed": true,
          "internalType": "address",
          "name": "operator",
          "type": "address"
        },
        {
          "indexed": true,
          "internalType": "address",
          "name": "from",
          "type": "address"
        },
        {
          "indexed": true,
          "internalType": "address",
          "name": "to",
          "type": "address"
        },
        {
          "indexed": false,
          "internalType": "uint256[]",
          "name": "ids",
          "type": "uint256[]"
        },
        {
          "indexed": false,
          "internalType": "uint256[]",
          "name": "values",
          "type": "uint256[]"
        }
      ],
      "name": "TransferBatch",
      "type": "event"
    },
    {
      "anonymous": false,
      "inputs": [
        {
          "indexed": true,
          "internalType": "address",
          "name": "operator",
          "type": "address"
        },
        {
          "indexed": true,
          "internalType": "address",
          "name": "from",
          "type": "address"
        },
        {
          "indexed": true,
          "internalType": "address",
          "name": "to",
          "type": "address"
        },
        {
          "indexed": false,
          "internalType": "uint256",
          "name": "id",
          "type": "uint256"
        },
        {
          "indexed": false,
          "internalType": "uint256",
          "name": "value",
          "type": "uint256"
        }
      ],
      "name": "TransferSingle",
      "type": "event"
    },
    {
      "anonymous": false,
      "inputs": [
        {
          "indexed": false,
          "internalType": "string",
          "name": "value",
          "type": "string"
        },
        {
          "indexed": true,
          "internalType": "uint256",
          "name": "id",
          "type": "uint256"
        }
      ],
      "name": "URI",
      "type": "event"
    },
    {
      "inputs": [],
      "name": "addressManager",
      "outputs": [
        {
          "internalType": "contract IAddressManager",
          "name": "",
          "type": "address"
        }
      ],
      "stateMutability": "view",
      "type": "function"
    },
    {
      "inputs": [
        {
          "internalType": "address",
          "name": "account",
          "type": "address"
        },
        {
          "internalType": "uint256",
          "name": "id",
          "type": "uint256"
        }
      ],
      "name": "balanceOf",
      "outputs": [
        {
          "internalType": "uint256",
          "name": "",
          "type": "uint256"
        }
      ],
      "stateMutability": "view",
      "type": "function"
    },
    {
      "inputs": [
        {
          "internalType": "address[]",
          "name": "accounts",
          "type": "address[]"
        },
        {
          "internalType": "uint256[]",
          "name": "ids",
          "type": "uint256[]"
        }
      ],
      "name": "balanceOfBatch",
      "outputs": [
        {
          "internalType": "uint256[]",
          "name": "",
          "type": "uint256[]"
        }
      ],
      "stateMutability": "view",
      "type": "function"
    },
    {
      "inputs": [
        {
          "internalType": "address",
          "name": "from",
          "type": "address"
        },
        {
          "internalType": "uint256",
          "name": "id",
          "type": "uint256"
        },
        {
          "internalType": "uint256",
          "name": "amount",
          "type": "uint256"
        }
      ],
      "name": "burn",
      "outputs": [],
      "stateMutability": "nonpayable",
      "type": "function"
    },
    {
      "inputs": [],
      "name": "contractURI",
      "outputs": [
        {
          "internalType": "string",
          "name": "",
          "type": "string"
        }
      ],
      "stateMutability": "view",
      "type": "function"
    },
    {
      "inputs": [
        {
          "internalType": "string",
          "name": "_uri",
          "type": "string"
        },
        {
          "internalType": "address",
          "name": "_addressManager",
          "type": "address"
        },
        {
          "internalType": "string",
          "name": "_contractUri",
          "type": "string"
        }
      ],
      "name": "initialize",
      "outputs": [],
      "stateMutability": "nonpayable",
      "type": "function"
    },
    {
      "inputs": [
        {
          "internalType": "address",
          "name": "account",
          "type": "address"
        },
        {
          "internalType": "address",
          "name": "operator",
          "type": "address"
        }
      ],
      "name": "isApprovedForAll",
      "outputs": [
        {
          "internalType": "bool",
          "name": "",
          "type": "bool"
        }
      ],
      "stateMutability": "view",
      "type": "function"
    },
    {
      "inputs": [
        {
          "internalType": "address",
          "name": "to",
          "type": "address"
        },
        {
          "internalType": "uint256",
          "name": "id",
          "type": "uint256"
        },
        {
          "internalType": "uint256",
          "name": "amount",
          "type": "uint256"
        },
        {
          "internalType": "bytes",
          "name": "data",
          "type": "bytes"
        }
      ],
      "name": "mint",
      "outputs": [],
      "stateMutability": "nonpayable",
      "type": "function"
    },
    {
      "inputs": [
        {
          "internalType": "address",
          "name": "from",
          "type": "address"
        },
        {
          "internalType": "address",
          "name": "to",
          "type": "address"
        },
        {
          "internalType": "uint256[]",
          "name": "ids",
          "type": "uint256[]"
        },
        {
          "internalType": "uint256[]",
          "name": "amounts",
          "type": "uint256[]"
        },
        {
          "internalType": "bytes",
          "name": "data",
          "type": "bytes"
        }
      ],
      "name": "safeBatchTransferFrom",
      "outputs": [],
      "stateMutability": "nonpayable",
      "type": "function"
    },
    {
      "inputs": [
        {
          "internalType": "address",
          "name": "from",
          "type": "address"
        },
        {
          "internalType": "address",
          "name": "to",
          "type": "address"
        },
        {
          "internalType": "uint256",
          "name": "id",
          "type": "uint256"
        },
        {
          "internalType": "uint256",
          "name": "amount",
          "type": "uint256"
        },
        {
          "internalType": "bytes",
          "name": "data",
          "type": "bytes"
        }
      ],
      "name": "safeTransferFrom",
      "outputs": [],
      "stateMutability": "nonpayable",
      "type": "function"
    },
    {
      "inputs": [
        {
          "internalType": "address",
          "name": "operator",
          "type": "address"
        },
        {
          "internalType": "bool",
          "name": "approved",
          "type": "bool"
        }
      ],
      "name": "setApprovalForAll",
      "outputs": [],
      "stateMutability": "nonpayable",
      "type": "function"
    },
    {
      "inputs": [
        {
          "internalType": "string",
          "name": "_contractUri",
          "type": "string"
        }
      ],
      "name": "setContractUri",
      "outputs": [
        {
          "internalType": "bool",
          "name": "success",
          "type": "bool"
        }
      ],
      "stateMutability": "nonpayable",
      "type": "function"
    },
    {
      "inputs": [
        {
          "internalType": "bytes4",
          "name": "interfaceId",
          "type": "bytes4"
        }
      ],
      "name": "supportsInterface",
      "outputs": [
        {
          "internalType": "bool",
          "name": "",
          "type": "bool"
        }
      ],
      "stateMutability": "view",
      "type": "function"
    },
    {
      "inputs": [
        {
          "internalType": "uint256",
          "name": "",
          "type": "uint256"
        }
      ],
      "name": "uri",
      "outputs": [
        {
          "internalType": "string",
          "name": "",
          "type": "string"
        }
      ],
      "stateMutability": "view",
      "type": "function"
    }
  ],
  "transactionHash": "0x66ac81db6492b7e4bd24f6b2b8a97cd1b536672cc889843bbc6ead615a165b6f",
  "args": [],
  "numDeployments": 4,
  "solcInputHash": "593681b2c01e165bc9f025e81825be58",
  "bytecode": "0x608060405234801561001057600080fd5b50611f99806100206000396000f3fe608060405234801561001057600080fd5b50600436106100c95760003560e01c806395a2fadc1161007c57806395a2fadc1461019f578063a22cb465146101b2578063ccb4807b146101c5578063e8a3d485146101d8578063e985e9c5146101e0578063f242432a1461021c578063f5298aca1461022f57600080fd5b8062fdd58e146100ce57806301ffc9a7146100f45780630e89341c146101175780632eb2c2d6146101375780633ab76e9f1461014c5780634e1273f41461016c578063731133e91461018c575b600080fd5b6100e16100dc36600461156f565b610242565b6040519081526020015b60405180910390f35b6101076101023660046115b1565b6102db565b60405190151581526020016100eb565b61012a6101253660046115d5565b61032d565b6040516100eb919061163b565b61014a610145366004611797565b6103c1565b005b60975461015f906001600160a01b031681565b6040516100eb9190611844565b61017f61017a366004611858565b610458565b6040516100eb919061195f565b61014a61019a366004611972565b610581565b61014a6101ad3660046119d4565b6106a4565b61014a6101c0366004611a59565b610798565b6101076101d3366004611a92565b6107a7565b61012a6108eb565b6101076101ee366004611ace565b6001600160a01b03918216600090815260666020908152604080832093909416825291909152205460ff1690565b61014a61022a366004611afc565b610979565b61014a61023d366004611b64565b610a00565b60006001600160a01b0383166102b35760405162461bcd60e51b815260206004820152602b60248201527f455243313135353a2062616c616e636520717565727920666f7220746865207a60448201526a65726f206164647265737360a81b60648201526084015b60405180910390fd5b5060009081526065602090815260408083206001600160a01b03949094168352929052205490565b60006001600160e01b03198216636cdb3d1360e11b148061030c57506001600160e01b031982166303a24d0760e21b145b8061032757506301ffc9a760e01b6001600160e01b03198316145b92915050565b60606067805461033c90611b99565b80601f016020809104026020016040519081016040528092919081815260200182805461036890611b99565b80156103b55780601f1061038a576101008083540402835291602001916103b5565b820191906000526020600020905b81548152906001019060200180831161039857829003601f168201915b50505050509050919050565b6001600160a01b0385163314806103dd57506103dd85336101ee565b6104445760405162461bcd60e51b815260206004820152603260248201527f455243313135353a207472616e736665722063616c6c6572206973206e6f74206044820152711bdddb995c881b9bdc88185c1c1c9bdd995960721b60648201526084016102aa565b6104518585858585610b22565b5050505050565b606081518351146104bd5760405162461bcd60e51b815260206004820152602960248201527f455243313135353a206163636f756e747320616e6420696473206c656e677468604482015268040dad2e6dac2e8c6d60bb1b60648201526084016102aa565b600083516001600160401b038111156104d8576104d861164e565b604051908082528060200260200182016040528015610501578160200160208202803683370190505b50905060005b84518110156105795761054c85828151811061052557610525611bce565b602002602001015185838151811061053f5761053f611bce565b6020026020010151610242565b82828151811061055e5761055e611bce565b602090810291909101015261057281611bfa565b9050610507565b509392505050565b6097546040805162435da560e01b815290516000926001600160a01b03169162435da591600480830192602092919082900301818787803b1580156105c557600080fd5b505af11580156105d9573d6000803e3d6000fd5b505050506040513d601f19601f820116820180604052508101906105fd9190611c15565b6040516306cddfb760e51b81529091506001600160a01b0382169063d9bbf6e09061062c903390600401611844565b60206040518083038186803b15801561064457600080fd5b505afa158015610658573d6000803e3d6000fd5b505050506040513d601f19601f8201168201806040525081019061067c9190611c32565b6106985760405162461bcd60e51b81526004016102aa90611c4f565b61045185858585610d10565b600054610100900460ff166106bf5760005460ff16156106c3565b303b155b6107265760405162461bcd60e51b815260206004820152602e60248201527f496e697469616c697a61626c653a20636f6e747261637420697320616c72656160448201526d191e481a5b9a5d1a585b1a5e995960921b60648201526084016102aa565b600054610100900460ff16158015610748576000805461ffff19166101011790555b61075184610e10565b609780546001600160a01b0319166001600160a01b038516179055815161077f9060989060208501906114c1565b508015610792576000805461ff00191690555b50505050565b6107a3338383610e43565b5050565b600080609760009054906101000a90046001600160a01b03166001600160a01b031662435da56040518163ffffffff1660e01b8152600401602060405180830381600087803b1580156107f957600080fd5b505af115801561080d573d6000803e3d6000fd5b505050506040513d601f19601f820116820180604052508101906108319190611c15565b6040516306cddfb760e51b81529091506001600160a01b0382169063d9bbf6e090610860903390600401611844565b60206040518083038186803b15801561087857600080fd5b505afa15801561088c573d6000803e3d6000fd5b505050506040513d601f19601f820116820180604052508101906108b09190611c32565b6108cc5760405162461bcd60e51b81526004016102aa90611c4f565b82516108df9060989060208601906114c1565b50600191505b50919050565b609880546108f890611b99565b80601f016020809104026020016040519081016040528092919081815260200182805461092490611b99565b80156109715780601f1061094657610100808354040283529160200191610971565b820191906000526020600020905b81548152906001019060200180831161095457829003601f168201915b505050505081565b6001600160a01b038516331480610995575061099585336101ee565b6109f35760405162461bcd60e51b815260206004820152602960248201527f455243313135353a2063616c6c6572206973206e6f74206f776e6572206e6f7260448201526808185c1c1c9bdd995960ba1b60648201526084016102aa565b6104518585858585610f24565b6097546040805162435da560e01b815290516000926001600160a01b03169162435da591600480830192602092919082900301818787803b158015610a4457600080fd5b505af1158015610a58573d6000803e3d6000fd5b505050506040513d601f19601f82011682018060405250810190610a7c9190611c15565b6040516306cddfb760e51b81529091506001600160a01b0382169063d9bbf6e090610aab903390600401611844565b60206040518083038186803b158015610ac357600080fd5b505afa158015610ad7573d6000803e3d6000fd5b505050506040513d601f19601f82011682018060405250810190610afb9190611c32565b610b175760405162461bcd60e51b81526004016102aa90611c4f565b610792848484611033565b8151835114610b845760405162461bcd60e51b815260206004820152602860248201527f455243313135353a2069647320616e6420616d6f756e7473206c656e677468206044820152670dad2e6dac2e8c6d60c31b60648201526084016102aa565b6001600160a01b038416610baa5760405162461bcd60e51b81526004016102aa90611c76565b33610bb981878787878761119e565b60005b8451811015610ca2576000858281518110610bd957610bd9611bce565b602002602001015190506000858381518110610bf757610bf7611bce565b60209081029190910181015160008481526065835260408082206001600160a01b038e168352909352919091205490915081811015610c485760405162461bcd60e51b81526004016102aa90611cbb565b60008381526065602090815260408083206001600160a01b038e8116855292528083208585039055908b16825281208054849290610c87908490611d05565b9250508190555050505080610c9b90611bfa565b9050610bbc565b50846001600160a01b0316866001600160a01b0316826001600160a01b03167f4a39dc06d4c0dbc64b70af90fd698a233a518aa5d07e595d983b8c0526c8f7fb8787604051610cf2929190611d1d565b60405180910390a4610d08818787878787611207565b505050505050565b6001600160a01b038416610d705760405162461bcd60e51b815260206004820152602160248201527f455243313135353a206d696e7420746f20746865207a65726f206164647265736044820152607360f81b60648201526084016102aa565b33610d9081600087610d8188611372565b610d8a88611372565b8761119e565b60008481526065602090815260408083206001600160a01b038916845290915281208054859290610dc2908490611d05565b909155505060408051858152602081018590526001600160a01b038088169260009291851691600080516020611f44833981519152910160405180910390a4610451816000878787876113bd565b600054610100900460ff16610e375760405162461bcd60e51b81526004016102aa90611d4b565b610e4081611487565b50565b816001600160a01b0316836001600160a01b03161415610eb75760405162461bcd60e51b815260206004820152602960248201527f455243313135353a2073657474696e6720617070726f76616c20737461747573604482015268103337b91039b2b63360b91b60648201526084016102aa565b6001600160a01b03838116600081815260666020908152604080832094871680845294825291829020805460ff191686151590811790915591519182527f17307eab39ab6107e8899845ad3d59bd9653f200f220920489ca2b5937696c31910160405180910390a3505050565b6001600160a01b038416610f4a5760405162461bcd60e51b81526004016102aa90611c76565b33610f5a818787610d8188611372565b60008481526065602090815260408083206001600160a01b038a16845290915290205483811015610f9d5760405162461bcd60e51b81526004016102aa90611cbb565b60008581526065602090815260408083206001600160a01b038b8116855292528083208785039055908816825281208054869290610fdc908490611d05565b909155505060408051868152602081018690526001600160a01b03808916928a82169291861691600080516020611f44833981519152910160405180910390a461102a8288888888886113bd565b50505050505050565b6001600160a01b0383166110955760405162461bcd60e51b815260206004820152602360248201527f455243313135353a206275726e2066726f6d20746865207a65726f206164647260448201526265737360e81b60648201526084016102aa565b336110c4818560006110a687611372565b6110af87611372565b6040518060200160405280600081525061119e565b60008381526065602090815260408083206001600160a01b0388168452909152902054828110156111435760405162461bcd60e51b8152602060048201526024808201527f455243313135353a206275726e20616d6f756e7420657863656564732062616c604482015263616e636560e01b60648201526084016102aa565b60008481526065602090815260408083206001600160a01b0389811680865291845282852088870390558251898152938401889052909290861691600080516020611f44833981519152910160405180910390a45050505050565b6001600160a01b03851615806111bb57506001600160a01b038416155b610d085760405162461bcd60e51b815260206004820152601c60248201527f5265616374696f6e207472616e7366657220726573747269637465640000000060448201526064016102aa565b6001600160a01b0384163b15610d085760405163bc197c8160e01b81526001600160a01b0385169063bc197c819061124b9089908990889088908890600401611d96565b602060405180830381600087803b15801561126557600080fd5b505af1925050508015611295575060408051601f3d908101601f1916820190925261129291810190611df4565b60015b611342576112a1611e11565b806308c379a014156112db57506112b6611e2d565b806112c157506112dd565b8060405162461bcd60e51b81526004016102aa919061163b565b505b60405162461bcd60e51b815260206004820152603460248201527f455243313135353a207472616e7366657220746f206e6f6e20455243313135356044820152732932b1b2b4bb32b91034b6b83632b6b2b73a32b960611b60648201526084016102aa565b6001600160e01b0319811663bc197c8160e01b1461102a5760405162461bcd60e51b81526004016102aa90611eb6565b604080516001808252818301909252606091600091906020808301908036833701905050905082816000815181106113ac576113ac611bce565b602090810291909101015292915050565b6001600160a01b0384163b15610d085760405163f23a6e6160e01b81526001600160a01b0385169063f23a6e61906114019089908990889088908890600401611efe565b602060405180830381600087803b15801561141b57600080fd5b505af192505050801561144b575060408051601f3d908101601f1916820190925261144891810190611df4565b60015b611457576112a1611e11565b6001600160e01b0319811663f23a6e6160e01b1461102a5760405162461bcd60e51b81526004016102aa90611eb6565b600054610100900460ff166114ae5760405162461bcd60e51b81526004016102aa90611d4b565b610e408180516107a39060679060208401905b8280546114cd90611b99565b90600052602060002090601f0160209004810192826114ef5760008555611535565b82601f1061150857805160ff1916838001178555611535565b82800160010185558215611535579182015b8281111561153557825182559160200191906001019061151a565b50611541929150611545565b5090565b5b808211156115415760008155600101611546565b6001600160a01b0381168114610e4057600080fd5b6000806040838503121561158257600080fd5b823561158d8161155a565b946020939093013593505050565b6001600160e01b031981168114610e4057600080fd5b6000602082840312156115c357600080fd5b81356115ce8161159b565b9392505050565b6000602082840312156115e757600080fd5b5035919050565b6000815180845260005b81811015611614576020818501810151868301820152016115f8565b81811115611626576000602083870101525b50601f01601f19169290920160200192915050565b6020815260006115ce60208301846115ee565b634e487b7160e01b600052604160045260246000fd5b601f8201601f191681016001600160401b03811182821017156116895761168961164e565b6040525050565b60006001600160401b038211156116a9576116a961164e565b5060051b60200190565b600082601f8301126116c457600080fd5b813560206116d182611690565b6040516116de8282611664565b83815260059390931b85018201928281019150868411156116fe57600080fd5b8286015b848110156117195780358352918301918301611702565b509695505050505050565b600082601f83011261173557600080fd5b81356001600160401b0381111561174e5761174e61164e565b604051611765601f8301601f191660200182611664565b81815284602083860101111561177a57600080fd5b816020850160208301376000918101602001919091529392505050565b600080600080600060a086880312156117af57600080fd5b85356117ba8161155a565b945060208601356117ca8161155a565b935060408601356001600160401b03808211156117e657600080fd5b6117f289838a016116b3565b9450606088013591508082111561180857600080fd5b61181489838a016116b3565b9350608088013591508082111561182a57600080fd5b5061183788828901611724565b9150509295509295909350565b6001600160a01b0391909116815260200190565b6000806040838503121561186b57600080fd5b82356001600160401b038082111561188257600080fd5b818501915085601f83011261189657600080fd5b813560206118a382611690565b6040516118b08282611664565b83815260059390931b85018201928281019150898411156118d057600080fd5b948201945b838610156118f75785356118e88161155a565b825294820194908201906118d5565b9650508601359250508082111561190d57600080fd5b5061191a858286016116b3565b9150509250929050565b600081518084526020808501945080840160005b8381101561195457815187529582019590820190600101611938565b509495945050505050565b6020815260006115ce6020830184611924565b6000806000806080858703121561198857600080fd5b84356119938161155a565b9350602085013592506040850135915060608501356001600160401b038111156119bc57600080fd5b6119c887828801611724565b91505092959194509250565b6000806000606084860312156119e957600080fd5b83356001600160401b0380821115611a0057600080fd5b611a0c87838801611724565b945060208601359150611a1e8261155a565b90925060408501359080821115611a3457600080fd5b50611a4186828701611724565b9150509250925092565b8015158114610e4057600080fd5b60008060408385031215611a6c57600080fd5b8235611a778161155a565b91506020830135611a8781611a4b565b809150509250929050565b600060208284031215611aa457600080fd5b81356001600160401b03811115611aba57600080fd5b611ac684828501611724565b949350505050565b60008060408385031215611ae157600080fd5b8235611aec8161155a565b91506020830135611a878161155a565b600080600080600060a08688031215611b1457600080fd5b8535611b1f8161155a565b94506020860135611b2f8161155a565b9350604086013592506060860135915060808601356001600160401b03811115611b5857600080fd5b61183788828901611724565b600080600060608486031215611b7957600080fd5b8335611b848161155a565b95602085013595506040909401359392505050565b600181811c90821680611bad57607f821691505b602082108114156108e557634e487b7160e01b600052602260045260246000fd5b634e487b7160e01b600052603260045260246000fd5b634e487b7160e01b600052601160045260246000fd5b6000600019821415611c0e57611c0e611be4565b5060010190565b600060208284031215611c2757600080fd5b81516115ce8161155a565b600060208284031215611c4457600080fd5b81516115ce81611a4b565b6020808252600d908201526c2737ba1027232a1020b236b4b760991b604082015260600190565b60208082526025908201527f455243313135353a207472616e7366657220746f20746865207a65726f206164604082015264647265737360d81b606082015260800190565b6020808252602a908201527f455243313135353a20696e73756666696369656e742062616c616e636520666f60408201526939103a3930b739b332b960b11b606082015260800190565b60008219821115611d1857611d18611be4565b500190565b604081526000611d306040830185611924565b8281036020840152611d428185611924565b95945050505050565b6020808252602b908201527f496e697469616c697a61626c653a20636f6e7472616374206973206e6f74206960408201526a6e697469616c697a696e6760a81b606082015260800190565b6001600160a01b0386811682528516602082015260a060408201819052600090611dc290830186611924565b8281036060840152611dd48186611924565b90508281036080840152611de881856115ee565b98975050505050505050565b600060208284031215611e0657600080fd5b81516115ce8161159b565b600060033d1115611e2a5760046000803e5060005160e01c5b90565b600060443d1015611e3b5790565b6040516003193d81016004833e81513d6001600160401b038160248401118184111715611e6a57505050505090565b8285019150815181811115611e825750505050505090565b843d8701016020828501011115611e9c5750505050505090565b611eab60208286010187611664565b509095945050505050565b60208082526028908201527f455243313135353a204552433131353552656365697665722072656a656374656040820152676420746f6b656e7360c01b606082015260800190565b6001600160a01b03868116825285166020820152604081018490526060810183905260a060808201819052600090611f38908301846115ee565b97965050505050505056fec3d58168c5ae7397731d063d5bbf3d657854427343f4c083240f7aacaa2d0f62a2646970667358221220ee963bb44f61f808b13567b533df11a11f947d2fbae0c3489e9255810cf7013264736f6c63430008090033",
  "devdoc": {
    "details": "This contract will be used to track Reaction NFTs in the protocol. Only the NFT Minter role can mint tokens Only the NFT Burner role can burn tokens Note: This contract is protected via a permissioned account set in the role manager.  Caution should be used as the role owner could renounce the role leaving all future actions disabled.  Additionally, if a malicious account was able to obtain the role, they could use it to mint or burn reactions. See the public documentation website for more details.",
    "kind": "dev",
    "methods": {
      "balanceOf(address,uint256)": {
        "details": "See {IERC1155-balanceOf}. Requirements: - `account` cannot be the zero address."
      },
      "balanceOfBatch(address[],uint256[])": {
        "details": "See {IERC1155-balanceOfBatch}. Requirements: - `accounts` and `ids` must have the same length."
      },
      "burn(address,uint256,uint256)": {
        "details": "Allows reaction burner role to burn tokens"
      },
      "initialize(string,address,string)": {
        "details": "initializer to call after deployment, can only be called once"
      },
      "isApprovedForAll(address,address)": {
        "details": "See {IERC1155-isApprovedForAll}."
      },
      "mint(address,uint256,uint256,bytes)": {
        "details": "Allows reaction minter role to mint tokens"
      },
      "safeBatchTransferFrom(address,address,uint256[],uint256[],bytes)": {
        "details": "See {IERC1155-safeBatchTransferFrom}."
      },
      "safeTransferFrom(address,address,uint256,uint256,bytes)": {
        "details": "See {IERC1155-safeTransferFrom}."
      },
      "setApprovalForAll(address,bool)": {
        "details": "See {IERC1155-setApprovalForAll}."
      },
      "supportsInterface(bytes4)": {
        "details": "See {IERC165-supportsInterface}."
      },
      "uri(uint256)": {
        "details": "See {IERC1155MetadataURI-uri}. This implementation returns the same URI for *all* token types. It relies on the token type ID substitution mechanism https://eips.ethereum.org/EIPS/eip-1155#metadata[defined in the EIP]. Clients calling this function must replace the `\\{id\\}` substring with the actual token type ID."
      }
    },
    "title": "ReactionNft1155",
    "version": 1
  },
  "userdoc": {
    "kind": "user",
    "methods": {},
    "version": 1
  },
  "storageLayout": {
    "storage": [
      {
        "astId": 2435,
        "contract": "contracts/Reactions/NFT/ReactionNft1155.sol:ReactionNft1155",
        "label": "_initialized",
        "offset": 0,
        "slot": "0",
        "type": "t_bool"
      },
      {
        "astId": 2438,
        "contract": "contracts/Reactions/NFT/ReactionNft1155.sol:ReactionNft1155",
        "label": "_initializing",
        "offset": 1,
        "slot": "0",
        "type": "t_bool"
      },
      {
        "astId": 6258,
        "contract": "contracts/Reactions/NFT/ReactionNft1155.sol:ReactionNft1155",
        "label": "__gap",
        "offset": 0,
        "slot": "1",
        "type": "t_array(t_uint256)50_storage"
      },
      {
        "astId": 6505,
        "contract": "contracts/Reactions/NFT/ReactionNft1155.sol:ReactionNft1155",
        "label": "__gap",
        "offset": 0,
        "slot": "51",
        "type": "t_array(t_uint256)50_storage"
      },
      {
        "astId": 2590,
        "contract": "contracts/Reactions/NFT/ReactionNft1155.sol:ReactionNft1155",
        "label": "_balances",
        "offset": 0,
        "slot": "101",
        "type": "t_mapping(t_uint256,t_mapping(t_address,t_uint256))"
      },
      {
        "astId": 2596,
        "contract": "contracts/Reactions/NFT/ReactionNft1155.sol:ReactionNft1155",
        "label": "_operatorApprovals",
        "offset": 0,
        "slot": "102",
        "type": "t_mapping(t_address,t_mapping(t_address,t_bool))"
      },
      {
        "astId": 2598,
        "contract": "contracts/Reactions/NFT/ReactionNft1155.sol:ReactionNft1155",
        "label": "_uri",
        "offset": 0,
        "slot": "103",
        "type": "t_string_storage"
      },
      {
        "astId": 3678,
        "contract": "contracts/Reactions/NFT/ReactionNft1155.sol:ReactionNft1155",
        "label": "__gap",
        "offset": 0,
        "slot": "104",
        "type": "t_array(t_uint256)47_storage"
      },
      {
        "astId": 14726,
        "contract": "contracts/Reactions/NFT/ReactionNft1155.sol:ReactionNft1155",
        "label": "addressManager",
        "offset": 0,
        "slot": "151",
        "type": "t_contract(IAddressManager)8328"
      },
      {
        "astId": 14732,
        "contract": "contracts/Reactions/NFT/ReactionNft1155.sol:ReactionNft1155",
        "label": "contractURI",
        "offset": 0,
        "slot": "152",
        "type": "t_string_storage"
      }
    ],
    "types": {
      "t_address": {
        "encoding": "inplace",
        "label": "address",
        "numberOfBytes": "20"
      },
      "t_array(t_uint256)47_storage": {
        "base": "t_uint256",
        "encoding": "inplace",
        "label": "uint256[47]",
        "numberOfBytes": "1504"
      },
      "t_array(t_uint256)50_storage": {
        "base": "t_uint256",
        "encoding": "inplace",
        "label": "uint256[50]",
        "numberOfBytes": "1600"
      },
      "t_bool": {
        "encoding": "inplace",
        "label": "bool",
        "numberOfBytes": "1"
      },
      "t_contract(IAddressManager)8328": {
        "encoding": "inplace",
        "label": "contract IAddressManager",
        "numberOfBytes": "20"
      },
      "t_mapping(t_address,t_bool)": {
        "encoding": "mapping",
        "key": "t_address",
        "label": "mapping(address => bool)",
        "numberOfBytes": "32",
        "value": "t_bool"
      },
      "t_mapping(t_address,t_mapping(t_address,t_bool))": {
        "encoding": "mapping",
        "key": "t_address",
        "label": "mapping(address => mapping(address => bool))",
        "numberOfBytes": "32",
        "value": "t_mapping(t_address,t_bool)"
      },
      "t_mapping(t_address,t_uint256)": {
        "encoding": "mapping",
        "key": "t_address",
        "label": "mapping(address => uint256)",
        "numberOfBytes": "32",
        "value": "t_uint256"
      },
      "t_mapping(t_uint256,t_mapping(t_address,t_uint256))": {
        "encoding": "mapping",
        "key": "t_uint256",
        "label": "mapping(uint256 => mapping(address => uint256))",
        "numberOfBytes": "32",
        "value": "t_mapping(t_address,t_uint256)"
      },
      "t_string_storage": {
        "encoding": "bytes",
        "label": "string",
        "numberOfBytes": "32"
      },
      "t_uint256": {
        "encoding": "inplace",
        "label": "uint256",
        "numberOfBytes": "32"
      }
    }
  }
}