{
  "address": "0x16F2F7fe0d69C00D042BE9CB025c7419Bc59D6CF",
  "abi": [
    {
      "anonymous": false,
      "inputs": [
        {
          "indexed": false,
          "internalType": "address",
          "name": "creator",
          "type": "address"
        },
        {
          "indexed": false,
          "internalType": "contract IERC20Upgradeable",
          "name": "paymentToken",
          "type": "address"
        },
        {
          "indexed": false,
          "internalType": "uint256",
          "name": "amount",
          "type": "uint256"
        },
        {
          "indexed": false,
          "internalType": "uint256",
          "name": "reactionId",
          "type": "uint256"
        }
      ],
      "name": "CreatorRewardsGranted",
      "type": "event"
    },
    {
      "anonymous": false,
      "inputs": [
        {
          "indexed": false,
          "internalType": "address",
          "name": "token",
          "type": "address"
        },
        {
          "indexed": false,
          "internalType": "uint256",
          "name": "amount",
          "type": "uint256"
        },
        {
          "indexed": false,
          "internalType": "address",
          "name": "recipient",
          "type": "address"
        }
      ],
      "name": "ERC20RewardsClaimed",
      "type": "event"
    },
    {
      "anonymous": false,
      "inputs": [
        {
          "indexed": false,
          "internalType": "uint8",
          "name": "version",
          "type": "uint8"
        }
      ],
      "name": "Initialized",
      "type": "event"
    },
    {
      "anonymous": false,
      "inputs": [
        {
          "indexed": false,
          "internalType": "address",
          "name": "maker",
          "type": "address"
        },
        {
          "indexed": false,
          "internalType": "contract IERC20Upgradeable",
          "name": "paymentToken",
          "type": "address"
        },
        {
          "indexed": false,
          "internalType": "uint256",
          "name": "amount",
          "type": "uint256"
        },
        {
          "indexed": false,
          "internalType": "uint256",
          "name": "reactionId",
          "type": "uint256"
        }
      ],
      "name": "MakerRewardsGranted",
      "type": "event"
    },
    {
      "anonymous": false,
      "inputs": [
        {
          "indexed": false,
          "internalType": "uint256",
          "name": "transformId",
          "type": "uint256"
        },
        {
          "indexed": false,
          "internalType": "uint256",
          "name": "quantity",
          "type": "uint256"
        },
        {
          "indexed": false,
          "internalType": "address",
          "name": "destinationWallet",
          "type": "address"
        },
        {
          "indexed": false,
          "internalType": "address",
          "name": "referrer",
          "type": "address"
        },
        {
          "indexed": false,
          "internalType": "uint256",
          "name": "reactionId",
          "type": "uint256"
        },
        {
          "indexed": false,
          "internalType": "uint256",
          "name": "parameterVersion",
          "type": "uint256"
        }
      ],
      "name": "ReactionsPurchased",
      "type": "event"
    },
    {
      "anonymous": false,
      "inputs": [
        {
          "indexed": false,
          "internalType": "uint256",
          "name": "takerNftChainId",
          "type": "uint256"
        },
        {
          "indexed": false,
          "internalType": "address",
          "name": "takerNftAddress",
          "type": "address"
        },
        {
          "indexed": false,
          "internalType": "uint256",
          "name": "takerNftId",
          "type": "uint256"
        },
        {
          "indexed": false,
          "internalType": "uint256",
          "name": "reactionId",
          "type": "uint256"
        },
        {
          "indexed": false,
          "internalType": "address",
          "name": "paymentToken",
          "type": "address"
        },
        {
          "indexed": false,
          "internalType": "uint256",
          "name": "quantity",
          "type": "uint256"
        },
        {
          "indexed": false,
          "internalType": "string",
          "name": "ipfsMetadataHash",
          "type": "string"
        },
        {
          "indexed": false,
          "internalType": "address",
          "name": "referrer",
          "type": "address"
        },
        {
          "indexed": false,
          "internalType": "address",
          "name": "curatorVaultAddress",
          "type": "address"
        },
        {
          "indexed": false,
          "internalType": "uint256",
          "name": "curatorTokenId",
          "type": "uint256"
        },
        {
          "indexed": false,
          "internalType": "uint256",
          "name": "curatorTokenAmount",
          "type": "uint256"
        },
        {
          "indexed": false,
          "internalType": "uint256",
          "name": "takerTokenAmount",
          "type": "uint256"
        }
      ],
      "name": "ReactionsSpent",
      "type": "event"
    },
    {
      "anonymous": false,
      "inputs": [
        {
          "indexed": false,
          "internalType": "address",
          "name": "referrer",
          "type": "address"
        },
        {
          "indexed": false,
          "internalType": "contract IERC20Upgradeable",
          "name": "paymentToken",
          "type": "address"
        },
        {
          "indexed": false,
          "internalType": "uint256",
          "name": "amount",
          "type": "uint256"
        },
        {
          "indexed": false,
          "internalType": "uint256",
          "name": "reactionId",
          "type": "uint256"
        }
      ],
      "name": "ReferrerRewardsGranted",
      "type": "event"
    },
    {
      "anonymous": false,
      "inputs": [
        {
          "indexed": true,
          "internalType": "uint256",
          "name": "curatorTokenId",
          "type": "uint256"
        },
        {
          "indexed": false,
          "internalType": "uint256",
          "name": "curatorTokensSold",
          "type": "uint256"
        },
        {
          "indexed": false,
          "internalType": "uint256",
          "name": "paymentTokenTaker",
          "type": "uint256"
        },
        {
          "indexed": false,
          "internalType": "uint256",
          "name": "paymentTokenCreator",
          "type": "uint256"
        }
      ],
      "name": "TakerWithdraw",
      "type": "event"
    },
    {
      "inputs": [],
      "name": "REACTION_META_PREFIX",
      "outputs": [
        {
          "internalType": "string",
          "name": "",
          "type": "string"
        }
      ],
      "stateMutability": "view",
      "type": "function"
    },
    {
      "inputs": [],
      "name": "addressManager",
      "outputs": [
        {
          "internalType": "contract IAddressManager",
          "name": "",
          "type": "address"
        }
      ],
      "stateMutability": "view",
      "type": "function"
    },
    {
      "inputs": [
        {
          "internalType": "uint256",
          "name": "transformId",
          "type": "uint256"
        },
        {
          "internalType": "uint256",
          "name": "quantity",
          "type": "uint256"
        },
        {
          "internalType": "address",
          "name": "referrer",
          "type": "address"
        },
        {
          "internalType": "uint256",
          "name": "optionBits",
          "type": "uint256"
        },
        {
          "internalType": "uint256",
          "name": "takerNftChainId",
          "type": "uint256"
        },
        {
          "internalType": "address",
          "name": "takerNftAddress",
          "type": "address"
        },
        {
          "internalType": "uint256",
          "name": "takerNftId",
          "type": "uint256"
        },
        {
          "internalType": "address",
          "name": "curatorVaultOverride",
          "type": "address"
        },
        {
          "internalType": "string",
          "name": "ipfsMetadataHash",
          "type": "string"
        }
      ],
      "name": "buyAndSpendReaction",
      "outputs": [],
      "stateMutability": "nonpayable",
      "type": "function"
    },
    {
      "inputs": [
        {
          "internalType": "uint256",
          "name": "transformId",
          "type": "uint256"
        },
        {
          "internalType": "uint256",
          "name": "quantity",
          "type": "uint256"
        },
        {
          "internalType": "address",
          "name": "destinationWallet",
          "type": "address"
        },
        {
          "internalType": "address",
          "name": "referrer",
          "type": "address"
        },
        {
          "internalType": "uint256",
          "name": "optionBits",
          "type": "uint256"
        }
      ],
      "name": "buyReaction",
      "outputs": [],
      "stateMutability": "nonpayable",
      "type": "function"
    },
    {
      "inputs": [
        {
          "internalType": "contract IParameterManager",
          "name": "parameterManager",
          "type": "address"
        }
      ],
      "name": "deriveParameterVersion",
      "outputs": [
        {
          "internalType": "uint256",
          "name": "",
          "type": "uint256"
        }
      ],
      "stateMutability": "nonpayable",
      "type": "function"
    },
    {
      "inputs": [
        {
          "internalType": "uint256",
          "name": "transformId",
          "type": "uint256"
        },
        {
          "internalType": "uint256",
          "name": "optionBits",
          "type": "uint256"
        },
        {
          "internalType": "uint256",
          "name": "parameterVersion",
          "type": "uint256"
        }
      ],
      "name": "deriveReactionId",
      "outputs": [
        {
          "internalType": "uint256",
          "name": "",
          "type": "uint256"
        }
      ],
      "stateMutability": "pure",
      "type": "function"
    },
    {
      "inputs": [
        {
          "internalType": "contract IAddressManager",
          "name": "_addressManager",
          "type": "address"
        }
      ],
      "name": "initialize",
      "outputs": [],
      "stateMutability": "nonpayable",
      "type": "function"
    },
    {
      "inputs": [
        {
          "internalType": "uint256",
          "name": "",
          "type": "uint256"
        }
      ],
      "name": "nftOwnerRewards",
      "outputs": [
        {
          "internalType": "uint256",
          "name": "",
          "type": "uint256"
        }
      ],
      "stateMutability": "view",
      "type": "function"
    },
    {
      "inputs": [
        {
          "internalType": "address",
          "name": "",
          "type": "address"
        },
        {
          "internalType": "address",
          "name": "",
          "type": "address"
        },
        {
          "internalType": "uint256[]",
          "name": "",
          "type": "uint256[]"
        },
        {
          "internalType": "uint256[]",
          "name": "",
          "type": "uint256[]"
        },
        {
          "internalType": "bytes",
          "name": "",
          "type": "bytes"
        }
      ],
      "name": "onERC1155BatchReceived",
      "outputs": [
        {
          "internalType": "bytes4",
          "name": "",
          "type": "bytes4"
        }
      ],
      "stateMutability": "nonpayable",
      "type": "function"
    },
    {
      "inputs": [
        {
          "internalType": "address",
          "name": "",
          "type": "address"
        },
        {
          "internalType": "address",
          "name": "",
          "type": "address"
        },
        {
          "internalType": "uint256",
          "name": "",
          "type": "uint256"
        },
        {
          "internalType": "uint256",
          "name": "",
          "type": "uint256"
        },
        {
          "internalType": "bytes",
          "name": "",
          "type": "bytes"
        }
      ],
      "name": "onERC1155Received",
      "outputs": [
        {
          "internalType": "bytes4",
          "name": "",
          "type": "bytes4"
        }
      ],
      "stateMutability": "nonpayable",
      "type": "function"
    },
    {
      "inputs": [
        {
          "internalType": "contract IERC20Upgradeable",
          "name": "",
          "type": "address"
        },
        {
          "internalType": "address",
          "name": "",
          "type": "address"
        }
      ],
      "name": "ownerToRewardsMapping",
      "outputs": [
        {
          "internalType": "uint256",
          "name": "",
          "type": "uint256"
        }
      ],
      "stateMutability": "view",
      "type": "function"
    },
    {
      "inputs": [
        {
          "internalType": "uint256",
          "name": "",
          "type": "uint256"
        }
      ],
      "name": "reactionPriceDetailsMapping",
      "outputs": [
        {
          "internalType": "contract IERC20Upgradeable",
          "name": "paymentToken",
          "type": "address"
        },
        {
          "internalType": "uint256",
          "name": "reactionPrice",
          "type": "uint256"
        },
        {
          "internalType": "uint256",
          "name": "saleCuratorLiabilityBasisPoints",
          "type": "uint256"
        }
      ],
      "stateMutability": "view",
      "type": "function"
    },
    {
      "inputs": [
        {
          "internalType": "uint256",
          "name": "takerNftChainId",
          "type": "uint256"
        },
        {
          "internalType": "address",
          "name": "takerNftAddress",
          "type": "address"
        },
        {
          "internalType": "uint256",
          "name": "takerNftId",
          "type": "uint256"
        },
        {
          "internalType": "uint256",
          "name": "reactionId",
          "type": "uint256"
        },
        {
          "internalType": "uint256",
          "name": "reactionQuantity",
          "type": "uint256"
        },
        {
          "internalType": "address",
          "name": "referrer",
          "type": "address"
        },
        {
          "internalType": "address",
          "name": "curatorVaultOverride",
          "type": "address"
        },
        {
          "internalType": "string",
          "name": "ipfsMetadataHash",
          "type": "string"
        }
      ],
      "name": "spendReaction",
      "outputs": [],
      "stateMutability": "nonpayable",
      "type": "function"
    },
    {
      "inputs": [
        {
          "internalType": "bytes4",
          "name": "interfaceId",
          "type": "bytes4"
        }
      ],
      "name": "supportsInterface",
      "outputs": [
        {
          "internalType": "bool",
          "name": "",
          "type": "bool"
        }
      ],
      "stateMutability": "view",
      "type": "function"
    },
    {
      "inputs": [
        {
          "internalType": "contract IERC20Upgradeable",
          "name": "token",
          "type": "address"
        }
      ],
      "name": "withdrawErc20Rewards",
      "outputs": [
        {
          "internalType": "uint256",
          "name": "",
          "type": "uint256"
        }
      ],
      "stateMutability": "nonpayable",
      "type": "function"
    },
    {
      "inputs": [
        {
          "internalType": "uint256",
          "name": "takerNftChainId",
          "type": "uint256"
        },
        {
          "internalType": "address",
          "name": "takerNftAddress",
          "type": "address"
        },
        {
          "internalType": "uint256",
          "name": "takerNftId",
          "type": "uint256"
        },
        {
          "internalType": "contract IERC20Upgradeable",
          "name": "paymentToken",
          "type": "address"
        },
        {
          "internalType": "address",
          "name": "curatorVault",
          "type": "address"
        },
        {
          "internalType": "uint256",
          "name": "curatorTokenId",
          "type": "uint256"
        },
        {
          "internalType": "uint256",
          "name": "tokensToBurn",
          "type": "uint256"
        },
        {
          "internalType": "address",
          "name": "refundToAddress",
          "type": "address"
        }
      ],
      "name": "withdrawTakerRewards",
      "outputs": [
        {
          "internalType": "uint256",
          "name": "",
          "type": "uint256"
        }
      ],
      "stateMutability": "nonpayable",
      "type": "function"
    }
  ],
  "transactionHash": "0xec0223094648233eee5ac1097ad5522f9563680d2afb59d16940813190507162",
  "args": [],
  "numDeployments": 1,
  "solcInputHash": "e5086af1310b7ca1d6194e2a0e3afebd",
  "bytecode": "0x608060405234801561001057600080fd5b50615548806100206000396000f3fe608060405234801561001057600080fd5b50600436106100ff5760003560e01c806388415f8e11610097578063c4d66de811610066578063c4d66de8146102f8578063e46f7e9c14610314578063f23a6e6114610332578063f9f280d314610362576100ff565b806388415f8e1461024c578063928102a21461027c578063a3b1404f146102ac578063bc197c81146102c8576100ff565b806343f68bcb116100d357806343f68bcb146101a057806352085328146101d0578063755443ce14610200578063809e13491461021c576100ff565b8062722e101461010457806301ffc9a7146101365780630c4900e4146101665780633ab76e9f14610182575b600080fd5b61011e60048036038101906101199190613691565b610392565b60405161012d9392919061374c565b60405180910390f35b610150600480360381019061014b91906137db565b6103dc565b60405161015d9190613823565b60405180910390f35b610180600480360381019061017b919061387c565b610456565b005b61018a6104bf565b6040516101979190613918565b60405180910390f35b6101ba60048036038101906101b59190613933565b6104e5565b6040516101c79190613986565b60405180910390f35b6101ea60048036038101906101e59190613691565b610555565b6040516101f79190613986565b60405180910390f35b61021a60048036038101906102159190613ae7565b61056d565b005b61023660048036038101906102319190613bf7565b6105dc565b6040516102439190613986565b60405180910390f35b61026660048036038101906102619190613c75565b610601565b6040516102739190613986565b60405180910390f35b61029660048036038101906102919190613ca2565b6107b5565b6040516102a39190613986565b60405180910390f35b6102c660048036038101906102c19190613ccf565b6109c1565b005b6102e260048036038101906102dd9190613f1e565b610afd565b6040516102ef9190613ffc565b60405180910390f35b610312600480360381019061030d9190614055565b610b12565b005b61031c610d0a565b604051610329919061410a565b60405180910390f35b61034c6004803603810190610347919061412c565b610d43565b6040516103599190613ffc565b60405180910390f35b61037c600480360381019061037791906141c3565b610d58565b6040516103899190613986565b60405180910390f35b60cb6020528060005260406000206000915090508060000160009054906101000a900473ffffffffffffffffffffffffffffffffffffffff16908060010154908060020154905083565b60007f4e2312e0000000000000000000000000000000000000000000000000000000007bffffffffffffffffffffffffffffffffffffffffffffffffffffffff1916827bffffffffffffffffffffffffffffffffffffffffffffffffffffffff1916148061044f575061044e8261155f565b5b9050919050565b6002600154141561049c576040517f08c379a0000000000000000000000000000000000000000000000000000000008152600401610493906142c5565b60405180910390fd5b60026001819055506104b185858585856115c9565b600180819055505050505050565b60c960009054906101000a900473ffffffffffffffffffffffffffffffffffffffff1681565b60006040518060400160405280600881526020017f5245414354494f4e00000000000000000000000000000000000000000000000081525082858560405160200161053394939291906142e5565b6040516020818303038152906040528051906020012060001c90509392505050565b60cc6020528060005260406000206000915090505481565b600260015414156105b3576040517f08c379a00000000000000000000000000000000000000000000000000000000081526004016105aa906142c5565b60405180910390fd5b60026001819055506105cb8888888888888888612384565b600180819055505050505050505050565b60ca602052816000526040600020602052806000526040600020600091509150505481565b60008173ffffffffffffffffffffffffffffffffffffffff16633013ce296040518163ffffffff1660e01b8152600401602060405180830381600087803b15801561064b57600080fd5b505af115801561065f573d6000803e3d6000fd5b505050506040513d601f19601f820116820180604052508101906106839190614346565b8273ffffffffffffffffffffffffffffffffffffffff16635ddb0cf26040518163ffffffff1660e01b8152600401602060405180830381600087803b1580156106cb57600080fd5b505af11580156106df573d6000803e3d6000fd5b505050506040513d601f19601f820116820180604052508101906107039190614388565b8373ffffffffffffffffffffffffffffffffffffffff1663f93c0d796040518163ffffffff1660e01b8152600401602060405180830381600087803b15801561074b57600080fd5b505af115801561075f573d6000803e3d6000fd5b505050506040513d601f19601f820116820180604052508101906107839190614388565b6040516020016107959392919061374c565b6040516020818303038152906040528051906020012060001c9050919050565b6000600260015414156107fd576040517f08c379a00000000000000000000000000000000000000000000000000000000081526004016107f4906142c5565b60405180910390fd5b6002600181905550600060ca60008473ffffffffffffffffffffffffffffffffffffffff1673ffffffffffffffffffffffffffffffffffffffff16815260200190815260200160002060003373ffffffffffffffffffffffffffffffffffffffff1673ffffffffffffffffffffffffffffffffffffffff168152602001908152602001600020549050600081116108c9576040517f08c379a00000000000000000000000000000000000000000000000000000000081526004016108c090614401565b60405180910390fd5b600060ca60008573ffffffffffffffffffffffffffffffffffffffff1673ffffffffffffffffffffffffffffffffffffffff16815260200190815260200160002060003373ffffffffffffffffffffffffffffffffffffffff1673ffffffffffffffffffffffffffffffffffffffff1681526020019081526020016000208190555061097633828573ffffffffffffffffffffffffffffffffffffffff16612ff49092919063ffffffff16565b7f712edeb933a34d503bfa8233af370724a7a1b075f66b706f95f1ab64049532dc8382336040516109a993929190614430565b60405180910390a18091505060018081905550919050565b60026001541415610a07576040517f08c379a00000000000000000000000000000000000000000000000000000000081526004016109fe906142c5565b60405180910390fd5b6002600181905550610a1c8989338a8a6115c9565b6000610ac860c960009054906101000a900473ffffffffffffffffffffffffffffffffffffffff1673ffffffffffffffffffffffffffffffffffffffff1663b27bcea16040518163ffffffff1660e01b8152600401602060405180830381600087803b158015610a8b57600080fd5b505af1158015610a9f573d6000803e3d6000fd5b505050506040513d601f19601f82011682018060405250810190610ac3919061447c565b610601565b90506000610ad78b89846104e5565b9050610ae9878787848e8e8a8a612384565b505060018081905550505050505050505050565b600063bc197c8160e01b905095945050505050565b60008060019054906101000a900460ff16159050808015610b435750600160008054906101000a900460ff1660ff16105b80610b705750610b523061307a565b158015610b6f5750600160008054906101000a900460ff1660ff16145b5b610baf576040517f08c379a0000000000000000000000000000000000000000000000000000000008152600401610ba69061451b565b60405180910390fd5b60016000806101000a81548160ff021916908360ff1602179055508015610bec576001600060016101000a81548160ff0219169083151502179055505b600073ffffffffffffffffffffffffffffffffffffffff168273ffffffffffffffffffffffffffffffffffffffff161415610c5c576040517f08c379a0000000000000000000000000000000000000000000000000000000008152600401610c5390614401565b60405180910390fd5b610c6461309d565b610c6c6130f6565b8160c960006101000a81548173ffffffffffffffffffffffffffffffffffffffff021916908373ffffffffffffffffffffffffffffffffffffffff1602179055508015610d065760008060016101000a81548160ff0219169083151502179055507f7f26b83ff96e1f2b6a682f133852f6798a09c465da95921460cefb38474024986001604051610cfd9190614583565b60405180910390a15b5050565b6040518060400160405280600881526020017f5245414354494f4e00000000000000000000000000000000000000000000000081525081565b600063f23a6e6160e01b905095945050505050565b600060026001541415610da0576040517f08c379a0000000000000000000000000000000000000000000000000000000008152600401610d97906142c5565b60405180910390fd5b6002600181905550610db0613482565b8989898888604051602001610dc995949392919061459e565b6040516020818303038152906040528051906020012060001c81600001818152505060cc600082600001518152602001908152602001600020548160200181815250506000816020015111610e53576040517f08c379a0000000000000000000000000000000000000000000000000000000008152600401610e4a9061463d565b60405180910390fd5b8381602001511015610e9a576040517f08c379a0000000000000000000000000000000000000000000000000000000008152600401610e91906146a9565b60405180910390fd5b60c960009054906101000a900473ffffffffffffffffffffffffffffffffffffffff1673ffffffffffffffffffffffffffffffffffffffff1663363f8a656040518163ffffffff1660e01b8152600401602060405180830381600087803b158015610f0457600080fd5b505af1158015610f18573d6000803e3d6000fd5b505050506040513d601f19601f82011682018060405250810190610f3c9190614707565b73ffffffffffffffffffffffffffffffffffffffff1663c93b76c98b8b8b6040518463ffffffff1660e01b8152600401610f7893929190614734565b602060405180830381600087803b158015610f9257600080fd5b505af1158015610fa6573d6000803e3d6000fd5b505050506040513d601f19601f82011682018060405250810190610fca9190614388565b816040018181525050600060c960009054906101000a900473ffffffffffffffffffffffffffffffffffffffff1673ffffffffffffffffffffffffffffffffffffffff1663363f8a656040518163ffffffff1660e01b8152600401602060405180830381600087803b15801561103f57600080fd5b505af1158015611053573d6000803e3d6000fd5b505050506040513d601f19601f820116820180604052508101906110779190614707565b73ffffffffffffffffffffffffffffffffffffffff1663c46bd37983604001516040518263ffffffff1660e01b81526004016110b39190613986565b600060405180830381600087803b1580156110cd57600080fd5b505af11580156110e1573d6000803e3d6000fd5b505050506040513d6000823e3d601f19601f8201168201806040525081019061110a91906149c0565b90508060000151611150576040517f08c379a000000000000000000000000000000000000000000000000000000000815260040161114790614a55565b60405180910390fd5b3373ffffffffffffffffffffffffffffffffffffffff16816020015173ffffffffffffffffffffffffffffffffffffffff16146111c2576040517f08c379a00000000000000000000000000000000000000000000000000000000081526004016111b990614ac1565b60405180910390fd5b8673ffffffffffffffffffffffffffffffffffffffff16631f2a8b068c8c8c8c8a306040518763ffffffff1660e01b815260040161120596959493929190614ae1565b602060405180830381600087803b15801561121f57600080fd5b505af1158015611233573d6000803e3d6000fd5b505050506040513d601f19601f820116820180604052508101906112579190614388565b8260600181815250508460cc60008460000151815260200190815260200160002060008282546112879190614b71565b92505081905550816060015182608001818152505060005b8160400151518161ffff1610156114cf57600073ffffffffffffffffffffffffffffffffffffffff1682604001518261ffff16815181106112e3576112e2614ba5565b5b602002602001015173ffffffffffffffffffffffffffffffffffffffff16141580156113315750600082606001518261ffff168151811061132757611326614ba5565b5b6020026020010151115b156114bc5761271082606001518261ffff168151811061135457611353614ba5565b5b6020026020010151846080015161136b9190614bd4565b6113759190614c5d565b8360a00181815250508260a0015160ca60008b73ffffffffffffffffffffffffffffffffffffffff1673ffffffffffffffffffffffffffffffffffffffff168152602001908152602001600020600084604001518461ffff16815181106113df576113de614ba5565b5b602002602001015173ffffffffffffffffffffffffffffffffffffffff1673ffffffffffffffffffffffffffffffffffffffff16815260200190815260200160002060008282546114309190614c8e565b925050819055507fd20a9dd733d530d6ff5f314da5a1f73608e0c9328eb459d5971312a7ce6cc21982604001518261ffff168151811061147357611472614ba5565b5b60200260200101518a8560a0015186604001516040516114969493929190614ce4565b60405180910390a18260a00151836060018181516114b49190614b71565b915081815250505b80806114c790614d37565b91505061129f565b506114ff8483606001518a73ffffffffffffffffffffffffffffffffffffffff16612ff49092919063ffffffff16565b857f4c40c89db5040d698d0dbf90d038439e9b000825016629b1f353529085d6a7bf8684606001518560a0015160405161153b93929190614d62565b60405180910390a28160600151925050506001808190555098975050505050505050565b60007f01ffc9a7000000000000000000000000000000000000000000000000000000007bffffffffffffffffffffffffffffffffffffffffffffffffffffffff1916827bffffffffffffffffffffffffffffffffffffffffffffffffffffffff1916149050919050565b6000841161160c576040517f08c379a000000000000000000000000000000000000000000000000000000000815260040161160390614401565b60405180910390fd5b6116146134b8565b60c960009054906101000a900473ffffffffffffffffffffffffffffffffffffffff1673ffffffffffffffffffffffffffffffffffffffff1663363f8a656040518163ffffffff1660e01b8152600401602060405180830381600087803b15801561167e57600080fd5b505af1158015611692573d6000803e3d6000fd5b505050506040513d601f19601f820116820180604052508101906116b69190614707565b816000019073ffffffffffffffffffffffffffffffffffffffff16908173ffffffffffffffffffffffffffffffffffffffff1681525050806000015173ffffffffffffffffffffffffffffffffffffffff166394b99569876040518263ffffffff1660e01b815260040161172a9190613986565b602060405180830381600087803b15801561174457600080fd5b505af1158015611758573d6000803e3d6000fd5b505050506040513d601f19601f8201168201806040525081019061177c9190614388565b8160400181815250506000816040015114156117cd576040517f08c379a00000000000000000000000000000000000000000000000000000000081526004016117c490614de5565b60405180910390fd5b806000015173ffffffffffffffffffffffffffffffffffffffff1663c46bd37982604001516040518263ffffffff1660e01b815260040161180e9190613986565b600060405180830381600087803b15801561182857600080fd5b505af115801561183c573d6000803e3d6000fd5b505050506040513d6000823e3d601f19601f8201168201806040525081019061186591906149c0565b81606001819052508060600151600001516118b5576040517f08c379a00000000000000000000000000000000000000000000000000000000081526004016118ac90614a55565b60405180910390fd5b60c960009054906101000a900473ffffffffffffffffffffffffffffffffffffffff1673ffffffffffffffffffffffffffffffffffffffff1663b27bcea16040518163ffffffff1660e01b8152600401602060405180830381600087803b15801561191f57600080fd5b505af1158015611933573d6000803e3d6000fd5b505050506040513d601f19601f82011682018060405250810190611957919061447c565b816020019073ffffffffffffffffffffffffffffffffffffffff16908173ffffffffffffffffffffffffffffffffffffffff16815250506000816020015173ffffffffffffffffffffffffffffffffffffffff16633013ce296040518163ffffffff1660e01b8152600401602060405180830381600087803b1580156119dc57600080fd5b505af11580156119f0573d6000803e3d6000fd5b505050506040513d601f19601f82011682018060405250810190611a149190614346565b9050816020015173ffffffffffffffffffffffffffffffffffffffff16635ddb0cf26040518163ffffffff1660e01b8152600401602060405180830381600087803b158015611a6257600080fd5b505af1158015611a76573d6000803e3d6000fd5b505050506040513d601f19601f82011682018060405250810190611a9a9190614388565b826080018181525050858260800151611ab39190614bd4565b8260a0018181525050611ac98260200151610601565b82610180018181525050611ae387848461018001516104e5565b8261016001818152505060008260e0018181525050600073ffffffffffffffffffffffffffffffffffffffff168473ffffffffffffffffffffffffffffffffffffffff1614611cb3576127108260a00151836020015173ffffffffffffffffffffffffffffffffffffffff1663f467320e6040518163ffffffff1660e01b8152600401602060405180830381600087803b158015611b8057600080fd5b505af1158015611b94573d6000803e3d6000fd5b505050506040513d601f19601f82011682018060405250810190611bb89190614388565b611bc29190614bd4565b611bcc9190614c5d565b8260e00181815250508160e0015160ca60008373ffffffffffffffffffffffffffffffffffffffff1673ffffffffffffffffffffffffffffffffffffffff16815260200190815260200160002060008673ffffffffffffffffffffffffffffffffffffffff1673ffffffffffffffffffffffffffffffffffffffff1681526020019081526020016000206000828254611c659190614c8e565b925050819055507fcae8f06f6239452c3a95ac7735981695a2862cac824988341cae89250e21f7ce84828460e00151856101600151604051611caa9493929190614ce4565b60405180910390a15b6000826020015173ffffffffffffffffffffffffffffffffffffffff1663f93c0d796040518163ffffffff1660e01b8152600401602060405180830381600087803b158015611d0157600080fd5b505af1158015611d15573d6000803e3d6000fd5b505050506040513d601f19601f82011682018060405250810190611d399190614388565b90506127108360a0015182611d4e9190614bd4565b611d589190614c5d565b836101400181815250508261014001518360e001518460a00151611d7c9190614b71565b611d869190614b71565b8361010001818152505060008360c00181815250508261010001518361012001818152505060005b836060015160400151518161ffff161015611ff957600073ffffffffffffffffffffffffffffffffffffffff168460600151604001518261ffff1681518110611dfa57611df9614ba5565b5b602002602001015173ffffffffffffffffffffffffffffffffffffffff1614158015611e4c575060008460600151606001518261ffff1681518110611e4257611e41614ba5565b5b6020026020010151115b15611fe6576127108461012001518560600151606001518361ffff1681518110611e7957611e78614ba5565b5b6020026020010151611e8b9190614bd4565b611e959190614c5d565b8460c00181815250508360c0015160ca60008573ffffffffffffffffffffffffffffffffffffffff1673ffffffffffffffffffffffffffffffffffffffff16815260200190815260200160002060008660600151604001518461ffff1681518110611f0357611f02614ba5565b5b602002602001015173ffffffffffffffffffffffffffffffffffffffff1673ffffffffffffffffffffffffffffffffffffffff1681526020019081526020016000206000828254611f549190614c8e565b925050819055507fd20a9dd733d530d6ff5f314da5a1f73608e0c9328eb459d5971312a7ce6cc2198460600151604001518261ffff1681518110611f9b57611f9a614ba5565b5b6020026020010151848660c00151876101600151604051611fbf9493929190614ce4565b60405180910390a18360c001518461010001818151611fde9190614b71565b915081815250505b8080611ff190614d37565b915050611dae565b5082610100015160ca60008473ffffffffffffffffffffffffffffffffffffffff1673ffffffffffffffffffffffffffffffffffffffff168152602001908152602001600020600085606001516020015173ffffffffffffffffffffffffffffffffffffffff1673ffffffffffffffffffffffffffffffffffffffff16815260200190815260200160002060008282546120939190614c8e565b925050819055507fbc6998d896bf22ea1228e704a40269ce0bb6a59c6eb57cafaa7d86c08d9bc923836060015160200151838561010001518661016001516040516120e19493929190614ce4565b60405180910390a160405180606001604052808373ffffffffffffffffffffffffffffffffffffffff168152602001846080015181526020018281525060cb6000856101600151815260200190815260200160002060008201518160000160006101000a81548173ffffffffffffffffffffffffffffffffffffffff021916908373ffffffffffffffffffffffffffffffffffffffff16021790555060208201518160010155604082015181600201559050506121c533308560a001518573ffffffffffffffffffffffffffffffffffffffff16613147909392919063ffffffff16565b600060c960009054906101000a900473ffffffffffffffffffffffffffffffffffffffff1673ffffffffffffffffffffffffffffffffffffffff166376104ad56040518163ffffffff1660e01b8152600401602060405180830381600087803b15801561223157600080fd5b505af1158015612245573d6000803e3d6000fd5b505050506040513d601f19601f820116820180604052508101906122699190614e43565b90508073ffffffffffffffffffffffffffffffffffffffff1663731133e9888661016001518b600067ffffffffffffffff8111156122aa576122a96139bc565b5b6040519080825280601f01601f1916602001820160405280156122dc5781602001600182028036833780820191505090505b506040518563ffffffff1660e01b81526004016122fc9493929190614ec5565b600060405180830381600087803b15801561231657600080fd5b505af115801561232a573d6000803e3d6000fd5b505050507f0bdc7ecab592c309e746a1dfcb1a7749f6c964110b1e87b70f33da3db038e3918989898988610160015189610180015160405161237196959493929190614f11565b60405180910390a1505050505050505050565b600084116123c7576040517f08c379a00000000000000000000000000000000000000000000000000000000081526004016123be90614401565b60405180910390fd5b6123cf613552565b60c960009054906101000a900473ffffffffffffffffffffffffffffffffffffffff1673ffffffffffffffffffffffffffffffffffffffff166376104ad56040518163ffffffff1660e01b8152600401602060405180830381600087803b15801561243957600080fd5b505af115801561244d573d6000803e3d6000fd5b505050506040513d601f19601f820116820180604052508101906124719190614e43565b816000019073ffffffffffffffffffffffffffffffffffffffff16908173ffffffffffffffffffffffffffffffffffffffff1681525050806000015173ffffffffffffffffffffffffffffffffffffffff1663f5298aca3388886040518463ffffffff1660e01b81526004016124e993929190614f72565b600060405180830381600087803b15801561250357600080fd5b505af1158015612517573d6000803e3d6000fd5b5050505060cb60008781526020019081526020016000206040518060600160405290816000820160009054906101000a900473ffffffffffffffffffffffffffffffffffffffff1673ffffffffffffffffffffffffffffffffffffffff1673ffffffffffffffffffffffffffffffffffffffff168152602001600182015481526020016002820154815250508160200181905250612710858260200151604001518360200151602001516125cb9190614bd4565b6125d59190614bd4565b6125df9190614c5d565b816040018181525050600073ffffffffffffffffffffffffffffffffffffffff168473ffffffffffffffffffffffffffffffffffffffff161461286857612710816040015160c960009054906101000a900473ffffffffffffffffffffffffffffffffffffffff1673ffffffffffffffffffffffffffffffffffffffff1663b27bcea16040518163ffffffff1660e01b8152600401602060405180830381600087803b15801561268e57600080fd5b505af11580156126a2573d6000803e3d6000fd5b505050506040513d601f19601f820116820180604052508101906126c6919061447c565b73ffffffffffffffffffffffffffffffffffffffff1663cc22c3e26040518163ffffffff1660e01b8152600401602060405180830381600087803b15801561270d57600080fd5b505af1158015612721573d6000803e3d6000fd5b505050506040513d601f19601f820116820180604052508101906127459190614388565b61274f9190614bd4565b6127599190614c5d565b816060018181525050806060015160ca600083602001516000015173ffffffffffffffffffffffffffffffffffffffff1673ffffffffffffffffffffffffffffffffffffffff16815260200190815260200160002060008673ffffffffffffffffffffffffffffffffffffffff1673ffffffffffffffffffffffffffffffffffffffff16815260200190815260200160002060008282546127fa9190614c8e565b925050819055507fcae8f06f6239452c3a95ac7735981695a2862cac824988341cae89250e21f7ce848260200151600001518360600151896040516128429493929190614ce4565b60405180910390a18060600151816040018181516128609190614b71565b915081815250505b61271060c960009054906101000a900473ffffffffffffffffffffffffffffffffffffffff1673ffffffffffffffffffffffffffffffffffffffff1663b27bcea16040518163ffffffff1660e01b8152600401602060405180830381600087803b1580156128d557600080fd5b505af11580156128e9573d6000803e3d6000fd5b505050506040513d601f19601f8201168201806040525081019061290d919061447c565b73ffffffffffffffffffffffffffffffffffffffff1662ac1c5a6040518163ffffffff1660e01b8152600401602060405180830381600087803b15801561295357600080fd5b505af1158015612967573d6000803e3d6000fd5b505050506040513d601f19601f8201168201806040525081019061298b9190614388565b826040015161299a9190614bd4565b6129a49190614c5d565b816080018181525050806080015181604001516129c19190614b71565b8160a001818152505060c960009054906101000a900473ffffffffffffffffffffffffffffffffffffffff1673ffffffffffffffffffffffffffffffffffffffff16636fdfe8c56040518163ffffffff1660e01b8152600401602060405180830381600087803b158015612a3457600080fd5b505af1158015612a48573d6000803e3d6000fd5b505050506040513d601f19601f82011682018060405250810190612a6c9190614fe7565b8160c0019073ffffffffffffffffffffffffffffffffffffffff16908173ffffffffffffffffffffffffffffffffffffffff1681525050600073ffffffffffffffffffffffffffffffffffffffff168373ffffffffffffffffffffffffffffffffffffffff1614612c7b5760c960009054906101000a900473ffffffffffffffffffffffffffffffffffffffff1673ffffffffffffffffffffffffffffffffffffffff1663b27bcea16040518163ffffffff1660e01b8152600401602060405180830381600087803b158015612b4157600080fd5b505af1158015612b55573d6000803e3d6000fd5b505050506040513d601f19601f82011682018060405250810190612b79919061447c565b73ffffffffffffffffffffffffffffffffffffffff166373cf2a67846040518263ffffffff1660e01b8152600401612bb19190615014565b602060405180830381600087803b158015612bcb57600080fd5b505af1158015612bdf573d6000803e3d6000fd5b505050506040513d601f19601f82011682018060405250810190612c03919061502f565b612c42576040517f08c379a0000000000000000000000000000000000000000000000000000000008152600401612c39906150a8565b60405180910390fd5b828160c0019073ffffffffffffffffffffffffffffffffffffffff16908173ffffffffffffffffffffffffffffffffffffffff16815250505b60008160c0015173ffffffffffffffffffffffffffffffffffffffff166317e1816c8b8b8b8660200151600001516040518563ffffffff1660e01b8152600401612cc894939291906150c8565b602060405180830381600087803b158015612ce257600080fd5b505af1158015612cf6573d6000803e3d6000fd5b505050506040513d601f19601f82011682018060405250810190612d1a9190614388565b905081602001516000015173ffffffffffffffffffffffffffffffffffffffff1663095ea7b38360c0015184604001516040518363ffffffff1660e01b8152600401612d6792919061510d565b602060405180830381600087803b158015612d8157600080fd5b505af1158015612d95573d6000803e3d6000fd5b505050506040513d601f19601f82011682018060405250810190612db9919061502f565b508160c0015173ffffffffffffffffffffffffffffffffffffffff166367e9dbcb8b8b8b86602001516000015187608001513060016040518863ffffffff1660e01b8152600401612e109796959493929190615136565b602060405180830381600087803b158015612e2a57600080fd5b505af1158015612e3e573d6000803e3d6000fd5b505050506040513d601f19601f82011682018060405250810190612e629190614388565b8260e001818152505060008a8a8a8560c0015185604051602001612e8a95949392919061459e565b6040516020818303038152906040528051906020012060001c90508260e0015160cc60008381526020019081526020016000206000828254612ecc9190614c8e565b925050819055508260c0015173ffffffffffffffffffffffffffffffffffffffff166367e9dbcb8c8c8c8760200151600001518860a001513360006040518863ffffffff1660e01b8152600401612f299796959493929190615136565b602060405180830381600087803b158015612f4357600080fd5b505af1158015612f57573d6000803e3d6000fd5b505050506040513d601f19601f82011682018060405250810190612f7b9190614388565b836101000181815250507f57df605d24620af344b1b7b2f4a2e11706c95c73e45d9c0dd804564579db6dc28b8b8b8b8760200151600001518c8a8d8b60c001518b8d61010001518e60e00151604051612fdf9c9b9a999897969594939291906151a5565b60405180910390a15050505050505050505050565b6130758363a9059cbb60e01b848460405160240161301392919061510d565b604051602081830303815290604052907bffffffffffffffffffffffffffffffffffffffffffffffffffffffff19166020820180517bffffffffffffffffffffffffffffffffffffffffffffffffffffffff83818316178352505050506131d0565b505050565b6000808273ffffffffffffffffffffffffffffffffffffffff163b119050919050565b600060019054906101000a900460ff166130ec576040517f08c379a00000000000000000000000000000000000000000000000000000000081526004016130e3906152d8565b60405180910390fd5b6130f4613297565b565b600060019054906101000a900460ff16613145576040517f08c379a000000000000000000000000000000000000000000000000000000000815260040161313c906152d8565b60405180910390fd5b565b6131ca846323b872dd60e01b858585604051602401613168939291906152f8565b604051602081830303815290604052907bffffffffffffffffffffffffffffffffffffffffffffffffffffffff19166020820180517bffffffffffffffffffffffffffffffffffffffffffffffffffffffff83818316178352505050506131d0565b50505050565b6000613232826040518060400160405280602081526020017f5361666545524332303a206c6f772d6c6576656c2063616c6c206661696c65648152508573ffffffffffffffffffffffffffffffffffffffff166132ef9092919063ffffffff16565b90506000815111156132925780806020019051810190613252919061502f565b613291576040517f08c379a0000000000000000000000000000000000000000000000000000000008152600401613288906153a1565b60405180910390fd5b5b505050565b600060019054906101000a900460ff166132e6576040517f08c379a00000000000000000000000000000000000000000000000000000000081526004016132dd906152d8565b60405180910390fd5b60018081905550565b60606132fe8484600085613307565b90509392505050565b60608247101561334c576040517f08c379a000000000000000000000000000000000000000000000000000000000815260040161334390615433565b60405180910390fd5b6133558561307a565b613394576040517f08c379a000000000000000000000000000000000000000000000000000000000815260040161338b9061549f565b60405180910390fd5b6000808673ffffffffffffffffffffffffffffffffffffffff1685876040516133bd91906154fb565b60006040518083038185875af1925050503d80600081146133fa576040519150601f19603f3d011682016040523d82523d6000602084013e6133ff565b606091505b509150915061340f82828661341b565b92505050949350505050565b6060831561342b5782905061347b565b60008351111561343e5782518084602001fd5b816040517f08c379a0000000000000000000000000000000000000000000000000000000008152600401613472919061410a565b60405180910390fd5b9392505050565b6040518060c001604052806000815260200160008152602001600081526020016000815260200160008152602001600081525090565b604051806101a00160405280600073ffffffffffffffffffffffffffffffffffffffff168152602001600073ffffffffffffffffffffffffffffffffffffffff1681526020016000815260200161350d6135d0565b81526020016000815260200160008152602001600081526020016000815260200160008152602001600081526020016000815260200160008152602001600081525090565b604051806101200160405280600073ffffffffffffffffffffffffffffffffffffffff168152602001613583613610565b815260200160008152602001600081526020016000815260200160008152602001600073ffffffffffffffffffffffffffffffffffffffff16815260200160008152602001600081525090565b6040518060800160405280600015158152602001600073ffffffffffffffffffffffffffffffffffffffff16815260200160608152602001606081525090565b6040518060600160405280600073ffffffffffffffffffffffffffffffffffffffff16815260200160008152602001600081525090565b6000604051905090565b600080fd5b600080fd5b6000819050919050565b61366e8161365b565b811461367957600080fd5b50565b60008135905061368b81613665565b92915050565b6000602082840312156136a7576136a6613651565b5b60006136b58482850161367c565b91505092915050565b600073ffffffffffffffffffffffffffffffffffffffff82169050919050565b6000819050919050565b60006137036136fe6136f9846136be565b6136de565b6136be565b9050919050565b6000613715826136e8565b9050919050565b60006137278261370a565b9050919050565b6137378161371c565b82525050565b6137468161365b565b82525050565b6000606082019050613761600083018661372e565b61376e602083018561373d565b61377b604083018461373d565b949350505050565b60007fffffffff0000000000000000000000000000000000000000000000000000000082169050919050565b6137b881613783565b81146137c357600080fd5b50565b6000813590506137d5816137af565b92915050565b6000602082840312156137f1576137f0613651565b5b60006137ff848285016137c6565b91505092915050565b60008115159050919050565b61381d81613808565b82525050565b60006020820190506138386000830184613814565b92915050565b6000613849826136be565b9050919050565b6138598161383e565b811461386457600080fd5b50565b60008135905061387681613850565b92915050565b600080600080600060a0868803121561389857613897613651565b5b60006138a68882890161367c565b95505060206138b78882890161367c565b94505060406138c888828901613867565b93505060606138d988828901613867565b92505060806138ea8882890161367c565b9150509295509295909350565b60006139028261370a565b9050919050565b613912816138f7565b82525050565b600060208201905061392d6000830184613909565b92915050565b60008060006060848603121561394c5761394b613651565b5b600061395a8682870161367c565b935050602061396b8682870161367c565b925050604061397c8682870161367c565b9150509250925092565b600060208201905061399b600083018461373d565b92915050565b600080fd5b600080fd5b6000601f19601f8301169050919050565b7f4e487b7100000000000000000000000000000000000000000000000000000000600052604160045260246000fd5b6139f4826139ab565b810181811067ffffffffffffffff82111715613a1357613a126139bc565b5b80604052505050565b6000613a26613647565b9050613a3282826139eb565b919050565b600067ffffffffffffffff821115613a5257613a516139bc565b5b613a5b826139ab565b9050602081019050919050565b82818337600083830152505050565b6000613a8a613a8584613a37565b613a1c565b905082815260208101848484011115613aa657613aa56139a6565b5b613ab1848285613a68565b509392505050565b600082601f830112613ace57613acd6139a1565b5b8135613ade848260208601613a77565b91505092915050565b600080600080600080600080610100898b031215613b0857613b07613651565b5b6000613b168b828c0161367c565b9850506020613b278b828c01613867565b9750506040613b388b828c0161367c565b9650506060613b498b828c0161367c565b9550506080613b5a8b828c0161367c565b94505060a0613b6b8b828c01613867565b93505060c0613b7c8b828c01613867565b92505060e089013567ffffffffffffffff811115613b9d57613b9c613656565b5b613ba98b828c01613ab9565b9150509295985092959890939650565b6000613bc48261383e565b9050919050565b613bd481613bb9565b8114613bdf57600080fd5b50565b600081359050613bf181613bcb565b92915050565b60008060408385031215613c0e57613c0d613651565b5b6000613c1c85828601613be2565b9250506020613c2d85828601613867565b9150509250929050565b6000613c428261383e565b9050919050565b613c5281613c37565b8114613c5d57600080fd5b50565b600081359050613c6f81613c49565b92915050565b600060208284031215613c8b57613c8a613651565b5b6000613c9984828501613c60565b91505092915050565b600060208284031215613cb857613cb7613651565b5b6000613cc684828501613be2565b91505092915050565b60008060008060008060008060006101208a8c031215613cf257613cf1613651565b5b6000613d008c828d0161367c565b9950506020613d118c828d0161367c565b9850506040613d228c828d01613867565b9750506060613d338c828d0161367c565b9650506080613d448c828d0161367c565b95505060a0613d558c828d01613867565b94505060c0613d668c828d0161367c565b93505060e0613d778c828d01613867565b9250506101008a013567ffffffffffffffff811115613d9957613d98613656565b5b613da58c828d01613ab9565b9150509295985092959850929598565b600067ffffffffffffffff821115613dd057613dcf6139bc565b5b602082029050602081019050919050565b600080fd5b6000613df9613df484613db5565b613a1c565b90508083825260208201905060208402830185811115613e1c57613e1b613de1565b5b835b81811015613e455780613e31888261367c565b845260208401935050602081019050613e1e565b5050509392505050565b600082601f830112613e6457613e636139a1565b5b8135613e74848260208601613de6565b91505092915050565b600067ffffffffffffffff821115613e9857613e976139bc565b5b613ea1826139ab565b9050602081019050919050565b6000613ec1613ebc84613e7d565b613a1c565b905082815260208101848484011115613edd57613edc6139a6565b5b613ee8848285613a68565b509392505050565b600082601f830112613f0557613f046139a1565b5b8135613f15848260208601613eae565b91505092915050565b600080600080600060a08688031215613f3a57613f39613651565b5b6000613f4888828901613867565b9550506020613f5988828901613867565b945050604086013567ffffffffffffffff811115613f7a57613f79613656565b5b613f8688828901613e4f565b935050606086013567ffffffffffffffff811115613fa757613fa6613656565b5b613fb388828901613e4f565b925050608086013567ffffffffffffffff811115613fd457613fd3613656565b5b613fe088828901613ef0565b9150509295509295909350565b613ff681613783565b82525050565b60006020820190506140116000830184613fed565b92915050565b60006140228261383e565b9050919050565b61403281614017565b811461403d57600080fd5b50565b60008135905061404f81614029565b92915050565b60006020828403121561406b5761406a613651565b5b600061407984828501614040565b91505092915050565b600081519050919050565b600082825260208201905092915050565b60005b838110156140bc5780820151818401526020810190506140a1565b838111156140cb576000848401525b50505050565b60006140dc82614082565b6140e6818561408d565b93506140f681856020860161409e565b6140ff816139ab565b840191505092915050565b6000602082019050818103600083015261412481846140d1565b905092915050565b600080600080600060a0868803121561414857614147613651565b5b600061415688828901613867565b955050602061416788828901613867565b94505060406141788882890161367c565b93505060606141898882890161367c565b925050608086013567ffffffffffffffff8111156141aa576141a9613656565b5b6141b688828901613ef0565b9150509295509295909350565b600080600080600080600080610100898b0312156141e4576141e3613651565b5b60006141f28b828c0161367c565b98505060206142038b828c01613867565b97505060406142148b828c0161367c565b96505060606142258b828c01613be2565b95505060806142368b828c01613867565b94505060a06142478b828c0161367c565b93505060c06142588b828c0161367c565b92505060e06142698b828c01613867565b9150509295985092959890939650565b7f5265656e7472616e637947756172643a207265656e7472616e742063616c6c00600082015250565b60006142af601f8361408d565b91506142ba82614279565b602082019050919050565b600060208201905081810360008301526142de816142a2565b9050919050565b600060808201905081810360008301526142ff81876140d1565b905061430e602083018661373d565b61431b604083018561373d565b614328606083018461373d565b95945050505050565b60008151905061434081613bcb565b92915050565b60006020828403121561435c5761435b613651565b5b600061436a84828501614331565b91505092915050565b60008151905061438281613665565b92915050565b60006020828403121561439e5761439d613651565b5b60006143ac84828501614373565b91505092915050565b7f496e76616c6964203020696e7075740000000000000000000000000000000000600082015250565b60006143eb600f8361408d565b91506143f6826143b5565b602082019050919050565b6000602082019050818103600083015261441a816143de565b9050919050565b61442a8161383e565b82525050565b60006060820190506144456000830186614421565b614452602083018561373d565b61445f6040830184614421565b949350505050565b60008151905061447681613c49565b92915050565b60006020828403121561449257614491613651565b5b60006144a084828501614467565b91505092915050565b7f496e697469616c697a61626c653a20636f6e747261637420697320616c72656160008201527f647920696e697469616c697a6564000000000000000000000000000000000000602082015250565b6000614505602e8361408d565b9150614510826144a9565b604082019050919050565b60006020820190508181036000830152614534816144f8565b9050919050565b6000819050919050565b600060ff82169050919050565b600061456d6145686145638461453b565b6136de565b614545565b9050919050565b61457d81614552565b82525050565b60006020820190506145986000830184614574565b92915050565b600060a0820190506145b3600083018861373d565b6145c06020830187614421565b6145cd604083018661373d565b6145da6060830185614421565b6145e7608083018461373d565b9695505050505050565b7f4e6f207265776172647300000000000000000000000000000000000000000000600082015250565b6000614627600a8361408d565b9150614632826145f1565b602082019050919050565b600060208201905081810360008301526146568161461a565b9050919050565b7f526577617264732062616c616e6365203c20746f6b656e73546f4275726e0000600082015250565b6000614693601e8361408d565b915061469e8261465d565b602082019050919050565b600060208201905081810360008301526146c281614686565b9050919050565b60006146d48261383e565b9050919050565b6146e4816146c9565b81146146ef57600080fd5b50565b600081519050614701816146db565b92915050565b60006020828403121561471d5761471c613651565b5b600061472b848285016146f2565b91505092915050565b6000606082019050614749600083018661373d565b6147566020830185614421565b614763604083018461373d565b949350505050565b600080fd5b600080fd5b61477e81613808565b811461478957600080fd5b50565b60008151905061479b81614775565b92915050565b6000815190506147b081613850565b92915050565b600067ffffffffffffffff8211156147d1576147d06139bc565b5b602082029050602081019050919050565b60006147f56147f0846147b6565b613a1c565b9050808382526020820190506020840283018581111561481857614817613de1565b5b835b81811015614841578061482d88826147a1565b84526020840193505060208101905061481a565b5050509392505050565b600082601f8301126148605761485f6139a1565b5b81516148708482602086016147e2565b91505092915050565b600061488c61488784613db5565b613a1c565b905080838252602082019050602084028301858111156148af576148ae613de1565b5b835b818110156148d857806148c48882614373565b8452602084019350506020810190506148b1565b5050509392505050565b600082601f8301126148f7576148f66139a1565b5b8151614907848260208601614879565b91505092915050565b6000608082840312156149265761492561476b565b5b6149306080613a1c565b905060006149408482850161478c565b6000830152506020614954848285016147a1565b602083015250604082015167ffffffffffffffff81111561497857614977614770565b5b6149848482850161484b565b604083015250606082015167ffffffffffffffff8111156149a8576149a7614770565b5b6149b4848285016148e2565b60608301525092915050565b6000602082840312156149d6576149d5613651565b5b600082015167ffffffffffffffff8111156149f4576149f3613656565b5b614a0084828501614910565b91505092915050565b7f4e4654206e6f7420726567697374657265640000000000000000000000000000600082015250565b6000614a3f60128361408d565b9150614a4a82614a09565b602082019050919050565b60006020820190508181036000830152614a6e81614a32565b9050919050565b7f4e4654206e6f74206f776e656400000000000000000000000000000000000000600082015250565b6000614aab600d8361408d565b9150614ab682614a75565b602082019050919050565b60006020820190508181036000830152614ada81614a9e565b9050919050565b600060c082019050614af6600083018961373d565b614b036020830188614421565b614b10604083018761373d565b614b1d606083018661372e565b614b2a608083018561373d565b614b3760a0830184614421565b979650505050505050565b7f4e487b7100000000000000000000000000000000000000000000000000000000600052601160045260246000fd5b6000614b7c8261365b565b9150614b878361365b565b925082821015614b9a57614b99614b42565b5b828203905092915050565b7f4e487b7100000000000000000000000000000000000000000000000000000000600052603260045260246000fd5b6000614bdf8261365b565b9150614bea8361365b565b9250817fffffffffffffffffffffffffffffffffffffffffffffffffffffffffffffffff0483118215151615614c2357614c22614b42565b5b828202905092915050565b7f4e487b7100000000000000000000000000000000000000000000000000000000600052601260045260246000fd5b6000614c688261365b565b9150614c738361365b565b925082614c8357614c82614c2e565b5b828204905092915050565b6000614c998261365b565b9150614ca48361365b565b9250827fffffffffffffffffffffffffffffffffffffffffffffffffffffffffffffffff03821115614cd957614cd8614b42565b5b828201905092915050565b6000608082019050614cf96000830187614421565b614d06602083018661372e565b614d13604083018561373d565b614d20606083018461373d565b95945050505050565b600061ffff82169050919050565b6000614d4282614d29565b915061ffff821415614d5757614d56614b42565b5b600182019050919050565b6000606082019050614d77600083018661373d565b614d84602083018561373d565b614d91604083018461373d565b949350505050565b7f556e6b6e6f776e204e4654000000000000000000000000000000000000000000600082015250565b6000614dcf600b8361408d565b9150614dda82614d99565b602082019050919050565b60006020820190508181036000830152614dfe81614dc2565b9050919050565b6000614e108261383e565b9050919050565b614e2081614e05565b8114614e2b57600080fd5b50565b600081519050614e3d81614e17565b92915050565b600060208284031215614e5957614e58613651565b5b6000614e6784828501614e2e565b91505092915050565b600081519050919050565b600082825260208201905092915050565b6000614e9782614e70565b614ea18185614e7b565b9350614eb181856020860161409e565b614eba816139ab565b840191505092915050565b6000608082019050614eda6000830187614421565b614ee7602083018661373d565b614ef4604083018561373d565b8181036060830152614f068184614e8c565b905095945050505050565b600060c082019050614f26600083018961373d565b614f33602083018861373d565b614f406040830187614421565b614f4d6060830186614421565b614f5a608083018561373d565b614f6760a083018461373d565b979650505050505050565b6000606082019050614f876000830186614421565b614f94602083018561373d565b614fa1604083018461373d565b949350505050565b6000614fb48261383e565b9050919050565b614fc481614fa9565b8114614fcf57600080fd5b50565b600081519050614fe181614fbb565b92915050565b600060208284031215614ffd57614ffc613651565b5b600061500b84828501614fd2565b91505092915050565b60006020820190506150296000830184614421565b92915050565b60006020828403121561504557615044613651565b5b60006150538482850161478c565b91505092915050565b7f4572722043757261746f725661756c7400000000000000000000000000000000600082015250565b600061509260108361408d565b915061509d8261505c565b602082019050919050565b600060208201905081810360008301526150c181615085565b9050919050565b60006080820190506150dd600083018761373d565b6150ea6020830186614421565b6150f7604083018561373d565b615104606083018461372e565b95945050505050565b60006040820190506151226000830185614421565b61512f602083018461373d565b9392505050565b600060e08201905061514b600083018a61373d565b6151586020830189614421565b615165604083018861373d565b615172606083018761372e565b61517f608083018661373d565b61518c60a0830185614421565b61519960c0830184613814565b98975050505050505050565b6000610180820190506151bb600083018f61373d565b6151c8602083018e614421565b6151d5604083018d61373d565b6151e2606083018c61373d565b6151ef608083018b614421565b6151fc60a083018a61373d565b81810360c083015261520e81896140d1565b905061521d60e0830188614421565b61522b610100830187614421565b61523961012083018661373d565b61524761014083018561373d565b61525561016083018461373d565b9d9c50505050505050505050505050565b7f496e697469616c697a61626c653a20636f6e7472616374206973206e6f74206960008201527f6e697469616c697a696e67000000000000000000000000000000000000000000602082015250565b60006152c2602b8361408d565b91506152cd82615266565b604082019050919050565b600060208201905081810360008301526152f1816152b5565b9050919050565b600060608201905061530d6000830186614421565b61531a6020830185614421565b615327604083018461373d565b949350505050565b7f5361666545524332303a204552433230206f7065726174696f6e20646964206e60008201527f6f74207375636365656400000000000000000000000000000000000000000000602082015250565b600061538b602a8361408d565b91506153968261532f565b604082019050919050565b600060208201905081810360008301526153ba8161537e565b9050919050565b7f416464726573733a20696e73756666696369656e742062616c616e636520666f60008201527f722063616c6c0000000000000000000000000000000000000000000000000000602082015250565b600061541d60268361408d565b9150615428826153c1565b604082019050919050565b6000602082019050818103600083015261544c81615410565b9050919050565b7f416464726573733a2063616c6c20746f206e6f6e2d636f6e7472616374000000600082015250565b6000615489601d8361408d565b915061549482615453565b602082019050919050565b600060208201905081810360008301526154b88161547c565b9050919050565b600081905092915050565b60006154d582614e70565b6154df81856154bf565b93506154ef81856020860161409e565b80840191505092915050565b600061550782846154ca565b91508190509291505056fea264697066735822122048a244fee0fc9a841f6f5e6cdca472e812a7ee0fe96b5a1e62d8e208507e75cf64736f6c63430008090033",
  "devdoc": {
    "details": "This contract buying and spending reactions",
    "events": {
      "CreatorRewardsGranted(address,address,uint256,uint256)": {
        "details": "Event emitted when rewards are granted to a creator"
      },
      "ERC20RewardsClaimed(address,uint256,address)": {
        "details": "Event emitted when an account withdraws ERC20 rewards"
      },
      "MakerRewardsGranted(address,address,uint256,uint256)": {
        "details": "Event emitted when rewards are granted to a maker"
      },
      "ReactionsPurchased(uint256,uint256,address,address,uint256,uint256)": {
        "details": "Event emitted when a reaction is purchased"
      },
      "ReactionsSpent(uint256,address,uint256,uint256,address,uint256,string,address,address,uint256,uint256,uint256)": {
        "details": "Event emitted when reaction is spent"
      },
      "ReferrerRewardsGranted(address,address,uint256,uint256)": {
        "details": "Event emitted when rewards are granted to a referrer"
      },
      "TakerWithdraw(uint256,uint256,uint256,uint256)": {
        "details": "Event emitted when taker claims curator tokens"
      }
    },
    "kind": "dev",
    "methods": {
      "buyAndSpendReaction(uint256,uint256,address,uint256,uint256,address,uint256,address,string)": {
        "details": "Allows a user to buy and spend a reaction in 1 transaction instead of first buying and then spending in 2 separate transactions"
      },
      "buyReaction(uint256,uint256,address,address,uint256)": {
        "details": "External func to allow a user to buy reaction NFTs based on a registered Maker NFT",
        "params": {
          "destinationWallet": "reactions will be minted into this wallet (allows bulk buying from other contracts since reactions are non-transferrable)",
          "optionBits": "Optional param to specify options how the user wants transform reaction",
          "quantity": "Number of reactions to buy",
          "referrer": "Optional param to specify an address where referrer rewards are allocated",
          "transformId": "transform to be purchased"
        }
      },
      "deriveParameterVersion(address)": {
        "details": "Derive the pricing parameters version E.g. if the price of a reaction changes, the paramaterVersion should be different"
      },
      "deriveReactionId(uint256,uint256,uint256)": {
        "details": "Derive the reaction ID from the parameters This unique ID will be used to track instances of reactions built from the same params E.g. if the price of a reaction changes, the reaction ID should be different"
      },
      "initialize(address)": {
        "details": "initializer to call after deployment, can only be called once"
      },
      "spendReaction(uint256,address,uint256,uint256,uint256,address,address,string)": {
        "details": "Allows a reaction NFT owner to spend (burn) their tokens at a specific target Taker NFT.",
        "params": {
          "curatorVaultOverride": "Optional address of non-default curator vault",
          "ipfsMetadataHash": "Optional hash of any metadata being associated with spend action",
          "reactionId": "Reaction to spend",
          "reactionQuantity": "How many reactions to spend",
          "referrer": "Optional address where referrer rewards are allocated",
          "takerNftAddress": "Target contract where the reaction is targeting",
          "takerNftChainId": "Chain ID where the NFT lives",
          "takerNftId": "Target NFT ID in the contract"
        }
      },
      "supportsInterface(bytes4)": {
        "details": "See {IERC165-supportsInterface}."
      },
      "withdrawErc20Rewards(address)": {
        "details": "Allows an account that has been allocated rewards to withdraw (Maker, creator, referrer)",
        "params": {
          "token": "ERC20 token that rewards are valued in"
        }
      },
      "withdrawTakerRewards(uint256,address,uint256,address,address,uint256,uint256,address)": {
        "details": "Allows an NFT taker to withdraw rewards for reactions that were spent against an NFT that they own. The owner of the NFT must register the NFT into the system before they can claim the rewards."
      }
    },
    "title": "ReactionVault",
    "version": 1
  },
  "userdoc": {
    "kind": "user",
    "methods": {},
    "version": 1
  },
  "storageLayout": {
    "storage": [
      {
        "astId": 2366,
        "contract": "contracts/Reactions/ReactionVault.sol:ReactionVault",
        "label": "_initialized",
        "offset": 0,
        "slot": "0",
        "type": "t_uint8"
      },
      {
        "astId": 2369,
        "contract": "contracts/Reactions/ReactionVault.sol:ReactionVault",
        "label": "_initializing",
        "offset": 1,
        "slot": "0",
        "type": "t_bool"
      },
      {
        "astId": 2524,
        "contract": "contracts/Reactions/ReactionVault.sol:ReactionVault",
        "label": "_status",
        "offset": 0,
        "slot": "1",
        "type": "t_uint256"
      },
      {
        "astId": 2568,
        "contract": "contracts/Reactions/ReactionVault.sol:ReactionVault",
        "label": "__gap",
        "offset": 0,
        "slot": "2",
        "type": "t_array(t_uint256)49_storage"
      },
      {
        "astId": 6755,
        "contract": "contracts/Reactions/ReactionVault.sol:ReactionVault",
        "label": "__gap",
        "offset": 0,
        "slot": "51",
        "type": "t_array(t_uint256)50_storage"
      },
      {
        "astId": 4116,
        "contract": "contracts/Reactions/ReactionVault.sol:ReactionVault",
        "label": "__gap",
        "offset": 0,
        "slot": "101",
        "type": "t_array(t_uint256)50_storage"
      },
      {
        "astId": 4062,
        "contract": "contracts/Reactions/ReactionVault.sol:ReactionVault",
        "label": "__gap",
        "offset": 0,
        "slot": "151",
        "type": "t_array(t_uint256)50_storage"
      },
      {
        "astId": 11474,
        "contract": "contracts/Reactions/ReactionVault.sol:ReactionVault",
        "label": "addressManager",
        "offset": 0,
        "slot": "201",
        "type": "t_contract(IAddressManager)8538"
      },
      {
        "astId": 11482,
        "contract": "contracts/Reactions/ReactionVault.sol:ReactionVault",
        "label": "ownerToRewardsMapping",
        "offset": 0,
        "slot": "202",
        "type": "t_mapping(t_contract(IERC20Upgradeable)4806,t_mapping(t_address,t_uint256))"
      },
      {
        "astId": 11488,
        "contract": "contracts/Reactions/ReactionVault.sol:ReactionVault",
        "label": "reactionPriceDetailsMapping",
        "offset": 0,
        "slot": "203",
        "type": "t_mapping(t_uint256,t_struct(ReactionPriceDetails)9943_storage)"
      },
      {
        "astId": 11493,
        "contract": "contracts/Reactions/ReactionVault.sol:ReactionVault",
        "label": "nftOwnerRewards",
        "offset": 0,
        "slot": "204",
        "type": "t_mapping(t_uint256,t_uint256)"
      }
    ],
    "types": {
      "t_address": {
        "encoding": "inplace",
        "label": "address",
        "numberOfBytes": "20"
      },
      "t_array(t_uint256)49_storage": {
        "base": "t_uint256",
        "encoding": "inplace",
        "label": "uint256[49]",
        "numberOfBytes": "1568"
      },
      "t_array(t_uint256)50_storage": {
        "base": "t_uint256",
        "encoding": "inplace",
        "label": "uint256[50]",
        "numberOfBytes": "1600"
      },
      "t_bool": {
        "encoding": "inplace",
        "label": "bool",
        "numberOfBytes": "1"
      },
      "t_contract(IAddressManager)8538": {
        "encoding": "inplace",
        "label": "contract IAddressManager",
        "numberOfBytes": "20"
      },
      "t_contract(IERC20Upgradeable)4806": {
        "encoding": "inplace",
        "label": "contract IERC20Upgradeable",
        "numberOfBytes": "20"
      },
      "t_mapping(t_address,t_uint256)": {
        "encoding": "mapping",
        "key": "t_address",
        "label": "mapping(address => uint256)",
        "numberOfBytes": "32",
        "value": "t_uint256"
      },
      "t_mapping(t_contract(IERC20Upgradeable)4806,t_mapping(t_address,t_uint256))": {
        "encoding": "mapping",
        "key": "t_contract(IERC20Upgradeable)4806",
        "label": "mapping(contract IERC20Upgradeable => mapping(address => uint256))",
        "numberOfBytes": "32",
        "value": "t_mapping(t_address,t_uint256)"
      },
      "t_mapping(t_uint256,t_struct(ReactionPriceDetails)9943_storage)": {
        "encoding": "mapping",
        "key": "t_uint256",
        "label": "mapping(uint256 => struct IReactionVault.ReactionPriceDetails)",
        "numberOfBytes": "32",
        "value": "t_struct(ReactionPriceDetails)9943_storage"
      },
      "t_mapping(t_uint256,t_uint256)": {
        "encoding": "mapping",
        "key": "t_uint256",
        "label": "mapping(uint256 => uint256)",
        "numberOfBytes": "32",
        "value": "t_uint256"
      },
      "t_struct(ReactionPriceDetails)9943_storage": {
        "encoding": "inplace",
        "label": "struct IReactionVault.ReactionPriceDetails",
        "members": [
          {
            "astId": 9938,
            "contract": "contracts/Reactions/ReactionVault.sol:ReactionVault",
            "label": "paymentToken",
            "offset": 0,
            "slot": "0",
            "type": "t_contract(IERC20Upgradeable)4806"
          },
          {
            "astId": 9940,
            "contract": "contracts/Reactions/ReactionVault.sol:ReactionVault",
            "label": "reactionPrice",
            "offset": 0,
            "slot": "1",
            "type": "t_uint256"
          },
          {
            "astId": 9942,
            "contract": "contracts/Reactions/ReactionVault.sol:ReactionVault",
            "label": "saleCuratorLiabilityBasisPoints",
            "offset": 0,
            "slot": "2",
            "type": "t_uint256"
          }
        ],
        "numberOfBytes": "96"
      },
      "t_uint256": {
        "encoding": "inplace",
        "label": "uint256",
        "numberOfBytes": "32"
      },
      "t_uint8": {
        "encoding": "inplace",
        "label": "uint8",
        "numberOfBytes": "1"
      }
    }
  }
}