{
  "address": "0x8bBB41D836B7e70B559C9cda0C175d156027a25b",
  "abi": [
    {
      "anonymous": false,
      "inputs": [
        {
          "indexed": false,
          "internalType": "address",
          "name": "creator",
          "type": "address"
        },
        {
          "indexed": false,
          "internalType": "contract IERC20Upgradeable",
          "name": "paymentToken",
          "type": "address"
        },
        {
          "indexed": false,
          "internalType": "uint256",
          "name": "amount",
          "type": "uint256"
        },
        {
          "indexed": false,
          "internalType": "uint256",
          "name": "reactionId",
          "type": "uint256"
        }
      ],
      "name": "CreatorRewardsGranted",
      "type": "event"
    },
    {
      "anonymous": false,
      "inputs": [
        {
          "indexed": false,
          "internalType": "address",
          "name": "token",
          "type": "address"
        },
        {
          "indexed": false,
          "internalType": "uint256",
          "name": "amount",
          "type": "uint256"
        },
        {
          "indexed": false,
          "internalType": "address",
          "name": "recipient",
          "type": "address"
        }
      ],
      "name": "ERC20RewardsClaimed",
      "type": "event"
    },
    {
      "anonymous": false,
      "inputs": [
        {
          "indexed": false,
          "internalType": "address",
          "name": "maker",
          "type": "address"
        },
        {
          "indexed": false,
          "internalType": "contract IERC20Upgradeable",
          "name": "paymentToken",
          "type": "address"
        },
        {
          "indexed": false,
          "internalType": "uint256",
          "name": "amount",
          "type": "uint256"
        },
        {
          "indexed": false,
          "internalType": "uint256",
          "name": "reactionId",
          "type": "uint256"
        }
      ],
      "name": "MakerRewardsGranted",
      "type": "event"
    },
    {
      "anonymous": false,
      "inputs": [
        {
          "indexed": false,
          "internalType": "uint256",
          "name": "transformId",
          "type": "uint256"
        },
        {
          "indexed": false,
          "internalType": "uint256",
          "name": "quantity",
          "type": "uint256"
        },
        {
          "indexed": false,
          "internalType": "address",
          "name": "destinationWallet",
          "type": "address"
        },
        {
          "indexed": false,
          "internalType": "address",
          "name": "referrer",
          "type": "address"
        },
        {
          "indexed": false,
          "internalType": "uint256",
          "name": "reactionId",
          "type": "uint256"
        },
        {
          "indexed": false,
          "internalType": "uint256",
          "name": "parameterVersion",
          "type": "uint256"
        }
      ],
      "name": "ReactionsPurchased",
      "type": "event"
    },
    {
      "anonymous": false,
      "inputs": [
        {
          "indexed": false,
          "internalType": "uint256",
          "name": "takerNftChainId",
          "type": "uint256"
        },
        {
          "indexed": false,
          "internalType": "address",
          "name": "takerNftAddress",
          "type": "address"
        },
        {
          "indexed": false,
          "internalType": "uint256",
          "name": "takerNftId",
          "type": "uint256"
        },
        {
          "indexed": false,
          "internalType": "uint256",
          "name": "reactionId",
          "type": "uint256"
        },
        {
          "indexed": false,
          "internalType": "uint256",
          "name": "quantity",
          "type": "uint256"
        },
        {
          "indexed": false,
          "internalType": "address",
          "name": "referrer",
          "type": "address"
        },
        {
          "indexed": false,
          "internalType": "uint256",
          "name": "ipfsMetadataHash",
          "type": "uint256"
        },
        {
          "indexed": false,
          "internalType": "uint256",
          "name": "curatorTokenId",
          "type": "uint256"
        },
        {
          "indexed": false,
          "internalType": "uint256",
          "name": "curatorShareAmount",
          "type": "uint256"
        }
      ],
      "name": "ReactionsSpent",
      "type": "event"
    },
    {
      "anonymous": false,
      "inputs": [
        {
          "indexed": false,
          "internalType": "address",
          "name": "referrer",
          "type": "address"
        },
        {
          "indexed": false,
          "internalType": "contract IERC20Upgradeable",
          "name": "paymentToken",
          "type": "address"
        },
        {
          "indexed": false,
          "internalType": "uint256",
          "name": "amount",
          "type": "uint256"
        },
        {
          "indexed": false,
          "internalType": "uint256",
          "name": "reactionId",
          "type": "uint256"
        }
      ],
      "name": "ReferrerRewardsGranted",
      "type": "event"
    },
    {
      "inputs": [],
      "name": "REACTION_META_PREFIX",
      "outputs": [
        {
          "internalType": "string",
          "name": "",
          "type": "string"
        }
      ],
      "stateMutability": "view",
      "type": "function"
    },
    {
      "inputs": [],
      "name": "addressManager",
      "outputs": [
        {
          "internalType": "contract IAddressManager",
          "name": "",
          "type": "address"
        }
      ],
      "stateMutability": "view",
      "type": "function"
    },
    {
      "inputs": [
        {
          "internalType": "uint256",
          "name": "transformId",
          "type": "uint256"
        },
        {
          "internalType": "uint256",
          "name": "quantity",
          "type": "uint256"
        },
        {
          "internalType": "address",
          "name": "referrer",
          "type": "address"
        },
        {
          "internalType": "uint256",
          "name": "optionBits",
          "type": "uint256"
        },
        {
          "internalType": "uint256",
          "name": "takerNftChainId",
          "type": "uint256"
        },
        {
          "internalType": "address",
          "name": "takerNftAddress",
          "type": "address"
        },
        {
          "internalType": "uint256",
          "name": "takerNftId",
          "type": "uint256"
        },
        {
          "internalType": "address",
          "name": "curatorVaultOverride",
          "type": "address"
        },
        {
          "internalType": "uint256",
          "name": "ipfsMetadataHash",
          "type": "uint256"
        }
      ],
      "name": "buyAndSpendReaction",
      "outputs": [],
      "stateMutability": "nonpayable",
      "type": "function"
    },
    {
      "inputs": [
        {
          "internalType": "uint256",
          "name": "transformId",
          "type": "uint256"
        },
        {
          "internalType": "uint256",
          "name": "quantity",
          "type": "uint256"
        },
        {
          "internalType": "address",
          "name": "destinationWallet",
          "type": "address"
        },
        {
          "internalType": "address",
          "name": "referrer",
          "type": "address"
        },
        {
          "internalType": "uint256",
          "name": "optionBits",
          "type": "uint256"
        }
      ],
      "name": "buyReaction",
      "outputs": [],
      "stateMutability": "nonpayable",
      "type": "function"
    },
    {
      "inputs": [
        {
          "internalType": "contract IParameterManager",
          "name": "parameterManager",
          "type": "address"
        }
      ],
      "name": "deriveParameterVersion",
      "outputs": [
        {
          "internalType": "uint256",
          "name": "",
          "type": "uint256"
        }
      ],
      "stateMutability": "nonpayable",
      "type": "function"
    },
    {
      "inputs": [
        {
          "internalType": "uint256",
          "name": "transformId",
          "type": "uint256"
        },
        {
          "internalType": "uint256",
          "name": "optionBits",
          "type": "uint256"
        },
        {
          "internalType": "uint256",
          "name": "parameterVersion",
          "type": "uint256"
        }
      ],
      "name": "deriveReactionId",
      "outputs": [
        {
          "internalType": "uint256",
          "name": "",
          "type": "uint256"
        }
      ],
      "stateMutability": "pure",
      "type": "function"
    },
    {
      "inputs": [
        {
          "internalType": "contract IAddressManager",
          "name": "_addressManager",
          "type": "address"
        }
      ],
      "name": "initialize",
      "outputs": [],
      "stateMutability": "nonpayable",
      "type": "function"
    },
    {
      "inputs": [
        {
          "internalType": "uint256",
          "name": "",
          "type": "uint256"
        }
      ],
      "name": "nftOwnerRewards",
      "outputs": [
        {
          "internalType": "uint256",
          "name": "",
          "type": "uint256"
        }
      ],
      "stateMutability": "view",
      "type": "function"
    },
    {
      "inputs": [
        {
          "internalType": "address",
          "name": "",
          "type": "address"
        },
        {
          "internalType": "address",
          "name": "",
          "type": "address"
        },
        {
          "internalType": "uint256[]",
          "name": "",
          "type": "uint256[]"
        },
        {
          "internalType": "uint256[]",
          "name": "",
          "type": "uint256[]"
        },
        {
          "internalType": "bytes",
          "name": "",
          "type": "bytes"
        }
      ],
      "name": "onERC1155BatchReceived",
      "outputs": [
        {
          "internalType": "bytes4",
          "name": "",
          "type": "bytes4"
        }
      ],
      "stateMutability": "nonpayable",
      "type": "function"
    },
    {
      "inputs": [
        {
          "internalType": "address",
          "name": "",
          "type": "address"
        },
        {
          "internalType": "address",
          "name": "",
          "type": "address"
        },
        {
          "internalType": "uint256",
          "name": "",
          "type": "uint256"
        },
        {
          "internalType": "uint256",
          "name": "",
          "type": "uint256"
        },
        {
          "internalType": "bytes",
          "name": "",
          "type": "bytes"
        }
      ],
      "name": "onERC1155Received",
      "outputs": [
        {
          "internalType": "bytes4",
          "name": "",
          "type": "bytes4"
        }
      ],
      "stateMutability": "nonpayable",
      "type": "function"
    },
    {
      "inputs": [
        {
          "internalType": "contract IERC20Upgradeable",
          "name": "",
          "type": "address"
        },
        {
          "internalType": "address",
          "name": "",
          "type": "address"
        }
      ],
      "name": "ownerToRewardsMapping",
      "outputs": [
        {
          "internalType": "uint256",
          "name": "",
          "type": "uint256"
        }
      ],
      "stateMutability": "view",
      "type": "function"
    },
    {
      "inputs": [
        {
          "internalType": "uint256",
          "name": "",
          "type": "uint256"
        }
      ],
      "name": "reactionPriceDetailsMapping",
      "outputs": [
        {
          "internalType": "contract IERC20Upgradeable",
          "name": "paymentToken",
          "type": "address"
        },
        {
          "internalType": "uint256",
          "name": "reactionPrice",
          "type": "uint256"
        },
        {
          "internalType": "uint256",
          "name": "saleCuratorLiabilityBasisPoints",
          "type": "uint256"
        }
      ],
      "stateMutability": "view",
      "type": "function"
    },
    {
      "inputs": [
        {
          "internalType": "uint256",
          "name": "takerNftChainId",
          "type": "uint256"
        },
        {
          "internalType": "address",
          "name": "takerNftAddress",
          "type": "address"
        },
        {
          "internalType": "uint256",
          "name": "takerNftId",
          "type": "uint256"
        },
        {
          "internalType": "uint256",
          "name": "reactionId",
          "type": "uint256"
        },
        {
          "internalType": "uint256",
          "name": "reactionQuantity",
          "type": "uint256"
        },
        {
          "internalType": "address",
          "name": "referrer",
          "type": "address"
        },
        {
          "internalType": "address",
          "name": "curatorVaultOverride",
          "type": "address"
        },
        {
          "internalType": "uint256",
          "name": "ipfsMetadataHash",
          "type": "uint256"
        }
      ],
      "name": "spendReaction",
      "outputs": [],
      "stateMutability": "nonpayable",
      "type": "function"
    },
    {
      "inputs": [
        {
          "internalType": "bytes4",
          "name": "interfaceId",
          "type": "bytes4"
        }
      ],
      "name": "supportsInterface",
      "outputs": [
        {
          "internalType": "bool",
          "name": "",
          "type": "bool"
        }
      ],
      "stateMutability": "view",
      "type": "function"
    },
    {
      "inputs": [
        {
          "internalType": "contract IERC20Upgradeable",
          "name": "token",
          "type": "address"
        }
      ],
      "name": "withdrawErc20Rewards",
      "outputs": [
        {
          "internalType": "uint256",
          "name": "",
          "type": "uint256"
        }
      ],
      "stateMutability": "nonpayable",
      "type": "function"
    },
    {
      "inputs": [
        {
          "internalType": "uint256",
          "name": "takerNftChainId",
          "type": "uint256"
        },
        {
          "internalType": "address",
          "name": "takerNftAddress",
          "type": "address"
        },
        {
          "internalType": "uint256",
          "name": "takerNftId",
          "type": "uint256"
        },
        {
          "internalType": "contract IERC20Upgradeable",
          "name": "paymentToken",
          "type": "address"
        },
        {
          "internalType": "address",
          "name": "curatorVault",
          "type": "address"
        },
        {
          "internalType": "uint256",
          "name": "curatorTokenId",
          "type": "uint256"
        },
        {
          "internalType": "uint256",
          "name": "sharesToBurn",
          "type": "uint256"
        },
        {
          "internalType": "address",
          "name": "refundToAddress",
          "type": "address"
        }
      ],
      "name": "withdrawTakerRewards",
      "outputs": [
        {
          "internalType": "uint256",
          "name": "",
          "type": "uint256"
        }
      ],
      "stateMutability": "nonpayable",
      "type": "function"
    }
  ],
  "transactionHash": "0x75b9a271d7ced2d2461ccaba2abc684b7ece03784e51ae6f19aacbfc4fd0b682",
  "args": [],
  "numDeployments": 1,
  "solcInputHash": "98ed655dfe93b2144762bf03a912e3f6",
  "bytecode": "0x608060405234801561001057600080fd5b50614ed3806100206000396000f3fe608060405234801561001057600080fd5b50600436106100ff5760003560e01c8063809e134911610097578063c4d66de811610066578063c4d66de8146102f8578063e46f7e9c14610314578063f23a6e6114610332578063f9f280d314610362576100ff565b8063809e13491461023857806388415f8e14610268578063928102a214610298578063bc197c81146102c8576100ff565b80633ab76e9f116100d35780633ab76e9f1461019e57806343f68bcb146101bc5780634c833cca146101ec5780635208532814610208576100ff565b8062722e101461010457806301ffc9a7146101365780630c4900e4146101665780630e4d190814610182575b600080fd5b61011e600480360381019061011991906133fb565b610392565b60405161012d939291906134b6565b60405180910390f35b610150600480360381019061014b9190613545565b6103dc565b60405161015d919061358d565b60405180910390f35b610180600480360381019061017b91906135e6565b610456565b005b61019c60048036038101906101979190613661565b6104bf565b005b6101a66105fb565b6040516101b3919061374c565b60405180910390f35b6101d660048036038101906101d19190613767565b610621565b6040516101e391906137ba565b60405180910390f35b610206600480360381019061020191906137d5565b610691565b005b610222600480360381019061021d91906133fb565b610700565b60405161022f91906137ba565b60405180910390f35b610252600480360381019061024d91906138c9565b610718565b60405161025f91906137ba565b60405180910390f35b610282600480360381019061027d9190613947565b61073d565b60405161028f91906137ba565b60405180910390f35b6102b260048036038101906102ad9190613974565b6108f1565b6040516102bf91906137ba565b60405180910390f35b6102e260048036038101906102dd9190613baf565b610afd565b6040516102ef9190613c8d565b60405180910390f35b610312600480360381019061030d9190613ce6565b610b12565b005b61031c610c48565b6040516103299190613d9b565b60405180910390f35b61034c60048036038101906103479190613dbd565b610c81565b6040516103599190613c8d565b60405180910390f35b61037c60048036038101906103779190613e54565b610c96565b60405161038991906137ba565b60405180910390f35b60cb6020528060005260406000206000915090508060000160009054906101000a900473ffffffffffffffffffffffffffffffffffffffff16908060010154908060020154905083565b60007f4e2312e0000000000000000000000000000000000000000000000000000000007bffffffffffffffffffffffffffffffffffffffffffffffffffffffff1916827bffffffffffffffffffffffffffffffffffffffffffffffffffffffff1916148061044f575061044e8261134f565b5b9050919050565b6002600154141561049c576040517f08c379a000000000000000000000000000000000000000000000000000000000815260040161049390613f56565b60405180910390fd5b60026001819055506104b185858585856113b9565b600180819055505050505050565b60026001541415610505576040517f08c379a00000000000000000000000000000000000000000000000000000000081526004016104fc90613f56565b60405180910390fd5b600260018190555061051a8989338a8a6113b9565b60006105c660c960009054906101000a900473ffffffffffffffffffffffffffffffffffffffff1673ffffffffffffffffffffffffffffffffffffffff1663b27bcea16040518163ffffffff1660e01b8152600401602060405180830381600087803b15801561058957600080fd5b505af115801561059d573d6000803e3d6000fd5b505050506040513d601f19601f820116820180604052508101906105c19190613f8b565b61073d565b905060006105d58b8984610621565b90506105e7878787848e8e8a8a612104565b505060018081905550505050505050505050565b60c960009054906101000a900473ffffffffffffffffffffffffffffffffffffffff1681565b60006040518060400160405280600881526020017f5245414354494f4e00000000000000000000000000000000000000000000000081525082858560405160200161066f9493929190613fb8565b6040516020818303038152906040528051906020012060001c90509392505050565b600260015414156106d7576040517f08c379a00000000000000000000000000000000000000000000000000000000081526004016106ce90613f56565b60405180910390fd5b60026001819055506106ef8888888888888888612104565b600180819055505050505050505050565b60cc6020528060005260406000206000915090505481565b60ca602052816000526040600020602052806000526040600020600091509150505481565b60008173ffffffffffffffffffffffffffffffffffffffff16633013ce296040518163ffffffff1660e01b8152600401602060405180830381600087803b15801561078757600080fd5b505af115801561079b573d6000803e3d6000fd5b505050506040513d601f19601f820116820180604052508101906107bf9190614019565b8273ffffffffffffffffffffffffffffffffffffffff16635ddb0cf26040518163ffffffff1660e01b8152600401602060405180830381600087803b15801561080757600080fd5b505af115801561081b573d6000803e3d6000fd5b505050506040513d601f19601f8201168201806040525081019061083f919061405b565b8373ffffffffffffffffffffffffffffffffffffffff1663f93c0d796040518163ffffffff1660e01b8152600401602060405180830381600087803b15801561088757600080fd5b505af115801561089b573d6000803e3d6000fd5b505050506040513d601f19601f820116820180604052508101906108bf919061405b565b6040516020016108d1939291906134b6565b6040516020818303038152906040528051906020012060001c9050919050565b600060026001541415610939576040517f08c379a000000000000000000000000000000000000000000000000000000000815260040161093090613f56565b60405180910390fd5b6002600181905550600060ca60008473ffffffffffffffffffffffffffffffffffffffff1673ffffffffffffffffffffffffffffffffffffffff16815260200190815260200160002060003373ffffffffffffffffffffffffffffffffffffffff1673ffffffffffffffffffffffffffffffffffffffff16815260200190815260200160002054905060008111610a05576040517f08c379a00000000000000000000000000000000000000000000000000000000081526004016109fc906140d4565b60405180910390fd5b600060ca60008573ffffffffffffffffffffffffffffffffffffffff1673ffffffffffffffffffffffffffffffffffffffff16815260200190815260200160002060003373ffffffffffffffffffffffffffffffffffffffff1673ffffffffffffffffffffffffffffffffffffffff16815260200190815260200160002081905550610ab233828573ffffffffffffffffffffffffffffffffffffffff16612d5e9092919063ffffffff16565b7f712edeb933a34d503bfa8233af370724a7a1b075f66b706f95f1ab64049532dc838233604051610ae593929190614103565b60405180910390a18091505060018081905550919050565b600063bc197c8160e01b905095945050505050565b600060019054906101000a900460ff16610b3a5760008054906101000a900460ff1615610b43565b610b42612de4565b5b610b82576040517f08c379a0000000000000000000000000000000000000000000000000000000008152600401610b79906141ac565b60405180910390fd5b60008060019054906101000a900460ff161590508015610bd2576001600060016101000a81548160ff02191690831515021790555060016000806101000a81548160ff0219169083151502179055505b610bda612df5565b610be2612e4e565b8160c960006101000a81548173ffffffffffffffffffffffffffffffffffffffff021916908373ffffffffffffffffffffffffffffffffffffffff1602179055508015610c445760008060016101000a81548160ff0219169083151502179055505b5050565b6040518060400160405280600881526020017f5245414354494f4e00000000000000000000000000000000000000000000000081525081565b600063f23a6e6160e01b905095945050505050565b600060026001541415610cde576040517f08c379a0000000000000000000000000000000000000000000000000000000008152600401610cd590613f56565b60405180910390fd5b6002600181905550610cee6131fd565b8989898888604051602001610d079594939291906141cc565b6040516020818303038152906040528051906020012060001c81600001818152505060cc600082600001518152602001908152602001600020548160200181815250506000816020015111610d91576040517f08c379a0000000000000000000000000000000000000000000000000000000008152600401610d889061426b565b60405180910390fd5b8381602001511015610dd8576040517f08c379a0000000000000000000000000000000000000000000000000000000008152600401610dcf906142fd565b60405180910390fd5b60c960009054906101000a900473ffffffffffffffffffffffffffffffffffffffff1673ffffffffffffffffffffffffffffffffffffffff1663363f8a656040518163ffffffff1660e01b8152600401602060405180830381600087803b158015610e4257600080fd5b505af1158015610e56573d6000803e3d6000fd5b505050506040513d601f19601f82011682018060405250810190610e7a919061435b565b73ffffffffffffffffffffffffffffffffffffffff1663c93b76c98b8b8b6040518463ffffffff1660e01b8152600401610eb693929190614388565b602060405180830381600087803b158015610ed057600080fd5b505af1158015610ee4573d6000803e3d6000fd5b505050506040513d601f19601f82011682018060405250810190610f08919061405b565b81604001818152505060008060008060c960009054906101000a900473ffffffffffffffffffffffffffffffffffffffff1673ffffffffffffffffffffffffffffffffffffffff1663363f8a656040518163ffffffff1660e01b8152600401602060405180830381600087803b158015610f8157600080fd5b505af1158015610f95573d6000803e3d6000fd5b505050506040513d601f19601f82011682018060405250810190610fb9919061435b565b73ffffffffffffffffffffffffffffffffffffffff1663c46bd37986604001516040518263ffffffff1660e01b8152600401610ff591906137ba565b608060405180830381600087803b15801561100f57600080fd5b505af1158015611023573d6000803e3d6000fd5b505050506040513d601f19601f820116820180604052508101906110479190614400565b93509350935093508361108f576040517f08c379a0000000000000000000000000000000000000000000000000000000008152600401611086906144b3565b60405180910390fd5b3373ffffffffffffffffffffffffffffffffffffffff168373ffffffffffffffffffffffffffffffffffffffff16146110fd576040517f08c379a00000000000000000000000000000000000000000000000000000000081526004016110f49061451f565b60405180910390fd5b8973ffffffffffffffffffffffffffffffffffffffff1663a867a40d8f8f8f8f8a60200151306040518763ffffffff1660e01b81526004016111449695949392919061453f565b602060405180830381600087803b15801561115e57600080fd5b505af1158015611172573d6000803e3d6000fd5b505050506040513d601f19601f82011682018060405250810190611196919061405b565b856060018181525050600073ffffffffffffffffffffffffffffffffffffffff168273ffffffffffffffffffffffffffffffffffffffff16141580156111dc5750600081115b15611301576127108186606001516111f491906145cf565b6111fe9190614658565b856080018181525050846080015160ca60008d73ffffffffffffffffffffffffffffffffffffffff1673ffffffffffffffffffffffffffffffffffffffff16815260200190815260200160002060008473ffffffffffffffffffffffffffffffffffffffff1673ffffffffffffffffffffffffffffffffffffffff16815260200190815260200160002060008282546112979190614689565b925050819055507fd20a9dd733d530d6ff5f314da5a1f73608e0c9328eb459d5971312a7ce6cc219828c876080015188604001516040516112db94939291906146df565b60405180910390a18460800151856060018181516112f99190614724565b915081815250505b6113308786606001518d73ffffffffffffffffffffffffffffffffffffffff16612d5e9092919063ffffffff16565b8460600151955050505050506001808190555098975050505050505050565b60007f01ffc9a7000000000000000000000000000000000000000000000000000000007bffffffffffffffffffffffffffffffffffffffffffffffffffffffff1916827bffffffffffffffffffffffffffffffffffffffffffffffffffffffff1916149050919050565b600084116113fc576040517f08c379a00000000000000000000000000000000000000000000000000000000081526004016113f3906140d4565b60405180910390fd5b61140461322c565b60c960009054906101000a900473ffffffffffffffffffffffffffffffffffffffff1673ffffffffffffffffffffffffffffffffffffffff1663363f8a656040518163ffffffff1660e01b8152600401602060405180830381600087803b15801561146e57600080fd5b505af1158015611482573d6000803e3d6000fd5b505050506040513d601f19601f820116820180604052508101906114a6919061435b565b816000019073ffffffffffffffffffffffffffffffffffffffff16908173ffffffffffffffffffffffffffffffffffffffff1681525050806000015173ffffffffffffffffffffffffffffffffffffffff166394b99569876040518263ffffffff1660e01b815260040161151a91906137ba565b602060405180830381600087803b15801561153457600080fd5b505af1158015611548573d6000803e3d6000fd5b505050506040513d601f19601f8201168201806040525081019061156c919061405b565b8160400181815250506000816040015114156115bd576040517f08c379a00000000000000000000000000000000000000000000000000000000081526004016115b4906147a4565b60405180910390fd5b806000015173ffffffffffffffffffffffffffffffffffffffff1663c46bd37982604001516040518263ffffffff1660e01b81526004016115fe91906137ba565b608060405180830381600087803b15801561161857600080fd5b505af115801561162c573d6000803e3d6000fd5b505050506040513d601f19601f820116820180604052508101906116509190614400565b84606001856080018660a0018760c001848152508473ffffffffffffffffffffffffffffffffffffffff1673ffffffffffffffffffffffffffffffffffffffff168152508473ffffffffffffffffffffffffffffffffffffffff1673ffffffffffffffffffffffffffffffffffffffff168152508415151515815250505050508060600151611714576040517f08c379a000000000000000000000000000000000000000000000000000000000815260040161170b906144b3565b60405180910390fd5b60c960009054906101000a900473ffffffffffffffffffffffffffffffffffffffff1673ffffffffffffffffffffffffffffffffffffffff1663b27bcea16040518163ffffffff1660e01b8152600401602060405180830381600087803b15801561177e57600080fd5b505af1158015611792573d6000803e3d6000fd5b505050506040513d601f19601f820116820180604052508101906117b69190613f8b565b816020019073ffffffffffffffffffffffffffffffffffffffff16908173ffffffffffffffffffffffffffffffffffffffff16815250506000816020015173ffffffffffffffffffffffffffffffffffffffff16633013ce296040518163ffffffff1660e01b8152600401602060405180830381600087803b15801561183b57600080fd5b505af115801561184f573d6000803e3d6000fd5b505050506040513d601f19601f820116820180604052508101906118739190614019565b9050816020015173ffffffffffffffffffffffffffffffffffffffff16635ddb0cf26040518163ffffffff1660e01b8152600401602060405180830381600087803b1580156118c157600080fd5b505af11580156118d5573d6000803e3d6000fd5b505050506040513d601f19601f820116820180604052508101906118f9919061405b565b8260e0018181525050858260e0015161191291906145cf565b8261010001818152505061194e33308461010001518473ffffffffffffffffffffffffffffffffffffffff16612e9f909392919063ffffffff16565b61195b826020015161073d565b826101c00181815250506119758784846101c00151610621565b826101a0018181525050600082610140018181525050600073ffffffffffffffffffffffffffffffffffffffff168473ffffffffffffffffffffffffffffffffffffffff1614611b4a57612710826101000151836020015173ffffffffffffffffffffffffffffffffffffffff1663f467320e6040518163ffffffff1660e01b8152600401602060405180830381600087803b158015611a1457600080fd5b505af1158015611a28573d6000803e3d6000fd5b505050506040513d601f19601f82011682018060405250810190611a4c919061405b565b611a5691906145cf565b611a609190614658565b8261014001818152505081610140015160ca60008373ffffffffffffffffffffffffffffffffffffffff1673ffffffffffffffffffffffffffffffffffffffff16815260200190815260200160002060008673ffffffffffffffffffffffffffffffffffffffff1673ffffffffffffffffffffffffffffffffffffffff1681526020019081526020016000206000828254611afb9190614689565b925050819055507fcae8f06f6239452c3a95ac7735981695a2862cac824988341cae89250e21f7ce8482846101400151856101a00151604051611b4194939291906146df565b60405180910390a15b6000826020015173ffffffffffffffffffffffffffffffffffffffff1663f93c0d796040518163ffffffff1660e01b8152600401602060405180830381600087803b158015611b9857600080fd5b505af1158015611bac573d6000803e3d6000fd5b505050506040513d601f19601f82011682018060405250810190611bd0919061405b565b905061271083610100015182611be691906145cf565b611bf09190614658565b83610180018181525050826101800151836101400151846101000151611c169190614724565b611c209190614724565b83610160018181525050600083610120018181525050600073ffffffffffffffffffffffffffffffffffffffff168360a0015173ffffffffffffffffffffffffffffffffffffffff1614158015611c7b575060008360c00151115b15611db3576127108361016001518460c00151611c9891906145cf565b611ca29190614658565b8361012001818152505082610120015160ca60008473ffffffffffffffffffffffffffffffffffffffff1673ffffffffffffffffffffffffffffffffffffffff16815260200190815260200160002060008560a0015173ffffffffffffffffffffffffffffffffffffffff1673ffffffffffffffffffffffffffffffffffffffff1681526020019081526020016000206000828254611d419190614689565b925050819055507fd20a9dd733d530d6ff5f314da5a1f73608e0c9328eb459d5971312a7ce6cc2198360a0015183856101200151866101a00151604051611d8b94939291906146df565b60405180910390a18261012001518361016001818151611dab9190614724565b915081815250505b82610160015160ca60008473ffffffffffffffffffffffffffffffffffffffff1673ffffffffffffffffffffffffffffffffffffffff1681526020019081526020016000206000856080015173ffffffffffffffffffffffffffffffffffffffff1673ffffffffffffffffffffffffffffffffffffffff1681526020019081526020016000206000828254611e489190614689565b925050819055507fbc6998d896bf22ea1228e704a40269ce0bb6a59c6eb57cafaa7d86c08d9bc923836080015183856101600151866101a00151604051611e9294939291906146df565b60405180910390a160405180606001604052808373ffffffffffffffffffffffffffffffffffffffff1681526020018460e0015181526020018281525060cb6000856101a00151815260200190815260200160002060008201518160000160006101000a81548173ffffffffffffffffffffffffffffffffffffffff021916908373ffffffffffffffffffffffffffffffffffffffff1602179055506020820151816001015560408201518160020155905050600060c960009054906101000a900473ffffffffffffffffffffffffffffffffffffffff1673ffffffffffffffffffffffffffffffffffffffff166376104ad56040518163ffffffff1660e01b8152600401602060405180830381600087803b158015611fb157600080fd5b505af1158015611fc5573d6000803e3d6000fd5b505050506040513d601f19601f82011682018060405250810190611fe99190614802565b90508073ffffffffffffffffffffffffffffffffffffffff1663731133e988866101a001518b600067ffffffffffffffff81111561202a576120296139b7565b5b6040519080825280601f01601f19166020018201604052801561205c5781602001600182028036833780820191505090505b506040518563ffffffff1660e01b815260040161207c9493929190614884565b600060405180830381600087803b15801561209657600080fd5b505af11580156120aa573d6000803e3d6000fd5b505050507f0bdc7ecab592c309e746a1dfcb1a7749f6c964110b1e87b70f33da3db038e39189898989886101a00151896101c001516040516120f1969594939291906148d0565b60405180910390a1505050505050505050565b60008411612147576040517f08c379a000000000000000000000000000000000000000000000000000000000815260040161213e906140d4565b60405180910390fd5b61214f6132fc565b60c960009054906101000a900473ffffffffffffffffffffffffffffffffffffffff1673ffffffffffffffffffffffffffffffffffffffff166376104ad56040518163ffffffff1660e01b8152600401602060405180830381600087803b1580156121b957600080fd5b505af11580156121cd573d6000803e3d6000fd5b505050506040513d601f19601f820116820180604052508101906121f19190614802565b816000019073ffffffffffffffffffffffffffffffffffffffff16908173ffffffffffffffffffffffffffffffffffffffff1681525050806000015173ffffffffffffffffffffffffffffffffffffffff1663f5298aca3388886040518463ffffffff1660e01b815260040161226993929190614931565b600060405180830381600087803b15801561228357600080fd5b505af1158015612297573d6000803e3d6000fd5b5050505060cb60008781526020019081526020016000206040518060600160405290816000820160009054906101000a900473ffffffffffffffffffffffffffffffffffffffff1673ffffffffffffffffffffffffffffffffffffffff1673ffffffffffffffffffffffffffffffffffffffff1681526020016001820154815260200160028201548152505081602001819052506127108582602001516040015183602001516020015161234b91906145cf565b61235591906145cf565b61235f9190614658565b816040018181525050600073ffffffffffffffffffffffffffffffffffffffff168473ffffffffffffffffffffffffffffffffffffffff16146125e857612710816040015160c960009054906101000a900473ffffffffffffffffffffffffffffffffffffffff1673ffffffffffffffffffffffffffffffffffffffff1663b27bcea16040518163ffffffff1660e01b8152600401602060405180830381600087803b15801561240e57600080fd5b505af1158015612422573d6000803e3d6000fd5b505050506040513d601f19601f820116820180604052508101906124469190613f8b565b73ffffffffffffffffffffffffffffffffffffffff1663cc22c3e26040518163ffffffff1660e01b8152600401602060405180830381600087803b15801561248d57600080fd5b505af11580156124a1573d6000803e3d6000fd5b505050506040513d601f19601f820116820180604052508101906124c5919061405b565b6124cf91906145cf565b6124d99190614658565b816060018181525050806060015160ca600083602001516000015173ffffffffffffffffffffffffffffffffffffffff1673ffffffffffffffffffffffffffffffffffffffff16815260200190815260200160002060008673ffffffffffffffffffffffffffffffffffffffff1673ffffffffffffffffffffffffffffffffffffffff168152602001908152602001600020600082825461257a9190614689565b925050819055507fcae8f06f6239452c3a95ac7735981695a2862cac824988341cae89250e21f7ce848260200151600001518360600151896040516125c294939291906146df565b60405180910390a18060600151816040018181516125e09190614724565b915081815250505b61271060c960009054906101000a900473ffffffffffffffffffffffffffffffffffffffff1673ffffffffffffffffffffffffffffffffffffffff1663b27bcea16040518163ffffffff1660e01b8152600401602060405180830381600087803b15801561265557600080fd5b505af1158015612669573d6000803e3d6000fd5b505050506040513d601f19601f8201168201806040525081019061268d9190613f8b565b73ffffffffffffffffffffffffffffffffffffffff1662ac1c5a6040518163ffffffff1660e01b8152600401602060405180830381600087803b1580156126d357600080fd5b505af11580156126e7573d6000803e3d6000fd5b505050506040513d601f19601f8201168201806040525081019061270b919061405b565b826040015161271a91906145cf565b6127249190614658565b816080018181525050806080015181604001516127419190614724565b8160a001818152505060c960009054906101000a900473ffffffffffffffffffffffffffffffffffffffff1673ffffffffffffffffffffffffffffffffffffffff16636fdfe8c56040518163ffffffff1660e01b8152600401602060405180830381600087803b1580156127b457600080fd5b505af11580156127c8573d6000803e3d6000fd5b505050506040513d601f19601f820116820180604052508101906127ec91906149a6565b8160c0019073ffffffffffffffffffffffffffffffffffffffff16908173ffffffffffffffffffffffffffffffffffffffff1681525050600073ffffffffffffffffffffffffffffffffffffffff168373ffffffffffffffffffffffffffffffffffffffff16146129fb5760c960009054906101000a900473ffffffffffffffffffffffffffffffffffffffff1673ffffffffffffffffffffffffffffffffffffffff1663b27bcea16040518163ffffffff1660e01b8152600401602060405180830381600087803b1580156128c157600080fd5b505af11580156128d5573d6000803e3d6000fd5b505050506040513d601f19601f820116820180604052508101906128f99190613f8b565b73ffffffffffffffffffffffffffffffffffffffff166373cf2a67846040518263ffffffff1660e01b815260040161293191906149d3565b602060405180830381600087803b15801561294b57600080fd5b505af115801561295f573d6000803e3d6000fd5b505050506040513d601f19601f8201168201806040525081019061298391906149ee565b6129c2576040517f08c379a00000000000000000000000000000000000000000000000000000000081526004016129b990614a67565b60405180910390fd5b828160c0019073ffffffffffffffffffffffffffffffffffffffff16908173ffffffffffffffffffffffffffffffffffffffff16815250505b60008160c0015173ffffffffffffffffffffffffffffffffffffffff166317e1816c8b8b8b8660200151600001516040518563ffffffff1660e01b8152600401612a489493929190614a87565b602060405180830381600087803b158015612a6257600080fd5b505af1158015612a76573d6000803e3d6000fd5b505050506040513d601f19601f82011682018060405250810190612a9a919061405b565b905081602001516000015173ffffffffffffffffffffffffffffffffffffffff1663095ea7b38360c0015184604001516040518363ffffffff1660e01b8152600401612ae7929190614acc565b602060405180830381600087803b158015612b0157600080fd5b505af1158015612b15573d6000803e3d6000fd5b505050506040513d601f19601f82011682018060405250810190612b3991906149ee565b508160c0015173ffffffffffffffffffffffffffffffffffffffff1663a550fcf18b8b8b86602001516000015187608001513060016040518863ffffffff1660e01b8152600401612b909796959493929190614af5565b602060405180830381600087803b158015612baa57600080fd5b505af1158015612bbe573d6000803e3d6000fd5b505050506040513d601f19601f82011682018060405250810190612be2919061405b565b8260e001818152505060008a8a8a8560c0015185604051602001612c0a9594939291906141cc565b6040516020818303038152906040528051906020012060001c90508260e0015160cc60008381526020019081526020016000206000828254612c4c9190614689565b925050819055508260c0015173ffffffffffffffffffffffffffffffffffffffff1663a550fcf18c8c8c8760200151600001518860a001513360006040518863ffffffff1660e01b8152600401612ca99796959493929190614af5565b602060405180830381600087803b158015612cc357600080fd5b505af1158015612cd7573d6000803e3d6000fd5b505050506040513d601f19601f82011682018060405250810190612cfb919061405b565b836101000181815250507f86f9c427e6e19d3b1226e7a7f9895ac4e6ec3a64d4475df29ca7994ecaff6ca28b8b8b8b8b8b8a898b6101000151604051612d4999989796959493929190614b64565b60405180910390a15050505050505050505050565b612ddf8363a9059cbb60e01b8484604051602401612d7d929190614acc565b604051602081830303815290604052907bffffffffffffffffffffffffffffffffffffffffffffffffffffffff19166020820180517bffffffffffffffffffffffffffffffffffffffffffffffffffffffff8381831617835250505050612f28565b505050565b6000612def30612fef565b15905090565b600060019054906101000a900460ff16612e44576040517f08c379a0000000000000000000000000000000000000000000000000000000008152600401612e3b90614c63565b60405180910390fd5b612e4c613012565b565b600060019054906101000a900460ff16612e9d576040517f08c379a0000000000000000000000000000000000000000000000000000000008152600401612e9490614c63565b60405180910390fd5b565b612f22846323b872dd60e01b858585604051602401612ec093929190614c83565b604051602081830303815290604052907bffffffffffffffffffffffffffffffffffffffffffffffffffffffff19166020820180517bffffffffffffffffffffffffffffffffffffffffffffffffffffffff8381831617835250505050612f28565b50505050565b6000612f8a826040518060400160405280602081526020017f5361666545524332303a206c6f772d6c6576656c2063616c6c206661696c65648152508573ffffffffffffffffffffffffffffffffffffffff1661306a9092919063ffffffff16565b9050600081511115612fea5780806020019051810190612faa91906149ee565b612fe9576040517f08c379a0000000000000000000000000000000000000000000000000000000008152600401612fe090614d2c565b60405180910390fd5b5b505050565b6000808273ffffffffffffffffffffffffffffffffffffffff163b119050919050565b600060019054906101000a900460ff16613061576040517f08c379a000000000000000000000000000000000000000000000000000000000815260040161305890614c63565b60405180910390fd5b60018081905550565b60606130798484600085613082565b90509392505050565b6060824710156130c7576040517f08c379a00000000000000000000000000000000000000000000000000000000081526004016130be90614dbe565b60405180910390fd5b6130d085612fef565b61310f576040517f08c379a000000000000000000000000000000000000000000000000000000000815260040161310690614e2a565b60405180910390fd5b6000808673ffffffffffffffffffffffffffffffffffffffff1685876040516131389190614e86565b60006040518083038185875af1925050503d8060008114613175576040519150601f19603f3d011682016040523d82523d6000602084013e61317a565b606091505b509150915061318a828286613196565b92505050949350505050565b606083156131a6578290506131f6565b6000835111156131b95782518084602001fd5b816040517f08c379a00000000000000000000000000000000000000000000000000000000081526004016131ed9190613d9b565b60405180910390fd5b9392505050565b6040518060a0016040528060008152602001600081526020016000815260200160008152602001600081525090565b604051806101e00160405280600073ffffffffffffffffffffffffffffffffffffffff168152602001600073ffffffffffffffffffffffffffffffffffffffff16815260200160008152602001600015158152602001600073ffffffffffffffffffffffffffffffffffffffff168152602001600073ffffffffffffffffffffffffffffffffffffffff1681526020016000815260200160008152602001600081526020016000815260200160008152602001600081526020016000815260200160008152602001600081525090565b604051806101200160405280600073ffffffffffffffffffffffffffffffffffffffff16815260200161332d61337a565b815260200160008152602001600081526020016000815260200160008152602001600073ffffffffffffffffffffffffffffffffffffffff16815260200160008152602001600081525090565b6040518060600160405280600073ffffffffffffffffffffffffffffffffffffffff16815260200160008152602001600081525090565b6000604051905090565b600080fd5b600080fd5b6000819050919050565b6133d8816133c5565b81146133e357600080fd5b50565b6000813590506133f5816133cf565b92915050565b600060208284031215613411576134106133bb565b5b600061341f848285016133e6565b91505092915050565b600073ffffffffffffffffffffffffffffffffffffffff82169050919050565b6000819050919050565b600061346d61346861346384613428565b613448565b613428565b9050919050565b600061347f82613452565b9050919050565b600061349182613474565b9050919050565b6134a181613486565b82525050565b6134b0816133c5565b82525050565b60006060820190506134cb6000830186613498565b6134d860208301856134a7565b6134e560408301846134a7565b949350505050565b60007fffffffff0000000000000000000000000000000000000000000000000000000082169050919050565b613522816134ed565b811461352d57600080fd5b50565b60008135905061353f81613519565b92915050565b60006020828403121561355b5761355a6133bb565b5b600061356984828501613530565b91505092915050565b60008115159050919050565b61358781613572565b82525050565b60006020820190506135a2600083018461357e565b92915050565b60006135b382613428565b9050919050565b6135c3816135a8565b81146135ce57600080fd5b50565b6000813590506135e0816135ba565b92915050565b600080600080600060a08688031215613602576136016133bb565b5b6000613610888289016133e6565b9550506020613621888289016133e6565b9450506040613632888289016135d1565b9350506060613643888289016135d1565b9250506080613654888289016133e6565b9150509295509295909350565b60008060008060008060008060006101208a8c031215613684576136836133bb565b5b60006136928c828d016133e6565b99505060206136a38c828d016133e6565b98505060406136b48c828d016135d1565b97505060606136c58c828d016133e6565b96505060806136d68c828d016133e6565b95505060a06136e78c828d016135d1565b94505060c06136f88c828d016133e6565b93505060e06137098c828d016135d1565b92505061010061371b8c828d016133e6565b9150509295985092959850929598565b600061373682613474565b9050919050565b6137468161372b565b82525050565b6000602082019050613761600083018461373d565b92915050565b6000806000606084860312156137805761377f6133bb565b5b600061378e868287016133e6565b935050602061379f868287016133e6565b92505060406137b0868287016133e6565b9150509250925092565b60006020820190506137cf60008301846134a7565b92915050565b600080600080600080600080610100898b0312156137f6576137f56133bb565b5b60006138048b828c016133e6565b98505060206138158b828c016135d1565b97505060406138268b828c016133e6565b96505060606138378b828c016133e6565b95505060806138488b828c016133e6565b94505060a06138598b828c016135d1565b93505060c061386a8b828c016135d1565b92505060e061387b8b828c016133e6565b9150509295985092959890939650565b6000613896826135a8565b9050919050565b6138a68161388b565b81146138b157600080fd5b50565b6000813590506138c38161389d565b92915050565b600080604083850312156138e0576138df6133bb565b5b60006138ee858286016138b4565b92505060206138ff858286016135d1565b9150509250929050565b6000613914826135a8565b9050919050565b61392481613909565b811461392f57600080fd5b50565b6000813590506139418161391b565b92915050565b60006020828403121561395d5761395c6133bb565b5b600061396b84828501613932565b91505092915050565b60006020828403121561398a576139896133bb565b5b6000613998848285016138b4565b91505092915050565b600080fd5b6000601f19601f8301169050919050565b7f4e487b7100000000000000000000000000000000000000000000000000000000600052604160045260246000fd5b6139ef826139a6565b810181811067ffffffffffffffff82111715613a0e57613a0d6139b7565b5b80604052505050565b6000613a216133b1565b9050613a2d82826139e6565b919050565b600067ffffffffffffffff821115613a4d57613a4c6139b7565b5b602082029050602081019050919050565b600080fd5b6000613a76613a7184613a32565b613a17565b90508083825260208201905060208402830185811115613a9957613a98613a5e565b5b835b81811015613ac25780613aae88826133e6565b845260208401935050602081019050613a9b565b5050509392505050565b600082601f830112613ae157613ae06139a1565b5b8135613af1848260208601613a63565b91505092915050565b600080fd5b600067ffffffffffffffff821115613b1a57613b196139b7565b5b613b23826139a6565b9050602081019050919050565b82818337600083830152505050565b6000613b52613b4d84613aff565b613a17565b905082815260208101848484011115613b6e57613b6d613afa565b5b613b79848285613b30565b509392505050565b600082601f830112613b9657613b956139a1565b5b8135613ba6848260208601613b3f565b91505092915050565b600080600080600060a08688031215613bcb57613bca6133bb565b5b6000613bd9888289016135d1565b9550506020613bea888289016135d1565b945050604086013567ffffffffffffffff811115613c0b57613c0a6133c0565b5b613c1788828901613acc565b935050606086013567ffffffffffffffff811115613c3857613c376133c0565b5b613c4488828901613acc565b925050608086013567ffffffffffffffff811115613c6557613c646133c0565b5b613c7188828901613b81565b9150509295509295909350565b613c87816134ed565b82525050565b6000602082019050613ca26000830184613c7e565b92915050565b6000613cb3826135a8565b9050919050565b613cc381613ca8565b8114613cce57600080fd5b50565b600081359050613ce081613cba565b92915050565b600060208284031215613cfc57613cfb6133bb565b5b6000613d0a84828501613cd1565b91505092915050565b600081519050919050565b600082825260208201905092915050565b60005b83811015613d4d578082015181840152602081019050613d32565b83811115613d5c576000848401525b50505050565b6000613d6d82613d13565b613d778185613d1e565b9350613d87818560208601613d2f565b613d90816139a6565b840191505092915050565b60006020820190508181036000830152613db58184613d62565b905092915050565b600080600080600060a08688031215613dd957613dd86133bb565b5b6000613de7888289016135d1565b9550506020613df8888289016135d1565b9450506040613e09888289016133e6565b9350506060613e1a888289016133e6565b925050608086013567ffffffffffffffff811115613e3b57613e3a6133c0565b5b613e4788828901613b81565b9150509295509295909350565b600080600080600080600080610100898b031215613e7557613e746133bb565b5b6000613e838b828c016133e6565b9850506020613e948b828c016135d1565b9750506040613ea58b828c016133e6565b9650506060613eb68b828c016138b4565b9550506080613ec78b828c016135d1565b94505060a0613ed88b828c016133e6565b93505060c0613ee98b828c016133e6565b92505060e0613efa8b828c016135d1565b9150509295985092959890939650565b7f5265656e7472616e637947756172643a207265656e7472616e742063616c6c00600082015250565b6000613f40601f83613d1e565b9150613f4b82613f0a565b602082019050919050565b60006020820190508181036000830152613f6f81613f33565b9050919050565b600081519050613f858161391b565b92915050565b600060208284031215613fa157613fa06133bb565b5b6000613faf84828501613f76565b91505092915050565b60006080820190508181036000830152613fd28187613d62565b9050613fe160208301866134a7565b613fee60408301856134a7565b613ffb60608301846134a7565b95945050505050565b6000815190506140138161389d565b92915050565b60006020828403121561402f5761402e6133bb565b5b600061403d84828501614004565b91505092915050565b600081519050614055816133cf565b92915050565b600060208284031215614071576140706133bb565b5b600061407f84828501614046565b91505092915050565b7f496e76616c6964203020696e7075740000000000000000000000000000000000600082015250565b60006140be600f83613d1e565b91506140c982614088565b602082019050919050565b600060208201905081810360008301526140ed816140b1565b9050919050565b6140fd816135a8565b82525050565b600060608201905061411860008301866140f4565b61412560208301856134a7565b61413260408301846140f4565b949350505050565b7f496e697469616c697a61626c653a20636f6e747261637420697320616c72656160008201527f647920696e697469616c697a6564000000000000000000000000000000000000602082015250565b6000614196602e83613d1e565b91506141a18261413a565b604082019050919050565b600060208201905081810360008301526141c581614189565b9050919050565b600060a0820190506141e160008301886134a7565b6141ee60208301876140f4565b6141fb60408301866134a7565b61420860608301856140f4565b61421560808301846134a7565b9695505050505050565b7f4e6f207265776172647300000000000000000000000000000000000000000000600082015250565b6000614255600a83613d1e565b91506142608261421f565b602082019050919050565b6000602082019050818103600083015261428481614248565b9050919050565b7f526577617264732062616c616e6365206c657373207468616e2073686172657360008201527f546f4275726e20696e7075742076616c75650000000000000000000000000000602082015250565b60006142e7603283613d1e565b91506142f28261428b565b604082019050919050565b60006020820190508181036000830152614316816142da565b9050919050565b6000614328826135a8565b9050919050565b6143388161431d565b811461434357600080fd5b50565b6000815190506143558161432f565b92915050565b600060208284031215614371576143706133bb565b5b600061437f84828501614346565b91505092915050565b600060608201905061439d60008301866134a7565b6143aa60208301856140f4565b6143b760408301846134a7565b949350505050565b6143c881613572565b81146143d357600080fd5b50565b6000815190506143e5816143bf565b92915050565b6000815190506143fa816135ba565b92915050565b6000806000806080858703121561441a576144196133bb565b5b6000614428878288016143d6565b9450506020614439878288016143eb565b935050604061444a878288016143eb565b925050606061445b87828801614046565b91505092959194509250565b7f4e4654206e6f7420726567697374657265640000000000000000000000000000600082015250565b600061449d601283613d1e565b91506144a882614467565b602082019050919050565b600060208201905081810360008301526144cc81614490565b9050919050565b7f4e4654206e6f74206f776e656400000000000000000000000000000000000000600082015250565b6000614509600d83613d1e565b9150614514826144d3565b602082019050919050565b60006020820190508181036000830152614538816144fc565b9050919050565b600060c08201905061455460008301896134a7565b61456160208301886140f4565b61456e60408301876134a7565b61457b6060830186613498565b61458860808301856134a7565b61459560a08301846140f4565b979650505050505050565b7f4e487b7100000000000000000000000000000000000000000000000000000000600052601160045260246000fd5b60006145da826133c5565b91506145e5836133c5565b9250817fffffffffffffffffffffffffffffffffffffffffffffffffffffffffffffffff048311821515161561461e5761461d6145a0565b5b828202905092915050565b7f4e487b7100000000000000000000000000000000000000000000000000000000600052601260045260246000fd5b6000614663826133c5565b915061466e836133c5565b92508261467e5761467d614629565b5b828204905092915050565b6000614694826133c5565b915061469f836133c5565b9250827fffffffffffffffffffffffffffffffffffffffffffffffffffffffffffffffff038211156146d4576146d36145a0565b5b828201905092915050565b60006080820190506146f460008301876140f4565b6147016020830186613498565b61470e60408301856134a7565b61471b60608301846134a7565b95945050505050565b600061472f826133c5565b915061473a836133c5565b92508282101561474d5761474c6145a0565b5b828203905092915050565b7f556e6b6e6f776e204e4654000000000000000000000000000000000000000000600082015250565b600061478e600b83613d1e565b915061479982614758565b602082019050919050565b600060208201905081810360008301526147bd81614781565b9050919050565b60006147cf826135a8565b9050919050565b6147df816147c4565b81146147ea57600080fd5b50565b6000815190506147fc816147d6565b92915050565b600060208284031215614818576148176133bb565b5b6000614826848285016147ed565b91505092915050565b600081519050919050565b600082825260208201905092915050565b60006148568261482f565b614860818561483a565b9350614870818560208601613d2f565b614879816139a6565b840191505092915050565b600060808201905061489960008301876140f4565b6148a660208301866134a7565b6148b360408301856134a7565b81810360608301526148c5818461484b565b905095945050505050565b600060c0820190506148e560008301896134a7565b6148f260208301886134a7565b6148ff60408301876140f4565b61490c60608301866140f4565b61491960808301856134a7565b61492660a08301846134a7565b979650505050505050565b600060608201905061494660008301866140f4565b61495360208301856134a7565b61496060408301846134a7565b949350505050565b6000614973826135a8565b9050919050565b61498381614968565b811461498e57600080fd5b50565b6000815190506149a08161497a565b92915050565b6000602082840312156149bc576149bb6133bb565b5b60006149ca84828501614991565b91505092915050565b60006020820190506149e860008301846140f4565b92915050565b600060208284031215614a0457614a036133bb565b5b6000614a12848285016143d6565b91505092915050565b7f4572722043757261746f725661756c7400000000000000000000000000000000600082015250565b6000614a51601083613d1e565b9150614a5c82614a1b565b602082019050919050565b60006020820190508181036000830152614a8081614a44565b9050919050565b6000608082019050614a9c60008301876134a7565b614aa960208301866140f4565b614ab660408301856134a7565b614ac36060830184613498565b95945050505050565b6000604082019050614ae160008301856140f4565b614aee60208301846134a7565b9392505050565b600060e082019050614b0a600083018a6134a7565b614b1760208301896140f4565b614b2460408301886134a7565b614b316060830187613498565b614b3e60808301866134a7565b614b4b60a08301856140f4565b614b5860c083018461357e565b98975050505050505050565b600061012082019050614b7a600083018c6134a7565b614b87602083018b6140f4565b614b94604083018a6134a7565b614ba160608301896134a7565b614bae60808301886134a7565b614bbb60a08301876140f4565b614bc860c08301866134a7565b614bd560e08301856134a7565b614be36101008301846134a7565b9a9950505050505050505050565b7f496e697469616c697a61626c653a20636f6e7472616374206973206e6f74206960008201527f6e697469616c697a696e67000000000000000000000000000000000000000000602082015250565b6000614c4d602b83613d1e565b9150614c5882614bf1565b604082019050919050565b60006020820190508181036000830152614c7c81614c40565b9050919050565b6000606082019050614c9860008301866140f4565b614ca560208301856140f4565b614cb260408301846134a7565b949350505050565b7f5361666545524332303a204552433230206f7065726174696f6e20646964206e60008201527f6f74207375636365656400000000000000000000000000000000000000000000602082015250565b6000614d16602a83613d1e565b9150614d2182614cba565b604082019050919050565b60006020820190508181036000830152614d4581614d09565b9050919050565b7f416464726573733a20696e73756666696369656e742062616c616e636520666f60008201527f722063616c6c0000000000000000000000000000000000000000000000000000602082015250565b6000614da8602683613d1e565b9150614db382614d4c565b604082019050919050565b60006020820190508181036000830152614dd781614d9b565b9050919050565b7f416464726573733a2063616c6c20746f206e6f6e2d636f6e7472616374000000600082015250565b6000614e14601d83613d1e565b9150614e1f82614dde565b602082019050919050565b60006020820190508181036000830152614e4381614e07565b9050919050565b600081905092915050565b6000614e608261482f565b614e6a8185614e4a565b9350614e7a818560208601613d2f565b80840191505092915050565b6000614e928284614e55565b91508190509291505056fea264697066735822122002c7e724346d02764c0036cbad1c857dc98319d01d311c88a8a68fca9e06b8f464736f6c63430008090033",
  "devdoc": {
    "details": "This contract buying and spending reactions",
    "events": {
      "CreatorRewardsGranted(address,address,uint256,uint256)": {
        "details": "Event emitted when rewards are granted to a creator"
      },
      "ERC20RewardsClaimed(address,uint256,address)": {
        "details": "Event emitted when an account withdraws ERC20 rewards"
      },
      "MakerRewardsGranted(address,address,uint256,uint256)": {
        "details": "Event emitted when rewards are granted to a maker"
      },
      "ReactionsPurchased(uint256,uint256,address,address,uint256,uint256)": {
        "details": "Event emitted when a reaction is purchased"
      },
      "ReactionsSpent(uint256,address,uint256,uint256,uint256,address,uint256,uint256,uint256)": {
        "details": "Event emitted when reaction is spent"
      },
      "ReferrerRewardsGranted(address,address,uint256,uint256)": {
        "details": "Event emitted when rewards are granted to a referrer"
      }
    },
    "kind": "dev",
    "methods": {
      "buyAndSpendReaction(uint256,uint256,address,uint256,uint256,address,uint256,address,uint256)": {
        "details": "Allows a user to buy and spend a reaction in 1 transaction instead of first buying and then spending in 2 separate transactions"
      },
      "buyReaction(uint256,uint256,address,address,uint256)": {
        "details": "External func to allow a user to buy reaction NFTs based on a registered Maker NFT",
        "params": {
          "destinationWallet": "reactions will be minted into this wallet (allows bulk buying from other contracts since reactions are non-transferrable)",
          "optionBits": "Optional param to specify options how the user wants transform reaction",
          "quantity": "Number of reactions to buy",
          "referrer": "Optional param to specify an address where referrer rewards are allocated",
          "transformId": "transform to be purchased"
        }
      },
      "deriveParameterVersion(address)": {
        "details": "Derive the pricing parameters version E.g. if the price of a reaction changes, the paramaterVersion should be different"
      },
      "deriveReactionId(uint256,uint256,uint256)": {
        "details": "Derive the reaction ID from the parameters This unique ID will be used to track instances of reactions built from the same params E.g. if the price of a reaction changes, the reaction ID should be different"
      },
      "initialize(address)": {
        "details": "initializer to call after deployment, can only be called once"
      },
      "spendReaction(uint256,address,uint256,uint256,uint256,address,address,uint256)": {
        "details": "Allows a reaction NFT owner to spend (burn) their tokens at a specific target Taker NFT.",
        "params": {
          "curatorVaultOverride": "Optional address of non-default curator vault",
          "ipfsMetadataHash": "Optional hash of any metadata being associated with spend action",
          "reactionId": "Reaction to spend",
          "reactionQuantity": "How many reactions to spend",
          "referrer": "Optional address where referrer rewards are allocated",
          "takerNftAddress": "Target contract where the reaction is targeting",
          "takerNftChainId": "Chain ID where the NFT lives",
          "takerNftId": "Target NFT ID in the contract"
        }
      },
      "supportsInterface(bytes4)": {
        "details": "See {IERC165-supportsInterface}."
      },
      "withdrawErc20Rewards(address)": {
        "details": "Allows an account that has been allocated rewards to withdraw (Maker, creator, referrer)",
        "params": {
          "token": "ERC20 token that rewards are valued in"
        }
      },
      "withdrawTakerRewards(uint256,address,uint256,address,address,uint256,uint256,address)": {
        "details": "Allows an NFT taker to withdraw rewards for reactions that were spent against an NFT that they own. The owner of the NFT must register the NFT into the system before they can claim the rewards."
      }
    },
    "title": "ReactionVault",
    "version": 1
  },
  "userdoc": {
    "kind": "user",
    "methods": {},
    "version": 1
  },
  "storageLayout": {
    "storage": [
      {
        "astId": 2797,
        "contract": "contracts/Reactions/ReactionVault.sol:ReactionVault",
        "label": "_initialized",
        "offset": 0,
        "slot": "0",
        "type": "t_bool"
      },
      {
        "astId": 2800,
        "contract": "contracts/Reactions/ReactionVault.sol:ReactionVault",
        "label": "_initializing",
        "offset": 1,
        "slot": "0",
        "type": "t_bool"
      },
      {
        "astId": 2878,
        "contract": "contracts/Reactions/ReactionVault.sol:ReactionVault",
        "label": "_status",
        "offset": 0,
        "slot": "1",
        "type": "t_uint256"
      },
      {
        "astId": 2922,
        "contract": "contracts/Reactions/ReactionVault.sol:ReactionVault",
        "label": "__gap",
        "offset": 0,
        "slot": "2",
        "type": "t_array(t_uint256)49_storage"
      },
      {
        "astId": 6867,
        "contract": "contracts/Reactions/ReactionVault.sol:ReactionVault",
        "label": "__gap",
        "offset": 0,
        "slot": "51",
        "type": "t_array(t_uint256)50_storage"
      },
      {
        "astId": 4343,
        "contract": "contracts/Reactions/ReactionVault.sol:ReactionVault",
        "label": "__gap",
        "offset": 0,
        "slot": "101",
        "type": "t_array(t_uint256)50_storage"
      },
      {
        "astId": 4289,
        "contract": "contracts/Reactions/ReactionVault.sol:ReactionVault",
        "label": "__gap",
        "offset": 0,
        "slot": "151",
        "type": "t_array(t_uint256)50_storage"
      },
      {
        "astId": 10286,
        "contract": "contracts/Reactions/ReactionVault.sol:ReactionVault",
        "label": "addressManager",
        "offset": 0,
        "slot": "201",
        "type": "t_contract(IAddressManager)7543"
      },
      {
        "astId": 10294,
        "contract": "contracts/Reactions/ReactionVault.sol:ReactionVault",
        "label": "ownerToRewardsMapping",
        "offset": 0,
        "slot": "202",
        "type": "t_mapping(t_contract(IERC20Upgradeable)5035,t_mapping(t_address,t_uint256))"
      },
      {
        "astId": 10300,
        "contract": "contracts/Reactions/ReactionVault.sol:ReactionVault",
        "label": "reactionPriceDetailsMapping",
        "offset": 0,
        "slot": "203",
        "type": "t_mapping(t_uint256,t_struct(ReactionPriceDetails)8880_storage)"
      },
      {
        "astId": 10305,
        "contract": "contracts/Reactions/ReactionVault.sol:ReactionVault",
        "label": "nftOwnerRewards",
        "offset": 0,
        "slot": "204",
        "type": "t_mapping(t_uint256,t_uint256)"
      }
    ],
    "types": {
      "t_address": {
        "encoding": "inplace",
        "label": "address",
        "numberOfBytes": "20"
      },
      "t_array(t_uint256)49_storage": {
        "base": "t_uint256",
        "encoding": "inplace",
        "label": "uint256[49]",
        "numberOfBytes": "1568"
      },
      "t_array(t_uint256)50_storage": {
        "base": "t_uint256",
        "encoding": "inplace",
        "label": "uint256[50]",
        "numberOfBytes": "1600"
      },
      "t_bool": {
        "encoding": "inplace",
        "label": "bool",
        "numberOfBytes": "1"
      },
      "t_contract(IAddressManager)7543": {
        "encoding": "inplace",
        "label": "contract IAddressManager",
        "numberOfBytes": "20"
      },
      "t_contract(IERC20Upgradeable)5035": {
        "encoding": "inplace",
        "label": "contract IERC20Upgradeable",
        "numberOfBytes": "20"
      },
      "t_mapping(t_address,t_uint256)": {
        "encoding": "mapping",
        "key": "t_address",
        "label": "mapping(address => uint256)",
        "numberOfBytes": "32",
        "value": "t_uint256"
      },
      "t_mapping(t_contract(IERC20Upgradeable)5035,t_mapping(t_address,t_uint256))": {
        "encoding": "mapping",
        "key": "t_contract(IERC20Upgradeable)5035",
        "label": "mapping(contract IERC20Upgradeable => mapping(address => uint256))",
        "numberOfBytes": "32",
        "value": "t_mapping(t_address,t_uint256)"
      },
      "t_mapping(t_uint256,t_struct(ReactionPriceDetails)8880_storage)": {
        "encoding": "mapping",
        "key": "t_uint256",
        "label": "mapping(uint256 => struct IReactionVault.ReactionPriceDetails)",
        "numberOfBytes": "32",
        "value": "t_struct(ReactionPriceDetails)8880_storage"
      },
      "t_mapping(t_uint256,t_uint256)": {
        "encoding": "mapping",
        "key": "t_uint256",
        "label": "mapping(uint256 => uint256)",
        "numberOfBytes": "32",
        "value": "t_uint256"
      },
      "t_struct(ReactionPriceDetails)8880_storage": {
        "encoding": "inplace",
        "label": "struct IReactionVault.ReactionPriceDetails",
        "members": [
          {
            "astId": 8875,
            "contract": "contracts/Reactions/ReactionVault.sol:ReactionVault",
            "label": "paymentToken",
            "offset": 0,
            "slot": "0",
            "type": "t_contract(IERC20Upgradeable)5035"
          },
          {
            "astId": 8877,
            "contract": "contracts/Reactions/ReactionVault.sol:ReactionVault",
            "label": "reactionPrice",
            "offset": 0,
            "slot": "1",
            "type": "t_uint256"
          },
          {
            "astId": 8879,
            "contract": "contracts/Reactions/ReactionVault.sol:ReactionVault",
            "label": "saleCuratorLiabilityBasisPoints",
            "offset": 0,
            "slot": "2",
            "type": "t_uint256"
          }
        ],
        "numberOfBytes": "96"
      },
      "t_uint256": {
        "encoding": "inplace",
        "label": "uint256",
        "numberOfBytes": "32"
      }
    }
  }
}