{
  "address": "0x09EE981c679E30dE96A0BCcD7321Ba714139788f",
  "abi": [
    {
      "anonymous": false,
      "inputs": [
        {
          "indexed": true,
          "internalType": "address",
          "name": "account",
          "type": "address"
        },
        {
          "indexed": true,
          "internalType": "address",
          "name": "operator",
          "type": "address"
        },
        {
          "indexed": false,
          "internalType": "bool",
          "name": "approved",
          "type": "bool"
        }
      ],
      "name": "ApprovalForAll",
      "type": "event"
    },
    {
      "anonymous": false,
      "inputs": [
        {
          "indexed": true,
          "internalType": "address",
          "name": "operator",
          "type": "address"
        },
        {
          "indexed": true,
          "internalType": "address",
          "name": "from",
          "type": "address"
        },
        {
          "indexed": true,
          "internalType": "address",
          "name": "to",
          "type": "address"
        },
        {
          "indexed": false,
          "internalType": "uint256[]",
          "name": "ids",
          "type": "uint256[]"
        },
        {
          "indexed": false,
          "internalType": "uint256[]",
          "name": "values",
          "type": "uint256[]"
        }
      ],
      "name": "TransferBatch",
      "type": "event"
    },
    {
      "anonymous": false,
      "inputs": [
        {
          "indexed": true,
          "internalType": "address",
          "name": "operator",
          "type": "address"
        },
        {
          "indexed": true,
          "internalType": "address",
          "name": "from",
          "type": "address"
        },
        {
          "indexed": true,
          "internalType": "address",
          "name": "to",
          "type": "address"
        },
        {
          "indexed": false,
          "internalType": "uint256",
          "name": "id",
          "type": "uint256"
        },
        {
          "indexed": false,
          "internalType": "uint256",
          "name": "value",
          "type": "uint256"
        }
      ],
      "name": "TransferSingle",
      "type": "event"
    },
    {
      "anonymous": false,
      "inputs": [
        {
          "indexed": false,
          "internalType": "string",
          "name": "value",
          "type": "string"
        },
        {
          "indexed": true,
          "internalType": "uint256",
          "name": "id",
          "type": "uint256"
        }
      ],
      "name": "URI",
      "type": "event"
    },
    {
      "inputs": [],
      "name": "addressManager",
      "outputs": [
        {
          "internalType": "contract IAddressManager",
          "name": "",
          "type": "address"
        }
      ],
      "stateMutability": "view",
      "type": "function"
    },
    {
      "inputs": [
        {
          "internalType": "address",
          "name": "account",
          "type": "address"
        },
        {
          "internalType": "uint256",
          "name": "id",
          "type": "uint256"
        }
      ],
      "name": "balanceOf",
      "outputs": [
        {
          "internalType": "uint256",
          "name": "",
          "type": "uint256"
        }
      ],
      "stateMutability": "view",
      "type": "function"
    },
    {
      "inputs": [
        {
          "internalType": "address[]",
          "name": "accounts",
          "type": "address[]"
        },
        {
          "internalType": "uint256[]",
          "name": "ids",
          "type": "uint256[]"
        }
      ],
      "name": "balanceOfBatch",
      "outputs": [
        {
          "internalType": "uint256[]",
          "name": "",
          "type": "uint256[]"
        }
      ],
      "stateMutability": "view",
      "type": "function"
    },
    {
      "inputs": [
        {
          "internalType": "address",
          "name": "from",
          "type": "address"
        },
        {
          "internalType": "uint256",
          "name": "id",
          "type": "uint256"
        },
        {
          "internalType": "uint256",
          "name": "amount",
          "type": "uint256"
        }
      ],
      "name": "burn",
      "outputs": [],
      "stateMutability": "nonpayable",
      "type": "function"
    },
    {
      "inputs": [],
      "name": "contractUri",
      "outputs": [
        {
          "internalType": "string",
          "name": "",
          "type": "string"
        }
      ],
      "stateMutability": "view",
      "type": "function"
    },
    {
      "inputs": [
        {
          "internalType": "string",
          "name": "_uri",
          "type": "string"
        },
        {
          "internalType": "address",
          "name": "_addressManager",
          "type": "address"
        },
        {
          "internalType": "string",
          "name": "_contractUri",
          "type": "string"
        }
      ],
      "name": "initialize",
      "outputs": [],
      "stateMutability": "nonpayable",
      "type": "function"
    },
    {
      "inputs": [
        {
          "internalType": "address",
          "name": "account",
          "type": "address"
        },
        {
          "internalType": "address",
          "name": "operator",
          "type": "address"
        }
      ],
      "name": "isApprovedForAll",
      "outputs": [
        {
          "internalType": "bool",
          "name": "",
          "type": "bool"
        }
      ],
      "stateMutability": "view",
      "type": "function"
    },
    {
      "inputs": [
        {
          "internalType": "address",
          "name": "to",
          "type": "address"
        },
        {
          "internalType": "uint256",
          "name": "id",
          "type": "uint256"
        },
        {
          "internalType": "uint256",
          "name": "amount",
          "type": "uint256"
        },
        {
          "internalType": "bytes",
          "name": "data",
          "type": "bytes"
        }
      ],
      "name": "mint",
      "outputs": [],
      "stateMutability": "nonpayable",
      "type": "function"
    },
    {
      "inputs": [
        {
          "internalType": "address",
          "name": "from",
          "type": "address"
        },
        {
          "internalType": "address",
          "name": "to",
          "type": "address"
        },
        {
          "internalType": "uint256[]",
          "name": "ids",
          "type": "uint256[]"
        },
        {
          "internalType": "uint256[]",
          "name": "amounts",
          "type": "uint256[]"
        },
        {
          "internalType": "bytes",
          "name": "data",
          "type": "bytes"
        }
      ],
      "name": "safeBatchTransferFrom",
      "outputs": [],
      "stateMutability": "nonpayable",
      "type": "function"
    },
    {
      "inputs": [
        {
          "internalType": "address",
          "name": "from",
          "type": "address"
        },
        {
          "internalType": "address",
          "name": "to",
          "type": "address"
        },
        {
          "internalType": "uint256",
          "name": "id",
          "type": "uint256"
        },
        {
          "internalType": "uint256",
          "name": "amount",
          "type": "uint256"
        },
        {
          "internalType": "bytes",
          "name": "data",
          "type": "bytes"
        }
      ],
      "name": "safeTransferFrom",
      "outputs": [],
      "stateMutability": "nonpayable",
      "type": "function"
    },
    {
      "inputs": [
        {
          "internalType": "address",
          "name": "operator",
          "type": "address"
        },
        {
          "internalType": "bool",
          "name": "approved",
          "type": "bool"
        }
      ],
      "name": "setApprovalForAll",
      "outputs": [],
      "stateMutability": "nonpayable",
      "type": "function"
    },
    {
      "inputs": [
        {
          "internalType": "string",
          "name": "_contractUri",
          "type": "string"
        }
      ],
      "name": "setContractUri",
      "outputs": [
        {
          "internalType": "bool",
          "name": "success",
          "type": "bool"
        }
      ],
      "stateMutability": "nonpayable",
      "type": "function"
    },
    {
      "inputs": [
        {
          "internalType": "bytes4",
          "name": "interfaceId",
          "type": "bytes4"
        }
      ],
      "name": "supportsInterface",
      "outputs": [
        {
          "internalType": "bool",
          "name": "",
          "type": "bool"
        }
      ],
      "stateMutability": "view",
      "type": "function"
    },
    {
      "inputs": [
        {
          "internalType": "uint256",
          "name": "",
          "type": "uint256"
        }
      ],
      "name": "uri",
      "outputs": [
        {
          "internalType": "string",
          "name": "",
          "type": "string"
        }
      ],
      "stateMutability": "view",
      "type": "function"
    }
  ],
  "transactionHash": "0x85fdf676b44b6d3ae020e1f0d47aebaf6961c3fb981f2f62c9ce177367016f90",
  "args": [],
  "numDeployments": 2,
  "solcInputHash": "7b9ff270f7f36eb43b92fcd577b48b8e",
  "bytecode": "0x608060405234801561001057600080fd5b50613a97806100206000396000f3fe608060405234801561001057600080fd5b50600436106100e95760003560e01c806395a2fadc1161008c578063ccb4807b11610066578063ccb4807b1461025a578063e985e9c51461028a578063f242432a146102ba578063f5298aca146102d6576100e9565b806395a2fadc14610204578063a22cb46514610220578063c0e24d5e1461023c576100e9565b80632eb2c2d6116100c85780632eb2c2d61461017e5780633ab76e9f1461019a5780634e1273f4146101b8578063731133e9146101e8576100e9565b8062fdd58e146100ee57806301ffc9a71461011e5780630e89341c1461014e575b600080fd5b6101086004803603810190610103919061214c565b6102f2565b604051610115919061219b565b60405180910390f35b6101386004803603810190610133919061220e565b6103bc565b6040516101459190612256565b60405180910390f35b61016860048036038101906101639190612271565b61049e565b6040516101759190612337565b60405180910390f35b61019860048036038101906101939190612556565b610532565b005b6101a26105d3565b6040516101af9190612684565b60405180910390f35b6101d260048036038101906101cd9190612762565b6105f9565b6040516101df9190612898565b60405180910390f35b61020260048036038101906101fd91906128ba565b610712565b005b61021e600480360381019061021991906129de565b610892565b005b61023a60048036038101906102359190612a95565b6109da565b005b6102446109f0565b6040516102519190612337565b60405180910390f35b610274600480360381019061026f9190612ad5565b610a7e565b6040516102819190612256565b60405180910390f35b6102a4600480360381019061029f9190612b1e565b610c0d565b6040516102b19190612256565b60405180910390f35b6102d460048036038101906102cf9190612b5e565b610ca1565b005b6102f060048036038101906102eb9190612bf5565b610d42565b005b60008073ffffffffffffffffffffffffffffffffffffffff168373ffffffffffffffffffffffffffffffffffffffff161415610363576040517f08c379a000000000000000000000000000000000000000000000000000000000815260040161035a90612cba565b60405180910390fd5b6065600083815260200190815260200160002060008473ffffffffffffffffffffffffffffffffffffffff1673ffffffffffffffffffffffffffffffffffffffff16815260200190815260200160002054905092915050565b60007fd9b67a26000000000000000000000000000000000000000000000000000000007bffffffffffffffffffffffffffffffffffffffffffffffffffffffff1916827bffffffffffffffffffffffffffffffffffffffffffffffffffffffff1916148061048757507f0e89341c000000000000000000000000000000000000000000000000000000007bffffffffffffffffffffffffffffffffffffffffffffffffffffffff1916827bffffffffffffffffffffffffffffffffffffffffffffffffffffffff1916145b80610497575061049682610ec0565b5b9050919050565b6060606780546104ad90612d09565b80601f01602080910402602001604051908101604052809291908181526020018280546104d990612d09565b80156105265780601f106104fb57610100808354040283529160200191610526565b820191906000526020600020905b81548152906001019060200180831161050957829003601f168201915b50505050509050919050565b61053a610f2a565b73ffffffffffffffffffffffffffffffffffffffff168573ffffffffffffffffffffffffffffffffffffffff161480610580575061057f8561057a610f2a565b610c0d565b5b6105bf576040517f08c379a00000000000000000000000000000000000000000000000000000000081526004016105b690612dad565b60405180910390fd5b6105cc8585858585610f32565b5050505050565b609760009054906101000a900473ffffffffffffffffffffffffffffffffffffffff1681565b6060815183511461063f576040517f08c379a000000000000000000000000000000000000000000000000000000000815260040161063690612e3f565b60405180910390fd5b6000835167ffffffffffffffff81111561065c5761065b61235e565b5b60405190808252806020026020018201604052801561068a5781602001602082028036833780820191505090505b50905060005b8451811015610707576106d78582815181106106af576106ae612e5f565b5b60200260200101518583815181106106ca576106c9612e5f565b5b60200260200101516102f2565b8282815181106106ea576106e9612e5f565b5b6020026020010181815250508061070090612ebd565b9050610690565b508091505092915050565b6000609760009054906101000a900473ffffffffffffffffffffffffffffffffffffffff1673ffffffffffffffffffffffffffffffffffffffff1662435da56040518163ffffffff1660e01b8152600401602060405180830381600087803b15801561077d57600080fd5b505af1158015610791573d6000803e3d6000fd5b505050506040513d601f19601f820116820180604052508101906107b59190612f44565b90508073ffffffffffffffffffffffffffffffffffffffff1663d9bbf6e0336040518263ffffffff1660e01b81526004016107f09190612f80565b60206040518083038186803b15801561080857600080fd5b505afa15801561081c573d6000803e3d6000fd5b505050506040513d601f19601f820116820180604052508101906108409190612fb0565b61087f576040517f08c379a000000000000000000000000000000000000000000000000000000000815260040161087690613029565b60405180910390fd5b61088b85858585611249565b5050505050565b600060019054906101000a900460ff166108ba5760008054906101000a900460ff16156108c3565b6108c26113e0565b5b610902576040517f08c379a00000000000000000000000000000000000000000000000000000000081526004016108f9906130bb565b60405180910390fd5b60008060019054906101000a900460ff161590508015610952576001600060016101000a81548160ff02191690831515021790555060016000806101000a81548160ff0219169083151502179055505b61095b846113f1565b82609760006101000a81548173ffffffffffffffffffffffffffffffffffffffff021916908373ffffffffffffffffffffffffffffffffffffffff16021790555081609890805190602001906109b2929190612001565b5080156109d45760008060016101000a81548160ff0219169083151502179055505b50505050565b6109ec6109e5610f2a565b838361144c565b5050565b609880546109fd90612d09565b80601f0160208091040260200160405190810160405280929190818152602001828054610a2990612d09565b8015610a765780601f10610a4b57610100808354040283529160200191610a76565b820191906000526020600020905b815481529060010190602001808311610a5957829003601f168201915b505050505081565b600080609760009054906101000a900473ffffffffffffffffffffffffffffffffffffffff1673ffffffffffffffffffffffffffffffffffffffff1662435da56040518163ffffffff1660e01b8152600401602060405180830381600087803b158015610aea57600080fd5b505af1158015610afe573d6000803e3d6000fd5b505050506040513d601f19601f82011682018060405250810190610b229190612f44565b90508073ffffffffffffffffffffffffffffffffffffffff1663d9bbf6e0336040518263ffffffff1660e01b8152600401610b5d9190612f80565b60206040518083038186803b158015610b7557600080fd5b505afa158015610b89573d6000803e3d6000fd5b505050506040513d601f19601f82011682018060405250810190610bad9190612fb0565b610bec576040517f08c379a0000000000000000000000000000000000000000000000000000000008152600401610be390613029565b60405180910390fd5b8260989080519060200190610c02929190612001565b506001915050919050565b6000606660008473ffffffffffffffffffffffffffffffffffffffff1673ffffffffffffffffffffffffffffffffffffffff16815260200190815260200160002060008373ffffffffffffffffffffffffffffffffffffffff1673ffffffffffffffffffffffffffffffffffffffff16815260200190815260200160002060009054906101000a900460ff16905092915050565b610ca9610f2a565b73ffffffffffffffffffffffffffffffffffffffff168573ffffffffffffffffffffffffffffffffffffffff161480610cef5750610cee85610ce9610f2a565b610c0d565b5b610d2e576040517f08c379a0000000000000000000000000000000000000000000000000000000008152600401610d259061314d565b60405180910390fd5b610d3b85858585856115b9565b5050505050565b6000609760009054906101000a900473ffffffffffffffffffffffffffffffffffffffff1673ffffffffffffffffffffffffffffffffffffffff1662435da56040518163ffffffff1660e01b8152600401602060405180830381600087803b158015610dad57600080fd5b505af1158015610dc1573d6000803e3d6000fd5b505050506040513d601f19601f82011682018060405250810190610de59190612f44565b90508073ffffffffffffffffffffffffffffffffffffffff1663d9bbf6e0336040518263ffffffff1660e01b8152600401610e209190612f80565b60206040518083038186803b158015610e3857600080fd5b505afa158015610e4c573d6000803e3d6000fd5b505050506040513d601f19601f82011682018060405250810190610e709190612fb0565b610eaf576040517f08c379a0000000000000000000000000000000000000000000000000000000008152600401610ea690613029565b60405180910390fd5b610eba84848461183e565b50505050565b60007f01ffc9a7000000000000000000000000000000000000000000000000000000007bffffffffffffffffffffffffffffffffffffffffffffffffffffffff1916827bffffffffffffffffffffffffffffffffffffffffffffffffffffffff1916149050919050565b600033905090565b8151835114610f76576040517f08c379a0000000000000000000000000000000000000000000000000000000008152600401610f6d906131df565b60405180910390fd5b600073ffffffffffffffffffffffffffffffffffffffff168473ffffffffffffffffffffffffffffffffffffffff161415610fe6576040517f08c379a0000000000000000000000000000000000000000000000000000000008152600401610fdd90613271565b60405180910390fd5b6000610ff0610f2a565b9050611000818787878787611a5d565b60005b84518110156111b457600085828151811061102157611020612e5f565b5b6020026020010151905060008583815181106110405761103f612e5f565b5b6020026020010151905060006065600084815260200190815260200160002060008b73ffffffffffffffffffffffffffffffffffffffff1673ffffffffffffffffffffffffffffffffffffffff168152602001908152602001600020549050818110156110e2576040517f08c379a00000000000000000000000000000000000000000000000000000000081526004016110d990613303565b60405180910390fd5b8181036065600085815260200190815260200160002060008c73ffffffffffffffffffffffffffffffffffffffff1673ffffffffffffffffffffffffffffffffffffffff16815260200190815260200160002081905550816065600085815260200190815260200160002060008b73ffffffffffffffffffffffffffffffffffffffff1673ffffffffffffffffffffffffffffffffffffffff16815260200190815260200160002060008282546111999190613323565b92505081905550505050806111ad90612ebd565b9050611003565b508473ffffffffffffffffffffffffffffffffffffffff168673ffffffffffffffffffffffffffffffffffffffff168273ffffffffffffffffffffffffffffffffffffffff167f4a39dc06d4c0dbc64b70af90fd698a233a518aa5d07e595d983b8c0526c8f7fb878760405161122b929190613379565b60405180910390a4611241818787878787611b19565b505050505050565b600073ffffffffffffffffffffffffffffffffffffffff168473ffffffffffffffffffffffffffffffffffffffff1614156112b9576040517f08c379a00000000000000000000000000000000000000000000000000000000081526004016112b090613422565b60405180910390fd5b60006112c3610f2a565b90506112e4816000876112d588611d00565b6112de88611d00565b87611a5d565b826065600086815260200190815260200160002060008773ffffffffffffffffffffffffffffffffffffffff1673ffffffffffffffffffffffffffffffffffffffff16815260200190815260200160002060008282546113449190613323565b925050819055508473ffffffffffffffffffffffffffffffffffffffff16600073ffffffffffffffffffffffffffffffffffffffff168273ffffffffffffffffffffffffffffffffffffffff167fc3d58168c5ae7397731d063d5bbf3d657854427343f4c083240f7aacaa2d0f6287876040516113c2929190613442565b60405180910390a46113d981600087878787611d7a565b5050505050565b60006113eb30611f61565b15905090565b600060019054906101000a900460ff16611440576040517f08c379a0000000000000000000000000000000000000000000000000000000008152600401611437906134dd565b60405180910390fd5b61144981611f84565b50565b8173ffffffffffffffffffffffffffffffffffffffff168373ffffffffffffffffffffffffffffffffffffffff1614156114bb576040517f08c379a00000000000000000000000000000000000000000000000000000000081526004016114b29061356f565b60405180910390fd5b80606660008573ffffffffffffffffffffffffffffffffffffffff1673ffffffffffffffffffffffffffffffffffffffff16815260200190815260200160002060008473ffffffffffffffffffffffffffffffffffffffff1673ffffffffffffffffffffffffffffffffffffffff16815260200190815260200160002060006101000a81548160ff0219169083151502179055508173ffffffffffffffffffffffffffffffffffffffff168373ffffffffffffffffffffffffffffffffffffffff167f17307eab39ab6107e8899845ad3d59bd9653f200f220920489ca2b5937696c31836040516115ac9190612256565b60405180910390a3505050565b600073ffffffffffffffffffffffffffffffffffffffff168473ffffffffffffffffffffffffffffffffffffffff161415611629576040517f08c379a000000000000000000000000000000000000000000000000000000000815260040161162090613271565b60405180910390fd5b6000611633610f2a565b905061165381878761164488611d00565b61164d88611d00565b87611a5d565b60006065600086815260200190815260200160002060008873ffffffffffffffffffffffffffffffffffffffff1673ffffffffffffffffffffffffffffffffffffffff168152602001908152602001600020549050838110156116eb576040517f08c379a00000000000000000000000000000000000000000000000000000000081526004016116e290613303565b60405180910390fd5b8381036065600087815260200190815260200160002060008973ffffffffffffffffffffffffffffffffffffffff1673ffffffffffffffffffffffffffffffffffffffff16815260200190815260200160002081905550836065600087815260200190815260200160002060008873ffffffffffffffffffffffffffffffffffffffff1673ffffffffffffffffffffffffffffffffffffffff16815260200190815260200160002060008282546117a29190613323565b925050819055508573ffffffffffffffffffffffffffffffffffffffff168773ffffffffffffffffffffffffffffffffffffffff168373ffffffffffffffffffffffffffffffffffffffff167fc3d58168c5ae7397731d063d5bbf3d657854427343f4c083240f7aacaa2d0f62888860405161181f929190613442565b60405180910390a4611835828888888888611d7a565b50505050505050565b600073ffffffffffffffffffffffffffffffffffffffff168373ffffffffffffffffffffffffffffffffffffffff1614156118ae576040517f08c379a00000000000000000000000000000000000000000000000000000000081526004016118a590613601565b60405180910390fd5b60006118b8610f2a565b90506118e8818560006118ca87611d00565b6118d387611d00565b60405180602001604052806000815250611a5d565b60006065600085815260200190815260200160002060008673ffffffffffffffffffffffffffffffffffffffff1673ffffffffffffffffffffffffffffffffffffffff16815260200190815260200160002054905082811015611980576040517f08c379a000000000000000000000000000000000000000000000000000000000815260040161197790613693565b60405180910390fd5b8281036065600086815260200190815260200160002060008773ffffffffffffffffffffffffffffffffffffffff1673ffffffffffffffffffffffffffffffffffffffff16815260200190815260200160002081905550600073ffffffffffffffffffffffffffffffffffffffff168573ffffffffffffffffffffffffffffffffffffffff168373ffffffffffffffffffffffffffffffffffffffff167fc3d58168c5ae7397731d063d5bbf3d657854427343f4c083240f7aacaa2d0f628787604051611a4e929190613442565b60405180910390a45050505050565b611a6b868686868686611fdf565b600073ffffffffffffffffffffffffffffffffffffffff168573ffffffffffffffffffffffffffffffffffffffff161480611ad25750600073ffffffffffffffffffffffffffffffffffffffff168473ffffffffffffffffffffffffffffffffffffffff16145b611b11576040517f08c379a0000000000000000000000000000000000000000000000000000000008152600401611b08906136ff565b60405180910390fd5b505050505050565b611b388473ffffffffffffffffffffffffffffffffffffffff16611f61565b15611cf8578373ffffffffffffffffffffffffffffffffffffffff1663bc197c8187878686866040518663ffffffff1660e01b8152600401611b7e959493929190613774565b602060405180830381600087803b158015611b9857600080fd5b505af1925050508015611bc957506040513d601f19601f82011682018060405250810190611bc691906137f1565b60015b611c6f57611bd561382b565b806308c379a01415611c325750611bea61384d565b80611bf55750611c34565b806040517f08c379a0000000000000000000000000000000000000000000000000000000008152600401611c299190612337565b60405180910390fd5b505b6040517f08c379a0000000000000000000000000000000000000000000000000000000008152600401611c6690613955565b60405180910390fd5b63bc197c8160e01b7bffffffffffffffffffffffffffffffffffffffffffffffffffffffff1916817bffffffffffffffffffffffffffffffffffffffffffffffffffffffff191614611cf6576040517f08c379a0000000000000000000000000000000000000000000000000000000008152600401611ced906139e7565b60405180910390fd5b505b505050505050565b60606000600167ffffffffffffffff811115611d1f57611d1e61235e565b5b604051908082528060200260200182016040528015611d4d5781602001602082028036833780820191505090505b5090508281600081518110611d6557611d64612e5f565b5b60200260200101818152505080915050919050565b611d998473ffffffffffffffffffffffffffffffffffffffff16611f61565b15611f59578373ffffffffffffffffffffffffffffffffffffffff1663f23a6e6187878686866040518663ffffffff1660e01b8152600401611ddf959493929190613a07565b602060405180830381600087803b158015611df957600080fd5b505af1925050508015611e2a57506040513d601f19601f82011682018060405250810190611e2791906137f1565b60015b611ed057611e3661382b565b806308c379a01415611e935750611e4b61384d565b80611e565750611e95565b806040517f08c379a0000000000000000000000000000000000000000000000000000000008152600401611e8a9190612337565b60405180910390fd5b505b6040517f08c379a0000000000000000000000000000000000000000000000000000000008152600401611ec790613955565b60405180910390fd5b63f23a6e6160e01b7bffffffffffffffffffffffffffffffffffffffffffffffffffffffff1916817bffffffffffffffffffffffffffffffffffffffffffffffffffffffff191614611f57576040517f08c379a0000000000000000000000000000000000000000000000000000000008152600401611f4e906139e7565b60405180910390fd5b505b505050505050565b6000808273ffffffffffffffffffffffffffffffffffffffff163b119050919050565b600060019054906101000a900460ff16611fd3576040517f08c379a0000000000000000000000000000000000000000000000000000000008152600401611fca906134dd565b60405180910390fd5b611fdc81611fe7565b50565b505050505050565b8060679080519060200190611ffd929190612001565b5050565b82805461200d90612d09565b90600052602060002090601f01602090048101928261202f5760008555612076565b82601f1061204857805160ff1916838001178555612076565b82800160010185558215612076579182015b8281111561207557825182559160200191906001019061205a565b5b5090506120839190612087565b5090565b5b808211156120a0576000816000905550600101612088565b5090565b6000604051905090565b600080fd5b600080fd5b600073ffffffffffffffffffffffffffffffffffffffff82169050919050565b60006120e3826120b8565b9050919050565b6120f3816120d8565b81146120fe57600080fd5b50565b600081359050612110816120ea565b92915050565b6000819050919050565b61212981612116565b811461213457600080fd5b50565b60008135905061214681612120565b92915050565b60008060408385031215612163576121626120ae565b5b600061217185828601612101565b925050602061218285828601612137565b9150509250929050565b61219581612116565b82525050565b60006020820190506121b0600083018461218c565b92915050565b60007fffffffff0000000000000000000000000000000000000000000000000000000082169050919050565b6121eb816121b6565b81146121f657600080fd5b50565b600081359050612208816121e2565b92915050565b600060208284031215612224576122236120ae565b5b6000612232848285016121f9565b91505092915050565b60008115159050919050565b6122508161223b565b82525050565b600060208201905061226b6000830184612247565b92915050565b600060208284031215612287576122866120ae565b5b600061229584828501612137565b91505092915050565b600081519050919050565b600082825260208201905092915050565b60005b838110156122d85780820151818401526020810190506122bd565b838111156122e7576000848401525b50505050565b6000601f19601f8301169050919050565b60006123098261229e565b61231381856122a9565b93506123238185602086016122ba565b61232c816122ed565b840191505092915050565b6000602082019050818103600083015261235181846122fe565b905092915050565b600080fd5b7f4e487b7100000000000000000000000000000000000000000000000000000000600052604160045260246000fd5b612396826122ed565b810181811067ffffffffffffffff821117156123b5576123b461235e565b5b80604052505050565b60006123c86120a4565b90506123d4828261238d565b919050565b600067ffffffffffffffff8211156123f4576123f361235e565b5b602082029050602081019050919050565b600080fd5b600061241d612418846123d9565b6123be565b905080838252602082019050602084028301858111156124405761243f612405565b5b835b8181101561246957806124558882612137565b845260208401935050602081019050612442565b5050509392505050565b600082601f83011261248857612487612359565b5b813561249884826020860161240a565b91505092915050565b600080fd5b600067ffffffffffffffff8211156124c1576124c061235e565b5b6124ca826122ed565b9050602081019050919050565b82818337600083830152505050565b60006124f96124f4846124a6565b6123be565b905082815260208101848484011115612515576125146124a1565b5b6125208482856124d7565b509392505050565b600082601f83011261253d5761253c612359565b5b813561254d8482602086016124e6565b91505092915050565b600080600080600060a08688031215612572576125716120ae565b5b600061258088828901612101565b955050602061259188828901612101565b945050604086013567ffffffffffffffff8111156125b2576125b16120b3565b5b6125be88828901612473565b935050606086013567ffffffffffffffff8111156125df576125de6120b3565b5b6125eb88828901612473565b925050608086013567ffffffffffffffff81111561260c5761260b6120b3565b5b61261888828901612528565b9150509295509295909350565b6000819050919050565b600061264a612645612640846120b8565b612625565b6120b8565b9050919050565b600061265c8261262f565b9050919050565b600061266e82612651565b9050919050565b61267e81612663565b82525050565b60006020820190506126996000830184612675565b92915050565b600067ffffffffffffffff8211156126ba576126b961235e565b5b602082029050602081019050919050565b60006126de6126d98461269f565b6123be565b9050808382526020820190506020840283018581111561270157612700612405565b5b835b8181101561272a57806127168882612101565b845260208401935050602081019050612703565b5050509392505050565b600082601f83011261274957612748612359565b5b81356127598482602086016126cb565b91505092915050565b60008060408385031215612779576127786120ae565b5b600083013567ffffffffffffffff811115612797576127966120b3565b5b6127a385828601612734565b925050602083013567ffffffffffffffff8111156127c4576127c36120b3565b5b6127d085828601612473565b9150509250929050565b600081519050919050565b600082825260208201905092915050565b6000819050602082019050919050565b61280f81612116565b82525050565b60006128218383612806565b60208301905092915050565b6000602082019050919050565b6000612845826127da565b61284f81856127e5565b935061285a836127f6565b8060005b8381101561288b5781516128728882612815565b975061287d8361282d565b92505060018101905061285e565b5085935050505092915050565b600060208201905081810360008301526128b2818461283a565b905092915050565b600080600080608085870312156128d4576128d36120ae565b5b60006128e287828801612101565b94505060206128f387828801612137565b935050604061290487828801612137565b925050606085013567ffffffffffffffff811115612925576129246120b3565b5b61293187828801612528565b91505092959194509250565b600067ffffffffffffffff8211156129585761295761235e565b5b612961826122ed565b9050602081019050919050565b600061298161297c8461293d565b6123be565b90508281526020810184848401111561299d5761299c6124a1565b5b6129a88482856124d7565b509392505050565b600082601f8301126129c5576129c4612359565b5b81356129d584826020860161296e565b91505092915050565b6000806000606084860312156129f7576129f66120ae565b5b600084013567ffffffffffffffff811115612a1557612a146120b3565b5b612a21868287016129b0565b9350506020612a3286828701612101565b925050604084013567ffffffffffffffff811115612a5357612a526120b3565b5b612a5f868287016129b0565b9150509250925092565b612a728161223b565b8114612a7d57600080fd5b50565b600081359050612a8f81612a69565b92915050565b60008060408385031215612aac57612aab6120ae565b5b6000612aba85828601612101565b9250506020612acb85828601612a80565b9150509250929050565b600060208284031215612aeb57612aea6120ae565b5b600082013567ffffffffffffffff811115612b0957612b086120b3565b5b612b15848285016129b0565b91505092915050565b60008060408385031215612b3557612b346120ae565b5b6000612b4385828601612101565b9250506020612b5485828601612101565b9150509250929050565b600080600080600060a08688031215612b7a57612b796120ae565b5b6000612b8888828901612101565b9550506020612b9988828901612101565b9450506040612baa88828901612137565b9350506060612bbb88828901612137565b925050608086013567ffffffffffffffff811115612bdc57612bdb6120b3565b5b612be888828901612528565b9150509295509295909350565b600080600060608486031215612c0e57612c0d6120ae565b5b6000612c1c86828701612101565b9350506020612c2d86828701612137565b9250506040612c3e86828701612137565b9150509250925092565b7f455243313135353a2062616c616e636520717565727920666f7220746865207a60008201527f65726f2061646472657373000000000000000000000000000000000000000000602082015250565b6000612ca4602b836122a9565b9150612caf82612c48565b604082019050919050565b60006020820190508181036000830152612cd381612c97565b9050919050565b7f4e487b7100000000000000000000000000000000000000000000000000000000600052602260045260246000fd5b60006002820490506001821680612d2157607f821691505b60208210811415612d3557612d34612cda565b5b50919050565b7f455243313135353a207472616e736665722063616c6c6572206973206e6f742060008201527f6f776e6572206e6f7220617070726f7665640000000000000000000000000000602082015250565b6000612d976032836122a9565b9150612da282612d3b565b604082019050919050565b60006020820190508181036000830152612dc681612d8a565b9050919050565b7f455243313135353a206163636f756e747320616e6420696473206c656e67746860008201527f206d69736d617463680000000000000000000000000000000000000000000000602082015250565b6000612e296029836122a9565b9150612e3482612dcd565b604082019050919050565b60006020820190508181036000830152612e5881612e1c565b9050919050565b7f4e487b7100000000000000000000000000000000000000000000000000000000600052603260045260246000fd5b7f4e487b7100000000000000000000000000000000000000000000000000000000600052601160045260246000fd5b6000612ec882612116565b91507fffffffffffffffffffffffffffffffffffffffffffffffffffffffffffffffff821415612efb57612efa612e8e565b5b600182019050919050565b6000612f11826120d8565b9050919050565b612f2181612f06565b8114612f2c57600080fd5b50565b600081519050612f3e81612f18565b92915050565b600060208284031215612f5a57612f596120ae565b5b6000612f6884828501612f2f565b91505092915050565b612f7a816120d8565b82525050565b6000602082019050612f956000830184612f71565b92915050565b600081519050612faa81612a69565b92915050565b600060208284031215612fc657612fc56120ae565b5b6000612fd484828501612f9b565b91505092915050565b7f4e6f74204e46542041646d696e00000000000000000000000000000000000000600082015250565b6000613013600d836122a9565b915061301e82612fdd565b602082019050919050565b6000602082019050818103600083015261304281613006565b9050919050565b7f496e697469616c697a61626c653a20636f6e747261637420697320616c72656160008201527f647920696e697469616c697a6564000000000000000000000000000000000000602082015250565b60006130a5602e836122a9565b91506130b082613049565b604082019050919050565b600060208201905081810360008301526130d481613098565b9050919050565b7f455243313135353a2063616c6c6572206973206e6f74206f776e6572206e6f7260008201527f20617070726f7665640000000000000000000000000000000000000000000000602082015250565b60006131376029836122a9565b9150613142826130db565b604082019050919050565b600060208201905081810360008301526131668161312a565b9050919050565b7f455243313135353a2069647320616e6420616d6f756e7473206c656e6774682060008201527f6d69736d61746368000000000000000000000000000000000000000000000000602082015250565b60006131c96028836122a9565b91506131d48261316d565b604082019050919050565b600060208201905081810360008301526131f8816131bc565b9050919050565b7f455243313135353a207472616e7366657220746f20746865207a65726f20616460008201527f6472657373000000000000000000000000000000000000000000000000000000602082015250565b600061325b6025836122a9565b9150613266826131ff565b604082019050919050565b6000602082019050818103600083015261328a8161324e565b9050919050565b7f455243313135353a20696e73756666696369656e742062616c616e636520666f60008201527f72207472616e7366657200000000000000000000000000000000000000000000602082015250565b60006132ed602a836122a9565b91506132f882613291565b604082019050919050565b6000602082019050818103600083015261331c816132e0565b9050919050565b600061332e82612116565b915061333983612116565b9250827fffffffffffffffffffffffffffffffffffffffffffffffffffffffffffffffff0382111561336e5761336d612e8e565b5b828201905092915050565b60006040820190508181036000830152613393818561283a565b905081810360208301526133a7818461283a565b90509392505050565b7f455243313135353a206d696e7420746f20746865207a65726f2061646472657360008201527f7300000000000000000000000000000000000000000000000000000000000000602082015250565b600061340c6021836122a9565b9150613417826133b0565b604082019050919050565b6000602082019050818103600083015261343b816133ff565b9050919050565b6000604082019050613457600083018561218c565b613464602083018461218c565b9392505050565b7f496e697469616c697a61626c653a20636f6e7472616374206973206e6f74206960008201527f6e697469616c697a696e67000000000000000000000000000000000000000000602082015250565b60006134c7602b836122a9565b91506134d28261346b565b604082019050919050565b600060208201905081810360008301526134f6816134ba565b9050919050565b7f455243313135353a2073657474696e6720617070726f76616c2073746174757360008201527f20666f722073656c660000000000000000000000000000000000000000000000602082015250565b60006135596029836122a9565b9150613564826134fd565b604082019050919050565b600060208201905081810360008301526135888161354c565b9050919050565b7f455243313135353a206275726e2066726f6d20746865207a65726f206164647260008201527f6573730000000000000000000000000000000000000000000000000000000000602082015250565b60006135eb6023836122a9565b91506135f68261358f565b604082019050919050565b6000602082019050818103600083015261361a816135de565b9050919050565b7f455243313135353a206275726e20616d6f756e7420657863656564732062616c60008201527f616e636500000000000000000000000000000000000000000000000000000000602082015250565b600061367d6024836122a9565b915061368882613621565b604082019050919050565b600060208201905081810360008301526136ac81613670565b9050919050565b7f5265616374696f6e207472616e73666572207265737472696374656400000000600082015250565b60006136e9601c836122a9565b91506136f4826136b3565b602082019050919050565b60006020820190508181036000830152613718816136dc565b9050919050565b600081519050919050565b600082825260208201905092915050565b60006137468261371f565b613750818561372a565b93506137608185602086016122ba565b613769816122ed565b840191505092915050565b600060a0820190506137896000830188612f71565b6137966020830187612f71565b81810360408301526137a8818661283a565b905081810360608301526137bc818561283a565b905081810360808301526137d0818461373b565b90509695505050505050565b6000815190506137eb816121e2565b92915050565b600060208284031215613807576138066120ae565b5b6000613815848285016137dc565b91505092915050565b60008160e01c9050919050565b600060033d111561384a5760046000803e61384760005161381e565b90505b90565b600060443d101561385d576138e0565b6138656120a4565b60043d036004823e80513d602482011167ffffffffffffffff8211171561388d5750506138e0565b808201805167ffffffffffffffff8111156138ab57505050506138e0565b80602083010160043d0385018111156138c85750505050506138e0565b6138d78260200185018661238d565b82955050505050505b90565b7f455243313135353a207472616e7366657220746f206e6f6e204552433131353560008201527f526563656976657220696d706c656d656e746572000000000000000000000000602082015250565b600061393f6034836122a9565b915061394a826138e3565b604082019050919050565b6000602082019050818103600083015261396e81613932565b9050919050565b7f455243313135353a204552433131353552656365697665722072656a6563746560008201527f6420746f6b656e73000000000000000000000000000000000000000000000000602082015250565b60006139d16028836122a9565b91506139dc82613975565b604082019050919050565b60006020820190508181036000830152613a00816139c4565b9050919050565b600060a082019050613a1c6000830188612f71565b613a296020830187612f71565b613a36604083018661218c565b613a43606083018561218c565b8181036080830152613a55818461373b565b9050969550505050505056fea26469706673582212206fbe77d31ab52b356db5212cceea72d3ecde867b1f6859686a981dbaf037087e64736f6c63430008090033",
  "devdoc": {
    "details": "This contract will be used to track Reaction NFTs in the protocol. Only the NFT Minter role can mint tokens Only the NFT Burner role can burn tokens Note: This contract is protected via a permissioned account set in the role manager.  Caution should be used as the role owner could renounce the role leaving all future actions disabled.  Additionally, if a malicious account was able to obtain the role, they could use it to mint or burn reactions. See the public documentation website for more details.",
    "kind": "dev",
    "methods": {
      "balanceOf(address,uint256)": {
        "details": "See {IERC1155-balanceOf}. Requirements: - `account` cannot be the zero address."
      },
      "balanceOfBatch(address[],uint256[])": {
        "details": "See {IERC1155-balanceOfBatch}. Requirements: - `accounts` and `ids` must have the same length."
      },
      "burn(address,uint256,uint256)": {
        "details": "Allows reaction burner role to burn tokens"
      },
      "initialize(string,address,string)": {
        "details": "initializer to call after deployment, can only be called once"
      },
      "isApprovedForAll(address,address)": {
        "details": "See {IERC1155-isApprovedForAll}."
      },
      "mint(address,uint256,uint256,bytes)": {
        "details": "Allows reaction minter role to mint tokens"
      },
      "safeBatchTransferFrom(address,address,uint256[],uint256[],bytes)": {
        "details": "See {IERC1155-safeBatchTransferFrom}."
      },
      "safeTransferFrom(address,address,uint256,uint256,bytes)": {
        "details": "See {IERC1155-safeTransferFrom}."
      },
      "setApprovalForAll(address,bool)": {
        "details": "See {IERC1155-setApprovalForAll}."
      },
      "supportsInterface(bytes4)": {
        "details": "See {IERC165-supportsInterface}."
      },
      "uri(uint256)": {
        "details": "See {IERC1155MetadataURI-uri}. This implementation returns the same URI for *all* token types. It relies on the token type ID substitution mechanism https://eips.ethereum.org/EIPS/eip-1155#metadata[defined in the EIP]. Clients calling this function must replace the `\\{id\\}` substring with the actual token type ID."
      }
    },
    "title": "ReactionNft1155",
    "version": 1
  },
  "userdoc": {
    "kind": "user",
    "methods": {},
    "version": 1
  },
  "storageLayout": {
    "storage": [
      {
        "astId": 6,
        "contract": "contracts/Reactions/NFT/ReactionNft1155.sol:ReactionNft1155",
        "label": "_initialized",
        "offset": 0,
        "slot": "0",
        "type": "t_bool"
      },
      {
        "astId": 9,
        "contract": "contracts/Reactions/NFT/ReactionNft1155.sol:ReactionNft1155",
        "label": "_initializing",
        "offset": 1,
        "slot": "0",
        "type": "t_bool"
      },
      {
        "astId": 1955,
        "contract": "contracts/Reactions/NFT/ReactionNft1155.sol:ReactionNft1155",
        "label": "__gap",
        "offset": 0,
        "slot": "1",
        "type": "t_array(t_uint256)50_storage"
      },
      {
        "astId": 1999,
        "contract": "contracts/Reactions/NFT/ReactionNft1155.sol:ReactionNft1155",
        "label": "__gap",
        "offset": 0,
        "slot": "51",
        "type": "t_array(t_uint256)50_storage"
      },
      {
        "astId": 102,
        "contract": "contracts/Reactions/NFT/ReactionNft1155.sol:ReactionNft1155",
        "label": "_balances",
        "offset": 0,
        "slot": "101",
        "type": "t_mapping(t_uint256,t_mapping(t_address,t_uint256))"
      },
      {
        "astId": 108,
        "contract": "contracts/Reactions/NFT/ReactionNft1155.sol:ReactionNft1155",
        "label": "_operatorApprovals",
        "offset": 0,
        "slot": "102",
        "type": "t_mapping(t_address,t_mapping(t_address,t_bool))"
      },
      {
        "astId": 110,
        "contract": "contracts/Reactions/NFT/ReactionNft1155.sol:ReactionNft1155",
        "label": "_uri",
        "offset": 0,
        "slot": "103",
        "type": "t_string_storage"
      },
      {
        "astId": 1190,
        "contract": "contracts/Reactions/NFT/ReactionNft1155.sol:ReactionNft1155",
        "label": "__gap",
        "offset": 0,
        "slot": "104",
        "type": "t_array(t_uint256)47_storage"
      },
      {
        "astId": 2755,
        "contract": "contracts/Reactions/NFT/ReactionNft1155.sol:ReactionNft1155",
        "label": "addressManager",
        "offset": 0,
        "slot": "151",
        "type": "t_contract(IAddressManager)2115"
      },
      {
        "astId": 2761,
        "contract": "contracts/Reactions/NFT/ReactionNft1155.sol:ReactionNft1155",
        "label": "contractUri",
        "offset": 0,
        "slot": "152",
        "type": "t_string_storage"
      }
    ],
    "types": {
      "t_address": {
        "encoding": "inplace",
        "label": "address",
        "numberOfBytes": "20"
      },
      "t_array(t_uint256)47_storage": {
        "base": "t_uint256",
        "encoding": "inplace",
        "label": "uint256[47]",
        "numberOfBytes": "1504"
      },
      "t_array(t_uint256)50_storage": {
        "base": "t_uint256",
        "encoding": "inplace",
        "label": "uint256[50]",
        "numberOfBytes": "1600"
      },
      "t_bool": {
        "encoding": "inplace",
        "label": "bool",
        "numberOfBytes": "1"
      },
      "t_contract(IAddressManager)2115": {
        "encoding": "inplace",
        "label": "contract IAddressManager",
        "numberOfBytes": "20"
      },
      "t_mapping(t_address,t_bool)": {
        "encoding": "mapping",
        "key": "t_address",
        "label": "mapping(address => bool)",
        "numberOfBytes": "32",
        "value": "t_bool"
      },
      "t_mapping(t_address,t_mapping(t_address,t_bool))": {
        "encoding": "mapping",
        "key": "t_address",
        "label": "mapping(address => mapping(address => bool))",
        "numberOfBytes": "32",
        "value": "t_mapping(t_address,t_bool)"
      },
      "t_mapping(t_address,t_uint256)": {
        "encoding": "mapping",
        "key": "t_address",
        "label": "mapping(address => uint256)",
        "numberOfBytes": "32",
        "value": "t_uint256"
      },
      "t_mapping(t_uint256,t_mapping(t_address,t_uint256))": {
        "encoding": "mapping",
        "key": "t_uint256",
        "label": "mapping(uint256 => mapping(address => uint256))",
        "numberOfBytes": "32",
        "value": "t_mapping(t_address,t_uint256)"
      },
      "t_string_storage": {
        "encoding": "bytes",
        "label": "string",
        "numberOfBytes": "32"
      },
      "t_uint256": {
        "encoding": "inplace",
        "label": "uint256",
        "numberOfBytes": "32"
      }
    }
  }
}