{
  "address": "0x81F394effc52E4995244364db311794776E004F0",
  "abi": [
    {
      "anonymous": false,
      "inputs": [
        {
          "indexed": false,
          "internalType": "address",
          "name": "creator",
          "type": "address"
        },
        {
          "indexed": false,
          "internalType": "contract IERC20Upgradeable",
          "name": "paymentToken",
          "type": "address"
        },
        {
          "indexed": false,
          "internalType": "uint256",
          "name": "amount",
          "type": "uint256"
        },
        {
          "indexed": false,
          "internalType": "uint256",
          "name": "reactionId",
          "type": "uint256"
        }
      ],
      "name": "CreatorRewardsGranted",
      "type": "event"
    },
    {
      "anonymous": false,
      "inputs": [
        {
          "indexed": false,
          "internalType": "address",
          "name": "token",
          "type": "address"
        },
        {
          "indexed": false,
          "internalType": "uint256",
          "name": "amount",
          "type": "uint256"
        },
        {
          "indexed": false,
          "internalType": "address",
          "name": "recipient",
          "type": "address"
        }
      ],
      "name": "ERC20RewardsClaimed",
      "type": "event"
    },
    {
      "anonymous": false,
      "inputs": [
        {
          "indexed": false,
          "internalType": "address",
          "name": "maker",
          "type": "address"
        },
        {
          "indexed": false,
          "internalType": "contract IERC20Upgradeable",
          "name": "paymentToken",
          "type": "address"
        },
        {
          "indexed": false,
          "internalType": "uint256",
          "name": "amount",
          "type": "uint256"
        },
        {
          "indexed": false,
          "internalType": "uint256",
          "name": "reactionId",
          "type": "uint256"
        }
      ],
      "name": "MakerRewardsGranted",
      "type": "event"
    },
    {
      "anonymous": false,
      "inputs": [
        {
          "indexed": false,
          "internalType": "uint256",
          "name": "transformId",
          "type": "uint256"
        },
        {
          "indexed": false,
          "internalType": "uint256",
          "name": "quantity",
          "type": "uint256"
        },
        {
          "indexed": false,
          "internalType": "address",
          "name": "destinationWallet",
          "type": "address"
        },
        {
          "indexed": false,
          "internalType": "address",
          "name": "referrer",
          "type": "address"
        },
        {
          "indexed": false,
          "internalType": "uint256",
          "name": "reactionId",
          "type": "uint256"
        },
        {
          "indexed": false,
          "internalType": "uint256",
          "name": "parameterVersion",
          "type": "uint256"
        }
      ],
      "name": "ReactionsPurchased",
      "type": "event"
    },
    {
      "anonymous": false,
      "inputs": [
        {
          "indexed": false,
          "internalType": "uint256",
          "name": "takerNftChainId",
          "type": "uint256"
        },
        {
          "indexed": false,
          "internalType": "address",
          "name": "takerNftAddress",
          "type": "address"
        },
        {
          "indexed": false,
          "internalType": "uint256",
          "name": "takerNftId",
          "type": "uint256"
        },
        {
          "indexed": false,
          "internalType": "uint256",
          "name": "reactionId",
          "type": "uint256"
        },
        {
          "indexed": false,
          "internalType": "address",
          "name": "paymentToken",
          "type": "address"
        },
        {
          "indexed": false,
          "internalType": "uint256",
          "name": "quantity",
          "type": "uint256"
        },
        {
          "indexed": false,
          "internalType": "string",
          "name": "ipfsMetadataHash",
          "type": "string"
        },
        {
          "indexed": false,
          "internalType": "address",
          "name": "referrer",
          "type": "address"
        },
        {
          "indexed": false,
          "internalType": "address",
          "name": "curatorVaultAddress",
          "type": "address"
        },
        {
          "indexed": false,
          "internalType": "uint256",
          "name": "curatorTokenId",
          "type": "uint256"
        },
        {
          "indexed": false,
          "internalType": "uint256",
          "name": "curatorTokenAmount",
          "type": "uint256"
        },
        {
          "indexed": false,
          "internalType": "uint256",
          "name": "takerTokenAmount",
          "type": "uint256"
        }
      ],
      "name": "ReactionsSpent",
      "type": "event"
    },
    {
      "anonymous": false,
      "inputs": [
        {
          "indexed": false,
          "internalType": "address",
          "name": "referrer",
          "type": "address"
        },
        {
          "indexed": false,
          "internalType": "contract IERC20Upgradeable",
          "name": "paymentToken",
          "type": "address"
        },
        {
          "indexed": false,
          "internalType": "uint256",
          "name": "amount",
          "type": "uint256"
        },
        {
          "indexed": false,
          "internalType": "uint256",
          "name": "reactionId",
          "type": "uint256"
        }
      ],
      "name": "ReferrerRewardsGranted",
      "type": "event"
    },
    {
      "anonymous": false,
      "inputs": [
        {
          "indexed": true,
          "internalType": "uint256",
          "name": "curatorTokenId",
          "type": "uint256"
        },
        {
          "indexed": false,
          "internalType": "uint256",
          "name": "curatorTokensSold",
          "type": "uint256"
        },
        {
          "indexed": false,
          "internalType": "uint256",
          "name": "paymentTokenTaker",
          "type": "uint256"
        },
        {
          "indexed": false,
          "internalType": "uint256",
          "name": "paymentTokenCreator",
          "type": "uint256"
        }
      ],
      "name": "TakerWithdraw",
      "type": "event"
    },
    {
      "inputs": [],
      "name": "REACTION_META_PREFIX",
      "outputs": [
        {
          "internalType": "string",
          "name": "",
          "type": "string"
        }
      ],
      "stateMutability": "view",
      "type": "function"
    },
    {
      "inputs": [],
      "name": "addressManager",
      "outputs": [
        {
          "internalType": "contract IAddressManager",
          "name": "",
          "type": "address"
        }
      ],
      "stateMutability": "view",
      "type": "function"
    },
    {
      "inputs": [
        {
          "internalType": "uint256",
          "name": "transformId",
          "type": "uint256"
        },
        {
          "internalType": "uint256",
          "name": "quantity",
          "type": "uint256"
        },
        {
          "internalType": "address",
          "name": "referrer",
          "type": "address"
        },
        {
          "internalType": "uint256",
          "name": "optionBits",
          "type": "uint256"
        },
        {
          "internalType": "uint256",
          "name": "takerNftChainId",
          "type": "uint256"
        },
        {
          "internalType": "address",
          "name": "takerNftAddress",
          "type": "address"
        },
        {
          "internalType": "uint256",
          "name": "takerNftId",
          "type": "uint256"
        },
        {
          "internalType": "address",
          "name": "curatorVaultOverride",
          "type": "address"
        },
        {
          "internalType": "string",
          "name": "ipfsMetadataHash",
          "type": "string"
        }
      ],
      "name": "buyAndSpendReaction",
      "outputs": [],
      "stateMutability": "nonpayable",
      "type": "function"
    },
    {
      "inputs": [
        {
          "internalType": "uint256",
          "name": "transformId",
          "type": "uint256"
        },
        {
          "internalType": "uint256",
          "name": "quantity",
          "type": "uint256"
        },
        {
          "internalType": "address",
          "name": "destinationWallet",
          "type": "address"
        },
        {
          "internalType": "address",
          "name": "referrer",
          "type": "address"
        },
        {
          "internalType": "uint256",
          "name": "optionBits",
          "type": "uint256"
        }
      ],
      "name": "buyReaction",
      "outputs": [],
      "stateMutability": "nonpayable",
      "type": "function"
    },
    {
      "inputs": [
        {
          "internalType": "contract IParameterManager",
          "name": "parameterManager",
          "type": "address"
        }
      ],
      "name": "deriveParameterVersion",
      "outputs": [
        {
          "internalType": "uint256",
          "name": "",
          "type": "uint256"
        }
      ],
      "stateMutability": "nonpayable",
      "type": "function"
    },
    {
      "inputs": [
        {
          "internalType": "uint256",
          "name": "transformId",
          "type": "uint256"
        },
        {
          "internalType": "uint256",
          "name": "optionBits",
          "type": "uint256"
        },
        {
          "internalType": "uint256",
          "name": "parameterVersion",
          "type": "uint256"
        }
      ],
      "name": "deriveReactionId",
      "outputs": [
        {
          "internalType": "uint256",
          "name": "",
          "type": "uint256"
        }
      ],
      "stateMutability": "pure",
      "type": "function"
    },
    {
      "inputs": [
        {
          "internalType": "contract IAddressManager",
          "name": "_addressManager",
          "type": "address"
        }
      ],
      "name": "initialize",
      "outputs": [],
      "stateMutability": "nonpayable",
      "type": "function"
    },
    {
      "inputs": [
        {
          "internalType": "uint256",
          "name": "",
          "type": "uint256"
        }
      ],
      "name": "nftOwnerRewards",
      "outputs": [
        {
          "internalType": "uint256",
          "name": "",
          "type": "uint256"
        }
      ],
      "stateMutability": "view",
      "type": "function"
    },
    {
      "inputs": [
        {
          "internalType": "address",
          "name": "",
          "type": "address"
        },
        {
          "internalType": "address",
          "name": "",
          "type": "address"
        },
        {
          "internalType": "uint256[]",
          "name": "",
          "type": "uint256[]"
        },
        {
          "internalType": "uint256[]",
          "name": "",
          "type": "uint256[]"
        },
        {
          "internalType": "bytes",
          "name": "",
          "type": "bytes"
        }
      ],
      "name": "onERC1155BatchReceived",
      "outputs": [
        {
          "internalType": "bytes4",
          "name": "",
          "type": "bytes4"
        }
      ],
      "stateMutability": "nonpayable",
      "type": "function"
    },
    {
      "inputs": [
        {
          "internalType": "address",
          "name": "",
          "type": "address"
        },
        {
          "internalType": "address",
          "name": "",
          "type": "address"
        },
        {
          "internalType": "uint256",
          "name": "",
          "type": "uint256"
        },
        {
          "internalType": "uint256",
          "name": "",
          "type": "uint256"
        },
        {
          "internalType": "bytes",
          "name": "",
          "type": "bytes"
        }
      ],
      "name": "onERC1155Received",
      "outputs": [
        {
          "internalType": "bytes4",
          "name": "",
          "type": "bytes4"
        }
      ],
      "stateMutability": "nonpayable",
      "type": "function"
    },
    {
      "inputs": [
        {
          "internalType": "contract IERC20Upgradeable",
          "name": "",
          "type": "address"
        },
        {
          "internalType": "address",
          "name": "",
          "type": "address"
        }
      ],
      "name": "ownerToRewardsMapping",
      "outputs": [
        {
          "internalType": "uint256",
          "name": "",
          "type": "uint256"
        }
      ],
      "stateMutability": "view",
      "type": "function"
    },
    {
      "inputs": [
        {
          "internalType": "uint256",
          "name": "",
          "type": "uint256"
        }
      ],
      "name": "reactionPriceDetailsMapping",
      "outputs": [
        {
          "internalType": "contract IERC20Upgradeable",
          "name": "paymentToken",
          "type": "address"
        },
        {
          "internalType": "uint256",
          "name": "reactionPrice",
          "type": "uint256"
        },
        {
          "internalType": "uint256",
          "name": "saleCuratorLiabilityBasisPoints",
          "type": "uint256"
        }
      ],
      "stateMutability": "view",
      "type": "function"
    },
    {
      "inputs": [
        {
          "internalType": "uint256",
          "name": "takerNftChainId",
          "type": "uint256"
        },
        {
          "internalType": "address",
          "name": "takerNftAddress",
          "type": "address"
        },
        {
          "internalType": "uint256",
          "name": "takerNftId",
          "type": "uint256"
        },
        {
          "internalType": "uint256",
          "name": "reactionId",
          "type": "uint256"
        },
        {
          "internalType": "uint256",
          "name": "reactionQuantity",
          "type": "uint256"
        },
        {
          "internalType": "address",
          "name": "referrer",
          "type": "address"
        },
        {
          "internalType": "address",
          "name": "curatorVaultOverride",
          "type": "address"
        },
        {
          "internalType": "string",
          "name": "ipfsMetadataHash",
          "type": "string"
        }
      ],
      "name": "spendReaction",
      "outputs": [],
      "stateMutability": "nonpayable",
      "type": "function"
    },
    {
      "inputs": [
        {
          "internalType": "bytes4",
          "name": "interfaceId",
          "type": "bytes4"
        }
      ],
      "name": "supportsInterface",
      "outputs": [
        {
          "internalType": "bool",
          "name": "",
          "type": "bool"
        }
      ],
      "stateMutability": "view",
      "type": "function"
    },
    {
      "inputs": [
        {
          "internalType": "contract IERC20Upgradeable",
          "name": "token",
          "type": "address"
        }
      ],
      "name": "withdrawErc20Rewards",
      "outputs": [
        {
          "internalType": "uint256",
          "name": "",
          "type": "uint256"
        }
      ],
      "stateMutability": "nonpayable",
      "type": "function"
    },
    {
      "inputs": [
        {
          "internalType": "uint256",
          "name": "takerNftChainId",
          "type": "uint256"
        },
        {
          "internalType": "address",
          "name": "takerNftAddress",
          "type": "address"
        },
        {
          "internalType": "uint256",
          "name": "takerNftId",
          "type": "uint256"
        },
        {
          "internalType": "contract IERC20Upgradeable",
          "name": "paymentToken",
          "type": "address"
        },
        {
          "internalType": "address",
          "name": "curatorVault",
          "type": "address"
        },
        {
          "internalType": "uint256",
          "name": "curatorTokenId",
          "type": "uint256"
        },
        {
          "internalType": "uint256",
          "name": "tokensToBurn",
          "type": "uint256"
        },
        {
          "internalType": "address",
          "name": "refundToAddress",
          "type": "address"
        }
      ],
      "name": "withdrawTakerRewards",
      "outputs": [
        {
          "internalType": "uint256",
          "name": "",
          "type": "uint256"
        }
      ],
      "stateMutability": "nonpayable",
      "type": "function"
    }
  ],
  "transactionHash": "0x237e0580d14599bf67d1731df142c9a4a956a6c329969ba467ef266fbebfe66d",
  "args": [],
  "numDeployments": 1,
  "solcInputHash": "0aa2446dfdd461104da7fca84166983e",
  "bytecode": "0x608060405234801561001057600080fd5b50615075806100206000396000f3fe608060405234801561001057600080fd5b50600436106100ff5760003560e01c806388415f8e11610097578063c4d66de811610066578063c4d66de8146102f8578063e46f7e9c14610314578063f23a6e6114610332578063f9f280d314610362576100ff565b806388415f8e1461024c578063928102a21461027c578063a3b1404f146102ac578063bc197c81146102c8576100ff565b806343f68bcb116100d357806343f68bcb146101a057806352085328146101d0578063755443ce14610200578063809e13491461021c576100ff565b8062722e101461010457806301ffc9a7146101365780630c4900e4146101665780633ab76e9f14610182575b600080fd5b61011e6004803603810190610119919061347f565b610392565b60405161012d9392919061353a565b60405180910390f35b610150600480360381019061014b91906135c9565b6103dc565b60405161015d9190613611565b60405180910390f35b610180600480360381019061017b919061366a565b610456565b005b61018a6104bf565b6040516101979190613706565b60405180910390f35b6101ba60048036038101906101b59190613721565b6104e5565b6040516101c79190613774565b60405180910390f35b6101ea60048036038101906101e5919061347f565b610555565b6040516101f79190613774565b60405180910390f35b61021a600480360381019061021591906138d5565b61056d565b005b610236600480360381019061023191906139e5565b6105dc565b6040516102439190613774565b60405180910390f35b61026660048036038101906102619190613a63565b610601565b6040516102739190613774565b60405180910390f35b61029660048036038101906102919190613a90565b6107b5565b6040516102a39190613774565b60405180910390f35b6102c660048036038101906102c19190613abd565b6109c1565b005b6102e260048036038101906102dd9190613d0c565b610afd565b6040516102ef9190613dea565b60405180910390f35b610312600480360381019061030d9190613e43565b610b12565b005b61031c610c48565b6040516103299190613ef8565b60405180910390f35b61034c60048036038101906103479190613f1a565b610c81565b6040516103599190613dea565b60405180910390f35b61037c60048036038101906103779190613fb1565b610c96565b6040516103899190613774565b60405180910390f35b60cb6020528060005260406000206000915090508060000160009054906101000a900473ffffffffffffffffffffffffffffffffffffffff16908060010154908060020154905083565b60007f4e2312e0000000000000000000000000000000000000000000000000000000007bffffffffffffffffffffffffffffffffffffffffffffffffffffffff1916827bffffffffffffffffffffffffffffffffffffffffffffffffffffffff1916148061044f575061044e826113bd565b5b9050919050565b6002600154141561049c576040517f08c379a0000000000000000000000000000000000000000000000000000000008152600401610493906140b3565b60405180910390fd5b60026001819055506104b18585858585611427565b600180819055505050505050565b60c960009054906101000a900473ffffffffffffffffffffffffffffffffffffffff1681565b60006040518060400160405280600881526020017f5245414354494f4e00000000000000000000000000000000000000000000000081525082858560405160200161053394939291906140d3565b6040516020818303038152906040528051906020012060001c90509392505050565b60cc6020528060005260406000206000915090505481565b600260015414156105b3576040517f08c379a00000000000000000000000000000000000000000000000000000000081526004016105aa906140b3565b60405180910390fd5b60026001819055506105cb8888888888888888612172565b600180819055505050505050505050565b60ca602052816000526040600020602052806000526040600020600091509150505481565b60008173ffffffffffffffffffffffffffffffffffffffff16633013ce296040518163ffffffff1660e01b8152600401602060405180830381600087803b15801561064b57600080fd5b505af115801561065f573d6000803e3d6000fd5b505050506040513d601f19601f820116820180604052508101906106839190614134565b8273ffffffffffffffffffffffffffffffffffffffff16635ddb0cf26040518163ffffffff1660e01b8152600401602060405180830381600087803b1580156106cb57600080fd5b505af11580156106df573d6000803e3d6000fd5b505050506040513d601f19601f820116820180604052508101906107039190614176565b8373ffffffffffffffffffffffffffffffffffffffff1663f93c0d796040518163ffffffff1660e01b8152600401602060405180830381600087803b15801561074b57600080fd5b505af115801561075f573d6000803e3d6000fd5b505050506040513d601f19601f820116820180604052508101906107839190614176565b6040516020016107959392919061353a565b6040516020818303038152906040528051906020012060001c9050919050565b6000600260015414156107fd576040517f08c379a00000000000000000000000000000000000000000000000000000000081526004016107f4906140b3565b60405180910390fd5b6002600181905550600060ca60008473ffffffffffffffffffffffffffffffffffffffff1673ffffffffffffffffffffffffffffffffffffffff16815260200190815260200160002060003373ffffffffffffffffffffffffffffffffffffffff1673ffffffffffffffffffffffffffffffffffffffff168152602001908152602001600020549050600081116108c9576040517f08c379a00000000000000000000000000000000000000000000000000000000081526004016108c0906141ef565b60405180910390fd5b600060ca60008573ffffffffffffffffffffffffffffffffffffffff1673ffffffffffffffffffffffffffffffffffffffff16815260200190815260200160002060003373ffffffffffffffffffffffffffffffffffffffff1673ffffffffffffffffffffffffffffffffffffffff1681526020019081526020016000208190555061097633828573ffffffffffffffffffffffffffffffffffffffff16612de29092919063ffffffff16565b7f712edeb933a34d503bfa8233af370724a7a1b075f66b706f95f1ab64049532dc8382336040516109a99392919061421e565b60405180910390a18091505060018081905550919050565b60026001541415610a07576040517f08c379a00000000000000000000000000000000000000000000000000000000081526004016109fe906140b3565b60405180910390fd5b6002600181905550610a1c8989338a8a611427565b6000610ac860c960009054906101000a900473ffffffffffffffffffffffffffffffffffffffff1673ffffffffffffffffffffffffffffffffffffffff1663b27bcea16040518163ffffffff1660e01b8152600401602060405180830381600087803b158015610a8b57600080fd5b505af1158015610a9f573d6000803e3d6000fd5b505050506040513d601f19601f82011682018060405250810190610ac3919061426a565b610601565b90506000610ad78b89846104e5565b9050610ae9878787848e8e8a8a612172565b505060018081905550505050505050505050565b600063bc197c8160e01b905095945050505050565b600060019054906101000a900460ff16610b3a5760008054906101000a900460ff1615610b43565b610b42612e68565b5b610b82576040517f08c379a0000000000000000000000000000000000000000000000000000000008152600401610b7990614309565b60405180910390fd5b60008060019054906101000a900460ff161590508015610bd2576001600060016101000a81548160ff02191690831515021790555060016000806101000a81548160ff0219169083151502179055505b610bda612e79565b610be2612ed2565b8160c960006101000a81548173ffffffffffffffffffffffffffffffffffffffff021916908373ffffffffffffffffffffffffffffffffffffffff1602179055508015610c445760008060016101000a81548160ff0219169083151502179055505b5050565b6040518060400160405280600881526020017f5245414354494f4e00000000000000000000000000000000000000000000000081525081565b600063f23a6e6160e01b905095945050505050565b600060026001541415610cde576040517f08c379a0000000000000000000000000000000000000000000000000000000008152600401610cd5906140b3565b60405180910390fd5b6002600181905550610cee613281565b8989898888604051602001610d07959493929190614329565b6040516020818303038152906040528051906020012060001c81600001818152505060cc600082600001518152602001908152602001600020548160200181815250506000816020015111610d91576040517f08c379a0000000000000000000000000000000000000000000000000000000008152600401610d88906143c8565b60405180910390fd5b8381602001511015610dd8576040517f08c379a0000000000000000000000000000000000000000000000000000000008152600401610dcf90614434565b60405180910390fd5b60c960009054906101000a900473ffffffffffffffffffffffffffffffffffffffff1673ffffffffffffffffffffffffffffffffffffffff1663363f8a656040518163ffffffff1660e01b8152600401602060405180830381600087803b158015610e4257600080fd5b505af1158015610e56573d6000803e3d6000fd5b505050506040513d601f19601f82011682018060405250810190610e7a9190614492565b73ffffffffffffffffffffffffffffffffffffffff1663c93b76c98b8b8b6040518463ffffffff1660e01b8152600401610eb6939291906144bf565b602060405180830381600087803b158015610ed057600080fd5b505af1158015610ee4573d6000803e3d6000fd5b505050506040513d601f19601f82011682018060405250810190610f089190614176565b81604001818152505060008060008060c960009054906101000a900473ffffffffffffffffffffffffffffffffffffffff1673ffffffffffffffffffffffffffffffffffffffff1663363f8a656040518163ffffffff1660e01b8152600401602060405180830381600087803b158015610f8157600080fd5b505af1158015610f95573d6000803e3d6000fd5b505050506040513d601f19601f82011682018060405250810190610fb99190614492565b73ffffffffffffffffffffffffffffffffffffffff1663c46bd37986604001516040518263ffffffff1660e01b8152600401610ff59190613774565b608060405180830381600087803b15801561100f57600080fd5b505af1158015611023573d6000803e3d6000fd5b505050506040513d601f19601f820116820180604052508101906110479190614537565b93509350935093508361108f576040517f08c379a0000000000000000000000000000000000000000000000000000000008152600401611086906145ea565b60405180910390fd5b3373ffffffffffffffffffffffffffffffffffffffff168373ffffffffffffffffffffffffffffffffffffffff16146110fd576040517f08c379a00000000000000000000000000000000000000000000000000000000081526004016110f490614656565b60405180910390fd5b8973ffffffffffffffffffffffffffffffffffffffff16631f2a8b068f8f8f8f8d306040518763ffffffff1660e01b815260040161114096959493929190614676565b602060405180830381600087803b15801561115a57600080fd5b505af115801561116e573d6000803e3d6000fd5b505050506040513d601f19601f820116820180604052508101906111929190614176565b8560600181815250508760cc60008760000151815260200190815260200160002060008282546111c29190614706565b92505081905550600073ffffffffffffffffffffffffffffffffffffffff168273ffffffffffffffffffffffffffffffffffffffff16141580156112065750600081115b1561132b5761271081866060015161121e919061473a565b61122891906147c3565b856080018181525050846080015160ca60008d73ffffffffffffffffffffffffffffffffffffffff1673ffffffffffffffffffffffffffffffffffffffff16815260200190815260200160002060008473ffffffffffffffffffffffffffffffffffffffff1673ffffffffffffffffffffffffffffffffffffffff16815260200190815260200160002060008282546112c191906147f4565b925050819055507fd20a9dd733d530d6ff5f314da5a1f73608e0c9328eb459d5971312a7ce6cc219828c87608001518860400151604051611305949392919061484a565b60405180910390a18460800151856060018181516113239190614706565b915081815250505b61135a8786606001518d73ffffffffffffffffffffffffffffffffffffffff16612de29092919063ffffffff16565b887f4c40c89db5040d698d0dbf90d038439e9b000825016629b1f353529085d6a7bf89876060015188608001516040516113969392919061488f565b60405180910390a28460600151955050505050506001808190555098975050505050505050565b60007f01ffc9a7000000000000000000000000000000000000000000000000000000007bffffffffffffffffffffffffffffffffffffffffffffffffffffffff1916827bffffffffffffffffffffffffffffffffffffffffffffffffffffffff1916149050919050565b6000841161146a576040517f08c379a0000000000000000000000000000000000000000000000000000000008152600401611461906141ef565b60405180910390fd5b6114726132b0565b60c960009054906101000a900473ffffffffffffffffffffffffffffffffffffffff1673ffffffffffffffffffffffffffffffffffffffff1663363f8a656040518163ffffffff1660e01b8152600401602060405180830381600087803b1580156114dc57600080fd5b505af11580156114f0573d6000803e3d6000fd5b505050506040513d601f19601f820116820180604052508101906115149190614492565b816000019073ffffffffffffffffffffffffffffffffffffffff16908173ffffffffffffffffffffffffffffffffffffffff1681525050806000015173ffffffffffffffffffffffffffffffffffffffff166394b99569876040518263ffffffff1660e01b81526004016115889190613774565b602060405180830381600087803b1580156115a257600080fd5b505af11580156115b6573d6000803e3d6000fd5b505050506040513d601f19601f820116820180604052508101906115da9190614176565b81604001818152505060008160400151141561162b576040517f08c379a000000000000000000000000000000000000000000000000000000000815260040161162290614912565b60405180910390fd5b806000015173ffffffffffffffffffffffffffffffffffffffff1663c46bd37982604001516040518263ffffffff1660e01b815260040161166c9190613774565b608060405180830381600087803b15801561168657600080fd5b505af115801561169a573d6000803e3d6000fd5b505050506040513d601f19601f820116820180604052508101906116be9190614537565b84606001856080018660a0018760c001848152508473ffffffffffffffffffffffffffffffffffffffff1673ffffffffffffffffffffffffffffffffffffffff168152508473ffffffffffffffffffffffffffffffffffffffff1673ffffffffffffffffffffffffffffffffffffffff168152508415151515815250505050508060600151611782576040517f08c379a0000000000000000000000000000000000000000000000000000000008152600401611779906145ea565b60405180910390fd5b60c960009054906101000a900473ffffffffffffffffffffffffffffffffffffffff1673ffffffffffffffffffffffffffffffffffffffff1663b27bcea16040518163ffffffff1660e01b8152600401602060405180830381600087803b1580156117ec57600080fd5b505af1158015611800573d6000803e3d6000fd5b505050506040513d601f19601f82011682018060405250810190611824919061426a565b816020019073ffffffffffffffffffffffffffffffffffffffff16908173ffffffffffffffffffffffffffffffffffffffff16815250506000816020015173ffffffffffffffffffffffffffffffffffffffff16633013ce296040518163ffffffff1660e01b8152600401602060405180830381600087803b1580156118a957600080fd5b505af11580156118bd573d6000803e3d6000fd5b505050506040513d601f19601f820116820180604052508101906118e19190614134565b9050816020015173ffffffffffffffffffffffffffffffffffffffff16635ddb0cf26040518163ffffffff1660e01b8152600401602060405180830381600087803b15801561192f57600080fd5b505af1158015611943573d6000803e3d6000fd5b505050506040513d601f19601f820116820180604052508101906119679190614176565b8260e0018181525050858260e00151611980919061473a565b826101000181815250506119bc33308461010001518473ffffffffffffffffffffffffffffffffffffffff16612f23909392919063ffffffff16565b6119c98260200151610601565b826101c00181815250506119e38784846101c001516104e5565b826101a0018181525050600082610140018181525050600073ffffffffffffffffffffffffffffffffffffffff168473ffffffffffffffffffffffffffffffffffffffff1614611bb857612710826101000151836020015173ffffffffffffffffffffffffffffffffffffffff1663f467320e6040518163ffffffff1660e01b8152600401602060405180830381600087803b158015611a8257600080fd5b505af1158015611a96573d6000803e3d6000fd5b505050506040513d601f19601f82011682018060405250810190611aba9190614176565b611ac4919061473a565b611ace91906147c3565b8261014001818152505081610140015160ca60008373ffffffffffffffffffffffffffffffffffffffff1673ffffffffffffffffffffffffffffffffffffffff16815260200190815260200160002060008673ffffffffffffffffffffffffffffffffffffffff1673ffffffffffffffffffffffffffffffffffffffff1681526020019081526020016000206000828254611b6991906147f4565b925050819055507fcae8f06f6239452c3a95ac7735981695a2862cac824988341cae89250e21f7ce8482846101400151856101a00151604051611baf949392919061484a565b60405180910390a15b6000826020015173ffffffffffffffffffffffffffffffffffffffff1663f93c0d796040518163ffffffff1660e01b8152600401602060405180830381600087803b158015611c0657600080fd5b505af1158015611c1a573d6000803e3d6000fd5b505050506040513d601f19601f82011682018060405250810190611c3e9190614176565b905061271083610100015182611c54919061473a565b611c5e91906147c3565b83610180018181525050826101800151836101400151846101000151611c849190614706565b611c8e9190614706565b83610160018181525050600083610120018181525050600073ffffffffffffffffffffffffffffffffffffffff168360a0015173ffffffffffffffffffffffffffffffffffffffff1614158015611ce9575060008360c00151115b15611e21576127108361016001518460c00151611d06919061473a565b611d1091906147c3565b8361012001818152505082610120015160ca60008473ffffffffffffffffffffffffffffffffffffffff1673ffffffffffffffffffffffffffffffffffffffff16815260200190815260200160002060008560a0015173ffffffffffffffffffffffffffffffffffffffff1673ffffffffffffffffffffffffffffffffffffffff1681526020019081526020016000206000828254611daf91906147f4565b925050819055507fd20a9dd733d530d6ff5f314da5a1f73608e0c9328eb459d5971312a7ce6cc2198360a0015183856101200151866101a00151604051611df9949392919061484a565b60405180910390a18261012001518361016001818151611e199190614706565b915081815250505b82610160015160ca60008473ffffffffffffffffffffffffffffffffffffffff1673ffffffffffffffffffffffffffffffffffffffff1681526020019081526020016000206000856080015173ffffffffffffffffffffffffffffffffffffffff1673ffffffffffffffffffffffffffffffffffffffff1681526020019081526020016000206000828254611eb691906147f4565b925050819055507fbc6998d896bf22ea1228e704a40269ce0bb6a59c6eb57cafaa7d86c08d9bc923836080015183856101600151866101a00151604051611f00949392919061484a565b60405180910390a160405180606001604052808373ffffffffffffffffffffffffffffffffffffffff1681526020018460e0015181526020018281525060cb6000856101a00151815260200190815260200160002060008201518160000160006101000a81548173ffffffffffffffffffffffffffffffffffffffff021916908373ffffffffffffffffffffffffffffffffffffffff1602179055506020820151816001015560408201518160020155905050600060c960009054906101000a900473ffffffffffffffffffffffffffffffffffffffff1673ffffffffffffffffffffffffffffffffffffffff166376104ad56040518163ffffffff1660e01b8152600401602060405180830381600087803b15801561201f57600080fd5b505af1158015612033573d6000803e3d6000fd5b505050506040513d601f19601f820116820180604052508101906120579190614970565b90508073ffffffffffffffffffffffffffffffffffffffff1663731133e988866101a001518b600067ffffffffffffffff811115612098576120976137aa565b5b6040519080825280601f01601f1916602001820160405280156120ca5781602001600182028036833780820191505090505b506040518563ffffffff1660e01b81526004016120ea94939291906149f2565b600060405180830381600087803b15801561210457600080fd5b505af1158015612118573d6000803e3d6000fd5b505050507f0bdc7ecab592c309e746a1dfcb1a7749f6c964110b1e87b70f33da3db038e39189898989886101a00151896101c0015160405161215f96959493929190614a3e565b60405180910390a1505050505050505050565b600084116121b5576040517f08c379a00000000000000000000000000000000000000000000000000000000081526004016121ac906141ef565b60405180910390fd5b6121bd613380565b60c960009054906101000a900473ffffffffffffffffffffffffffffffffffffffff1673ffffffffffffffffffffffffffffffffffffffff166376104ad56040518163ffffffff1660e01b8152600401602060405180830381600087803b15801561222757600080fd5b505af115801561223b573d6000803e3d6000fd5b505050506040513d601f19601f8201168201806040525081019061225f9190614970565b816000019073ffffffffffffffffffffffffffffffffffffffff16908173ffffffffffffffffffffffffffffffffffffffff1681525050806000015173ffffffffffffffffffffffffffffffffffffffff1663f5298aca3388886040518463ffffffff1660e01b81526004016122d793929190614a9f565b600060405180830381600087803b1580156122f157600080fd5b505af1158015612305573d6000803e3d6000fd5b5050505060cb60008781526020019081526020016000206040518060600160405290816000820160009054906101000a900473ffffffffffffffffffffffffffffffffffffffff1673ffffffffffffffffffffffffffffffffffffffff1673ffffffffffffffffffffffffffffffffffffffff168152602001600182015481526020016002820154815250508160200181905250612710858260200151604001518360200151602001516123b9919061473a565b6123c3919061473a565b6123cd91906147c3565b816040018181525050600073ffffffffffffffffffffffffffffffffffffffff168473ffffffffffffffffffffffffffffffffffffffff161461265657612710816040015160c960009054906101000a900473ffffffffffffffffffffffffffffffffffffffff1673ffffffffffffffffffffffffffffffffffffffff1663b27bcea16040518163ffffffff1660e01b8152600401602060405180830381600087803b15801561247c57600080fd5b505af1158015612490573d6000803e3d6000fd5b505050506040513d601f19601f820116820180604052508101906124b4919061426a565b73ffffffffffffffffffffffffffffffffffffffff1663cc22c3e26040518163ffffffff1660e01b8152600401602060405180830381600087803b1580156124fb57600080fd5b505af115801561250f573d6000803e3d6000fd5b505050506040513d601f19601f820116820180604052508101906125339190614176565b61253d919061473a565b61254791906147c3565b816060018181525050806060015160ca600083602001516000015173ffffffffffffffffffffffffffffffffffffffff1673ffffffffffffffffffffffffffffffffffffffff16815260200190815260200160002060008673ffffffffffffffffffffffffffffffffffffffff1673ffffffffffffffffffffffffffffffffffffffff16815260200190815260200160002060008282546125e891906147f4565b925050819055507fcae8f06f6239452c3a95ac7735981695a2862cac824988341cae89250e21f7ce84826020015160000151836060015189604051612630949392919061484a565b60405180910390a180606001518160400181815161264e9190614706565b915081815250505b61271060c960009054906101000a900473ffffffffffffffffffffffffffffffffffffffff1673ffffffffffffffffffffffffffffffffffffffff1663b27bcea16040518163ffffffff1660e01b8152600401602060405180830381600087803b1580156126c357600080fd5b505af11580156126d7573d6000803e3d6000fd5b505050506040513d601f19601f820116820180604052508101906126fb919061426a565b73ffffffffffffffffffffffffffffffffffffffff1662ac1c5a6040518163ffffffff1660e01b8152600401602060405180830381600087803b15801561274157600080fd5b505af1158015612755573d6000803e3d6000fd5b505050506040513d601f19601f820116820180604052508101906127799190614176565b8260400151612788919061473a565b61279291906147c3565b816080018181525050806080015181604001516127af9190614706565b8160a001818152505060c960009054906101000a900473ffffffffffffffffffffffffffffffffffffffff1673ffffffffffffffffffffffffffffffffffffffff16636fdfe8c56040518163ffffffff1660e01b8152600401602060405180830381600087803b15801561282257600080fd5b505af1158015612836573d6000803e3d6000fd5b505050506040513d601f19601f8201168201806040525081019061285a9190614b14565b8160c0019073ffffffffffffffffffffffffffffffffffffffff16908173ffffffffffffffffffffffffffffffffffffffff1681525050600073ffffffffffffffffffffffffffffffffffffffff168373ffffffffffffffffffffffffffffffffffffffff1614612a695760c960009054906101000a900473ffffffffffffffffffffffffffffffffffffffff1673ffffffffffffffffffffffffffffffffffffffff1663b27bcea16040518163ffffffff1660e01b8152600401602060405180830381600087803b15801561292f57600080fd5b505af1158015612943573d6000803e3d6000fd5b505050506040513d601f19601f82011682018060405250810190612967919061426a565b73ffffffffffffffffffffffffffffffffffffffff166373cf2a67846040518263ffffffff1660e01b815260040161299f9190614b41565b602060405180830381600087803b1580156129b957600080fd5b505af11580156129cd573d6000803e3d6000fd5b505050506040513d601f19601f820116820180604052508101906129f19190614b5c565b612a30576040517f08c379a0000000000000000000000000000000000000000000000000000000008152600401612a2790614bd5565b60405180910390fd5b828160c0019073ffffffffffffffffffffffffffffffffffffffff16908173ffffffffffffffffffffffffffffffffffffffff16815250505b60008160c0015173ffffffffffffffffffffffffffffffffffffffff166317e1816c8b8b8b8660200151600001516040518563ffffffff1660e01b8152600401612ab69493929190614bf5565b602060405180830381600087803b158015612ad057600080fd5b505af1158015612ae4573d6000803e3d6000fd5b505050506040513d601f19601f82011682018060405250810190612b089190614176565b905081602001516000015173ffffffffffffffffffffffffffffffffffffffff1663095ea7b38360c0015184604001516040518363ffffffff1660e01b8152600401612b55929190614c3a565b602060405180830381600087803b158015612b6f57600080fd5b505af1158015612b83573d6000803e3d6000fd5b505050506040513d601f19601f82011682018060405250810190612ba79190614b5c565b508160c0015173ffffffffffffffffffffffffffffffffffffffff166367e9dbcb8b8b8b86602001516000015187608001513060016040518863ffffffff1660e01b8152600401612bfe9796959493929190614c63565b602060405180830381600087803b158015612c1857600080fd5b505af1158015612c2c573d6000803e3d6000fd5b505050506040513d601f19601f82011682018060405250810190612c509190614176565b8260e001818152505060008a8a8a8560c0015185604051602001612c78959493929190614329565b6040516020818303038152906040528051906020012060001c90508260e0015160cc60008381526020019081526020016000206000828254612cba91906147f4565b925050819055508260c0015173ffffffffffffffffffffffffffffffffffffffff166367e9dbcb8c8c8c8760200151600001518860a001513360006040518863ffffffff1660e01b8152600401612d179796959493929190614c63565b602060405180830381600087803b158015612d3157600080fd5b505af1158015612d45573d6000803e3d6000fd5b505050506040513d601f19601f82011682018060405250810190612d699190614176565b836101000181815250507f57df605d24620af344b1b7b2f4a2e11706c95c73e45d9c0dd804564579db6dc28b8b8b8b8760200151600001518c8a8d8b60c001518b8d61010001518e60e00151604051612dcd9c9b9a99989796959493929190614cd2565b60405180910390a15050505050505050505050565b612e638363a9059cbb60e01b8484604051602401612e01929190614c3a565b604051602081830303815290604052907bffffffffffffffffffffffffffffffffffffffffffffffffffffffff19166020820180517bffffffffffffffffffffffffffffffffffffffffffffffffffffffff8381831617835250505050612fac565b505050565b6000612e7330613073565b15905090565b600060019054906101000a900460ff16612ec8576040517f08c379a0000000000000000000000000000000000000000000000000000000008152600401612ebf90614e05565b60405180910390fd5b612ed0613096565b565b600060019054906101000a900460ff16612f21576040517f08c379a0000000000000000000000000000000000000000000000000000000008152600401612f1890614e05565b60405180910390fd5b565b612fa6846323b872dd60e01b858585604051602401612f4493929190614e25565b604051602081830303815290604052907bffffffffffffffffffffffffffffffffffffffffffffffffffffffff19166020820180517bffffffffffffffffffffffffffffffffffffffffffffffffffffffff8381831617835250505050612fac565b50505050565b600061300e826040518060400160405280602081526020017f5361666545524332303a206c6f772d6c6576656c2063616c6c206661696c65648152508573ffffffffffffffffffffffffffffffffffffffff166130ee9092919063ffffffff16565b905060008151111561306e578080602001905181019061302e9190614b5c565b61306d576040517f08c379a000000000000000000000000000000000000000000000000000000000815260040161306490614ece565b60405180910390fd5b5b505050565b6000808273ffffffffffffffffffffffffffffffffffffffff163b119050919050565b600060019054906101000a900460ff166130e5576040517f08c379a00000000000000000000000000000000000000000000000000000000081526004016130dc90614e05565b60405180910390fd5b60018081905550565b60606130fd8484600085613106565b90509392505050565b60608247101561314b576040517f08c379a000000000000000000000000000000000000000000000000000000000815260040161314290614f60565b60405180910390fd5b61315485613073565b613193576040517f08c379a000000000000000000000000000000000000000000000000000000000815260040161318a90614fcc565b60405180910390fd5b6000808673ffffffffffffffffffffffffffffffffffffffff1685876040516131bc9190615028565b60006040518083038185875af1925050503d80600081146131f9576040519150601f19603f3d011682016040523d82523d6000602084013e6131fe565b606091505b509150915061320e82828661321a565b92505050949350505050565b6060831561322a5782905061327a565b60008351111561323d5782518084602001fd5b816040517f08c379a00000000000000000000000000000000000000000000000000000000081526004016132719190613ef8565b60405180910390fd5b9392505050565b6040518060a0016040528060008152602001600081526020016000815260200160008152602001600081525090565b604051806101e00160405280600073ffffffffffffffffffffffffffffffffffffffff168152602001600073ffffffffffffffffffffffffffffffffffffffff16815260200160008152602001600015158152602001600073ffffffffffffffffffffffffffffffffffffffff168152602001600073ffffffffffffffffffffffffffffffffffffffff1681526020016000815260200160008152602001600081526020016000815260200160008152602001600081526020016000815260200160008152602001600081525090565b604051806101200160405280600073ffffffffffffffffffffffffffffffffffffffff1681526020016133b16133fe565b815260200160008152602001600081526020016000815260200160008152602001600073ffffffffffffffffffffffffffffffffffffffff16815260200160008152602001600081525090565b6040518060600160405280600073ffffffffffffffffffffffffffffffffffffffff16815260200160008152602001600081525090565b6000604051905090565b600080fd5b600080fd5b6000819050919050565b61345c81613449565b811461346757600080fd5b50565b60008135905061347981613453565b92915050565b6000602082840312156134955761349461343f565b5b60006134a38482850161346a565b91505092915050565b600073ffffffffffffffffffffffffffffffffffffffff82169050919050565b6000819050919050565b60006134f16134ec6134e7846134ac565b6134cc565b6134ac565b9050919050565b6000613503826134d6565b9050919050565b6000613515826134f8565b9050919050565b6135258161350a565b82525050565b61353481613449565b82525050565b600060608201905061354f600083018661351c565b61355c602083018561352b565b613569604083018461352b565b949350505050565b60007fffffffff0000000000000000000000000000000000000000000000000000000082169050919050565b6135a681613571565b81146135b157600080fd5b50565b6000813590506135c38161359d565b92915050565b6000602082840312156135df576135de61343f565b5b60006135ed848285016135b4565b91505092915050565b60008115159050919050565b61360b816135f6565b82525050565b60006020820190506136266000830184613602565b92915050565b6000613637826134ac565b9050919050565b6136478161362c565b811461365257600080fd5b50565b6000813590506136648161363e565b92915050565b600080600080600060a086880312156136865761368561343f565b5b60006136948882890161346a565b95505060206136a58882890161346a565b94505060406136b688828901613655565b93505060606136c788828901613655565b92505060806136d88882890161346a565b9150509295509295909350565b60006136f0826134f8565b9050919050565b613700816136e5565b82525050565b600060208201905061371b60008301846136f7565b92915050565b60008060006060848603121561373a5761373961343f565b5b60006137488682870161346a565b93505060206137598682870161346a565b925050604061376a8682870161346a565b9150509250925092565b6000602082019050613789600083018461352b565b92915050565b600080fd5b600080fd5b6000601f19601f8301169050919050565b7f4e487b7100000000000000000000000000000000000000000000000000000000600052604160045260246000fd5b6137e282613799565b810181811067ffffffffffffffff82111715613801576138006137aa565b5b80604052505050565b6000613814613435565b905061382082826137d9565b919050565b600067ffffffffffffffff8211156138405761383f6137aa565b5b61384982613799565b9050602081019050919050565b82818337600083830152505050565b600061387861387384613825565b61380a565b90508281526020810184848401111561389457613893613794565b5b61389f848285613856565b509392505050565b600082601f8301126138bc576138bb61378f565b5b81356138cc848260208601613865565b91505092915050565b600080600080600080600080610100898b0312156138f6576138f561343f565b5b60006139048b828c0161346a565b98505060206139158b828c01613655565b97505060406139268b828c0161346a565b96505060606139378b828c0161346a565b95505060806139488b828c0161346a565b94505060a06139598b828c01613655565b93505060c061396a8b828c01613655565b92505060e089013567ffffffffffffffff81111561398b5761398a613444565b5b6139978b828c016138a7565b9150509295985092959890939650565b60006139b28261362c565b9050919050565b6139c2816139a7565b81146139cd57600080fd5b50565b6000813590506139df816139b9565b92915050565b600080604083850312156139fc576139fb61343f565b5b6000613a0a858286016139d0565b9250506020613a1b85828601613655565b9150509250929050565b6000613a308261362c565b9050919050565b613a4081613a25565b8114613a4b57600080fd5b50565b600081359050613a5d81613a37565b92915050565b600060208284031215613a7957613a7861343f565b5b6000613a8784828501613a4e565b91505092915050565b600060208284031215613aa657613aa561343f565b5b6000613ab4848285016139d0565b91505092915050565b60008060008060008060008060006101208a8c031215613ae057613adf61343f565b5b6000613aee8c828d0161346a565b9950506020613aff8c828d0161346a565b9850506040613b108c828d01613655565b9750506060613b218c828d0161346a565b9650506080613b328c828d0161346a565b95505060a0613b438c828d01613655565b94505060c0613b548c828d0161346a565b93505060e0613b658c828d01613655565b9250506101008a013567ffffffffffffffff811115613b8757613b86613444565b5b613b938c828d016138a7565b9150509295985092959850929598565b600067ffffffffffffffff821115613bbe57613bbd6137aa565b5b602082029050602081019050919050565b600080fd5b6000613be7613be284613ba3565b61380a565b90508083825260208201905060208402830185811115613c0a57613c09613bcf565b5b835b81811015613c335780613c1f888261346a565b845260208401935050602081019050613c0c565b5050509392505050565b600082601f830112613c5257613c5161378f565b5b8135613c62848260208601613bd4565b91505092915050565b600067ffffffffffffffff821115613c8657613c856137aa565b5b613c8f82613799565b9050602081019050919050565b6000613caf613caa84613c6b565b61380a565b905082815260208101848484011115613ccb57613cca613794565b5b613cd6848285613856565b509392505050565b600082601f830112613cf357613cf261378f565b5b8135613d03848260208601613c9c565b91505092915050565b600080600080600060a08688031215613d2857613d2761343f565b5b6000613d3688828901613655565b9550506020613d4788828901613655565b945050604086013567ffffffffffffffff811115613d6857613d67613444565b5b613d7488828901613c3d565b935050606086013567ffffffffffffffff811115613d9557613d94613444565b5b613da188828901613c3d565b925050608086013567ffffffffffffffff811115613dc257613dc1613444565b5b613dce88828901613cde565b9150509295509295909350565b613de481613571565b82525050565b6000602082019050613dff6000830184613ddb565b92915050565b6000613e108261362c565b9050919050565b613e2081613e05565b8114613e2b57600080fd5b50565b600081359050613e3d81613e17565b92915050565b600060208284031215613e5957613e5861343f565b5b6000613e6784828501613e2e565b91505092915050565b600081519050919050565b600082825260208201905092915050565b60005b83811015613eaa578082015181840152602081019050613e8f565b83811115613eb9576000848401525b50505050565b6000613eca82613e70565b613ed48185613e7b565b9350613ee4818560208601613e8c565b613eed81613799565b840191505092915050565b60006020820190508181036000830152613f128184613ebf565b905092915050565b600080600080600060a08688031215613f3657613f3561343f565b5b6000613f4488828901613655565b9550506020613f5588828901613655565b9450506040613f668882890161346a565b9350506060613f778882890161346a565b925050608086013567ffffffffffffffff811115613f9857613f97613444565b5b613fa488828901613cde565b9150509295509295909350565b600080600080600080600080610100898b031215613fd257613fd161343f565b5b6000613fe08b828c0161346a565b9850506020613ff18b828c01613655565b97505060406140028b828c0161346a565b96505060606140138b828c016139d0565b95505060806140248b828c01613655565b94505060a06140358b828c0161346a565b93505060c06140468b828c0161346a565b92505060e06140578b828c01613655565b9150509295985092959890939650565b7f5265656e7472616e637947756172643a207265656e7472616e742063616c6c00600082015250565b600061409d601f83613e7b565b91506140a882614067565b602082019050919050565b600060208201905081810360008301526140cc81614090565b9050919050565b600060808201905081810360008301526140ed8187613ebf565b90506140fc602083018661352b565b614109604083018561352b565b614116606083018461352b565b95945050505050565b60008151905061412e816139b9565b92915050565b60006020828403121561414a5761414961343f565b5b60006141588482850161411f565b91505092915050565b60008151905061417081613453565b92915050565b60006020828403121561418c5761418b61343f565b5b600061419a84828501614161565b91505092915050565b7f496e76616c6964203020696e7075740000000000000000000000000000000000600082015250565b60006141d9600f83613e7b565b91506141e4826141a3565b602082019050919050565b60006020820190508181036000830152614208816141cc565b9050919050565b6142188161362c565b82525050565b6000606082019050614233600083018661420f565b614240602083018561352b565b61424d604083018461420f565b949350505050565b60008151905061426481613a37565b92915050565b6000602082840312156142805761427f61343f565b5b600061428e84828501614255565b91505092915050565b7f496e697469616c697a61626c653a20636f6e747261637420697320616c72656160008201527f647920696e697469616c697a6564000000000000000000000000000000000000602082015250565b60006142f3602e83613e7b565b91506142fe82614297565b604082019050919050565b60006020820190508181036000830152614322816142e6565b9050919050565b600060a08201905061433e600083018861352b565b61434b602083018761420f565b614358604083018661352b565b614365606083018561420f565b614372608083018461352b565b9695505050505050565b7f4e6f207265776172647300000000000000000000000000000000000000000000600082015250565b60006143b2600a83613e7b565b91506143bd8261437c565b602082019050919050565b600060208201905081810360008301526143e1816143a5565b9050919050565b7f526577617264732062616c616e6365203c20746f6b656e73546f4275726e0000600082015250565b600061441e601e83613e7b565b9150614429826143e8565b602082019050919050565b6000602082019050818103600083015261444d81614411565b9050919050565b600061445f8261362c565b9050919050565b61446f81614454565b811461447a57600080fd5b50565b60008151905061448c81614466565b92915050565b6000602082840312156144a8576144a761343f565b5b60006144b68482850161447d565b91505092915050565b60006060820190506144d4600083018661352b565b6144e1602083018561420f565b6144ee604083018461352b565b949350505050565b6144ff816135f6565b811461450a57600080fd5b50565b60008151905061451c816144f6565b92915050565b6000815190506145318161363e565b92915050565b600080600080608085870312156145515761455061343f565b5b600061455f8782880161450d565b945050602061457087828801614522565b935050604061458187828801614522565b925050606061459287828801614161565b91505092959194509250565b7f4e4654206e6f7420726567697374657265640000000000000000000000000000600082015250565b60006145d4601283613e7b565b91506145df8261459e565b602082019050919050565b60006020820190508181036000830152614603816145c7565b9050919050565b7f4e4654206e6f74206f776e656400000000000000000000000000000000000000600082015250565b6000614640600d83613e7b565b915061464b8261460a565b602082019050919050565b6000602082019050818103600083015261466f81614633565b9050919050565b600060c08201905061468b600083018961352b565b614698602083018861420f565b6146a5604083018761352b565b6146b2606083018661351c565b6146bf608083018561352b565b6146cc60a083018461420f565b979650505050505050565b7f4e487b7100000000000000000000000000000000000000000000000000000000600052601160045260246000fd5b600061471182613449565b915061471c83613449565b92508282101561472f5761472e6146d7565b5b828203905092915050565b600061474582613449565b915061475083613449565b9250817fffffffffffffffffffffffffffffffffffffffffffffffffffffffffffffffff0483118215151615614789576147886146d7565b5b828202905092915050565b7f4e487b7100000000000000000000000000000000000000000000000000000000600052601260045260246000fd5b60006147ce82613449565b91506147d983613449565b9250826147e9576147e8614794565b5b828204905092915050565b60006147ff82613449565b915061480a83613449565b9250827fffffffffffffffffffffffffffffffffffffffffffffffffffffffffffffffff0382111561483f5761483e6146d7565b5b828201905092915050565b600060808201905061485f600083018761420f565b61486c602083018661351c565b614879604083018561352b565b614886606083018461352b565b95945050505050565b60006060820190506148a4600083018661352b565b6148b1602083018561352b565b6148be604083018461352b565b949350505050565b7f556e6b6e6f776e204e4654000000000000000000000000000000000000000000600082015250565b60006148fc600b83613e7b565b9150614907826148c6565b602082019050919050565b6000602082019050818103600083015261492b816148ef565b9050919050565b600061493d8261362c565b9050919050565b61494d81614932565b811461495857600080fd5b50565b60008151905061496a81614944565b92915050565b6000602082840312156149865761498561343f565b5b60006149948482850161495b565b91505092915050565b600081519050919050565b600082825260208201905092915050565b60006149c48261499d565b6149ce81856149a8565b93506149de818560208601613e8c565b6149e781613799565b840191505092915050565b6000608082019050614a07600083018761420f565b614a14602083018661352b565b614a21604083018561352b565b8181036060830152614a3381846149b9565b905095945050505050565b600060c082019050614a53600083018961352b565b614a60602083018861352b565b614a6d604083018761420f565b614a7a606083018661420f565b614a87608083018561352b565b614a9460a083018461352b565b979650505050505050565b6000606082019050614ab4600083018661420f565b614ac1602083018561352b565b614ace604083018461352b565b949350505050565b6000614ae18261362c565b9050919050565b614af181614ad6565b8114614afc57600080fd5b50565b600081519050614b0e81614ae8565b92915050565b600060208284031215614b2a57614b2961343f565b5b6000614b3884828501614aff565b91505092915050565b6000602082019050614b56600083018461420f565b92915050565b600060208284031215614b7257614b7161343f565b5b6000614b808482850161450d565b91505092915050565b7f4572722043757261746f725661756c7400000000000000000000000000000000600082015250565b6000614bbf601083613e7b565b9150614bca82614b89565b602082019050919050565b60006020820190508181036000830152614bee81614bb2565b9050919050565b6000608082019050614c0a600083018761352b565b614c17602083018661420f565b614c24604083018561352b565b614c31606083018461351c565b95945050505050565b6000604082019050614c4f600083018561420f565b614c5c602083018461352b565b9392505050565b600060e082019050614c78600083018a61352b565b614c85602083018961420f565b614c92604083018861352b565b614c9f606083018761351c565b614cac608083018661352b565b614cb960a083018561420f565b614cc660c0830184613602565b98975050505050505050565b600061018082019050614ce8600083018f61352b565b614cf5602083018e61420f565b614d02604083018d61352b565b614d0f606083018c61352b565b614d1c608083018b61420f565b614d2960a083018a61352b565b81810360c0830152614d3b8189613ebf565b9050614d4a60e083018861420f565b614d5861010083018761420f565b614d6661012083018661352b565b614d7461014083018561352b565b614d8261016083018461352b565b9d9c50505050505050505050505050565b7f496e697469616c697a61626c653a20636f6e7472616374206973206e6f74206960008201527f6e697469616c697a696e67000000000000000000000000000000000000000000602082015250565b6000614def602b83613e7b565b9150614dfa82614d93565b604082019050919050565b60006020820190508181036000830152614e1e81614de2565b9050919050565b6000606082019050614e3a600083018661420f565b614e47602083018561420f565b614e54604083018461352b565b949350505050565b7f5361666545524332303a204552433230206f7065726174696f6e20646964206e60008201527f6f74207375636365656400000000000000000000000000000000000000000000602082015250565b6000614eb8602a83613e7b565b9150614ec382614e5c565b604082019050919050565b60006020820190508181036000830152614ee781614eab565b9050919050565b7f416464726573733a20696e73756666696369656e742062616c616e636520666f60008201527f722063616c6c0000000000000000000000000000000000000000000000000000602082015250565b6000614f4a602683613e7b565b9150614f5582614eee565b604082019050919050565b60006020820190508181036000830152614f7981614f3d565b9050919050565b7f416464726573733a2063616c6c20746f206e6f6e2d636f6e7472616374000000600082015250565b6000614fb6601d83613e7b565b9150614fc182614f80565b602082019050919050565b60006020820190508181036000830152614fe581614fa9565b9050919050565b600081905092915050565b60006150028261499d565b61500c8185614fec565b935061501c818560208601613e8c565b80840191505092915050565b60006150348284614ff7565b91508190509291505056fea2646970667358221220463b0c5f1b19c05dbe80c02bdfb1b300dcde727064af27b2cbb6b43580a5442164736f6c63430008090033",
  "devdoc": {
    "details": "This contract buying and spending reactions",
    "events": {
      "CreatorRewardsGranted(address,address,uint256,uint256)": {
        "details": "Event emitted when rewards are granted to a creator"
      },
      "ERC20RewardsClaimed(address,uint256,address)": {
        "details": "Event emitted when an account withdraws ERC20 rewards"
      },
      "MakerRewardsGranted(address,address,uint256,uint256)": {
        "details": "Event emitted when rewards are granted to a maker"
      },
      "ReactionsPurchased(uint256,uint256,address,address,uint256,uint256)": {
        "details": "Event emitted when a reaction is purchased"
      },
      "ReactionsSpent(uint256,address,uint256,uint256,address,uint256,string,address,address,uint256,uint256,uint256)": {
        "details": "Event emitted when reaction is spent"
      },
      "ReferrerRewardsGranted(address,address,uint256,uint256)": {
        "details": "Event emitted when rewards are granted to a referrer"
      },
      "TakerWithdraw(uint256,uint256,uint256,uint256)": {
        "details": "Event emitted when taker claims curator tokens"
      }
    },
    "kind": "dev",
    "methods": {
      "buyAndSpendReaction(uint256,uint256,address,uint256,uint256,address,uint256,address,string)": {
        "details": "Allows a user to buy and spend a reaction in 1 transaction instead of first buying and then spending in 2 separate transactions"
      },
      "buyReaction(uint256,uint256,address,address,uint256)": {
        "details": "External func to allow a user to buy reaction NFTs based on a registered Maker NFT",
        "params": {
          "destinationWallet": "reactions will be minted into this wallet (allows bulk buying from other contracts since reactions are non-transferrable)",
          "optionBits": "Optional param to specify options how the user wants transform reaction",
          "quantity": "Number of reactions to buy",
          "referrer": "Optional param to specify an address where referrer rewards are allocated",
          "transformId": "transform to be purchased"
        }
      },
      "deriveParameterVersion(address)": {
        "details": "Derive the pricing parameters version E.g. if the price of a reaction changes, the paramaterVersion should be different"
      },
      "deriveReactionId(uint256,uint256,uint256)": {
        "details": "Derive the reaction ID from the parameters This unique ID will be used to track instances of reactions built from the same params E.g. if the price of a reaction changes, the reaction ID should be different"
      },
      "initialize(address)": {
        "details": "initializer to call after deployment, can only be called once"
      },
      "spendReaction(uint256,address,uint256,uint256,uint256,address,address,string)": {
        "details": "Allows a reaction NFT owner to spend (burn) their tokens at a specific target Taker NFT.",
        "params": {
          "curatorVaultOverride": "Optional address of non-default curator vault",
          "ipfsMetadataHash": "Optional hash of any metadata being associated with spend action",
          "reactionId": "Reaction to spend",
          "reactionQuantity": "How many reactions to spend",
          "referrer": "Optional address where referrer rewards are allocated",
          "takerNftAddress": "Target contract where the reaction is targeting",
          "takerNftChainId": "Chain ID where the NFT lives",
          "takerNftId": "Target NFT ID in the contract"
        }
      },
      "supportsInterface(bytes4)": {
        "details": "See {IERC165-supportsInterface}."
      },
      "withdrawErc20Rewards(address)": {
        "details": "Allows an account that has been allocated rewards to withdraw (Maker, creator, referrer)",
        "params": {
          "token": "ERC20 token that rewards are valued in"
        }
      },
      "withdrawTakerRewards(uint256,address,uint256,address,address,uint256,uint256,address)": {
        "details": "Allows an NFT taker to withdraw rewards for reactions that were spent against an NFT that they own. The owner of the NFT must register the NFT into the system before they can claim the rewards."
      }
    },
    "title": "ReactionVault",
    "version": 1
  },
  "userdoc": {
    "kind": "user",
    "methods": {},
    "version": 1
  },
  "storageLayout": {
    "storage": [
      {
        "astId": 2797,
        "contract": "contracts/Reactions/ReactionVault.sol:ReactionVault",
        "label": "_initialized",
        "offset": 0,
        "slot": "0",
        "type": "t_bool"
      },
      {
        "astId": 2800,
        "contract": "contracts/Reactions/ReactionVault.sol:ReactionVault",
        "label": "_initializing",
        "offset": 1,
        "slot": "0",
        "type": "t_bool"
      },
      {
        "astId": 2878,
        "contract": "contracts/Reactions/ReactionVault.sol:ReactionVault",
        "label": "_status",
        "offset": 0,
        "slot": "1",
        "type": "t_uint256"
      },
      {
        "astId": 2922,
        "contract": "contracts/Reactions/ReactionVault.sol:ReactionVault",
        "label": "__gap",
        "offset": 0,
        "slot": "2",
        "type": "t_array(t_uint256)49_storage"
      },
      {
        "astId": 6867,
        "contract": "contracts/Reactions/ReactionVault.sol:ReactionVault",
        "label": "__gap",
        "offset": 0,
        "slot": "51",
        "type": "t_array(t_uint256)50_storage"
      },
      {
        "astId": 4343,
        "contract": "contracts/Reactions/ReactionVault.sol:ReactionVault",
        "label": "__gap",
        "offset": 0,
        "slot": "101",
        "type": "t_array(t_uint256)50_storage"
      },
      {
        "astId": 4289,
        "contract": "contracts/Reactions/ReactionVault.sol:ReactionVault",
        "label": "__gap",
        "offset": 0,
        "slot": "151",
        "type": "t_array(t_uint256)50_storage"
      },
      {
        "astId": 10352,
        "contract": "contracts/Reactions/ReactionVault.sol:ReactionVault",
        "label": "addressManager",
        "offset": 0,
        "slot": "201",
        "type": "t_contract(IAddressManager)7551"
      },
      {
        "astId": 10360,
        "contract": "contracts/Reactions/ReactionVault.sol:ReactionVault",
        "label": "ownerToRewardsMapping",
        "offset": 0,
        "slot": "202",
        "type": "t_mapping(t_contract(IERC20Upgradeable)5035,t_mapping(t_address,t_uint256))"
      },
      {
        "astId": 10366,
        "contract": "contracts/Reactions/ReactionVault.sol:ReactionVault",
        "label": "reactionPriceDetailsMapping",
        "offset": 0,
        "slot": "203",
        "type": "t_mapping(t_uint256,t_struct(ReactionPriceDetails)8901_storage)"
      },
      {
        "astId": 10371,
        "contract": "contracts/Reactions/ReactionVault.sol:ReactionVault",
        "label": "nftOwnerRewards",
        "offset": 0,
        "slot": "204",
        "type": "t_mapping(t_uint256,t_uint256)"
      }
    ],
    "types": {
      "t_address": {
        "encoding": "inplace",
        "label": "address",
        "numberOfBytes": "20"
      },
      "t_array(t_uint256)49_storage": {
        "base": "t_uint256",
        "encoding": "inplace",
        "label": "uint256[49]",
        "numberOfBytes": "1568"
      },
      "t_array(t_uint256)50_storage": {
        "base": "t_uint256",
        "encoding": "inplace",
        "label": "uint256[50]",
        "numberOfBytes": "1600"
      },
      "t_bool": {
        "encoding": "inplace",
        "label": "bool",
        "numberOfBytes": "1"
      },
      "t_contract(IAddressManager)7551": {
        "encoding": "inplace",
        "label": "contract IAddressManager",
        "numberOfBytes": "20"
      },
      "t_contract(IERC20Upgradeable)5035": {
        "encoding": "inplace",
        "label": "contract IERC20Upgradeable",
        "numberOfBytes": "20"
      },
      "t_mapping(t_address,t_uint256)": {
        "encoding": "mapping",
        "key": "t_address",
        "label": "mapping(address => uint256)",
        "numberOfBytes": "32",
        "value": "t_uint256"
      },
      "t_mapping(t_contract(IERC20Upgradeable)5035,t_mapping(t_address,t_uint256))": {
        "encoding": "mapping",
        "key": "t_contract(IERC20Upgradeable)5035",
        "label": "mapping(contract IERC20Upgradeable => mapping(address => uint256))",
        "numberOfBytes": "32",
        "value": "t_mapping(t_address,t_uint256)"
      },
      "t_mapping(t_uint256,t_struct(ReactionPriceDetails)8901_storage)": {
        "encoding": "mapping",
        "key": "t_uint256",
        "label": "mapping(uint256 => struct IReactionVault.ReactionPriceDetails)",
        "numberOfBytes": "32",
        "value": "t_struct(ReactionPriceDetails)8901_storage"
      },
      "t_mapping(t_uint256,t_uint256)": {
        "encoding": "mapping",
        "key": "t_uint256",
        "label": "mapping(uint256 => uint256)",
        "numberOfBytes": "32",
        "value": "t_uint256"
      },
      "t_struct(ReactionPriceDetails)8901_storage": {
        "encoding": "inplace",
        "label": "struct IReactionVault.ReactionPriceDetails",
        "members": [
          {
            "astId": 8896,
            "contract": "contracts/Reactions/ReactionVault.sol:ReactionVault",
            "label": "paymentToken",
            "offset": 0,
            "slot": "0",
            "type": "t_contract(IERC20Upgradeable)5035"
          },
          {
            "astId": 8898,
            "contract": "contracts/Reactions/ReactionVault.sol:ReactionVault",
            "label": "reactionPrice",
            "offset": 0,
            "slot": "1",
            "type": "t_uint256"
          },
          {
            "astId": 8900,
            "contract": "contracts/Reactions/ReactionVault.sol:ReactionVault",
            "label": "saleCuratorLiabilityBasisPoints",
            "offset": 0,
            "slot": "2",
            "type": "t_uint256"
          }
        ],
        "numberOfBytes": "96"
      },
      "t_uint256": {
        "encoding": "inplace",
        "label": "uint256",
        "numberOfBytes": "32"
      }
    }
  }
}