{
  "address": "0x902007053662085336218b3128b016A7A7C0788c",
  "abi": [
    {
      "anonymous": false,
      "inputs": [
        {
          "indexed": false,
          "internalType": "address",
          "name": "creator",
          "type": "address"
        },
        {
          "indexed": false,
          "internalType": "contract IWMATIC",
          "name": "paymentToken",
          "type": "address"
        },
        {
          "indexed": false,
          "internalType": "uint256",
          "name": "amount",
          "type": "uint256"
        },
        {
          "indexed": false,
          "internalType": "uint256",
          "name": "reactionId",
          "type": "uint256"
        }
      ],
      "name": "CreatorRewardsGranted",
      "type": "event"
    },
    {
      "anonymous": false,
      "inputs": [
        {
          "indexed": false,
          "internalType": "address",
          "name": "token",
          "type": "address"
        },
        {
          "indexed": false,
          "internalType": "uint256",
          "name": "amount",
          "type": "uint256"
        },
        {
          "indexed": false,
          "internalType": "address",
          "name": "recipient",
          "type": "address"
        }
      ],
      "name": "ERC20RewardsClaimed",
      "type": "event"
    },
    {
      "anonymous": false,
      "inputs": [
        {
          "indexed": false,
          "internalType": "address",
          "name": "maker",
          "type": "address"
        },
        {
          "indexed": false,
          "internalType": "contract IWMATIC",
          "name": "paymentToken",
          "type": "address"
        },
        {
          "indexed": false,
          "internalType": "uint256",
          "name": "amount",
          "type": "uint256"
        },
        {
          "indexed": false,
          "internalType": "uint256",
          "name": "reactionId",
          "type": "uint256"
        }
      ],
      "name": "MakerRewardsGranted",
      "type": "event"
    },
    {
      "anonymous": false,
      "inputs": [
        {
          "indexed": false,
          "internalType": "uint256",
          "name": "transformId",
          "type": "uint256"
        },
        {
          "indexed": false,
          "internalType": "uint256",
          "name": "quantity",
          "type": "uint256"
        },
        {
          "indexed": false,
          "internalType": "address",
          "name": "destinationWallet",
          "type": "address"
        },
        {
          "indexed": false,
          "internalType": "address",
          "name": "referrer",
          "type": "address"
        },
        {
          "indexed": false,
          "internalType": "uint256",
          "name": "reactionId",
          "type": "uint256"
        },
        {
          "indexed": false,
          "internalType": "uint256",
          "name": "parameterVersion",
          "type": "uint256"
        }
      ],
      "name": "ReactionsPurchased",
      "type": "event"
    },
    {
      "anonymous": false,
      "inputs": [
        {
          "indexed": false,
          "internalType": "uint256",
          "name": "takerNftChainId",
          "type": "uint256"
        },
        {
          "indexed": false,
          "internalType": "address",
          "name": "takerNftAddress",
          "type": "address"
        },
        {
          "indexed": false,
          "internalType": "uint256",
          "name": "takerNftId",
          "type": "uint256"
        },
        {
          "indexed": false,
          "internalType": "uint256",
          "name": "reactionId",
          "type": "uint256"
        },
        {
          "indexed": false,
          "internalType": "address",
          "name": "paymentToken",
          "type": "address"
        },
        {
          "indexed": false,
          "internalType": "uint256",
          "name": "quantity",
          "type": "uint256"
        },
        {
          "indexed": false,
          "internalType": "string",
          "name": "ipfsMetadataHash",
          "type": "string"
        },
        {
          "indexed": false,
          "internalType": "address",
          "name": "referrer",
          "type": "address"
        },
        {
          "indexed": false,
          "internalType": "address",
          "name": "curatorVaultAddress",
          "type": "address"
        },
        {
          "indexed": false,
          "internalType": "uint256",
          "name": "curatorTokenId",
          "type": "uint256"
        },
        {
          "indexed": false,
          "internalType": "uint256",
          "name": "curatorTokenAmount",
          "type": "uint256"
        },
        {
          "indexed": false,
          "internalType": "uint256",
          "name": "takerTokenAmount",
          "type": "uint256"
        }
      ],
      "name": "ReactionsSpent",
      "type": "event"
    },
    {
      "anonymous": false,
      "inputs": [
        {
          "indexed": false,
          "internalType": "address",
          "name": "referrer",
          "type": "address"
        },
        {
          "indexed": false,
          "internalType": "contract IWMATIC",
          "name": "paymentToken",
          "type": "address"
        },
        {
          "indexed": false,
          "internalType": "uint256",
          "name": "amount",
          "type": "uint256"
        },
        {
          "indexed": false,
          "internalType": "uint256",
          "name": "reactionId",
          "type": "uint256"
        }
      ],
      "name": "ReferrerRewardsGranted",
      "type": "event"
    },
    {
      "anonymous": false,
      "inputs": [
        {
          "indexed": true,
          "internalType": "uint256",
          "name": "curatorTokenId",
          "type": "uint256"
        },
        {
          "indexed": false,
          "internalType": "uint256",
          "name": "curatorTokensSold",
          "type": "uint256"
        },
        {
          "indexed": false,
          "internalType": "uint256",
          "name": "paymentTokenTaker",
          "type": "uint256"
        },
        {
          "indexed": false,
          "internalType": "uint256",
          "name": "paymentTokenCreator",
          "type": "uint256"
        }
      ],
      "name": "TakerWithdraw",
      "type": "event"
    },
    {
      "inputs": [],
      "name": "REACTION_META_PREFIX",
      "outputs": [
        {
          "internalType": "string",
          "name": "",
          "type": "string"
        }
      ],
      "stateMutability": "view",
      "type": "function"
    },
    {
      "inputs": [],
      "name": "addressManager",
      "outputs": [
        {
          "internalType": "contract IAddressManager",
          "name": "",
          "type": "address"
        }
      ],
      "stateMutability": "view",
      "type": "function"
    },
    {
      "inputs": [
        {
          "internalType": "uint256",
          "name": "transformId",
          "type": "uint256"
        },
        {
          "internalType": "uint256",
          "name": "quantity",
          "type": "uint256"
        },
        {
          "internalType": "address",
          "name": "destinationWallet",
          "type": "address"
        },
        {
          "internalType": "address",
          "name": "referrer",
          "type": "address"
        },
        {
          "internalType": "uint256",
          "name": "optionBits",
          "type": "uint256"
        }
      ],
      "name": "buyReaction",
      "outputs": [],
      "stateMutability": "payable",
      "type": "function"
    },
    {
      "inputs": [
        {
          "internalType": "contract IParameterManager",
          "name": "parameterManager",
          "type": "address"
        }
      ],
      "name": "deriveParameterVersion",
      "outputs": [
        {
          "internalType": "uint256",
          "name": "",
          "type": "uint256"
        }
      ],
      "stateMutability": "nonpayable",
      "type": "function"
    },
    {
      "inputs": [
        {
          "internalType": "uint256",
          "name": "transformId",
          "type": "uint256"
        },
        {
          "internalType": "uint256",
          "name": "optionBits",
          "type": "uint256"
        },
        {
          "internalType": "uint256",
          "name": "parameterVersion",
          "type": "uint256"
        }
      ],
      "name": "deriveReactionId",
      "outputs": [
        {
          "internalType": "uint256",
          "name": "",
          "type": "uint256"
        }
      ],
      "stateMutability": "pure",
      "type": "function"
    },
    {
      "inputs": [
        {
          "internalType": "contract IAddressManager",
          "name": "_addressManager",
          "type": "address"
        }
      ],
      "name": "initialize",
      "outputs": [],
      "stateMutability": "nonpayable",
      "type": "function"
    },
    {
      "inputs": [
        {
          "internalType": "uint256",
          "name": "",
          "type": "uint256"
        }
      ],
      "name": "nftOwnerRewards",
      "outputs": [
        {
          "internalType": "uint256",
          "name": "",
          "type": "uint256"
        }
      ],
      "stateMutability": "view",
      "type": "function"
    },
    {
      "inputs": [
        {
          "internalType": "address",
          "name": "",
          "type": "address"
        },
        {
          "internalType": "address",
          "name": "",
          "type": "address"
        },
        {
          "internalType": "uint256[]",
          "name": "",
          "type": "uint256[]"
        },
        {
          "internalType": "uint256[]",
          "name": "",
          "type": "uint256[]"
        },
        {
          "internalType": "bytes",
          "name": "",
          "type": "bytes"
        }
      ],
      "name": "onERC1155BatchReceived",
      "outputs": [
        {
          "internalType": "bytes4",
          "name": "",
          "type": "bytes4"
        }
      ],
      "stateMutability": "nonpayable",
      "type": "function"
    },
    {
      "inputs": [
        {
          "internalType": "address",
          "name": "",
          "type": "address"
        },
        {
          "internalType": "address",
          "name": "",
          "type": "address"
        },
        {
          "internalType": "uint256",
          "name": "",
          "type": "uint256"
        },
        {
          "internalType": "uint256",
          "name": "",
          "type": "uint256"
        },
        {
          "internalType": "bytes",
          "name": "",
          "type": "bytes"
        }
      ],
      "name": "onERC1155Received",
      "outputs": [
        {
          "internalType": "bytes4",
          "name": "",
          "type": "bytes4"
        }
      ],
      "stateMutability": "nonpayable",
      "type": "function"
    },
    {
      "inputs": [
        {
          "internalType": "contract IERC20Upgradeable",
          "name": "",
          "type": "address"
        },
        {
          "internalType": "address",
          "name": "",
          "type": "address"
        }
      ],
      "name": "ownerToRewardsMapping",
      "outputs": [
        {
          "internalType": "uint256",
          "name": "",
          "type": "uint256"
        }
      ],
      "stateMutability": "view",
      "type": "function"
    },
    {
      "inputs": [
        {
          "internalType": "uint256",
          "name": "transformId",
          "type": "uint256"
        },
        {
          "internalType": "uint256",
          "name": "quantity",
          "type": "uint256"
        },
        {
          "internalType": "address",
          "name": "referrer",
          "type": "address"
        },
        {
          "internalType": "uint256",
          "name": "optionBits",
          "type": "uint256"
        },
        {
          "internalType": "uint256",
          "name": "takerNftChainId",
          "type": "uint256"
        },
        {
          "internalType": "address",
          "name": "takerNftAddress",
          "type": "address"
        },
        {
          "internalType": "uint256",
          "name": "takerNftId",
          "type": "uint256"
        },
        {
          "internalType": "address",
          "name": "curatorVaultOverride",
          "type": "address"
        },
        {
          "internalType": "string",
          "name": "ipfsMetadataHash",
          "type": "string"
        }
      ],
      "name": "react",
      "outputs": [],
      "stateMutability": "payable",
      "type": "function"
    },
    {
      "inputs": [
        {
          "internalType": "uint256",
          "name": "",
          "type": "uint256"
        }
      ],
      "name": "reactionPriceDetailsMapping",
      "outputs": [
        {
          "internalType": "contract IWMATIC",
          "name": "paymentToken",
          "type": "address"
        },
        {
          "internalType": "uint256",
          "name": "reactionPrice",
          "type": "uint256"
        },
        {
          "internalType": "uint256",
          "name": "saleCuratorLiabilityBasisPoints",
          "type": "uint256"
        }
      ],
      "stateMutability": "view",
      "type": "function"
    },
    {
      "inputs": [
        {
          "internalType": "uint256",
          "name": "takerNftChainId",
          "type": "uint256"
        },
        {
          "internalType": "address",
          "name": "takerNftAddress",
          "type": "address"
        },
        {
          "internalType": "uint256",
          "name": "takerNftId",
          "type": "uint256"
        },
        {
          "internalType": "uint256",
          "name": "reactionId",
          "type": "uint256"
        },
        {
          "internalType": "uint256",
          "name": "reactionQuantity",
          "type": "uint256"
        },
        {
          "internalType": "address",
          "name": "referrer",
          "type": "address"
        },
        {
          "internalType": "address",
          "name": "curatorVaultOverride",
          "type": "address"
        },
        {
          "internalType": "string",
          "name": "ipfsMetadataHash",
          "type": "string"
        }
      ],
      "name": "spendReaction",
      "outputs": [],
      "stateMutability": "nonpayable",
      "type": "function"
    },
    {
      "inputs": [
        {
          "internalType": "bytes4",
          "name": "interfaceId",
          "type": "bytes4"
        }
      ],
      "name": "supportsInterface",
      "outputs": [
        {
          "internalType": "bool",
          "name": "",
          "type": "bool"
        }
      ],
      "stateMutability": "view",
      "type": "function"
    },
    {
      "inputs": [],
      "name": "sweep",
      "outputs": [],
      "stateMutability": "nonpayable",
      "type": "function"
    },
    {
      "inputs": [
        {
          "internalType": "contract IWMATIC",
          "name": "token",
          "type": "address"
        }
      ],
      "name": "withdrawErc20Rewards",
      "outputs": [
        {
          "internalType": "uint256",
          "name": "",
          "type": "uint256"
        }
      ],
      "stateMutability": "nonpayable",
      "type": "function"
    },
    {
      "inputs": [
        {
          "internalType": "uint256",
          "name": "takerNftChainId",
          "type": "uint256"
        },
        {
          "internalType": "address",
          "name": "takerNftAddress",
          "type": "address"
        },
        {
          "internalType": "uint256",
          "name": "takerNftId",
          "type": "uint256"
        },
        {
          "internalType": "contract IWMATIC",
          "name": "paymentToken",
          "type": "address"
        },
        {
          "internalType": "address",
          "name": "curatorVault",
          "type": "address"
        },
        {
          "internalType": "uint256",
          "name": "curatorTokenId",
          "type": "uint256"
        },
        {
          "internalType": "uint256",
          "name": "tokensToBurn",
          "type": "uint256"
        },
        {
          "internalType": "address",
          "name": "refundToAddress",
          "type": "address"
        }
      ],
      "name": "withdrawTakerRewards",
      "outputs": [
        {
          "internalType": "uint256",
          "name": "",
          "type": "uint256"
        }
      ],
      "stateMutability": "nonpayable",
      "type": "function"
    },
    {
      "stateMutability": "payable",
      "type": "receive"
    }
  ],
  "transactionHash": "0xc46f5134d82bca295ecad42f20afef9825d14cf8c2e07a0a279ead0e85458b25",
  "args": [],
  "numDeployments": 2,
  "solcInputHash": "c5133092ee888b5b6431f6825032026e",
  "bytecode": "0x608060405234801561001057600080fd5b506144c4806100206000396000f3fe6080604052600436106100e15760003560e01c8063755443ce11610085578063755443ce14610240578063809e13491461026057806388415f8e14610298578063928102a2146102b8578063bc197c81146102d8578063c4d66de81461031d578063e46f7e9c1461033d578063f23a6e611461037e578063f9f280d3146103aa57600080fd5b8062722e10146100ed57806301ffc9a71461014b5780630c4900e41461017b57806335faa416146101905780633ab76e9f146101a557806340cb9257146101d257806343f68bcb146101e5578063520853281461021357600080fd5b366100e857005b600080fd5b3480156100f957600080fd5b506101336101083660046138de565b60cb602052600090815260409020805460018201546002909201546001600160a01b03909116919083565b604051610142939291906138f7565b60405180910390f35b34801561015757600080fd5b5061016b610166366004613918565b6103ca565b6040519015158152602001610142565b61018e610189366004613957565b610401565b005b34801561019c57600080fd5b5061018e61044a565b3480156101b157600080fd5b5060c9546101c5906001600160a01b031681565b60405161014291906139a9565b61018e6101e0366004613a9a565b6105b3565b3480156101f157600080fd5b50610205610200366004613b3f565b6106bb565b604051908152602001610142565b34801561021f57600080fd5b5061020561022e3660046138de565b60cc6020526000908152604090205481565b34801561024c57600080fd5b5061018e61025b366004613b6b565b610717565b34801561026c57600080fd5b5061020561027b366004613c06565b60ca60209081526000928352604080842090915290825290205481565b3480156102a457600080fd5b506102056102b3366004613c3f565b61075d565b3480156102c457600080fd5b506102056102d3366004613c3f565b6108e8565b3480156102e457600080fd5b506103046102f3366004613cea565b63bc197c8160e01b95945050505050565b6040516001600160e01b03199091168152602001610142565b34801561032957600080fd5b5061018e610338366004613c3f565b610b67565b34801561034957600080fd5b50610371604051806040016040528060088152602001672922a0a1aa24a7a760c11b81525081565b6040516101429190613def565b34801561038a57600080fd5b50610304610399366004613e02565b63f23a6e6160e01b95945050505050565b3480156103b657600080fd5b506102056103c5366004613e6a565b610c72565b60006001600160e01b03198216630271189760e51b14806103fb57506301ffc9a760e01b6001600160e01b03198316145b92915050565b6002600154141561042d5760405162461bcd60e51b815260040161042490613eef565b60405180910390fd5b600260015561043f8585858585611603565b505060018055505050565b60c960009054906101000a90046001600160a01b03166001600160a01b031662435da56040518163ffffffff1660e01b8152600401602060405180830381600087803b15801561049957600080fd5b505af11580156104ad573d6000803e3d6000fd5b505050506040513d601f19601f820116820180604052508101906104d19190613f26565b6001600160a01b03166324d7806c336040518263ffffffff1660e01b81526004016104fc91906139a9565b60206040518083038186803b15801561051457600080fd5b505afa158015610528573d6000803e3d6000fd5b505050506040513d601f19601f8201168201806040525081019061054c9190613f58565b6105845760405162461bcd60e51b81526020600482015260096024820152682737ba1020b236b4b760b91b6044820152606401610424565b60405133904780156108fc02916000818181858888f193505050501580156105b0573d6000803e3d6000fd5b50565b600260015414156105d65760405162461bcd60e51b815260040161042490613eef565b600260015560c9546040805163b27bcea160e01b81529051600092610660926001600160a01b039091169163b27bcea19160048082019260209290919082900301818887803b15801561062857600080fd5b505af115801561063c573d6000803e3d6000fd5b505050506040513d601f19601f820116820180604052508101906102b39190613f26565b9050600061066f8b89846106bb565b90503461068c576106858b888888858f896121e5565b50506106ac565b6106998b8b338c8c611603565b6106a9878787848e8e8a8a61297f565b50505b50506001805550505050505050565b6000604051806040016040528060088152602001672922a0a1aa24a7a760c11b8152508285856040516020016106f49493929190613f73565b6040516020818303038152906040528051906020012060001c90505b9392505050565b6002600154141561073a5760405162461bcd60e51b815260040161042490613eef565b600260015561074f888888888888888861297f565b505060018055505050505050565b6000816001600160a01b0316633013ce296040518163ffffffff1660e01b8152600401602060405180830381600087803b15801561079a57600080fd5b505af11580156107ae573d6000803e3d6000fd5b505050506040513d601f19601f820116820180604052508101906107d29190613f26565b826001600160a01b0316635ddb0cf26040518163ffffffff1660e01b8152600401602060405180830381600087803b15801561080d57600080fd5b505af1158015610821573d6000803e3d6000fd5b505050506040513d601f19601f820116820180604052508101906108459190613fa2565b836001600160a01b031663f93c0d796040518163ffffffff1660e01b8152600401602060405180830381600087803b15801561088057600080fd5b505af1158015610894573d6000803e3d6000fd5b505050506040513d601f19601f820116820180604052508101906108b89190613fa2565b6040516020016108ca939291906138f7565b60408051601f19818403018152919052805160209091012092915050565b60006002600154141561090d5760405162461bcd60e51b815260040161042490613eef565b60026001556001600160a01b038216600090815260ca60209081526040808320338452909152902054806109535760405162461bcd60e51b815260040161042490613fbb565b6001600160a01b03808416600090815260ca60209081526040808320338452825280832083905560c954815163b27bcea160e01b8152915194169363b27bcea193600480840194938390030190829087803b1580156109b157600080fd5b505af11580156109c5573d6000803e3d6000fd5b505050506040513d601f19601f820116820180604052508101906109e99190613f26565b6001600160a01b031663e4301ec56040518163ffffffff1660e01b8152600401602060405180830381600087803b158015610a2357600080fd5b505af1158015610a37573d6000803e3d6000fd5b505050506040513d601f19601f82011682018060405250810190610a5b9190613f26565b6001600160a01b0316836001600160a01b03161415610b0157604051632e1a7d4d60e01b8152600481018290526001600160a01b03841690632e1a7d4d90602401600060405180830381600087803b158015610ab657600080fd5b505af1158015610aca573d6000803e3d6000fd5b505060405133925083156108fc02915083906000818181858888f19350505050158015610afb573d6000803e3d6000fd5b50610b15565b610b156001600160a01b0384163383613419565b604080516001600160a01b038516815260208101839052338183015290517f712edeb933a34d503bfa8233af370724a7a1b075f66b706f95f1ab64049532dc9181900360600190a16001805592915050565b600054610100900460ff16610b825760005460ff1615610b86565b303b155b610be95760405162461bcd60e51b815260206004820152602e60248201527f496e697469616c697a61626c653a20636f6e747261637420697320616c72656160448201526d191e481a5b9a5d1a585b1a5e995960921b6064820152608401610424565b600054610100900460ff16158015610c0b576000805461ffff19166101011790555b6001600160a01b038216610c315760405162461bcd60e51b815260040161042490613fbb565b610c39613481565b610c416134b2565b60c980546001600160a01b0319166001600160a01b0384161790558015610c6e576000805461ff00191690555b5050565b600060026001541415610c975760405162461bcd60e51b815260040161042490613eef565b6002600181905550610cd86040518060c001604052806000815260200160008152602001600081526020016000815260200160008152602001600081525090565b8989898888604051602001610cf1959493929190613fe4565b60408051601f198184030181529181528151602092830120808452600090815260cc83522054908201819052610d565760405162461bcd60e51b815260206004820152600a6024820152694e6f207265776172647360b01b6044820152606401610424565b8381602001511015610daa5760405162461bcd60e51b815260206004820152601e60248201527f526577617264732062616c616e6365203c20746f6b656e73546f4275726e00006044820152606401610424565b60c960009054906101000a90046001600160a01b03166001600160a01b031663363f8a656040518163ffffffff1660e01b8152600401602060405180830381600087803b158015610dfa57600080fd5b505af1158015610e0e573d6000803e3d6000fd5b505050506040513d601f19601f82011682018060405250810190610e329190613f26565b60405163c93b76c960e01b8152600481018c90526001600160a01b038b81166024830152604482018b9052919091169063c93b76c990606401602060405180830381600087803b158015610e8557600080fd5b505af1158015610e99573d6000803e3d6000fd5b505050506040513d601f19601f82011682018060405250810190610ebd9190613fa2565b60408083019190915260c954815163363f8a6560e01b815291516000926001600160a01b039092169163363f8a6591600480830192602092919082900301818787803b158015610f0c57600080fd5b505af1158015610f20573d6000803e3d6000fd5b505050506040513d601f19601f82011682018060405250810190610f449190613f26565b6001600160a01b031663c46bd37983604001516040518263ffffffff1660e01b8152600401610f7591815260200190565b600060405180830381600087803b158015610f8f57600080fd5b505af1158015610fa3573d6000803e3d6000fd5b505050506040513d6000823e601f3d908101601f19168201604052610fcb919081019061406d565b8051909150610fec5760405162461bcd60e51b81526004016104249061417d565b60208101516001600160a01b031633146110385760405162461bcd60e51b815260206004820152600d60248201526c139195081b9bdd081bdddb9959609a1b6044820152606401610424565b604051630f95458360e11b8152600481018c90526001600160a01b038b81166024830152604482018b90528981166064830152608482018790523060a4830152881690631f2a8b069060c401602060405180830381600087803b15801561109e57600080fd5b505af11580156110b2573d6000803e3d6000fd5b505050506040513d601f19601f820116820180604052508101906110d69190613fa2565b60608301528151600090815260cc6020526040812080548792906110fb9084906141bf565b90915550506060820151608083015260005b8160400151518161ffff1610156114355760006001600160a01b031682604001518261ffff1681518110611143576111436141d6565b60200260200101516001600160a01b0316141580156111835750600082606001518261ffff1681518110611179576111796141d6565b6020026020010151115b156114235761271082606001518261ffff16815181106111a5576111a56141d6565b602002602001015184608001516111bc91906141ec565b6111c6919061420b565b60a084018190526001600160a01b038a16600090815260ca602052604080822090850151805191929161ffff8616908110611203576112036141d6565b60200260200101516001600160a01b03166001600160a01b03168152602001908152602001600020600082825461123a919061422d565b925050819055507fd20a9dd733d530d6ff5f314da5a1f73608e0c9328eb459d5971312a7ce6cc21982604001518261ffff168151811061127c5761127c6141d6565b60200260200101518a8560a00151866040015160405161129f9493929190614245565b60405180910390a18260a00151836060018181516112bd91906141bf565b90525060c9546040805163b27bcea160e01b815290516001600160a01b039092169163b27bcea1916004808201926020929091908290030181600087803b15801561130757600080fd5b505af115801561131b573d6000803e3d6000fd5b505050506040513d601f19601f8201168201806040525081019061133f9190613f26565b6001600160a01b031663e4301ec56040518163ffffffff1660e01b8152600401602060405180830381600087803b15801561137957600080fd5b505af115801561138d573d6000803e3d6000fd5b505050506040513d601f19601f820116820180604052508101906113b19190613f26565b6001600160a01b0316896001600160a01b0316141561142357886001600160a01b031663d0e30db08460a001516040518263ffffffff1660e01b81526004016000604051808303818588803b15801561140957600080fd5b505af115801561141d573d6000803e3d6000fd5b50505050505b8061142d8161426e565b91505061110d565b5060c960009054906101000a90046001600160a01b03166001600160a01b031663b27bcea16040518163ffffffff1660e01b8152600401602060405180830381600087803b15801561148657600080fd5b505af115801561149a573d6000803e3d6000fd5b505050506040513d601f19601f820116820180604052508101906114be9190613f26565b6001600160a01b031663e4301ec56040518163ffffffff1660e01b8152600401602060405180830381600087803b1580156114f857600080fd5b505af115801561150c573d6000803e3d6000fd5b505050506040513d601f19601f820116820180604052508101906115309190613f26565b6001600160a01b0316886001600160a01b031614156115885760608201516040516001600160a01b0386169180156108fc02916000818181858888f19350505050158015611582573d6000803e3d6000fd5b506115a3565b60608201516115a3906001600160a01b038a16908690613419565b60608083015160a084015160408051898152602081019390935282015287917f4c40c89db5040d698d0dbf90d038439e9b000825016629b1f353529085d6a7bf910160405180910390a25060600151600180559998505050505050505050565b600084116116235760405162461bcd60e51b815260040161042490613fbb565b61162b613797565b60c960009054906101000a90046001600160a01b03166001600160a01b031663363f8a656040518163ffffffff1660e01b8152600401602060405180830381600087803b15801561167b57600080fd5b505af115801561168f573d6000803e3d6000fd5b505050506040513d601f19601f820116820180604052508101906116b39190613f26565b6001600160a01b03168082526040516394b9956960e01b8152600481018890526394b9956990602401602060405180830381600087803b1580156116f657600080fd5b505af115801561170a573d6000803e3d6000fd5b505050506040513d601f19601f8201168201806040525081019061172e9190613fa2565b604082018190526117515760405162461bcd60e51b815260040161042490614290565b8051604080830151905163c46bd37960e01b81526001600160a01b039092169163c46bd379916117879160040190815260200190565b600060405180830381600087803b1580156117a157600080fd5b505af11580156117b5573d6000803e3d6000fd5b505050506040513d6000823e601f3d908101601f191682016040526117dd919081019061406d565b60608201819052516118015760405162461bcd60e51b81526004016104249061417d565b60c960009054906101000a90046001600160a01b03166001600160a01b031663b27bcea16040518163ffffffff1660e01b8152600401602060405180830381600087803b15801561185157600080fd5b505af1158015611865573d6000803e3d6000fd5b505050506040513d601f19601f820116820180604052508101906118899190613f26565b6001600160a01b0316602080830182905260408051633013ce2960e01b8152905160009392633013ce29926004808201939182900301818787803b1580156118d057600080fd5b505af11580156118e4573d6000803e3d6000fd5b505050506040513d601f19601f820116820180604052508101906119089190613f26565b905081602001516001600160a01b0316635ddb0cf26040518163ffffffff1660e01b8152600401602060405180830381600087803b15801561194957600080fd5b505af115801561195d573d6000803e3d6000fd5b505050506040513d601f19601f820116820180604052508101906119819190613fa2565b608083018190526119939087906141ec565b60a083015260208201516119a69061075d565b61018083018190526119bb90889085906106bb565b610160830152600060e08301526001600160a01b03841615611af5576127108260a0015183602001516001600160a01b031663f467320e6040518163ffffffff1660e01b8152600401602060405180830381600087803b158015611a1e57600080fd5b505af1158015611a32573d6000803e3d6000fd5b505050506040513d601f19601f82011682018060405250810190611a569190613fa2565b611a6091906141ec565b611a6a919061420b565b60e083018190526001600160a01b03808316600090815260ca6020908152604080832093891683529290529081208054909190611aa890849061422d565b909155505060e08201516101608301516040517fcae8f06f6239452c3a95ac7735981695a2862cac824988341cae89250e21f7ce92611aec92889286929190614245565b60405180910390a15b600082602001516001600160a01b031663f93c0d796040518163ffffffff1660e01b8152600401602060405180830381600087803b158015611b3657600080fd5b505af1158015611b4a573d6000803e3d6000fd5b505050506040513d601f19601f82011682018060405250810190611b6e9190613fa2565b90506127108360a0015182611b8391906141ec565b611b8d919061420b565b610140840181905260e084015160a0850151611ba991906141bf565b611bb391906141bf565b6101008401819052600060c085018190526101208501919091525b836060015160400151518161ffff161015611db05760006001600160a01b03168460600151604001518261ffff1681518110611c0c57611c0c6141d6565b60200260200101516001600160a01b031614158015611c50575060008460600151606001518261ffff1681518110611c4657611c466141d6565b6020026020010151115b15611d9e576127108461012001518560600151606001518361ffff1681518110611c7c57611c7c6141d6565b6020026020010151611c8e91906141ec565b611c98919061420b565b60c085018190526001600160a01b038416600090815260ca6020526040808220606088015190910151805191929161ffff8616908110611cda57611cda6141d6565b60200260200101516001600160a01b03166001600160a01b031681526020019081526020016000206000828254611d11919061422d565b925050819055507fd20a9dd733d530d6ff5f314da5a1f73608e0c9328eb459d5971312a7ce6cc2198460600151604001518261ffff1681518110611d5757611d576141d6565b6020026020010151848660c00151876101600151604051611d7b9493929190614245565b60405180910390a18360c001518461010001818151611d9a91906141bf565b9052505b80611da88161426e565b915050611bce565b506101008301516001600160a01b03808416600090815260ca60209081526040808320606089015183015190941683529290529081208054909190611df690849061422d565b90915550506060830151602001516101008401516101608501516040517fbc6998d896bf22ea1228e704a40269ce0bb6a59c6eb57cafaa7d86c08d9bc92393611e429390928792614245565b60405180910390a1604080516060810182526001600160a01b03848116825260808601516020808401918252838501868152610160890151600090815260cb8352868120955186546001600160a01b031916908616178655925160018601555160029094019390935560c954845163b27bcea160e01b8152945192169363b27bcea193600480830194919391928390030190829087803b158015611ee557600080fd5b505af1158015611ef9573d6000803e3d6000fd5b505050506040513d601f19601f82011682018060405250810190611f1d9190613f26565b6001600160a01b031663e4301ec56040518163ffffffff1660e01b8152600401602060405180830381600087803b158015611f5757600080fd5b505af1158015611f6b573d6000803e3d6000fd5b505050506040513d601f19601f82011682018060405250810190611f8f9190613f26565b6001600160a01b0316826001600160a01b03161415612046578260a001513414611fed5760405162461bcd60e51b815260206004820152600f60248201526e125b9d985b1a59081c185e5b595b9d608a1b6044820152606401610424565b816001600160a01b031663d0e30db0346040518263ffffffff1660e01b81526004016000604051808303818588803b15801561202857600080fd5b505af115801561203c573d6000803e3d6000fd5b5050505050612063565b60a0830151612063906001600160a01b03841690339030906134d9565b60c954604080516376104ad560e01b815290516000926001600160a01b0316916376104ad591600480830192602092919082900301818787803b1580156120a957600080fd5b505af11580156120bd573d6000803e3d6000fd5b505050506040513d601f19601f820116820180604052508101906120e19190613f26565b9050806001600160a01b031663731133e9888661016001518b60006001600160401b03811115612113576121136139bd565b6040519080825280601f01601f19166020018201604052801561213d576020820181803683370190505b506040518563ffffffff1660e01b815260040161215d94939291906142b5565b600060405180830381600087803b15801561217757600080fd5b505af115801561218b573d6000803e3d6000fd5b505050507f0bdc7ecab592c309e746a1dfcb1a7749f6c964110b1e87b70f33da3db038e391898989898861016001518961018001516040516121d2969594939291906142ec565b60405180910390a1505050505050505050565b60c960009054906101000a90046001600160a01b03166001600160a01b031663b27bcea16040518163ffffffff1660e01b8152600401602060405180830381600087803b15801561223557600080fd5b505af1158015612249573d6000803e3d6000fd5b505050506040513d601f19601f8201168201806040525081019061226d9190613f26565b6001600160a01b0316630ba9ced06040518163ffffffff1660e01b8152600401602060405180830381600087803b1580156122a757600080fd5b505af11580156122bb573d6000803e3d6000fd5b505050506040513d601f19601f820116820180604052508101906122df9190613fa2565b82111561232e5760405162461bcd60e51b815260206004820152601d60248201527f5265616374696f6e207175616e746974792061626f7665206c696d69740000006044820152606401610424565b60c9546040805163363f8a6560e01b815290516000926001600160a01b03169163363f8a6591600480830192602092919082900301818787803b15801561237457600080fd5b505af1158015612388573d6000803e3d6000fd5b505050506040513d601f19601f820116820180604052508101906123ac9190613f26565b6040516394b9956960e01b8152600481018a90529091506000906001600160a01b038316906394b9956990602401602060405180830381600087803b1580156123f457600080fd5b505af1158015612408573d6000803e3d6000fd5b505050506040513d601f19601f8201168201806040525081019061242c9190613fa2565b90508061244b5760405162461bcd60e51b815260040161042490614290565b60405163c46bd37960e01b8152600481018290526000906001600160a01b0384169063c46bd37990602401600060405180830381600087803b15801561249057600080fd5b505af11580156124a4573d6000803e3d6000fd5b505050506040513d6000823e601f3d908101601f191682016040526124cc919081019061406d565b80519091506124ed5760405162461bcd60e51b81526004016104249061417d565b60c95460408051639971f8b560e01b815290516000926001600160a01b031691639971f8b591600480830192602092919082900301818787803b15801561253357600080fd5b505af1158015612547573d6000803e3d6000fd5b505050506040513d601f19601f8201168201806040525081019061256b9190613f26565b90506001600160a01b038116156125e15760405163131a410d60e21b81526001600160a01b03821690634c690434906125ae9033908e908e908e9060040161431e565b600060405180830381600087803b1580156125c857600080fd5b505af11580156125dc573d6000803e3d6000fd5b505050505b60008a8a8a60c960009054906101000a90046001600160a01b03166001600160a01b031663b27bcea16040518163ffffffff1660e01b8152600401602060405180830381600087803b15801561263657600080fd5b505af115801561264a573d6000803e3d6000fd5b505050506040513d601f19601f8201168201806040525081019061266e9190613f26565b6001600160a01b0316633013ce296040518163ffffffff1660e01b8152600401602060405180830381600087803b1580156126a857600080fd5b505af11580156126bc573d6000803e3d6000fd5b505050506040513d601f19601f820116820180604052508101906126e09190613f26565b6040516020016126f39493929190614348565b6040516020818303038152906040528051906020012060001c90507f0bdc7ecab592c309e746a1dfcb1a7749f6c964110b1e87b70f33da3db038e3918c883360008c61278860c960009054906101000a90046001600160a01b03166001600160a01b031663b27bcea16040518163ffffffff1660e01b8152600401602060405180830381600087803b15801561062857600080fd5b60405161279a969594939291906142ec565b60405180910390a17f57df605d24620af344b1b7b2f4a2e11706c95c73e45d9c0dd804564579db6dc28b8b8b8b60c960009054906101000a90046001600160a01b03166001600160a01b031663b27bcea16040518163ffffffff1660e01b8152600401602060405180830381600087803b15801561281757600080fd5b505af115801561282b573d6000803e3d6000fd5b505050506040513d601f19601f8201168201806040525081019061284f9190613f26565b6001600160a01b0316633013ce296040518163ffffffff1660e01b8152600401602060405180830381600087803b15801561288957600080fd5b505af115801561289d573d6000803e3d6000fd5b505050506040513d601f19601f820116820180604052508101906128c19190613f26565b8c8c600060c960009054906101000a90046001600160a01b03166001600160a01b0316636fdfe8c56040518163ffffffff1660e01b8152600401602060405180830381600087803b15801561291557600080fd5b505af1158015612929573d6000803e3d6000fd5b505050506040513d601f19601f8201168201806040525081019061294d9190613f26565b8a6000806040516129699c9b9a9998979695949392919061436f565b60405180910390a1505050505050505050505050565b6000841161299f5760405162461bcd60e51b815260040161042490613fbb565b6129a7613845565b60c960009054906101000a90046001600160a01b03166001600160a01b03166376104ad56040518163ffffffff1660e01b8152600401602060405180830381600087803b1580156129f757600080fd5b505af1158015612a0b573d6000803e3d6000fd5b505050506040513d601f19601f82011682018060405250810190612a2f9190613f26565b6001600160a01b0316808252604051637a94c56560e11b815263f5298aca90612a609033908a908a906004016138f7565b600060405180830381600087803b158015612a7a57600080fd5b505af1158015612a8e573d6000803e3d6000fd5b505050600087815260cb6020908152604091829020825160608101845281546001600160a01b031681526001820154818401908152600290920154938101938452918501919091529051905161271092508791612aea916141ec565b612af491906141ec565b612afe919061420b565b60408201526001600160a01b03841615612cce57612710816040015160c960009054906101000a90046001600160a01b03166001600160a01b031663b27bcea16040518163ffffffff1660e01b8152600401602060405180830381600087803b158015612b6a57600080fd5b505af1158015612b7e573d6000803e3d6000fd5b505050506040513d601f19601f82011682018060405250810190612ba29190613f26565b6001600160a01b031663cc22c3e26040518163ffffffff1660e01b8152600401602060405180830381600087803b158015612bdc57600080fd5b505af1158015612bf0573d6000803e3d6000fd5b505050506040513d601f19601f82011682018060405250810190612c149190613fa2565b612c1e91906141ec565b612c28919061420b565b60608201819052602080830151516001600160a01b03908116600090815260ca8352604080822092891682529190925281208054909190612c6a90849061422d565b909155505060208101515160608201516040517fcae8f06f6239452c3a95ac7735981695a2862cac824988341cae89250e21f7ce92612cac9288928b90614245565b60405180910390a1806060015181604001818151612cca91906141bf565b9052505b60c9546040805163b27bcea160e01b81529051612710926001600160a01b03169163b27bcea19160048083019260209291908290030181600087803b158015612d1657600080fd5b505af1158015612d2a573d6000803e3d6000fd5b505050506040513d601f19601f82011682018060405250810190612d4e9190613f26565b6001600160a01b031662ac1c5a6040518163ffffffff1660e01b8152600401602060405180830381600087803b158015612d8757600080fd5b505af1158015612d9b573d6000803e3d6000fd5b505050506040513d601f19601f82011682018060405250810190612dbf9190613fa2565b8260400151612dce91906141ec565b612dd8919061420b565b608082018190526040820151612dee91906141bf565b60a082015260c95460408051636fdfe8c560e01b815290516001600160a01b0390921691636fdfe8c5916004808201926020929091908290030181600087803b158015612e3a57600080fd5b505af1158015612e4e573d6000803e3d6000fd5b505050506040513d601f19601f82011682018060405250810190612e729190613f26565b6001600160a01b0390811660c0830152831615612fdd5760c960009054906101000a90046001600160a01b03166001600160a01b031663b27bcea16040518163ffffffff1660e01b8152600401602060405180830381600087803b158015612ed957600080fd5b505af1158015612eed573d6000803e3d6000fd5b505050506040513d601f19601f82011682018060405250810190612f119190613f26565b6001600160a01b03166373cf2a67846040518263ffffffff1660e01b8152600401612f3c91906139a9565b602060405180830381600087803b158015612f5657600080fd5b505af1158015612f6a573d6000803e3d6000fd5b505050506040513d601f19601f82011682018060405250810190612f8e9190613f58565b612fcd5760405162461bcd60e51b815260206004820152601060248201526f115c9c8810dd5c985d1bdc95985d5b1d60821b6044820152606401610424565b6001600160a01b03831660c08201525b60c08101516020820151516040516305f8605b60e21b81526000926001600160a01b0316916317e1816c9161301a918e918e918e91600401614348565b602060405180830381600087803b15801561303457600080fd5b505af1158015613048573d6000803e3d6000fd5b505050506040513d601f19601f8201168201806040525081019061306c9190613fa2565b60208301515160c0840151604080860151905163095ea7b360e01b81526001600160a01b0392831660048201526024810191909152929350169063095ea7b390604401602060405180830381600087803b1580156130c957600080fd5b505af11580156130dd573d6000803e3d6000fd5b505050506040513d601f19601f820116820180604052508101906131019190613f58565b5060c082015160208301515160808401516040516367e9dbcb60e01b81526001600160a01b03909316926367e9dbcb9261314a928f928f928f92909130906001906004016143ea565b602060405180830381600087803b15801561316457600080fd5b505af1158015613178573d6000803e3d6000fd5b505050506040513d601f19601f8201168201806040525081019061319c9190613fa2565b60e083015260c08201516040516000916131c1918d918d918d91908790602001613fe4565b6040516020818303038152906040528051906020012060001c90508260e0015160cc60008381526020019081526020016000206000828254613203919061422d565b925050819055508260c001516001600160a01b03166367e9dbcb8c8c8c8760200151600001518860a001513360006040518863ffffffff1660e01b815260040161325397969594939291906143ea565b602060405180830381600087803b15801561326d57600080fd5b505af1158015613281573d6000803e3d6000fd5b505050506040513d601f19601f820116820180604052508101906132a59190613fa2565b61010084015260c95460408051639971f8b560e01b815290516001600160a01b0390921691639971f8b5916004808201926020929091908290030181600087803b1580156132f257600080fd5b505af1158015613306573d6000803e3d6000fd5b505050506040513d601f19601f8201168201806040525081019061332a9190613f26565b6001600160a01b03166101208401819052156133aa578261012001516001600160a01b0316634c690434338d8d8d6040518563ffffffff1660e01b8152600401613377949392919061431e565b600060405180830381600087803b15801561339157600080fd5b505af11580156133a5573d6000803e3d6000fd5b505050505b7f57df605d24620af344b1b7b2f4a2e11706c95c73e45d9c0dd804564579db6dc28b8b8b8b8760200151600001518c8a8d8b60c001518b8d61010001518e60e001516040516134049c9b9a9998979695949392919061436f565b60405180910390a15050505050505050505050565b6040516001600160a01b03831660248201526044810182905261347c90849063a9059cbb60e01b906064015b60408051601f198184030181529190526020810180516001600160e01b03166001600160e01b031990931692909217909152613517565b505050565b600054610100900460ff166134a85760405162461bcd60e51b815260040161042490614427565b6134b06135e9565b565b600054610100900460ff166134b05760405162461bcd60e51b815260040161042490614427565b6040516001600160a01b03808516602483015283166044820152606481018290526135119085906323b872dd60e01b90608401613445565b50505050565b600061356c826040518060400160405280602081526020017f5361666545524332303a206c6f772d6c6576656c2063616c6c206661696c6564815250856001600160a01b03166136169092919063ffffffff16565b80519091501561347c578080602001905181019061358a9190613f58565b61347c5760405162461bcd60e51b815260206004820152602a60248201527f5361666545524332303a204552433230206f7065726174696f6e20646964206e6044820152691bdd081cdd58d8d9595960b21b6064820152608401610424565b600054610100900460ff166136105760405162461bcd60e51b815260040161042490614427565b60018055565b6060613625848460008561362d565b949350505050565b60608247101561368e5760405162461bcd60e51b815260206004820152602660248201527f416464726573733a20696e73756666696369656e742062616c616e636520666f6044820152651c8818d85b1b60d21b6064820152608401610424565b6001600160a01b0385163b6136e55760405162461bcd60e51b815260206004820152601d60248201527f416464726573733a2063616c6c20746f206e6f6e2d636f6e74726163740000006044820152606401610424565b600080866001600160a01b031685876040516137019190614472565b60006040518083038185875af1925050503d806000811461373e576040519150601f19603f3d011682016040523d82523d6000602084013e613743565b606091505b509150915061375382828661375e565b979650505050505050565b6060831561376d575081610710565b82511561377d5782518084602001fd5b8160405162461bcd60e51b81526004016104249190613def565b604051806101a0016040528060006001600160a01b0316815260200160006001600160a01b0316815260200160008152602001613800604051806080016040528060001515815260200160006001600160a01b0316815260200160608152602001606081525090565b81526020016000815260200160008152602001600081526020016000815260200160008152602001600081526020016000815260200160008152602001600081525090565b60405180610140016040528060006001600160a01b0316815260200161388e604051806060016040528060006001600160a01b0316815260200160008152602001600081525090565b81526020016000815260200160008152602001600081526020016000815260200160006001600160a01b03168152602001600081526020016000815260200160006001600160a01b031681525090565b6000602082840312156138f057600080fd5b5035919050565b6001600160a01b039390931683526020830191909152604082015260600190565b60006020828403121561392a57600080fd5b81356001600160e01b03198116811461071057600080fd5b6001600160a01b03811681146105b057600080fd5b600080600080600060a0868803121561396f57600080fd5b8535945060208601359350604086013561398881613942565b9250606086013561399881613942565b949793965091946080013592915050565b6001600160a01b0391909116815260200190565b634e487b7160e01b600052604160045260246000fd5b604051608081016001600160401b03811182821017156139f5576139f56139bd565b60405290565b604051601f8201601f191681016001600160401b0381118282101715613a2357613a236139bd565b604052919050565b600082601f830112613a3c57600080fd5b81356001600160401b03811115613a5557613a556139bd565b613a68601f8201601f19166020016139fb565b818152846020838601011115613a7d57600080fd5b816020850160208301376000918101602001919091529392505050565b60008060008060008060008060006101208a8c031215613ab957600080fd5b8935985060208a0135975060408a0135613ad281613942565b965060608a0135955060808a0135945060a08a0135613af081613942565b935060c08a0135925060e08a0135613b0781613942565b91506101008a01356001600160401b03811115613b2357600080fd5b613b2f8c828d01613a2b565b9150509295985092959850929598565b600080600060608486031215613b5457600080fd5b505081359360208301359350604090920135919050565b600080600080600080600080610100898b031215613b8857600080fd5b883597506020890135613b9a81613942565b965060408901359550606089013594506080890135935060a0890135613bbf81613942565b925060c0890135613bcf81613942565b915060e08901356001600160401b03811115613bea57600080fd5b613bf68b828c01613a2b565b9150509295985092959890939650565b60008060408385031215613c1957600080fd5b8235613c2481613942565b91506020830135613c3481613942565b809150509250929050565b600060208284031215613c5157600080fd5b813561071081613942565b60006001600160401b03821115613c7557613c756139bd565b5060051b60200190565b600082601f830112613c9057600080fd5b81356020613ca5613ca083613c5c565b6139fb565b82815260059290921b84018101918181019086841115613cc457600080fd5b8286015b84811015613cdf5780358352918301918301613cc8565b509695505050505050565b600080600080600060a08688031215613d0257600080fd5b8535613d0d81613942565b94506020860135613d1d81613942565b935060408601356001600160401b0380821115613d3957600080fd5b613d4589838a01613c7f565b94506060880135915080821115613d5b57600080fd5b613d6789838a01613c7f565b93506080880135915080821115613d7d57600080fd5b50613d8a88828901613a2b565b9150509295509295909350565b60005b83811015613db2578181015183820152602001613d9a565b838111156135115750506000910152565b60008151808452613ddb816020860160208601613d97565b601f01601f19169290920160200192915050565b6020815260006107106020830184613dc3565b600080600080600060a08688031215613e1a57600080fd5b8535613e2581613942565b94506020860135613e3581613942565b9350604086013592506060860135915060808601356001600160401b03811115613e5e57600080fd5b613d8a88828901613a2b565b600080600080600080600080610100898b031215613e8757600080fd5b883597506020890135613e9981613942565b9650604089013595506060890135613eb081613942565b94506080890135613ec081613942565b935060a0890135925060c0890135915060e0890135613ede81613942565b809150509295985092959890939650565b6020808252601f908201527f5265656e7472616e637947756172643a207265656e7472616e742063616c6c00604082015260600190565b600060208284031215613f3857600080fd5b815161071081613942565b80518015158114613f5357600080fd5b919050565b600060208284031215613f6a57600080fd5b61071082613f43565b608081526000613f866080830187613dc3565b6020830195909552506040810192909252606090910152919050565b600060208284031215613fb457600080fd5b5051919050565b6020808252600f908201526e125b9d985b1a59080c081a5b9c1d5d608a1b604082015260600190565b9485526001600160a01b03938416602086015260408501929092529091166060830152608082015260a00190565b600082601f83011261402357600080fd5b81516020614033613ca083613c5c565b82815260059290921b8401810191818101908684111561405257600080fd5b8286015b84811015613cdf5780518352918301918301614056565b6000602080838503121561408057600080fd5b82516001600160401b038082111561409757600080fd5b90840190608082870312156140ab57600080fd5b6140b36139d3565b6140bc83613f43565b8152838301516140cb81613942565b818501526040830151828111156140e157600080fd5b8301601f810188136140f257600080fd5b8051614100613ca082613c5c565b81815260059190911b8201860190868101908a83111561411f57600080fd5b928701925b8284101561414657835161413781613942565b82529287019290870190614124565b6040850152505050606083015193508184111561416257600080fd5b61416e87858501614012565b60608201529695505050505050565b602080825260129082015271139195081b9bdd081c9959da5cdd195c995960721b604082015260600190565b634e487b7160e01b600052601160045260246000fd5b6000828210156141d1576141d16141a9565b500390565b634e487b7160e01b600052603260045260246000fd5b6000816000190483118215151615614206576142066141a9565b500290565b60008261422857634e487b7160e01b600052601260045260246000fd5b500490565b60008219821115614240576142406141a9565b500190565b6001600160a01b0394851681529290931660208301526040820152606081019190915260800190565b600061ffff80831681811415614286576142866141a9565b6001019392505050565b6020808252600b908201526a155b9adb9bdddb8813919560aa1b604082015260600190565b60018060a01b03851681528360208201528260408201526080606082015260006142e26080830184613dc3565b9695505050505050565b95865260208601949094526001600160a01b03928316604086015291166060840152608083015260a082015260c00190565b6001600160a01b039485168152602081019390935292166040820152606081019190915260800190565b9384526001600160a01b039283166020850152604084019190915216606082015260800190565b60006101808e835260018060a01b03808f1660208501528d60408501528c6060850152808c1660808501528a60a08501528160c08501526143b28285018b613dc3565b98811660e085015296909616610100830152506101208101939093526101408301919091526101609091015250979650505050505050565b9687526001600160a01b03958616602088015260408701949094529184166060860152608085015290911660a0830152151560c082015260e00190565b6020808252602b908201527f496e697469616c697a61626c653a20636f6e7472616374206973206e6f74206960408201526a6e697469616c697a696e6760a81b606082015260800190565b60008251614484818460208701613d97565b919091019291505056fea26469706673582212207af50e672ad3b1fe987288bdc430ebbf49c5985023b395dac474854b5680c13f64736f6c63430008090033",
  "devdoc": {
    "details": "This contract buying and spending reactions",
    "events": {
      "CreatorRewardsGranted(address,address,uint256,uint256)": {
        "details": "Event emitted when rewards are granted to a creator"
      },
      "ERC20RewardsClaimed(address,uint256,address)": {
        "details": "Event emitted when an account withdraws ERC20 rewards"
      },
      "MakerRewardsGranted(address,address,uint256,uint256)": {
        "details": "Event emitted when rewards are granted to a maker"
      },
      "ReactionsPurchased(uint256,uint256,address,address,uint256,uint256)": {
        "details": "Event emitted when a reaction is purchased"
      },
      "ReactionsSpent(uint256,address,uint256,uint256,address,uint256,string,address,address,uint256,uint256,uint256)": {
        "details": "Event emitted when reaction is spent"
      },
      "ReferrerRewardsGranted(address,address,uint256,uint256)": {
        "details": "Event emitted when rewards are granted to a referrer"
      },
      "TakerWithdraw(uint256,uint256,uint256,uint256)": {
        "details": "Event emitted when taker claims curator tokens"
      }
    },
    "kind": "dev",
    "methods": {
      "buyReaction(uint256,uint256,address,address,uint256)": {
        "details": "External func to allow a user to buy reaction NFTs based on a registered Maker NFT",
        "params": {
          "destinationWallet": "reactions will be minted into this wallet (allows bulk buying from other contracts since reactions are non-transferrable)",
          "optionBits": "Optional param to specify options how the user wants transform reaction",
          "quantity": "Number of reactions to buy",
          "referrer": "Optional param to specify an address where referrer rewards are allocated",
          "transformId": "transform to be purchased"
        }
      },
      "deriveParameterVersion(address)": {
        "details": "Derive the pricing parameters version E.g. if the price of a reaction changes, the paramaterVersion should be different"
      },
      "deriveReactionId(uint256,uint256,uint256)": {
        "details": "Derive the reaction ID from the parameters This unique ID will be used to track instances of reactions built from the same params E.g. if the price of a reaction changes, the reaction ID should be different"
      },
      "initialize(address)": {
        "details": "initializer to call after deployment, can only be called once"
      },
      "react(uint256,uint256,address,uint256,uint256,address,uint256,address,string)": {
        "details": "Allows a user to react to content & receive a like token. If value is sent into this function then the user will purchase curation tokens."
      },
      "spendReaction(uint256,address,uint256,uint256,uint256,address,address,string)": {
        "details": "Allows a reaction NFT owner to spend (burn) their tokens at a specific target Taker NFT.",
        "params": {
          "curatorVaultOverride": "Optional address of non-default curator vault",
          "ipfsMetadataHash": "Optional hash of any metadata being associated with spend action",
          "reactionId": "Reaction to spend",
          "reactionQuantity": "How many reactions to spend",
          "referrer": "Optional address where referrer rewards are allocated",
          "takerNftAddress": "Target contract where the reaction is targeting",
          "takerNftChainId": "Chain ID where the NFT lives",
          "takerNftId": "Target NFT ID in the contract"
        }
      },
      "supportsInterface(bytes4)": {
        "details": "See {IERC165-supportsInterface}."
      },
      "sweep()": {
        "details": "Allows the admin account to sweep any MATIC that was accidentally sent"
      },
      "withdrawErc20Rewards(address)": {
        "details": "Allows an account that has been allocated rewards to withdraw (Maker, creator, referrer)",
        "params": {
          "token": "ERC20 token that rewards are valued in"
        }
      },
      "withdrawTakerRewards(uint256,address,uint256,address,address,uint256,uint256,address)": {
        "details": "Allows an NFT taker to withdraw rewards for reactions that were spent against an NFT that they own. The owner of the NFT must register the NFT into the system before they can claim the rewards."
      }
    },
    "title": "ReactionVault",
    "version": 1
  },
  "userdoc": {
    "kind": "user",
    "methods": {},
    "version": 1
  },
  "storageLayout": {
    "storage": [
      {
        "astId": 2435,
        "contract": "contracts/Reactions/ReactionVault.sol:ReactionVault",
        "label": "_initialized",
        "offset": 0,
        "slot": "0",
        "type": "t_bool"
      },
      {
        "astId": 2438,
        "contract": "contracts/Reactions/ReactionVault.sol:ReactionVault",
        "label": "_initializing",
        "offset": 1,
        "slot": "0",
        "type": "t_bool"
      },
      {
        "astId": 2516,
        "contract": "contracts/Reactions/ReactionVault.sol:ReactionVault",
        "label": "_status",
        "offset": 0,
        "slot": "1",
        "type": "t_uint256"
      },
      {
        "astId": 2560,
        "contract": "contracts/Reactions/ReactionVault.sol:ReactionVault",
        "label": "__gap",
        "offset": 0,
        "slot": "2",
        "type": "t_array(t_uint256)49_storage"
      },
      {
        "astId": 6505,
        "contract": "contracts/Reactions/ReactionVault.sol:ReactionVault",
        "label": "__gap",
        "offset": 0,
        "slot": "51",
        "type": "t_array(t_uint256)50_storage"
      },
      {
        "astId": 3981,
        "contract": "contracts/Reactions/ReactionVault.sol:ReactionVault",
        "label": "__gap",
        "offset": 0,
        "slot": "101",
        "type": "t_array(t_uint256)50_storage"
      },
      {
        "astId": 3927,
        "contract": "contracts/Reactions/ReactionVault.sol:ReactionVault",
        "label": "__gap",
        "offset": 0,
        "slot": "151",
        "type": "t_array(t_uint256)50_storage"
      },
      {
        "astId": 12250,
        "contract": "contracts/Reactions/ReactionVault.sol:ReactionVault",
        "label": "addressManager",
        "offset": 0,
        "slot": "201",
        "type": "t_contract(IAddressManager)8328"
      },
      {
        "astId": 12258,
        "contract": "contracts/Reactions/ReactionVault.sol:ReactionVault",
        "label": "ownerToRewardsMapping",
        "offset": 0,
        "slot": "202",
        "type": "t_mapping(t_contract(IERC20Upgradeable)4673,t_mapping(t_address,t_uint256))"
      },
      {
        "astId": 12264,
        "contract": "contracts/Reactions/ReactionVault.sol:ReactionVault",
        "label": "reactionPriceDetailsMapping",
        "offset": 0,
        "slot": "203",
        "type": "t_mapping(t_uint256,t_struct(ReactionPriceDetails)10349_storage)"
      },
      {
        "astId": 12269,
        "contract": "contracts/Reactions/ReactionVault.sol:ReactionVault",
        "label": "nftOwnerRewards",
        "offset": 0,
        "slot": "204",
        "type": "t_mapping(t_uint256,t_uint256)"
      }
    ],
    "types": {
      "t_address": {
        "encoding": "inplace",
        "label": "address",
        "numberOfBytes": "20"
      },
      "t_array(t_uint256)49_storage": {
        "base": "t_uint256",
        "encoding": "inplace",
        "label": "uint256[49]",
        "numberOfBytes": "1568"
      },
      "t_array(t_uint256)50_storage": {
        "base": "t_uint256",
        "encoding": "inplace",
        "label": "uint256[50]",
        "numberOfBytes": "1600"
      },
      "t_bool": {
        "encoding": "inplace",
        "label": "bool",
        "numberOfBytes": "1"
      },
      "t_contract(IAddressManager)8328": {
        "encoding": "inplace",
        "label": "contract IAddressManager",
        "numberOfBytes": "20"
      },
      "t_contract(IERC20Upgradeable)4673": {
        "encoding": "inplace",
        "label": "contract IERC20Upgradeable",
        "numberOfBytes": "20"
      },
      "t_contract(IWMATIC)13724": {
        "encoding": "inplace",
        "label": "contract IWMATIC",
        "numberOfBytes": "20"
      },
      "t_mapping(t_address,t_uint256)": {
        "encoding": "mapping",
        "key": "t_address",
        "label": "mapping(address => uint256)",
        "numberOfBytes": "32",
        "value": "t_uint256"
      },
      "t_mapping(t_contract(IERC20Upgradeable)4673,t_mapping(t_address,t_uint256))": {
        "encoding": "mapping",
        "key": "t_contract(IERC20Upgradeable)4673",
        "label": "mapping(contract IERC20Upgradeable => mapping(address => uint256))",
        "numberOfBytes": "32",
        "value": "t_mapping(t_address,t_uint256)"
      },
      "t_mapping(t_uint256,t_struct(ReactionPriceDetails)10349_storage)": {
        "encoding": "mapping",
        "key": "t_uint256",
        "label": "mapping(uint256 => struct IReactionVault.ReactionPriceDetails)",
        "numberOfBytes": "32",
        "value": "t_struct(ReactionPriceDetails)10349_storage"
      },
      "t_mapping(t_uint256,t_uint256)": {
        "encoding": "mapping",
        "key": "t_uint256",
        "label": "mapping(uint256 => uint256)",
        "numberOfBytes": "32",
        "value": "t_uint256"
      },
      "t_struct(ReactionPriceDetails)10349_storage": {
        "encoding": "inplace",
        "label": "struct IReactionVault.ReactionPriceDetails",
        "members": [
          {
            "astId": 10344,
            "contract": "contracts/Reactions/ReactionVault.sol:ReactionVault",
            "label": "paymentToken",
            "offset": 0,
            "slot": "0",
            "type": "t_contract(IWMATIC)13724"
          },
          {
            "astId": 10346,
            "contract": "contracts/Reactions/ReactionVault.sol:ReactionVault",
            "label": "reactionPrice",
            "offset": 0,
            "slot": "1",
            "type": "t_uint256"
          },
          {
            "astId": 10348,
            "contract": "contracts/Reactions/ReactionVault.sol:ReactionVault",
            "label": "saleCuratorLiabilityBasisPoints",
            "offset": 0,
            "slot": "2",
            "type": "t_uint256"
          }
        ],
        "numberOfBytes": "96"
      },
      "t_uint256": {
        "encoding": "inplace",
        "label": "uint256",
        "numberOfBytes": "32"
      }
    }
  }
}