{
  "address": "0xD4514C9920cD061FBf1888AFFDebD3a35226D025",
  "abi": [
    {
      "inputs": [],
      "name": "SignatureExpired",
      "type": "error"
    },
    {
      "inputs": [],
      "name": "SignatureInvalid",
      "type": "error"
    },
    {
      "anonymous": false,
      "inputs": [
        {
          "indexed": false,
          "internalType": "address",
          "name": "creator",
          "type": "address"
        },
        {
          "indexed": false,
          "internalType": "contract IWMATIC",
          "name": "paymentToken",
          "type": "address"
        },
        {
          "indexed": false,
          "internalType": "uint256",
          "name": "amount",
          "type": "uint256"
        },
        {
          "indexed": false,
          "internalType": "uint256",
          "name": "reactionId",
          "type": "uint256"
        }
      ],
      "name": "CreatorRewardsGranted",
      "type": "event"
    },
    {
      "anonymous": false,
      "inputs": [
        {
          "indexed": false,
          "internalType": "address",
          "name": "token",
          "type": "address"
        },
        {
          "indexed": false,
          "internalType": "uint256",
          "name": "amount",
          "type": "uint256"
        },
        {
          "indexed": false,
          "internalType": "address",
          "name": "recipient",
          "type": "address"
        }
      ],
      "name": "ERC20RewardsClaimed",
      "type": "event"
    },
    {
      "anonymous": false,
      "inputs": [
        {
          "indexed": false,
          "internalType": "uint8",
          "name": "version",
          "type": "uint8"
        }
      ],
      "name": "Initialized",
      "type": "event"
    },
    {
      "anonymous": false,
      "inputs": [
        {
          "indexed": false,
          "internalType": "address",
          "name": "maker",
          "type": "address"
        },
        {
          "indexed": false,
          "internalType": "contract IWMATIC",
          "name": "paymentToken",
          "type": "address"
        },
        {
          "indexed": false,
          "internalType": "uint256",
          "name": "amount",
          "type": "uint256"
        },
        {
          "indexed": false,
          "internalType": "uint256",
          "name": "reactionId",
          "type": "uint256"
        }
      ],
      "name": "MakerRewardsGranted",
      "type": "event"
    },
    {
      "anonymous": false,
      "inputs": [
        {
          "indexed": false,
          "internalType": "uint256",
          "name": "transformId",
          "type": "uint256"
        },
        {
          "indexed": false,
          "internalType": "uint256",
          "name": "quantity",
          "type": "uint256"
        },
        {
          "indexed": false,
          "internalType": "address",
          "name": "destinationWallet",
          "type": "address"
        },
        {
          "indexed": false,
          "internalType": "address",
          "name": "referrer",
          "type": "address"
        },
        {
          "indexed": false,
          "internalType": "uint256",
          "name": "reactionId",
          "type": "uint256"
        },
        {
          "indexed": false,
          "internalType": "uint256",
          "name": "parameterVersion",
          "type": "uint256"
        }
      ],
      "name": "ReactionsPurchased",
      "type": "event"
    },
    {
      "anonymous": false,
      "inputs": [
        {
          "indexed": false,
          "internalType": "uint256",
          "name": "takerNftChainId",
          "type": "uint256"
        },
        {
          "indexed": false,
          "internalType": "address",
          "name": "takerNftAddress",
          "type": "address"
        },
        {
          "indexed": false,
          "internalType": "uint256",
          "name": "takerNftId",
          "type": "uint256"
        },
        {
          "indexed": false,
          "internalType": "uint256",
          "name": "reactionId",
          "type": "uint256"
        },
        {
          "indexed": false,
          "internalType": "address",
          "name": "paymentToken",
          "type": "address"
        },
        {
          "indexed": false,
          "internalType": "uint256",
          "name": "quantity",
          "type": "uint256"
        },
        {
          "indexed": false,
          "internalType": "string",
          "name": "ipfsMetadataHash",
          "type": "string"
        },
        {
          "indexed": false,
          "internalType": "address",
          "name": "referrer",
          "type": "address"
        },
        {
          "indexed": false,
          "internalType": "address",
          "name": "curatorVaultAddress",
          "type": "address"
        },
        {
          "indexed": false,
          "internalType": "uint256",
          "name": "curatorTokenId",
          "type": "uint256"
        },
        {
          "indexed": false,
          "internalType": "uint256",
          "name": "curatorTokenAmount",
          "type": "uint256"
        },
        {
          "indexed": false,
          "internalType": "uint256",
          "name": "takerTokenAmount",
          "type": "uint256"
        }
      ],
      "name": "ReactionsSpent",
      "type": "event"
    },
    {
      "anonymous": false,
      "inputs": [
        {
          "indexed": false,
          "internalType": "address",
          "name": "referrer",
          "type": "address"
        },
        {
          "indexed": false,
          "internalType": "contract IWMATIC",
          "name": "paymentToken",
          "type": "address"
        },
        {
          "indexed": false,
          "internalType": "uint256",
          "name": "amount",
          "type": "uint256"
        },
        {
          "indexed": false,
          "internalType": "uint256",
          "name": "reactionId",
          "type": "uint256"
        }
      ],
      "name": "ReferrerRewardsGranted",
      "type": "event"
    },
    {
      "anonymous": false,
      "inputs": [
        {
          "indexed": true,
          "internalType": "uint256",
          "name": "curatorTokenId",
          "type": "uint256"
        },
        {
          "indexed": false,
          "internalType": "uint256",
          "name": "curatorTokensSold",
          "type": "uint256"
        },
        {
          "indexed": false,
          "internalType": "uint256",
          "name": "paymentTokenTaker",
          "type": "uint256"
        },
        {
          "indexed": false,
          "internalType": "uint256",
          "name": "paymentTokenCreator",
          "type": "uint256"
        }
      ],
      "name": "TakerWithdraw",
      "type": "event"
    },
    {
      "inputs": [],
      "name": "REACTION_META_PREFIX",
      "outputs": [
        {
          "internalType": "string",
          "name": "",
          "type": "string"
        }
      ],
      "stateMutability": "view",
      "type": "function"
    },
    {
      "inputs": [],
      "name": "SIG_DOMAIN_NAME",
      "outputs": [
        {
          "internalType": "string",
          "name": "",
          "type": "string"
        }
      ],
      "stateMutability": "view",
      "type": "function"
    },
    {
      "inputs": [],
      "name": "addressManager",
      "outputs": [
        {
          "internalType": "contract IAddressManager",
          "name": "",
          "type": "address"
        }
      ],
      "stateMutability": "view",
      "type": "function"
    },
    {
      "inputs": [
        {
          "internalType": "uint256",
          "name": "transformId",
          "type": "uint256"
        },
        {
          "internalType": "uint256",
          "name": "quantity",
          "type": "uint256"
        },
        {
          "internalType": "address",
          "name": "destinationWallet",
          "type": "address"
        },
        {
          "internalType": "address",
          "name": "referrer",
          "type": "address"
        },
        {
          "internalType": "uint256",
          "name": "optionBits",
          "type": "uint256"
        }
      ],
      "name": "buyReaction",
      "outputs": [],
      "stateMutability": "payable",
      "type": "function"
    },
    {
      "inputs": [
        {
          "internalType": "contract IParameterManager",
          "name": "parameterManager",
          "type": "address"
        }
      ],
      "name": "deriveParameterVersion",
      "outputs": [
        {
          "internalType": "uint256",
          "name": "",
          "type": "uint256"
        }
      ],
      "stateMutability": "nonpayable",
      "type": "function"
    },
    {
      "inputs": [
        {
          "internalType": "uint256",
          "name": "transformId",
          "type": "uint256"
        },
        {
          "internalType": "uint256",
          "name": "optionBits",
          "type": "uint256"
        },
        {
          "internalType": "uint256",
          "name": "parameterVersion",
          "type": "uint256"
        }
      ],
      "name": "deriveReactionId",
      "outputs": [
        {
          "internalType": "uint256",
          "name": "",
          "type": "uint256"
        }
      ],
      "stateMutability": "pure",
      "type": "function"
    },
    {
      "inputs": [
        {
          "internalType": "contract IAddressManager",
          "name": "_addressManager",
          "type": "address"
        }
      ],
      "name": "initialize",
      "outputs": [],
      "stateMutability": "nonpayable",
      "type": "function"
    },
    {
      "inputs": [
        {
          "internalType": "uint256",
          "name": "",
          "type": "uint256"
        }
      ],
      "name": "nftOwnerRewards",
      "outputs": [
        {
          "internalType": "uint256",
          "name": "",
          "type": "uint256"
        }
      ],
      "stateMutability": "view",
      "type": "function"
    },
    {
      "inputs": [
        {
          "internalType": "address",
          "name": "",
          "type": "address"
        },
        {
          "internalType": "address",
          "name": "",
          "type": "address"
        },
        {
          "internalType": "uint256[]",
          "name": "",
          "type": "uint256[]"
        },
        {
          "internalType": "uint256[]",
          "name": "",
          "type": "uint256[]"
        },
        {
          "internalType": "bytes",
          "name": "",
          "type": "bytes"
        }
      ],
      "name": "onERC1155BatchReceived",
      "outputs": [
        {
          "internalType": "bytes4",
          "name": "",
          "type": "bytes4"
        }
      ],
      "stateMutability": "nonpayable",
      "type": "function"
    },
    {
      "inputs": [
        {
          "internalType": "address",
          "name": "",
          "type": "address"
        },
        {
          "internalType": "address",
          "name": "",
          "type": "address"
        },
        {
          "internalType": "uint256",
          "name": "",
          "type": "uint256"
        },
        {
          "internalType": "uint256",
          "name": "",
          "type": "uint256"
        },
        {
          "internalType": "bytes",
          "name": "",
          "type": "bytes"
        }
      ],
      "name": "onERC1155Received",
      "outputs": [
        {
          "internalType": "bytes4",
          "name": "",
          "type": "bytes4"
        }
      ],
      "stateMutability": "nonpayable",
      "type": "function"
    },
    {
      "inputs": [
        {
          "internalType": "contract IERC20Upgradeable",
          "name": "",
          "type": "address"
        },
        {
          "internalType": "address",
          "name": "",
          "type": "address"
        }
      ],
      "name": "ownerToRewardsMapping",
      "outputs": [
        {
          "internalType": "uint256",
          "name": "",
          "type": "uint256"
        }
      ],
      "stateMutability": "view",
      "type": "function"
    },
    {
      "inputs": [
        {
          "internalType": "uint256",
          "name": "transformId",
          "type": "uint256"
        },
        {
          "internalType": "uint256",
          "name": "optionBits",
          "type": "uint256"
        },
        {
          "internalType": "uint256",
          "name": "takerNftChainId",
          "type": "uint256"
        },
        {
          "internalType": "address",
          "name": "takerNftAddress",
          "type": "address"
        },
        {
          "internalType": "uint256",
          "name": "takerNftId",
          "type": "uint256"
        },
        {
          "internalType": "uint256",
          "name": "reactionQuantity",
          "type": "uint256"
        },
        {
          "internalType": "string",
          "name": "ipfsMetadataHash",
          "type": "string"
        }
      ],
      "name": "react",
      "outputs": [],
      "stateMutability": "nonpayable",
      "type": "function"
    },
    {
      "inputs": [
        {
          "internalType": "address",
          "name": "reactor",
          "type": "address"
        },
        {
          "internalType": "uint256",
          "name": "transformId",
          "type": "uint256"
        },
        {
          "internalType": "uint256",
          "name": "optionBits",
          "type": "uint256"
        },
        {
          "internalType": "uint256",
          "name": "takerNftChainId",
          "type": "uint256"
        },
        {
          "internalType": "address",
          "name": "takerNftAddress",
          "type": "address"
        },
        {
          "internalType": "uint256",
          "name": "takerNftId",
          "type": "uint256"
        },
        {
          "internalType": "uint256",
          "name": "reactionQuantity",
          "type": "uint256"
        },
        {
          "internalType": "string",
          "name": "ipfsMetadataHash",
          "type": "string"
        }
      ],
      "name": "reactAsDispatcher",
      "outputs": [],
      "stateMutability": "nonpayable",
      "type": "function"
    },
    {
      "inputs": [
        {
          "internalType": "uint256",
          "name": "transformId",
          "type": "uint256"
        },
        {
          "internalType": "uint256",
          "name": "quantity",
          "type": "uint256"
        },
        {
          "internalType": "address",
          "name": "referrer",
          "type": "address"
        },
        {
          "internalType": "uint256",
          "name": "optionBits",
          "type": "uint256"
        },
        {
          "internalType": "uint256",
          "name": "takerNftChainId",
          "type": "uint256"
        },
        {
          "internalType": "address",
          "name": "takerNftAddress",
          "type": "address"
        },
        {
          "internalType": "uint256",
          "name": "takerNftId",
          "type": "uint256"
        },
        {
          "internalType": "address",
          "name": "curatorVaultOverride",
          "type": "address"
        },
        {
          "internalType": "string",
          "name": "ipfsMetadataHash",
          "type": "string"
        }
      ],
      "name": "reactLegacy",
      "outputs": [],
      "stateMutability": "payable",
      "type": "function"
    },
    {
      "inputs": [
        {
          "components": [
            {
              "internalType": "address",
              "name": "reactor",
              "type": "address"
            },
            {
              "internalType": "uint256",
              "name": "transformId",
              "type": "uint256"
            },
            {
              "internalType": "uint256",
              "name": "quantity",
              "type": "uint256"
            },
            {
              "internalType": "uint256",
              "name": "optionBits",
              "type": "uint256"
            },
            {
              "internalType": "uint256",
              "name": "takerNftChainId",
              "type": "uint256"
            },
            {
              "internalType": "address",
              "name": "takerNftAddress",
              "type": "address"
            },
            {
              "internalType": "uint256",
              "name": "takerNftId",
              "type": "uint256"
            },
            {
              "internalType": "string",
              "name": "ipfsMetadataHash",
              "type": "string"
            },
            {
              "components": [
                {
                  "internalType": "uint8",
                  "name": "v",
                  "type": "uint8"
                },
                {
                  "internalType": "bytes32",
                  "name": "r",
                  "type": "bytes32"
                },
                {
                  "internalType": "bytes32",
                  "name": "s",
                  "type": "bytes32"
                },
                {
                  "internalType": "uint256",
                  "name": "deadline",
                  "type": "uint256"
                }
              ],
              "internalType": "struct DataTypes.EIP712Signature",
              "name": "sig",
              "type": "tuple"
            }
          ],
          "internalType": "struct DataTypes.ReactWithSigData",
          "name": "vars",
          "type": "tuple"
        }
      ],
      "name": "reactWithSig",
      "outputs": [],
      "stateMutability": "nonpayable",
      "type": "function"
    },
    {
      "inputs": [
        {
          "internalType": "uint256",
          "name": "",
          "type": "uint256"
        }
      ],
      "name": "reactionPriceDetailsMapping",
      "outputs": [
        {
          "internalType": "contract IWMATIC",
          "name": "paymentToken",
          "type": "address"
        },
        {
          "internalType": "uint256",
          "name": "reactionPrice",
          "type": "uint256"
        },
        {
          "internalType": "uint256",
          "name": "saleCuratorLiabilityBasisPoints",
          "type": "uint256"
        }
      ],
      "stateMutability": "view",
      "type": "function"
    },
    {
      "inputs": [
        {
          "internalType": "uint256",
          "name": "takerNftChainId",
          "type": "uint256"
        },
        {
          "internalType": "address",
          "name": "takerNftAddress",
          "type": "address"
        },
        {
          "internalType": "uint256",
          "name": "takerNftId",
          "type": "uint256"
        },
        {
          "internalType": "uint256",
          "name": "reactionId",
          "type": "uint256"
        },
        {
          "internalType": "uint256",
          "name": "reactionQuantity",
          "type": "uint256"
        },
        {
          "internalType": "address",
          "name": "referrer",
          "type": "address"
        },
        {
          "internalType": "address",
          "name": "curatorVaultOverride",
          "type": "address"
        },
        {
          "internalType": "string",
          "name": "ipfsMetadataHash",
          "type": "string"
        }
      ],
      "name": "spendReaction",
      "outputs": [],
      "stateMutability": "nonpayable",
      "type": "function"
    },
    {
      "inputs": [
        {
          "internalType": "bytes4",
          "name": "interfaceId",
          "type": "bytes4"
        }
      ],
      "name": "supportsInterface",
      "outputs": [
        {
          "internalType": "bool",
          "name": "",
          "type": "bool"
        }
      ],
      "stateMutability": "view",
      "type": "function"
    },
    {
      "inputs": [],
      "name": "sweep",
      "outputs": [],
      "stateMutability": "nonpayable",
      "type": "function"
    },
    {
      "inputs": [
        {
          "internalType": "contract IWMATIC",
          "name": "token",
          "type": "address"
        }
      ],
      "name": "withdrawErc20Rewards",
      "outputs": [
        {
          "internalType": "uint256",
          "name": "",
          "type": "uint256"
        }
      ],
      "stateMutability": "nonpayable",
      "type": "function"
    },
    {
      "inputs": [
        {
          "internalType": "uint256",
          "name": "takerNftChainId",
          "type": "uint256"
        },
        {
          "internalType": "address",
          "name": "takerNftAddress",
          "type": "address"
        },
        {
          "internalType": "uint256",
          "name": "takerNftId",
          "type": "uint256"
        },
        {
          "internalType": "contract IWMATIC",
          "name": "paymentToken",
          "type": "address"
        },
        {
          "internalType": "address",
          "name": "curatorVault",
          "type": "address"
        },
        {
          "internalType": "uint256",
          "name": "curatorTokenId",
          "type": "uint256"
        },
        {
          "internalType": "uint256",
          "name": "tokensToBurn",
          "type": "uint256"
        },
        {
          "internalType": "address",
          "name": "refundToAddress",
          "type": "address"
        }
      ],
      "name": "withdrawTakerRewards",
      "outputs": [
        {
          "internalType": "uint256",
          "name": "",
          "type": "uint256"
        }
      ],
      "stateMutability": "nonpayable",
      "type": "function"
    },
    {
      "stateMutability": "payable",
      "type": "receive"
    }
  ],
  "transactionHash": "0xc8f98cbfa38b2a41d561a1f74d1e17e4985b82629aa923e2c2faffa4c467a577",
  "args": [],
  "numDeployments": 4,
  "solcInputHash": "b84b00b90490290595acf2b30cb1ae9d",
  "bytecode": "0x608060405234801561001057600080fd5b506156c580620000216000396000f3fe60806040526004361061012d5760003560e01c8063755443ce116100ab578063c4d66de81161006f578063c4d66de8146103dc578063c6b85501146103fc578063d2504f901461040f578063e46f7e9c1461042f578063f23a6e6114610463578063f9f280d31461048f57600080fd5b8063755443ce146102ff578063809e13491461031f57806388415f8e14610357578063928102a214610377578063bc197c811461039757600080fd5b80633ab76e9f116100f25780633ab76e9f1461021157806343f68bcb1461023e578063520853281461026c5780635229fcb714610299578063600e9474146102df57600080fd5b8062722e101461013957806301ffc9a7146101975780630c4900e4146101c75780631bdaf177146101dc57806335faa416146101fc57600080fd5b3661013457005b600080fd5b34801561014557600080fd5b5061017f6101543660046148b8565b60cb602052600090815260409020805460018201546002909201546001600160a01b03909116919083565b60405161018e939291906148d1565b60405180910390f35b3480156101a357600080fd5b506101b76101b23660046148f2565b6104af565b604051901515815260200161018e565b6101da6101d5366004614931565b6104e6565b005b3480156101e857600080fd5b506101da6101f7366004614a60565b61052f565b34801561020857600080fd5b506101da61077c565b34801561021d57600080fd5b5060c954610231906001600160a01b031681565b60405161018e9190614af2565b34801561024a57600080fd5b5061025e610259366004614b06565b6108e5565b60405190815260200161018e565b34801561027857600080fd5b5061025e6102873660046148b8565b60cc6020526000908152604090205481565b3480156102a557600080fd5b506102d26040518060400160405280600d81526020016c14985c9848141c9bdd1bd8dbdb609a1b81525081565b60405161018e9190614b8a565b3480156102eb57600080fd5b506101da6102fa366004614b9d565b610941565b34801561030b57600080fd5b506101da61031a366004614bd8565b610c89565b34801561032b57600080fd5b5061025e61033a366004614c57565b60ca60209081526000928352604080842090915290825290205481565b34801561036357600080fd5b5061025e610372366004614c90565b610ccf565b34801561038357600080fd5b5061025e610392366004614c90565b610e5a565b3480156103a357600080fd5b506103c36103b2366004614d3b565b63bc197c8160e01b95945050505050565b6040516001600160e01b0319909116815260200161018e565b3480156103e857600080fd5b506101da6103f7366004614c90565b6110d9565b6101da61040a366004614de8565b611234565b34801561041b57600080fd5b506101da61042a366004614e8d565b611304565b34801561043b57600080fd5b506102d2604051806040016040528060088152602001672922a0a1aa24a7a760c11b81525081565b34801561046f57600080fd5b506103c361047e366004614f0c565b63f23a6e6160e01b95945050505050565b34801561049b57600080fd5b5061025e6104aa366004614f74565b61139a565b60006001600160e01b03198216630271189760e51b14806104e057506301ffc9a760e01b6001600160e01b03198316145b92915050565b600260015414156105125760405162461bcd60e51b815260040161050990614ff9565b60405180910390fd5b60026001556105248585858585611d2b565b505060018055505050565b600260015414156105525760405162461bcd60e51b815260040161050990614ff9565b6002600155336001600160a01b0389161480610672575060c960009054906101000a90046001600160a01b03166001600160a01b0316636116399c6040518163ffffffff1660e01b8152600401602060405180830381600087803b1580156105b957600080fd5b505af11580156105cd573d6000803e3d6000fd5b505050506040513d601f19601f820116820180604052508101906105f19190615030565b60405163ef97c55b60e01b81526001600160a01b038a81166004830152336024830152919091169063ef97c55b9060440160206040518083038186803b15801561063a57600080fd5b505afa15801561064e573d6000803e3d6000fd5b505050506040513d601f19601f820116820180604052508101906106729190615062565b6106be5760405162461bcd60e51b815260206004820181905260248201527f4e6f74206163636f756e7420686f6c646572206f7220646973706174636865726044820152606401610509565b600061074b60c960009054906101000a90046001600160a01b03166001600160a01b031663b27bcea16040518163ffffffff1660e01b8152600401602060405180830381600087803b15801561071357600080fd5b505af1158015610727573d6000803e3d6000fd5b505050506040513d601f19601f820116820180604052508101906103729190615030565b9050600061075a8989846108e5565b905061076c8a8a898989868a8a6128fb565b5050600180555050505050505050565b60c960009054906101000a90046001600160a01b03166001600160a01b031662435da56040518163ffffffff1660e01b8152600401602060405180830381600087803b1580156107cb57600080fd5b505af11580156107df573d6000803e3d6000fd5b505050506040513d601f19601f820116820180604052508101906108039190615030565b6001600160a01b03166324d7806c336040518263ffffffff1660e01b815260040161082e9190614af2565b60206040518083038186803b15801561084657600080fd5b505afa15801561085a573d6000803e3d6000fd5b505050506040513d601f19601f8201168201806040525081019061087e9190615062565b6108b65760405162461bcd60e51b81526020600482015260096024820152682737ba1020b236b4b760b91b6044820152606401610509565b60405133904780156108fc02916000818181858888f193505050501580156108e2573d6000803e3d6000fd5b50565b6000604051806040016040528060088152602001672922a0a1aa24a7a760c11b81525082858560405160200161091e949392919061507d565b6040516020818303038152906040528051906020012060001c90505b9392505050565b600260015414156109645760405162461bcd60e51b815260040161050990614ff9565b6002600155610b96610b7f7feb9c58e8ac70bb321897f3f845fff903dcf43f3ad4245d07210b4b2dea1991fa61099d6020850185614c90565b60208501356040860135606087013560808801356109c160c08a0160a08b01614c90565b60c08a01356109d360e08c018c6150ac565b6040516109e19291906150f9565b604051809103902060c960009054906101000a90046001600160a01b03166001600160a01b031663b27bcea16040518163ffffffff1660e01b8152600401602060405180830381600087803b158015610a3957600080fd5b505af1158015610a4d573d6000803e3d6000fd5b505050506040513d601f19601f82011682018060405250810190610a719190615030565b6001600160a01b031663c9fac01c610a8c60208f018f614c90565b6040518263ffffffff1660e01b8152600401610aa89190614af2565b602060405180830381600087803b158015610ac257600080fd5b505af1158015610ad6573d6000803e3d6000fd5b505050506040513d601f19601f82011682018060405250810190610afa9190615109565b60408051602081019b909b526001600160a01b03998a16908b015260608a0197909752608089019590955260a088019390935260c087019190915290931660e085015261010084019290925261012083019190915261014082015261016084810135908201526101800160405160208183030381529060405280519060200120613042565b610b8c6020840184614c90565b8361010001613147565b6000610beb60c960009054906101000a90046001600160a01b03166001600160a01b031663b27bcea16040518163ffffffff1660e01b8152600401602060405180830381600087803b15801561071357600080fd5b90506000610c0283602001358460600135846108e5565b9050610c80610c146020850185614c90565b60208501356080860135610c2e60c0880160a08901614c90565b60c08801358660408a0135610c4660e08c018c6150ac565b8080601f0160208091040260200160405190810160405280939291908181526020018383808284376000920191909152506128fb92505050565b50506001805550565b60026001541415610cac5760405162461bcd60e51b815260040161050990614ff9565b6002600155610cc1888888888888888861322b565b505060018055505050505050565b6000816001600160a01b0316633013ce296040518163ffffffff1660e01b8152600401602060405180830381600087803b158015610d0c57600080fd5b505af1158015610d20573d6000803e3d6000fd5b505050506040513d601f19601f82011682018060405250810190610d449190615030565b826001600160a01b0316635ddb0cf26040518163ffffffff1660e01b8152600401602060405180830381600087803b158015610d7f57600080fd5b505af1158015610d93573d6000803e3d6000fd5b505050506040513d601f19601f82011682018060405250810190610db79190615109565b836001600160a01b031663f93c0d796040518163ffffffff1660e01b8152600401602060405180830381600087803b158015610df257600080fd5b505af1158015610e06573d6000803e3d6000fd5b505050506040513d601f19601f82011682018060405250810190610e2a9190615109565b604051602001610e3c939291906148d1565b60408051601f19818403018152919052805160209091012092915050565b600060026001541415610e7f5760405162461bcd60e51b815260040161050990614ff9565b60026001556001600160a01b038216600090815260ca6020908152604080832033845290915290205480610ec55760405162461bcd60e51b815260040161050990615122565b6001600160a01b03808416600090815260ca60209081526040808320338452825280832083905560c954815163b27bcea160e01b8152915194169363b27bcea193600480840194938390030190829087803b158015610f2357600080fd5b505af1158015610f37573d6000803e3d6000fd5b505050506040513d601f19601f82011682018060405250810190610f5b9190615030565b6001600160a01b031663e4301ec56040518163ffffffff1660e01b8152600401602060405180830381600087803b158015610f9557600080fd5b505af1158015610fa9573d6000803e3d6000fd5b505050506040513d601f19601f82011682018060405250810190610fcd9190615030565b6001600160a01b0316836001600160a01b0316141561107357604051632e1a7d4d60e01b8152600481018290526001600160a01b03841690632e1a7d4d90602401600060405180830381600087803b15801561102857600080fd5b505af115801561103c573d6000803e3d6000fd5b505060405133925083156108fc02915083906000818181858888f1935050505015801561106d573d6000803e3d6000fd5b50611087565b6110876001600160a01b0384163383613cb3565b604080516001600160a01b038516815260208101839052338183015290517f712edeb933a34d503bfa8233af370724a7a1b075f66b706f95f1ab64049532dc9181900360600190a16001805592915050565b600054610100900460ff16158080156110f95750600054600160ff909116105b806111135750303b158015611113575060005460ff166001145b6111765760405162461bcd60e51b815260206004820152602e60248201527f496e697469616c697a61626c653a20636f6e747261637420697320616c72656160448201526d191e481a5b9a5d1a585b1a5e995960921b6064820152608401610509565b6000805460ff191660011790558015611199576000805461ff0019166101001790555b6001600160a01b0382166111bf5760405162461bcd60e51b815260040161050990615122565b6111c7613d1b565b6111cf613d4c565b60c980546001600160a01b0319166001600160a01b0384161790558015611230576000805461ff0019169055604051600181527f7f26b83ff96e1f2b6a682f133852f6798a09c465da95921460cefb38474024989060200160405180910390a15b5050565b600260015414156112575760405162461bcd60e51b815260040161050990614ff9565b600260015560c9546040805163b27bcea160e01b815290516000926112a9926001600160a01b039091169163b27bcea19160048082019260209290919082900301818887803b15801561071357600080fd5b905060006112b88b89846108e5565b9050346112d5576112ce8b888888858f89613d73565b50506112f5565b6112e28b8b338c8c611d2b565b6112f2878787848e8e8a8a61322b565b50505b50506001805550505050505050565b600260015414156113275760405162461bcd60e51b815260040161050990614ff9565b600260015560c9546040805163b27bcea160e01b81529051600092611379926001600160a01b039091169163b27bcea19160048082019260209290919082900301818887803b15801561071357600080fd5b905060006113888989846108e5565b90506112f5338a898989868a8a6128fb565b6000600260015414156113bf5760405162461bcd60e51b815260040161050990614ff9565b60026001819055506114006040518060c001604052806000815260200160008152602001600081526020016000815260200160008152602001600081525090565b898989888860405160200161141995949392919061514b565b60408051601f198184030181529181528151602092830120808452600090815260cc8352205490820181905261147e5760405162461bcd60e51b815260206004820152600a6024820152694e6f207265776172647360b01b6044820152606401610509565b83816020015110156114d25760405162461bcd60e51b815260206004820152601e60248201527f526577617264732062616c616e6365203c20746f6b656e73546f4275726e00006044820152606401610509565b60c960009054906101000a90046001600160a01b03166001600160a01b031663363f8a656040518163ffffffff1660e01b8152600401602060405180830381600087803b15801561152257600080fd5b505af1158015611536573d6000803e3d6000fd5b505050506040513d601f19601f8201168201806040525081019061155a9190615030565b60405163c93b76c960e01b8152600481018c90526001600160a01b038b81166024830152604482018b9052919091169063c93b76c990606401602060405180830381600087803b1580156115ad57600080fd5b505af11580156115c1573d6000803e3d6000fd5b505050506040513d601f19601f820116820180604052508101906115e59190615109565b60408083019190915260c954815163363f8a6560e01b815291516000926001600160a01b039092169163363f8a6591600480830192602092919082900301818787803b15801561163457600080fd5b505af1158015611648573d6000803e3d6000fd5b505050506040513d601f19601f8201168201806040525081019061166c9190615030565b6001600160a01b031663c46bd37983604001516040518263ffffffff1660e01b815260040161169d91815260200190565b600060405180830381600087803b1580156116b757600080fd5b505af11580156116cb573d6000803e3d6000fd5b505050506040513d6000823e601f3d908101601f191682016040526116f391908101906151d4565b80519091506117145760405162461bcd60e51b8152600401610509906152e4565b60208101516001600160a01b031633146117605760405162461bcd60e51b815260206004820152600d60248201526c139195081b9bdd081bdddb9959609a1b6044820152606401610509565b604051630f95458360e11b8152600481018c90526001600160a01b038b81166024830152604482018b90528981166064830152608482018790523060a4830152881690631f2a8b069060c401602060405180830381600087803b1580156117c657600080fd5b505af11580156117da573d6000803e3d6000fd5b505050506040513d601f19601f820116820180604052508101906117fe9190615109565b60608301528151600090815260cc602052604081208054879290611823908490615326565b90915550506060820151608083015260005b8160400151518161ffff161015611b5d5760006001600160a01b031682604001518261ffff168151811061186b5761186b61533d565b60200260200101516001600160a01b0316141580156118ab5750600082606001518261ffff16815181106118a1576118a161533d565b6020026020010151115b15611b4b5761271082606001518261ffff16815181106118cd576118cd61533d565b602002602001015184608001516118e49190615353565b6118ee9190615372565b60a084018190526001600160a01b038a16600090815260ca602052604080822090850151805191929161ffff861690811061192b5761192b61533d565b60200260200101516001600160a01b03166001600160a01b0316815260200190815260200160002060008282546119629190615394565b925050819055507fd20a9dd733d530d6ff5f314da5a1f73608e0c9328eb459d5971312a7ce6cc21982604001518261ffff16815181106119a4576119a461533d565b60200260200101518a8560a0015186604001516040516119c794939291906153ac565b60405180910390a18260a00151836060018181516119e59190615326565b90525060c9546040805163b27bcea160e01b815290516001600160a01b039092169163b27bcea1916004808201926020929091908290030181600087803b158015611a2f57600080fd5b505af1158015611a43573d6000803e3d6000fd5b505050506040513d601f19601f82011682018060405250810190611a679190615030565b6001600160a01b031663e4301ec56040518163ffffffff1660e01b8152600401602060405180830381600087803b158015611aa157600080fd5b505af1158015611ab5573d6000803e3d6000fd5b505050506040513d601f19601f82011682018060405250810190611ad99190615030565b6001600160a01b0316896001600160a01b03161415611b4b57886001600160a01b031663d0e30db08460a001516040518263ffffffff1660e01b81526004016000604051808303818588803b158015611b3157600080fd5b505af1158015611b45573d6000803e3d6000fd5b50505050505b80611b55816153d5565b915050611835565b5060c960009054906101000a90046001600160a01b03166001600160a01b031663b27bcea16040518163ffffffff1660e01b8152600401602060405180830381600087803b158015611bae57600080fd5b505af1158015611bc2573d6000803e3d6000fd5b505050506040513d601f19601f82011682018060405250810190611be69190615030565b6001600160a01b031663e4301ec56040518163ffffffff1660e01b8152600401602060405180830381600087803b158015611c2057600080fd5b505af1158015611c34573d6000803e3d6000fd5b505050506040513d601f19601f82011682018060405250810190611c589190615030565b6001600160a01b0316886001600160a01b03161415611cb05760608201516040516001600160a01b0386169180156108fc02916000818181858888f19350505050158015611caa573d6000803e3d6000fd5b50611ccb565b6060820151611ccb906001600160a01b038a16908690613cb3565b60608083015160a084015160408051898152602081019390935282015287917f4c40c89db5040d698d0dbf90d038439e9b000825016629b1f353529085d6a7bf910160405180910390a25060600151600180559998505050505050505050565b60008411611d4b5760405162461bcd60e51b815260040161050990615122565b611d53614771565b60c960009054906101000a90046001600160a01b03166001600160a01b031663363f8a656040518163ffffffff1660e01b8152600401602060405180830381600087803b158015611da357600080fd5b505af1158015611db7573d6000803e3d6000fd5b505050506040513d601f19601f82011682018060405250810190611ddb9190615030565b6001600160a01b03168082526040516394b9956960e01b8152600481018890526394b9956990602401602060405180830381600087803b158015611e1e57600080fd5b505af1158015611e32573d6000803e3d6000fd5b505050506040513d601f19601f82011682018060405250810190611e569190615109565b60408201819052611e795760405162461bcd60e51b8152600401610509906153f7565b8051604080830151905163c46bd37960e01b81526001600160a01b039092169163c46bd37991611eaf9160040190815260200190565b600060405180830381600087803b158015611ec957600080fd5b505af1158015611edd573d6000803e3d6000fd5b505050506040513d6000823e601f3d908101601f19168201604052611f0591908101906151d4565b6060820181905251611f295760405162461bcd60e51b8152600401610509906152e4565b60c960009054906101000a90046001600160a01b03166001600160a01b031663b27bcea16040518163ffffffff1660e01b8152600401602060405180830381600087803b158015611f7957600080fd5b505af1158015611f8d573d6000803e3d6000fd5b505050506040513d601f19601f82011682018060405250810190611fb19190615030565b6001600160a01b0316602080830182905260408051633013ce2960e01b8152905160009392633013ce29926004808201939182900301818787803b158015611ff857600080fd5b505af115801561200c573d6000803e3d6000fd5b505050506040513d601f19601f820116820180604052508101906120309190615030565b905081602001516001600160a01b0316635ddb0cf26040518163ffffffff1660e01b8152600401602060405180830381600087803b15801561207157600080fd5b505af1158015612085573d6000803e3d6000fd5b505050506040513d601f19601f820116820180604052508101906120a99190615109565b608083018190526120bb908790615353565b60a083015260208201516120ce90610ccf565b61018083018190526120e390889085906108e5565b610160830152600060e08301526001600160a01b0384161561221d576127108260a0015183602001516001600160a01b031663f467320e6040518163ffffffff1660e01b8152600401602060405180830381600087803b15801561214657600080fd5b505af115801561215a573d6000803e3d6000fd5b505050506040513d601f19601f8201168201806040525081019061217e9190615109565b6121889190615353565b6121929190615372565b60e083018190526001600160a01b03808316600090815260ca60209081526040808320938916835292905290812080549091906121d0908490615394565b909155505060e08201516101608301516040517fcae8f06f6239452c3a95ac7735981695a2862cac824988341cae89250e21f7ce92612214928892869291906153ac565b60405180910390a15b600082602001516001600160a01b031663f93c0d796040518163ffffffff1660e01b8152600401602060405180830381600087803b15801561225e57600080fd5b505af1158015612272573d6000803e3d6000fd5b505050506040513d601f19601f820116820180604052508101906122969190615109565b90506127108360a00151826122ab9190615353565b6122b59190615372565b610140840181905260e084015160a08501516122d19190615326565b6122db9190615326565b6101008401819052600060c085018190526101208501919091525b836060015160400151518161ffff1610156124d85760006001600160a01b03168460600151604001518261ffff16815181106123345761233461533d565b60200260200101516001600160a01b031614158015612378575060008460600151606001518261ffff168151811061236e5761236e61533d565b6020026020010151115b156124c6576127108461012001518560600151606001518361ffff16815181106123a4576123a461533d565b60200260200101516123b69190615353565b6123c09190615372565b60c085018190526001600160a01b038416600090815260ca6020526040808220606088015190910151805191929161ffff86169081106124025761240261533d565b60200260200101516001600160a01b03166001600160a01b0316815260200190815260200160002060008282546124399190615394565b925050819055507fd20a9dd733d530d6ff5f314da5a1f73608e0c9328eb459d5971312a7ce6cc2198460600151604001518261ffff168151811061247f5761247f61533d565b6020026020010151848660c001518761016001516040516124a394939291906153ac565b60405180910390a18360c0015184610100018181516124c29190615326565b9052505b806124d0816153d5565b9150506122f6565b506101008301516001600160a01b03808416600090815260ca6020908152604080832060608901518301519094168352929052908120805490919061251e908490615394565b90915550506060830151602001516101008401516101608501516040517fbc6998d896bf22ea1228e704a40269ce0bb6a59c6eb57cafaa7d86c08d9bc9239361256a93909287926153ac565b60405180910390a1604080516060810182526001600160a01b03848116825260808601516020808401918252838501868152610160890151600090815260cb8352868120955186546001600160a01b031916908616178655925160018601555160029094019390935560c954845163b27bcea160e01b8152945192169363b27bcea193600480830194919391928390030190829087803b15801561260d57600080fd5b505af1158015612621573d6000803e3d6000fd5b505050506040513d601f19601f820116820180604052508101906126459190615030565b6001600160a01b031663e4301ec56040518163ffffffff1660e01b8152600401602060405180830381600087803b15801561267f57600080fd5b505af1158015612693573d6000803e3d6000fd5b505050506040513d601f19601f820116820180604052508101906126b79190615030565b6001600160a01b0316826001600160a01b0316141561276e578260a0015134146127155760405162461bcd60e51b815260206004820152600f60248201526e125b9d985b1a59081c185e5b595b9d608a1b6044820152606401610509565b816001600160a01b031663d0e30db0346040518263ffffffff1660e01b81526004016000604051808303818588803b15801561275057600080fd5b505af1158015612764573d6000803e3d6000fd5b505050505061278b565b60a083015161278b906001600160a01b03841690339030906144b9565b60c954604080516376104ad560e01b815290516000926001600160a01b0316916376104ad591600480830192602092919082900301818787803b1580156127d157600080fd5b505af11580156127e5573d6000803e3d6000fd5b505050506040513d601f19601f820116820180604052508101906128099190615030565b9050806001600160a01b031663731133e9888661016001518b60006001600160401b0381111561283b5761283b614983565b6040519080825280601f01601f191660200182016040528015612865576020820181803683370190505b506040518563ffffffff1660e01b8152600401612885949392919061541c565b600060405180830381600087803b15801561289f57600080fd5b505af11580156128b3573d6000803e3d6000fd5b50505050600080516020615670833981519152898989898861016001518961018001516040516128e896959493929190615453565b60405180910390a1505050505050505050565b60c960009054906101000a90046001600160a01b03166001600160a01b031663b27bcea16040518163ffffffff1660e01b8152600401602060405180830381600087803b15801561294b57600080fd5b505af115801561295f573d6000803e3d6000fd5b505050506040513d601f19601f820116820180604052508101906129839190615030565b6001600160a01b0316630ba9ced06040518163ffffffff1660e01b8152600401602060405180830381600087803b1580156129bd57600080fd5b505af11580156129d1573d6000803e3d6000fd5b505050506040513d601f19601f820116820180604052508101906129f59190615109565b821115612a145760405162461bcd60e51b815260040161050990615485565b60c9546040805163363f8a6560e01b815290516000926001600160a01b03169163363f8a6591600480830192602092919082900301818787803b158015612a5a57600080fd5b505af1158015612a6e573d6000803e3d6000fd5b505050506040513d601f19601f82011682018060405250810190612a929190615030565b6040516394b9956960e01b8152600481018a90529091506000906001600160a01b038316906394b9956990602401602060405180830381600087803b158015612ada57600080fd5b505af1158015612aee573d6000803e3d6000fd5b505050506040513d601f19601f82011682018060405250810190612b129190615109565b905080612b315760405162461bcd60e51b8152600401610509906153f7565b60405163c46bd37960e01b8152600481018290526000906001600160a01b0384169063c46bd37990602401600060405180830381600087803b158015612b7657600080fd5b505af1158015612b8a573d6000803e3d6000fd5b505050506040513d6000823e601f3d908101601f19168201604052612bb291908101906151d4565b8051909150612bd35760405162461bcd60e51b8152600401610509906152e4565b60c95460408051639971f8b560e01b815290516000926001600160a01b031691639971f8b591600480830192602092919082900301818787803b158015612c1957600080fd5b505af1158015612c2d573d6000803e3d6000fd5b505050506040513d601f19601f82011682018060405250810190612c519190615030565b90506001600160a01b03811615612cc75760405163131a410d60e21b81526001600160a01b03821690634c69043490612c94908f908e908e908e906004016154bc565b600060405180830381600087803b158015612cae57600080fd5b505af1158015612cc2573d6000803e3d6000fd5b505050505b60008a8a8a60c960009054906101000a90046001600160a01b03166001600160a01b031663b27bcea16040518163ffffffff1660e01b8152600401602060405180830381600087803b158015612d1c57600080fd5b505af1158015612d30573d6000803e3d6000fd5b505050506040513d601f19601f82011682018060405250810190612d549190615030565b6001600160a01b0316633013ce296040518163ffffffff1660e01b8152600401602060405180830381600087803b158015612d8e57600080fd5b505af1158015612da2573d6000803e3d6000fd5b505050506040513d601f19601f82011682018060405250810190612dc69190615030565b604051602001612dd994939291906154e6565b6040516020818303038152906040528051906020012060001c90506000805160206156708339815191528c888f60008c612e5c60c960009054906101000a90046001600160a01b03166001600160a01b031663b27bcea16040518163ffffffff1660e01b8152600401602060405180830381600087803b15801561071357600080fd5b604051612e6e96959493929190615453565b60405180910390a16000805160206156508339815191528b8b8b8b60c960009054906101000a90046001600160a01b03166001600160a01b031663b27bcea16040518163ffffffff1660e01b8152600401602060405180830381600087803b158015612ed957600080fd5b505af1158015612eed573d6000803e3d6000fd5b505050506040513d601f19601f82011682018060405250810190612f119190615030565b6001600160a01b0316633013ce296040518163ffffffff1660e01b8152600401602060405180830381600087803b158015612f4b57600080fd5b505af1158015612f5f573d6000803e3d6000fd5b505050506040513d601f19601f82011682018060405250810190612f839190615030565b8c8c600060c960009054906101000a90046001600160a01b03166001600160a01b0316636fdfe8c56040518163ffffffff1660e01b8152600401602060405180830381600087803b158015612fd757600080fd5b505af1158015612feb573d6000803e3d6000fd5b505050506040513d601f19601f8201168201806040525081019061300f9190615030565b8a60008060405161302b9c9b9a9998979695949392919061550d565b60405180910390a150505050505050505050505050565b600080613108604080518082018252600d81526c14985c9848141c9bdd1bd8dbdb609a1b60209182015281517f8b73c3c69bb8fe3d512ecc4cf759cc79239f7b179b0ffacaa9a75d522b39400f818301527f83a4bbdefa59dc908edca29c5353161283046ee5923d073615f615d480d5e519818401527fc89efdaa54c0f20c7adf612882df0950f5a951637e0307cdcb4c672f298b8bc660608201524660808201523060a0808301919091528351808303909101815260c0909101909252815191012090565b60405161190160f01b602082015260228101919091526042810184905260620160408051601f1981840301815291905280516020909101209392505050565b428160600135101561316c57604051630819bdcd60e01b815260040160405180910390fd5b600060018461317e6020850185615588565b604080516000815260208181018084529490945260ff9092168282015291850135606082015290840135608082015260a0016020604051602081039080840390855afa1580156131d2573d6000803e3d6000fd5b5050604051601f1901519150506001600160a01b03811615806132075750826001600160a01b0316816001600160a01b031614155b15613225576040516337e8456b60e01b815260040160405180910390fd5b50505050565b6000841161324b5760405162461bcd60e51b815260040161050990615122565b61325361481f565b60c960009054906101000a90046001600160a01b03166001600160a01b03166376104ad56040518163ffffffff1660e01b8152600401602060405180830381600087803b1580156132a357600080fd5b505af11580156132b7573d6000803e3d6000fd5b505050506040513d601f19601f820116820180604052508101906132db9190615030565b6001600160a01b0316808252604051637a94c56560e11b815263f5298aca9061330c9033908a908a906004016148d1565b600060405180830381600087803b15801561332657600080fd5b505af115801561333a573d6000803e3d6000fd5b505050600087815260cb6020908152604091829020825160608101845281546001600160a01b03168152600182015481840190815260029092015493810193845291850191909152905190516127109250879161339691615353565b6133a09190615353565b6133aa9190615372565b60408201526001600160a01b0384161561357a57612710816040015160c960009054906101000a90046001600160a01b03166001600160a01b031663b27bcea16040518163ffffffff1660e01b8152600401602060405180830381600087803b15801561341657600080fd5b505af115801561342a573d6000803e3d6000fd5b505050506040513d601f19601f8201168201806040525081019061344e9190615030565b6001600160a01b031663cc22c3e26040518163ffffffff1660e01b8152600401602060405180830381600087803b15801561348857600080fd5b505af115801561349c573d6000803e3d6000fd5b505050506040513d601f19601f820116820180604052508101906134c09190615109565b6134ca9190615353565b6134d49190615372565b60608201819052602080830151516001600160a01b03908116600090815260ca8352604080822092891682529190925281208054909190613516908490615394565b909155505060208101515160608201516040517fcae8f06f6239452c3a95ac7735981695a2862cac824988341cae89250e21f7ce926135589288928b906153ac565b60405180910390a18060600151816040018181516135769190615326565b9052505b60c9546040805163b27bcea160e01b81529051612710926001600160a01b03169163b27bcea19160048083019260209291908290030181600087803b1580156135c257600080fd5b505af11580156135d6573d6000803e3d6000fd5b505050506040513d601f19601f820116820180604052508101906135fa9190615030565b6001600160a01b031662ac1c5a6040518163ffffffff1660e01b8152600401602060405180830381600087803b15801561363357600080fd5b505af1158015613647573d6000803e3d6000fd5b505050506040513d601f19601f8201168201806040525081019061366b9190615109565b826040015161367a9190615353565b6136849190615372565b60808201819052604082015161369a9190615326565b60a082015260c95460408051636fdfe8c560e01b815290516001600160a01b0390921691636fdfe8c5916004808201926020929091908290030181600087803b1580156136e657600080fd5b505af11580156136fa573d6000803e3d6000fd5b505050506040513d601f19601f8201168201806040525081019061371e9190615030565b6001600160a01b0390811660c08301528316156138895760c960009054906101000a90046001600160a01b03166001600160a01b031663b27bcea16040518163ffffffff1660e01b8152600401602060405180830381600087803b15801561378557600080fd5b505af1158015613799573d6000803e3d6000fd5b505050506040513d601f19601f820116820180604052508101906137bd9190615030565b6001600160a01b03166373cf2a67846040518263ffffffff1660e01b81526004016137e89190614af2565b602060405180830381600087803b15801561380257600080fd5b505af1158015613816573d6000803e3d6000fd5b505050506040513d601f19601f8201168201806040525081019061383a9190615062565b6138795760405162461bcd60e51b815260206004820152601060248201526f115c9c8810dd5c985d1bdc95985d5b1d60821b6044820152606401610509565b6001600160a01b03831660c08201525b60c08101516020820151516040516305f8605b60e21b81526000926001600160a01b0316916317e1816c916138c6918e918e918e916004016154e6565b602060405180830381600087803b1580156138e057600080fd5b505af11580156138f4573d6000803e3d6000fd5b505050506040513d601f19601f820116820180604052508101906139189190615109565b60208301515160c0840151604080860151905163095ea7b360e01b81526001600160a01b0392831660048201526024810191909152929350169063095ea7b390604401602060405180830381600087803b15801561397557600080fd5b505af1158015613989573d6000803e3d6000fd5b505050506040513d601f19601f820116820180604052508101906139ad9190615062565b5060c082015160208301515160808401516040516367e9dbcb60e01b81526001600160a01b03909316926367e9dbcb926139f6928f928f928f92909130906001906004016155ab565b602060405180830381600087803b158015613a1057600080fd5b505af1158015613a24573d6000803e3d6000fd5b505050506040513d601f19601f82011682018060405250810190613a489190615109565b60e083015260c0820151604051600091613a6d918d918d918d9190879060200161514b565b6040516020818303038152906040528051906020012060001c90508260e0015160cc60008381526020019081526020016000206000828254613aaf9190615394565b925050819055508260c001516001600160a01b03166367e9dbcb8c8c8c8760200151600001518860a001513360006040518863ffffffff1660e01b8152600401613aff97969594939291906155ab565b602060405180830381600087803b158015613b1957600080fd5b505af1158015613b2d573d6000803e3d6000fd5b505050506040513d601f19601f82011682018060405250810190613b519190615109565b61010084015260c95460408051639971f8b560e01b815290516001600160a01b0390921691639971f8b5916004808201926020929091908290030181600087803b158015613b9e57600080fd5b505af1158015613bb2573d6000803e3d6000fd5b505050506040513d601f19601f82011682018060405250810190613bd69190615030565b6001600160a01b0316610120840181905215613c56578261012001516001600160a01b0316634c690434338d8d8d6040518563ffffffff1660e01b8152600401613c2394939291906154bc565b600060405180830381600087803b158015613c3d57600080fd5b505af1158015613c51573d6000803e3d6000fd5b505050505b6000805160206156508339815191528b8b8b8b8760200151600001518c8a8d8b60c001518b8d61010001518e60e00151604051613c9e9c9b9a9998979695949392919061550d565b60405180910390a15050505050505050505050565b6040516001600160a01b038316602482015260448101829052613d1690849063a9059cbb60e01b906064015b60408051601f198184030181529190526020810180516001600160e01b03166001600160e01b0319909316929092179091526144f1565b505050565b600054610100900460ff16613d425760405162461bcd60e51b8152600401610509906155e8565b613d4a6145c3565b565b600054610100900460ff16613d4a5760405162461bcd60e51b8152600401610509906155e8565b60c960009054906101000a90046001600160a01b03166001600160a01b031663b27bcea16040518163ffffffff1660e01b8152600401602060405180830381600087803b158015613dc357600080fd5b505af1158015613dd7573d6000803e3d6000fd5b505050506040513d601f19601f82011682018060405250810190613dfb9190615030565b6001600160a01b0316630ba9ced06040518163ffffffff1660e01b8152600401602060405180830381600087803b158015613e3557600080fd5b505af1158015613e49573d6000803e3d6000fd5b505050506040513d601f19601f82011682018060405250810190613e6d9190615109565b821115613e8c5760405162461bcd60e51b815260040161050990615485565b60c9546040805163363f8a6560e01b815290516000926001600160a01b03169163363f8a6591600480830192602092919082900301818787803b158015613ed257600080fd5b505af1158015613ee6573d6000803e3d6000fd5b505050506040513d601f19601f82011682018060405250810190613f0a9190615030565b6040516394b9956960e01b8152600481018a90529091506000906001600160a01b038316906394b9956990602401602060405180830381600087803b158015613f5257600080fd5b505af1158015613f66573d6000803e3d6000fd5b505050506040513d601f19601f82011682018060405250810190613f8a9190615109565b905080613fa95760405162461bcd60e51b8152600401610509906153f7565b60405163c46bd37960e01b8152600481018290526000906001600160a01b0384169063c46bd37990602401600060405180830381600087803b158015613fee57600080fd5b505af1158015614002573d6000803e3d6000fd5b505050506040513d6000823e601f3d908101601f1916820160405261402a91908101906151d4565b805190915061404b5760405162461bcd60e51b8152600401610509906152e4565b60c95460408051639971f8b560e01b815290516000926001600160a01b031691639971f8b591600480830192602092919082900301818787803b15801561409157600080fd5b505af11580156140a5573d6000803e3d6000fd5b505050506040513d601f19601f820116820180604052508101906140c99190615030565b90506001600160a01b0381161561413f5760405163131a410d60e21b81526001600160a01b03821690634c6904349061410c9033908e908e908e906004016154bc565b600060405180830381600087803b15801561412657600080fd5b505af115801561413a573d6000803e3d6000fd5b505050505b60008a8a8a60c960009054906101000a90046001600160a01b03166001600160a01b031663b27bcea16040518163ffffffff1660e01b8152600401602060405180830381600087803b15801561419457600080fd5b505af11580156141a8573d6000803e3d6000fd5b505050506040513d601f19601f820116820180604052508101906141cc9190615030565b6001600160a01b0316633013ce296040518163ffffffff1660e01b8152600401602060405180830381600087803b15801561420657600080fd5b505af115801561421a573d6000803e3d6000fd5b505050506040513d601f19601f8201168201806040525081019061423e9190615030565b60405160200161425194939291906154e6565b6040516020818303038152906040528051906020012060001c90506000805160206156708339815191528c883360008c6142d460c960009054906101000a90046001600160a01b03166001600160a01b031663b27bcea16040518163ffffffff1660e01b8152600401602060405180830381600087803b15801561071357600080fd5b6040516142e696959493929190615453565b60405180910390a16000805160206156508339815191528b8b8b8b60c960009054906101000a90046001600160a01b03166001600160a01b031663b27bcea16040518163ffffffff1660e01b8152600401602060405180830381600087803b15801561435157600080fd5b505af1158015614365573d6000803e3d6000fd5b505050506040513d601f19601f820116820180604052508101906143899190615030565b6001600160a01b0316633013ce296040518163ffffffff1660e01b8152600401602060405180830381600087803b1580156143c357600080fd5b505af11580156143d7573d6000803e3d6000fd5b505050506040513d601f19601f820116820180604052508101906143fb9190615030565b8c8c600060c960009054906101000a90046001600160a01b03166001600160a01b0316636fdfe8c56040518163ffffffff1660e01b8152600401602060405180830381600087803b15801561444f57600080fd5b505af1158015614463573d6000803e3d6000fd5b505050506040513d601f19601f820116820180604052508101906144879190615030565b8a6000806040516144a39c9b9a9998979695949392919061550d565b60405180910390a1505050505050505050505050565b6040516001600160a01b03808516602483015283166044820152606481018290526132259085906323b872dd60e01b90608401613cdf565b6000614546826040518060400160405280602081526020017f5361666545524332303a206c6f772d6c6576656c2063616c6c206661696c6564815250856001600160a01b03166145f09092919063ffffffff16565b805190915015613d1657808060200190518101906145649190615062565b613d165760405162461bcd60e51b815260206004820152602a60248201527f5361666545524332303a204552433230206f7065726174696f6e20646964206e6044820152691bdd081cdd58d8d9595960b21b6064820152608401610509565b600054610100900460ff166145ea5760405162461bcd60e51b8152600401610509906155e8565b60018055565b60606145ff8484600085614607565b949350505050565b6060824710156146685760405162461bcd60e51b815260206004820152602660248201527f416464726573733a20696e73756666696369656e742062616c616e636520666f6044820152651c8818d85b1b60d21b6064820152608401610509565b6001600160a01b0385163b6146bf5760405162461bcd60e51b815260206004820152601d60248201527f416464726573733a2063616c6c20746f206e6f6e2d636f6e74726163740000006044820152606401610509565b600080866001600160a01b031685876040516146db9190615633565b60006040518083038185875af1925050503d8060008114614718576040519150601f19603f3d011682016040523d82523d6000602084013e61471d565b606091505b509150915061472d828286614738565b979650505050505050565b6060831561474757508161093a565b8251156147575782518084602001fd5b8160405162461bcd60e51b81526004016105099190614b8a565b604051806101a0016040528060006001600160a01b0316815260200160006001600160a01b03168152602001600081526020016147da604051806080016040528060001515815260200160006001600160a01b0316815260200160608152602001606081525090565b81526020016000815260200160008152602001600081526020016000815260200160008152602001600081526020016000815260200160008152602001600081525090565b60405180610140016040528060006001600160a01b03168152602001614868604051806060016040528060006001600160a01b0316815260200160008152602001600081525090565b81526020016000815260200160008152602001600081526020016000815260200160006001600160a01b03168152602001600081526020016000815260200160006001600160a01b031681525090565b6000602082840312156148ca57600080fd5b5035919050565b6001600160a01b039390931683526020830191909152604082015260600190565b60006020828403121561490457600080fd5b81356001600160e01b03198116811461093a57600080fd5b6001600160a01b03811681146108e257600080fd5b600080600080600060a0868803121561494957600080fd5b853594506020860135935060408601356149628161491c565b925060608601356149728161491c565b949793965091946080013592915050565b634e487b7160e01b600052604160045260246000fd5b604051608081016001600160401b03811182821017156149bb576149bb614983565b60405290565b604051601f8201601f191681016001600160401b03811182821017156149e9576149e9614983565b604052919050565b600082601f830112614a0257600080fd5b81356001600160401b03811115614a1b57614a1b614983565b614a2e601f8201601f19166020016149c1565b818152846020838601011115614a4357600080fd5b816020850160208301376000918101602001919091529392505050565b600080600080600080600080610100898b031215614a7d57600080fd5b8835614a888161491c565b97506020890135965060408901359550606089013594506080890135614aad8161491c565b935060a0890135925060c0890135915060e08901356001600160401b03811115614ad657600080fd5b614ae28b828c016149f1565b9150509295985092959890939650565b6001600160a01b0391909116815260200190565b600080600060608486031215614b1b57600080fd5b505081359360208301359350604090920135919050565b60005b83811015614b4d578181015183820152602001614b35565b838111156132255750506000910152565b60008151808452614b76816020860160208601614b32565b601f01601f19169290920160200192915050565b60208152600061093a6020830184614b5e565b600060208284031215614baf57600080fd5b81356001600160401b03811115614bc557600080fd5b8201610180818503121561093a57600080fd5b600080600080600080600080610100898b031215614bf557600080fd5b883597506020890135614c078161491c565b965060408901359550606089013594506080890135935060a0890135614c2c8161491c565b925060c0890135614c3c8161491c565b915060e08901356001600160401b03811115614ad657600080fd5b60008060408385031215614c6a57600080fd5b8235614c758161491c565b91506020830135614c858161491c565b809150509250929050565b600060208284031215614ca257600080fd5b813561093a8161491c565b60006001600160401b03821115614cc657614cc6614983565b5060051b60200190565b600082601f830112614ce157600080fd5b81356020614cf6614cf183614cad565b6149c1565b82815260059290921b84018101918181019086841115614d1557600080fd5b8286015b84811015614d305780358352918301918301614d19565b509695505050505050565b600080600080600060a08688031215614d5357600080fd5b8535614d5e8161491c565b94506020860135614d6e8161491c565b935060408601356001600160401b0380821115614d8a57600080fd5b614d9689838a01614cd0565b94506060880135915080821115614dac57600080fd5b614db889838a01614cd0565b93506080880135915080821115614dce57600080fd5b50614ddb888289016149f1565b9150509295509295909350565b60008060008060008060008060006101208a8c031215614e0757600080fd5b8935985060208a0135975060408a0135614e208161491c565b965060608a0135955060808a0135945060a08a0135614e3e8161491c565b935060c08a0135925060e08a0135614e558161491c565b91506101008a01356001600160401b03811115614e7157600080fd5b614e7d8c828d016149f1565b9150509295985092959850929598565b600080600080600080600060e0888a031215614ea857600080fd5b8735965060208801359550604088013594506060880135614ec88161491c565b93506080880135925060a0880135915060c08801356001600160401b03811115614ef157600080fd5b614efd8a828b016149f1565b91505092959891949750929550565b600080600080600060a08688031215614f2457600080fd5b8535614f2f8161491c565b94506020860135614f3f8161491c565b9350604086013592506060860135915060808601356001600160401b03811115614f6857600080fd5b614ddb888289016149f1565b600080600080600080600080610100898b031215614f9157600080fd5b883597506020890135614fa38161491c565b9650604089013595506060890135614fba8161491c565b94506080890135614fca8161491c565b935060a0890135925060c0890135915060e0890135614fe88161491c565b809150509295985092959890939650565b6020808252601f908201527f5265656e7472616e637947756172643a207265656e7472616e742063616c6c00604082015260600190565b60006020828403121561504257600080fd5b815161093a8161491c565b8051801515811461505d57600080fd5b919050565b60006020828403121561507457600080fd5b61093a8261504d565b6080815260006150906080830187614b5e565b6020830195909552506040810192909252606090910152919050565b6000808335601e198436030181126150c357600080fd5b8301803591506001600160401b038211156150dd57600080fd5b6020019150368190038213156150f257600080fd5b9250929050565b8183823760009101908152919050565b60006020828403121561511b57600080fd5b5051919050565b6020808252600f908201526e125b9d985b1a59080c081a5b9c1d5d608a1b604082015260600190565b9485526001600160a01b03938416602086015260408501929092529091166060830152608082015260a00190565b600082601f83011261518a57600080fd5b8151602061519a614cf183614cad565b82815260059290921b840181019181810190868411156151b957600080fd5b8286015b84811015614d3057805183529183019183016151bd565b600060208083850312156151e757600080fd5b82516001600160401b03808211156151fe57600080fd5b908401906080828703121561521257600080fd5b61521a614999565b6152238361504d565b8152838301516152328161491c565b8185015260408301518281111561524857600080fd5b8301601f8101881361525957600080fd5b8051615267614cf182614cad565b81815260059190911b8201860190868101908a83111561528657600080fd5b928701925b828410156152ad57835161529e8161491c565b8252928701929087019061528b565b604085015250505060608301519350818411156152c957600080fd5b6152d587858501615179565b60608201529695505050505050565b602080825260129082015271139195081b9bdd081c9959da5cdd195c995960721b604082015260600190565b634e487b7160e01b600052601160045260246000fd5b60008282101561533857615338615310565b500390565b634e487b7160e01b600052603260045260246000fd5b600081600019048311821515161561536d5761536d615310565b500290565b60008261538f57634e487b7160e01b600052601260045260246000fd5b500490565b600082198211156153a7576153a7615310565b500190565b6001600160a01b0394851681529290931660208301526040820152606081019190915260800190565b600061ffff808316818114156153ed576153ed615310565b6001019392505050565b6020808252600b908201526a155b9adb9bdddb8813919560aa1b604082015260600190565b60018060a01b03851681528360208201528260408201526080606082015260006154496080830184614b5e565b9695505050505050565b95865260208601949094526001600160a01b03928316604086015291166060840152608083015260a082015260c00190565b6020808252601d908201527f5265616374696f6e207175616e746974792061626f7665206c696d6974000000604082015260600190565b6001600160a01b039485168152602081019390935292166040820152606081019190915260800190565b9384526001600160a01b039283166020850152604084019190915216606082015260800190565b60006101808e835260018060a01b03808f1660208501528d60408501528c6060850152808c1660808501528a60a08501528160c08501526155508285018b614b5e565b98811660e085015296909616610100830152506101208101939093526101408301919091526101609091015250979650505050505050565b60006020828403121561559a57600080fd5b813560ff8116811461093a57600080fd5b9687526001600160a01b03958616602088015260408701949094529184166060860152608085015290911660a0830152151560c082015260e00190565b6020808252602b908201527f496e697469616c697a61626c653a20636f6e7472616374206973206e6f74206960408201526a6e697469616c697a696e6760a81b606082015260800190565b60008251615645818460208701614b32565b919091019291505056fe57df605d24620af344b1b7b2f4a2e11706c95c73e45d9c0dd804564579db6dc20bdc7ecab592c309e746a1dfcb1a7749f6c964110b1e87b70f33da3db038e391a2646970667358221220f75d9c97e5882d68ac8455ff3dd6880ee1984bf47eeb2db6ba78cb0db5634a1664736f6c63430008090033",
  "devdoc": {
    "details": "This contract buying and spending reactions",
    "events": {
      "CreatorRewardsGranted(address,address,uint256,uint256)": {
        "details": "Event emitted when rewards are granted to a creator"
      },
      "ERC20RewardsClaimed(address,uint256,address)": {
        "details": "Event emitted when an account withdraws ERC20 rewards"
      },
      "MakerRewardsGranted(address,address,uint256,uint256)": {
        "details": "Event emitted when rewards are granted to a maker"
      },
      "ReactionsPurchased(uint256,uint256,address,address,uint256,uint256)": {
        "details": "Event emitted when a reaction is purchased"
      },
      "ReactionsSpent(uint256,address,uint256,uint256,address,uint256,string,address,address,uint256,uint256,uint256)": {
        "details": "Event emitted when reaction is spent"
      },
      "ReferrerRewardsGranted(address,address,uint256,uint256)": {
        "details": "Event emitted when rewards are granted to a referrer"
      },
      "TakerWithdraw(uint256,uint256,uint256,uint256)": {
        "details": "Event emitted when taker claims curator tokens"
      }
    },
    "kind": "dev",
    "methods": {
      "buyReaction(uint256,uint256,address,address,uint256)": {
        "details": "External func to allow a user to buy reaction NFTs based on a registered Maker NFT",
        "params": {
          "destinationWallet": "reactions will be minted into this wallet (allows bulk buying from other contracts since reactions are non-transferrable)",
          "optionBits": "Optional param to specify options how the user wants transform reaction",
          "quantity": "Number of reactions to buy",
          "referrer": "Optional param to specify an address where referrer rewards are allocated",
          "transformId": "transform to be purchased"
        }
      },
      "deriveParameterVersion(address)": {
        "details": "Derive the pricing parameters version E.g. if the price of a reaction changes, the paramaterVersion should be different"
      },
      "deriveReactionId(uint256,uint256,uint256)": {
        "details": "Derive the reaction ID from the parameters This unique ID will be used to track instances of reactions built from the same params E.g. if the price of a reaction changes, the reaction ID should be different"
      },
      "initialize(address)": {
        "details": "initializer to call after deployment, can only be called once"
      },
      "react(uint256,uint256,uint256,address,uint256,uint256,string)": {
        "details": "External method identical to _freeReaction()"
      },
      "reactLegacy(uint256,uint256,address,uint256,uint256,address,uint256,address,string)": {
        "details": "Allows a user to react to content & receive a like token. If value is sent into this function then the user will purchase curation tokens."
      },
      "reactWithSig((address,uint256,uint256,uint256,uint256,address,uint256,string,(uint8,bytes32,bytes32,uint256)))": {
        "details": "Allows a user to react to content & receive a like token without sending any value. This function will allow the user to record their reaction on-chain and collect a \"like\" token but not purchase any curator tokens."
      },
      "spendReaction(uint256,address,uint256,uint256,uint256,address,address,string)": {
        "details": "Allows a reaction NFT owner to spend (burn) their tokens at a specific target Taker NFT.",
        "params": {
          "curatorVaultOverride": "Optional address of non-default curator vault",
          "ipfsMetadataHash": "Optional hash of any metadata being associated with spend action",
          "reactionId": "Reaction to spend",
          "reactionQuantity": "How many reactions to spend",
          "referrer": "Optional address where referrer rewards are allocated",
          "takerNftAddress": "Target contract where the reaction is targeting",
          "takerNftChainId": "Chain ID where the NFT lives",
          "takerNftId": "Target NFT ID in the contract"
        }
      },
      "supportsInterface(bytes4)": {
        "details": "See {IERC165-supportsInterface}."
      },
      "sweep()": {
        "details": "Allows the admin account to sweep any MATIC that was accidentally sent"
      },
      "withdrawErc20Rewards(address)": {
        "details": "Allows an account that has been allocated rewards to withdraw (Maker, creator, referrer)",
        "params": {
          "token": "ERC20 token that rewards are valued in"
        }
      },
      "withdrawTakerRewards(uint256,address,uint256,address,address,uint256,uint256,address)": {
        "details": "Allows an NFT taker to withdraw rewards for reactions that were spent against an NFT that they own. The owner of the NFT must register the NFT into the system before they can claim the rewards."
      }
    },
    "title": "ReactionVault",
    "version": 1
  },
  "userdoc": {
    "kind": "user",
    "methods": {},
    "version": 1
  },
  "storageLayout": {
    "storage": [
      {
        "astId": 2446,
        "contract": "contracts/Reactions/ReactionVault.sol:ReactionVault",
        "label": "_initialized",
        "offset": 0,
        "slot": "0",
        "type": "t_uint8"
      },
      {
        "astId": 2449,
        "contract": "contracts/Reactions/ReactionVault.sol:ReactionVault",
        "label": "_initializing",
        "offset": 1,
        "slot": "0",
        "type": "t_bool"
      },
      {
        "astId": 2604,
        "contract": "contracts/Reactions/ReactionVault.sol:ReactionVault",
        "label": "_status",
        "offset": 0,
        "slot": "1",
        "type": "t_uint256"
      },
      {
        "astId": 2648,
        "contract": "contracts/Reactions/ReactionVault.sol:ReactionVault",
        "label": "__gap",
        "offset": 0,
        "slot": "2",
        "type": "t_array(t_uint256)49_storage"
      },
      {
        "astId": 6835,
        "contract": "contracts/Reactions/ReactionVault.sol:ReactionVault",
        "label": "__gap",
        "offset": 0,
        "slot": "51",
        "type": "t_array(t_uint256)50_storage"
      },
      {
        "astId": 4196,
        "contract": "contracts/Reactions/ReactionVault.sol:ReactionVault",
        "label": "__gap",
        "offset": 0,
        "slot": "101",
        "type": "t_array(t_uint256)50_storage"
      },
      {
        "astId": 4142,
        "contract": "contracts/Reactions/ReactionVault.sol:ReactionVault",
        "label": "__gap",
        "offset": 0,
        "slot": "151",
        "type": "t_array(t_uint256)50_storage"
      },
      {
        "astId": 15614,
        "contract": "contracts/Reactions/ReactionVault.sol:ReactionVault",
        "label": "addressManager",
        "offset": 0,
        "slot": "201",
        "type": "t_contract(IAddressManager)8719"
      },
      {
        "astId": 15622,
        "contract": "contracts/Reactions/ReactionVault.sol:ReactionVault",
        "label": "ownerToRewardsMapping",
        "offset": 0,
        "slot": "202",
        "type": "t_mapping(t_contract(IERC20Upgradeable)4886,t_mapping(t_address,t_uint256))"
      },
      {
        "astId": 15628,
        "contract": "contracts/Reactions/ReactionVault.sol:ReactionVault",
        "label": "reactionPriceDetailsMapping",
        "offset": 0,
        "slot": "203",
        "type": "t_mapping(t_uint256,t_struct(ReactionPriceDetails)13343_storage)"
      },
      {
        "astId": 15633,
        "contract": "contracts/Reactions/ReactionVault.sol:ReactionVault",
        "label": "nftOwnerRewards",
        "offset": 0,
        "slot": "204",
        "type": "t_mapping(t_uint256,t_uint256)"
      }
    ],
    "types": {
      "t_address": {
        "encoding": "inplace",
        "label": "address",
        "numberOfBytes": "20"
      },
      "t_array(t_uint256)49_storage": {
        "base": "t_uint256",
        "encoding": "inplace",
        "label": "uint256[49]",
        "numberOfBytes": "1568"
      },
      "t_array(t_uint256)50_storage": {
        "base": "t_uint256",
        "encoding": "inplace",
        "label": "uint256[50]",
        "numberOfBytes": "1600"
      },
      "t_bool": {
        "encoding": "inplace",
        "label": "bool",
        "numberOfBytes": "1"
      },
      "t_contract(IAddressManager)8719": {
        "encoding": "inplace",
        "label": "contract IAddressManager",
        "numberOfBytes": "20"
      },
      "t_contract(IERC20Upgradeable)4886": {
        "encoding": "inplace",
        "label": "contract IERC20Upgradeable",
        "numberOfBytes": "20"
      },
      "t_contract(IWMATIC)16140": {
        "encoding": "inplace",
        "label": "contract IWMATIC",
        "numberOfBytes": "20"
      },
      "t_mapping(t_address,t_uint256)": {
        "encoding": "mapping",
        "key": "t_address",
        "label": "mapping(address => uint256)",
        "numberOfBytes": "32",
        "value": "t_uint256"
      },
      "t_mapping(t_contract(IERC20Upgradeable)4886,t_mapping(t_address,t_uint256))": {
        "encoding": "mapping",
        "key": "t_contract(IERC20Upgradeable)4886",
        "label": "mapping(contract IERC20Upgradeable => mapping(address => uint256))",
        "numberOfBytes": "32",
        "value": "t_mapping(t_address,t_uint256)"
      },
      "t_mapping(t_uint256,t_struct(ReactionPriceDetails)13343_storage)": {
        "encoding": "mapping",
        "key": "t_uint256",
        "label": "mapping(uint256 => struct IReactionVault.ReactionPriceDetails)",
        "numberOfBytes": "32",
        "value": "t_struct(ReactionPriceDetails)13343_storage"
      },
      "t_mapping(t_uint256,t_uint256)": {
        "encoding": "mapping",
        "key": "t_uint256",
        "label": "mapping(uint256 => uint256)",
        "numberOfBytes": "32",
        "value": "t_uint256"
      },
      "t_struct(ReactionPriceDetails)13343_storage": {
        "encoding": "inplace",
        "label": "struct IReactionVault.ReactionPriceDetails",
        "members": [
          {
            "astId": 13338,
            "contract": "contracts/Reactions/ReactionVault.sol:ReactionVault",
            "label": "paymentToken",
            "offset": 0,
            "slot": "0",
            "type": "t_contract(IWMATIC)16140"
          },
          {
            "astId": 13340,
            "contract": "contracts/Reactions/ReactionVault.sol:ReactionVault",
            "label": "reactionPrice",
            "offset": 0,
            "slot": "1",
            "type": "t_uint256"
          },
          {
            "astId": 13342,
            "contract": "contracts/Reactions/ReactionVault.sol:ReactionVault",
            "label": "saleCuratorLiabilityBasisPoints",
            "offset": 0,
            "slot": "2",
            "type": "t_uint256"
          }
        ],
        "numberOfBytes": "96"
      },
      "t_uint256": {
        "encoding": "inplace",
        "label": "uint256",
        "numberOfBytes": "32"
      },
      "t_uint8": {
        "encoding": "inplace",
        "label": "uint8",
        "numberOfBytes": "1"
      }
    }
  }
}