{
  "address": "0xD9842dE1DBf784e84d9629C04af39e976b7C38F7",
  "abi": [
    {
      "anonymous": false,
      "inputs": [
        {
          "indexed": true,
          "internalType": "bytes32",
          "name": "role",
          "type": "bytes32"
        },
        {
          "indexed": true,
          "internalType": "bytes32",
          "name": "previousAdminRole",
          "type": "bytes32"
        },
        {
          "indexed": true,
          "internalType": "bytes32",
          "name": "newAdminRole",
          "type": "bytes32"
        }
      ],
      "name": "RoleAdminChanged",
      "type": "event"
    },
    {
      "anonymous": false,
      "inputs": [
        {
          "indexed": true,
          "internalType": "bytes32",
          "name": "role",
          "type": "bytes32"
        },
        {
          "indexed": true,
          "internalType": "address",
          "name": "account",
          "type": "address"
        },
        {
          "indexed": true,
          "internalType": "address",
          "name": "sender",
          "type": "address"
        }
      ],
      "name": "RoleGranted",
      "type": "event"
    },
    {
      "anonymous": false,
      "inputs": [
        {
          "indexed": true,
          "internalType": "bytes32",
          "name": "role",
          "type": "bytes32"
        },
        {
          "indexed": true,
          "internalType": "address",
          "name": "account",
          "type": "address"
        },
        {
          "indexed": true,
          "internalType": "address",
          "name": "sender",
          "type": "address"
        }
      ],
      "name": "RoleRevoked",
      "type": "event"
    },
    {
      "inputs": [],
      "name": "ADDRESS_MANAGER_ADMIN",
      "outputs": [
        {
          "internalType": "bytes32",
          "name": "",
          "type": "bytes32"
        }
      ],
      "stateMutability": "view",
      "type": "function"
    },
    {
      "inputs": [],
      "name": "CURATOR_SHARES_ADMIN",
      "outputs": [
        {
          "internalType": "bytes32",
          "name": "",
          "type": "bytes32"
        }
      ],
      "stateMutability": "view",
      "type": "function"
    },
    {
      "inputs": [],
      "name": "CURATOR_VAULT_PURCHASER",
      "outputs": [
        {
          "internalType": "bytes32",
          "name": "",
          "type": "bytes32"
        }
      ],
      "stateMutability": "view",
      "type": "function"
    },
    {
      "inputs": [],
      "name": "DEFAULT_ADMIN_ROLE",
      "outputs": [
        {
          "internalType": "bytes32",
          "name": "",
          "type": "bytes32"
        }
      ],
      "stateMutability": "view",
      "type": "function"
    },
    {
      "inputs": [],
      "name": "PARAMETER_MANAGER_ADMIN",
      "outputs": [
        {
          "internalType": "bytes32",
          "name": "",
          "type": "bytes32"
        }
      ],
      "stateMutability": "view",
      "type": "function"
    },
    {
      "inputs": [],
      "name": "REACTION_NFT_ADMIN",
      "outputs": [
        {
          "internalType": "bytes32",
          "name": "",
          "type": "bytes32"
        }
      ],
      "stateMutability": "view",
      "type": "function"
    },
    {
      "inputs": [
        {
          "internalType": "bytes32",
          "name": "role",
          "type": "bytes32"
        }
      ],
      "name": "getRoleAdmin",
      "outputs": [
        {
          "internalType": "bytes32",
          "name": "",
          "type": "bytes32"
        }
      ],
      "stateMutability": "view",
      "type": "function"
    },
    {
      "inputs": [
        {
          "internalType": "bytes32",
          "name": "role",
          "type": "bytes32"
        },
        {
          "internalType": "address",
          "name": "account",
          "type": "address"
        }
      ],
      "name": "grantRole",
      "outputs": [],
      "stateMutability": "nonpayable",
      "type": "function"
    },
    {
      "inputs": [
        {
          "internalType": "bytes32",
          "name": "role",
          "type": "bytes32"
        },
        {
          "internalType": "address",
          "name": "account",
          "type": "address"
        }
      ],
      "name": "hasRole",
      "outputs": [
        {
          "internalType": "bool",
          "name": "",
          "type": "bool"
        }
      ],
      "stateMutability": "view",
      "type": "function"
    },
    {
      "inputs": [
        {
          "internalType": "address",
          "name": "protocolAdmin",
          "type": "address"
        }
      ],
      "name": "initialize",
      "outputs": [],
      "stateMutability": "nonpayable",
      "type": "function"
    },
    {
      "inputs": [
        {
          "internalType": "address",
          "name": "potentialAddress",
          "type": "address"
        }
      ],
      "name": "isAddressManagerAdmin",
      "outputs": [
        {
          "internalType": "bool",
          "name": "",
          "type": "bool"
        }
      ],
      "stateMutability": "view",
      "type": "function"
    },
    {
      "inputs": [
        {
          "internalType": "address",
          "name": "potentialAddress",
          "type": "address"
        }
      ],
      "name": "isAdmin",
      "outputs": [
        {
          "internalType": "bool",
          "name": "",
          "type": "bool"
        }
      ],
      "stateMutability": "view",
      "type": "function"
    },
    {
      "inputs": [
        {
          "internalType": "address",
          "name": "potentialAddress",
          "type": "address"
        }
      ],
      "name": "isCuratorSharesAdmin",
      "outputs": [
        {
          "internalType": "bool",
          "name": "",
          "type": "bool"
        }
      ],
      "stateMutability": "view",
      "type": "function"
    },
    {
      "inputs": [
        {
          "internalType": "address",
          "name": "potentialAddress",
          "type": "address"
        }
      ],
      "name": "isCuratorVaultPurchaser",
      "outputs": [
        {
          "internalType": "bool",
          "name": "",
          "type": "bool"
        }
      ],
      "stateMutability": "view",
      "type": "function"
    },
    {
      "inputs": [
        {
          "internalType": "address",
          "name": "potentialAddress",
          "type": "address"
        }
      ],
      "name": "isParameterManagerAdmin",
      "outputs": [
        {
          "internalType": "bool",
          "name": "",
          "type": "bool"
        }
      ],
      "stateMutability": "view",
      "type": "function"
    },
    {
      "inputs": [
        {
          "internalType": "address",
          "name": "potentialAddress",
          "type": "address"
        }
      ],
      "name": "isReactionNftAdmin",
      "outputs": [
        {
          "internalType": "bool",
          "name": "",
          "type": "bool"
        }
      ],
      "stateMutability": "view",
      "type": "function"
    },
    {
      "inputs": [
        {
          "internalType": "bytes32",
          "name": "role",
          "type": "bytes32"
        },
        {
          "internalType": "address",
          "name": "account",
          "type": "address"
        }
      ],
      "name": "renounceRole",
      "outputs": [],
      "stateMutability": "nonpayable",
      "type": "function"
    },
    {
      "inputs": [
        {
          "internalType": "bytes32",
          "name": "role",
          "type": "bytes32"
        },
        {
          "internalType": "address",
          "name": "account",
          "type": "address"
        }
      ],
      "name": "revokeRole",
      "outputs": [],
      "stateMutability": "nonpayable",
      "type": "function"
    },
    {
      "inputs": [
        {
          "internalType": "bytes4",
          "name": "interfaceId",
          "type": "bytes4"
        }
      ],
      "name": "supportsInterface",
      "outputs": [
        {
          "internalType": "bool",
          "name": "",
          "type": "bool"
        }
      ],
      "stateMutability": "view",
      "type": "function"
    }
  ],
  "transactionHash": "0x392ed7794f0d3c841980422628c84436a4d15b63220a80eb05b59320b5d0a21e",
  "args": [],
  "numDeployments": 1,
  "solcInputHash": "98ed655dfe93b2144762bf03a912e3f6",
  "bytecode": "0x608060405234801561001057600080fd5b506115e9806100206000396000f3fe608060405234801561001057600080fd5b50600436106101215760003560e01c806372271808116100ad578063a217fddf11610071578063a217fddf14610356578063c0ae8a7514610374578063c4d66de814610392578063d547741f146103ae578063d9bbf6e0146103ca57610121565b8063722718081461028a57806374bdb092146102a8578063888e81fb146102c65780638e975b35146102f657806391d148541461032657610121565b80632f2ff15d116100f45780632f2ff15d146101d457806336568abe146101f057806339d54d0c1461020c57806348d90d8f1461022a5780636d9930461461025a57610121565b806301ffc9a7146101265780631b24de2114610156578063248a9ca31461017457806324d7806c146101a4575b600080fd5b610140600480360381019061013b9190610e9c565b6103fa565b60405161014d9190610ee4565b60405180910390f35b61015e610474565b60405161016b9190610f18565b60405180910390f35b61018e60048036038101906101899190610f5f565b610498565b60405161019b9190610f18565b60405180910390f35b6101be60048036038101906101b99190610fea565b6104b8565b6040516101cb9190610ee4565b60405180910390f35b6101ee60048036038101906101e99190611017565b6104ce565b005b61020a60048036038101906102059190611017565b6104f7565b005b61021461057a565b6040516102219190610f18565b60405180910390f35b610244600480360381019061023f9190610fea565b61059e565b6040516102519190610ee4565b60405180910390f35b610274600480360381019061026f9190610fea565b6105d1565b6040516102819190610ee4565b60405180910390f35b610292610604565b60405161029f9190610f18565b60405180910390f35b6102b0610628565b6040516102bd9190610f18565b60405180910390f35b6102e060048036038101906102db9190610fea565b61064c565b6040516102ed9190610ee4565b60405180910390f35b610310600480360381019061030b9190610fea565b61067f565b60405161031d9190610ee4565b60405180910390f35b610340600480360381019061033b9190611017565b6106b2565b60405161034d9190610ee4565b60405180910390f35b61035e61071d565b60405161036b9190610f18565b60405180910390f35b61037c610724565b6040516103899190610f18565b60405180910390f35b6103ac60048036038101906103a79190610fea565b610748565b005b6103c860048036038101906103c39190611017565b610842565b005b6103e460048036038101906103df9190610fea565b61086b565b6040516103f19190610ee4565b60405180910390f35b60007f7965db0b000000000000000000000000000000000000000000000000000000007bffffffffffffffffffffffffffffffffffffffffffffffffffffffff1916827bffffffffffffffffffffffffffffffffffffffffffffffffffffffff1916148061046d575061046c8261089e565b5b9050919050565b7f9853b7a5924aa3ac0064e26b523f06a82e4ad6d82dd6aa8150e1575a5d3e938981565b600060656000838152602001908152602001600020600101549050919050565b60006104c76000801b836106b2565b9050919050565b6104d782610498565b6104e8816104e3610908565b610910565b6104f283836109ad565b505050565b6104ff610908565b73ffffffffffffffffffffffffffffffffffffffff168173ffffffffffffffffffffffffffffffffffffffff161461056c576040517f08c379a0000000000000000000000000000000000000000000000000000000008152600401610563906110da565b60405180910390fd5b6105768282610a8e565b5050565b7fcfe9d48ad608b4249cdca6cda16c703c7e3d0d5593d5218f4405037d156dfe1b81565b60006105ca7fe37bc3ef3c778fb811e4b79994c89086b5041b3c0a079b9607325b3abe412258836106b2565b9050919050565b60006105fd7f9853b7a5924aa3ac0064e26b523f06a82e4ad6d82dd6aa8150e1575a5d3e9389836106b2565b9050919050565b7f70716ce1e24ca391a3006db7aa251d06748c9a5057deb328bf4a5ec1b2bcb3e881565b7fbee2e640df22b89914439dc9451f3cdf1883a7a6d86c005ce72f72b39cd72b0d81565b60006106787fcfe9d48ad608b4249cdca6cda16c703c7e3d0d5593d5218f4405037d156dfe1b836106b2565b9050919050565b60006106ab7f70716ce1e24ca391a3006db7aa251d06748c9a5057deb328bf4a5ec1b2bcb3e8836106b2565b9050919050565b60006065600084815260200190815260200160002060000160008373ffffffffffffffffffffffffffffffffffffffff1673ffffffffffffffffffffffffffffffffffffffff16815260200190815260200160002060009054906101000a900460ff16905092915050565b6000801b81565b7fe37bc3ef3c778fb811e4b79994c89086b5041b3c0a079b9607325b3abe41225881565b600060019054906101000a900460ff166107705760008054906101000a900460ff1615610779565b610778610b70565b5b6107b8576040517f08c379a00000000000000000000000000000000000000000000000000000000081526004016107af9061116c565b60405180910390fd5b60008060019054906101000a900460ff161590508015610808576001600060016101000a81548160ff02191690831515021790555060016000806101000a81548160ff0219169083151502179055505b610810610b81565b61081d6000801b83610bd2565b801561083e5760008060016101000a81548160ff0219169083151502179055505b5050565b61084b82610498565b61085c81610857610908565b610910565b6108668383610a8e565b505050565b60006108977fbee2e640df22b89914439dc9451f3cdf1883a7a6d86c005ce72f72b39cd72b0d836106b2565b9050919050565b60007f01ffc9a7000000000000000000000000000000000000000000000000000000007bffffffffffffffffffffffffffffffffffffffffffffffffffffffff1916827bffffffffffffffffffffffffffffffffffffffffffffffffffffffff1916149050919050565b600033905090565b61091a82826106b2565b6109a95761093f8173ffffffffffffffffffffffffffffffffffffffff166014610be0565b61094d8360001c6020610be0565b60405160200161095e92919061129e565b6040516020818303038152906040526040517f08c379a00000000000000000000000000000000000000000000000000000000081526004016109a09190611322565b60405180910390fd5b5050565b6109b782826106b2565b610a8a5760016065600084815260200190815260200160002060000160008373ffffffffffffffffffffffffffffffffffffffff1673ffffffffffffffffffffffffffffffffffffffff16815260200190815260200160002060006101000a81548160ff021916908315150217905550610a2f610908565b73ffffffffffffffffffffffffffffffffffffffff168173ffffffffffffffffffffffffffffffffffffffff16837f2f8788117e7eff1d82e926ec794901d17c78024a50270940304540a733656f0d60405160405180910390a45b5050565b610a9882826106b2565b15610b6c5760006065600084815260200190815260200160002060000160008373ffffffffffffffffffffffffffffffffffffffff1673ffffffffffffffffffffffffffffffffffffffff16815260200190815260200160002060006101000a81548160ff021916908315150217905550610b11610908565b73ffffffffffffffffffffffffffffffffffffffff168173ffffffffffffffffffffffffffffffffffffffff16837ff6391f5c32d9c69d2a47ea670b442974b53935d1edc7fd64eb21e047a839171b60405160405180910390a45b5050565b6000610b7b30610e1c565b15905090565b600060019054906101000a900460ff16610bd0576040517f08c379a0000000000000000000000000000000000000000000000000000000008152600401610bc7906113b6565b60405180910390fd5b565b610bdc82826109ad565b5050565b606060006002836002610bf3919061140f565b610bfd9190611469565b67ffffffffffffffff811115610c1657610c156114bf565b5b6040519080825280601f01601f191660200182016040528015610c485781602001600182028036833780820191505090505b5090507f300000000000000000000000000000000000000000000000000000000000000081600081518110610c8057610c7f6114ee565b5b60200101907effffffffffffffffffffffffffffffffffffffffffffffffffffffffffffff1916908160001a9053507f780000000000000000000000000000000000000000000000000000000000000081600181518110610ce457610ce36114ee565b5b60200101907effffffffffffffffffffffffffffffffffffffffffffffffffffffffffffff1916908160001a90535060006001846002610d24919061140f565b610d2e9190611469565b90505b6001811115610dce577f3031323334353637383961626364656600000000000000000000000000000000600f861660108110610d7057610d6f6114ee565b5b1a60f81b828281518110610d8757610d866114ee565b5b60200101907effffffffffffffffffffffffffffffffffffffffffffffffffffffffffffff1916908160001a905350600485901c945080610dc79061151d565b9050610d31565b5060008414610e12576040517f08c379a0000000000000000000000000000000000000000000000000000000008152600401610e0990611593565b60405180910390fd5b8091505092915050565b6000808273ffffffffffffffffffffffffffffffffffffffff163b119050919050565b600080fd5b60007fffffffff0000000000000000000000000000000000000000000000000000000082169050919050565b610e7981610e44565b8114610e8457600080fd5b50565b600081359050610e9681610e70565b92915050565b600060208284031215610eb257610eb1610e3f565b5b6000610ec084828501610e87565b91505092915050565b60008115159050919050565b610ede81610ec9565b82525050565b6000602082019050610ef96000830184610ed5565b92915050565b6000819050919050565b610f1281610eff565b82525050565b6000602082019050610f2d6000830184610f09565b92915050565b610f3c81610eff565b8114610f4757600080fd5b50565b600081359050610f5981610f33565b92915050565b600060208284031215610f7557610f74610e3f565b5b6000610f8384828501610f4a565b91505092915050565b600073ffffffffffffffffffffffffffffffffffffffff82169050919050565b6000610fb782610f8c565b9050919050565b610fc781610fac565b8114610fd257600080fd5b50565b600081359050610fe481610fbe565b92915050565b60006020828403121561100057610fff610e3f565b5b600061100e84828501610fd5565b91505092915050565b6000806040838503121561102e5761102d610e3f565b5b600061103c85828601610f4a565b925050602061104d85828601610fd5565b9150509250929050565b600082825260208201905092915050565b7f416363657373436f6e74726f6c3a2063616e206f6e6c792072656e6f756e636560008201527f20726f6c657320666f722073656c660000000000000000000000000000000000602082015250565b60006110c4602f83611057565b91506110cf82611068565b604082019050919050565b600060208201905081810360008301526110f3816110b7565b9050919050565b7f496e697469616c697a61626c653a20636f6e747261637420697320616c72656160008201527f647920696e697469616c697a6564000000000000000000000000000000000000602082015250565b6000611156602e83611057565b9150611161826110fa565b604082019050919050565b6000602082019050818103600083015261118581611149565b9050919050565b600081905092915050565b7f416363657373436f6e74726f6c3a206163636f756e7420000000000000000000600082015250565b60006111cd60178361118c565b91506111d882611197565b601782019050919050565b600081519050919050565b60005b8381101561120c5780820151818401526020810190506111f1565b8381111561121b576000848401525b50505050565b600061122c826111e3565b611236818561118c565b93506112468185602086016111ee565b80840191505092915050565b7f206973206d697373696e6720726f6c6520000000000000000000000000000000600082015250565b600061128860118361118c565b915061129382611252565b601182019050919050565b60006112a9826111c0565b91506112b58285611221565b91506112c08261127b565b91506112cc8284611221565b91508190509392505050565b6000601f19601f8301169050919050565b60006112f4826111e3565b6112fe8185611057565b935061130e8185602086016111ee565b611317816112d8565b840191505092915050565b6000602082019050818103600083015261133c81846112e9565b905092915050565b7f496e697469616c697a61626c653a20636f6e7472616374206973206e6f74206960008201527f6e697469616c697a696e67000000000000000000000000000000000000000000602082015250565b60006113a0602b83611057565b91506113ab82611344565b604082019050919050565b600060208201905081810360008301526113cf81611393565b9050919050565b6000819050919050565b7f4e487b7100000000000000000000000000000000000000000000000000000000600052601160045260246000fd5b600061141a826113d6565b9150611425836113d6565b9250817fffffffffffffffffffffffffffffffffffffffffffffffffffffffffffffffff048311821515161561145e5761145d6113e0565b5b828202905092915050565b6000611474826113d6565b915061147f836113d6565b9250827fffffffffffffffffffffffffffffffffffffffffffffffffffffffffffffffff038211156114b4576114b36113e0565b5b828201905092915050565b7f4e487b7100000000000000000000000000000000000000000000000000000000600052604160045260246000fd5b7f4e487b7100000000000000000000000000000000000000000000000000000000600052603260045260246000fd5b6000611528826113d6565b9150600082141561153c5761153b6113e0565b5b600182039050919050565b7f537472696e67733a20686578206c656e67746820696e73756666696369656e74600082015250565b600061157d602083611057565b915061158882611547565b602082019050919050565b600060208201905081810360008301526115ac81611570565b905091905056fea26469706673582212208283ecd8a432cc23328b0d0d84b1ce2bcc53e61ff376c350dc69cb07c731171b64736f6c63430008090033",
  "devdoc": {
    "details": "This contract will track the roles and permissions in the RARA protocol",
    "kind": "dev",
    "methods": {
      "getRoleAdmin(bytes32)": {
        "details": "Returns the admin role that controls `role`. See {grantRole} and {revokeRole}. To change a role's admin, use {_setRoleAdmin}."
      },
      "grantRole(bytes32,address)": {
        "details": "Grants `role` to `account`. If `account` had not been already granted `role`, emits a {RoleGranted} event. Requirements: - the caller must have ``role``'s admin role."
      },
      "hasRole(bytes32,address)": {
        "details": "Returns `true` if `account` has been granted `role`."
      },
      "initialize(address)": {
        "details": "initializer to call after deployment, can only be called once"
      },
      "isAddressManagerAdmin(address)": {
        "details": "Determines if the specified address has permission to udpate addresses in the protocol",
        "params": {
          "potentialAddress": "Address to check"
        }
      },
      "isAdmin(address)": {
        "details": "Determines if the specified address is the owner account",
        "params": {
          "potentialAddress": "Address to check"
        }
      },
      "isCuratorSharesAdmin(address)": {
        "details": "Determines if the specified address has permission to mint and burn curator shares",
        "params": {
          "potentialAddress": "Address to check"
        }
      },
      "isCuratorVaultPurchaser(address)": {
        "details": "Determines if the specified address has permission to purchase curator vaults shares",
        "params": {
          "potentialAddress": "Address to check"
        }
      },
      "isParameterManagerAdmin(address)": {
        "details": "Determines if the specified address has permission to update parameters in the protocol",
        "params": {
          "potentialAddress": "Address to check"
        }
      },
      "isReactionNftAdmin(address)": {
        "details": "Determines if the specified address has permission to to mint and burn reaction NFTs",
        "params": {
          "potentialAddress": "Address to check"
        }
      },
      "renounceRole(bytes32,address)": {
        "details": "Revokes `role` from the calling account. Roles are often managed via {grantRole} and {revokeRole}: this function's purpose is to provide a mechanism for accounts to lose their privileges if they are compromised (such as when a trusted device is misplaced). If the calling account had been revoked `role`, emits a {RoleRevoked} event. Requirements: - the caller must be `account`."
      },
      "revokeRole(bytes32,address)": {
        "details": "Revokes `role` from `account`. If `account` had been granted `role`, emits a {RoleRevoked} event. Requirements: - the caller must have ``role``'s admin role."
      },
      "supportsInterface(bytes4)": {
        "details": "See {IERC165-supportsInterface}."
      }
    },
    "title": "RoleManager",
    "version": 1
  },
  "userdoc": {
    "kind": "user",
    "methods": {},
    "version": 1
  },
  "storageLayout": {
    "storage": [
      {
        "astId": 2797,
        "contract": "contracts/Permissions/RoleManager.sol:RoleManager",
        "label": "_initialized",
        "offset": 0,
        "slot": "0",
        "type": "t_bool"
      },
      {
        "astId": 2800,
        "contract": "contracts/Permissions/RoleManager.sol:RoleManager",
        "label": "_initializing",
        "offset": 1,
        "slot": "0",
        "type": "t_bool"
      },
      {
        "astId": 6620,
        "contract": "contracts/Permissions/RoleManager.sol:RoleManager",
        "label": "__gap",
        "offset": 0,
        "slot": "1",
        "type": "t_array(t_uint256)50_storage"
      },
      {
        "astId": 6867,
        "contract": "contracts/Permissions/RoleManager.sol:RoleManager",
        "label": "__gap",
        "offset": 0,
        "slot": "51",
        "type": "t_array(t_uint256)50_storage"
      },
      {
        "astId": 2428,
        "contract": "contracts/Permissions/RoleManager.sol:RoleManager",
        "label": "_roles",
        "offset": 0,
        "slot": "101",
        "type": "t_mapping(t_bytes32,t_struct(RoleData)2423_storage)"
      },
      {
        "astId": 2716,
        "contract": "contracts/Permissions/RoleManager.sol:RoleManager",
        "label": "__gap",
        "offset": 0,
        "slot": "102",
        "type": "t_array(t_uint256)49_storage"
      }
    ],
    "types": {
      "t_address": {
        "encoding": "inplace",
        "label": "address",
        "numberOfBytes": "20"
      },
      "t_array(t_uint256)49_storage": {
        "base": "t_uint256",
        "encoding": "inplace",
        "label": "uint256[49]",
        "numberOfBytes": "1568"
      },
      "t_array(t_uint256)50_storage": {
        "base": "t_uint256",
        "encoding": "inplace",
        "label": "uint256[50]",
        "numberOfBytes": "1600"
      },
      "t_bool": {
        "encoding": "inplace",
        "label": "bool",
        "numberOfBytes": "1"
      },
      "t_bytes32": {
        "encoding": "inplace",
        "label": "bytes32",
        "numberOfBytes": "32"
      },
      "t_mapping(t_address,t_bool)": {
        "encoding": "mapping",
        "key": "t_address",
        "label": "mapping(address => bool)",
        "numberOfBytes": "32",
        "value": "t_bool"
      },
      "t_mapping(t_bytes32,t_struct(RoleData)2423_storage)": {
        "encoding": "mapping",
        "key": "t_bytes32",
        "label": "mapping(bytes32 => struct AccessControlUpgradeable.RoleData)",
        "numberOfBytes": "32",
        "value": "t_struct(RoleData)2423_storage"
      },
      "t_struct(RoleData)2423_storage": {
        "encoding": "inplace",
        "label": "struct AccessControlUpgradeable.RoleData",
        "members": [
          {
            "astId": 2420,
            "contract": "contracts/Permissions/RoleManager.sol:RoleManager",
            "label": "members",
            "offset": 0,
            "slot": "0",
            "type": "t_mapping(t_address,t_bool)"
          },
          {
            "astId": 2422,
            "contract": "contracts/Permissions/RoleManager.sol:RoleManager",
            "label": "adminRole",
            "offset": 0,
            "slot": "1",
            "type": "t_bytes32"
          }
        ],
        "numberOfBytes": "64"
      },
      "t_uint256": {
        "encoding": "inplace",
        "label": "uint256",
        "numberOfBytes": "32"
      }
    }
  }
}