{
  "address": "0x9a3A16E10CC2F36b1deF55334897F679fD890926",
  "abi": [
    {
      "anonymous": false,
      "inputs": [
        {
          "indexed": false,
          "internalType": "uint8",
          "name": "version",
          "type": "uint8"
        }
      ],
      "name": "Initialized",
      "type": "event"
    },
    {
      "anonymous": false,
      "inputs": [
        {
          "indexed": true,
          "internalType": "bytes32",
          "name": "role",
          "type": "bytes32"
        },
        {
          "indexed": true,
          "internalType": "bytes32",
          "name": "previousAdminRole",
          "type": "bytes32"
        },
        {
          "indexed": true,
          "internalType": "bytes32",
          "name": "newAdminRole",
          "type": "bytes32"
        }
      ],
      "name": "RoleAdminChanged",
      "type": "event"
    },
    {
      "anonymous": false,
      "inputs": [
        {
          "indexed": true,
          "internalType": "bytes32",
          "name": "role",
          "type": "bytes32"
        },
        {
          "indexed": true,
          "internalType": "address",
          "name": "account",
          "type": "address"
        },
        {
          "indexed": true,
          "internalType": "address",
          "name": "sender",
          "type": "address"
        }
      ],
      "name": "RoleGranted",
      "type": "event"
    },
    {
      "anonymous": false,
      "inputs": [
        {
          "indexed": true,
          "internalType": "bytes32",
          "name": "role",
          "type": "bytes32"
        },
        {
          "indexed": true,
          "internalType": "address",
          "name": "account",
          "type": "address"
        },
        {
          "indexed": true,
          "internalType": "address",
          "name": "sender",
          "type": "address"
        }
      ],
      "name": "RoleRevoked",
      "type": "event"
    },
    {
      "inputs": [],
      "name": "ADDRESS_MANAGER_ADMIN",
      "outputs": [
        {
          "internalType": "bytes32",
          "name": "",
          "type": "bytes32"
        }
      ],
      "stateMutability": "view",
      "type": "function"
    },
    {
      "inputs": [],
      "name": "CURATOR_TOKEN_ADMIN",
      "outputs": [
        {
          "internalType": "bytes32",
          "name": "",
          "type": "bytes32"
        }
      ],
      "stateMutability": "view",
      "type": "function"
    },
    {
      "inputs": [],
      "name": "CURATOR_VAULT_PURCHASER",
      "outputs": [
        {
          "internalType": "bytes32",
          "name": "",
          "type": "bytes32"
        }
      ],
      "stateMutability": "view",
      "type": "function"
    },
    {
      "inputs": [],
      "name": "DEFAULT_ADMIN_ROLE",
      "outputs": [
        {
          "internalType": "bytes32",
          "name": "",
          "type": "bytes32"
        }
      ],
      "stateMutability": "view",
      "type": "function"
    },
    {
      "inputs": [],
      "name": "PARAMETER_MANAGER_ADMIN",
      "outputs": [
        {
          "internalType": "bytes32",
          "name": "",
          "type": "bytes32"
        }
      ],
      "stateMutability": "view",
      "type": "function"
    },
    {
      "inputs": [],
      "name": "REACTION_NFT_ADMIN",
      "outputs": [
        {
          "internalType": "bytes32",
          "name": "",
          "type": "bytes32"
        }
      ],
      "stateMutability": "view",
      "type": "function"
    },
    {
      "inputs": [
        {
          "internalType": "bytes32",
          "name": "role",
          "type": "bytes32"
        }
      ],
      "name": "getRoleAdmin",
      "outputs": [
        {
          "internalType": "bytes32",
          "name": "",
          "type": "bytes32"
        }
      ],
      "stateMutability": "view",
      "type": "function"
    },
    {
      "inputs": [
        {
          "internalType": "bytes32",
          "name": "role",
          "type": "bytes32"
        },
        {
          "internalType": "address",
          "name": "account",
          "type": "address"
        }
      ],
      "name": "grantRole",
      "outputs": [],
      "stateMutability": "nonpayable",
      "type": "function"
    },
    {
      "inputs": [
        {
          "internalType": "bytes32",
          "name": "role",
          "type": "bytes32"
        },
        {
          "internalType": "address",
          "name": "account",
          "type": "address"
        }
      ],
      "name": "hasRole",
      "outputs": [
        {
          "internalType": "bool",
          "name": "",
          "type": "bool"
        }
      ],
      "stateMutability": "view",
      "type": "function"
    },
    {
      "inputs": [
        {
          "internalType": "address",
          "name": "protocolAdmin",
          "type": "address"
        }
      ],
      "name": "initialize",
      "outputs": [],
      "stateMutability": "nonpayable",
      "type": "function"
    },
    {
      "inputs": [
        {
          "internalType": "address",
          "name": "potentialAddress",
          "type": "address"
        }
      ],
      "name": "isAddressManagerAdmin",
      "outputs": [
        {
          "internalType": "bool",
          "name": "",
          "type": "bool"
        }
      ],
      "stateMutability": "view",
      "type": "function"
    },
    {
      "inputs": [
        {
          "internalType": "address",
          "name": "potentialAddress",
          "type": "address"
        }
      ],
      "name": "isAdmin",
      "outputs": [
        {
          "internalType": "bool",
          "name": "",
          "type": "bool"
        }
      ],
      "stateMutability": "view",
      "type": "function"
    },
    {
      "inputs": [
        {
          "internalType": "address",
          "name": "potentialAddress",
          "type": "address"
        }
      ],
      "name": "isCuratorTokenAdmin",
      "outputs": [
        {
          "internalType": "bool",
          "name": "",
          "type": "bool"
        }
      ],
      "stateMutability": "view",
      "type": "function"
    },
    {
      "inputs": [
        {
          "internalType": "address",
          "name": "potentialAddress",
          "type": "address"
        }
      ],
      "name": "isCuratorVaultPurchaser",
      "outputs": [
        {
          "internalType": "bool",
          "name": "",
          "type": "bool"
        }
      ],
      "stateMutability": "view",
      "type": "function"
    },
    {
      "inputs": [
        {
          "internalType": "address",
          "name": "potentialAddress",
          "type": "address"
        }
      ],
      "name": "isParameterManagerAdmin",
      "outputs": [
        {
          "internalType": "bool",
          "name": "",
          "type": "bool"
        }
      ],
      "stateMutability": "view",
      "type": "function"
    },
    {
      "inputs": [
        {
          "internalType": "address",
          "name": "potentialAddress",
          "type": "address"
        }
      ],
      "name": "isReactionNftAdmin",
      "outputs": [
        {
          "internalType": "bool",
          "name": "",
          "type": "bool"
        }
      ],
      "stateMutability": "view",
      "type": "function"
    },
    {
      "inputs": [
        {
          "internalType": "bytes32",
          "name": "role",
          "type": "bytes32"
        },
        {
          "internalType": "address",
          "name": "account",
          "type": "address"
        }
      ],
      "name": "renounceRole",
      "outputs": [],
      "stateMutability": "nonpayable",
      "type": "function"
    },
    {
      "inputs": [
        {
          "internalType": "bytes32",
          "name": "role",
          "type": "bytes32"
        },
        {
          "internalType": "address",
          "name": "account",
          "type": "address"
        }
      ],
      "name": "revokeRole",
      "outputs": [],
      "stateMutability": "nonpayable",
      "type": "function"
    },
    {
      "inputs": [
        {
          "internalType": "bytes4",
          "name": "interfaceId",
          "type": "bytes4"
        }
      ],
      "name": "supportsInterface",
      "outputs": [
        {
          "internalType": "bool",
          "name": "",
          "type": "bool"
        }
      ],
      "stateMutability": "view",
      "type": "function"
    }
  ],
  "transactionHash": "0x4830d42b6fbde8b4d7af50348ffd9252b3e019be87e1a9f5cae684e2fbb872f9",
  "args": [],
  "numDeployments": 1,
  "solcInputHash": "e5086af1310b7ca1d6194e2a0e3afebd",
  "bytecode": "0x608060405234801561001057600080fd5b50611777806100206000396000f3fe608060405234801561001057600080fd5b50600436106101215760003560e01c806372271808116100ad578063a217fddf11610071578063a217fddf14610344578063c4d66de814610362578063d547741f1461037e578063d9bbf6e01461039a578063fbac0352146103ca57610121565b8063722718081461027857806374bdb09214610296578063888e81fb146102b45780638e975b35146102e457806391d148541461031457610121565b8063294f73fb116100f4578063294f73fb146101d45780632f2ff15d146101f257806336568abe1461020e57806339d54d0c1461022a5780636d9930461461024857610121565b806301ffc9a7146101265780631b24de2114610156578063248a9ca31461017457806324d7806c146101a4575b600080fd5b610140600480360381019061013b9190610f51565b6103fa565b60405161014d9190610f99565b60405180910390f35b61015e610474565b60405161016b9190610fcd565b60405180910390f35b61018e60048036038101906101899190611014565b610498565b60405161019b9190610fcd565b60405180910390f35b6101be60048036038101906101b9919061109f565b6104b8565b6040516101cb9190610f99565b60405180910390f35b6101dc6104ce565b6040516101e99190610fcd565b60405180910390f35b61020c600480360381019061020791906110cc565b6104f2565b005b610228600480360381019061022391906110cc565b610513565b005b610232610596565b60405161023f9190610fcd565b60405180910390f35b610262600480360381019061025d919061109f565b6105ba565b60405161026f9190610f99565b60405180910390f35b6102806105ed565b60405161028d9190610fcd565b60405180910390f35b61029e610611565b6040516102ab9190610fcd565b60405180910390f35b6102ce60048036038101906102c9919061109f565b610635565b6040516102db9190610f99565b60405180910390f35b6102fe60048036038101906102f9919061109f565b610668565b60405161030b9190610f99565b60405180910390f35b61032e600480360381019061032991906110cc565b61069b565b60405161033b9190610f99565b60405180910390f35b61034c610706565b6040516103599190610fcd565b60405180910390f35b61037c6004803603810190610377919061109f565b61070d565b005b610398600480360381019061039391906110cc565b6108c9565b005b6103b460048036038101906103af919061109f565b6108ea565b6040516103c19190610f99565b60405180910390f35b6103e460048036038101906103df919061109f565b61091d565b6040516103f19190610f99565b60405180910390f35b60007f7965db0b000000000000000000000000000000000000000000000000000000007bffffffffffffffffffffffffffffffffffffffffffffffffffffffff1916827bffffffffffffffffffffffffffffffffffffffffffffffffffffffff1916148061046d575061046c82610950565b5b9050919050565b7f9853b7a5924aa3ac0064e26b523f06a82e4ad6d82dd6aa8150e1575a5d3e938981565b600060656000838152602001908152602001600020600101549050919050565b60006104c76000801b8361069b565b9050919050565b7f138efe8f12f8282cab3476701bdff50ec2a1a9b483cc61e09a1ed9823a93fe8081565b6104fb82610498565b610504816109ba565b61050e83836109ce565b505050565b61051b610aaf565b73ffffffffffffffffffffffffffffffffffffffff168173ffffffffffffffffffffffffffffffffffffffff1614610588576040517f08c379a000000000000000000000000000000000000000000000000000000000815260040161057f9061118f565b60405180910390fd5b6105928282610ab7565b5050565b7fcfe9d48ad608b4249cdca6cda16c703c7e3d0d5593d5218f4405037d156dfe1b81565b60006105e67f9853b7a5924aa3ac0064e26b523f06a82e4ad6d82dd6aa8150e1575a5d3e93898361069b565b9050919050565b7f70716ce1e24ca391a3006db7aa251d06748c9a5057deb328bf4a5ec1b2bcb3e881565b7fbee2e640df22b89914439dc9451f3cdf1883a7a6d86c005ce72f72b39cd72b0d81565b60006106617fcfe9d48ad608b4249cdca6cda16c703c7e3d0d5593d5218f4405037d156dfe1b8361069b565b9050919050565b60006106947f70716ce1e24ca391a3006db7aa251d06748c9a5057deb328bf4a5ec1b2bcb3e88361069b565b9050919050565b60006065600084815260200190815260200160002060000160008373ffffffffffffffffffffffffffffffffffffffff1673ffffffffffffffffffffffffffffffffffffffff16815260200190815260200160002060009054906101000a900460ff16905092915050565b6000801b81565b60008060019054906101000a900460ff1615905080801561073e5750600160008054906101000a900460ff1660ff16105b8061076b575061074d30610b99565b15801561076a5750600160008054906101000a900460ff1660ff16145b5b6107aa576040517f08c379a00000000000000000000000000000000000000000000000000000000081526004016107a190611221565b60405180910390fd5b60016000806101000a81548160ff021916908360ff16021790555080156107e7576001600060016101000a81548160ff0219169083151502179055505b600073ffffffffffffffffffffffffffffffffffffffff168273ffffffffffffffffffffffffffffffffffffffff161415610857576040517f08c379a000000000000000000000000000000000000000000000000000000000815260040161084e9061128d565b60405180910390fd5b61085f610bbc565b61086c6000801b83610c0d565b80156108c55760008060016101000a81548160ff0219169083151502179055507f7f26b83ff96e1f2b6a682f133852f6798a09c465da95921460cefb384740249860016040516108bc91906112ff565b60405180910390a15b5050565b6108d282610498565b6108db816109ba565b6108e58383610ab7565b505050565b60006109167fbee2e640df22b89914439dc9451f3cdf1883a7a6d86c005ce72f72b39cd72b0d8361069b565b9050919050565b60006109497f138efe8f12f8282cab3476701bdff50ec2a1a9b483cc61e09a1ed9823a93fe808361069b565b9050919050565b60007f01ffc9a7000000000000000000000000000000000000000000000000000000007bffffffffffffffffffffffffffffffffffffffffffffffffffffffff1916827bffffffffffffffffffffffffffffffffffffffffffffffffffffffff1916149050919050565b6109cb816109c6610aaf565b610c1b565b50565b6109d8828261069b565b610aab5760016065600084815260200190815260200160002060000160008373ffffffffffffffffffffffffffffffffffffffff1673ffffffffffffffffffffffffffffffffffffffff16815260200190815260200160002060006101000a81548160ff021916908315150217905550610a50610aaf565b73ffffffffffffffffffffffffffffffffffffffff168173ffffffffffffffffffffffffffffffffffffffff16837f2f8788117e7eff1d82e926ec794901d17c78024a50270940304540a733656f0d60405160405180910390a45b5050565b600033905090565b610ac1828261069b565b15610b955760006065600084815260200190815260200160002060000160008373ffffffffffffffffffffffffffffffffffffffff1673ffffffffffffffffffffffffffffffffffffffff16815260200190815260200160002060006101000a81548160ff021916908315150217905550610b3a610aaf565b73ffffffffffffffffffffffffffffffffffffffff168173ffffffffffffffffffffffffffffffffffffffff16837ff6391f5c32d9c69d2a47ea670b442974b53935d1edc7fd64eb21e047a839171b60405160405180910390a45b5050565b6000808273ffffffffffffffffffffffffffffffffffffffff163b119050919050565b600060019054906101000a900460ff16610c0b576040517f08c379a0000000000000000000000000000000000000000000000000000000008152600401610c029061138c565b60405180910390fd5b565b610c1782826109ce565b5050565b610c25828261069b565b610cb457610c4a8173ffffffffffffffffffffffffffffffffffffffff166014610cb8565b610c588360001c6020610cb8565b604051602001610c699291906114be565b6040516020818303038152906040526040517f08c379a0000000000000000000000000000000000000000000000000000000008152600401610cab9190611542565b60405180910390fd5b5050565b606060006002836002610ccb919061159d565b610cd591906115f7565b67ffffffffffffffff811115610cee57610ced61164d565b5b6040519080825280601f01601f191660200182016040528015610d205781602001600182028036833780820191505090505b5090507f300000000000000000000000000000000000000000000000000000000000000081600081518110610d5857610d5761167c565b5b60200101907effffffffffffffffffffffffffffffffffffffffffffffffffffffffffffff1916908160001a9053507f780000000000000000000000000000000000000000000000000000000000000081600181518110610dbc57610dbb61167c565b5b60200101907effffffffffffffffffffffffffffffffffffffffffffffffffffffffffffff1916908160001a90535060006001846002610dfc919061159d565b610e0691906115f7565b90505b6001811115610ea6577f3031323334353637383961626364656600000000000000000000000000000000600f861660108110610e4857610e4761167c565b5b1a60f81b828281518110610e5f57610e5e61167c565b5b60200101907effffffffffffffffffffffffffffffffffffffffffffffffffffffffffffff1916908160001a905350600485901c945080610e9f906116ab565b9050610e09565b5060008414610eea576040517f08c379a0000000000000000000000000000000000000000000000000000000008152600401610ee190611721565b60405180910390fd5b8091505092915050565b600080fd5b60007fffffffff0000000000000000000000000000000000000000000000000000000082169050919050565b610f2e81610ef9565b8114610f3957600080fd5b50565b600081359050610f4b81610f25565b92915050565b600060208284031215610f6757610f66610ef4565b5b6000610f7584828501610f3c565b91505092915050565b60008115159050919050565b610f9381610f7e565b82525050565b6000602082019050610fae6000830184610f8a565b92915050565b6000819050919050565b610fc781610fb4565b82525050565b6000602082019050610fe26000830184610fbe565b92915050565b610ff181610fb4565b8114610ffc57600080fd5b50565b60008135905061100e81610fe8565b92915050565b60006020828403121561102a57611029610ef4565b5b600061103884828501610fff565b91505092915050565b600073ffffffffffffffffffffffffffffffffffffffff82169050919050565b600061106c82611041565b9050919050565b61107c81611061565b811461108757600080fd5b50565b60008135905061109981611073565b92915050565b6000602082840312156110b5576110b4610ef4565b5b60006110c38482850161108a565b91505092915050565b600080604083850312156110e3576110e2610ef4565b5b60006110f185828601610fff565b92505060206111028582860161108a565b9150509250929050565b600082825260208201905092915050565b7f416363657373436f6e74726f6c3a2063616e206f6e6c792072656e6f756e636560008201527f20726f6c657320666f722073656c660000000000000000000000000000000000602082015250565b6000611179602f8361110c565b91506111848261111d565b604082019050919050565b600060208201905081810360008301526111a88161116c565b9050919050565b7f496e697469616c697a61626c653a20636f6e747261637420697320616c72656160008201527f647920696e697469616c697a6564000000000000000000000000000000000000602082015250565b600061120b602e8361110c565b9150611216826111af565b604082019050919050565b6000602082019050818103600083015261123a816111fe565b9050919050565b7f496e76616c6964203020696e7075740000000000000000000000000000000000600082015250565b6000611277600f8361110c565b915061128282611241565b602082019050919050565b600060208201905081810360008301526112a68161126a565b9050919050565b6000819050919050565b600060ff82169050919050565b6000819050919050565b60006112e96112e46112df846112ad565b6112c4565b6112b7565b9050919050565b6112f9816112ce565b82525050565b600060208201905061131460008301846112f0565b92915050565b7f496e697469616c697a61626c653a20636f6e7472616374206973206e6f74206960008201527f6e697469616c697a696e67000000000000000000000000000000000000000000602082015250565b6000611376602b8361110c565b91506113818261131a565b604082019050919050565b600060208201905081810360008301526113a581611369565b9050919050565b600081905092915050565b7f416363657373436f6e74726f6c3a206163636f756e7420000000000000000000600082015250565b60006113ed6017836113ac565b91506113f8826113b7565b601782019050919050565b600081519050919050565b60005b8381101561142c578082015181840152602081019050611411565b8381111561143b576000848401525b50505050565b600061144c82611403565b61145681856113ac565b935061146681856020860161140e565b80840191505092915050565b7f206973206d697373696e6720726f6c6520000000000000000000000000000000600082015250565b60006114a86011836113ac565b91506114b382611472565b601182019050919050565b60006114c9826113e0565b91506114d58285611441565b91506114e08261149b565b91506114ec8284611441565b91508190509392505050565b6000601f19601f8301169050919050565b600061151482611403565b61151e818561110c565b935061152e81856020860161140e565b611537816114f8565b840191505092915050565b6000602082019050818103600083015261155c8184611509565b905092915050565b6000819050919050565b7f4e487b7100000000000000000000000000000000000000000000000000000000600052601160045260246000fd5b60006115a882611564565b91506115b383611564565b9250817fffffffffffffffffffffffffffffffffffffffffffffffffffffffffffffffff04831182151516156115ec576115eb61156e565b5b828202905092915050565b600061160282611564565b915061160d83611564565b9250827fffffffffffffffffffffffffffffffffffffffffffffffffffffffffffffffff038211156116425761164161156e565b5b828201905092915050565b7f4e487b7100000000000000000000000000000000000000000000000000000000600052604160045260246000fd5b7f4e487b7100000000000000000000000000000000000000000000000000000000600052603260045260246000fd5b60006116b682611564565b915060008214156116ca576116c961156e565b5b600182039050919050565b7f537472696e67733a20686578206c656e67746820696e73756666696369656e74600082015250565b600061170b60208361110c565b9150611716826116d5565b602082019050919050565b6000602082019050818103600083015261173a816116fe565b905091905056fea2646970667358221220a2639348599fafa296010ec84afec9b25205a1cca5235c9a3fd75d373f6c106d64736f6c63430008090033",
  "devdoc": {
    "details": "This contract will track the roles and permissions in the RARA protocol Note: This contract is protected via a permissioned account set via the initializer.  Caution should be used as the owner could renounce the role leaving all future actions disabled.  Additionally, if a malicious account was able to obtain the role, they could use it to grant permissions to malicious accounts. See the public documentation website for more details.",
    "kind": "dev",
    "methods": {
      "getRoleAdmin(bytes32)": {
        "details": "Returns the admin role that controls `role`. See {grantRole} and {revokeRole}. To change a role's admin, use {_setRoleAdmin}."
      },
      "grantRole(bytes32,address)": {
        "details": "Grants `role` to `account`. If `account` had not been already granted `role`, emits a {RoleGranted} event. Requirements: - the caller must have ``role``'s admin role. May emit a {RoleGranted} event."
      },
      "hasRole(bytes32,address)": {
        "details": "Returns `true` if `account` has been granted `role`."
      },
      "initialize(address)": {
        "details": "initializer to call after deployment, can only be called once"
      },
      "isAddressManagerAdmin(address)": {
        "details": "Determines if the specified address has permission to udpate addresses in the protocol",
        "params": {
          "potentialAddress": "Address to check"
        }
      },
      "isAdmin(address)": {
        "details": "Determines if the specified address is the owner account",
        "params": {
          "potentialAddress": "Address to check"
        }
      },
      "isCuratorTokenAdmin(address)": {
        "details": "Determines if the specified address has permission to mint and burn curator token",
        "params": {
          "potentialAddress": "Address to check"
        }
      },
      "isCuratorVaultPurchaser(address)": {
        "details": "Determines if the specified address has permission to purchase curator vaults token",
        "params": {
          "potentialAddress": "Address to check"
        }
      },
      "isParameterManagerAdmin(address)": {
        "details": "Determines if the specified address has permission to update parameters in the protocol",
        "params": {
          "potentialAddress": "Address to check"
        }
      },
      "isReactionNftAdmin(address)": {
        "details": "Determines if the specified address has permission to to mint and burn reaction NFTs",
        "params": {
          "potentialAddress": "Address to check"
        }
      },
      "renounceRole(bytes32,address)": {
        "details": "Revokes `role` from the calling account. Roles are often managed via {grantRole} and {revokeRole}: this function's purpose is to provide a mechanism for accounts to lose their privileges if they are compromised (such as when a trusted device is misplaced). If the calling account had been revoked `role`, emits a {RoleRevoked} event. Requirements: - the caller must be `account`. May emit a {RoleRevoked} event."
      },
      "revokeRole(bytes32,address)": {
        "details": "Revokes `role` from `account`. If `account` had been granted `role`, emits a {RoleRevoked} event. Requirements: - the caller must have ``role``'s admin role. May emit a {RoleRevoked} event."
      },
      "supportsInterface(bytes4)": {
        "details": "See {IERC165-supportsInterface}."
      }
    },
    "title": "RoleManager",
    "version": 1
  },
  "userdoc": {
    "kind": "user",
    "methods": {},
    "version": 1
  },
  "storageLayout": {
    "storage": [
      {
        "astId": 2366,
        "contract": "contracts/Permissions/RoleManager.sol:RoleManager",
        "label": "_initialized",
        "offset": 0,
        "slot": "0",
        "type": "t_uint8"
      },
      {
        "astId": 2369,
        "contract": "contracts/Permissions/RoleManager.sol:RoleManager",
        "label": "_initializing",
        "offset": 1,
        "slot": "0",
        "type": "t_bool"
      },
      {
        "astId": 6485,
        "contract": "contracts/Permissions/RoleManager.sol:RoleManager",
        "label": "__gap",
        "offset": 0,
        "slot": "1",
        "type": "t_array(t_uint256)50_storage"
      },
      {
        "astId": 6755,
        "contract": "contracts/Permissions/RoleManager.sol:RoleManager",
        "label": "__gap",
        "offset": 0,
        "slot": "51",
        "type": "t_array(t_uint256)50_storage"
      },
      {
        "astId": 1986,
        "contract": "contracts/Permissions/RoleManager.sol:RoleManager",
        "label": "_roles",
        "offset": 0,
        "slot": "101",
        "type": "t_mapping(t_bytes32,t_struct(RoleData)1981_storage)"
      },
      {
        "astId": 2285,
        "contract": "contracts/Permissions/RoleManager.sol:RoleManager",
        "label": "__gap",
        "offset": 0,
        "slot": "102",
        "type": "t_array(t_uint256)49_storage"
      }
    ],
    "types": {
      "t_address": {
        "encoding": "inplace",
        "label": "address",
        "numberOfBytes": "20"
      },
      "t_array(t_uint256)49_storage": {
        "base": "t_uint256",
        "encoding": "inplace",
        "label": "uint256[49]",
        "numberOfBytes": "1568"
      },
      "t_array(t_uint256)50_storage": {
        "base": "t_uint256",
        "encoding": "inplace",
        "label": "uint256[50]",
        "numberOfBytes": "1600"
      },
      "t_bool": {
        "encoding": "inplace",
        "label": "bool",
        "numberOfBytes": "1"
      },
      "t_bytes32": {
        "encoding": "inplace",
        "label": "bytes32",
        "numberOfBytes": "32"
      },
      "t_mapping(t_address,t_bool)": {
        "encoding": "mapping",
        "key": "t_address",
        "label": "mapping(address => bool)",
        "numberOfBytes": "32",
        "value": "t_bool"
      },
      "t_mapping(t_bytes32,t_struct(RoleData)1981_storage)": {
        "encoding": "mapping",
        "key": "t_bytes32",
        "label": "mapping(bytes32 => struct AccessControlUpgradeable.RoleData)",
        "numberOfBytes": "32",
        "value": "t_struct(RoleData)1981_storage"
      },
      "t_struct(RoleData)1981_storage": {
        "encoding": "inplace",
        "label": "struct AccessControlUpgradeable.RoleData",
        "members": [
          {
            "astId": 1978,
            "contract": "contracts/Permissions/RoleManager.sol:RoleManager",
            "label": "members",
            "offset": 0,
            "slot": "0",
            "type": "t_mapping(t_address,t_bool)"
          },
          {
            "astId": 1980,
            "contract": "contracts/Permissions/RoleManager.sol:RoleManager",
            "label": "adminRole",
            "offset": 0,
            "slot": "1",
            "type": "t_bytes32"
          }
        ],
        "numberOfBytes": "64"
      },
      "t_uint256": {
        "encoding": "inplace",
        "label": "uint256",
        "numberOfBytes": "32"
      },
      "t_uint8": {
        "encoding": "inplace",
        "label": "uint8",
        "numberOfBytes": "1"
      }
    }
  }
}