{
  "address": "0x413d66B1c4EeFc5D21DB743539C26329fCFF6104",
  "abi": [
    {
      "anonymous": false,
      "inputs": [
        {
          "indexed": true,
          "internalType": "uint256",
          "name": "curatorShareTokenId",
          "type": "uint256"
        },
        {
          "indexed": false,
          "internalType": "uint256",
          "name": "nftChainId",
          "type": "uint256"
        },
        {
          "indexed": false,
          "internalType": "address",
          "name": "nftAddress",
          "type": "address"
        },
        {
          "indexed": false,
          "internalType": "uint256",
          "name": "nftId",
          "type": "uint256"
        },
        {
          "indexed": false,
          "internalType": "contract IERC20Upgradeable",
          "name": "paymentToken",
          "type": "address"
        },
        {
          "indexed": false,
          "internalType": "uint256",
          "name": "paymentTokenPaid",
          "type": "uint256"
        },
        {
          "indexed": false,
          "internalType": "uint256",
          "name": "curatorSharesBought",
          "type": "uint256"
        },
        {
          "indexed": false,
          "internalType": "bool",
          "name": "isTakerPosition",
          "type": "bool"
        }
      ],
      "name": "CuratorSharesBought",
      "type": "event"
    },
    {
      "anonymous": false,
      "inputs": [
        {
          "indexed": true,
          "internalType": "uint256",
          "name": "curatorShareTokenId",
          "type": "uint256"
        },
        {
          "indexed": false,
          "internalType": "uint256",
          "name": "paymentTokenRefunded",
          "type": "uint256"
        },
        {
          "indexed": false,
          "internalType": "uint256",
          "name": "curatorSharesSold",
          "type": "uint256"
        }
      ],
      "name": "CuratorSharesSold",
      "type": "event"
    },
    {
      "inputs": [],
      "name": "addressManager",
      "outputs": [
        {
          "internalType": "contract IAddressManager",
          "name": "",
          "type": "address"
        }
      ],
      "stateMutability": "view",
      "type": "function"
    },
    {
      "inputs": [
        {
          "internalType": "uint256",
          "name": "nftChainId",
          "type": "uint256"
        },
        {
          "internalType": "address",
          "name": "nftAddress",
          "type": "address"
        },
        {
          "internalType": "uint256",
          "name": "nftId",
          "type": "uint256"
        },
        {
          "internalType": "contract IERC20Upgradeable",
          "name": "paymentToken",
          "type": "address"
        },
        {
          "internalType": "uint256",
          "name": "paymentAmount",
          "type": "uint256"
        },
        {
          "internalType": "address",
          "name": "mintToAddress",
          "type": "address"
        },
        {
          "internalType": "bool",
          "name": "isTakerPosition",
          "type": "bool"
        }
      ],
      "name": "buyCuratorShares",
      "outputs": [
        {
          "internalType": "uint256",
          "name": "",
          "type": "uint256"
        }
      ],
      "stateMutability": "nonpayable",
      "type": "function"
    },
    {
      "inputs": [
        {
          "internalType": "int256",
          "name": "a",
          "type": "int256"
        },
        {
          "internalType": "int256",
          "name": "b",
          "type": "int256"
        },
        {
          "internalType": "int256",
          "name": "c",
          "type": "int256"
        },
        {
          "internalType": "int256",
          "name": "currentSharesSupply",
          "type": "int256"
        },
        {
          "internalType": "int256",
          "name": "paymentReserves",
          "type": "int256"
        },
        {
          "internalType": "int256",
          "name": "sharesToSell",
          "type": "int256"
        }
      ],
      "name": "calculatePaymentReturnedFromShares",
      "outputs": [
        {
          "internalType": "uint256",
          "name": "",
          "type": "uint256"
        }
      ],
      "stateMutability": "pure",
      "type": "function"
    },
    {
      "inputs": [
        {
          "internalType": "int256",
          "name": "a",
          "type": "int256"
        },
        {
          "internalType": "int256",
          "name": "b",
          "type": "int256"
        },
        {
          "internalType": "int256",
          "name": "c",
          "type": "int256"
        },
        {
          "internalType": "int256",
          "name": "currentSharesSupply",
          "type": "int256"
        },
        {
          "internalType": "int256",
          "name": "paymentReserves",
          "type": "int256"
        },
        {
          "internalType": "int256",
          "name": "paymentToSpend",
          "type": "int256"
        }
      ],
      "name": "calculateSharesBoughtFromPayment",
      "outputs": [
        {
          "internalType": "uint256",
          "name": "",
          "type": "uint256"
        }
      ],
      "stateMutability": "pure",
      "type": "function"
    },
    {
      "inputs": [
        {
          "internalType": "uint256",
          "name": "",
          "type": "uint256"
        }
      ],
      "name": "curatorShareSupply",
      "outputs": [
        {
          "internalType": "uint256",
          "name": "",
          "type": "uint256"
        }
      ],
      "stateMutability": "view",
      "type": "function"
    },
    {
      "inputs": [],
      "name": "curatorShares",
      "outputs": [
        {
          "internalType": "contract IStandard1155",
          "name": "",
          "type": "address"
        }
      ],
      "stateMutability": "view",
      "type": "function"
    },
    {
      "inputs": [
        {
          "internalType": "uint256",
          "name": "nftChainId",
          "type": "uint256"
        },
        {
          "internalType": "address",
          "name": "nftAddress",
          "type": "address"
        },
        {
          "internalType": "uint256",
          "name": "nftId",
          "type": "uint256"
        },
        {
          "internalType": "contract IERC20Upgradeable",
          "name": "paymentToken",
          "type": "address"
        }
      ],
      "name": "getTokenId",
      "outputs": [
        {
          "internalType": "uint256",
          "name": "",
          "type": "uint256"
        }
      ],
      "stateMutability": "pure",
      "type": "function"
    },
    {
      "inputs": [
        {
          "internalType": "address",
          "name": "_addressManager",
          "type": "address"
        },
        {
          "internalType": "contract IStandard1155",
          "name": "_curatorShares",
          "type": "address"
        }
      ],
      "name": "initialize",
      "outputs": [],
      "stateMutability": "nonpayable",
      "type": "function"
    },
    {
      "inputs": [
        {
          "internalType": "uint256",
          "name": "",
          "type": "uint256"
        }
      ],
      "name": "reserves",
      "outputs": [
        {
          "internalType": "uint256",
          "name": "",
          "type": "uint256"
        }
      ],
      "stateMutability": "view",
      "type": "function"
    },
    {
      "inputs": [
        {
          "internalType": "uint256",
          "name": "nftChainId",
          "type": "uint256"
        },
        {
          "internalType": "address",
          "name": "nftAddress",
          "type": "address"
        },
        {
          "internalType": "uint256",
          "name": "nftId",
          "type": "uint256"
        },
        {
          "internalType": "contract IERC20Upgradeable",
          "name": "paymentToken",
          "type": "address"
        },
        {
          "internalType": "uint256",
          "name": "sharesToBurn",
          "type": "uint256"
        },
        {
          "internalType": "address",
          "name": "refundToAddress",
          "type": "address"
        }
      ],
      "name": "sellCuratorShares",
      "outputs": [
        {
          "internalType": "uint256",
          "name": "",
          "type": "uint256"
        }
      ],
      "stateMutability": "nonpayable",
      "type": "function"
    }
  ],
  "transactionHash": "0x7f74ad9f5f349250f9251d53ad97462f28933fc5184b084f1c4a729b74c20108",
  "args": [],
  "numDeployments": 1,
  "solcInputHash": "98ed655dfe93b2144762bf03a912e3f6",
  "bytecode": "0x608060405234801561001057600080fd5b50612894806100206000396000f3fe608060405234801561001057600080fd5b506004361061009e5760003560e01c806383191dd91161006657806383191dd91461015b5780638334278d1461018b578063a550fcf1146101bb578063a82f4bf4146101eb578063a867a40d1461021b5761009e565b806317e1816c146100a35780633ab76e9f146100d3578063485cc955146100f15780635a67882a1461010d578063733b00161461012b575b600080fd5b6100bd60048036038101906100b8919061166f565b61024b565b6040516100ca91906116e5565b60405180910390f35b6100db610263565b6040516100e8919061175f565b60405180910390f35b61010b600480360381019061010691906117b8565b610289565b005b6101156103f1565b6040516101229190611819565b60405180910390f35b61014560048036038101906101409190611834565b610417565b60405161015291906116e5565b60405180910390f35b61017560048036038101906101709190611897565b61042f565b60405161018291906116e5565b60405180910390f35b6101a560048036038101906101a09190611834565b6104d2565b6040516101b291906116e5565b60405180910390f35b6101d560048036038101906101d0919061195c565b6104ea565b6040516101e291906116e5565b60405180910390f35b61020560048036038101906102009190611897565b610980565b60405161021291906116e5565b60405180910390f35b610235600480360381019061023091906119fe565b610a3f565b60405161024291906116e5565b60405180910390f35b600061025985858585610da9565b9050949350505050565b603360009054906101000a900473ffffffffffffffffffffffffffffffffffffffff1681565b600060019054906101000a900460ff166102b15760008054906101000a900460ff16156102ba565b6102b9610de5565b5b6102f9576040517f08c379a00000000000000000000000000000000000000000000000000000000081526004016102f090611b0e565b60405180910390fd5b60008060019054906101000a900460ff161590508015610349576001600060016101000a81548160ff02191690831515021790555060016000806101000a81548160ff0219169083151502179055505b82603360006101000a81548173ffffffffffffffffffffffffffffffffffffffff021916908373ffffffffffffffffffffffffffffffffffffffff16021790555081603660006101000a81548173ffffffffffffffffffffffffffffffffffffffff021916908373ffffffffffffffffffffffffffffffffffffffff16021790555080156103ec5760008060016101000a81548160ff0219169083151502179055505b505050565b603660009054906101000a900473ffffffffffffffffffffffffffffffffffffffff1681565b60346020528060005260406000206000915090505481565b600080828561043e9190611b5d565b9050600061045e8761044f8a610df6565b6104599190611bf1565b610e70565b896104699190611c85565b9050600081836104968a610487878e6104829190611b5d565b610df6565b6104919190611bf1565b610e70565b6104a09190611bf1565b8b6104ab9190611c85565b6104b59190611b5d565b905080866104c39190611b5d565b93505050509695505050505050565b60356020528060005260406000206000915090505481565b6000603360009054906101000a900473ffffffffffffffffffffffffffffffffffffffff1673ffffffffffffffffffffffffffffffffffffffff1662435da56040518163ffffffff1660e01b8152600401602060405180830381600087803b15801561055557600080fd5b505af1158015610569573d6000803e3d6000fd5b505050506040513d601f19601f8201168201806040525081019061058d9190611dda565b73ffffffffffffffffffffffffffffffffffffffff16638e975b35336040518263ffffffff1660e01b81526004016105c59190611e16565b60206040518083038186803b1580156105dd57600080fd5b505afa1580156105f1573d6000803e3d6000fd5b505050506040513d601f19601f820116820180604052508101906106159190611e46565b610654576040517f08c379a000000000000000000000000000000000000000000000000000000000815260040161064b90611ebf565b60405180910390fd5b600061066289898989610da9565b90506106913330878973ffffffffffffffffffffffffffffffffffffffff16610f2d909392919063ffffffff16565b6000806000603360009054906101000a900473ffffffffffffffffffffffffffffffffffffffff1673ffffffffffffffffffffffffffffffffffffffff1663b27bcea16040518163ffffffff1660e01b8152600401602060405180830381600087803b15801561070057600080fd5b505af1158015610714573d6000803e3d6000fd5b505050506040513d601f19601f820116820180604052508101906107389190611f1d565b73ffffffffffffffffffffffffffffffffffffffff1663c03ac3ea6040518163ffffffff1660e01b8152600401606060405180830381600087803b15801561077f57600080fd5b505af1158015610793573d6000803e3d6000fd5b505050506040513d601f19601f820116820180604052508101906107b79190611f5f565b92509250925060006107f3848484603460008a815260200190815260200160002054603560008b8152602001908152602001600020548e610980565b9050886035600087815260200190815260200160002060008282546108189190611fb2565b92505081905550806034600087815260200190815260200160002060008282546108429190611fb2565b92505081905550603660009054906101000a900473ffffffffffffffffffffffffffffffffffffffff1673ffffffffffffffffffffffffffffffffffffffff1663731133e9898784600067ffffffffffffffff8111156108a5576108a4612008565b5b6040519080825280601f01601f1916602001820160405280156108d75781602001600182028036833780820191505090505b506040518563ffffffff1660e01b81526004016108f794939291906120d0565b600060405180830381600087803b15801561091157600080fd5b505af1158015610925573d6000803e3d6000fd5b50505050847f9bde783b8da59ec9bbb0994cf76ca44b5d3b54cc092189abb7d68a6edc4c50da8e8e8e8e8e878e604051610965979695949392919061214c565b60405180910390a28095505050505050979650505050505050565b600080828461098f9190611bf1565b9050600061099f89898985610fb6565b6109ab8a8a8a86611058565b6109b78b8b8b8761108f565b6109c38c8c8c886110c6565b6109cf8d8d8d89611105565b6109db8e8e8e8a611162565b6109e78f8f8f8b6111a8565b6109f19190611bf1565b6109fb9190611b5d565b610a059190611b5d565b610a0f9190611b5d565b610a199190611b5d565b610a2391906121ea565b90508581610a319190611b5d565b925050509695505050505050565b600060026001541415610a87576040517f08c379a0000000000000000000000000000000000000000000000000000000008152600401610a7e906122a0565b60405180910390fd5b600260018190555060008311610ad2576040517f08c379a0000000000000000000000000000000000000000000000000000000008152600401610ac99061230c565b60405180910390fd5b6000610ae088888888610da9565b9050603660009054906101000a900473ffffffffffffffffffffffffffffffffffffffff1673ffffffffffffffffffffffffffffffffffffffff1663f5298aca3383876040518463ffffffff1660e01b8152600401610b419392919061232c565b600060405180830381600087803b158015610b5b57600080fd5b505af1158015610b6f573d6000803e3d6000fd5b505050506000806000603360009054906101000a900473ffffffffffffffffffffffffffffffffffffffff1673ffffffffffffffffffffffffffffffffffffffff1663b27bcea16040518163ffffffff1660e01b8152600401602060405180830381600087803b158015610be257600080fd5b505af1158015610bf6573d6000803e3d6000fd5b505050506040513d601f19601f82011682018060405250810190610c1a9190611f1d565b73ffffffffffffffffffffffffffffffffffffffff1663c03ac3ea6040518163ffffffff1660e01b8152600401606060405180830381600087803b158015610c6157600080fd5b505af1158015610c75573d6000803e3d6000fd5b505050506040513d601f19601f82011682018060405250810190610c999190611f5f565b9250925092506000610cd5848484603460008a815260200190815260200160002054603560008b8152602001908152602001600020548d61042f565b905080603560008781526020019081526020016000206000828254610cfa9190612363565b9250508190555087603460008781526020019081526020016000206000828254610d249190612363565b92505081905550610d5687828b73ffffffffffffffffffffffffffffffffffffffff166111bd9092919063ffffffff16565b847f593755a921362ca38a9667232bbd1b4fae6eb5416779a8753309df29e9814533828a604051610d88929190612397565b60405180910390a28095505050505050600180819055509695505050505050565b600084848484604051602001610dc294939291906123c0565b6040516020818303038152906040528051906020012060001c9050949350505050565b6000610df030611243565b15905090565b600080821415610e095760009050610e6b565b60008283610e179190611c85565b9050828382610e2691906121ea565b14610e66576040517f08c379a0000000000000000000000000000000000000000000000000000000008152600401610e5d90612451565b60405180910390fd5b809150505b919050565b600080821215610eb5576040517f08c379a0000000000000000000000000000000000000000000000000000000008152600401610eac906124bd565b60405180910390fd5b6003821315610f1a5781905060006001600284610ed291906121ea565b610edc9190611bf1565b90505b81811215610f14578091506002818285610ef991906121ea565b610f039190611bf1565b610f0d91906121ea565b9050610edf565b50610f28565b60008214610f2757600190505b5b919050565b610fb0846323b872dd60e01b858585604051602401610f4e939291906124dd565b604051602081830303815290604052907bffffffffffffffffffffffffffffffffffffffffffffffffffffffff19166020820180517bffffffffffffffffffffffffffffffffffffffffffffffffffffffff8381831617835250505050611266565b50505050565b6000610fc182610df6565b6002610fcd9190611c85565b8285876004610fdc9190611c85565b610fe69190611c85565b610ff09190611c85565b84610ffa88610df6565b7ffffffffffffffffffffffffffffffffffffffffffffffffffffffffffffffffe6110259190611c85565b61102f9190611c85565b6110399190611b5d565b6110439190611bf1565b8561104e9190611c85565b9050949350505050565b600061106382610df6565b848660016110719190611c85565b61107b9190611c85565b6110859190611c85565b9050949350505050565b6000818361109c87610df6565b60026110a89190611c85565b6110b29190611c85565b6110bc9190611c85565b9050949350505050565b6000816110d285610df6565b6110db87610df6565b60026110e79190611c85565b6110f19190611c85565b6110fb9190611c85565b9050949350505050565b60006111238361111486610df6565b61111e9190611bf1565b610e70565b828561112e88610df6565b600261113a9190611c85565b6111449190611c85565b61114e9190611c85565b6111589190611c85565b9050949350505050565b60006111808361117186610df6565b61117b9190611bf1565b610e70565b61118983610df6565b866111949190611c85565b61119e9190611c85565b9050949350505050565b60006111b38261132d565b9050949350505050565b61123e8363a9059cbb60e01b84846040516024016111dc929190612514565b604051602081830303815290604052907bffffffffffffffffffffffffffffffffffffffffffffffffffffffff19166020820180517bffffffffffffffffffffffffffffffffffffffffffffffffffffffff8381831617835250505050611266565b505050565b6000808273ffffffffffffffffffffffffffffffffffffffff163b119050919050565b60006112c8826040518060400160405280602081526020017f5361666545524332303a206c6f772d6c6576656c2063616c6c206661696c65648152508573ffffffffffffffffffffffffffffffffffffffff166114059092919063ffffffff16565b905060008151111561132857808060200190518101906112e89190611e46565b611327576040517f08c379a000000000000000000000000000000000000000000000000000000000815260040161131e906125af565b60405180910390fd5b5b505050565b6000808214156113405760009050611400565b6000828361134e9190611c85565b905082838261135d91906121ea565b1461139d576040517f08c379a00000000000000000000000000000000000000000000000000000000081526004016113949061261b565b60405180910390fd5b600083826113ab9190611c85565b90508184826113ba91906121ea565b146113fa576040517f08c379a00000000000000000000000000000000000000000000000000000000081526004016113f190612687565b60405180910390fd5b80925050505b919050565b6060611414848460008561141d565b90509392505050565b606082471015611462576040517f08c379a000000000000000000000000000000000000000000000000000000000815260040161145990612719565b60405180910390fd5b61146b85611243565b6114aa576040517f08c379a00000000000000000000000000000000000000000000000000000000081526004016114a190612785565b60405180910390fd5b6000808673ffffffffffffffffffffffffffffffffffffffff1685876040516114d391906127e1565b60006040518083038185875af1925050503d8060008114611510576040519150601f19603f3d011682016040523d82523d6000602084013e611515565b606091505b5091509150611525828286611531565b92505050949350505050565b6060831561154157829050611591565b6000835111156115545782518084602001fd5b816040517f08c379a0000000000000000000000000000000000000000000000000000000008152600401611588919061283c565b60405180910390fd5b9392505050565b600080fd5b6000819050919050565b6115b08161159d565b81146115bb57600080fd5b50565b6000813590506115cd816115a7565b92915050565b600073ffffffffffffffffffffffffffffffffffffffff82169050919050565b60006115fe826115d3565b9050919050565b61160e816115f3565b811461161957600080fd5b50565b60008135905061162b81611605565b92915050565b600061163c826115f3565b9050919050565b61164c81611631565b811461165757600080fd5b50565b60008135905061166981611643565b92915050565b6000806000806080858703121561168957611688611598565b5b6000611697878288016115be565b94505060206116a88782880161161c565b93505060406116b9878288016115be565b92505060606116ca8782880161165a565b91505092959194509250565b6116df8161159d565b82525050565b60006020820190506116fa60008301846116d6565b92915050565b6000819050919050565b600061172561172061171b846115d3565b611700565b6115d3565b9050919050565b60006117378261170a565b9050919050565b60006117498261172c565b9050919050565b6117598161173e565b82525050565b60006020820190506117746000830184611750565b92915050565b6000611785826115f3565b9050919050565b6117958161177a565b81146117a057600080fd5b50565b6000813590506117b28161178c565b92915050565b600080604083850312156117cf576117ce611598565b5b60006117dd8582860161161c565b92505060206117ee858286016117a3565b9150509250929050565b60006118038261172c565b9050919050565b611813816117f8565b82525050565b600060208201905061182e600083018461180a565b92915050565b60006020828403121561184a57611849611598565b5b6000611858848285016115be565b91505092915050565b6000819050919050565b61187481611861565b811461187f57600080fd5b50565b6000813590506118918161186b565b92915050565b60008060008060008060c087890312156118b4576118b3611598565b5b60006118c289828a01611882565b96505060206118d389828a01611882565b95505060406118e489828a01611882565b94505060606118f589828a01611882565b935050608061190689828a01611882565b92505060a061191789828a01611882565b9150509295509295509295565b60008115159050919050565b61193981611924565b811461194457600080fd5b50565b60008135905061195681611930565b92915050565b600080600080600080600060e0888a03121561197b5761197a611598565b5b60006119898a828b016115be565b975050602061199a8a828b0161161c565b96505060406119ab8a828b016115be565b95505060606119bc8a828b0161165a565b94505060806119cd8a828b016115be565b93505060a06119de8a828b0161161c565b92505060c06119ef8a828b01611947565b91505092959891949750929550565b60008060008060008060c08789031215611a1b57611a1a611598565b5b6000611a2989828a016115be565b9650506020611a3a89828a0161161c565b9550506040611a4b89828a016115be565b9450506060611a5c89828a0161165a565b9350506080611a6d89828a016115be565b92505060a0611a7e89828a0161161c565b9150509295509295509295565b600082825260208201905092915050565b7f496e697469616c697a61626c653a20636f6e747261637420697320616c72656160008201527f647920696e697469616c697a6564000000000000000000000000000000000000602082015250565b6000611af8602e83611a8b565b9150611b0382611a9c565b604082019050919050565b60006020820190508181036000830152611b2781611aeb565b9050919050565b7f4e487b7100000000000000000000000000000000000000000000000000000000600052601160045260246000fd5b6000611b6882611861565b9150611b7383611861565b9250827f800000000000000000000000000000000000000000000000000000000000000001821260008412151615611bae57611bad611b2e565b5b827f7fffffffffffffffffffffffffffffffffffffffffffffffffffffffffffffff018213600084121615611be657611be5611b2e565b5b828203905092915050565b6000611bfc82611861565b9150611c0783611861565b9250817f7fffffffffffffffffffffffffffffffffffffffffffffffffffffffffffffff03831360008312151615611c4257611c41611b2e565b5b817f8000000000000000000000000000000000000000000000000000000000000000038312600083121615611c7a57611c79611b2e565b5b828201905092915050565b6000611c9082611861565b9150611c9b83611861565b9250827f7fffffffffffffffffffffffffffffffffffffffffffffffffffffffffffffff0482116000841360008413161615611cda57611cd9611b2e565b5b817f80000000000000000000000000000000000000000000000000000000000000000583126000841260008413161615611d1757611d16611b2e565b5b827f80000000000000000000000000000000000000000000000000000000000000000582126000841360008412161615611d5457611d53611b2e565b5b827f7fffffffffffffffffffffffffffffffffffffffffffffffffffffffffffffff0582126000841260008412161615611d9157611d90611b2e565b5b828202905092915050565b6000611da7826115f3565b9050919050565b611db781611d9c565b8114611dc257600080fd5b50565b600081519050611dd481611dae565b92915050565b600060208284031215611df057611def611598565b5b6000611dfe84828501611dc5565b91505092915050565b611e10816115f3565b82525050565b6000602082019050611e2b6000830184611e07565b92915050565b600081519050611e4081611930565b92915050565b600060208284031215611e5c57611e5b611598565b5b6000611e6a84828501611e31565b91505092915050565b7f4e6f742041646d696e0000000000000000000000000000000000000000000000600082015250565b6000611ea9600983611a8b565b9150611eb482611e73565b602082019050919050565b60006020820190508181036000830152611ed881611e9c565b9050919050565b6000611eea826115f3565b9050919050565b611efa81611edf565b8114611f0557600080fd5b50565b600081519050611f1781611ef1565b92915050565b600060208284031215611f3357611f32611598565b5b6000611f4184828501611f08565b91505092915050565b600081519050611f59816115a7565b92915050565b600080600060608486031215611f7857611f77611598565b5b6000611f8686828701611f4a565b9350506020611f9786828701611f4a565b9250506040611fa886828701611f4a565b9150509250925092565b6000611fbd8261159d565b9150611fc88361159d565b9250827fffffffffffffffffffffffffffffffffffffffffffffffffffffffffffffffff03821115611ffd57611ffc611b2e565b5b828201905092915050565b7f4e487b7100000000000000000000000000000000000000000000000000000000600052604160045260246000fd5b600081519050919050565b600082825260208201905092915050565b60005b83811015612071578082015181840152602081019050612056565b83811115612080576000848401525b50505050565b6000601f19601f8301169050919050565b60006120a282612037565b6120ac8185612042565b93506120bc818560208601612053565b6120c581612086565b840191505092915050565b60006080820190506120e56000830187611e07565b6120f260208301866116d6565b6120ff60408301856116d6565b81810360608301526121118184612097565b905095945050505050565b60006121278261172c565b9050919050565b6121378161211c565b82525050565b61214681611924565b82525050565b600060e082019050612161600083018a6116d6565b61216e6020830189611e07565b61217b60408301886116d6565b612188606083018761212e565b61219560808301866116d6565b6121a260a08301856116d6565b6121af60c083018461213d565b98975050505050505050565b7f4e487b7100000000000000000000000000000000000000000000000000000000600052601260045260246000fd5b60006121f582611861565b915061220083611861565b9250826122105761220f6121bb565b5b600160000383147f80000000000000000000000000000000000000000000000000000000000000008314161561224957612248611b2e565b5b828205905092915050565b7f5265656e7472616e637947756172643a207265656e7472616e742063616c6c00600082015250565b600061228a601f83611a8b565b915061229582612254565b602082019050919050565b600060208201905081810360008301526122b98161227d565b9050919050565b7f496e76616c6964203020696e7075740000000000000000000000000000000000600082015250565b60006122f6600f83611a8b565b9150612301826122c0565b602082019050919050565b60006020820190508181036000830152612325816122e9565b9050919050565b60006060820190506123416000830186611e07565b61234e60208301856116d6565b61235b60408301846116d6565b949350505050565b600061236e8261159d565b91506123798361159d565b92508282101561238c5761238b611b2e565b5b828203905092915050565b60006040820190506123ac60008301856116d6565b6123b960208301846116d6565b9392505050565b60006080820190506123d560008301876116d6565b6123e26020830186611e07565b6123ef60408301856116d6565b6123fc606083018461212e565b95945050505050565b7f457874656e6465644d6174683a207371756172696e67206f766572666c6f7700600082015250565b600061243b601f83611a8b565b915061244682612405565b602082019050919050565b6000602082019050818103600083015261246a8161242e565b9050919050565b7f4e65676174697665207371727400000000000000000000000000000000000000600082015250565b60006124a7600d83611a8b565b91506124b282612471565b602082019050919050565b600060208201905081810360008301526124d68161249a565b9050919050565b60006060820190506124f26000830186611e07565b6124ff6020830185611e07565b61250c60408301846116d6565b949350505050565b60006040820190506125296000830185611e07565b61253660208301846116d6565b9392505050565b7f5361666545524332303a204552433230206f7065726174696f6e20646964206e60008201527f6f74207375636365656400000000000000000000000000000000000000000000602082015250565b6000612599602a83611a8b565b91506125a48261253d565b604082019050919050565b600060208201905081810360008301526125c88161258c565b9050919050565b7f457874656e6465644d6174683a20637562696e67206f766572666c6f77320000600082015250565b6000612605601e83611a8b565b9150612610826125cf565b602082019050919050565b60006020820190508181036000830152612634816125f8565b9050919050565b7f457874656e6465644d6174683a20637562696e67206f766572666c6f77330000600082015250565b6000612671601e83611a8b565b915061267c8261263b565b602082019050919050565b600060208201905081810360008301526126a081612664565b9050919050565b7f416464726573733a20696e73756666696369656e742062616c616e636520666f60008201527f722063616c6c0000000000000000000000000000000000000000000000000000602082015250565b6000612703602683611a8b565b915061270e826126a7565b604082019050919050565b60006020820190508181036000830152612732816126f6565b9050919050565b7f416464726573733a2063616c6c20746f206e6f6e2d636f6e7472616374000000600082015250565b600061276f601d83611a8b565b915061277a82612739565b602082019050919050565b6000602082019050818103600083015261279e81612762565b9050919050565b600081905092915050565b60006127bb82612037565b6127c581856127a5565b93506127d5818560208601612053565b80840191505092915050565b60006127ed82846127b0565b915081905092915050565b600081519050919050565b600061280e826127f8565b6128188185611a8b565b9350612828818560208601612053565b61283181612086565b840191505092915050565b600060208201905081810360008301526128568184612803565b90509291505056fea2646970667358221220dbd6fb146f5d9c453b6c941a4053cc9115766b23867ba91277726437d4ecf99264736f6c63430008090033",
  "devdoc": {
    "details": "This contract tracks shares in a sigmoid bonding curve per Taker NFT. When users spend reactions against a Taker NFT, it will use the Curator Liability to buy curator shares against that Taker NFT and allocate to various parties. The curator shares will be priced via the sigmoid curve.  The params that control the shape of the sigmoid are set in the parameter manager. At any point in time the owners of the curator shares can sell them back to the bonding curve.",
    "events": {
      "CuratorSharesBought(uint256,uint256,address,uint256,address,uint256,uint256,bool)": {
        "details": "Event triggered when curator shares are purchased"
      },
      "CuratorSharesSold(uint256,uint256,uint256)": {
        "details": "Event triggered when curator shares are sold"
      }
    },
    "kind": "dev",
    "methods": {
      "buyCuratorShares(uint256,address,uint256,address,uint256,address,bool)": {
        "details": "Buy curator shares when reactions are spent. The reaction vault is the only account allowed to call this.",
        "returns": {
          "_0": "Returns the amount of curator shares purchased."
        }
      },
      "calculatePaymentReturnedFromShares(int256,int256,int256,int256,int256,int256)": {
        "details": "Selling shares into the curve will return payment tokens to be refunded",
        "params": {
          "a": "maxPrice of the curve / 2",
          "b": "inflectionPoint of the curve",
          "c": "slope steepness of the curve",
          "currentSharesSupply": "current amount of shares in the curve",
          "paymentReserves": "current mount of payment reserves in the curve",
          "sharesToSell": "amount the of shares the user wants to sell"
        }
      },
      "calculateSharesBoughtFromPayment(int256,int256,int256,int256,int256,int256)": {
        "details": "Buying into the curve with payment tokens will return shares amount to be bought",
        "params": {
          "a": "maxPrice of the curve / 2",
          "b": "inflectionPoint of the curve",
          "c": "slope steepness of the curve",
          "currentSharesSupply": "current amount of shares in the curve",
          "paymentReserves": "current mount of payment reserves in the curve",
          "paymentToSpend": "amount the of payment tokens to buy shares with"
        }
      },
      "getTokenId(uint256,address,uint256,address)": {
        "details": "get a unique token ID for a given nft address and nft ID"
      },
      "initialize(address,address)": {
        "details": "initializer to call after deployment, can only be called once"
      },
      "sellCuratorShares(uint256,address,uint256,address,uint256,address)": {
        "details": "Sell curator shares back into the bonding curve. Any holder who owns shares can sell them back",
        "returns": {
          "_0": "Returns the amount of payment tokens received for the curator shares."
        }
      }
    },
    "title": "SigmoidCuratorVault",
    "version": 1
  },
  "userdoc": {
    "kind": "user",
    "methods": {},
    "version": 1
  },
  "storageLayout": {
    "storage": [
      {
        "astId": 2797,
        "contract": "contracts/SigmoidCuratorVault/SigmoidCuratorVault.sol:SigmoidCuratorVault",
        "label": "_initialized",
        "offset": 0,
        "slot": "0",
        "type": "t_bool"
      },
      {
        "astId": 2800,
        "contract": "contracts/SigmoidCuratorVault/SigmoidCuratorVault.sol:SigmoidCuratorVault",
        "label": "_initializing",
        "offset": 1,
        "slot": "0",
        "type": "t_bool"
      },
      {
        "astId": 2878,
        "contract": "contracts/SigmoidCuratorVault/SigmoidCuratorVault.sol:SigmoidCuratorVault",
        "label": "_status",
        "offset": 0,
        "slot": "1",
        "type": "t_uint256"
      },
      {
        "astId": 2922,
        "contract": "contracts/SigmoidCuratorVault/SigmoidCuratorVault.sol:SigmoidCuratorVault",
        "label": "__gap",
        "offset": 0,
        "slot": "2",
        "type": "t_array(t_uint256)49_storage"
      },
      {
        "astId": 11201,
        "contract": "contracts/SigmoidCuratorVault/SigmoidCuratorVault.sol:SigmoidCuratorVault",
        "label": "addressManager",
        "offset": 0,
        "slot": "51",
        "type": "t_contract(IAddressManager)7543"
      },
      {
        "astId": 11206,
        "contract": "contracts/SigmoidCuratorVault/SigmoidCuratorVault.sol:SigmoidCuratorVault",
        "label": "curatorShareSupply",
        "offset": 0,
        "slot": "52",
        "type": "t_mapping(t_uint256,t_uint256)"
      },
      {
        "astId": 11211,
        "contract": "contracts/SigmoidCuratorVault/SigmoidCuratorVault.sol:SigmoidCuratorVault",
        "label": "reserves",
        "offset": 0,
        "slot": "53",
        "type": "t_mapping(t_uint256,t_uint256)"
      },
      {
        "astId": 11215,
        "contract": "contracts/SigmoidCuratorVault/SigmoidCuratorVault.sol:SigmoidCuratorVault",
        "label": "curatorShares",
        "offset": 0,
        "slot": "54",
        "type": "t_contract(IStandard1155)11367"
      }
    ],
    "types": {
      "t_array(t_uint256)49_storage": {
        "base": "t_uint256",
        "encoding": "inplace",
        "label": "uint256[49]",
        "numberOfBytes": "1568"
      },
      "t_bool": {
        "encoding": "inplace",
        "label": "bool",
        "numberOfBytes": "1"
      },
      "t_contract(IAddressManager)7543": {
        "encoding": "inplace",
        "label": "contract IAddressManager",
        "numberOfBytes": "20"
      },
      "t_contract(IStandard1155)11367": {
        "encoding": "inplace",
        "label": "contract IStandard1155",
        "numberOfBytes": "20"
      },
      "t_mapping(t_uint256,t_uint256)": {
        "encoding": "mapping",
        "key": "t_uint256",
        "label": "mapping(uint256 => uint256)",
        "numberOfBytes": "32",
        "value": "t_uint256"
      },
      "t_uint256": {
        "encoding": "inplace",
        "label": "uint256",
        "numberOfBytes": "32"
      }
    }
  }
}