{
  "address": "0x3174d20Bbd326c0bD83a7aAb2701dfAC7E9D2Fb9",
  "abi": [
    {
      "anonymous": false,
      "inputs": [
        {
          "indexed": true,
          "internalType": "uint256",
          "name": "curatorTokenId",
          "type": "uint256"
        },
        {
          "indexed": false,
          "internalType": "uint256",
          "name": "nftChainId",
          "type": "uint256"
        },
        {
          "indexed": false,
          "internalType": "address",
          "name": "nftAddress",
          "type": "address"
        },
        {
          "indexed": false,
          "internalType": "uint256",
          "name": "nftId",
          "type": "uint256"
        },
        {
          "indexed": false,
          "internalType": "contract IERC20Upgradeable",
          "name": "paymentToken",
          "type": "address"
        },
        {
          "indexed": false,
          "internalType": "uint256",
          "name": "paymentTokenPaid",
          "type": "uint256"
        },
        {
          "indexed": false,
          "internalType": "uint256",
          "name": "curatorTokensBought",
          "type": "uint256"
        },
        {
          "indexed": false,
          "internalType": "bool",
          "name": "isTakerPosition",
          "type": "bool"
        }
      ],
      "name": "CuratorTokensBought",
      "type": "event"
    },
    {
      "anonymous": false,
      "inputs": [
        {
          "indexed": true,
          "internalType": "uint256",
          "name": "curatorTokenId",
          "type": "uint256"
        },
        {
          "indexed": false,
          "internalType": "uint256",
          "name": "paymentTokenRefunded",
          "type": "uint256"
        },
        {
          "indexed": false,
          "internalType": "uint256",
          "name": "curatorTokensSold",
          "type": "uint256"
        }
      ],
      "name": "CuratorTokensSold",
      "type": "event"
    },
    {
      "inputs": [],
      "name": "addressManager",
      "outputs": [
        {
          "internalType": "contract IAddressManager",
          "name": "",
          "type": "address"
        }
      ],
      "stateMutability": "view",
      "type": "function"
    },
    {
      "inputs": [
        {
          "internalType": "uint256",
          "name": "nftChainId",
          "type": "uint256"
        },
        {
          "internalType": "address",
          "name": "nftAddress",
          "type": "address"
        },
        {
          "internalType": "uint256",
          "name": "nftId",
          "type": "uint256"
        },
        {
          "internalType": "contract IERC20Upgradeable",
          "name": "paymentToken",
          "type": "address"
        },
        {
          "internalType": "uint256",
          "name": "paymentAmount",
          "type": "uint256"
        },
        {
          "internalType": "address",
          "name": "mintToAddress",
          "type": "address"
        },
        {
          "internalType": "bool",
          "name": "isTakerPosition",
          "type": "bool"
        }
      ],
      "name": "buyCuratorTokens",
      "outputs": [
        {
          "internalType": "uint256",
          "name": "",
          "type": "uint256"
        }
      ],
      "stateMutability": "nonpayable",
      "type": "function"
    },
    {
      "inputs": [
        {
          "internalType": "int256",
          "name": "a",
          "type": "int256"
        },
        {
          "internalType": "int256",
          "name": "b",
          "type": "int256"
        },
        {
          "internalType": "int256",
          "name": "c",
          "type": "int256"
        },
        {
          "internalType": "int256",
          "name": "currentTokenSupply",
          "type": "int256"
        },
        {
          "internalType": "int256",
          "name": "paymentReserves",
          "type": "int256"
        },
        {
          "internalType": "int256",
          "name": "tokensToSell",
          "type": "int256"
        }
      ],
      "name": "calculatePaymentReturnedFromTokens",
      "outputs": [
        {
          "internalType": "uint256",
          "name": "",
          "type": "uint256"
        }
      ],
      "stateMutability": "pure",
      "type": "function"
    },
    {
      "inputs": [
        {
          "internalType": "int256",
          "name": "a",
          "type": "int256"
        },
        {
          "internalType": "int256",
          "name": "b",
          "type": "int256"
        },
        {
          "internalType": "int256",
          "name": "c",
          "type": "int256"
        },
        {
          "internalType": "int256",
          "name": "currentTokensSupply",
          "type": "int256"
        },
        {
          "internalType": "int256",
          "name": "paymentReserves",
          "type": "int256"
        },
        {
          "internalType": "int256",
          "name": "paymentToSpend",
          "type": "int256"
        }
      ],
      "name": "calculateTokensBoughtFromPayment",
      "outputs": [
        {
          "internalType": "uint256",
          "name": "",
          "type": "uint256"
        }
      ],
      "stateMutability": "pure",
      "type": "function"
    },
    {
      "inputs": [
        {
          "internalType": "uint256",
          "name": "",
          "type": "uint256"
        }
      ],
      "name": "curatorTokenSupply",
      "outputs": [
        {
          "internalType": "uint256",
          "name": "",
          "type": "uint256"
        }
      ],
      "stateMutability": "view",
      "type": "function"
    },
    {
      "inputs": [],
      "name": "curatorTokens",
      "outputs": [
        {
          "internalType": "contract IStandard1155",
          "name": "",
          "type": "address"
        }
      ],
      "stateMutability": "view",
      "type": "function"
    },
    {
      "inputs": [
        {
          "internalType": "uint256",
          "name": "nftChainId",
          "type": "uint256"
        },
        {
          "internalType": "address",
          "name": "nftAddress",
          "type": "address"
        },
        {
          "internalType": "uint256",
          "name": "nftId",
          "type": "uint256"
        },
        {
          "internalType": "contract IERC20Upgradeable",
          "name": "paymentToken",
          "type": "address"
        }
      ],
      "name": "getTokenId",
      "outputs": [
        {
          "internalType": "uint256",
          "name": "",
          "type": "uint256"
        }
      ],
      "stateMutability": "pure",
      "type": "function"
    },
    {
      "inputs": [
        {
          "internalType": "address",
          "name": "_addressManager",
          "type": "address"
        },
        {
          "internalType": "contract IStandard1155",
          "name": "_curatorTokens",
          "type": "address"
        }
      ],
      "name": "initialize",
      "outputs": [],
      "stateMutability": "nonpayable",
      "type": "function"
    },
    {
      "inputs": [
        {
          "internalType": "uint256",
          "name": "",
          "type": "uint256"
        }
      ],
      "name": "reserves",
      "outputs": [
        {
          "internalType": "uint256",
          "name": "",
          "type": "uint256"
        }
      ],
      "stateMutability": "view",
      "type": "function"
    },
    {
      "inputs": [
        {
          "internalType": "uint256",
          "name": "nftChainId",
          "type": "uint256"
        },
        {
          "internalType": "address",
          "name": "nftAddress",
          "type": "address"
        },
        {
          "internalType": "uint256",
          "name": "nftId",
          "type": "uint256"
        },
        {
          "internalType": "contract IERC20Upgradeable",
          "name": "paymentToken",
          "type": "address"
        },
        {
          "internalType": "uint256",
          "name": "tokensToBurn",
          "type": "uint256"
        },
        {
          "internalType": "address",
          "name": "refundToAddress",
          "type": "address"
        }
      ],
      "name": "sellCuratorTokens",
      "outputs": [
        {
          "internalType": "uint256",
          "name": "",
          "type": "uint256"
        }
      ],
      "stateMutability": "nonpayable",
      "type": "function"
    }
  ],
  "transactionHash": "0x902e83cc15a3b8d40e076d9eff9f44e5fb8f441a2db85fab8b5f8587d1efa05e",
  "args": [],
  "numDeployments": 1,
  "solcInputHash": "0aa2446dfdd461104da7fca84166983e",
  "bytecode": "0x608060405234801561001057600080fd5b50612894806100206000396000f3fe608060405234801561001057600080fd5b506004361061009e5760003560e01c806367e9dbcb1161006657806367e9dbcb1461015b5780636893baf81461018b5780638334278d146101bb578063c9ff430c146101eb578063d6cec5b71461021b5761009e565b806317e1816c146100a35780631f2a8b06146100d357806323115b99146101035780633ab76e9f14610121578063485cc9551461013f575b600080fd5b6100bd60048036038101906100b8919061166f565b61024b565b6040516100ca91906116e5565b60405180910390f35b6100ed60048036038101906100e89190611700565b610263565b6040516100fa91906116e5565b60405180910390f35b61010b6105cd565b60405161011891906117ec565b60405180910390f35b6101296105f3565b6040516101369190611828565b60405180910390f35b61015960048036038101906101549190611881565b610619565b005b610175600480360381019061017091906118f9565b610781565b60405161018291906116e5565b60405180910390f35b6101a560048036038101906101a091906119d1565b610c17565b6040516101b291906116e5565b60405180910390f35b6101d560048036038101906101d09190611a5e565b610cd6565b6040516101e291906116e5565b60405180910390f35b61020560048036038101906102009190611a5e565b610cee565b60405161021291906116e5565b60405180910390f35b610235600480360381019061023091906119d1565b610d06565b60405161024291906116e5565b60405180910390f35b600061025985858585610da9565b9050949350505050565b6000600260015414156102ab576040517f08c379a00000000000000000000000000000000000000000000000000000000081526004016102a290611ae8565b60405180910390fd5b6002600181905550600083116102f6576040517f08c379a00000000000000000000000000000000000000000000000000000000081526004016102ed90611b54565b60405180910390fd5b600061030488888888610da9565b9050603660009054906101000a900473ffffffffffffffffffffffffffffffffffffffff1673ffffffffffffffffffffffffffffffffffffffff1663f5298aca3383876040518463ffffffff1660e01b815260040161036593929190611b83565b600060405180830381600087803b15801561037f57600080fd5b505af1158015610393573d6000803e3d6000fd5b505050506000806000603360009054906101000a900473ffffffffffffffffffffffffffffffffffffffff1673ffffffffffffffffffffffffffffffffffffffff1663b27bcea16040518163ffffffff1660e01b8152600401602060405180830381600087803b15801561040657600080fd5b505af115801561041a573d6000803e3d6000fd5b505050506040513d601f19601f8201168201806040525081019061043e9190611bf8565b73ffffffffffffffffffffffffffffffffffffffff1663c03ac3ea6040518163ffffffff1660e01b8152600401606060405180830381600087803b15801561048557600080fd5b505af1158015610499573d6000803e3d6000fd5b505050506040513d601f19601f820116820180604052508101906104bd9190611c3a565b92509250925060006104f9848484603460008a815260200190815260200160002054603560008b8152602001908152602001600020548d610d06565b90508060356000878152602001908152602001600020600082825461051e9190611cbc565b92505081905550876034600087815260200190815260200160002060008282546105489190611cbc565b9250508190555061057a87828b73ffffffffffffffffffffffffffffffffffffffff16610de59092919063ffffffff16565b847fdfafe7ef66b19c68e35d3237d07d7c4bf90008019e12ea9e2adb12fdfdeb7917828a6040516105ac929190611cf0565b60405180910390a28095505050505050600180819055509695505050505050565b603660009054906101000a900473ffffffffffffffffffffffffffffffffffffffff1681565b603360009054906101000a900473ffffffffffffffffffffffffffffffffffffffff1681565b600060019054906101000a900460ff166106415760008054906101000a900460ff161561064a565b610649610e6b565b5b610689576040517f08c379a000000000000000000000000000000000000000000000000000000000815260040161068090611d8b565b60405180910390fd5b60008060019054906101000a900460ff1615905080156106d9576001600060016101000a81548160ff02191690831515021790555060016000806101000a81548160ff0219169083151502179055505b82603360006101000a81548173ffffffffffffffffffffffffffffffffffffffff021916908373ffffffffffffffffffffffffffffffffffffffff16021790555081603660006101000a81548173ffffffffffffffffffffffffffffffffffffffff021916908373ffffffffffffffffffffffffffffffffffffffff160217905550801561077c5760008060016101000a81548160ff0219169083151502179055505b505050565b6000603360009054906101000a900473ffffffffffffffffffffffffffffffffffffffff1673ffffffffffffffffffffffffffffffffffffffff1662435da56040518163ffffffff1660e01b8152600401602060405180830381600087803b1580156107ec57600080fd5b505af1158015610800573d6000803e3d6000fd5b505050506040513d601f19601f820116820180604052508101906108249190611de9565b73ffffffffffffffffffffffffffffffffffffffff16638e975b35336040518263ffffffff1660e01b815260040161085c9190611e16565b60206040518083038186803b15801561087457600080fd5b505afa158015610888573d6000803e3d6000fd5b505050506040513d601f19601f820116820180604052508101906108ac9190611e46565b6108eb576040517f08c379a00000000000000000000000000000000000000000000000000000000081526004016108e290611ebf565b60405180910390fd5b60006108f989898989610da9565b90506109283330878973ffffffffffffffffffffffffffffffffffffffff16610e7c909392919063ffffffff16565b6000806000603360009054906101000a900473ffffffffffffffffffffffffffffffffffffffff1673ffffffffffffffffffffffffffffffffffffffff1663b27bcea16040518163ffffffff1660e01b8152600401602060405180830381600087803b15801561099757600080fd5b505af11580156109ab573d6000803e3d6000fd5b505050506040513d601f19601f820116820180604052508101906109cf9190611bf8565b73ffffffffffffffffffffffffffffffffffffffff1663c03ac3ea6040518163ffffffff1660e01b8152600401606060405180830381600087803b158015610a1657600080fd5b505af1158015610a2a573d6000803e3d6000fd5b505050506040513d601f19601f82011682018060405250810190610a4e9190611c3a565b9250925092506000610a8a848484603460008a815260200190815260200160002054603560008b8152602001908152602001600020548e610c17565b905088603560008781526020019081526020016000206000828254610aaf9190611edf565b9250508190555080603460008781526020019081526020016000206000828254610ad99190611edf565b92505081905550603660009054906101000a900473ffffffffffffffffffffffffffffffffffffffff1673ffffffffffffffffffffffffffffffffffffffff1663731133e9898784600067ffffffffffffffff811115610b3c57610b3b611f35565b5b6040519080825280601f01601f191660200182016040528015610b6e5781602001600182028036833780820191505090505b506040518563ffffffff1660e01b8152600401610b8e9493929190611ffd565b600060405180830381600087803b158015610ba857600080fd5b505af1158015610bbc573d6000803e3d6000fd5b50505050847f7ef62f60fd6b2d809eedbc8d39b5707298923d32fa9b56d3446ae566780b8f108e8e8e8e8e878e604051610bfc9796959493929190612079565b60405180910390a28095505050505050979650505050505050565b6000808284610c2691906120e8565b90506000610c3689898985610f05565b610c428a8a8a86610fa7565b610c4e8b8b8b87610fde565b610c5a8c8c8c88611015565b610c668d8d8d89611054565b610c728e8e8e8a6110b1565b610c7e8f8f8f8b6110f7565b610c8891906120e8565b610c92919061217c565b610c9c919061217c565b610ca6919061217c565b610cb0919061217c565b610cba919061223f565b90508581610cc8919061217c565b925050509695505050505050565b60356020528060005260406000206000915090505481565b60346020528060005260406000206000915090505481565b6000808285610d15919061217c565b90506000610d3587610d268a61110c565b610d3091906120e8565b611186565b89610d4091906122a9565b905060008183610d6d8a610d5e878e610d59919061217c565b61110c565b610d6891906120e8565b611186565b610d7791906120e8565b8b610d8291906122a9565b610d8c919061217c565b90508086610d9a919061217c565b93505050509695505050505050565b600084848484604051602001610dc294939291906123c0565b6040516020818303038152906040528051906020012060001c9050949350505050565b610e668363a9059cbb60e01b8484604051602401610e04929190612405565b604051602081830303815290604052907bffffffffffffffffffffffffffffffffffffffffffffffffffffffff19166020820180517bffffffffffffffffffffffffffffffffffffffffffffffffffffffff8381831617835250505050611243565b505050565b6000610e763061130a565b15905090565b610eff846323b872dd60e01b858585604051602401610e9d9392919061242e565b604051602081830303815290604052907bffffffffffffffffffffffffffffffffffffffffffffffffffffffff19166020820180517bffffffffffffffffffffffffffffffffffffffffffffffffffffffff8381831617835250505050611243565b50505050565b6000610f108261110c565b6002610f1c91906122a9565b8285876004610f2b91906122a9565b610f3591906122a9565b610f3f91906122a9565b84610f498861110c565b7ffffffffffffffffffffffffffffffffffffffffffffffffffffffffffffffffe610f7491906122a9565b610f7e91906122a9565b610f88919061217c565b610f9291906120e8565b85610f9d91906122a9565b9050949350505050565b6000610fb28261110c565b84866001610fc091906122a9565b610fca91906122a9565b610fd491906122a9565b9050949350505050565b60008183610feb8761110c565b6002610ff791906122a9565b61100191906122a9565b61100b91906122a9565b9050949350505050565b6000816110218561110c565b61102a8761110c565b600261103691906122a9565b61104091906122a9565b61104a91906122a9565b9050949350505050565b6000611072836110638661110c565b61106d91906120e8565b611186565b828561107d8861110c565b600261108991906122a9565b61109391906122a9565b61109d91906122a9565b6110a791906122a9565b9050949350505050565b60006110cf836110c08661110c565b6110ca91906120e8565b611186565b6110d88361110c565b866110e391906122a9565b6110ed91906122a9565b9050949350505050565b60006111028261132d565b9050949350505050565b60008082141561111f5760009050611181565b6000828361112d91906122a9565b905082838261113c919061223f565b1461117c576040517f08c379a0000000000000000000000000000000000000000000000000000000008152600401611173906124b1565b60405180910390fd5b809150505b919050565b6000808212156111cb576040517f08c379a00000000000000000000000000000000000000000000000000000000081526004016111c29061251d565b60405180910390fd5b600382131561123057819050600060016002846111e8919061223f565b6111f291906120e8565b90505b8181121561122a57809150600281828561120f919061223f565b61121991906120e8565b611223919061223f565b90506111f5565b5061123e565b6000821461123d57600190505b5b919050565b60006112a5826040518060400160405280602081526020017f5361666545524332303a206c6f772d6c6576656c2063616c6c206661696c65648152508573ffffffffffffffffffffffffffffffffffffffff166114059092919063ffffffff16565b905060008151111561130557808060200190518101906112c59190611e46565b611304576040517f08c379a00000000000000000000000000000000000000000000000000000000081526004016112fb906125af565b60405180910390fd5b5b505050565b6000808273ffffffffffffffffffffffffffffffffffffffff163b119050919050565b6000808214156113405760009050611400565b6000828361134e91906122a9565b905082838261135d919061223f565b1461139d576040517f08c379a00000000000000000000000000000000000000000000000000000000081526004016113949061261b565b60405180910390fd5b600083826113ab91906122a9565b90508184826113ba919061223f565b146113fa576040517f08c379a00000000000000000000000000000000000000000000000000000000081526004016113f190612687565b60405180910390fd5b80925050505b919050565b6060611414848460008561141d565b90509392505050565b606082471015611462576040517f08c379a000000000000000000000000000000000000000000000000000000000815260040161145990612719565b60405180910390fd5b61146b8561130a565b6114aa576040517f08c379a00000000000000000000000000000000000000000000000000000000081526004016114a190612785565b60405180910390fd5b6000808673ffffffffffffffffffffffffffffffffffffffff1685876040516114d391906127e1565b60006040518083038185875af1925050503d8060008114611510576040519150601f19603f3d011682016040523d82523d6000602084013e611515565b606091505b5091509150611525828286611531565b92505050949350505050565b6060831561154157829050611591565b6000835111156115545782518084602001fd5b816040517f08c379a0000000000000000000000000000000000000000000000000000000008152600401611588919061283c565b60405180910390fd5b9392505050565b600080fd5b6000819050919050565b6115b08161159d565b81146115bb57600080fd5b50565b6000813590506115cd816115a7565b92915050565b600073ffffffffffffffffffffffffffffffffffffffff82169050919050565b60006115fe826115d3565b9050919050565b61160e816115f3565b811461161957600080fd5b50565b60008135905061162b81611605565b92915050565b600061163c826115f3565b9050919050565b61164c81611631565b811461165757600080fd5b50565b60008135905061166981611643565b92915050565b6000806000806080858703121561168957611688611598565b5b6000611697878288016115be565b94505060206116a88782880161161c565b93505060406116b9878288016115be565b92505060606116ca8782880161165a565b91505092959194509250565b6116df8161159d565b82525050565b60006020820190506116fa60008301846116d6565b92915050565b60008060008060008060c0878903121561171d5761171c611598565b5b600061172b89828a016115be565b965050602061173c89828a0161161c565b955050604061174d89828a016115be565b945050606061175e89828a0161165a565b935050608061176f89828a016115be565b92505060a061178089828a0161161c565b9150509295509295509295565b6000819050919050565b60006117b26117ad6117a8846115d3565b61178d565b6115d3565b9050919050565b60006117c482611797565b9050919050565b60006117d6826117b9565b9050919050565b6117e6816117cb565b82525050565b600060208201905061180160008301846117dd565b92915050565b6000611812826117b9565b9050919050565b61182281611807565b82525050565b600060208201905061183d6000830184611819565b92915050565b600061184e826115f3565b9050919050565b61185e81611843565b811461186957600080fd5b50565b60008135905061187b81611855565b92915050565b6000806040838503121561189857611897611598565b5b60006118a68582860161161c565b92505060206118b78582860161186c565b9150509250929050565b60008115159050919050565b6118d6816118c1565b81146118e157600080fd5b50565b6000813590506118f3816118cd565b92915050565b600080600080600080600060e0888a03121561191857611917611598565b5b60006119268a828b016115be565b97505060206119378a828b0161161c565b96505060406119488a828b016115be565b95505060606119598a828b0161165a565b945050608061196a8a828b016115be565b93505060a061197b8a828b0161161c565b92505060c061198c8a828b016118e4565b91505092959891949750929550565b6000819050919050565b6119ae8161199b565b81146119b957600080fd5b50565b6000813590506119cb816119a5565b92915050565b60008060008060008060c087890312156119ee576119ed611598565b5b60006119fc89828a016119bc565b9650506020611a0d89828a016119bc565b9550506040611a1e89828a016119bc565b9450506060611a2f89828a016119bc565b9350506080611a4089828a016119bc565b92505060a0611a5189828a016119bc565b9150509295509295509295565b600060208284031215611a7457611a73611598565b5b6000611a82848285016115be565b91505092915050565b600082825260208201905092915050565b7f5265656e7472616e637947756172643a207265656e7472616e742063616c6c00600082015250565b6000611ad2601f83611a8b565b9150611add82611a9c565b602082019050919050565b60006020820190508181036000830152611b0181611ac5565b9050919050565b7f496e76616c6964203020696e7075740000000000000000000000000000000000600082015250565b6000611b3e600f83611a8b565b9150611b4982611b08565b602082019050919050565b60006020820190508181036000830152611b6d81611b31565b9050919050565b611b7d816115f3565b82525050565b6000606082019050611b986000830186611b74565b611ba560208301856116d6565b611bb260408301846116d6565b949350505050565b6000611bc5826115f3565b9050919050565b611bd581611bba565b8114611be057600080fd5b50565b600081519050611bf281611bcc565b92915050565b600060208284031215611c0e57611c0d611598565b5b6000611c1c84828501611be3565b91505092915050565b600081519050611c34816115a7565b92915050565b600080600060608486031215611c5357611c52611598565b5b6000611c6186828701611c25565b9350506020611c7286828701611c25565b9250506040611c8386828701611c25565b9150509250925092565b7f4e487b7100000000000000000000000000000000000000000000000000000000600052601160045260246000fd5b6000611cc78261159d565b9150611cd28361159d565b925082821015611ce557611ce4611c8d565b5b828203905092915050565b6000604082019050611d0560008301856116d6565b611d1260208301846116d6565b9392505050565b7f496e697469616c697a61626c653a20636f6e747261637420697320616c72656160008201527f647920696e697469616c697a6564000000000000000000000000000000000000602082015250565b6000611d75602e83611a8b565b9150611d8082611d19565b604082019050919050565b60006020820190508181036000830152611da481611d68565b9050919050565b6000611db6826115f3565b9050919050565b611dc681611dab565b8114611dd157600080fd5b50565b600081519050611de381611dbd565b92915050565b600060208284031215611dff57611dfe611598565b5b6000611e0d84828501611dd4565b91505092915050565b6000602082019050611e2b6000830184611b74565b92915050565b600081519050611e40816118cd565b92915050565b600060208284031215611e5c57611e5b611598565b5b6000611e6a84828501611e31565b91505092915050565b7f4e6f742041646d696e0000000000000000000000000000000000000000000000600082015250565b6000611ea9600983611a8b565b9150611eb482611e73565b602082019050919050565b60006020820190508181036000830152611ed881611e9c565b9050919050565b6000611eea8261159d565b9150611ef58361159d565b9250827fffffffffffffffffffffffffffffffffffffffffffffffffffffffffffffffff03821115611f2a57611f29611c8d565b5b828201905092915050565b7f4e487b7100000000000000000000000000000000000000000000000000000000600052604160045260246000fd5b600081519050919050565b600082825260208201905092915050565b60005b83811015611f9e578082015181840152602081019050611f83565b83811115611fad576000848401525b50505050565b6000601f19601f8301169050919050565b6000611fcf82611f64565b611fd98185611f6f565b9350611fe9818560208601611f80565b611ff281611fb3565b840191505092915050565b60006080820190506120126000830187611b74565b61201f60208301866116d6565b61202c60408301856116d6565b818103606083015261203e8184611fc4565b905095945050505050565b6000612054826117b9565b9050919050565b61206481612049565b82525050565b612073816118c1565b82525050565b600060e08201905061208e600083018a6116d6565b61209b6020830189611b74565b6120a860408301886116d6565b6120b5606083018761205b565b6120c260808301866116d6565b6120cf60a08301856116d6565b6120dc60c083018461206a565b98975050505050505050565b60006120f38261199b565b91506120fe8361199b565b9250817f7fffffffffffffffffffffffffffffffffffffffffffffffffffffffffffffff0383136000831215161561213957612138611c8d565b5b817f800000000000000000000000000000000000000000000000000000000000000003831260008312161561217157612170611c8d565b5b828201905092915050565b60006121878261199b565b91506121928361199b565b9250827f8000000000000000000000000000000000000000000000000000000000000000018212600084121516156121cd576121cc611c8d565b5b827f7fffffffffffffffffffffffffffffffffffffffffffffffffffffffffffffff01821360008412161561220557612204611c8d565b5b828203905092915050565b7f4e487b7100000000000000000000000000000000000000000000000000000000600052601260045260246000fd5b600061224a8261199b565b91506122558361199b565b92508261226557612264612210565b5b600160000383147f80000000000000000000000000000000000000000000000000000000000000008314161561229e5761229d611c8d565b5b828205905092915050565b60006122b48261199b565b91506122bf8361199b565b9250827f7fffffffffffffffffffffffffffffffffffffffffffffffffffffffffffffff04821160008413600084131616156122fe576122fd611c8d565b5b817f8000000000000000000000000000000000000000000000000000000000000000058312600084126000841316161561233b5761233a611c8d565b5b827f8000000000000000000000000000000000000000000000000000000000000000058212600084136000841216161561237857612377611c8d565b5b827f7fffffffffffffffffffffffffffffffffffffffffffffffffffffffffffffff05821260008412600084121616156123b5576123b4611c8d565b5b828202905092915050565b60006080820190506123d560008301876116d6565b6123e26020830186611b74565b6123ef60408301856116d6565b6123fc606083018461205b565b95945050505050565b600060408201905061241a6000830185611b74565b61242760208301846116d6565b9392505050565b60006060820190506124436000830186611b74565b6124506020830185611b74565b61245d60408301846116d6565b949350505050565b7f457874656e6465644d6174683a207371756172696e67206f766572666c6f7700600082015250565b600061249b601f83611a8b565b91506124a682612465565b602082019050919050565b600060208201905081810360008301526124ca8161248e565b9050919050565b7f4e65676174697665207371727400000000000000000000000000000000000000600082015250565b6000612507600d83611a8b565b9150612512826124d1565b602082019050919050565b60006020820190508181036000830152612536816124fa565b9050919050565b7f5361666545524332303a204552433230206f7065726174696f6e20646964206e60008201527f6f74207375636365656400000000000000000000000000000000000000000000602082015250565b6000612599602a83611a8b565b91506125a48261253d565b604082019050919050565b600060208201905081810360008301526125c88161258c565b9050919050565b7f457874656e6465644d6174683a20637562696e67206f766572666c6f77320000600082015250565b6000612605601e83611a8b565b9150612610826125cf565b602082019050919050565b60006020820190508181036000830152612634816125f8565b9050919050565b7f457874656e6465644d6174683a20637562696e67206f766572666c6f77330000600082015250565b6000612671601e83611a8b565b915061267c8261263b565b602082019050919050565b600060208201905081810360008301526126a081612664565b9050919050565b7f416464726573733a20696e73756666696369656e742062616c616e636520666f60008201527f722063616c6c0000000000000000000000000000000000000000000000000000602082015250565b6000612703602683611a8b565b915061270e826126a7565b604082019050919050565b60006020820190508181036000830152612732816126f6565b9050919050565b7f416464726573733a2063616c6c20746f206e6f6e2d636f6e7472616374000000600082015250565b600061276f601d83611a8b565b915061277a82612739565b602082019050919050565b6000602082019050818103600083015261279e81612762565b9050919050565b600081905092915050565b60006127bb82611f64565b6127c581856127a5565b93506127d5818560208601611f80565b80840191505092915050565b60006127ed82846127b0565b915081905092915050565b600081519050919050565b600061280e826127f8565b6128188185611a8b565b9350612828818560208601611f80565b61283181611fb3565b840191505092915050565b600060208201905081810360008301526128568184612803565b90509291505056fea2646970667358221220acf1373f3343c4f908c7e9c8cfbcb67426614fc190a887c3617126b59484f29764736f6c63430008090033",
  "devdoc": {
    "details": "This contract tracks tokens in a sigmoid bonding curve per Taker NFT. When users spend reactions against a Taker NFT, it will use the Curator Liability to buy curator tokens against that Taker NFT and allocate to various parties. The curator tokens will be priced via the sigmoid curve.  The params that control the shape of the sigmoid are set in the parameter manager. At any point in time the owners of the curator tokens can sell them back to the bonding curve.",
    "events": {
      "CuratorTokensBought(uint256,uint256,address,uint256,address,uint256,uint256,bool)": {
        "details": "Event triggered when curator tokens are purchased"
      },
      "CuratorTokensSold(uint256,uint256,uint256)": {
        "details": "Event triggered when curator tokens are sold"
      }
    },
    "kind": "dev",
    "methods": {
      "buyCuratorTokens(uint256,address,uint256,address,uint256,address,bool)": {
        "details": "Buy curator Tokens when reactions are spent. The reaction vault is the only account allowed to call this.",
        "returns": {
          "_0": "Returns the amount of curator tokens purchased."
        }
      },
      "calculatePaymentReturnedFromTokens(int256,int256,int256,int256,int256,int256)": {
        "details": "Selling Tokens into the curve will return payment tokens to be refunded",
        "params": {
          "a": "maxPrice of the curve / 2",
          "b": "inflectionPoint of the curve",
          "c": "slope steepness of the curve",
          "currentTokenSupply": "current amount of Tokens in the curve",
          "paymentReserves": "current mount of payment reserves in the curve",
          "tokensToSell": "amount the of Tokens the user wants to sell"
        }
      },
      "calculateTokensBoughtFromPayment(int256,int256,int256,int256,int256,int256)": {
        "details": "Buying into the curve with payment tokens will return Tokens amount to be bought",
        "params": {
          "a": "maxPrice of the curve / 2",
          "b": "inflectionPoint of the curve",
          "c": "slope steepness of the curve",
          "currentTokensSupply": "current amount of Tokens in the curve",
          "paymentReserves": "current mount of payment reserves in the curve",
          "paymentToSpend": "amount the of payment tokens to buy Tokens with"
        }
      },
      "getTokenId(uint256,address,uint256,address)": {
        "details": "get a unique token ID for a given nft address and nft ID"
      },
      "initialize(address,address)": {
        "details": "initializer to call after deployment, can only be called once"
      },
      "sellCuratorTokens(uint256,address,uint256,address,uint256,address)": {
        "details": "Sell curator tokens back into the bonding curve. Any holder who owns tokens can sell them back",
        "returns": {
          "_0": "Returns the amount of payment tokens received for the curator tokens."
        }
      }
    },
    "title": "SigmoidCuratorVault",
    "version": 1
  },
  "userdoc": {
    "kind": "user",
    "methods": {},
    "version": 1
  },
  "storageLayout": {
    "storage": [
      {
        "astId": 2797,
        "contract": "contracts/SigmoidCuratorVault/SigmoidCuratorVault.sol:SigmoidCuratorVault",
        "label": "_initialized",
        "offset": 0,
        "slot": "0",
        "type": "t_bool"
      },
      {
        "astId": 2800,
        "contract": "contracts/SigmoidCuratorVault/SigmoidCuratorVault.sol:SigmoidCuratorVault",
        "label": "_initializing",
        "offset": 1,
        "slot": "0",
        "type": "t_bool"
      },
      {
        "astId": 2878,
        "contract": "contracts/SigmoidCuratorVault/SigmoidCuratorVault.sol:SigmoidCuratorVault",
        "label": "_status",
        "offset": 0,
        "slot": "1",
        "type": "t_uint256"
      },
      {
        "astId": 2922,
        "contract": "contracts/SigmoidCuratorVault/SigmoidCuratorVault.sol:SigmoidCuratorVault",
        "label": "__gap",
        "offset": 0,
        "slot": "2",
        "type": "t_array(t_uint256)49_storage"
      },
      {
        "astId": 11267,
        "contract": "contracts/SigmoidCuratorVault/SigmoidCuratorVault.sol:SigmoidCuratorVault",
        "label": "addressManager",
        "offset": 0,
        "slot": "51",
        "type": "t_contract(IAddressManager)7551"
      },
      {
        "astId": 11272,
        "contract": "contracts/SigmoidCuratorVault/SigmoidCuratorVault.sol:SigmoidCuratorVault",
        "label": "curatorTokenSupply",
        "offset": 0,
        "slot": "52",
        "type": "t_mapping(t_uint256,t_uint256)"
      },
      {
        "astId": 11277,
        "contract": "contracts/SigmoidCuratorVault/SigmoidCuratorVault.sol:SigmoidCuratorVault",
        "label": "reserves",
        "offset": 0,
        "slot": "53",
        "type": "t_mapping(t_uint256,t_uint256)"
      },
      {
        "astId": 11281,
        "contract": "contracts/SigmoidCuratorVault/SigmoidCuratorVault.sol:SigmoidCuratorVault",
        "label": "curatorTokens",
        "offset": 0,
        "slot": "54",
        "type": "t_contract(IStandard1155)11442"
      }
    ],
    "types": {
      "t_array(t_uint256)49_storage": {
        "base": "t_uint256",
        "encoding": "inplace",
        "label": "uint256[49]",
        "numberOfBytes": "1568"
      },
      "t_bool": {
        "encoding": "inplace",
        "label": "bool",
        "numberOfBytes": "1"
      },
      "t_contract(IAddressManager)7551": {
        "encoding": "inplace",
        "label": "contract IAddressManager",
        "numberOfBytes": "20"
      },
      "t_contract(IStandard1155)11442": {
        "encoding": "inplace",
        "label": "contract IStandard1155",
        "numberOfBytes": "20"
      },
      "t_mapping(t_uint256,t_uint256)": {
        "encoding": "mapping",
        "key": "t_uint256",
        "label": "mapping(uint256 => uint256)",
        "numberOfBytes": "32",
        "value": "t_uint256"
      },
      "t_uint256": {
        "encoding": "inplace",
        "label": "uint256",
        "numberOfBytes": "32"
      }
    }
  }
}