{
  "address": "0x6Ed0B9932529E79204Aaee1E423944ac06b02d03",
  "abi": [
    {
      "anonymous": false,
      "inputs": [
        {
          "indexed": true,
          "internalType": "uint256",
          "name": "curatorTokenId",
          "type": "uint256"
        },
        {
          "indexed": false,
          "internalType": "uint256",
          "name": "nftChainId",
          "type": "uint256"
        },
        {
          "indexed": false,
          "internalType": "address",
          "name": "nftAddress",
          "type": "address"
        },
        {
          "indexed": false,
          "internalType": "uint256",
          "name": "nftId",
          "type": "uint256"
        },
        {
          "indexed": false,
          "internalType": "contract IERC20Upgradeable",
          "name": "paymentToken",
          "type": "address"
        },
        {
          "indexed": false,
          "internalType": "uint256",
          "name": "paymentTokenPaid",
          "type": "uint256"
        },
        {
          "indexed": false,
          "internalType": "uint256",
          "name": "curatorTokensBought",
          "type": "uint256"
        },
        {
          "indexed": false,
          "internalType": "bool",
          "name": "isTakerPosition",
          "type": "bool"
        }
      ],
      "name": "CuratorTokensBought",
      "type": "event"
    },
    {
      "anonymous": false,
      "inputs": [
        {
          "indexed": true,
          "internalType": "uint256",
          "name": "curatorTokenId",
          "type": "uint256"
        },
        {
          "indexed": false,
          "internalType": "uint256",
          "name": "paymentTokenRefunded",
          "type": "uint256"
        },
        {
          "indexed": false,
          "internalType": "uint256",
          "name": "curatorTokensSold",
          "type": "uint256"
        }
      ],
      "name": "CuratorTokensSold",
      "type": "event"
    },
    {
      "inputs": [],
      "name": "a",
      "outputs": [
        {
          "internalType": "uint256",
          "name": "",
          "type": "uint256"
        }
      ],
      "stateMutability": "view",
      "type": "function"
    },
    {
      "inputs": [],
      "name": "addressManager",
      "outputs": [
        {
          "internalType": "contract IAddressManager",
          "name": "",
          "type": "address"
        }
      ],
      "stateMutability": "view",
      "type": "function"
    },
    {
      "inputs": [],
      "name": "b",
      "outputs": [
        {
          "internalType": "uint256",
          "name": "",
          "type": "uint256"
        }
      ],
      "stateMutability": "view",
      "type": "function"
    },
    {
      "inputs": [
        {
          "internalType": "uint256",
          "name": "nftChainId",
          "type": "uint256"
        },
        {
          "internalType": "address",
          "name": "nftAddress",
          "type": "address"
        },
        {
          "internalType": "uint256",
          "name": "nftId",
          "type": "uint256"
        },
        {
          "internalType": "contract IERC20Upgradeable",
          "name": "paymentToken",
          "type": "address"
        },
        {
          "internalType": "uint256",
          "name": "paymentAmount",
          "type": "uint256"
        },
        {
          "internalType": "address",
          "name": "mintToAddress",
          "type": "address"
        },
        {
          "internalType": "bool",
          "name": "isTakerPosition",
          "type": "bool"
        }
      ],
      "name": "buyCuratorTokens",
      "outputs": [
        {
          "internalType": "uint256",
          "name": "",
          "type": "uint256"
        }
      ],
      "stateMutability": "nonpayable",
      "type": "function"
    },
    {
      "inputs": [],
      "name": "c",
      "outputs": [
        {
          "internalType": "uint256",
          "name": "",
          "type": "uint256"
        }
      ],
      "stateMutability": "view",
      "type": "function"
    },
    {
      "inputs": [
        {
          "internalType": "int256",
          "name": "a",
          "type": "int256"
        },
        {
          "internalType": "int256",
          "name": "b",
          "type": "int256"
        },
        {
          "internalType": "int256",
          "name": "c",
          "type": "int256"
        },
        {
          "internalType": "int256",
          "name": "currentTokenSupply",
          "type": "int256"
        },
        {
          "internalType": "int256",
          "name": "paymentReserves",
          "type": "int256"
        },
        {
          "internalType": "int256",
          "name": "tokensToSell",
          "type": "int256"
        }
      ],
      "name": "calculatePaymentReturnedFromTokens",
      "outputs": [
        {
          "internalType": "uint256",
          "name": "",
          "type": "uint256"
        }
      ],
      "stateMutability": "pure",
      "type": "function"
    },
    {
      "inputs": [
        {
          "internalType": "int256",
          "name": "a",
          "type": "int256"
        },
        {
          "internalType": "int256",
          "name": "b",
          "type": "int256"
        },
        {
          "internalType": "int256",
          "name": "c",
          "type": "int256"
        },
        {
          "internalType": "int256",
          "name": "currentTokensSupply",
          "type": "int256"
        },
        {
          "internalType": "int256",
          "name": "paymentReserves",
          "type": "int256"
        },
        {
          "internalType": "int256",
          "name": "paymentToSpend",
          "type": "int256"
        }
      ],
      "name": "calculateTokensBoughtFromPayment",
      "outputs": [
        {
          "internalType": "uint256",
          "name": "",
          "type": "uint256"
        }
      ],
      "stateMutability": "pure",
      "type": "function"
    },
    {
      "inputs": [
        {
          "internalType": "uint256",
          "name": "",
          "type": "uint256"
        }
      ],
      "name": "curatorTokenSupply",
      "outputs": [
        {
          "internalType": "uint256",
          "name": "",
          "type": "uint256"
        }
      ],
      "stateMutability": "view",
      "type": "function"
    },
    {
      "inputs": [],
      "name": "curatorTokens",
      "outputs": [
        {
          "internalType": "contract IStandard1155",
          "name": "",
          "type": "address"
        }
      ],
      "stateMutability": "view",
      "type": "function"
    },
    {
      "inputs": [
        {
          "internalType": "uint256",
          "name": "nftChainId",
          "type": "uint256"
        },
        {
          "internalType": "address",
          "name": "nftAddress",
          "type": "address"
        },
        {
          "internalType": "uint256",
          "name": "nftId",
          "type": "uint256"
        },
        {
          "internalType": "contract IERC20Upgradeable",
          "name": "paymentToken",
          "type": "address"
        }
      ],
      "name": "getTokenId",
      "outputs": [
        {
          "internalType": "uint256",
          "name": "",
          "type": "uint256"
        }
      ],
      "stateMutability": "pure",
      "type": "function"
    },
    {
      "inputs": [
        {
          "internalType": "address",
          "name": "_addressManager",
          "type": "address"
        },
        {
          "internalType": "contract IStandard1155",
          "name": "_curatorTokens",
          "type": "address"
        },
        {
          "internalType": "uint256",
          "name": "_a",
          "type": "uint256"
        },
        {
          "internalType": "uint256",
          "name": "_b",
          "type": "uint256"
        },
        {
          "internalType": "uint256",
          "name": "_c",
          "type": "uint256"
        }
      ],
      "name": "initialize",
      "outputs": [],
      "stateMutability": "nonpayable",
      "type": "function"
    },
    {
      "inputs": [
        {
          "internalType": "uint256",
          "name": "",
          "type": "uint256"
        }
      ],
      "name": "reserves",
      "outputs": [
        {
          "internalType": "uint256",
          "name": "",
          "type": "uint256"
        }
      ],
      "stateMutability": "view",
      "type": "function"
    },
    {
      "inputs": [
        {
          "internalType": "uint256",
          "name": "nftChainId",
          "type": "uint256"
        },
        {
          "internalType": "address",
          "name": "nftAddress",
          "type": "address"
        },
        {
          "internalType": "uint256",
          "name": "nftId",
          "type": "uint256"
        },
        {
          "internalType": "contract IERC20Upgradeable",
          "name": "paymentToken",
          "type": "address"
        },
        {
          "internalType": "uint256",
          "name": "tokensToBurn",
          "type": "uint256"
        },
        {
          "internalType": "address",
          "name": "refundToAddress",
          "type": "address"
        }
      ],
      "name": "sellCuratorTokens",
      "outputs": [
        {
          "internalType": "uint256",
          "name": "",
          "type": "uint256"
        }
      ],
      "stateMutability": "nonpayable",
      "type": "function"
    }
  ],
  "transactionHash": "0xfec06702456294589e6485d0ad7b2d7488385b261e96149ece156171ec729040",
  "args": [],
  "numDeployments": 1,
  "solcInputHash": "1bb5fabc9d817a9508142f5d3e8876df",
  "bytecode": "0x608060405234801561001057600080fd5b50612778806100206000396000f3fe608060405234801561001057600080fd5b50600436106100cf5760003560e01c806367e9dbcb1161008c578063c3da42b811610066578063c3da42b81461023c578063c9ff430c1461025a578063d13f90b41461028a578063d6cec5b7146102a6576100cf565b806367e9dbcb146101ac5780636893baf8146101dc5780638334278d1461020c576100cf565b80630dbe671f146100d457806317e1816c146100f25780631f2a8b061461012257806323115b99146101525780633ab76e9f146101705780634df7e3d01461018e575b600080fd5b6100dc6102d6565b6040516100e99190611573565b60405180910390f35b61010c6004803603810190610107919061165b565b6102dc565b6040516101199190611573565b60405180910390f35b61013c600480360381019061013791906116c2565b6102f4565b6040516101499190611573565b60405180910390f35b61015a610565565b60405161016791906117ae565b60405180910390f35b61017861058b565b60405161018591906117ea565b60405180910390f35b6101966105b1565b6040516101a39190611573565b60405180910390f35b6101c660048036038101906101c1919061183d565b6105b7565b6040516101d39190611573565b60405180910390f35b6101f660048036038101906101f19190611915565b610954565b6040516102039190611573565b60405180910390f35b610226600480360381019061022191906119a2565b610a1b565b6040516102339190611573565b60405180910390f35b610244610a33565b6040516102519190611573565b60405180910390f35b610274600480360381019061026f91906119a2565b610a39565b6040516102819190611573565b60405180910390f35b6102a4600480360381019061029f9190611a0d565b610a51565b005b6102c060048036038101906102bb9190611915565b610d23565b6040516102cd9190611573565b60405180910390f35b60375481565b60006102ea85858585610dce565b9050949350505050565b60006002600154141561033c576040517f08c379a000000000000000000000000000000000000000000000000000000000815260040161033390611ae5565b60405180910390fd5b600260018190555060008311610387576040517f08c379a000000000000000000000000000000000000000000000000000000000815260040161037e90611b51565b60405180910390fd5b600061039588888888610dce565b9050603660009054906101000a900473ffffffffffffffffffffffffffffffffffffffff1673ffffffffffffffffffffffffffffffffffffffff1663f5298aca3383876040518463ffffffff1660e01b81526004016103f693929190611b80565b600060405180830381600087803b15801561041057600080fd5b505af1158015610424573d6000803e3d6000fd5b505050506000610494610438603754610e0a565b610443603854610e0a565b61044e603954610e0a565b61046a6034600088815260200190815260200160002054610e0a565b6104866035600089815260200190815260200160002054610e0a565b61048f8b610e0a565b610d23565b9050806035600084815260200190815260200160002060008282546104b99190611be6565b92505081905550846034600084815260200190815260200160002060008282546104e39190611be6565b9250508190555061051584828873ffffffffffffffffffffffffffffffffffffffff16610e779092919063ffffffff16565b817fdfafe7ef66b19c68e35d3237d07d7c4bf90008019e12ea9e2adb12fdfdeb79178287604051610547929190611c1a565b60405180910390a28092505050600180819055509695505050505050565b603660009054906101000a900473ffffffffffffffffffffffffffffffffffffffff1681565b603360009054906101000a900473ffffffffffffffffffffffffffffffffffffffff1681565b60385481565b6000603360009054906101000a900473ffffffffffffffffffffffffffffffffffffffff1673ffffffffffffffffffffffffffffffffffffffff1662435da56040518163ffffffff1660e01b8152600401602060405180830381600087803b15801561062257600080fd5b505af1158015610636573d6000803e3d6000fd5b505050506040513d601f19601f8201168201806040525081019061065a9190611c81565b73ffffffffffffffffffffffffffffffffffffffff16638e975b35336040518263ffffffff1660e01b81526004016106929190611cae565b60206040518083038186803b1580156106aa57600080fd5b505afa1580156106be573d6000803e3d6000fd5b505050506040513d601f19601f820116820180604052508101906106e29190611cde565b610721576040517f08c379a000000000000000000000000000000000000000000000000000000000815260040161071890611d57565b60405180910390fd5b600061072f89898989610dce565b9050600061079d610741603754610e0a565b61074c603854610e0a565b610757603954610e0a565b6107736034600088815260200190815260200160002054610e0a565b61078f6035600089815260200190815260200160002054610e0a565b6107988c610e0a565b610954565b9050856035600084815260200190815260200160002060008282546107c29190611d77565b92505081905550806034600084815260200190815260200160002060008282546107ec9190611d77565b925050819055506108203330888a73ffffffffffffffffffffffffffffffffffffffff16610efd909392919063ffffffff16565b603660009054906101000a900473ffffffffffffffffffffffffffffffffffffffff1673ffffffffffffffffffffffffffffffffffffffff1663731133e9868484600067ffffffffffffffff81111561087c5761087b611dcd565b5b6040519080825280601f01601f1916602001820160405280156108ae5781602001600182028036833780820191505090505b506040518563ffffffff1660e01b81526004016108ce9493929190611e95565b600060405180830381600087803b1580156108e857600080fd5b505af11580156108fc573d6000803e3d6000fd5b50505050817f7ef62f60fd6b2d809eedbc8d39b5707298923d32fa9b56d3446ae566780b8f108b8b8b8b8b878b60405161093c9796959493929190611f11565b60405180910390a28092505050979650505050505050565b60008082846109639190611f80565b9050600061097389898985610f86565b61097f8a8a8a86611028565b61098b8b8b8b8761105f565b6109978c8c8c88611096565b6109a38d8d8d896110d5565b6109af8e8e8e8a611132565b6109bb8f8f8f8b611178565b6109c59190611f80565b6109cf9190612014565b6109d99190612014565b6109e39190612014565b6109ed9190612014565b6109f791906120d7565b9050610a0d8682610a089190612014565b61118d565b925050509695505050505050565b60356020528060005260406000206000915090505481565b60395481565b60346020528060005260406000206000915090505481565b600060019054906101000a900460ff16610a795760008054906101000a900460ff1615610a82565b610a816111da565b5b610ac1576040517f08c379a0000000000000000000000000000000000000000000000000000000008152600401610ab8906121b3565b60405180910390fd5b60008060019054906101000a900460ff161590508015610b11576001600060016101000a81548160ff02191690831515021790555060016000806101000a81548160ff0219169083151502179055505b600073ffffffffffffffffffffffffffffffffffffffff168673ffffffffffffffffffffffffffffffffffffffff1614156040518060400160405280600f81526020017f496e76616c6964203020696e707574000000000000000000000000000000000081525090610bb9576040517f08c379a0000000000000000000000000000000000000000000000000000000008152600401610bb09190612217565b60405180910390fd5b50600073ffffffffffffffffffffffffffffffffffffffff168573ffffffffffffffffffffffffffffffffffffffff1614156040518060400160405280600f81526020017f496e76616c6964203020696e707574000000000000000000000000000000000081525090610c62576040517f08c379a0000000000000000000000000000000000000000000000000000000008152600401610c599190612217565b60405180910390fd5b5085603360006101000a81548173ffffffffffffffffffffffffffffffffffffffff021916908373ffffffffffffffffffffffffffffffffffffffff16021790555084603660006101000a81548173ffffffffffffffffffffffffffffffffffffffff021916908373ffffffffffffffffffffffffffffffffffffffff1602179055508360378190555082603881905550816039819055508015610d1b5760008060016101000a81548160ff0219169083151502179055505b505050505050565b6000808285610d329190612014565b90506000610d5287610d438a6111eb565b610d4d9190611f80565b611200565b89610d5d9190612239565b905060008183610d8a8a610d7b878e610d769190612014565b6111eb565b610d859190611f80565b611200565b610d949190611f80565b8b610d9f9190612239565b610da99190612014565b9050610dbf8187610dba9190612014565b61118d565b93505050509695505050505050565b600084848484604051602001610de79493929190612350565b6040516020818303038152906040528051906020012060001c9050949350505050565b60007f7fffffffffffffffffffffffffffffffffffffffffffffffffffffffffffffff821115610e6f576040517f08c379a0000000000000000000000000000000000000000000000000000000008152600401610e6690612407565b60405180910390fd5b819050919050565b610ef88363a9059cbb60e01b8484604051602401610e96929190612427565b604051602081830303815290604052907bffffffffffffffffffffffffffffffffffffffffffffffffffffffff19166020820180517bffffffffffffffffffffffffffffffffffffffffffffffffffffffff83818316178352505050506112bd565b505050565b610f80846323b872dd60e01b858585604051602401610f1e93929190612450565b604051602081830303815290604052907bffffffffffffffffffffffffffffffffffffffffffffffffffffffff19166020820180517bffffffffffffffffffffffffffffffffffffffffffffffffffffffff83818316178352505050506112bd565b50505050565b6000610f91826111eb565b6002610f9d9190612239565b8285876004610fac9190612239565b610fb69190612239565b610fc09190612239565b84610fca886111eb565b7ffffffffffffffffffffffffffffffffffffffffffffffffffffffffffffffffe610ff59190612239565b610fff9190612239565b6110099190612014565b6110139190611f80565b8561101e9190612239565b9050949350505050565b6000611033826111eb565b848660016110419190612239565b61104b9190612239565b6110559190612239565b9050949350505050565b6000818361106c876111eb565b60026110789190612239565b6110829190612239565b61108c9190612239565b9050949350505050565b6000816110a2856111eb565b6110ab876111eb565b60026110b79190612239565b6110c19190612239565b6110cb9190612239565b9050949350505050565b60006110f3836110e4866111eb565b6110ee9190611f80565b611200565b82856110fe886111eb565b600261110a9190612239565b6111149190612239565b61111e9190612239565b6111289190612239565b9050949350505050565b600061115083611141866111eb565b61114b9190611f80565b611200565b611159836111eb565b866111649190612239565b61116e9190612239565b9050949350505050565b600061118382611384565b9050949350505050565b6000808212156111d2576040517f08c379a00000000000000000000000000000000000000000000000000000000081526004016111c9906124d3565b60405180910390fd5b819050919050565b60006111e5306113a4565b15905090565b600081826111f99190612239565b9050919050565b600080821215611245576040517f08c379a000000000000000000000000000000000000000000000000000000000815260040161123c9061253f565b60405180910390fd5b60038213156112aa578190506000600160028461126291906120d7565b61126c9190611f80565b90505b818112156112a457809150600281828561128991906120d7565b6112939190611f80565b61129d91906120d7565b905061126f565b506112b8565b600082146112b757600190505b5b919050565b600061131f826040518060400160405280602081526020017f5361666545524332303a206c6f772d6c6576656c2063616c6c206661696c65648152508573ffffffffffffffffffffffffffffffffffffffff166113c79092919063ffffffff16565b905060008151111561137f578080602001905181019061133f9190611cde565b61137e576040517f08c379a0000000000000000000000000000000000000000000000000000000008152600401611375906125d1565b60405180910390fd5b5b505050565b60008182836113939190612239565b61139d9190612239565b9050919050565b6000808273ffffffffffffffffffffffffffffffffffffffff163b119050919050565b60606113d684846000856113df565b90509392505050565b606082471015611424576040517f08c379a000000000000000000000000000000000000000000000000000000000815260040161141b90612663565b60405180910390fd5b61142d856113a4565b61146c576040517f08c379a0000000000000000000000000000000000000000000000000000000008152600401611463906126cf565b60405180910390fd5b6000808673ffffffffffffffffffffffffffffffffffffffff168587604051611495919061272b565b60006040518083038185875af1925050503d80600081146114d2576040519150601f19603f3d011682016040523d82523d6000602084013e6114d7565b606091505b50915091506114e78282866114f3565b92505050949350505050565b6060831561150357829050611553565b6000835111156115165782518084602001fd5b816040517f08c379a000000000000000000000000000000000000000000000000000000000815260040161154a9190612217565b60405180910390fd5b9392505050565b6000819050919050565b61156d8161155a565b82525050565b60006020820190506115886000830184611564565b92915050565b600080fd5b61159c8161155a565b81146115a757600080fd5b50565b6000813590506115b981611593565b92915050565b600073ffffffffffffffffffffffffffffffffffffffff82169050919050565b60006115ea826115bf565b9050919050565b6115fa816115df565b811461160557600080fd5b50565b600081359050611617816115f1565b92915050565b6000611628826115df565b9050919050565b6116388161161d565b811461164357600080fd5b50565b6000813590506116558161162f565b92915050565b600080600080608085870312156116755761167461158e565b5b6000611683878288016115aa565b945050602061169487828801611608565b93505060406116a5878288016115aa565b92505060606116b687828801611646565b91505092959194509250565b60008060008060008060c087890312156116df576116de61158e565b5b60006116ed89828a016115aa565b96505060206116fe89828a01611608565b955050604061170f89828a016115aa565b945050606061172089828a01611646565b935050608061173189828a016115aa565b92505060a061174289828a01611608565b9150509295509295509295565b6000819050919050565b600061177461176f61176a846115bf565b61174f565b6115bf565b9050919050565b600061178682611759565b9050919050565b60006117988261177b565b9050919050565b6117a88161178d565b82525050565b60006020820190506117c3600083018461179f565b92915050565b60006117d48261177b565b9050919050565b6117e4816117c9565b82525050565b60006020820190506117ff60008301846117db565b92915050565b60008115159050919050565b61181a81611805565b811461182557600080fd5b50565b60008135905061183781611811565b92915050565b600080600080600080600060e0888a03121561185c5761185b61158e565b5b600061186a8a828b016115aa565b975050602061187b8a828b01611608565b965050604061188c8a828b016115aa565b955050606061189d8a828b01611646565b94505060806118ae8a828b016115aa565b93505060a06118bf8a828b01611608565b92505060c06118d08a828b01611828565b91505092959891949750929550565b6000819050919050565b6118f2816118df565b81146118fd57600080fd5b50565b60008135905061190f816118e9565b92915050565b60008060008060008060c087890312156119325761193161158e565b5b600061194089828a01611900565b965050602061195189828a01611900565b955050604061196289828a01611900565b945050606061197389828a01611900565b935050608061198489828a01611900565b92505060a061199589828a01611900565b9150509295509295509295565b6000602082840312156119b8576119b761158e565b5b60006119c6848285016115aa565b91505092915050565b60006119da826115df565b9050919050565b6119ea816119cf565b81146119f557600080fd5b50565b600081359050611a07816119e1565b92915050565b600080600080600060a08688031215611a2957611a2861158e565b5b6000611a3788828901611608565b9550506020611a48888289016119f8565b9450506040611a59888289016115aa565b9350506060611a6a888289016115aa565b9250506080611a7b888289016115aa565b9150509295509295909350565b600082825260208201905092915050565b7f5265656e7472616e637947756172643a207265656e7472616e742063616c6c00600082015250565b6000611acf601f83611a88565b9150611ada82611a99565b602082019050919050565b60006020820190508181036000830152611afe81611ac2565b9050919050565b7f496e76616c6964203020696e7075740000000000000000000000000000000000600082015250565b6000611b3b600f83611a88565b9150611b4682611b05565b602082019050919050565b60006020820190508181036000830152611b6a81611b2e565b9050919050565b611b7a816115df565b82525050565b6000606082019050611b956000830186611b71565b611ba26020830185611564565b611baf6040830184611564565b949350505050565b7f4e487b7100000000000000000000000000000000000000000000000000000000600052601160045260246000fd5b6000611bf18261155a565b9150611bfc8361155a565b925082821015611c0f57611c0e611bb7565b5b828203905092915050565b6000604082019050611c2f6000830185611564565b611c3c6020830184611564565b9392505050565b6000611c4e826115df565b9050919050565b611c5e81611c43565b8114611c6957600080fd5b50565b600081519050611c7b81611c55565b92915050565b600060208284031215611c9757611c9661158e565b5b6000611ca584828501611c6c565b91505092915050565b6000602082019050611cc36000830184611b71565b92915050565b600081519050611cd881611811565b92915050565b600060208284031215611cf457611cf361158e565b5b6000611d0284828501611cc9565b91505092915050565b7f4e6f742041646d696e0000000000000000000000000000000000000000000000600082015250565b6000611d41600983611a88565b9150611d4c82611d0b565b602082019050919050565b60006020820190508181036000830152611d7081611d34565b9050919050565b6000611d828261155a565b9150611d8d8361155a565b9250827fffffffffffffffffffffffffffffffffffffffffffffffffffffffffffffffff03821115611dc257611dc1611bb7565b5b828201905092915050565b7f4e487b7100000000000000000000000000000000000000000000000000000000600052604160045260246000fd5b600081519050919050565b600082825260208201905092915050565b60005b83811015611e36578082015181840152602081019050611e1b565b83811115611e45576000848401525b50505050565b6000601f19601f8301169050919050565b6000611e6782611dfc565b611e718185611e07565b9350611e81818560208601611e18565b611e8a81611e4b565b840191505092915050565b6000608082019050611eaa6000830187611b71565b611eb76020830186611564565b611ec46040830185611564565b8181036060830152611ed68184611e5c565b905095945050505050565b6000611eec8261177b565b9050919050565b611efc81611ee1565b82525050565b611f0b81611805565b82525050565b600060e082019050611f26600083018a611564565b611f336020830189611b71565b611f406040830188611564565b611f4d6060830187611ef3565b611f5a6080830186611564565b611f6760a0830185611564565b611f7460c0830184611f02565b98975050505050505050565b6000611f8b826118df565b9150611f96836118df565b9250817f7fffffffffffffffffffffffffffffffffffffffffffffffffffffffffffffff03831360008312151615611fd157611fd0611bb7565b5b817f800000000000000000000000000000000000000000000000000000000000000003831260008312161561200957612008611bb7565b5b828201905092915050565b600061201f826118df565b915061202a836118df565b9250827f80000000000000000000000000000000000000000000000000000000000000000182126000841215161561206557612064611bb7565b5b827f7fffffffffffffffffffffffffffffffffffffffffffffffffffffffffffffff01821360008412161561209d5761209c611bb7565b5b828203905092915050565b7f4e487b7100000000000000000000000000000000000000000000000000000000600052601260045260246000fd5b60006120e2826118df565b91506120ed836118df565b9250826120fd576120fc6120a8565b5b600160000383147f80000000000000000000000000000000000000000000000000000000000000008314161561213657612135611bb7565b5b828205905092915050565b7f496e697469616c697a61626c653a20636f6e747261637420697320616c72656160008201527f647920696e697469616c697a6564000000000000000000000000000000000000602082015250565b600061219d602e83611a88565b91506121a882612141565b604082019050919050565b600060208201905081810360008301526121cc81612190565b9050919050565b600081519050919050565b60006121e9826121d3565b6121f38185611a88565b9350612203818560208601611e18565b61220c81611e4b565b840191505092915050565b6000602082019050818103600083015261223181846121de565b905092915050565b6000612244826118df565b915061224f836118df565b9250827f7fffffffffffffffffffffffffffffffffffffffffffffffffffffffffffffff048211600084136000841316161561228e5761228d611bb7565b5b817f800000000000000000000000000000000000000000000000000000000000000005831260008412600084131616156122cb576122ca611bb7565b5b827f8000000000000000000000000000000000000000000000000000000000000000058212600084136000841216161561230857612307611bb7565b5b827f7fffffffffffffffffffffffffffffffffffffffffffffffffffffffffffffff058212600084126000841216161561234557612344611bb7565b5b828202905092915050565b60006080820190506123656000830187611564565b6123726020830186611b71565b61237f6040830185611564565b61238c6060830184611ef3565b95945050505050565b7f53616665436173743a2076616c756520646f65736e27742066697420696e206160008201527f6e20696e74323536000000000000000000000000000000000000000000000000602082015250565b60006123f1602883611a88565b91506123fc82612395565b604082019050919050565b60006020820190508181036000830152612420816123e4565b9050919050565b600060408201905061243c6000830185611b71565b6124496020830184611564565b9392505050565b60006060820190506124656000830186611b71565b6124726020830185611b71565b61247f6040830184611564565b949350505050565b7f53616665436173743a2076616c7565206d75737420626520706f736974697665600082015250565b60006124bd602083611a88565b91506124c882612487565b602082019050919050565b600060208201905081810360008301526124ec816124b0565b9050919050565b7f4e65676174697665207371727400000000000000000000000000000000000000600082015250565b6000612529600d83611a88565b9150612534826124f3565b602082019050919050565b600060208201905081810360008301526125588161251c565b9050919050565b7f5361666545524332303a204552433230206f7065726174696f6e20646964206e60008201527f6f74207375636365656400000000000000000000000000000000000000000000602082015250565b60006125bb602a83611a88565b91506125c68261255f565b604082019050919050565b600060208201905081810360008301526125ea816125ae565b9050919050565b7f416464726573733a20696e73756666696369656e742062616c616e636520666f60008201527f722063616c6c0000000000000000000000000000000000000000000000000000602082015250565b600061264d602683611a88565b9150612658826125f1565b604082019050919050565b6000602082019050818103600083015261267c81612640565b9050919050565b7f416464726573733a2063616c6c20746f206e6f6e2d636f6e7472616374000000600082015250565b60006126b9601d83611a88565b91506126c482612683565b602082019050919050565b600060208201905081810360008301526126e8816126ac565b9050919050565b600081905092915050565b600061270582611dfc565b61270f81856126ef565b935061271f818560208601611e18565b80840191505092915050565b600061273782846126fa565b91508190509291505056fea26469706673582212207ad35409d3b588a51090d93076f8c4c6838a0d125e771c67894dc0755541ebb764736f6c63430008090033",
  "devdoc": {
    "details": "This contract tracks tokens in a sigmoid bonding curve per Taker NFT. When users spend reactions against a Taker NFT, it will use the Curator Liability to buy curator tokens against that Taker NFT and allocate to various parties. The curator tokens will be priced via the sigmoid curve.  The params that control the shape of the sigmoid are set in the parameter manager. At any point in time the owners of the curator tokens can sell them back to the bonding curve. Note: This contract is protected via a permissioned account set in the role manager.  Caution should be used as the role owner could renounce the role leaving all future actions disabled.  Additionally, if a malicious account was able to obtain the role, they could use it to set values to malicious values. See the public documentation website for more details.",
    "events": {
      "CuratorTokensBought(uint256,uint256,address,uint256,address,uint256,uint256,bool)": {
        "details": "Event triggered when curator tokens are purchased"
      },
      "CuratorTokensSold(uint256,uint256,uint256)": {
        "details": "Event triggered when curator tokens are sold"
      }
    },
    "kind": "dev",
    "methods": {
      "buyCuratorTokens(uint256,address,uint256,address,uint256,address,bool)": {
        "details": "Buy curator Tokens when reactions are spent. The reaction vault is the only account allowed to call this.",
        "returns": {
          "_0": "Returns the amount of curator tokens purchased."
        }
      },
      "calculatePaymentReturnedFromTokens(int256,int256,int256,int256,int256,int256)": {
        "details": "Selling Tokens into the curve will return payment tokens to be refunded",
        "params": {
          "a": "maxPrice of the curve / 2",
          "b": "inflectionPoint of the curve",
          "c": "slope steepness of the curve",
          "currentTokenSupply": "current amount of Tokens in the curve",
          "paymentReserves": "current mount of payment reserves in the curve",
          "tokensToSell": "amount the of Tokens the user wants to sell"
        }
      },
      "calculateTokensBoughtFromPayment(int256,int256,int256,int256,int256,int256)": {
        "details": "Buying into the curve with payment tokens will return Tokens amount to be bought",
        "params": {
          "a": "maxPrice of the curve / 2",
          "b": "inflectionPoint of the curve",
          "c": "slope steepness of the curve",
          "currentTokensSupply": "current amount of Tokens in the curve",
          "paymentReserves": "current mount of payment reserves in the curve",
          "paymentToSpend": "amount the of payment tokens to buy Tokens with"
        }
      },
      "getTokenId(uint256,address,uint256,address)": {
        "details": "get a unique token ID for a given nft address and nft ID"
      },
      "initialize(address,address,uint256,uint256,uint256)": {
        "details": "can only be called once",
        "params": {
          "_a": "- bonding curve param a",
          "_addressManager": "- address manager in the protocol",
          "_b": "- bonding curve param b",
          "_c": "- bonding curve param c",
          "_curatorTokens": "- curator token contract address"
        }
      },
      "sellCuratorTokens(uint256,address,uint256,address,uint256,address)": {
        "details": "Sell curator tokens back into the bonding curve. Any holder who owns tokens can sell them back",
        "returns": {
          "_0": "Returns the amount of payment tokens received for the curator tokens."
        }
      }
    },
    "title": "SigmoidCuratorVault",
    "version": 1
  },
  "userdoc": {
    "kind": "user",
    "methods": {
      "initialize(address,address,uint256,uint256,uint256)": {
        "notice": "initializer to call after deployment,"
      }
    },
    "version": 1
  },
  "storageLayout": {
    "storage": [
      {
        "astId": 1953,
        "contract": "contracts/SigmoidCuratorVault/SigmoidCuratorVault.sol:SigmoidCuratorVault",
        "label": "_initialized",
        "offset": 0,
        "slot": "0",
        "type": "t_bool"
      },
      {
        "astId": 1956,
        "contract": "contracts/SigmoidCuratorVault/SigmoidCuratorVault.sol:SigmoidCuratorVault",
        "label": "_initializing",
        "offset": 1,
        "slot": "0",
        "type": "t_bool"
      },
      {
        "astId": 2034,
        "contract": "contracts/SigmoidCuratorVault/SigmoidCuratorVault.sol:SigmoidCuratorVault",
        "label": "_status",
        "offset": 0,
        "slot": "1",
        "type": "t_uint256"
      },
      {
        "astId": 2078,
        "contract": "contracts/SigmoidCuratorVault/SigmoidCuratorVault.sol:SigmoidCuratorVault",
        "label": "__gap",
        "offset": 0,
        "slot": "2",
        "type": "t_array(t_uint256)49_storage"
      },
      {
        "astId": 9924,
        "contract": "contracts/SigmoidCuratorVault/SigmoidCuratorVault.sol:SigmoidCuratorVault",
        "label": "addressManager",
        "offset": 0,
        "slot": "51",
        "type": "t_contract(IAddressManager)6029"
      },
      {
        "astId": 9929,
        "contract": "contracts/SigmoidCuratorVault/SigmoidCuratorVault.sol:SigmoidCuratorVault",
        "label": "curatorTokenSupply",
        "offset": 0,
        "slot": "52",
        "type": "t_mapping(t_uint256,t_uint256)"
      },
      {
        "astId": 9934,
        "contract": "contracts/SigmoidCuratorVault/SigmoidCuratorVault.sol:SigmoidCuratorVault",
        "label": "reserves",
        "offset": 0,
        "slot": "53",
        "type": "t_mapping(t_uint256,t_uint256)"
      },
      {
        "astId": 9938,
        "contract": "contracts/SigmoidCuratorVault/SigmoidCuratorVault.sol:SigmoidCuratorVault",
        "label": "curatorTokens",
        "offset": 0,
        "slot": "54",
        "type": "t_contract(IStandard1155)10104"
      },
      {
        "astId": 9941,
        "contract": "contracts/SigmoidCuratorVault/SigmoidCuratorVault.sol:SigmoidCuratorVault",
        "label": "a",
        "offset": 0,
        "slot": "55",
        "type": "t_uint256"
      },
      {
        "astId": 9943,
        "contract": "contracts/SigmoidCuratorVault/SigmoidCuratorVault.sol:SigmoidCuratorVault",
        "label": "b",
        "offset": 0,
        "slot": "56",
        "type": "t_uint256"
      },
      {
        "astId": 9945,
        "contract": "contracts/SigmoidCuratorVault/SigmoidCuratorVault.sol:SigmoidCuratorVault",
        "label": "c",
        "offset": 0,
        "slot": "57",
        "type": "t_uint256"
      }
    ],
    "types": {
      "t_array(t_uint256)49_storage": {
        "base": "t_uint256",
        "encoding": "inplace",
        "label": "uint256[49]",
        "numberOfBytes": "1568"
      },
      "t_bool": {
        "encoding": "inplace",
        "label": "bool",
        "numberOfBytes": "1"
      },
      "t_contract(IAddressManager)6029": {
        "encoding": "inplace",
        "label": "contract IAddressManager",
        "numberOfBytes": "20"
      },
      "t_contract(IStandard1155)10104": {
        "encoding": "inplace",
        "label": "contract IStandard1155",
        "numberOfBytes": "20"
      },
      "t_mapping(t_uint256,t_uint256)": {
        "encoding": "mapping",
        "key": "t_uint256",
        "label": "mapping(uint256 => uint256)",
        "numberOfBytes": "32",
        "value": "t_uint256"
      },
      "t_uint256": {
        "encoding": "inplace",
        "label": "uint256",
        "numberOfBytes": "32"
      }
    }
  }
}