{
  "address": "0xc6C1c0E05699A6230c00a509eB1bF13c93Ba8c53",
  "abi": [
    {
      "anonymous": false,
      "inputs": [
        {
          "indexed": true,
          "internalType": "uint256",
          "name": "curatorTokenId",
          "type": "uint256"
        },
        {
          "indexed": false,
          "internalType": "uint256",
          "name": "nftChainId",
          "type": "uint256"
        },
        {
          "indexed": false,
          "internalType": "address",
          "name": "nftAddress",
          "type": "address"
        },
        {
          "indexed": false,
          "internalType": "uint256",
          "name": "nftId",
          "type": "uint256"
        },
        {
          "indexed": false,
          "internalType": "contract IERC20Upgradeable",
          "name": "paymentToken",
          "type": "address"
        },
        {
          "indexed": false,
          "internalType": "uint256",
          "name": "paymentTokenPaid",
          "type": "uint256"
        },
        {
          "indexed": false,
          "internalType": "uint256",
          "name": "curatorTokensBought",
          "type": "uint256"
        },
        {
          "indexed": false,
          "internalType": "bool",
          "name": "isTakerPosition",
          "type": "bool"
        }
      ],
      "name": "CuratorTokensBought",
      "type": "event"
    },
    {
      "anonymous": false,
      "inputs": [
        {
          "indexed": true,
          "internalType": "uint256",
          "name": "curatorTokenId",
          "type": "uint256"
        },
        {
          "indexed": false,
          "internalType": "uint256",
          "name": "paymentTokenRefunded",
          "type": "uint256"
        },
        {
          "indexed": false,
          "internalType": "uint256",
          "name": "curatorTokensSold",
          "type": "uint256"
        }
      ],
      "name": "CuratorTokensSold",
      "type": "event"
    },
    {
      "anonymous": false,
      "inputs": [
        {
          "indexed": false,
          "internalType": "uint8",
          "name": "version",
          "type": "uint8"
        }
      ],
      "name": "Initialized",
      "type": "event"
    },
    {
      "inputs": [],
      "name": "a",
      "outputs": [
        {
          "internalType": "uint256",
          "name": "",
          "type": "uint256"
        }
      ],
      "stateMutability": "view",
      "type": "function"
    },
    {
      "inputs": [],
      "name": "addressManager",
      "outputs": [
        {
          "internalType": "contract IAddressManager",
          "name": "",
          "type": "address"
        }
      ],
      "stateMutability": "view",
      "type": "function"
    },
    {
      "inputs": [],
      "name": "b",
      "outputs": [
        {
          "internalType": "uint256",
          "name": "",
          "type": "uint256"
        }
      ],
      "stateMutability": "view",
      "type": "function"
    },
    {
      "inputs": [
        {
          "internalType": "uint256",
          "name": "nftChainId",
          "type": "uint256"
        },
        {
          "internalType": "address",
          "name": "nftAddress",
          "type": "address"
        },
        {
          "internalType": "uint256",
          "name": "nftId",
          "type": "uint256"
        },
        {
          "internalType": "contract IERC20Upgradeable",
          "name": "paymentToken",
          "type": "address"
        },
        {
          "internalType": "uint256",
          "name": "paymentAmount",
          "type": "uint256"
        },
        {
          "internalType": "address",
          "name": "mintToAddress",
          "type": "address"
        },
        {
          "internalType": "bool",
          "name": "isTakerPosition",
          "type": "bool"
        }
      ],
      "name": "buyCuratorTokens",
      "outputs": [
        {
          "internalType": "uint256",
          "name": "",
          "type": "uint256"
        }
      ],
      "stateMutability": "nonpayable",
      "type": "function"
    },
    {
      "inputs": [],
      "name": "c",
      "outputs": [
        {
          "internalType": "uint256",
          "name": "",
          "type": "uint256"
        }
      ],
      "stateMutability": "view",
      "type": "function"
    },
    {
      "inputs": [
        {
          "internalType": "int256",
          "name": "a",
          "type": "int256"
        },
        {
          "internalType": "int256",
          "name": "b",
          "type": "int256"
        },
        {
          "internalType": "int256",
          "name": "c",
          "type": "int256"
        },
        {
          "internalType": "int256",
          "name": "currentTokenSupply",
          "type": "int256"
        },
        {
          "internalType": "int256",
          "name": "paymentReserves",
          "type": "int256"
        },
        {
          "internalType": "int256",
          "name": "tokensToSell",
          "type": "int256"
        }
      ],
      "name": "calculatePaymentReturnedFromTokens",
      "outputs": [
        {
          "internalType": "uint256",
          "name": "",
          "type": "uint256"
        }
      ],
      "stateMutability": "pure",
      "type": "function"
    },
    {
      "inputs": [
        {
          "internalType": "int256",
          "name": "a",
          "type": "int256"
        },
        {
          "internalType": "int256",
          "name": "b",
          "type": "int256"
        },
        {
          "internalType": "int256",
          "name": "c",
          "type": "int256"
        },
        {
          "internalType": "int256",
          "name": "currentTokensSupply",
          "type": "int256"
        },
        {
          "internalType": "int256",
          "name": "paymentReserves",
          "type": "int256"
        },
        {
          "internalType": "int256",
          "name": "paymentToSpend",
          "type": "int256"
        }
      ],
      "name": "calculateTokensBoughtFromPayment",
      "outputs": [
        {
          "internalType": "uint256",
          "name": "",
          "type": "uint256"
        }
      ],
      "stateMutability": "pure",
      "type": "function"
    },
    {
      "inputs": [
        {
          "internalType": "uint256",
          "name": "",
          "type": "uint256"
        }
      ],
      "name": "curatorTokenSupply",
      "outputs": [
        {
          "internalType": "uint256",
          "name": "",
          "type": "uint256"
        }
      ],
      "stateMutability": "view",
      "type": "function"
    },
    {
      "inputs": [],
      "name": "curatorTokens",
      "outputs": [
        {
          "internalType": "contract IStandard1155",
          "name": "",
          "type": "address"
        }
      ],
      "stateMutability": "view",
      "type": "function"
    },
    {
      "inputs": [
        {
          "internalType": "uint256",
          "name": "nftChainId",
          "type": "uint256"
        },
        {
          "internalType": "address",
          "name": "nftAddress",
          "type": "address"
        },
        {
          "internalType": "uint256",
          "name": "nftId",
          "type": "uint256"
        },
        {
          "internalType": "contract IERC20Upgradeable",
          "name": "paymentToken",
          "type": "address"
        }
      ],
      "name": "getTokenId",
      "outputs": [
        {
          "internalType": "uint256",
          "name": "",
          "type": "uint256"
        }
      ],
      "stateMutability": "pure",
      "type": "function"
    },
    {
      "inputs": [
        {
          "internalType": "address",
          "name": "_addressManager",
          "type": "address"
        },
        {
          "internalType": "contract IStandard1155",
          "name": "_curatorTokens",
          "type": "address"
        },
        {
          "internalType": "uint256",
          "name": "_a",
          "type": "uint256"
        },
        {
          "internalType": "uint256",
          "name": "_b",
          "type": "uint256"
        },
        {
          "internalType": "uint256",
          "name": "_c",
          "type": "uint256"
        }
      ],
      "name": "initialize",
      "outputs": [],
      "stateMutability": "nonpayable",
      "type": "function"
    },
    {
      "inputs": [
        {
          "internalType": "uint256",
          "name": "",
          "type": "uint256"
        }
      ],
      "name": "reserves",
      "outputs": [
        {
          "internalType": "uint256",
          "name": "",
          "type": "uint256"
        }
      ],
      "stateMutability": "view",
      "type": "function"
    },
    {
      "inputs": [
        {
          "internalType": "uint256",
          "name": "nftChainId",
          "type": "uint256"
        },
        {
          "internalType": "address",
          "name": "nftAddress",
          "type": "address"
        },
        {
          "internalType": "uint256",
          "name": "nftId",
          "type": "uint256"
        },
        {
          "internalType": "contract IERC20Upgradeable",
          "name": "paymentToken",
          "type": "address"
        },
        {
          "internalType": "uint256",
          "name": "tokensToBurn",
          "type": "uint256"
        },
        {
          "internalType": "address",
          "name": "refundToAddress",
          "type": "address"
        }
      ],
      "name": "sellCuratorTokens",
      "outputs": [
        {
          "internalType": "uint256",
          "name": "",
          "type": "uint256"
        }
      ],
      "stateMutability": "nonpayable",
      "type": "function"
    }
  ],
  "transactionHash": "0xb9182986fbbce57cfc99c0cb944eb4359cff80faa3bae6eaaef040057f9f45cc",
  "args": [],
  "numDeployments": 1,
  "solcInputHash": "e5086af1310b7ca1d6194e2a0e3afebd",
  "bytecode": "0x608060405234801561001057600080fd5b5061281c806100206000396000f3fe608060405234801561001057600080fd5b50600436106100cf5760003560e01c806367e9dbcb1161008c578063c3da42b811610066578063c3da42b81461023c578063c9ff430c1461025a578063d13f90b41461028a578063d6cec5b7146102a6576100cf565b806367e9dbcb146101ac5780636893baf8146101dc5780638334278d1461020c576100cf565b80630dbe671f146100d457806317e1816c146100f25780631f2a8b061461012257806323115b99146101525780633ab76e9f146101705780634df7e3d01461018e575b600080fd5b6100dc6102d6565b6040516100e991906115b4565b60405180910390f35b61010c6004803603810190610107919061169c565b6102dc565b60405161011991906115b4565b60405180910390f35b61013c60048036038101906101379190611703565b6102f4565b60405161014991906115b4565b60405180910390f35b61015a610565565b60405161016791906117ef565b60405180910390f35b61017861058b565b604051610185919061182b565b60405180910390f35b6101966105b1565b6040516101a391906115b4565b60405180910390f35b6101c660048036038101906101c1919061187e565b6105b7565b6040516101d391906115b4565b60405180910390f35b6101f660048036038101906101f19190611956565b610954565b60405161020391906115b4565b60405180910390f35b610226600480360381019061022191906119e3565b610a1b565b60405161023391906115b4565b60405180910390f35b610244610a33565b60405161025191906115b4565b60405180910390f35b610274600480360381019061026f91906119e3565b610a39565b60405161028191906115b4565b60405180910390f35b6102a4600480360381019061029f9190611a4e565b610a51565b005b6102c060048036038101906102bb9190611956565b610d75565b6040516102cd91906115b4565b60405180910390f35b60375481565b60006102ea85858585610e20565b9050949350505050565b60006002600154141561033c576040517f08c379a000000000000000000000000000000000000000000000000000000000815260040161033390611b26565b60405180910390fd5b600260018190555060008311610387576040517f08c379a000000000000000000000000000000000000000000000000000000000815260040161037e90611b92565b60405180910390fd5b600061039588888888610e20565b9050603660009054906101000a900473ffffffffffffffffffffffffffffffffffffffff1673ffffffffffffffffffffffffffffffffffffffff1663f5298aca3383876040518463ffffffff1660e01b81526004016103f693929190611bc1565b600060405180830381600087803b15801561041057600080fd5b505af1158015610424573d6000803e3d6000fd5b505050506000610494610438603754610e5c565b610443603854610e5c565b61044e603954610e5c565b61046a6034600088815260200190815260200160002054610e5c565b6104866035600089815260200190815260200160002054610e5c565b61048f8b610e5c565b610d75565b9050806035600084815260200190815260200160002060008282546104b99190611c27565b92505081905550846034600084815260200190815260200160002060008282546104e39190611c27565b9250508190555061051584828873ffffffffffffffffffffffffffffffffffffffff16610ec99092919063ffffffff16565b817fdfafe7ef66b19c68e35d3237d07d7c4bf90008019e12ea9e2adb12fdfdeb79178287604051610547929190611c5b565b60405180910390a28092505050600180819055509695505050505050565b603660009054906101000a900473ffffffffffffffffffffffffffffffffffffffff1681565b603360009054906101000a900473ffffffffffffffffffffffffffffffffffffffff1681565b60385481565b6000603360009054906101000a900473ffffffffffffffffffffffffffffffffffffffff1673ffffffffffffffffffffffffffffffffffffffff1662435da56040518163ffffffff1660e01b8152600401602060405180830381600087803b15801561062257600080fd5b505af1158015610636573d6000803e3d6000fd5b505050506040513d601f19601f8201168201806040525081019061065a9190611cc2565b73ffffffffffffffffffffffffffffffffffffffff16638e975b35336040518263ffffffff1660e01b81526004016106929190611cef565b60206040518083038186803b1580156106aa57600080fd5b505afa1580156106be573d6000803e3d6000fd5b505050506040513d601f19601f820116820180604052508101906106e29190611d1f565b610721576040517f08c379a000000000000000000000000000000000000000000000000000000000815260040161071890611d98565b60405180910390fd5b600061072f89898989610e20565b9050600061079d610741603754610e5c565b61074c603854610e5c565b610757603954610e5c565b6107736034600088815260200190815260200160002054610e5c565b61078f6035600089815260200190815260200160002054610e5c565b6107988c610e5c565b610954565b9050856035600084815260200190815260200160002060008282546107c29190611db8565b92505081905550806034600084815260200190815260200160002060008282546107ec9190611db8565b925050819055506108203330888a73ffffffffffffffffffffffffffffffffffffffff16610f4f909392919063ffffffff16565b603660009054906101000a900473ffffffffffffffffffffffffffffffffffffffff1673ffffffffffffffffffffffffffffffffffffffff1663731133e9868484600067ffffffffffffffff81111561087c5761087b611e0e565b5b6040519080825280601f01601f1916602001820160405280156108ae5781602001600182028036833780820191505090505b506040518563ffffffff1660e01b81526004016108ce9493929190611ed6565b600060405180830381600087803b1580156108e857600080fd5b505af11580156108fc573d6000803e3d6000fd5b50505050817f7ef62f60fd6b2d809eedbc8d39b5707298923d32fa9b56d3446ae566780b8f108b8b8b8b8b878b60405161093c9796959493929190611f52565b60405180910390a28092505050979650505050505050565b60008082846109639190611fc1565b9050600061097389898985610fd8565b61097f8a8a8a8661107a565b61098b8b8b8b876110b1565b6109978c8c8c886110e8565b6109a38d8d8d89611127565b6109af8e8e8e8a611184565b6109bb8f8f8f8b6111ca565b6109c59190611fc1565b6109cf9190612055565b6109d99190612055565b6109e39190612055565b6109ed9190612055565b6109f79190612118565b9050610a0d8682610a089190612055565b6111df565b925050509695505050505050565b60356020528060005260406000206000915090505481565b60395481565b60346020528060005260406000206000915090505481565b60008060019054906101000a900460ff16159050808015610a825750600160008054906101000a900460ff1660ff16105b80610aaf5750610a913061122c565b158015610aae5750600160008054906101000a900460ff1660ff16145b5b610aee576040517f08c379a0000000000000000000000000000000000000000000000000000000008152600401610ae5906121f4565b60405180910390fd5b60016000806101000a81548160ff021916908360ff1602179055508015610b2b576001600060016101000a81548160ff0219169083151502179055505b600073ffffffffffffffffffffffffffffffffffffffff168673ffffffffffffffffffffffffffffffffffffffff1614156040518060400160405280600f81526020017f496e76616c6964203020696e707574000000000000000000000000000000000081525090610bd3576040517f08c379a0000000000000000000000000000000000000000000000000000000008152600401610bca9190612258565b60405180910390fd5b50600073ffffffffffffffffffffffffffffffffffffffff168573ffffffffffffffffffffffffffffffffffffffff1614156040518060400160405280600f81526020017f496e76616c6964203020696e707574000000000000000000000000000000000081525090610c7c576040517f08c379a0000000000000000000000000000000000000000000000000000000008152600401610c739190612258565b60405180910390fd5b5085603360006101000a81548173ffffffffffffffffffffffffffffffffffffffff021916908373ffffffffffffffffffffffffffffffffffffffff16021790555084603660006101000a81548173ffffffffffffffffffffffffffffffffffffffff021916908373ffffffffffffffffffffffffffffffffffffffff1602179055508360378190555082603881905550816039819055508015610d6d5760008060016101000a81548160ff0219169083151502179055507f7f26b83ff96e1f2b6a682f133852f6798a09c465da95921460cefb38474024986001604051610d6491906122c2565b60405180910390a15b505050505050565b6000808285610d849190612055565b90506000610da487610d958a61124f565b610d9f9190611fc1565b611264565b89610daf91906122dd565b905060008183610ddc8a610dcd878e610dc89190612055565b61124f565b610dd79190611fc1565b611264565b610de69190611fc1565b8b610df191906122dd565b610dfb9190612055565b9050610e118187610e0c9190612055565b6111df565b93505050509695505050505050565b600084848484604051602001610e3994939291906123f4565b6040516020818303038152906040528051906020012060001c9050949350505050565b60007f7fffffffffffffffffffffffffffffffffffffffffffffffffffffffffffffff821115610ec1576040517f08c379a0000000000000000000000000000000000000000000000000000000008152600401610eb8906124ab565b60405180910390fd5b819050919050565b610f4a8363a9059cbb60e01b8484604051602401610ee89291906124cb565b604051602081830303815290604052907bffffffffffffffffffffffffffffffffffffffffffffffffffffffff19166020820180517bffffffffffffffffffffffffffffffffffffffffffffffffffffffff8381831617835250505050611321565b505050565b610fd2846323b872dd60e01b858585604051602401610f70939291906124f4565b604051602081830303815290604052907bffffffffffffffffffffffffffffffffffffffffffffffffffffffff19166020820180517bffffffffffffffffffffffffffffffffffffffffffffffffffffffff8381831617835250505050611321565b50505050565b6000610fe38261124f565b6002610fef91906122dd565b8285876004610ffe91906122dd565b61100891906122dd565b61101291906122dd565b8461101c8861124f565b7ffffffffffffffffffffffffffffffffffffffffffffffffffffffffffffffffe61104791906122dd565b61105191906122dd565b61105b9190612055565b6110659190611fc1565b8561107091906122dd565b9050949350505050565b60006110858261124f565b8486600161109391906122dd565b61109d91906122dd565b6110a791906122dd565b9050949350505050565b600081836110be8761124f565b60026110ca91906122dd565b6110d491906122dd565b6110de91906122dd565b9050949350505050565b6000816110f48561124f565b6110fd8761124f565b600261110991906122dd565b61111391906122dd565b61111d91906122dd565b9050949350505050565b6000611145836111368661124f565b6111409190611fc1565b611264565b82856111508861124f565b600261115c91906122dd565b61116691906122dd565b61117091906122dd565b61117a91906122dd565b9050949350505050565b60006111a2836111938661124f565b61119d9190611fc1565b611264565b6111ab8361124f565b866111b691906122dd565b6111c091906122dd565b9050949350505050565b60006111d5826113e8565b9050949350505050565b600080821215611224576040517f08c379a000000000000000000000000000000000000000000000000000000000815260040161121b90612577565b60405180910390fd5b819050919050565b6000808273ffffffffffffffffffffffffffffffffffffffff163b119050919050565b6000818261125d91906122dd565b9050919050565b6000808212156112a9576040517f08c379a00000000000000000000000000000000000000000000000000000000081526004016112a0906125e3565b60405180910390fd5b600382131561130e57819050600060016002846112c69190612118565b6112d09190611fc1565b90505b818112156113085780915060028182856112ed9190612118565b6112f79190611fc1565b6113019190612118565b90506112d3565b5061131c565b6000821461131b57600190505b5b919050565b6000611383826040518060400160405280602081526020017f5361666545524332303a206c6f772d6c6576656c2063616c6c206661696c65648152508573ffffffffffffffffffffffffffffffffffffffff166114089092919063ffffffff16565b90506000815111156113e357808060200190518101906113a39190611d1f565b6113e2576040517f08c379a00000000000000000000000000000000000000000000000000000000081526004016113d990612675565b60405180910390fd5b5b505050565b60008182836113f791906122dd565b61140191906122dd565b9050919050565b60606114178484600085611420565b90509392505050565b606082471015611465576040517f08c379a000000000000000000000000000000000000000000000000000000000815260040161145c90612707565b60405180910390fd5b61146e8561122c565b6114ad576040517f08c379a00000000000000000000000000000000000000000000000000000000081526004016114a490612773565b60405180910390fd5b6000808673ffffffffffffffffffffffffffffffffffffffff1685876040516114d691906127cf565b60006040518083038185875af1925050503d8060008114611513576040519150601f19603f3d011682016040523d82523d6000602084013e611518565b606091505b5091509150611528828286611534565b92505050949350505050565b6060831561154457829050611594565b6000835111156115575782518084602001fd5b816040517f08c379a000000000000000000000000000000000000000000000000000000000815260040161158b9190612258565b60405180910390fd5b9392505050565b6000819050919050565b6115ae8161159b565b82525050565b60006020820190506115c960008301846115a5565b92915050565b600080fd5b6115dd8161159b565b81146115e857600080fd5b50565b6000813590506115fa816115d4565b92915050565b600073ffffffffffffffffffffffffffffffffffffffff82169050919050565b600061162b82611600565b9050919050565b61163b81611620565b811461164657600080fd5b50565b60008135905061165881611632565b92915050565b600061166982611620565b9050919050565b6116798161165e565b811461168457600080fd5b50565b60008135905061169681611670565b92915050565b600080600080608085870312156116b6576116b56115cf565b5b60006116c4878288016115eb565b94505060206116d587828801611649565b93505060406116e6878288016115eb565b92505060606116f787828801611687565b91505092959194509250565b60008060008060008060c087890312156117205761171f6115cf565b5b600061172e89828a016115eb565b965050602061173f89828a01611649565b955050604061175089828a016115eb565b945050606061176189828a01611687565b935050608061177289828a016115eb565b92505060a061178389828a01611649565b9150509295509295509295565b6000819050919050565b60006117b56117b06117ab84611600565b611790565b611600565b9050919050565b60006117c78261179a565b9050919050565b60006117d9826117bc565b9050919050565b6117e9816117ce565b82525050565b600060208201905061180460008301846117e0565b92915050565b6000611815826117bc565b9050919050565b6118258161180a565b82525050565b6000602082019050611840600083018461181c565b92915050565b60008115159050919050565b61185b81611846565b811461186657600080fd5b50565b60008135905061187881611852565b92915050565b600080600080600080600060e0888a03121561189d5761189c6115cf565b5b60006118ab8a828b016115eb565b97505060206118bc8a828b01611649565b96505060406118cd8a828b016115eb565b95505060606118de8a828b01611687565b94505060806118ef8a828b016115eb565b93505060a06119008a828b01611649565b92505060c06119118a828b01611869565b91505092959891949750929550565b6000819050919050565b61193381611920565b811461193e57600080fd5b50565b6000813590506119508161192a565b92915050565b60008060008060008060c08789031215611973576119726115cf565b5b600061198189828a01611941565b965050602061199289828a01611941565b95505060406119a389828a01611941565b94505060606119b489828a01611941565b93505060806119c589828a01611941565b92505060a06119d689828a01611941565b9150509295509295509295565b6000602082840312156119f9576119f86115cf565b5b6000611a07848285016115eb565b91505092915050565b6000611a1b82611620565b9050919050565b611a2b81611a10565b8114611a3657600080fd5b50565b600081359050611a4881611a22565b92915050565b600080600080600060a08688031215611a6a57611a696115cf565b5b6000611a7888828901611649565b9550506020611a8988828901611a39565b9450506040611a9a888289016115eb565b9350506060611aab888289016115eb565b9250506080611abc888289016115eb565b9150509295509295909350565b600082825260208201905092915050565b7f5265656e7472616e637947756172643a207265656e7472616e742063616c6c00600082015250565b6000611b10601f83611ac9565b9150611b1b82611ada565b602082019050919050565b60006020820190508181036000830152611b3f81611b03565b9050919050565b7f496e76616c6964203020696e7075740000000000000000000000000000000000600082015250565b6000611b7c600f83611ac9565b9150611b8782611b46565b602082019050919050565b60006020820190508181036000830152611bab81611b6f565b9050919050565b611bbb81611620565b82525050565b6000606082019050611bd66000830186611bb2565b611be360208301856115a5565b611bf060408301846115a5565b949350505050565b7f4e487b7100000000000000000000000000000000000000000000000000000000600052601160045260246000fd5b6000611c328261159b565b9150611c3d8361159b565b925082821015611c5057611c4f611bf8565b5b828203905092915050565b6000604082019050611c7060008301856115a5565b611c7d60208301846115a5565b9392505050565b6000611c8f82611620565b9050919050565b611c9f81611c84565b8114611caa57600080fd5b50565b600081519050611cbc81611c96565b92915050565b600060208284031215611cd857611cd76115cf565b5b6000611ce684828501611cad565b91505092915050565b6000602082019050611d046000830184611bb2565b92915050565b600081519050611d1981611852565b92915050565b600060208284031215611d3557611d346115cf565b5b6000611d4384828501611d0a565b91505092915050565b7f4e6f742041646d696e0000000000000000000000000000000000000000000000600082015250565b6000611d82600983611ac9565b9150611d8d82611d4c565b602082019050919050565b60006020820190508181036000830152611db181611d75565b9050919050565b6000611dc38261159b565b9150611dce8361159b565b9250827fffffffffffffffffffffffffffffffffffffffffffffffffffffffffffffffff03821115611e0357611e02611bf8565b5b828201905092915050565b7f4e487b7100000000000000000000000000000000000000000000000000000000600052604160045260246000fd5b600081519050919050565b600082825260208201905092915050565b60005b83811015611e77578082015181840152602081019050611e5c565b83811115611e86576000848401525b50505050565b6000601f19601f8301169050919050565b6000611ea882611e3d565b611eb28185611e48565b9350611ec2818560208601611e59565b611ecb81611e8c565b840191505092915050565b6000608082019050611eeb6000830187611bb2565b611ef860208301866115a5565b611f0560408301856115a5565b8181036060830152611f178184611e9d565b905095945050505050565b6000611f2d826117bc565b9050919050565b611f3d81611f22565b82525050565b611f4c81611846565b82525050565b600060e082019050611f67600083018a6115a5565b611f746020830189611bb2565b611f8160408301886115a5565b611f8e6060830187611f34565b611f9b60808301866115a5565b611fa860a08301856115a5565b611fb560c0830184611f43565b98975050505050505050565b6000611fcc82611920565b9150611fd783611920565b9250817f7fffffffffffffffffffffffffffffffffffffffffffffffffffffffffffffff0383136000831215161561201257612011611bf8565b5b817f800000000000000000000000000000000000000000000000000000000000000003831260008312161561204a57612049611bf8565b5b828201905092915050565b600061206082611920565b915061206b83611920565b9250827f8000000000000000000000000000000000000000000000000000000000000000018212600084121516156120a6576120a5611bf8565b5b827f7fffffffffffffffffffffffffffffffffffffffffffffffffffffffffffffff0182136000841216156120de576120dd611bf8565b5b828203905092915050565b7f4e487b7100000000000000000000000000000000000000000000000000000000600052601260045260246000fd5b600061212382611920565b915061212e83611920565b92508261213e5761213d6120e9565b5b600160000383147f80000000000000000000000000000000000000000000000000000000000000008314161561217757612176611bf8565b5b828205905092915050565b7f496e697469616c697a61626c653a20636f6e747261637420697320616c72656160008201527f647920696e697469616c697a6564000000000000000000000000000000000000602082015250565b60006121de602e83611ac9565b91506121e982612182565b604082019050919050565b6000602082019050818103600083015261220d816121d1565b9050919050565b600081519050919050565b600061222a82612214565b6122348185611ac9565b9350612244818560208601611e59565b61224d81611e8c565b840191505092915050565b60006020820190508181036000830152612272818461221f565b905092915050565b6000819050919050565b600060ff82169050919050565b60006122ac6122a76122a28461227a565b611790565b612284565b9050919050565b6122bc81612291565b82525050565b60006020820190506122d760008301846122b3565b92915050565b60006122e882611920565b91506122f383611920565b9250827f7fffffffffffffffffffffffffffffffffffffffffffffffffffffffffffffff048211600084136000841316161561233257612331611bf8565b5b817f8000000000000000000000000000000000000000000000000000000000000000058312600084126000841316161561236f5761236e611bf8565b5b827f800000000000000000000000000000000000000000000000000000000000000005821260008413600084121616156123ac576123ab611bf8565b5b827f7fffffffffffffffffffffffffffffffffffffffffffffffffffffffffffffff05821260008412600084121616156123e9576123e8611bf8565b5b828202905092915050565b600060808201905061240960008301876115a5565b6124166020830186611bb2565b61242360408301856115a5565b6124306060830184611f34565b95945050505050565b7f53616665436173743a2076616c756520646f65736e27742066697420696e206160008201527f6e20696e74323536000000000000000000000000000000000000000000000000602082015250565b6000612495602883611ac9565b91506124a082612439565b604082019050919050565b600060208201905081810360008301526124c481612488565b9050919050565b60006040820190506124e06000830185611bb2565b6124ed60208301846115a5565b9392505050565b60006060820190506125096000830186611bb2565b6125166020830185611bb2565b61252360408301846115a5565b949350505050565b7f53616665436173743a2076616c7565206d75737420626520706f736974697665600082015250565b6000612561602083611ac9565b915061256c8261252b565b602082019050919050565b6000602082019050818103600083015261259081612554565b9050919050565b7f4e65676174697665207371727400000000000000000000000000000000000000600082015250565b60006125cd600d83611ac9565b91506125d882612597565b602082019050919050565b600060208201905081810360008301526125fc816125c0565b9050919050565b7f5361666545524332303a204552433230206f7065726174696f6e20646964206e60008201527f6f74207375636365656400000000000000000000000000000000000000000000602082015250565b600061265f602a83611ac9565b915061266a82612603565b604082019050919050565b6000602082019050818103600083015261268e81612652565b9050919050565b7f416464726573733a20696e73756666696369656e742062616c616e636520666f60008201527f722063616c6c0000000000000000000000000000000000000000000000000000602082015250565b60006126f1602683611ac9565b91506126fc82612695565b604082019050919050565b60006020820190508181036000830152612720816126e4565b9050919050565b7f416464726573733a2063616c6c20746f206e6f6e2d636f6e7472616374000000600082015250565b600061275d601d83611ac9565b915061276882612727565b602082019050919050565b6000602082019050818103600083015261278c81612750565b9050919050565b600081905092915050565b60006127a982611e3d565b6127b38185612793565b93506127c3818560208601611e59565b80840191505092915050565b60006127db828461279e565b91508190509291505056fea2646970667358221220f7049ff9e74484367e161d76fe79692d9f1260c76989685262557489e44e4c9c64736f6c63430008090033",
  "devdoc": {
    "details": "This contract tracks tokens in a sigmoid bonding curve per Taker NFT. When users spend reactions against a Taker NFT, it will use the Curator Liability to buy curator tokens against that Taker NFT and allocate to various parties. The curator tokens will be priced via the sigmoid curve.  The params that control the shape of the sigmoid are set in the parameter manager. At any point in time the owners of the curator tokens can sell them back to the bonding curve. Note: This contract is protected via a permissioned account set in the role manager.  Caution should be used as the role owner could renounce the role leaving all future actions disabled.  Additionally, if a malicious account was able to obtain the role, they could use it to set values to malicious values. See the public documentation website for more details.",
    "events": {
      "CuratorTokensBought(uint256,uint256,address,uint256,address,uint256,uint256,bool)": {
        "details": "Event triggered when curator tokens are purchased"
      },
      "CuratorTokensSold(uint256,uint256,uint256)": {
        "details": "Event triggered when curator tokens are sold"
      }
    },
    "kind": "dev",
    "methods": {
      "buyCuratorTokens(uint256,address,uint256,address,uint256,address,bool)": {
        "details": "Buy curator Tokens when reactions are spent. The reaction vault is the only account allowed to call this.",
        "returns": {
          "_0": "Returns the amount of curator tokens purchased."
        }
      },
      "calculatePaymentReturnedFromTokens(int256,int256,int256,int256,int256,int256)": {
        "details": "Selling Tokens into the curve will return payment tokens to be refunded",
        "params": {
          "a": "maxPrice of the curve / 2",
          "b": "inflectionPoint of the curve",
          "c": "slope steepness of the curve",
          "currentTokenSupply": "current amount of Tokens in the curve",
          "paymentReserves": "current mount of payment reserves in the curve",
          "tokensToSell": "amount the of Tokens the user wants to sell"
        }
      },
      "calculateTokensBoughtFromPayment(int256,int256,int256,int256,int256,int256)": {
        "details": "Buying into the curve with payment tokens will return Tokens amount to be bought",
        "params": {
          "a": "maxPrice of the curve / 2",
          "b": "inflectionPoint of the curve",
          "c": "slope steepness of the curve",
          "currentTokensSupply": "current amount of Tokens in the curve",
          "paymentReserves": "current mount of payment reserves in the curve",
          "paymentToSpend": "amount the of payment tokens to buy Tokens with"
        }
      },
      "getTokenId(uint256,address,uint256,address)": {
        "details": "get a unique token ID for a given nft address and nft ID"
      },
      "initialize(address,address,uint256,uint256,uint256)": {
        "details": "can only be called once",
        "params": {
          "_a": "- bonding curve param a",
          "_addressManager": "- address manager in the protocol",
          "_b": "- bonding curve param b",
          "_c": "- bonding curve param c",
          "_curatorTokens": "- curator token contract address"
        }
      },
      "sellCuratorTokens(uint256,address,uint256,address,uint256,address)": {
        "details": "Sell curator tokens back into the bonding curve. Any holder who owns tokens can sell them back",
        "returns": {
          "_0": "Returns the amount of payment tokens received for the curator tokens."
        }
      }
    },
    "title": "SigmoidCuratorVault",
    "version": 1
  },
  "userdoc": {
    "kind": "user",
    "methods": {
      "initialize(address,address,uint256,uint256,uint256)": {
        "notice": "initializer to call after deployment,"
      }
    },
    "version": 1
  },
  "storageLayout": {
    "storage": [
      {
        "astId": 2366,
        "contract": "contracts/SigmoidCuratorVault/SigmoidCuratorVault.sol:SigmoidCuratorVault",
        "label": "_initialized",
        "offset": 0,
        "slot": "0",
        "type": "t_uint8"
      },
      {
        "astId": 2369,
        "contract": "contracts/SigmoidCuratorVault/SigmoidCuratorVault.sol:SigmoidCuratorVault",
        "label": "_initializing",
        "offset": 1,
        "slot": "0",
        "type": "t_bool"
      },
      {
        "astId": 2524,
        "contract": "contracts/SigmoidCuratorVault/SigmoidCuratorVault.sol:SigmoidCuratorVault",
        "label": "_status",
        "offset": 0,
        "slot": "1",
        "type": "t_uint256"
      },
      {
        "astId": 2568,
        "contract": "contracts/SigmoidCuratorVault/SigmoidCuratorVault.sol:SigmoidCuratorVault",
        "label": "__gap",
        "offset": 0,
        "slot": "2",
        "type": "t_array(t_uint256)49_storage"
      },
      {
        "astId": 12594,
        "contract": "contracts/SigmoidCuratorVault/SigmoidCuratorVault.sol:SigmoidCuratorVault",
        "label": "addressManager",
        "offset": 0,
        "slot": "51",
        "type": "t_contract(IAddressManager)8538"
      },
      {
        "astId": 12599,
        "contract": "contracts/SigmoidCuratorVault/SigmoidCuratorVault.sol:SigmoidCuratorVault",
        "label": "curatorTokenSupply",
        "offset": 0,
        "slot": "52",
        "type": "t_mapping(t_uint256,t_uint256)"
      },
      {
        "astId": 12604,
        "contract": "contracts/SigmoidCuratorVault/SigmoidCuratorVault.sol:SigmoidCuratorVault",
        "label": "reserves",
        "offset": 0,
        "slot": "53",
        "type": "t_mapping(t_uint256,t_uint256)"
      },
      {
        "astId": 12608,
        "contract": "contracts/SigmoidCuratorVault/SigmoidCuratorVault.sol:SigmoidCuratorVault",
        "label": "curatorTokens",
        "offset": 0,
        "slot": "54",
        "type": "t_contract(IStandard1155)12865"
      },
      {
        "astId": 12611,
        "contract": "contracts/SigmoidCuratorVault/SigmoidCuratorVault.sol:SigmoidCuratorVault",
        "label": "a",
        "offset": 0,
        "slot": "55",
        "type": "t_uint256"
      },
      {
        "astId": 12613,
        "contract": "contracts/SigmoidCuratorVault/SigmoidCuratorVault.sol:SigmoidCuratorVault",
        "label": "b",
        "offset": 0,
        "slot": "56",
        "type": "t_uint256"
      },
      {
        "astId": 12615,
        "contract": "contracts/SigmoidCuratorVault/SigmoidCuratorVault.sol:SigmoidCuratorVault",
        "label": "c",
        "offset": 0,
        "slot": "57",
        "type": "t_uint256"
      }
    ],
    "types": {
      "t_array(t_uint256)49_storage": {
        "base": "t_uint256",
        "encoding": "inplace",
        "label": "uint256[49]",
        "numberOfBytes": "1568"
      },
      "t_bool": {
        "encoding": "inplace",
        "label": "bool",
        "numberOfBytes": "1"
      },
      "t_contract(IAddressManager)8538": {
        "encoding": "inplace",
        "label": "contract IAddressManager",
        "numberOfBytes": "20"
      },
      "t_contract(IStandard1155)12865": {
        "encoding": "inplace",
        "label": "contract IStandard1155",
        "numberOfBytes": "20"
      },
      "t_mapping(t_uint256,t_uint256)": {
        "encoding": "mapping",
        "key": "t_uint256",
        "label": "mapping(uint256 => uint256)",
        "numberOfBytes": "32",
        "value": "t_uint256"
      },
      "t_uint256": {
        "encoding": "inplace",
        "label": "uint256",
        "numberOfBytes": "32"
      },
      "t_uint8": {
        "encoding": "inplace",
        "label": "uint8",
        "numberOfBytes": "1"
      }
    }
  }
}