{
  "address": "0xE686618c1B0E8c34668f53eCA1Fd5B86390e61e4",
  "abi": [
    {
      "anonymous": false,
      "inputs": [
        {
          "indexed": true,
          "internalType": "uint256",
          "name": "curatorTokenId",
          "type": "uint256"
        },
        {
          "indexed": false,
          "internalType": "uint256",
          "name": "nftChainId",
          "type": "uint256"
        },
        {
          "indexed": false,
          "internalType": "address",
          "name": "nftAddress",
          "type": "address"
        },
        {
          "indexed": false,
          "internalType": "uint256",
          "name": "nftId",
          "type": "uint256"
        },
        {
          "indexed": false,
          "internalType": "contract IERC20Upgradeable",
          "name": "paymentToken",
          "type": "address"
        },
        {
          "indexed": false,
          "internalType": "uint256",
          "name": "paymentTokenPaid",
          "type": "uint256"
        },
        {
          "indexed": false,
          "internalType": "uint256",
          "name": "curatorTokensBought",
          "type": "uint256"
        },
        {
          "indexed": false,
          "internalType": "bool",
          "name": "isTakerPosition",
          "type": "bool"
        }
      ],
      "name": "CuratorTokensBought",
      "type": "event"
    },
    {
      "anonymous": false,
      "inputs": [
        {
          "indexed": true,
          "internalType": "uint256",
          "name": "curatorTokenId",
          "type": "uint256"
        },
        {
          "indexed": false,
          "internalType": "uint256",
          "name": "paymentTokenRefunded",
          "type": "uint256"
        },
        {
          "indexed": false,
          "internalType": "uint256",
          "name": "curatorTokensSold",
          "type": "uint256"
        }
      ],
      "name": "CuratorTokensSold",
      "type": "event"
    },
    {
      "inputs": [],
      "name": "a",
      "outputs": [
        {
          "internalType": "uint256",
          "name": "",
          "type": "uint256"
        }
      ],
      "stateMutability": "view",
      "type": "function"
    },
    {
      "inputs": [],
      "name": "addressManager",
      "outputs": [
        {
          "internalType": "contract IAddressManager",
          "name": "",
          "type": "address"
        }
      ],
      "stateMutability": "view",
      "type": "function"
    },
    {
      "inputs": [],
      "name": "b",
      "outputs": [
        {
          "internalType": "uint256",
          "name": "",
          "type": "uint256"
        }
      ],
      "stateMutability": "view",
      "type": "function"
    },
    {
      "inputs": [
        {
          "internalType": "uint256",
          "name": "nftChainId",
          "type": "uint256"
        },
        {
          "internalType": "address",
          "name": "nftAddress",
          "type": "address"
        },
        {
          "internalType": "uint256",
          "name": "nftId",
          "type": "uint256"
        },
        {
          "internalType": "contract IWMATIC",
          "name": "paymentToken",
          "type": "address"
        },
        {
          "internalType": "uint256",
          "name": "paymentAmount",
          "type": "uint256"
        },
        {
          "internalType": "address",
          "name": "mintToAddress",
          "type": "address"
        },
        {
          "internalType": "bool",
          "name": "isTakerPosition",
          "type": "bool"
        }
      ],
      "name": "buyCuratorTokens",
      "outputs": [
        {
          "internalType": "uint256",
          "name": "",
          "type": "uint256"
        }
      ],
      "stateMutability": "nonpayable",
      "type": "function"
    },
    {
      "inputs": [],
      "name": "c",
      "outputs": [
        {
          "internalType": "uint256",
          "name": "",
          "type": "uint256"
        }
      ],
      "stateMutability": "view",
      "type": "function"
    },
    {
      "inputs": [
        {
          "internalType": "int256",
          "name": "a",
          "type": "int256"
        },
        {
          "internalType": "int256",
          "name": "b",
          "type": "int256"
        },
        {
          "internalType": "int256",
          "name": "c",
          "type": "int256"
        },
        {
          "internalType": "int256",
          "name": "currentTokenSupply",
          "type": "int256"
        },
        {
          "internalType": "int256",
          "name": "paymentReserves",
          "type": "int256"
        },
        {
          "internalType": "int256",
          "name": "tokensToSell",
          "type": "int256"
        }
      ],
      "name": "calculatePaymentReturnedFromTokens",
      "outputs": [
        {
          "internalType": "uint256",
          "name": "",
          "type": "uint256"
        }
      ],
      "stateMutability": "pure",
      "type": "function"
    },
    {
      "inputs": [
        {
          "internalType": "int256",
          "name": "a",
          "type": "int256"
        },
        {
          "internalType": "int256",
          "name": "b",
          "type": "int256"
        },
        {
          "internalType": "int256",
          "name": "c",
          "type": "int256"
        },
        {
          "internalType": "int256",
          "name": "currentTokensSupply",
          "type": "int256"
        },
        {
          "internalType": "int256",
          "name": "paymentReserves",
          "type": "int256"
        },
        {
          "internalType": "int256",
          "name": "paymentToSpend",
          "type": "int256"
        }
      ],
      "name": "calculateTokensBoughtFromPayment",
      "outputs": [
        {
          "internalType": "uint256",
          "name": "",
          "type": "uint256"
        }
      ],
      "stateMutability": "pure",
      "type": "function"
    },
    {
      "inputs": [
        {
          "internalType": "uint256",
          "name": "",
          "type": "uint256"
        }
      ],
      "name": "curatorTokenSupply",
      "outputs": [
        {
          "internalType": "uint256",
          "name": "",
          "type": "uint256"
        }
      ],
      "stateMutability": "view",
      "type": "function"
    },
    {
      "inputs": [],
      "name": "curatorTokens",
      "outputs": [
        {
          "internalType": "contract IStandard1155",
          "name": "",
          "type": "address"
        }
      ],
      "stateMutability": "view",
      "type": "function"
    },
    {
      "inputs": [
        {
          "internalType": "uint256",
          "name": "nftChainId",
          "type": "uint256"
        },
        {
          "internalType": "address",
          "name": "nftAddress",
          "type": "address"
        },
        {
          "internalType": "uint256",
          "name": "nftId",
          "type": "uint256"
        },
        {
          "internalType": "contract IWMATIC",
          "name": "paymentToken",
          "type": "address"
        }
      ],
      "name": "getTokenId",
      "outputs": [
        {
          "internalType": "uint256",
          "name": "",
          "type": "uint256"
        }
      ],
      "stateMutability": "pure",
      "type": "function"
    },
    {
      "inputs": [
        {
          "internalType": "address",
          "name": "_addressManager",
          "type": "address"
        },
        {
          "internalType": "contract IStandard1155",
          "name": "_curatorTokens",
          "type": "address"
        },
        {
          "internalType": "uint256",
          "name": "_a",
          "type": "uint256"
        },
        {
          "internalType": "uint256",
          "name": "_b",
          "type": "uint256"
        },
        {
          "internalType": "uint256",
          "name": "_c",
          "type": "uint256"
        }
      ],
      "name": "initialize",
      "outputs": [],
      "stateMutability": "nonpayable",
      "type": "function"
    },
    {
      "inputs": [
        {
          "internalType": "uint256",
          "name": "",
          "type": "uint256"
        }
      ],
      "name": "reserves",
      "outputs": [
        {
          "internalType": "uint256",
          "name": "",
          "type": "uint256"
        }
      ],
      "stateMutability": "view",
      "type": "function"
    },
    {
      "inputs": [
        {
          "internalType": "uint256",
          "name": "nftChainId",
          "type": "uint256"
        },
        {
          "internalType": "address",
          "name": "nftAddress",
          "type": "address"
        },
        {
          "internalType": "uint256",
          "name": "nftId",
          "type": "uint256"
        },
        {
          "internalType": "contract IWMATIC",
          "name": "paymentToken",
          "type": "address"
        },
        {
          "internalType": "uint256",
          "name": "tokensToBurn",
          "type": "uint256"
        },
        {
          "internalType": "address",
          "name": "refundToAddress",
          "type": "address"
        }
      ],
      "name": "sellCuratorTokens",
      "outputs": [
        {
          "internalType": "uint256",
          "name": "",
          "type": "uint256"
        }
      ],
      "stateMutability": "nonpayable",
      "type": "function"
    },
    {
      "inputs": [],
      "name": "sweep",
      "outputs": [],
      "stateMutability": "nonpayable",
      "type": "function"
    },
    {
      "stateMutability": "payable",
      "type": "receive"
    }
  ],
  "transactionHash": "0xdf002d0258c2fdc249ffbb9004452f22aa5a8f753259009c0bafd36036a14347",
  "args": [],
  "numDeployments": 1,
  "solcInputHash": "593681b2c01e165bc9f025e81825be58",
  "bytecode": "0x608060405234801561001057600080fd5b5061188b806100206000396000f3fe6080604052600436106100c15760003560e01c806367e9dbcb1161006f57806367e9dbcb146101b05780636893baf8146101d05780638334278d146101f0578063c3da42b81461021d578063c9ff430c14610233578063d13f90b414610260578063d6cec5b71461028057600080fd5b80630dbe671f146100cd57806317e1816c146100f65780631f2a8b061461011657806323115b991461013657806335faa416146101635780633ab76e9f1461017a5780634df7e3d01461019a57600080fd5b366100c857005b600080fd5b3480156100d957600080fd5b506100e360375481565b6040519081526020015b60405180910390f35b34801561010257600080fd5b506100e36101113660046113b9565b6102a0565b34801561012257600080fd5b506100e3610131366004611403565b6102b7565b34801561014257600080fd5b50603654610156906001600160a01b031681565b6040516100ed919061146a565b34801561016f57600080fd5b5061017861067a565b005b34801561018657600080fd5b50603354610156906001600160a01b031681565b3480156101a657600080fd5b506100e360385481565b3480156101bc57600080fd5b506100e36101cb36600461148c565b6107c7565b3480156101dc57600080fd5b506100e36101eb366004611507565b610ab5565b3480156101fc57600080fd5b506100e361020b36600461154a565b60356020526000908152604090205481565b34801561022957600080fd5b506100e360395481565b34801561023f57600080fd5b506100e361024e36600461154a565b60346020526000908152604090205481565b34801561026c57600080fd5b5061017861027b366004611563565b610b77565b34801561028c57600080fd5b506100e361029b366004611507565b610d10565b60006102ae85858585610d9e565b95945050505050565b6000600260015414156103115760405162461bcd60e51b815260206004820152601f60248201527f5265656e7472616e637947756172643a207265656e7472616e742063616c6c0060448201526064015b60405180910390fd5b6002600155826103555760405162461bcd60e51b815260206004820152600f60248201526e125b9d985b1a59080c081a5b9c1d5d608a1b6044820152606401610308565b600061036388888888610d9e565b603654604051637a94c56560e11b815233600482015260248101839052604481018790529192506001600160a01b03169063f5298aca90606401600060405180830381600087803b1580156103b757600080fd5b505af11580156103cb573d6000803e3d6000fd5b50505050600061042e6103df603754610de7565b6103ea603854610de7565b6103f5603954610de7565b60008681526034602052604090205461040d90610de7565b60008781526035602052604090205461042590610de7565b61029b8b610de7565b90508060356000848152602001908152602001600020600082825461045391906115ca565b9091555050600082815260346020526040812080548792906104769084906115ca565b90915550506033546040805163b27bcea160e01b815290516001600160a01b039092169163b27bcea1916004808201926020929091908290030181600087803b1580156104c257600080fd5b505af11580156104d6573d6000803e3d6000fd5b505050506040513d601f19601f820116820180604052508101906104fa91906115e1565b6001600160a01b031663e4301ec56040518163ffffffff1660e01b8152600401602060405180830381600087803b15801561053457600080fd5b505af1158015610548573d6000803e3d6000fd5b505050506040513d601f19601f8201168201806040525081019061056c91906115e1565b6001600160a01b0316866001600160a01b0316141561061b57604051632e1a7d4d60e01b8152600481018290526001600160a01b03871690632e1a7d4d90602401600060405180830381600087803b1580156105c757600080fd5b505af11580156105db573d6000803e3d6000fd5b50506040516001600160a01b038716925083156108fc02915083906000818181858888f19350505050158015610615573d6000803e3d6000fd5b5061062f565b61062f6001600160a01b0387168583610e55565b604080518281526020810187905283917fdfafe7ef66b19c68e35d3237d07d7c4bf90008019e12ea9e2adb12fdfdeb7917910160405180910390a26001805598975050505050505050565b603360009054906101000a90046001600160a01b03166001600160a01b031662435da56040518163ffffffff1660e01b8152600401602060405180830381600087803b1580156106c957600080fd5b505af11580156106dd573d6000803e3d6000fd5b505050506040513d601f19601f8201168201806040525081019061070191906115e1565b6001600160a01b03166324d7806c336040518263ffffffff1660e01b815260040161072c919061146a565b60206040518083038186803b15801561074457600080fd5b505afa158015610758573d6000803e3d6000fd5b505050506040513d601f19601f8201168201806040525081019061077c91906115fe565b6107985760405162461bcd60e51b81526004016103089061161b565b60405133904780156108fc02916000818181858888f193505050501580156107c4573d6000803e3d6000fd5b50565b6033546040805162435da560e01b815290516000926001600160a01b03169162435da591600480830192602092919082900301818787803b15801561080b57600080fd5b505af115801561081f573d6000803e3d6000fd5b505050506040513d601f19601f8201168201806040525081019061084391906115e1565b6001600160a01b0316638e975b35336040518263ffffffff1660e01b815260040161086e919061146a565b60206040518083038186803b15801561088657600080fd5b505afa15801561089a573d6000803e3d6000fd5b505050506040513d601f19601f820116820180604052508101906108be91906115fe565b6108da5760405162461bcd60e51b81526004016103089061161b565b60006108e889898989610d9e565b905060006109496108fa603754610de7565b610905603854610de7565b610910603954610de7565b60008681526034602052604090205461092890610de7565b60008781526035602052604090205461094090610de7565b6101eb8c610de7565b90508560356000848152602001908152602001600020600082825461096e919061163e565b90915550506000828152603460205260408120805483929061099190849061163e565b909155506109ac90506001600160a01b038816333089610ebd565b6036546001600160a01b031663731133e986848460006040519080825280601f01601f1916602001820160405280156109ec576020820181803683370190505b506040518563ffffffff1660e01b8152600401610a0c94939291906116ae565b600060405180830381600087803b158015610a2657600080fd5b505af1158015610a3a573d6000803e3d6000fd5b5050604080518d81526001600160a01b03808e1660208301529181018c9052908a1660608201526080810189905260a0810184905286151560c08201528492507f7ef62f60fd6b2d809eedbc8d39b5707298923d32fa9b56d3446ae566780b8f10915060e00160405180910390a29998505050505050505050565b600080610ac283856116e5565b90506000610ad289898985610efb565b610ade8a8a8a86610f70565b610aea8b8b8b87610f9b565b610af68c8c8c88610fb3565b610b028d8d8d89610fc8565b610b0e8e8e8e8a610ff7565b610b1a8f8f8f8b611019565b610b2491906116e5565b610b2e9190611726565b610b389190611726565b610b429190611726565b610b4c9190611726565b610b569190611765565b9050610b6a610b658783611726565b611024565b9998505050505050505050565b600054610100900460ff16610b925760005460ff1615610b96565b303b155b610bf95760405162461bcd60e51b815260206004820152602e60248201527f496e697469616c697a61626c653a20636f6e747261637420697320616c72656160448201526d191e481a5b9a5d1a585b1a5e995960921b6064820152608401610308565b600054610100900460ff16158015610c1b576000805461ffff19166101011790555b60408051808201909152600f81526e125b9d985b1a59080c081a5b9c1d5d608a1b60208201526001600160a01b038716610c685760405162461bcd60e51b815260040161030891906117a1565b5060408051808201909152600f81526e125b9d985b1a59080c081a5b9c1d5d608a1b60208201526001600160a01b038616610cb65760405162461bcd60e51b815260040161030891906117a1565b50603380546001600160a01b038089166001600160a01b03199283161790925560368054928816929091169190911790556037849055603883905560398290558015610d08576000805461ff00191690555b505050505050565b600080610d1d8386611726565b90506000610d3d87610d2e8a611076565b610d3891906116e5565b611088565b610d47908a6117b4565b905060008183610d638a610d2e610d5e848f611726565b611076565b610d6d91906116e5565b610d77908c6117b4565b610d819190611726565b9050610d90610b658288611726565b9a9950505050505050505050565b604080516020808201969096526001600160a01b0394851681830152606081019390935292166080808301919091528251808303909101815260a0909101909152805191012090565b60006001600160ff1b03821115610e515760405162461bcd60e51b815260206004820152602860248201527f53616665436173743a2076616c756520646f65736e27742066697420696e2061604482015267371034b73a191a9b60c11b6064820152608401610308565b5090565b6040516001600160a01b038316602482015260448101829052610eb890849063a9059cbb60e01b906064015b60408051601f198184030181529190526020810180516001600160e01b03166001600160e01b031990931692909217909152611138565b505050565b6040516001600160a01b0380851660248301528316604482015260648101829052610ef59085906323b872dd60e01b90608401610e81565b50505050565b6000610f0682611076565b610f119060026117b4565b8285610f1e8860046117b4565b610f2891906117b4565b610f3291906117b4565b84610f3c88611076565b610f48906001196117b4565b610f5291906117b4565b610f5c9190611726565b610f6691906116e5565b6102ae90866117b4565b6000610f7b82611076565b84610f878760016117b4565b610f9191906117b4565b6102ae91906117b4565b60008183610fa887611076565b610f879060026117b4565b600081610fbf85611076565b610fa887611076565b6000610fd783610d2e86611076565b8285610fe288611076565b610fed9060026117b4565b610f8791906117b4565b600061100683610d2e86611076565b61100f83611076565b610f9190876117b4565b60006102ae8261120a565b600080821215610e515760405162461bcd60e51b815260206004820181905260248201527f53616665436173743a2076616c7565206d75737420626520706f7369746976656044820152606401610308565b600061108282806117b4565b92915050565b6000808212156110ca5760405162461bcd60e51b815260206004820152600d60248201526c139959d85d1a5d99481cdc5c9d609a1b6044820152606401610308565b600382131561112957508060006110e2600283611765565b6110ed9060016116e5565b90505b81811215611123579050806002816111088186611765565b61111291906116e5565b61111c9190611765565b90506110f0565b50919050565b8115611133575060015b919050565b600061118d826040518060400160405280602081526020017f5361666545524332303a206c6f772d6c6576656c2063616c6c206661696c6564815250856001600160a01b03166112219092919063ffffffff16565b805190915015610eb857808060200190518101906111ab91906115fe565b610eb85760405162461bcd60e51b815260206004820152602a60248201527f5361666545524332303a204552433230206f7065726174696f6e20646964206e6044820152691bdd081cdd58d8d9595960b21b6064820152608401610308565b60008161121781806117b4565b61108291906117b4565b6060611230848460008561123a565b90505b9392505050565b60608247101561129b5760405162461bcd60e51b815260206004820152602660248201527f416464726573733a20696e73756666696369656e742062616c616e636520666f6044820152651c8818d85b1b60d21b6064820152608401610308565b6001600160a01b0385163b6112f25760405162461bcd60e51b815260206004820152601d60248201527f416464726573733a2063616c6c20746f206e6f6e2d636f6e74726163740000006044820152606401610308565b600080866001600160a01b0316858760405161130e9190611839565b60006040518083038185875af1925050503d806000811461134b576040519150601f19603f3d011682016040523d82523d6000602084013e611350565b606091505b509150915061136082828661136b565b979650505050505050565b6060831561137a575081611233565b82511561138a5782518084602001fd5b8160405162461bcd60e51b815260040161030891906117a1565b6001600160a01b03811681146107c457600080fd5b600080600080608085870312156113cf57600080fd5b8435935060208501356113e1816113a4565b92506040850135915060608501356113f8816113a4565b939692955090935050565b60008060008060008060c0878903121561141c57600080fd5b86359550602087013561142e816113a4565b9450604087013593506060870135611445816113a4565b92506080870135915060a087013561145c816113a4565b809150509295509295509295565b6001600160a01b0391909116815260200190565b80151581146107c457600080fd5b600080600080600080600060e0888a0312156114a757600080fd5b8735965060208801356114b9816113a4565b95506040880135945060608801356114d0816113a4565b93506080880135925060a08801356114e7816113a4565b915060c08801356114f78161147e565b8091505092959891949750929550565b60008060008060008060c0878903121561152057600080fd5b505084359660208601359650604086013595606081013595506080810135945060a0013592509050565b60006020828403121561155c57600080fd5b5035919050565b600080600080600060a0868803121561157b57600080fd5b8535611586816113a4565b94506020860135611596816113a4565b94979496505050506040830135926060810135926080909101359150565b634e487b7160e01b600052601160045260246000fd5b6000828210156115dc576115dc6115b4565b500390565b6000602082840312156115f357600080fd5b8151611233816113a4565b60006020828403121561161057600080fd5b81516112338161147e565b6020808252600990820152682737ba1020b236b4b760b91b604082015260600190565b60008219821115611651576116516115b4565b500190565b60005b83811015611671578181015183820152602001611659565b83811115610ef55750506000910152565b6000815180845261169a816020860160208601611656565b601f01601f19169290920160200192915050565b60018060a01b03851681528360208201528260408201526080606082015260006116db6080830184611682565b9695505050505050565b600080821280156001600160ff1b0384900385131615611707576117076115b4565b600160ff1b8390038412811615611720576117206115b4565b50500190565b60008083128015600160ff1b850184121615611744576117446115b4565b6001600160ff1b038401831381161561175f5761175f6115b4565b50500390565b60008261178257634e487b7160e01b600052601260045260246000fd5b600160ff1b82146000198414161561179c5761179c6115b4565b500590565b6020815260006112336020830184611682565b60006001600160ff1b03818413828413808216868404861116156117da576117da6115b4565b600160ff1b60008712828116878305891216156117f9576117f96115b4565b60008712925087820587128484161615611815576118156115b4565b8785058712818416161561182b5761182b6115b4565b505050929093029392505050565b6000825161184b818460208701611656565b919091019291505056fea2646970667358221220b4c1d2aaa74918d1f6f363c69da69d45da4af11f4f11f7ed66d387e455eb19a464736f6c63430008090033",
  "devdoc": {
    "details": "This contract tracks tokens in a sigmoid bonding curve per Taker NFT. When users spend reactions against a Taker NFT, it will use the Curator Liability to buy curator tokens against that Taker NFT and allocate to various parties. The curator tokens will be priced via the sigmoid curve.  The params that control the shape of the sigmoid are set in the parameter manager. At any point in time the owners of the curator tokens can sell them back to the bonding curve. Note: This contract is protected via a permissioned account set in the role manager.  Caution should be used as the role owner could renounce the role leaving all future actions disabled.  Additionally, if a malicious account was able to obtain the role, they could use it to set values to malicious values. See the public documentation website for more details.",
    "events": {
      "CuratorTokensBought(uint256,uint256,address,uint256,address,uint256,uint256,bool)": {
        "details": "Event triggered when curator tokens are purchased"
      },
      "CuratorTokensSold(uint256,uint256,uint256)": {
        "details": "Event triggered when curator tokens are sold"
      }
    },
    "kind": "dev",
    "methods": {
      "buyCuratorTokens(uint256,address,uint256,address,uint256,address,bool)": {
        "details": "Buy curator Tokens when reactions are spent. The reaction vault is the only account allowed to call this.",
        "returns": {
          "_0": "Returns the amount of curator tokens purchased."
        }
      },
      "calculatePaymentReturnedFromTokens(int256,int256,int256,int256,int256,int256)": {
        "details": "Selling Tokens into the curve will return payment tokens to be refunded",
        "params": {
          "a": "maxPrice of the curve / 2",
          "b": "inflectionPoint of the curve",
          "c": "slope steepness of the curve",
          "currentTokenSupply": "current amount of Tokens in the curve",
          "paymentReserves": "current mount of payment reserves in the curve",
          "tokensToSell": "amount the of Tokens the user wants to sell"
        }
      },
      "calculateTokensBoughtFromPayment(int256,int256,int256,int256,int256,int256)": {
        "details": "Buying into the curve with payment tokens will return Tokens amount to be bought",
        "params": {
          "a": "maxPrice of the curve / 2",
          "b": "inflectionPoint of the curve",
          "c": "slope steepness of the curve",
          "currentTokensSupply": "current amount of Tokens in the curve",
          "paymentReserves": "current mount of payment reserves in the curve",
          "paymentToSpend": "amount the of payment tokens to buy Tokens with"
        }
      },
      "getTokenId(uint256,address,uint256,address)": {
        "details": "get a unique token ID for a given nft address and nft ID"
      },
      "initialize(address,address,uint256,uint256,uint256)": {
        "details": "can only be called once",
        "params": {
          "_a": "- bonding curve param a",
          "_addressManager": "- address manager in the protocol",
          "_b": "- bonding curve param b",
          "_c": "- bonding curve param c",
          "_curatorTokens": "- curator token contract address"
        }
      },
      "sellCuratorTokens(uint256,address,uint256,address,uint256,address)": {
        "details": "Sell curator tokens back into the bonding curve. Any holder who owns tokens can sell them back",
        "returns": {
          "_0": "Returns the amount of payment tokens received for the curator tokens."
        }
      },
      "sweep()": {
        "details": "Allows the admin account to sweep any MATIC that was accidentally sent"
      }
    },
    "title": "SigmoidCuratorVault",
    "version": 1
  },
  "userdoc": {
    "kind": "user",
    "methods": {
      "initialize(address,address,uint256,uint256,uint256)": {
        "notice": "initializer to call after deployment,"
      }
    },
    "version": 1
  },
  "storageLayout": {
    "storage": [
      {
        "astId": 2435,
        "contract": "contracts/CuratorVault/SigmoidCuratorVault2/SigmoidCuratorVault2.sol:SigmoidCuratorVault2",
        "label": "_initialized",
        "offset": 0,
        "slot": "0",
        "type": "t_bool"
      },
      {
        "astId": 2438,
        "contract": "contracts/CuratorVault/SigmoidCuratorVault2/SigmoidCuratorVault2.sol:SigmoidCuratorVault2",
        "label": "_initializing",
        "offset": 1,
        "slot": "0",
        "type": "t_bool"
      },
      {
        "astId": 2516,
        "contract": "contracts/CuratorVault/SigmoidCuratorVault2/SigmoidCuratorVault2.sol:SigmoidCuratorVault2",
        "label": "_status",
        "offset": 0,
        "slot": "1",
        "type": "t_uint256"
      },
      {
        "astId": 2560,
        "contract": "contracts/CuratorVault/SigmoidCuratorVault2/SigmoidCuratorVault2.sol:SigmoidCuratorVault2",
        "label": "__gap",
        "offset": 0,
        "slot": "2",
        "type": "t_array(t_uint256)49_storage"
      },
      {
        "astId": 10281,
        "contract": "contracts/CuratorVault/SigmoidCuratorVault2/SigmoidCuratorVault2.sol:SigmoidCuratorVault2",
        "label": "addressManager",
        "offset": 0,
        "slot": "51",
        "type": "t_contract(IAddressManager)8328"
      },
      {
        "astId": 10286,
        "contract": "contracts/CuratorVault/SigmoidCuratorVault2/SigmoidCuratorVault2.sol:SigmoidCuratorVault2",
        "label": "curatorTokenSupply",
        "offset": 0,
        "slot": "52",
        "type": "t_mapping(t_uint256,t_uint256)"
      },
      {
        "astId": 10291,
        "contract": "contracts/CuratorVault/SigmoidCuratorVault2/SigmoidCuratorVault2.sol:SigmoidCuratorVault2",
        "label": "reserves",
        "offset": 0,
        "slot": "53",
        "type": "t_mapping(t_uint256,t_uint256)"
      },
      {
        "astId": 10295,
        "contract": "contracts/CuratorVault/SigmoidCuratorVault2/SigmoidCuratorVault2.sol:SigmoidCuratorVault2",
        "label": "curatorTokens",
        "offset": 0,
        "slot": "54",
        "type": "t_contract(IStandard1155)14661"
      },
      {
        "astId": 10298,
        "contract": "contracts/CuratorVault/SigmoidCuratorVault2/SigmoidCuratorVault2.sol:SigmoidCuratorVault2",
        "label": "a",
        "offset": 0,
        "slot": "55",
        "type": "t_uint256"
      },
      {
        "astId": 10300,
        "contract": "contracts/CuratorVault/SigmoidCuratorVault2/SigmoidCuratorVault2.sol:SigmoidCuratorVault2",
        "label": "b",
        "offset": 0,
        "slot": "56",
        "type": "t_uint256"
      },
      {
        "astId": 10302,
        "contract": "contracts/CuratorVault/SigmoidCuratorVault2/SigmoidCuratorVault2.sol:SigmoidCuratorVault2",
        "label": "c",
        "offset": 0,
        "slot": "57",
        "type": "t_uint256"
      }
    ],
    "types": {
      "t_array(t_uint256)49_storage": {
        "base": "t_uint256",
        "encoding": "inplace",
        "label": "uint256[49]",
        "numberOfBytes": "1568"
      },
      "t_bool": {
        "encoding": "inplace",
        "label": "bool",
        "numberOfBytes": "1"
      },
      "t_contract(IAddressManager)8328": {
        "encoding": "inplace",
        "label": "contract IAddressManager",
        "numberOfBytes": "20"
      },
      "t_contract(IStandard1155)14661": {
        "encoding": "inplace",
        "label": "contract IStandard1155",
        "numberOfBytes": "20"
      },
      "t_mapping(t_uint256,t_uint256)": {
        "encoding": "mapping",
        "key": "t_uint256",
        "label": "mapping(uint256 => uint256)",
        "numberOfBytes": "32",
        "value": "t_uint256"
      },
      "t_uint256": {
        "encoding": "inplace",
        "label": "uint256",
        "numberOfBytes": "32"
      }
    }
  }
}