{
  "address": "0xc0c48b633Fc044Ea751C5a36c6d7Efb3BaD5C59a",
  "abi": [
    {
      "anonymous": false,
      "inputs": [
        {
          "indexed": true,
          "internalType": "address",
          "name": "owner",
          "type": "address"
        },
        {
          "indexed": true,
          "internalType": "address",
          "name": "spender",
          "type": "address"
        },
        {
          "indexed": false,
          "internalType": "uint256",
          "name": "value",
          "type": "uint256"
        }
      ],
      "name": "Approval",
      "type": "event"
    },
    {
      "anonymous": false,
      "inputs": [
        {
          "indexed": false,
          "internalType": "uint8",
          "name": "version",
          "type": "uint8"
        }
      ],
      "name": "Initialized",
      "type": "event"
    },
    {
      "anonymous": false,
      "inputs": [
        {
          "indexed": true,
          "internalType": "address",
          "name": "from",
          "type": "address"
        },
        {
          "indexed": true,
          "internalType": "address",
          "name": "to",
          "type": "address"
        },
        {
          "indexed": false,
          "internalType": "uint256",
          "name": "value",
          "type": "uint256"
        }
      ],
      "name": "Transfer",
      "type": "event"
    },
    {
      "inputs": [
        {
          "internalType": "address",
          "name": "owner",
          "type": "address"
        },
        {
          "internalType": "address",
          "name": "spender",
          "type": "address"
        }
      ],
      "name": "allowance",
      "outputs": [
        {
          "internalType": "uint256",
          "name": "",
          "type": "uint256"
        }
      ],
      "stateMutability": "view",
      "type": "function"
    },
    {
      "inputs": [
        {
          "internalType": "address",
          "name": "spender",
          "type": "address"
        },
        {
          "internalType": "uint256",
          "name": "amount",
          "type": "uint256"
        }
      ],
      "name": "approve",
      "outputs": [
        {
          "internalType": "bool",
          "name": "",
          "type": "bool"
        }
      ],
      "stateMutability": "nonpayable",
      "type": "function"
    },
    {
      "inputs": [
        {
          "internalType": "address",
          "name": "account",
          "type": "address"
        }
      ],
      "name": "balanceOf",
      "outputs": [
        {
          "internalType": "uint256",
          "name": "",
          "type": "uint256"
        }
      ],
      "stateMutability": "view",
      "type": "function"
    },
    {
      "inputs": [],
      "name": "decimals",
      "outputs": [
        {
          "internalType": "uint8",
          "name": "",
          "type": "uint8"
        }
      ],
      "stateMutability": "view",
      "type": "function"
    },
    {
      "inputs": [
        {
          "internalType": "address",
          "name": "spender",
          "type": "address"
        },
        {
          "internalType": "uint256",
          "name": "subtractedValue",
          "type": "uint256"
        }
      ],
      "name": "decreaseAllowance",
      "outputs": [
        {
          "internalType": "bool",
          "name": "",
          "type": "bool"
        }
      ],
      "stateMutability": "nonpayable",
      "type": "function"
    },
    {
      "inputs": [
        {
          "internalType": "address",
          "name": "spender",
          "type": "address"
        },
        {
          "internalType": "uint256",
          "name": "addedValue",
          "type": "uint256"
        }
      ],
      "name": "increaseAllowance",
      "outputs": [
        {
          "internalType": "bool",
          "name": "",
          "type": "bool"
        }
      ],
      "stateMutability": "nonpayable",
      "type": "function"
    },
    {
      "inputs": [
        {
          "internalType": "string",
          "name": "name_",
          "type": "string"
        },
        {
          "internalType": "string",
          "name": "symbol_",
          "type": "string"
        }
      ],
      "name": "initialize",
      "outputs": [],
      "stateMutability": "nonpayable",
      "type": "function"
    },
    {
      "inputs": [
        {
          "internalType": "address",
          "name": "to",
          "type": "address"
        },
        {
          "internalType": "uint256",
          "name": "amount",
          "type": "uint256"
        }
      ],
      "name": "mint",
      "outputs": [],
      "stateMutability": "nonpayable",
      "type": "function"
    },
    {
      "inputs": [],
      "name": "name",
      "outputs": [
        {
          "internalType": "string",
          "name": "",
          "type": "string"
        }
      ],
      "stateMutability": "view",
      "type": "function"
    },
    {
      "inputs": [],
      "name": "symbol",
      "outputs": [
        {
          "internalType": "string",
          "name": "",
          "type": "string"
        }
      ],
      "stateMutability": "view",
      "type": "function"
    },
    {
      "inputs": [],
      "name": "totalSupply",
      "outputs": [
        {
          "internalType": "uint256",
          "name": "",
          "type": "uint256"
        }
      ],
      "stateMutability": "view",
      "type": "function"
    },
    {
      "inputs": [
        {
          "internalType": "address",
          "name": "to",
          "type": "address"
        },
        {
          "internalType": "uint256",
          "name": "amount",
          "type": "uint256"
        }
      ],
      "name": "transfer",
      "outputs": [
        {
          "internalType": "bool",
          "name": "",
          "type": "bool"
        }
      ],
      "stateMutability": "nonpayable",
      "type": "function"
    },
    {
      "inputs": [
        {
          "internalType": "address",
          "name": "from",
          "type": "address"
        },
        {
          "internalType": "address",
          "name": "to",
          "type": "address"
        },
        {
          "internalType": "uint256",
          "name": "amount",
          "type": "uint256"
        }
      ],
      "name": "transferFrom",
      "outputs": [
        {
          "internalType": "bool",
          "name": "",
          "type": "bool"
        }
      ],
      "stateMutability": "nonpayable",
      "type": "function"
    }
  ],
  "transactionHash": "0x082f9e6d2b86dc6908a2071fae147c2c8405dff4139195ccbb4a04def2e7c1c4",
  "args": [],
  "numDeployments": 1,
  "solcInputHash": "e5086af1310b7ca1d6194e2a0e3afebd",
  "bytecode": "0x608060405234801561001057600080fd5b50611acb806100206000396000f3fe608060405234801561001057600080fd5b50600436106100cf5760003560e01c806340c10f191161008c57806395d89b411161006657806395d89b4114610226578063a457c2d714610244578063a9059cbb14610274578063dd62ed3e146102a4576100cf565b806340c10f19146101be5780634cd88b76146101da57806370a08231146101f6576100cf565b806306fdde03146100d4578063095ea7b3146100f257806318160ddd1461012257806323b872dd14610140578063313ce56714610170578063395093511461018e575b600080fd5b6100dc6102d4565b6040516100e99190610fd9565b60405180910390f35b61010c600480360381019061010791906110a3565b610366565b60405161011991906110fe565b60405180910390f35b61012a610389565b6040516101379190611128565b60405180910390f35b61015a60048036038101906101559190611143565b610393565b60405161016791906110fe565b60405180910390f35b6101786103c2565b60405161018591906111b2565b60405180910390f35b6101a860048036038101906101a391906110a3565b6103cb565b6040516101b591906110fe565b60405180910390f35b6101d860048036038101906101d391906110a3565b610402565b005b6101f460048036038101906101ef9190611302565b610410565b005b610210600480360381019061020b919061137a565b610552565b60405161021d9190611128565b60405180910390f35b61022e61059b565b60405161023b9190610fd9565b60405180910390f35b61025e600480360381019061025991906110a3565b61062d565b60405161026b91906110fe565b60405180910390f35b61028e600480360381019061028991906110a3565b6106a4565b60405161029b91906110fe565b60405180910390f35b6102be60048036038101906102b991906113a7565b6106c7565b6040516102cb9190611128565b60405180910390f35b6060603680546102e390611416565b80601f016020809104026020016040519081016040528092919081815260200182805461030f90611416565b801561035c5780601f106103315761010080835404028352916020019161035c565b820191906000526020600020905b81548152906001019060200180831161033f57829003601f168201915b5050505050905090565b60008061037161074e565b905061037e818585610756565b600191505092915050565b6000603554905090565b60008061039e61074e565b90506103ab858285610921565b6103b68585856109ad565b60019150509392505050565b60006006905090565b6000806103d661074e565b90506103f78185856103e885896106c7565b6103f29190611477565b610756565b600191505092915050565b61040c8282610c31565b5050565b60008060019054906101000a900460ff161590508080156104415750600160008054906101000a900460ff1660ff16105b8061046e575061045030610d92565b15801561046d5750600160008054906101000a900460ff1660ff16145b5b6104ad576040517f08c379a00000000000000000000000000000000000000000000000000000000081526004016104a49061153f565b60405180910390fd5b60016000806101000a81548160ff021916908360ff16021790555080156104ea576001600060016101000a81548160ff0219169083151502179055505b6104f48383610db5565b801561054d5760008060016101000a81548160ff0219169083151502179055507f7f26b83ff96e1f2b6a682f133852f6798a09c465da95921460cefb3847402498600160405161054491906115a4565b60405180910390a15b505050565b6000603360008373ffffffffffffffffffffffffffffffffffffffff1673ffffffffffffffffffffffffffffffffffffffff168152602001908152602001600020549050919050565b6060603780546105aa90611416565b80601f01602080910402602001604051908101604052809291908181526020018280546105d690611416565b80156106235780601f106105f857610100808354040283529160200191610623565b820191906000526020600020905b81548152906001019060200180831161060657829003601f168201915b5050505050905090565b60008061063861074e565b9050600061064682866106c7565b90508381101561068b576040517f08c379a000000000000000000000000000000000000000000000000000000000815260040161068290611631565b60405180910390fd5b6106988286868403610756565b60019250505092915050565b6000806106af61074e565b90506106bc8185856109ad565b600191505092915050565b6000603460008473ffffffffffffffffffffffffffffffffffffffff1673ffffffffffffffffffffffffffffffffffffffff16815260200190815260200160002060008373ffffffffffffffffffffffffffffffffffffffff1673ffffffffffffffffffffffffffffffffffffffff16815260200190815260200160002054905092915050565b600033905090565b600073ffffffffffffffffffffffffffffffffffffffff168373ffffffffffffffffffffffffffffffffffffffff1614156107c6576040517f08c379a00000000000000000000000000000000000000000000000000000000081526004016107bd906116c3565b60405180910390fd5b600073ffffffffffffffffffffffffffffffffffffffff168273ffffffffffffffffffffffffffffffffffffffff161415610836576040517f08c379a000000000000000000000000000000000000000000000000000000000815260040161082d90611755565b60405180910390fd5b80603460008573ffffffffffffffffffffffffffffffffffffffff1673ffffffffffffffffffffffffffffffffffffffff16815260200190815260200160002060008473ffffffffffffffffffffffffffffffffffffffff1673ffffffffffffffffffffffffffffffffffffffff168152602001908152602001600020819055508173ffffffffffffffffffffffffffffffffffffffff168373ffffffffffffffffffffffffffffffffffffffff167f8c5be1e5ebec7d5bd14f71427d1e84f3dd0314c0f7b2291e5b200ac8c7c3b925836040516109149190611128565b60405180910390a3505050565b600061092d84846106c7565b90507fffffffffffffffffffffffffffffffffffffffffffffffffffffffffffffffff81146109a75781811015610999576040517f08c379a0000000000000000000000000000000000000000000000000000000008152600401610990906117c1565b60405180910390fd5b6109a68484848403610756565b5b50505050565b600073ffffffffffffffffffffffffffffffffffffffff168373ffffffffffffffffffffffffffffffffffffffff161415610a1d576040517f08c379a0000000000000000000000000000000000000000000000000000000008152600401610a1490611853565b60405180910390fd5b600073ffffffffffffffffffffffffffffffffffffffff168273ffffffffffffffffffffffffffffffffffffffff161415610a8d576040517f08c379a0000000000000000000000000000000000000000000000000000000008152600401610a84906118e5565b60405180910390fd5b610a98838383610e12565b6000603360008573ffffffffffffffffffffffffffffffffffffffff1673ffffffffffffffffffffffffffffffffffffffff16815260200190815260200160002054905081811015610b1f576040517f08c379a0000000000000000000000000000000000000000000000000000000008152600401610b1690611977565b60405180910390fd5b818103603360008673ffffffffffffffffffffffffffffffffffffffff1673ffffffffffffffffffffffffffffffffffffffff1681526020019081526020016000208190555081603360008573ffffffffffffffffffffffffffffffffffffffff1673ffffffffffffffffffffffffffffffffffffffff1681526020019081526020016000206000828254610bb49190611477565b925050819055508273ffffffffffffffffffffffffffffffffffffffff168473ffffffffffffffffffffffffffffffffffffffff167fddf252ad1be2c89b69c2b068fc378daa952ba7f163c4a11628f55a4df523b3ef84604051610c189190611128565b60405180910390a3610c2b848484610e17565b50505050565b600073ffffffffffffffffffffffffffffffffffffffff168273ffffffffffffffffffffffffffffffffffffffff161415610ca1576040517f08c379a0000000000000000000000000000000000000000000000000000000008152600401610c98906119e3565b60405180910390fd5b610cad60008383610e12565b8060356000828254610cbf9190611477565b9250508190555080603360008473ffffffffffffffffffffffffffffffffffffffff1673ffffffffffffffffffffffffffffffffffffffff1681526020019081526020016000206000828254610d159190611477565b925050819055508173ffffffffffffffffffffffffffffffffffffffff16600073ffffffffffffffffffffffffffffffffffffffff167fddf252ad1be2c89b69c2b068fc378daa952ba7f163c4a11628f55a4df523b3ef83604051610d7a9190611128565b60405180910390a3610d8e60008383610e17565b5050565b6000808273ffffffffffffffffffffffffffffffffffffffff163b119050919050565b600060019054906101000a900460ff16610e04576040517f08c379a0000000000000000000000000000000000000000000000000000000008152600401610dfb90611a75565b60405180910390fd5b610e0e8282610e1c565b5050565b505050565b505050565b600060019054906101000a900460ff16610e6b576040517f08c379a0000000000000000000000000000000000000000000000000000000008152600401610e6290611a75565b60405180910390fd5b8160369080519060200190610e81929190610e9d565b508060379080519060200190610e98929190610e9d565b505050565b828054610ea990611416565b90600052602060002090601f016020900481019282610ecb5760008555610f12565b82601f10610ee457805160ff1916838001178555610f12565b82800160010185558215610f12579182015b82811115610f11578251825591602001919060010190610ef6565b5b509050610f1f9190610f23565b5090565b5b80821115610f3c576000816000905550600101610f24565b5090565b600081519050919050565b600082825260208201905092915050565b60005b83811015610f7a578082015181840152602081019050610f5f565b83811115610f89576000848401525b50505050565b6000601f19601f8301169050919050565b6000610fab82610f40565b610fb58185610f4b565b9350610fc5818560208601610f5c565b610fce81610f8f565b840191505092915050565b60006020820190508181036000830152610ff38184610fa0565b905092915050565b6000604051905090565b600080fd5b600080fd5b600073ffffffffffffffffffffffffffffffffffffffff82169050919050565b600061103a8261100f565b9050919050565b61104a8161102f565b811461105557600080fd5b50565b60008135905061106781611041565b92915050565b6000819050919050565b6110808161106d565b811461108b57600080fd5b50565b60008135905061109d81611077565b92915050565b600080604083850312156110ba576110b9611005565b5b60006110c885828601611058565b92505060206110d98582860161108e565b9150509250929050565b60008115159050919050565b6110f8816110e3565b82525050565b600060208201905061111360008301846110ef565b92915050565b6111228161106d565b82525050565b600060208201905061113d6000830184611119565b92915050565b60008060006060848603121561115c5761115b611005565b5b600061116a86828701611058565b935050602061117b86828701611058565b925050604061118c8682870161108e565b9150509250925092565b600060ff82169050919050565b6111ac81611196565b82525050565b60006020820190506111c760008301846111a3565b92915050565b600080fd5b600080fd5b7f4e487b7100000000000000000000000000000000000000000000000000000000600052604160045260246000fd5b61120f82610f8f565b810181811067ffffffffffffffff8211171561122e5761122d6111d7565b5b80604052505050565b6000611241610ffb565b905061124d8282611206565b919050565b600067ffffffffffffffff82111561126d5761126c6111d7565b5b61127682610f8f565b9050602081019050919050565b82818337600083830152505050565b60006112a56112a084611252565b611237565b9050828152602081018484840111156112c1576112c06111d2565b5b6112cc848285611283565b509392505050565b600082601f8301126112e9576112e86111cd565b5b81356112f9848260208601611292565b91505092915050565b6000806040838503121561131957611318611005565b5b600083013567ffffffffffffffff8111156113375761133661100a565b5b611343858286016112d4565b925050602083013567ffffffffffffffff8111156113645761136361100a565b5b611370858286016112d4565b9150509250929050565b6000602082840312156113905761138f611005565b5b600061139e84828501611058565b91505092915050565b600080604083850312156113be576113bd611005565b5b60006113cc85828601611058565b92505060206113dd85828601611058565b9150509250929050565b7f4e487b7100000000000000000000000000000000000000000000000000000000600052602260045260246000fd5b6000600282049050600182168061142e57607f821691505b60208210811415611442576114416113e7565b5b50919050565b7f4e487b7100000000000000000000000000000000000000000000000000000000600052601160045260246000fd5b60006114828261106d565b915061148d8361106d565b9250827fffffffffffffffffffffffffffffffffffffffffffffffffffffffffffffffff038211156114c2576114c1611448565b5b828201905092915050565b7f496e697469616c697a61626c653a20636f6e747261637420697320616c72656160008201527f647920696e697469616c697a6564000000000000000000000000000000000000602082015250565b6000611529602e83610f4b565b9150611534826114cd565b604082019050919050565b600060208201905081810360008301526115588161151c565b9050919050565b6000819050919050565b6000819050919050565b600061158e6115896115848461155f565b611569565b611196565b9050919050565b61159e81611573565b82525050565b60006020820190506115b96000830184611595565b92915050565b7f45524332303a2064656372656173656420616c6c6f77616e63652062656c6f7760008201527f207a65726f000000000000000000000000000000000000000000000000000000602082015250565b600061161b602583610f4b565b9150611626826115bf565b604082019050919050565b6000602082019050818103600083015261164a8161160e565b9050919050565b7f45524332303a20617070726f76652066726f6d20746865207a65726f2061646460008201527f7265737300000000000000000000000000000000000000000000000000000000602082015250565b60006116ad602483610f4b565b91506116b882611651565b604082019050919050565b600060208201905081810360008301526116dc816116a0565b9050919050565b7f45524332303a20617070726f766520746f20746865207a65726f20616464726560008201527f7373000000000000000000000000000000000000000000000000000000000000602082015250565b600061173f602283610f4b565b915061174a826116e3565b604082019050919050565b6000602082019050818103600083015261176e81611732565b9050919050565b7f45524332303a20696e73756666696369656e7420616c6c6f77616e6365000000600082015250565b60006117ab601d83610f4b565b91506117b682611775565b602082019050919050565b600060208201905081810360008301526117da8161179e565b9050919050565b7f45524332303a207472616e736665722066726f6d20746865207a65726f20616460008201527f6472657373000000000000000000000000000000000000000000000000000000602082015250565b600061183d602583610f4b565b9150611848826117e1565b604082019050919050565b6000602082019050818103600083015261186c81611830565b9050919050565b7f45524332303a207472616e7366657220746f20746865207a65726f206164647260008201527f6573730000000000000000000000000000000000000000000000000000000000602082015250565b60006118cf602383610f4b565b91506118da82611873565b604082019050919050565b600060208201905081810360008301526118fe816118c2565b9050919050565b7f45524332303a207472616e7366657220616d6f756e742065786365656473206260008201527f616c616e63650000000000000000000000000000000000000000000000000000602082015250565b6000611961602683610f4b565b915061196c82611905565b604082019050919050565b6000602082019050818103600083015261199081611954565b9050919050565b7f45524332303a206d696e7420746f20746865207a65726f206164647265737300600082015250565b60006119cd601f83610f4b565b91506119d882611997565b602082019050919050565b600060208201905081810360008301526119fc816119c0565b9050919050565b7f496e697469616c697a61626c653a20636f6e7472616374206973206e6f74206960008201527f6e697469616c697a696e67000000000000000000000000000000000000000000602082015250565b6000611a5f602b83610f4b565b9150611a6a82611a03565b604082019050919050565b60006020820190508181036000830152611a8e81611a52565b905091905056fea2646970667358221220ab822bb673ef65888dd850f50ce0988c9e053b9f7579ab336212d64096cbc60964736f6c63430008090033",
  "devdoc": {
    "details": "This contract implements the ERC20 standard and is used for unit testing purposes only Anyone can mint tokens",
    "kind": "dev",
    "methods": {
      "allowance(address,address)": {
        "details": "See {IERC20-allowance}."
      },
      "approve(address,uint256)": {
        "details": "See {IERC20-approve}. NOTE: If `amount` is the maximum `uint256`, the allowance is not updated on `transferFrom`. This is semantically equivalent to an infinite approval. Requirements: - `spender` cannot be the zero address."
      },
      "balanceOf(address)": {
        "details": "See {IERC20-balanceOf}."
      },
      "decimals()": {
        "details": "Returns the number of decimals used to get its user representation. For example, if `decimals` equals `2`, a balance of `505` tokens should be displayed to a user as `5.05` (`505 / 10 ** 2`). Tokens usually opt for a value of 18, imitating the relationship between Ether and Wei. This is the value {ERC20} uses, unless this function is overridden; NOTE: This information is only used for _display_ purposes: it in no way affects any of the arithmetic of the contract, including {IERC20-balanceOf} and {IERC20-transfer}."
      },
      "decreaseAllowance(address,uint256)": {
        "details": "Atomically decreases the allowance granted to `spender` by the caller. This is an alternative to {approve} that can be used as a mitigation for problems described in {IERC20-approve}. Emits an {Approval} event indicating the updated allowance. Requirements: - `spender` cannot be the zero address. - `spender` must have allowance for the caller of at least `subtractedValue`."
      },
      "increaseAllowance(address,uint256)": {
        "details": "Atomically increases the allowance granted to `spender` by the caller. This is an alternative to {approve} that can be used as a mitigation for problems described in {IERC20-approve}. Emits an {Approval} event indicating the updated allowance. Requirements: - `spender` cannot be the zero address."
      },
      "initialize(string,string)": {
        "details": "initializer to call after deployment, can only be called once"
      },
      "name()": {
        "details": "Returns the name of the token."
      },
      "symbol()": {
        "details": "Returns the symbol of the token, usually a shorter version of the name."
      },
      "totalSupply()": {
        "details": "See {IERC20-totalSupply}."
      },
      "transfer(address,uint256)": {
        "details": "See {IERC20-transfer}. Requirements: - `to` cannot be the zero address. - the caller must have a balance of at least `amount`."
      },
      "transferFrom(address,address,uint256)": {
        "details": "See {IERC20-transferFrom}. Emits an {Approval} event indicating the updated allowance. This is not required by the EIP. See the note at the beginning of {ERC20}. NOTE: Does not update the allowance if the current allowance is the maximum `uint256`. Requirements: - `from` and `to` cannot be the zero address. - `from` must have a balance of at least `amount`. - the caller must have allowance for ``from``'s tokens of at least `amount`."
      }
    },
    "title": "TestErc20",
    "version": 1
  },
  "userdoc": {
    "kind": "user",
    "methods": {},
    "version": 1
  },
  "storageLayout": {
    "storage": [
      {
        "astId": 2366,
        "contract": "contracts/Testing/TestErc20.sol:TestErc20",
        "label": "_initialized",
        "offset": 0,
        "slot": "0",
        "type": "t_uint8"
      },
      {
        "astId": 2369,
        "contract": "contracts/Testing/TestErc20.sol:TestErc20",
        "label": "_initializing",
        "offset": 1,
        "slot": "0",
        "type": "t_bool"
      },
      {
        "astId": 6485,
        "contract": "contracts/Testing/TestErc20.sol:TestErc20",
        "label": "__gap",
        "offset": 0,
        "slot": "1",
        "type": "t_array(t_uint256)50_storage"
      },
      {
        "astId": 4136,
        "contract": "contracts/Testing/TestErc20.sol:TestErc20",
        "label": "_balances",
        "offset": 0,
        "slot": "51",
        "type": "t_mapping(t_address,t_uint256)"
      },
      {
        "astId": 4142,
        "contract": "contracts/Testing/TestErc20.sol:TestErc20",
        "label": "_allowances",
        "offset": 0,
        "slot": "52",
        "type": "t_mapping(t_address,t_mapping(t_address,t_uint256))"
      },
      {
        "astId": 4144,
        "contract": "contracts/Testing/TestErc20.sol:TestErc20",
        "label": "_totalSupply",
        "offset": 0,
        "slot": "53",
        "type": "t_uint256"
      },
      {
        "astId": 4146,
        "contract": "contracts/Testing/TestErc20.sol:TestErc20",
        "label": "_name",
        "offset": 0,
        "slot": "54",
        "type": "t_string_storage"
      },
      {
        "astId": 4148,
        "contract": "contracts/Testing/TestErc20.sol:TestErc20",
        "label": "_symbol",
        "offset": 0,
        "slot": "55",
        "type": "t_string_storage"
      },
      {
        "astId": 4727,
        "contract": "contracts/Testing/TestErc20.sol:TestErc20",
        "label": "__gap",
        "offset": 0,
        "slot": "56",
        "type": "t_array(t_uint256)45_storage"
      }
    ],
    "types": {
      "t_address": {
        "encoding": "inplace",
        "label": "address",
        "numberOfBytes": "20"
      },
      "t_array(t_uint256)45_storage": {
        "base": "t_uint256",
        "encoding": "inplace",
        "label": "uint256[45]",
        "numberOfBytes": "1440"
      },
      "t_array(t_uint256)50_storage": {
        "base": "t_uint256",
        "encoding": "inplace",
        "label": "uint256[50]",
        "numberOfBytes": "1600"
      },
      "t_bool": {
        "encoding": "inplace",
        "label": "bool",
        "numberOfBytes": "1"
      },
      "t_mapping(t_address,t_mapping(t_address,t_uint256))": {
        "encoding": "mapping",
        "key": "t_address",
        "label": "mapping(address => mapping(address => uint256))",
        "numberOfBytes": "32",
        "value": "t_mapping(t_address,t_uint256)"
      },
      "t_mapping(t_address,t_uint256)": {
        "encoding": "mapping",
        "key": "t_address",
        "label": "mapping(address => uint256)",
        "numberOfBytes": "32",
        "value": "t_uint256"
      },
      "t_string_storage": {
        "encoding": "bytes",
        "label": "string",
        "numberOfBytes": "32"
      },
      "t_uint256": {
        "encoding": "inplace",
        "label": "uint256",
        "numberOfBytes": "32"
      },
      "t_uint8": {
        "encoding": "inplace",
        "label": "uint8",
        "numberOfBytes": "1"
      }
    }
  }
}