{
  "address": "0xCfe22d44B2827a574c39FdBe70bFB6c7836BDBd7",
  "abi": [
    {
      "anonymous": false,
      "inputs": [
        {
          "indexed": true,
          "internalType": "address",
          "name": "owner",
          "type": "address"
        },
        {
          "indexed": true,
          "internalType": "address",
          "name": "approved",
          "type": "address"
        },
        {
          "indexed": true,
          "internalType": "uint256",
          "name": "tokenId",
          "type": "uint256"
        }
      ],
      "name": "Approval",
      "type": "event"
    },
    {
      "anonymous": false,
      "inputs": [
        {
          "indexed": true,
          "internalType": "address",
          "name": "owner",
          "type": "address"
        },
        {
          "indexed": true,
          "internalType": "address",
          "name": "operator",
          "type": "address"
        },
        {
          "indexed": false,
          "internalType": "bool",
          "name": "approved",
          "type": "bool"
        }
      ],
      "name": "ApprovalForAll",
      "type": "event"
    },
    {
      "anonymous": false,
      "inputs": [
        {
          "indexed": false,
          "internalType": "uint8",
          "name": "version",
          "type": "uint8"
        }
      ],
      "name": "Initialized",
      "type": "event"
    },
    {
      "anonymous": false,
      "inputs": [
        {
          "indexed": true,
          "internalType": "address",
          "name": "from",
          "type": "address"
        },
        {
          "indexed": true,
          "internalType": "address",
          "name": "to",
          "type": "address"
        },
        {
          "indexed": true,
          "internalType": "uint256",
          "name": "tokenId",
          "type": "uint256"
        }
      ],
      "name": "Transfer",
      "type": "event"
    },
    {
      "inputs": [
        {
          "internalType": "address",
          "name": "to",
          "type": "address"
        },
        {
          "internalType": "uint256",
          "name": "tokenId",
          "type": "uint256"
        }
      ],
      "name": "approve",
      "outputs": [],
      "stateMutability": "nonpayable",
      "type": "function"
    },
    {
      "inputs": [
        {
          "internalType": "address",
          "name": "owner",
          "type": "address"
        }
      ],
      "name": "balanceOf",
      "outputs": [
        {
          "internalType": "uint256",
          "name": "",
          "type": "uint256"
        }
      ],
      "stateMutability": "view",
      "type": "function"
    },
    {
      "inputs": [
        {
          "internalType": "uint256",
          "name": "tokenId",
          "type": "uint256"
        }
      ],
      "name": "burn",
      "outputs": [],
      "stateMutability": "nonpayable",
      "type": "function"
    },
    {
      "inputs": [
        {
          "internalType": "uint256",
          "name": "tokenId",
          "type": "uint256"
        }
      ],
      "name": "getApproved",
      "outputs": [
        {
          "internalType": "address",
          "name": "",
          "type": "address"
        }
      ],
      "stateMutability": "view",
      "type": "function"
    },
    {
      "inputs": [
        {
          "internalType": "string",
          "name": "name_",
          "type": "string"
        },
        {
          "internalType": "string",
          "name": "symbol_",
          "type": "string"
        }
      ],
      "name": "initialize",
      "outputs": [],
      "stateMutability": "nonpayable",
      "type": "function"
    },
    {
      "inputs": [
        {
          "internalType": "address",
          "name": "owner",
          "type": "address"
        },
        {
          "internalType": "address",
          "name": "operator",
          "type": "address"
        }
      ],
      "name": "isApprovedForAll",
      "outputs": [
        {
          "internalType": "bool",
          "name": "",
          "type": "bool"
        }
      ],
      "stateMutability": "view",
      "type": "function"
    },
    {
      "inputs": [
        {
          "internalType": "address",
          "name": "to",
          "type": "address"
        },
        {
          "internalType": "uint256",
          "name": "tokenId",
          "type": "uint256"
        }
      ],
      "name": "mint",
      "outputs": [],
      "stateMutability": "nonpayable",
      "type": "function"
    },
    {
      "inputs": [],
      "name": "name",
      "outputs": [
        {
          "internalType": "string",
          "name": "",
          "type": "string"
        }
      ],
      "stateMutability": "view",
      "type": "function"
    },
    {
      "inputs": [
        {
          "internalType": "uint256",
          "name": "tokenId",
          "type": "uint256"
        }
      ],
      "name": "ownerOf",
      "outputs": [
        {
          "internalType": "address",
          "name": "",
          "type": "address"
        }
      ],
      "stateMutability": "view",
      "type": "function"
    },
    {
      "inputs": [
        {
          "internalType": "address",
          "name": "from",
          "type": "address"
        },
        {
          "internalType": "address",
          "name": "to",
          "type": "address"
        },
        {
          "internalType": "uint256",
          "name": "tokenId",
          "type": "uint256"
        }
      ],
      "name": "safeTransferFrom",
      "outputs": [],
      "stateMutability": "nonpayable",
      "type": "function"
    },
    {
      "inputs": [
        {
          "internalType": "address",
          "name": "from",
          "type": "address"
        },
        {
          "internalType": "address",
          "name": "to",
          "type": "address"
        },
        {
          "internalType": "uint256",
          "name": "tokenId",
          "type": "uint256"
        },
        {
          "internalType": "bytes",
          "name": "data",
          "type": "bytes"
        }
      ],
      "name": "safeTransferFrom",
      "outputs": [],
      "stateMutability": "nonpayable",
      "type": "function"
    },
    {
      "inputs": [
        {
          "internalType": "address",
          "name": "operator",
          "type": "address"
        },
        {
          "internalType": "bool",
          "name": "approved",
          "type": "bool"
        }
      ],
      "name": "setApprovalForAll",
      "outputs": [],
      "stateMutability": "nonpayable",
      "type": "function"
    },
    {
      "inputs": [
        {
          "internalType": "bytes4",
          "name": "interfaceId",
          "type": "bytes4"
        }
      ],
      "name": "supportsInterface",
      "outputs": [
        {
          "internalType": "bool",
          "name": "",
          "type": "bool"
        }
      ],
      "stateMutability": "view",
      "type": "function"
    },
    {
      "inputs": [],
      "name": "symbol",
      "outputs": [
        {
          "internalType": "string",
          "name": "",
          "type": "string"
        }
      ],
      "stateMutability": "view",
      "type": "function"
    },
    {
      "inputs": [
        {
          "internalType": "uint256",
          "name": "tokenId",
          "type": "uint256"
        }
      ],
      "name": "tokenURI",
      "outputs": [
        {
          "internalType": "string",
          "name": "",
          "type": "string"
        }
      ],
      "stateMutability": "view",
      "type": "function"
    },
    {
      "inputs": [
        {
          "internalType": "address",
          "name": "from",
          "type": "address"
        },
        {
          "internalType": "address",
          "name": "to",
          "type": "address"
        },
        {
          "internalType": "uint256",
          "name": "tokenId",
          "type": "uint256"
        }
      ],
      "name": "transferFrom",
      "outputs": [],
      "stateMutability": "nonpayable",
      "type": "function"
    }
  ],
  "transactionHash": "0xe5fd58e4e4820d6c412d6c2ee3a12807aff8adf94122d019457ccf4332fd6533",
  "args": [],
  "numDeployments": 1,
  "solcInputHash": "c483293f20911aec6d7b5b1bd97849ba",
  "bytecode": "0x608060405234801561001057600080fd5b50611684806100206000396000f3fe608060405234801561001057600080fd5b50600436106100e05760003560e01c80634cd88b76116100875780634cd88b76146101ae5780636352211e146101c157806370a08231146101d457806395d89b41146101f5578063a22cb465146101fd578063b88d4fde14610210578063c87b56dd14610223578063e985e9c51461023657600080fd5b806301ffc9a7146100e557806306fdde031461010d578063081812fc14610122578063095ea7b31461014d57806323b872dd1461016257806340c10f191461017557806342842e0e1461018857806342966c681461019b575b600080fd5b6100f86100f3366004611060565b610249565b60405190151581526020015b60405180910390f35b61011561029b565b60405161010491906110d5565b6101356101303660046110e8565b61032d565b6040516001600160a01b039091168152602001610104565b61016061015b36600461111d565b610354565b005b610160610170366004611147565b61046f565b61016061018336600461111d565b6104a0565b610160610196366004611147565b6104ae565b6101606101a93660046110e8565b6104c9565b6101606101bc36600461122f565b6104d5565b6101356101cf3660046110e8565b6105e9565b6101e76101e2366004611293565b61061e565b604051908152602001610104565b6101156106a4565b61016061020b3660046112ae565b6106b3565b61016061021e3660046112ea565b6106be565b6101156102313660046110e8565b6106f6565b6100f8610244366004611366565b61076a565b60006001600160e01b031982166380ac58cd60e01b148061027a57506001600160e01b03198216635b5e139f60e01b145b8061029557506301ffc9a760e01b6001600160e01b03198316145b92915050565b6060606580546102aa90611399565b80601f01602080910402602001604051908101604052809291908181526020018280546102d690611399565b80156103235780601f106102f857610100808354040283529160200191610323565b820191906000526020600020905b81548152906001019060200180831161030657829003601f168201915b5050505050905090565b600061033882610798565b506000908152606960205260409020546001600160a01b031690565b600061035f826105e9565b9050806001600160a01b0316836001600160a01b031614156103d25760405162461bcd60e51b815260206004820152602160248201527f4552433732313a20617070726f76616c20746f2063757272656e74206f776e656044820152603960f91b60648201526084015b60405180910390fd5b336001600160a01b03821614806103ee57506103ee813361076a565b6104605760405162461bcd60e51b815260206004820152603e60248201527f4552433732313a20617070726f76652063616c6c6572206973206e6f7420746f60448201527f6b656e206f776e6572206e6f7220617070726f76656420666f7220616c6c000060648201526084016103c9565b61046a83836107cc565b505050565b610479338261083a565b6104955760405162461bcd60e51b81526004016103c9906113d4565b61046a838383610899565b6104aa8282610a23565b5050565b61046a838383604051806020016040528060008152506106be565b6104d281610a3d565b50565b600054610100900460ff16158080156104f55750600054600160ff909116105b8061050f5750303b15801561050f575060005460ff166001145b6105725760405162461bcd60e51b815260206004820152602e60248201527f496e697469616c697a61626c653a20636f6e747261637420697320616c72656160448201526d191e481a5b9a5d1a585b1a5e995960921b60648201526084016103c9565b6000805460ff191660011790558015610595576000805461ff0019166101001790555b61059f8383610ac6565b801561046a576000805461ff0019169055604051600181527f7f26b83ff96e1f2b6a682f133852f6798a09c465da95921460cefb38474024989060200160405180910390a1505050565b6000818152606760205260408120546001600160a01b0316806102955760405162461bcd60e51b81526004016103c990611422565b60006001600160a01b0382166106885760405162461bcd60e51b815260206004820152602960248201527f4552433732313a2061646472657373207a65726f206973206e6f7420612076616044820152683634b21037bbb732b960b91b60648201526084016103c9565b506001600160a01b031660009081526068602052604090205490565b6060606680546102aa90611399565b6104aa338383610af7565b6106c8338361083a565b6106e45760405162461bcd60e51b81526004016103c9906113d4565b6106f084848484610bc2565b50505050565b606061070182610798565b600061071860408051602081019091526000815290565b905060008151116107385760405180602001604052806000815250610763565b8061074284610bf5565b604051602001610753929190611454565b6040516020818303038152906040525b9392505050565b6001600160a01b039182166000908152606a6020908152604080832093909416825291909152205460ff1690565b6000818152606760205260409020546001600160a01b03166104d25760405162461bcd60e51b81526004016103c990611422565b600081815260696020526040902080546001600160a01b0319166001600160a01b0384169081179091558190610801826105e9565b6001600160a01b03167f8c5be1e5ebec7d5bd14f71427d1e84f3dd0314c0f7b2291e5b200ac8c7c3b92560405160405180910390a45050565b600080610846836105e9565b9050806001600160a01b0316846001600160a01b0316148061086d575061086d818561076a565b806108915750836001600160a01b03166108868461032d565b6001600160a01b0316145b949350505050565b826001600160a01b03166108ac826105e9565b6001600160a01b0316146109105760405162461bcd60e51b815260206004820152602560248201527f4552433732313a207472616e736665722066726f6d20696e636f72726563742060448201526437bbb732b960d91b60648201526084016103c9565b6001600160a01b0382166109725760405162461bcd60e51b8152602060048201526024808201527f4552433732313a207472616e7366657220746f20746865207a65726f206164646044820152637265737360e01b60648201526084016103c9565b61097d6000826107cc565b6001600160a01b03831660009081526068602052604081208054600192906109a6908490611499565b90915550506001600160a01b03821660009081526068602052604081208054600192906109d49084906114b0565b909155505060008181526067602052604080822080546001600160a01b0319166001600160a01b03868116918217909255915184939187169160008051602061162f83398151915291a4505050565b6104aa828260405180602001604052806000815250610cf3565b6000610a48826105e9565b9050610a556000836107cc565b6001600160a01b0381166000908152606860205260408120805460019290610a7e908490611499565b909155505060008281526067602052604080822080546001600160a01b0319169055518391906001600160a01b0384169060008051602061162f833981519152908390a45050565b600054610100900460ff16610aed5760405162461bcd60e51b81526004016103c9906114c8565b6104aa8282610d26565b816001600160a01b0316836001600160a01b03161415610b555760405162461bcd60e51b815260206004820152601960248201527822a9219b99189d1030b8383937bb32903a379031b0b63632b960391b60448201526064016103c9565b6001600160a01b038381166000818152606a6020908152604080832094871680845294825291829020805460ff191686151590811790915591519182527f17307eab39ab6107e8899845ad3d59bd9653f200f220920489ca2b5937696c31910160405180910390a3505050565b610bcd848484610899565b610bd984848484610d74565b6106f05760405162461bcd60e51b81526004016103c990611513565b606081610c195750506040805180820190915260018152600360fc1b602082015290565b8160005b8115610c435780610c2d81611565565b9150610c3c9050600a83611596565b9150610c1d565b60008167ffffffffffffffff811115610c5e57610c5e611183565b6040519080825280601f01601f191660200182016040528015610c88576020820181803683370190505b5090505b841561089157610c9d600183611499565b9150610caa600a866115aa565b610cb59060306114b0565b60f81b818381518110610cca57610cca6115be565b60200101906001600160f81b031916908160001a905350610cec600a86611596565b9450610c8c565b610cfd8383610e81565b610d0a6000848484610d74565b61046a5760405162461bcd60e51b81526004016103c990611513565b600054610100900460ff16610d4d5760405162461bcd60e51b81526004016103c9906114c8565b8151610d60906065906020850190610fb1565b50805161046a906066906020840190610fb1565b60006001600160a01b0384163b15610e7657604051630a85bd0160e11b81526001600160a01b0385169063150b7a0290610db89033908990889088906004016115d4565b602060405180830381600087803b158015610dd257600080fd5b505af1925050508015610e02575060408051601f3d908101601f19168201909252610dff91810190611611565b60015b610e5c573d808015610e30576040519150601f19603f3d011682016040523d82523d6000602084013e610e35565b606091505b508051610e545760405162461bcd60e51b81526004016103c990611513565b805181602001fd5b6001600160e01b031916630a85bd0160e11b149050610891565b506001949350505050565b6001600160a01b038216610ed75760405162461bcd60e51b815260206004820181905260248201527f4552433732313a206d696e7420746f20746865207a65726f206164647265737360448201526064016103c9565b6000818152606760205260409020546001600160a01b031615610f3c5760405162461bcd60e51b815260206004820152601c60248201527f4552433732313a20746f6b656e20616c7265616479206d696e7465640000000060448201526064016103c9565b6001600160a01b0382166000908152606860205260408120805460019290610f659084906114b0565b909155505060008181526067602052604080822080546001600160a01b0319166001600160a01b038616908117909155905183929060008051602061162f833981519152908290a45050565b828054610fbd90611399565b90600052602060002090601f016020900481019282610fdf5760008555611025565b82601f10610ff857805160ff1916838001178555611025565b82800160010185558215611025579182015b8281111561102557825182559160200191906001019061100a565b50611031929150611035565b5090565b5b808211156110315760008155600101611036565b6001600160e01b0319811681146104d257600080fd5b60006020828403121561107257600080fd5b81356107638161104a565b60005b83811015611098578181015183820152602001611080565b838111156106f05750506000910152565b600081518084526110c181602086016020860161107d565b601f01601f19169290920160200192915050565b60208152600061076360208301846110a9565b6000602082840312156110fa57600080fd5b5035919050565b80356001600160a01b038116811461111857600080fd5b919050565b6000806040838503121561113057600080fd5b61113983611101565b946020939093013593505050565b60008060006060848603121561115c57600080fd5b61116584611101565b925061117360208501611101565b9150604084013590509250925092565b634e487b7160e01b600052604160045260246000fd5b600067ffffffffffffffff808411156111b4576111b4611183565b604051601f8501601f19908116603f011681019082821181831017156111dc576111dc611183565b816040528093508581528686860111156111f557600080fd5b858560208301376000602087830101525050509392505050565b600082601f83011261122057600080fd5b61076383833560208501611199565b6000806040838503121561124257600080fd5b823567ffffffffffffffff8082111561125a57600080fd5b6112668683870161120f565b9350602085013591508082111561127c57600080fd5b506112898582860161120f565b9150509250929050565b6000602082840312156112a557600080fd5b61076382611101565b600080604083850312156112c157600080fd5b6112ca83611101565b9150602083013580151581146112df57600080fd5b809150509250929050565b6000806000806080858703121561130057600080fd5b61130985611101565b935061131760208601611101565b925060408501359150606085013567ffffffffffffffff81111561133a57600080fd5b8501601f8101871361134b57600080fd5b61135a87823560208401611199565b91505092959194509250565b6000806040838503121561137957600080fd5b61138283611101565b915061139060208401611101565b90509250929050565b600181811c908216806113ad57607f821691505b602082108114156113ce57634e487b7160e01b600052602260045260246000fd5b50919050565b6020808252602e908201527f4552433732313a2063616c6c6572206973206e6f7420746f6b656e206f776e6560408201526d1c881b9bdc88185c1c1c9bdd995960921b606082015260800190565b602080825260189082015277115490cdcc8c4e881a5b9d985b1a59081d1bdad95b88125160421b604082015260600190565b6000835161146681846020880161107d565b83519083019061147a81836020880161107d565b01949350505050565b634e487b7160e01b600052601160045260246000fd5b6000828210156114ab576114ab611483565b500390565b600082198211156114c3576114c3611483565b500190565b6020808252602b908201527f496e697469616c697a61626c653a20636f6e7472616374206973206e6f74206960408201526a6e697469616c697a696e6760a81b606082015260800190565b60208082526032908201527f4552433732313a207472616e7366657220746f206e6f6e20455243373231526560408201527131b2b4bb32b91034b6b83632b6b2b73a32b960711b606082015260800190565b600060001982141561157957611579611483565b5060010190565b634e487b7160e01b600052601260045260246000fd5b6000826115a5576115a5611580565b500490565b6000826115b9576115b9611580565b500690565b634e487b7160e01b600052603260045260246000fd5b6001600160a01b0385811682528416602082015260408101839052608060608201819052600090611607908301846110a9565b9695505050505050565b60006020828403121561162357600080fd5b81516107638161104a56feddf252ad1be2c89b69c2b068fc378daa952ba7f163c4a11628f55a4df523b3efa264697066735822122049a949ef33ae7dfac5ac11a7e78ed25a23453fb3e27b9f6e68bf4aacb535c96664736f6c63430008090033",
  "devdoc": {
    "details": "This contract implements the ERC721 standard and is used for unit testing purposes only Anyone can mint or burn tokens",
    "kind": "dev",
    "methods": {
      "approve(address,uint256)": {
        "details": "See {IERC721-approve}."
      },
      "balanceOf(address)": {
        "details": "See {IERC721-balanceOf}."
      },
      "getApproved(uint256)": {
        "details": "See {IERC721-getApproved}."
      },
      "initialize(string,string)": {
        "details": "initializer to call after deployment, can only be called once"
      },
      "isApprovedForAll(address,address)": {
        "details": "See {IERC721-isApprovedForAll}."
      },
      "name()": {
        "details": "See {IERC721Metadata-name}."
      },
      "ownerOf(uint256)": {
        "details": "See {IERC721-ownerOf}."
      },
      "safeTransferFrom(address,address,uint256)": {
        "details": "See {IERC721-safeTransferFrom}."
      },
      "safeTransferFrom(address,address,uint256,bytes)": {
        "details": "See {IERC721-safeTransferFrom}."
      },
      "setApprovalForAll(address,bool)": {
        "details": "See {IERC721-setApprovalForAll}."
      },
      "supportsInterface(bytes4)": {
        "details": "See {IERC165-supportsInterface}."
      },
      "symbol()": {
        "details": "See {IERC721Metadata-symbol}."
      },
      "tokenURI(uint256)": {
        "details": "See {IERC721Metadata-tokenURI}."
      },
      "transferFrom(address,address,uint256)": {
        "details": "See {IERC721-transferFrom}."
      }
    },
    "title": "TestErc1155",
    "version": 1
  },
  "userdoc": {
    "kind": "user",
    "methods": {},
    "version": 1
  },
  "storageLayout": {
    "storage": [
      {
        "astId": 2446,
        "contract": "contracts/Testing/TestErc721.sol:TestErc721",
        "label": "_initialized",
        "offset": 0,
        "slot": "0",
        "type": "t_uint8"
      },
      {
        "astId": 2449,
        "contract": "contracts/Testing/TestErc721.sol:TestErc721",
        "label": "_initializing",
        "offset": 1,
        "slot": "0",
        "type": "t_bool"
      },
      {
        "astId": 6565,
        "contract": "contracts/Testing/TestErc721.sol:TestErc721",
        "label": "__gap",
        "offset": 0,
        "slot": "1",
        "type": "t_array(t_uint256)50_storage"
      },
      {
        "astId": 6835,
        "contract": "contracts/Testing/TestErc721.sol:TestErc721",
        "label": "__gap",
        "offset": 0,
        "slot": "51",
        "type": "t_array(t_uint256)50_storage"
      },
      {
        "astId": 5257,
        "contract": "contracts/Testing/TestErc721.sol:TestErc721",
        "label": "_name",
        "offset": 0,
        "slot": "101",
        "type": "t_string_storage"
      },
      {
        "astId": 5259,
        "contract": "contracts/Testing/TestErc721.sol:TestErc721",
        "label": "_symbol",
        "offset": 0,
        "slot": "102",
        "type": "t_string_storage"
      },
      {
        "astId": 5263,
        "contract": "contracts/Testing/TestErc721.sol:TestErc721",
        "label": "_owners",
        "offset": 0,
        "slot": "103",
        "type": "t_mapping(t_uint256,t_address)"
      },
      {
        "astId": 5267,
        "contract": "contracts/Testing/TestErc721.sol:TestErc721",
        "label": "_balances",
        "offset": 0,
        "slot": "104",
        "type": "t_mapping(t_address,t_uint256)"
      },
      {
        "astId": 5271,
        "contract": "contracts/Testing/TestErc721.sol:TestErc721",
        "label": "_tokenApprovals",
        "offset": 0,
        "slot": "105",
        "type": "t_mapping(t_uint256,t_address)"
      },
      {
        "astId": 5277,
        "contract": "contracts/Testing/TestErc721.sol:TestErc721",
        "label": "_operatorApprovals",
        "offset": 0,
        "slot": "106",
        "type": "t_mapping(t_address,t_mapping(t_address,t_bool))"
      },
      {
        "astId": 6119,
        "contract": "contracts/Testing/TestErc721.sol:TestErc721",
        "label": "__gap",
        "offset": 0,
        "slot": "107",
        "type": "t_array(t_uint256)44_storage"
      }
    ],
    "types": {
      "t_address": {
        "encoding": "inplace",
        "label": "address",
        "numberOfBytes": "20"
      },
      "t_array(t_uint256)44_storage": {
        "base": "t_uint256",
        "encoding": "inplace",
        "label": "uint256[44]",
        "numberOfBytes": "1408"
      },
      "t_array(t_uint256)50_storage": {
        "base": "t_uint256",
        "encoding": "inplace",
        "label": "uint256[50]",
        "numberOfBytes": "1600"
      },
      "t_bool": {
        "encoding": "inplace",
        "label": "bool",
        "numberOfBytes": "1"
      },
      "t_mapping(t_address,t_bool)": {
        "encoding": "mapping",
        "key": "t_address",
        "label": "mapping(address => bool)",
        "numberOfBytes": "32",
        "value": "t_bool"
      },
      "t_mapping(t_address,t_mapping(t_address,t_bool))": {
        "encoding": "mapping",
        "key": "t_address",
        "label": "mapping(address => mapping(address => bool))",
        "numberOfBytes": "32",
        "value": "t_mapping(t_address,t_bool)"
      },
      "t_mapping(t_address,t_uint256)": {
        "encoding": "mapping",
        "key": "t_address",
        "label": "mapping(address => uint256)",
        "numberOfBytes": "32",
        "value": "t_uint256"
      },
      "t_mapping(t_uint256,t_address)": {
        "encoding": "mapping",
        "key": "t_uint256",
        "label": "mapping(uint256 => address)",
        "numberOfBytes": "32",
        "value": "t_address"
      },
      "t_string_storage": {
        "encoding": "bytes",
        "label": "string",
        "numberOfBytes": "32"
      },
      "t_uint256": {
        "encoding": "inplace",
        "label": "uint256",
        "numberOfBytes": "32"
      },
      "t_uint8": {
        "encoding": "inplace",
        "label": "uint8",
        "numberOfBytes": "1"
      }
    }
  }
}