{
  "address": "0xEe6618d33D800e2d0593C1D78073541F612d455e",
  "abi": [
    {
      "anonymous": false,
      "inputs": [
        {
          "indexed": true,
          "internalType": "address",
          "name": "account",
          "type": "address"
        },
        {
          "indexed": true,
          "internalType": "address",
          "name": "operator",
          "type": "address"
        },
        {
          "indexed": false,
          "internalType": "bool",
          "name": "approved",
          "type": "bool"
        }
      ],
      "name": "ApprovalForAll",
      "type": "event"
    },
    {
      "anonymous": false,
      "inputs": [
        {
          "indexed": false,
          "internalType": "uint8",
          "name": "version",
          "type": "uint8"
        }
      ],
      "name": "Initialized",
      "type": "event"
    },
    {
      "anonymous": false,
      "inputs": [
        {
          "indexed": true,
          "internalType": "address",
          "name": "operator",
          "type": "address"
        },
        {
          "indexed": true,
          "internalType": "address",
          "name": "from",
          "type": "address"
        },
        {
          "indexed": true,
          "internalType": "address",
          "name": "to",
          "type": "address"
        },
        {
          "indexed": false,
          "internalType": "uint256[]",
          "name": "ids",
          "type": "uint256[]"
        },
        {
          "indexed": false,
          "internalType": "uint256[]",
          "name": "values",
          "type": "uint256[]"
        }
      ],
      "name": "TransferBatch",
      "type": "event"
    },
    {
      "anonymous": false,
      "inputs": [
        {
          "indexed": true,
          "internalType": "address",
          "name": "operator",
          "type": "address"
        },
        {
          "indexed": true,
          "internalType": "address",
          "name": "from",
          "type": "address"
        },
        {
          "indexed": true,
          "internalType": "address",
          "name": "to",
          "type": "address"
        },
        {
          "indexed": false,
          "internalType": "uint256",
          "name": "id",
          "type": "uint256"
        },
        {
          "indexed": false,
          "internalType": "uint256",
          "name": "value",
          "type": "uint256"
        }
      ],
      "name": "TransferSingle",
      "type": "event"
    },
    {
      "anonymous": false,
      "inputs": [
        {
          "indexed": false,
          "internalType": "string",
          "name": "value",
          "type": "string"
        },
        {
          "indexed": true,
          "internalType": "uint256",
          "name": "id",
          "type": "uint256"
        }
      ],
      "name": "URI",
      "type": "event"
    },
    {
      "inputs": [],
      "name": "addressManager",
      "outputs": [
        {
          "internalType": "contract IAddressManager",
          "name": "",
          "type": "address"
        }
      ],
      "stateMutability": "view",
      "type": "function"
    },
    {
      "inputs": [
        {
          "internalType": "address",
          "name": "account",
          "type": "address"
        },
        {
          "internalType": "uint256",
          "name": "id",
          "type": "uint256"
        }
      ],
      "name": "balanceOf",
      "outputs": [
        {
          "internalType": "uint256",
          "name": "",
          "type": "uint256"
        }
      ],
      "stateMutability": "view",
      "type": "function"
    },
    {
      "inputs": [
        {
          "internalType": "address[]",
          "name": "accounts",
          "type": "address[]"
        },
        {
          "internalType": "uint256[]",
          "name": "ids",
          "type": "uint256[]"
        }
      ],
      "name": "balanceOfBatch",
      "outputs": [
        {
          "internalType": "uint256[]",
          "name": "",
          "type": "uint256[]"
        }
      ],
      "stateMutability": "view",
      "type": "function"
    },
    {
      "inputs": [
        {
          "internalType": "address",
          "name": "from",
          "type": "address"
        },
        {
          "internalType": "uint256",
          "name": "id",
          "type": "uint256"
        },
        {
          "internalType": "uint256",
          "name": "amount",
          "type": "uint256"
        }
      ],
      "name": "burn",
      "outputs": [],
      "stateMutability": "nonpayable",
      "type": "function"
    },
    {
      "inputs": [
        {
          "internalType": "string",
          "name": "_uri",
          "type": "string"
        },
        {
          "internalType": "address",
          "name": "_addressManager",
          "type": "address"
        }
      ],
      "name": "initialize",
      "outputs": [],
      "stateMutability": "nonpayable",
      "type": "function"
    },
    {
      "inputs": [
        {
          "internalType": "address",
          "name": "account",
          "type": "address"
        },
        {
          "internalType": "address",
          "name": "operator",
          "type": "address"
        }
      ],
      "name": "isApprovedForAll",
      "outputs": [
        {
          "internalType": "bool",
          "name": "",
          "type": "bool"
        }
      ],
      "stateMutability": "view",
      "type": "function"
    },
    {
      "inputs": [
        {
          "internalType": "address",
          "name": "to",
          "type": "address"
        },
        {
          "internalType": "uint256",
          "name": "id",
          "type": "uint256"
        },
        {
          "internalType": "uint256",
          "name": "amount",
          "type": "uint256"
        },
        {
          "internalType": "bytes",
          "name": "data",
          "type": "bytes"
        }
      ],
      "name": "mint",
      "outputs": [],
      "stateMutability": "nonpayable",
      "type": "function"
    },
    {
      "inputs": [
        {
          "internalType": "address",
          "name": "from",
          "type": "address"
        },
        {
          "internalType": "address",
          "name": "to",
          "type": "address"
        },
        {
          "internalType": "uint256[]",
          "name": "ids",
          "type": "uint256[]"
        },
        {
          "internalType": "uint256[]",
          "name": "amounts",
          "type": "uint256[]"
        },
        {
          "internalType": "bytes",
          "name": "data",
          "type": "bytes"
        }
      ],
      "name": "safeBatchTransferFrom",
      "outputs": [],
      "stateMutability": "nonpayable",
      "type": "function"
    },
    {
      "inputs": [
        {
          "internalType": "address",
          "name": "from",
          "type": "address"
        },
        {
          "internalType": "address",
          "name": "to",
          "type": "address"
        },
        {
          "internalType": "uint256",
          "name": "id",
          "type": "uint256"
        },
        {
          "internalType": "uint256",
          "name": "amount",
          "type": "uint256"
        },
        {
          "internalType": "bytes",
          "name": "data",
          "type": "bytes"
        }
      ],
      "name": "safeTransferFrom",
      "outputs": [],
      "stateMutability": "nonpayable",
      "type": "function"
    },
    {
      "inputs": [
        {
          "internalType": "address",
          "name": "operator",
          "type": "address"
        },
        {
          "internalType": "bool",
          "name": "approved",
          "type": "bool"
        }
      ],
      "name": "setApprovalForAll",
      "outputs": [],
      "stateMutability": "nonpayable",
      "type": "function"
    },
    {
      "inputs": [
        {
          "internalType": "bytes4",
          "name": "interfaceId",
          "type": "bytes4"
        }
      ],
      "name": "supportsInterface",
      "outputs": [
        {
          "internalType": "bool",
          "name": "",
          "type": "bool"
        }
      ],
      "stateMutability": "view",
      "type": "function"
    },
    {
      "inputs": [
        {
          "internalType": "uint256",
          "name": "",
          "type": "uint256"
        }
      ],
      "name": "uri",
      "outputs": [
        {
          "internalType": "string",
          "name": "",
          "type": "string"
        }
      ],
      "stateMutability": "view",
      "type": "function"
    }
  ],
  "transactionHash": "0x9a99f0a97b0ee6fc7951edd347782a76e4d42ec721a0a2253c96e2ffc6577051",
  "args": [],
  "numDeployments": 1,
  "solcInputHash": "e5086af1310b7ca1d6194e2a0e3afebd",
  "bytecode": "0x608060405234801561001057600080fd5b506132b5806100206000396000f3fe608060405234801561001057600080fd5b50600436106100b35760003560e01c8063731133e911610071578063731133e9146101b25780637ab4339d146101ce578063a22cb465146101ea578063e985e9c514610206578063f242432a14610236578063f5298aca14610252576100b3565b8062fdd58e146100b857806301ffc9a7146100e85780630e89341c146101185780632eb2c2d6146101485780633ab76e9f146101645780634e1273f414610182575b600080fd5b6100d260048036038101906100cd9190611bb1565b61026e565b6040516100df9190611c00565b60405180910390f35b61010260048036038101906100fd9190611c73565b610338565b60405161010f9190611cbb565b60405180910390f35b610132600480360381019061012d9190611cd6565b61041a565b60405161013f9190611d9c565b60405180910390f35b610162600480360381019061015d9190611fbb565b6104ae565b005b61016c61054f565b60405161017991906120e9565b60405180910390f35b61019c600480360381019061019791906121c7565b610575565b6040516101a991906122fd565b60405180910390f35b6101cc60048036038101906101c7919061231f565b61068e565b005b6101e860048036038101906101e39190612443565b6106a0565b005b61020460048036038101906101ff91906124cb565b610822565b005b610220600480360381019061021b919061250b565b610838565b60405161022d9190611cbb565b60405180910390f35b610250600480360381019061024b919061254b565b6108cc565b005b61026c600480360381019061026791906125e2565b61096d565b005b60008073ffffffffffffffffffffffffffffffffffffffff168373ffffffffffffffffffffffffffffffffffffffff1614156102df576040517f08c379a00000000000000000000000000000000000000000000000000000000081526004016102d6906126a7565b60405180910390fd5b6065600083815260200190815260200160002060008473ffffffffffffffffffffffffffffffffffffffff1673ffffffffffffffffffffffffffffffffffffffff16815260200190815260200160002054905092915050565b60007fd9b67a26000000000000000000000000000000000000000000000000000000007bffffffffffffffffffffffffffffffffffffffffffffffffffffffff1916827bffffffffffffffffffffffffffffffffffffffffffffffffffffffff1916148061040357507f0e89341c000000000000000000000000000000000000000000000000000000007bffffffffffffffffffffffffffffffffffffffffffffffffffffffff1916827bffffffffffffffffffffffffffffffffffffffffffffffffffffffff1916145b8061041357506104128261097d565b5b9050919050565b606060678054610429906126f6565b80601f0160208091040260200160405190810160405280929190818152602001828054610455906126f6565b80156104a25780601f10610477576101008083540402835291602001916104a2565b820191906000526020600020905b81548152906001019060200180831161048557829003601f168201915b50505050509050919050565b6104b66109e7565b73ffffffffffffffffffffffffffffffffffffffff168573ffffffffffffffffffffffffffffffffffffffff1614806104fc57506104fb856104f66109e7565b610838565b5b61053b576040517f08c379a00000000000000000000000000000000000000000000000000000000081526004016105329061279a565b60405180910390fd5b61054885858585856109ef565b5050505050565b609760009054906101000a900473ffffffffffffffffffffffffffffffffffffffff1681565b606081518351146105bb576040517f08c379a00000000000000000000000000000000000000000000000000000000081526004016105b29061282c565b60405180910390fd5b6000835167ffffffffffffffff8111156105d8576105d7611dc3565b5b6040519080825280602002602001820160405280156106065781602001602082028036833780820191505090505b50905060005b84518110156106835761065385828151811061062b5761062a61284c565b5b60200260200101518583815181106106465761064561284c565b5b602002602001015161026e565b8282815181106106665761066561284c565b5b6020026020010181815250508061067c906128aa565b905061060c565b508091505092915050565b61069a84848484610d14565b50505050565b60008060019054906101000a900460ff161590508080156106d15750600160008054906101000a900460ff1660ff16105b806106fe57506106e030610ec6565b1580156106fd5750600160008054906101000a900460ff1660ff16145b5b61073d576040517f08c379a000000000000000000000000000000000000000000000000000000000815260040161073490612965565b60405180910390fd5b60016000806101000a81548160ff021916908360ff160217905550801561077a576001600060016101000a81548160ff0219169083151502179055505b61078383610ee9565b81609760006101000a81548173ffffffffffffffffffffffffffffffffffffffff021916908373ffffffffffffffffffffffffffffffffffffffff160217905550801561081d5760008060016101000a81548160ff0219169083151502179055507f7f26b83ff96e1f2b6a682f133852f6798a09c465da95921460cefb3847402498600160405161081491906129cd565b60405180910390a15b505050565b61083461082d6109e7565b8383610f44565b5050565b6000606660008473ffffffffffffffffffffffffffffffffffffffff1673ffffffffffffffffffffffffffffffffffffffff16815260200190815260200160002060008373ffffffffffffffffffffffffffffffffffffffff1673ffffffffffffffffffffffffffffffffffffffff16815260200190815260200160002060009054906101000a900460ff16905092915050565b6108d46109e7565b73ffffffffffffffffffffffffffffffffffffffff168573ffffffffffffffffffffffffffffffffffffffff16148061091a5750610919856109146109e7565b610838565b5b610959576040517f08c379a00000000000000000000000000000000000000000000000000000000081526004016109509061279a565b60405180910390fd5b61096685858585856110b1565b5050505050565b610978838383611350565b505050565b60007f01ffc9a7000000000000000000000000000000000000000000000000000000007bffffffffffffffffffffffffffffffffffffffffffffffffffffffff1916827bffffffffffffffffffffffffffffffffffffffffffffffffffffffff1916149050919050565b600033905090565b8151835114610a33576040517f08c379a0000000000000000000000000000000000000000000000000000000008152600401610a2a90612a5a565b60405180910390fd5b600073ffffffffffffffffffffffffffffffffffffffff168473ffffffffffffffffffffffffffffffffffffffff161415610aa3576040517f08c379a0000000000000000000000000000000000000000000000000000000008152600401610a9a90612aec565b60405180910390fd5b6000610aad6109e7565b9050610abd818787878787611599565b60005b8451811015610c71576000858281518110610ade57610add61284c565b5b602002602001015190506000858381518110610afd57610afc61284c565b5b6020026020010151905060006065600084815260200190815260200160002060008b73ffffffffffffffffffffffffffffffffffffffff1673ffffffffffffffffffffffffffffffffffffffff16815260200190815260200160002054905081811015610b9f576040517f08c379a0000000000000000000000000000000000000000000000000000000008152600401610b9690612b7e565b60405180910390fd5b8181036065600085815260200190815260200160002060008c73ffffffffffffffffffffffffffffffffffffffff1673ffffffffffffffffffffffffffffffffffffffff16815260200190815260200160002081905550816065600085815260200190815260200160002060008b73ffffffffffffffffffffffffffffffffffffffff1673ffffffffffffffffffffffffffffffffffffffff1681526020019081526020016000206000828254610c569190612b9e565b9250508190555050505080610c6a906128aa565b9050610ac0565b508473ffffffffffffffffffffffffffffffffffffffff168673ffffffffffffffffffffffffffffffffffffffff168273ffffffffffffffffffffffffffffffffffffffff167f4a39dc06d4c0dbc64b70af90fd698a233a518aa5d07e595d983b8c0526c8f7fb8787604051610ce8929190612bf4565b60405180910390a4610cfe8187878787876115a1565b610d0c8187878787876115a9565b505050505050565b600073ffffffffffffffffffffffffffffffffffffffff168473ffffffffffffffffffffffffffffffffffffffff161415610d84576040517f08c379a0000000000000000000000000000000000000000000000000000000008152600401610d7b90612c9d565b60405180910390fd5b6000610d8e6109e7565b90506000610d9b85611790565b90506000610da885611790565b9050610db983600089858589611599565b846065600088815260200190815260200160002060008973ffffffffffffffffffffffffffffffffffffffff1673ffffffffffffffffffffffffffffffffffffffff1681526020019081526020016000206000828254610e199190612b9e565b925050819055508673ffffffffffffffffffffffffffffffffffffffff16600073ffffffffffffffffffffffffffffffffffffffff168473ffffffffffffffffffffffffffffffffffffffff167fc3d58168c5ae7397731d063d5bbf3d657854427343f4c083240f7aacaa2d0f628989604051610e97929190612cbd565b60405180910390a4610eae836000898585896115a1565b610ebd8360008989898961180a565b50505050505050565b6000808273ffffffffffffffffffffffffffffffffffffffff163b119050919050565b600060019054906101000a900460ff16610f38576040517f08c379a0000000000000000000000000000000000000000000000000000000008152600401610f2f90612d58565b60405180910390fd5b610f41816119f1565b50565b8173ffffffffffffffffffffffffffffffffffffffff168373ffffffffffffffffffffffffffffffffffffffff161415610fb3576040517f08c379a0000000000000000000000000000000000000000000000000000000008152600401610faa90612dea565b60405180910390fd5b80606660008573ffffffffffffffffffffffffffffffffffffffff1673ffffffffffffffffffffffffffffffffffffffff16815260200190815260200160002060008473ffffffffffffffffffffffffffffffffffffffff1673ffffffffffffffffffffffffffffffffffffffff16815260200190815260200160002060006101000a81548160ff0219169083151502179055508173ffffffffffffffffffffffffffffffffffffffff168373ffffffffffffffffffffffffffffffffffffffff167f17307eab39ab6107e8899845ad3d59bd9653f200f220920489ca2b5937696c31836040516110a49190611cbb565b60405180910390a3505050565b600073ffffffffffffffffffffffffffffffffffffffff168473ffffffffffffffffffffffffffffffffffffffff161415611121576040517f08c379a000000000000000000000000000000000000000000000000000000000815260040161111890612aec565b60405180910390fd5b600061112b6109e7565b9050600061113885611790565b9050600061114585611790565b9050611155838989858589611599565b60006065600088815260200190815260200160002060008a73ffffffffffffffffffffffffffffffffffffffff1673ffffffffffffffffffffffffffffffffffffffff168152602001908152602001600020549050858110156111ed576040517f08c379a00000000000000000000000000000000000000000000000000000000081526004016111e490612b7e565b60405180910390fd5b8581036065600089815260200190815260200160002060008b73ffffffffffffffffffffffffffffffffffffffff1673ffffffffffffffffffffffffffffffffffffffff16815260200190815260200160002081905550856065600089815260200190815260200160002060008a73ffffffffffffffffffffffffffffffffffffffff1673ffffffffffffffffffffffffffffffffffffffff16815260200190815260200160002060008282546112a49190612b9e565b925050819055508773ffffffffffffffffffffffffffffffffffffffff168973ffffffffffffffffffffffffffffffffffffffff168573ffffffffffffffffffffffffffffffffffffffff167fc3d58168c5ae7397731d063d5bbf3d657854427343f4c083240f7aacaa2d0f628a8a604051611321929190612cbd565b60405180910390a4611337848a8a86868a6115a1565b611345848a8a8a8a8a61180a565b505050505050505050565b600073ffffffffffffffffffffffffffffffffffffffff168373ffffffffffffffffffffffffffffffffffffffff1614156113c0576040517f08c379a00000000000000000000000000000000000000000000000000000000081526004016113b790612e7c565b60405180910390fd5b60006113ca6109e7565b905060006113d784611790565b905060006113e484611790565b905061140483876000858560405180602001604052806000815250611599565b60006065600087815260200190815260200160002060008873ffffffffffffffffffffffffffffffffffffffff1673ffffffffffffffffffffffffffffffffffffffff1681526020019081526020016000205490508481101561149c576040517f08c379a000000000000000000000000000000000000000000000000000000000815260040161149390612f0e565b60405180910390fd5b8481036065600088815260200190815260200160002060008973ffffffffffffffffffffffffffffffffffffffff1673ffffffffffffffffffffffffffffffffffffffff16815260200190815260200160002081905550600073ffffffffffffffffffffffffffffffffffffffff168773ffffffffffffffffffffffffffffffffffffffff168573ffffffffffffffffffffffffffffffffffffffff167fc3d58168c5ae7397731d063d5bbf3d657854427343f4c083240f7aacaa2d0f62898960405161156a929190612cbd565b60405180910390a4611590848860008686604051806020016040528060008152506115a1565b50505050505050565b505050505050565b505050505050565b6115c88473ffffffffffffffffffffffffffffffffffffffff16610ec6565b15611788578373ffffffffffffffffffffffffffffffffffffffff1663bc197c8187878686866040518663ffffffff1660e01b815260040161160e959493929190612f92565b602060405180830381600087803b15801561162857600080fd5b505af192505050801561165957506040513d601f19601f82011682018060405250810190611656919061300f565b60015b6116ff57611665613049565b806308c379a014156116c2575061167a61306b565b8061168557506116c4565b806040517f08c379a00000000000000000000000000000000000000000000000000000000081526004016116b99190611d9c565b60405180910390fd5b505b6040517f08c379a00000000000000000000000000000000000000000000000000000000081526004016116f690613173565b60405180910390fd5b63bc197c8160e01b7bffffffffffffffffffffffffffffffffffffffffffffffffffffffff1916817bffffffffffffffffffffffffffffffffffffffffffffffffffffffff191614611786576040517f08c379a000000000000000000000000000000000000000000000000000000000815260040161177d90613205565b60405180910390fd5b505b505050505050565b60606000600167ffffffffffffffff8111156117af576117ae611dc3565b5b6040519080825280602002602001820160405280156117dd5781602001602082028036833780820191505090505b50905082816000815181106117f5576117f461284c565b5b60200260200101818152505080915050919050565b6118298473ffffffffffffffffffffffffffffffffffffffff16610ec6565b156119e9578373ffffffffffffffffffffffffffffffffffffffff1663f23a6e6187878686866040518663ffffffff1660e01b815260040161186f959493929190613225565b602060405180830381600087803b15801561188957600080fd5b505af19250505080156118ba57506040513d601f19601f820116820180604052508101906118b7919061300f565b60015b611960576118c6613049565b806308c379a0141561192357506118db61306b565b806118e65750611925565b806040517f08c379a000000000000000000000000000000000000000000000000000000000815260040161191a9190611d9c565b60405180910390fd5b505b6040517f08c379a000000000000000000000000000000000000000000000000000000000815260040161195790613173565b60405180910390fd5b63f23a6e6160e01b7bffffffffffffffffffffffffffffffffffffffffffffffffffffffff1916817bffffffffffffffffffffffffffffffffffffffffffffffffffffffff1916146119e7576040517f08c379a00000000000000000000000000000000000000000000000000000000081526004016119de90613205565b60405180910390fd5b505b505050505050565b600060019054906101000a900460ff16611a40576040517f08c379a0000000000000000000000000000000000000000000000000000000008152600401611a3790612d58565b60405180910390fd5b611a4981611a4c565b50565b8060679080519060200190611a62929190611a66565b5050565b828054611a72906126f6565b90600052602060002090601f016020900481019282611a945760008555611adb565b82601f10611aad57805160ff1916838001178555611adb565b82800160010185558215611adb579182015b82811115611ada578251825591602001919060010190611abf565b5b509050611ae89190611aec565b5090565b5b80821115611b05576000816000905550600101611aed565b5090565b6000604051905090565b600080fd5b600080fd5b600073ffffffffffffffffffffffffffffffffffffffff82169050919050565b6000611b4882611b1d565b9050919050565b611b5881611b3d565b8114611b6357600080fd5b50565b600081359050611b7581611b4f565b92915050565b6000819050919050565b611b8e81611b7b565b8114611b9957600080fd5b50565b600081359050611bab81611b85565b92915050565b60008060408385031215611bc857611bc7611b13565b5b6000611bd685828601611b66565b9250506020611be785828601611b9c565b9150509250929050565b611bfa81611b7b565b82525050565b6000602082019050611c156000830184611bf1565b92915050565b60007fffffffff0000000000000000000000000000000000000000000000000000000082169050919050565b611c5081611c1b565b8114611c5b57600080fd5b50565b600081359050611c6d81611c47565b92915050565b600060208284031215611c8957611c88611b13565b5b6000611c9784828501611c5e565b91505092915050565b60008115159050919050565b611cb581611ca0565b82525050565b6000602082019050611cd06000830184611cac565b92915050565b600060208284031215611cec57611ceb611b13565b5b6000611cfa84828501611b9c565b91505092915050565b600081519050919050565b600082825260208201905092915050565b60005b83811015611d3d578082015181840152602081019050611d22565b83811115611d4c576000848401525b50505050565b6000601f19601f8301169050919050565b6000611d6e82611d03565b611d788185611d0e565b9350611d88818560208601611d1f565b611d9181611d52565b840191505092915050565b60006020820190508181036000830152611db68184611d63565b905092915050565b600080fd5b7f4e487b7100000000000000000000000000000000000000000000000000000000600052604160045260246000fd5b611dfb82611d52565b810181811067ffffffffffffffff82111715611e1a57611e19611dc3565b5b80604052505050565b6000611e2d611b09565b9050611e398282611df2565b919050565b600067ffffffffffffffff821115611e5957611e58611dc3565b5b602082029050602081019050919050565b600080fd5b6000611e82611e7d84611e3e565b611e23565b90508083825260208201905060208402830185811115611ea557611ea4611e6a565b5b835b81811015611ece5780611eba8882611b9c565b845260208401935050602081019050611ea7565b5050509392505050565b600082601f830112611eed57611eec611dbe565b5b8135611efd848260208601611e6f565b91505092915050565b600080fd5b600067ffffffffffffffff821115611f2657611f25611dc3565b5b611f2f82611d52565b9050602081019050919050565b82818337600083830152505050565b6000611f5e611f5984611f0b565b611e23565b905082815260208101848484011115611f7a57611f79611f06565b5b611f85848285611f3c565b509392505050565b600082601f830112611fa257611fa1611dbe565b5b8135611fb2848260208601611f4b565b91505092915050565b600080600080600060a08688031215611fd757611fd6611b13565b5b6000611fe588828901611b66565b9550506020611ff688828901611b66565b945050604086013567ffffffffffffffff81111561201757612016611b18565b5b61202388828901611ed8565b935050606086013567ffffffffffffffff81111561204457612043611b18565b5b61205088828901611ed8565b925050608086013567ffffffffffffffff81111561207157612070611b18565b5b61207d88828901611f8d565b9150509295509295909350565b6000819050919050565b60006120af6120aa6120a584611b1d565b61208a565b611b1d565b9050919050565b60006120c182612094565b9050919050565b60006120d3826120b6565b9050919050565b6120e3816120c8565b82525050565b60006020820190506120fe60008301846120da565b92915050565b600067ffffffffffffffff82111561211f5761211e611dc3565b5b602082029050602081019050919050565b600061214361213e84612104565b611e23565b9050808382526020820190506020840283018581111561216657612165611e6a565b5b835b8181101561218f578061217b8882611b66565b845260208401935050602081019050612168565b5050509392505050565b600082601f8301126121ae576121ad611dbe565b5b81356121be848260208601612130565b91505092915050565b600080604083850312156121de576121dd611b13565b5b600083013567ffffffffffffffff8111156121fc576121fb611b18565b5b61220885828601612199565b925050602083013567ffffffffffffffff81111561222957612228611b18565b5b61223585828601611ed8565b9150509250929050565b600081519050919050565b600082825260208201905092915050565b6000819050602082019050919050565b61227481611b7b565b82525050565b6000612286838361226b565b60208301905092915050565b6000602082019050919050565b60006122aa8261223f565b6122b4818561224a565b93506122bf8361225b565b8060005b838110156122f05781516122d7888261227a565b97506122e283612292565b9250506001810190506122c3565b5085935050505092915050565b60006020820190508181036000830152612317818461229f565b905092915050565b6000806000806080858703121561233957612338611b13565b5b600061234787828801611b66565b945050602061235887828801611b9c565b935050604061236987828801611b9c565b925050606085013567ffffffffffffffff81111561238a57612389611b18565b5b61239687828801611f8d565b91505092959194509250565b600067ffffffffffffffff8211156123bd576123bc611dc3565b5b6123c682611d52565b9050602081019050919050565b60006123e66123e1846123a2565b611e23565b90508281526020810184848401111561240257612401611f06565b5b61240d848285611f3c565b509392505050565b600082601f83011261242a57612429611dbe565b5b813561243a8482602086016123d3565b91505092915050565b6000806040838503121561245a57612459611b13565b5b600083013567ffffffffffffffff81111561247857612477611b18565b5b61248485828601612415565b925050602061249585828601611b66565b9150509250929050565b6124a881611ca0565b81146124b357600080fd5b50565b6000813590506124c58161249f565b92915050565b600080604083850312156124e2576124e1611b13565b5b60006124f085828601611b66565b9250506020612501858286016124b6565b9150509250929050565b6000806040838503121561252257612521611b13565b5b600061253085828601611b66565b925050602061254185828601611b66565b9150509250929050565b600080600080600060a0868803121561256757612566611b13565b5b600061257588828901611b66565b955050602061258688828901611b66565b945050604061259788828901611b9c565b93505060606125a888828901611b9c565b925050608086013567ffffffffffffffff8111156125c9576125c8611b18565b5b6125d588828901611f8d565b9150509295509295909350565b6000806000606084860312156125fb576125fa611b13565b5b600061260986828701611b66565b935050602061261a86828701611b9c565b925050604061262b86828701611b9c565b9150509250925092565b7f455243313135353a2061646472657373207a65726f206973206e6f742061207660008201527f616c6964206f776e657200000000000000000000000000000000000000000000602082015250565b6000612691602a83611d0e565b915061269c82612635565b604082019050919050565b600060208201905081810360008301526126c081612684565b9050919050565b7f4e487b7100000000000000000000000000000000000000000000000000000000600052602260045260246000fd5b6000600282049050600182168061270e57607f821691505b60208210811415612722576127216126c7565b5b50919050565b7f455243313135353a2063616c6c6572206973206e6f7420746f6b656e206f776e60008201527f6572206e6f7220617070726f7665640000000000000000000000000000000000602082015250565b6000612784602f83611d0e565b915061278f82612728565b604082019050919050565b600060208201905081810360008301526127b381612777565b9050919050565b7f455243313135353a206163636f756e747320616e6420696473206c656e67746860008201527f206d69736d617463680000000000000000000000000000000000000000000000602082015250565b6000612816602983611d0e565b9150612821826127ba565b604082019050919050565b6000602082019050818103600083015261284581612809565b9050919050565b7f4e487b7100000000000000000000000000000000000000000000000000000000600052603260045260246000fd5b7f4e487b7100000000000000000000000000000000000000000000000000000000600052601160045260246000fd5b60006128b582611b7b565b91507fffffffffffffffffffffffffffffffffffffffffffffffffffffffffffffffff8214156128e8576128e761287b565b5b600182019050919050565b7f496e697469616c697a61626c653a20636f6e747261637420697320616c72656160008201527f647920696e697469616c697a6564000000000000000000000000000000000000602082015250565b600061294f602e83611d0e565b915061295a826128f3565b604082019050919050565b6000602082019050818103600083015261297e81612942565b9050919050565b6000819050919050565b600060ff82169050919050565b60006129b76129b26129ad84612985565b61208a565b61298f565b9050919050565b6129c78161299c565b82525050565b60006020820190506129e260008301846129be565b92915050565b7f455243313135353a2069647320616e6420616d6f756e7473206c656e6774682060008201527f6d69736d61746368000000000000000000000000000000000000000000000000602082015250565b6000612a44602883611d0e565b9150612a4f826129e8565b604082019050919050565b60006020820190508181036000830152612a7381612a37565b9050919050565b7f455243313135353a207472616e7366657220746f20746865207a65726f20616460008201527f6472657373000000000000000000000000000000000000000000000000000000602082015250565b6000612ad6602583611d0e565b9150612ae182612a7a565b604082019050919050565b60006020820190508181036000830152612b0581612ac9565b9050919050565b7f455243313135353a20696e73756666696369656e742062616c616e636520666f60008201527f72207472616e7366657200000000000000000000000000000000000000000000602082015250565b6000612b68602a83611d0e565b9150612b7382612b0c565b604082019050919050565b60006020820190508181036000830152612b9781612b5b565b9050919050565b6000612ba982611b7b565b9150612bb483611b7b565b9250827fffffffffffffffffffffffffffffffffffffffffffffffffffffffffffffffff03821115612be957612be861287b565b5b828201905092915050565b60006040820190508181036000830152612c0e818561229f565b90508181036020830152612c22818461229f565b90509392505050565b7f455243313135353a206d696e7420746f20746865207a65726f2061646472657360008201527f7300000000000000000000000000000000000000000000000000000000000000602082015250565b6000612c87602183611d0e565b9150612c9282612c2b565b604082019050919050565b60006020820190508181036000830152612cb681612c7a565b9050919050565b6000604082019050612cd26000830185611bf1565b612cdf6020830184611bf1565b9392505050565b7f496e697469616c697a61626c653a20636f6e7472616374206973206e6f74206960008201527f6e697469616c697a696e67000000000000000000000000000000000000000000602082015250565b6000612d42602b83611d0e565b9150612d4d82612ce6565b604082019050919050565b60006020820190508181036000830152612d7181612d35565b9050919050565b7f455243313135353a2073657474696e6720617070726f76616c2073746174757360008201527f20666f722073656c660000000000000000000000000000000000000000000000602082015250565b6000612dd4602983611d0e565b9150612ddf82612d78565b604082019050919050565b60006020820190508181036000830152612e0381612dc7565b9050919050565b7f455243313135353a206275726e2066726f6d20746865207a65726f206164647260008201527f6573730000000000000000000000000000000000000000000000000000000000602082015250565b6000612e66602383611d0e565b9150612e7182612e0a565b604082019050919050565b60006020820190508181036000830152612e9581612e59565b9050919050565b7f455243313135353a206275726e20616d6f756e7420657863656564732062616c60008201527f616e636500000000000000000000000000000000000000000000000000000000602082015250565b6000612ef8602483611d0e565b9150612f0382612e9c565b604082019050919050565b60006020820190508181036000830152612f2781612eeb565b9050919050565b612f3781611b3d565b82525050565b600081519050919050565b600082825260208201905092915050565b6000612f6482612f3d565b612f6e8185612f48565b9350612f7e818560208601611d1f565b612f8781611d52565b840191505092915050565b600060a082019050612fa76000830188612f2e565b612fb46020830187612f2e565b8181036040830152612fc6818661229f565b90508181036060830152612fda818561229f565b90508181036080830152612fee8184612f59565b90509695505050505050565b60008151905061300981611c47565b92915050565b60006020828403121561302557613024611b13565b5b600061303384828501612ffa565b91505092915050565b60008160e01c9050919050565b600060033d11156130685760046000803e61306560005161303c565b90505b90565b600060443d101561307b576130fe565b613083611b09565b60043d036004823e80513d602482011167ffffffffffffffff821117156130ab5750506130fe565b808201805167ffffffffffffffff8111156130c957505050506130fe565b80602083010160043d0385018111156130e65750505050506130fe565b6130f582602001850186611df2565b82955050505050505b90565b7f455243313135353a207472616e7366657220746f206e6f6e204552433131353560008201527f526563656976657220696d706c656d656e746572000000000000000000000000602082015250565b600061315d603483611d0e565b915061316882613101565b604082019050919050565b6000602082019050818103600083015261318c81613150565b9050919050565b7f455243313135353a204552433131353552656365697665722072656a6563746560008201527f6420746f6b656e73000000000000000000000000000000000000000000000000602082015250565b60006131ef602883611d0e565b91506131fa82613193565b604082019050919050565b6000602082019050818103600083015261321e816131e2565b9050919050565b600060a08201905061323a6000830188612f2e565b6132476020830187612f2e565b6132546040830186611bf1565b6132616060830185611bf1565b81810360808301526132738184612f59565b9050969550505050505056fea264697066735822122006d9d1412c3cd0ae078d6c84fded9a429bf5f302e280b136a5617c38210afb1e64736f6c63430008090033",
  "devdoc": {
    "details": "This contract implements the ERC115 standard and is used for unit testing purposes only Anyone can mint or burn tokens",
    "kind": "dev",
    "methods": {
      "balanceOf(address,uint256)": {
        "details": "See {IERC1155-balanceOf}. Requirements: - `account` cannot be the zero address."
      },
      "balanceOfBatch(address[],uint256[])": {
        "details": "See {IERC1155-balanceOfBatch}. Requirements: - `accounts` and `ids` must have the same length."
      },
      "burn(address,uint256,uint256)": {
        "details": "allows anyone to burn tokens"
      },
      "initialize(string,address)": {
        "details": "initializer to call after deployment, can only be called once"
      },
      "isApprovedForAll(address,address)": {
        "details": "See {IERC1155-isApprovedForAll}."
      },
      "mint(address,uint256,uint256,bytes)": {
        "details": "Allows anyone to mint tokens"
      },
      "safeBatchTransferFrom(address,address,uint256[],uint256[],bytes)": {
        "details": "See {IERC1155-safeBatchTransferFrom}."
      },
      "safeTransferFrom(address,address,uint256,uint256,bytes)": {
        "details": "See {IERC1155-safeTransferFrom}."
      },
      "setApprovalForAll(address,bool)": {
        "details": "See {IERC1155-setApprovalForAll}."
      },
      "supportsInterface(bytes4)": {
        "details": "See {IERC165-supportsInterface}."
      },
      "uri(uint256)": {
        "details": "See {IERC1155MetadataURI-uri}. This implementation returns the same URI for *all* token types. It relies on the token type ID substitution mechanism https://eips.ethereum.org/EIPS/eip-1155#metadata[defined in the EIP]. Clients calling this function must replace the `\\{id\\}` substring with the actual token type ID."
      }
    },
    "title": "TestErc1155",
    "version": 1
  },
  "userdoc": {
    "kind": "user",
    "methods": {},
    "version": 1
  },
  "storageLayout": {
    "storage": [
      {
        "astId": 2366,
        "contract": "contracts/Testing/TestErc1155.sol:TestErc1155",
        "label": "_initialized",
        "offset": 0,
        "slot": "0",
        "type": "t_uint8"
      },
      {
        "astId": 2369,
        "contract": "contracts/Testing/TestErc1155.sol:TestErc1155",
        "label": "_initializing",
        "offset": 1,
        "slot": "0",
        "type": "t_bool"
      },
      {
        "astId": 6485,
        "contract": "contracts/Testing/TestErc1155.sol:TestErc1155",
        "label": "__gap",
        "offset": 0,
        "slot": "1",
        "type": "t_array(t_uint256)50_storage"
      },
      {
        "astId": 6755,
        "contract": "contracts/Testing/TestErc1155.sol:TestErc1155",
        "label": "__gap",
        "offset": 0,
        "slot": "51",
        "type": "t_array(t_uint256)50_storage"
      },
      {
        "astId": 2598,
        "contract": "contracts/Testing/TestErc1155.sol:TestErc1155",
        "label": "_balances",
        "offset": 0,
        "slot": "101",
        "type": "t_mapping(t_uint256,t_mapping(t_address,t_uint256))"
      },
      {
        "astId": 2604,
        "contract": "contracts/Testing/TestErc1155.sol:TestErc1155",
        "label": "_operatorApprovals",
        "offset": 0,
        "slot": "102",
        "type": "t_mapping(t_address,t_mapping(t_address,t_bool))"
      },
      {
        "astId": 2606,
        "contract": "contracts/Testing/TestErc1155.sol:TestErc1155",
        "label": "_uri",
        "offset": 0,
        "slot": "103",
        "type": "t_string_storage"
      },
      {
        "astId": 3813,
        "contract": "contracts/Testing/TestErc1155.sol:TestErc1155",
        "label": "__gap",
        "offset": 0,
        "slot": "104",
        "type": "t_array(t_uint256)47_storage"
      },
      {
        "astId": 12906,
        "contract": "contracts/Testing/TestErc1155.sol:TestErc1155",
        "label": "addressManager",
        "offset": 0,
        "slot": "151",
        "type": "t_contract(IAddressManager)8538"
      }
    ],
    "types": {
      "t_address": {
        "encoding": "inplace",
        "label": "address",
        "numberOfBytes": "20"
      },
      "t_array(t_uint256)47_storage": {
        "base": "t_uint256",
        "encoding": "inplace",
        "label": "uint256[47]",
        "numberOfBytes": "1504"
      },
      "t_array(t_uint256)50_storage": {
        "base": "t_uint256",
        "encoding": "inplace",
        "label": "uint256[50]",
        "numberOfBytes": "1600"
      },
      "t_bool": {
        "encoding": "inplace",
        "label": "bool",
        "numberOfBytes": "1"
      },
      "t_contract(IAddressManager)8538": {
        "encoding": "inplace",
        "label": "contract IAddressManager",
        "numberOfBytes": "20"
      },
      "t_mapping(t_address,t_bool)": {
        "encoding": "mapping",
        "key": "t_address",
        "label": "mapping(address => bool)",
        "numberOfBytes": "32",
        "value": "t_bool"
      },
      "t_mapping(t_address,t_mapping(t_address,t_bool))": {
        "encoding": "mapping",
        "key": "t_address",
        "label": "mapping(address => mapping(address => bool))",
        "numberOfBytes": "32",
        "value": "t_mapping(t_address,t_bool)"
      },
      "t_mapping(t_address,t_uint256)": {
        "encoding": "mapping",
        "key": "t_address",
        "label": "mapping(address => uint256)",
        "numberOfBytes": "32",
        "value": "t_uint256"
      },
      "t_mapping(t_uint256,t_mapping(t_address,t_uint256))": {
        "encoding": "mapping",
        "key": "t_uint256",
        "label": "mapping(uint256 => mapping(address => uint256))",
        "numberOfBytes": "32",
        "value": "t_mapping(t_address,t_uint256)"
      },
      "t_string_storage": {
        "encoding": "bytes",
        "label": "string",
        "numberOfBytes": "32"
      },
      "t_uint256": {
        "encoding": "inplace",
        "label": "uint256",
        "numberOfBytes": "32"
      },
      "t_uint8": {
        "encoding": "inplace",
        "label": "uint8",
        "numberOfBytes": "1"
      }
    }
  }
}