{
  "address": "0xc85FC0fd5aBbcBb27405938779C21E22a066D5e6",
  "abi": [
    {
      "anonymous": false,
      "inputs": [
        {
          "indexed": true,
          "internalType": "address",
          "name": "owner",
          "type": "address"
        },
        {
          "indexed": true,
          "internalType": "address",
          "name": "approved",
          "type": "address"
        },
        {
          "indexed": true,
          "internalType": "uint256",
          "name": "tokenId",
          "type": "uint256"
        }
      ],
      "name": "Approval",
      "type": "event"
    },
    {
      "anonymous": false,
      "inputs": [
        {
          "indexed": true,
          "internalType": "address",
          "name": "owner",
          "type": "address"
        },
        {
          "indexed": true,
          "internalType": "address",
          "name": "operator",
          "type": "address"
        },
        {
          "indexed": false,
          "internalType": "bool",
          "name": "approved",
          "type": "bool"
        }
      ],
      "name": "ApprovalForAll",
      "type": "event"
    },
    {
      "anonymous": false,
      "inputs": [
        {
          "indexed": false,
          "internalType": "uint8",
          "name": "version",
          "type": "uint8"
        }
      ],
      "name": "Initialized",
      "type": "event"
    },
    {
      "anonymous": false,
      "inputs": [
        {
          "indexed": true,
          "internalType": "address",
          "name": "from",
          "type": "address"
        },
        {
          "indexed": true,
          "internalType": "address",
          "name": "to",
          "type": "address"
        },
        {
          "indexed": true,
          "internalType": "uint256",
          "name": "tokenId",
          "type": "uint256"
        }
      ],
      "name": "Transfer",
      "type": "event"
    },
    {
      "inputs": [
        {
          "internalType": "address",
          "name": "to",
          "type": "address"
        },
        {
          "internalType": "uint256",
          "name": "tokenId",
          "type": "uint256"
        }
      ],
      "name": "approve",
      "outputs": [],
      "stateMutability": "nonpayable",
      "type": "function"
    },
    {
      "inputs": [
        {
          "internalType": "address",
          "name": "owner",
          "type": "address"
        }
      ],
      "name": "balanceOf",
      "outputs": [
        {
          "internalType": "uint256",
          "name": "",
          "type": "uint256"
        }
      ],
      "stateMutability": "view",
      "type": "function"
    },
    {
      "inputs": [
        {
          "internalType": "uint256",
          "name": "tokenId",
          "type": "uint256"
        }
      ],
      "name": "burn",
      "outputs": [],
      "stateMutability": "nonpayable",
      "type": "function"
    },
    {
      "inputs": [
        {
          "internalType": "uint256",
          "name": "tokenId",
          "type": "uint256"
        }
      ],
      "name": "getApproved",
      "outputs": [
        {
          "internalType": "address",
          "name": "",
          "type": "address"
        }
      ],
      "stateMutability": "view",
      "type": "function"
    },
    {
      "inputs": [
        {
          "internalType": "string",
          "name": "name_",
          "type": "string"
        },
        {
          "internalType": "string",
          "name": "symbol_",
          "type": "string"
        }
      ],
      "name": "initialize",
      "outputs": [],
      "stateMutability": "nonpayable",
      "type": "function"
    },
    {
      "inputs": [
        {
          "internalType": "address",
          "name": "owner",
          "type": "address"
        },
        {
          "internalType": "address",
          "name": "operator",
          "type": "address"
        }
      ],
      "name": "isApprovedForAll",
      "outputs": [
        {
          "internalType": "bool",
          "name": "",
          "type": "bool"
        }
      ],
      "stateMutability": "view",
      "type": "function"
    },
    {
      "inputs": [
        {
          "internalType": "address",
          "name": "to",
          "type": "address"
        },
        {
          "internalType": "uint256",
          "name": "tokenId",
          "type": "uint256"
        }
      ],
      "name": "mint",
      "outputs": [],
      "stateMutability": "nonpayable",
      "type": "function"
    },
    {
      "inputs": [],
      "name": "name",
      "outputs": [
        {
          "internalType": "string",
          "name": "",
          "type": "string"
        }
      ],
      "stateMutability": "view",
      "type": "function"
    },
    {
      "inputs": [
        {
          "internalType": "uint256",
          "name": "tokenId",
          "type": "uint256"
        }
      ],
      "name": "ownerOf",
      "outputs": [
        {
          "internalType": "address",
          "name": "",
          "type": "address"
        }
      ],
      "stateMutability": "view",
      "type": "function"
    },
    {
      "inputs": [
        {
          "internalType": "address",
          "name": "from",
          "type": "address"
        },
        {
          "internalType": "address",
          "name": "to",
          "type": "address"
        },
        {
          "internalType": "uint256",
          "name": "tokenId",
          "type": "uint256"
        }
      ],
      "name": "safeTransferFrom",
      "outputs": [],
      "stateMutability": "nonpayable",
      "type": "function"
    },
    {
      "inputs": [
        {
          "internalType": "address",
          "name": "from",
          "type": "address"
        },
        {
          "internalType": "address",
          "name": "to",
          "type": "address"
        },
        {
          "internalType": "uint256",
          "name": "tokenId",
          "type": "uint256"
        },
        {
          "internalType": "bytes",
          "name": "data",
          "type": "bytes"
        }
      ],
      "name": "safeTransferFrom",
      "outputs": [],
      "stateMutability": "nonpayable",
      "type": "function"
    },
    {
      "inputs": [
        {
          "internalType": "address",
          "name": "operator",
          "type": "address"
        },
        {
          "internalType": "bool",
          "name": "approved",
          "type": "bool"
        }
      ],
      "name": "setApprovalForAll",
      "outputs": [],
      "stateMutability": "nonpayable",
      "type": "function"
    },
    {
      "inputs": [
        {
          "internalType": "bytes4",
          "name": "interfaceId",
          "type": "bytes4"
        }
      ],
      "name": "supportsInterface",
      "outputs": [
        {
          "internalType": "bool",
          "name": "",
          "type": "bool"
        }
      ],
      "stateMutability": "view",
      "type": "function"
    },
    {
      "inputs": [],
      "name": "symbol",
      "outputs": [
        {
          "internalType": "string",
          "name": "",
          "type": "string"
        }
      ],
      "stateMutability": "view",
      "type": "function"
    },
    {
      "inputs": [
        {
          "internalType": "uint256",
          "name": "tokenId",
          "type": "uint256"
        }
      ],
      "name": "tokenURI",
      "outputs": [
        {
          "internalType": "string",
          "name": "",
          "type": "string"
        }
      ],
      "stateMutability": "view",
      "type": "function"
    },
    {
      "inputs": [
        {
          "internalType": "address",
          "name": "from",
          "type": "address"
        },
        {
          "internalType": "address",
          "name": "to",
          "type": "address"
        },
        {
          "internalType": "uint256",
          "name": "tokenId",
          "type": "uint256"
        }
      ],
      "name": "transferFrom",
      "outputs": [],
      "stateMutability": "nonpayable",
      "type": "function"
    }
  ],
  "transactionHash": "0xef120c470744fbbbf855511374d02bc9734f7a8a2fc1e2b07f377396c6f3a07b",
  "args": [],
  "numDeployments": 1,
  "solcInputHash": "e5086af1310b7ca1d6194e2a0e3afebd",
  "bytecode": "0x608060405234801561001057600080fd5b50612bea806100206000396000f3fe608060405234801561001057600080fd5b50600436106101005760003560e01c80634cd88b7611610097578063a22cb46511610066578063a22cb465146102a9578063b88d4fde146102c5578063c87b56dd146102e1578063e985e9c51461031157610100565b80634cd88b761461020f5780636352211e1461022b57806370a082311461025b57806395d89b411461028b57610100565b806323b872dd116100d357806323b872dd1461019f57806340c10f19146101bb57806342842e0e146101d757806342966c68146101f357610100565b806301ffc9a71461010557806306fdde0314610135578063081812fc14610153578063095ea7b314610183575b600080fd5b61011f600480360381019061011a9190611a9f565b610341565b60405161012c9190611ae7565b60405180910390f35b61013d610423565b60405161014a9190611b9b565b60405180910390f35b61016d60048036038101906101689190611bf3565b6104b5565b60405161017a9190611c61565b60405180910390f35b61019d60048036038101906101989190611ca8565b6104fb565b005b6101b960048036038101906101b49190611ce8565b610613565b005b6101d560048036038101906101d09190611ca8565b610673565b005b6101f160048036038101906101ec9190611ce8565b610681565b005b61020d60048036038101906102089190611bf3565b6106a1565b005b61022960048036038101906102249190611e70565b6106ad565b005b61024560048036038101906102409190611bf3565b6107ef565b6040516102529190611c61565b60405180910390f35b61027560048036038101906102709190611ee8565b6108a1565b6040516102829190611f24565b60405180910390f35b610293610959565b6040516102a09190611b9b565b60405180910390f35b6102c360048036038101906102be9190611f6b565b6109eb565b005b6102df60048036038101906102da919061204c565b610a01565b005b6102fb60048036038101906102f69190611bf3565b610a63565b6040516103089190611b9b565b60405180910390f35b61032b600480360381019061032691906120cf565b610acb565b6040516103389190611ae7565b60405180910390f35b60007f80ac58cd000000000000000000000000000000000000000000000000000000007bffffffffffffffffffffffffffffffffffffffffffffffffffffffff1916827bffffffffffffffffffffffffffffffffffffffffffffffffffffffff1916148061040c57507f5b5e139f000000000000000000000000000000000000000000000000000000007bffffffffffffffffffffffffffffffffffffffffffffffffffffffff1916827bffffffffffffffffffffffffffffffffffffffffffffffffffffffff1916145b8061041c575061041b82610b5f565b5b9050919050565b6060606580546104329061213e565b80601f016020809104026020016040519081016040528092919081815260200182805461045e9061213e565b80156104ab5780601f10610480576101008083540402835291602001916104ab565b820191906000526020600020905b81548152906001019060200180831161048e57829003601f168201915b5050505050905090565b60006104c082610bc9565b6069600083815260200190815260200160002060009054906101000a900473ffffffffffffffffffffffffffffffffffffffff169050919050565b6000610506826107ef565b90508073ffffffffffffffffffffffffffffffffffffffff168373ffffffffffffffffffffffffffffffffffffffff161415610577576040517f08c379a000000000000000000000000000000000000000000000000000000000815260040161056e906121e2565b60405180910390fd5b8073ffffffffffffffffffffffffffffffffffffffff16610596610c14565b73ffffffffffffffffffffffffffffffffffffffff1614806105c557506105c4816105bf610c14565b610acb565b5b610604576040517f08c379a00000000000000000000000000000000000000000000000000000000081526004016105fb90612274565b60405180910390fd5b61060e8383610c1c565b505050565b61062461061e610c14565b82610cd5565b610663576040517f08c379a000000000000000000000000000000000000000000000000000000000815260040161065a90612306565b60405180910390fd5b61066e838383610d6a565b505050565b61067d8282610fd1565b5050565b61069c83838360405180602001604052806000815250610a01565b505050565b6106aa81610fef565b50565b60008060019054906101000a900460ff161590508080156106de5750600160008054906101000a900460ff1660ff16105b8061070b57506106ed3061110c565b15801561070a5750600160008054906101000a900460ff1660ff16145b5b61074a576040517f08c379a000000000000000000000000000000000000000000000000000000000815260040161074190612398565b60405180910390fd5b60016000806101000a81548160ff021916908360ff1602179055508015610787576001600060016101000a81548160ff0219169083151502179055505b610791838361112f565b80156107ea5760008060016101000a81548160ff0219169083151502179055507f7f26b83ff96e1f2b6a682f133852f6798a09c465da95921460cefb384740249860016040516107e1919061240a565b60405180910390a15b505050565b6000806067600084815260200190815260200160002060009054906101000a900473ffffffffffffffffffffffffffffffffffffffff169050600073ffffffffffffffffffffffffffffffffffffffff168173ffffffffffffffffffffffffffffffffffffffff161415610898576040517f08c379a000000000000000000000000000000000000000000000000000000000815260040161088f90612471565b60405180910390fd5b80915050919050565b60008073ffffffffffffffffffffffffffffffffffffffff168273ffffffffffffffffffffffffffffffffffffffff161415610912576040517f08c379a000000000000000000000000000000000000000000000000000000000815260040161090990612503565b60405180910390fd5b606860008373ffffffffffffffffffffffffffffffffffffffff1673ffffffffffffffffffffffffffffffffffffffff168152602001908152602001600020549050919050565b6060606680546109689061213e565b80601f01602080910402602001604051908101604052809291908181526020018280546109949061213e565b80156109e15780601f106109b6576101008083540402835291602001916109e1565b820191906000526020600020905b8154815290600101906020018083116109c457829003601f168201915b5050505050905090565b6109fd6109f6610c14565b838361118c565b5050565b610a12610a0c610c14565b83610cd5565b610a51576040517f08c379a0000000000000000000000000000000000000000000000000000000008152600401610a4890612306565b60405180910390fd5b610a5d848484846112f9565b50505050565b6060610a6e82610bc9565b6000610a78611355565b90506000815111610a985760405180602001604052806000815250610ac3565b80610aa28461136c565b604051602001610ab392919061255f565b6040516020818303038152906040525b915050919050565b6000606a60008473ffffffffffffffffffffffffffffffffffffffff1673ffffffffffffffffffffffffffffffffffffffff16815260200190815260200160002060008373ffffffffffffffffffffffffffffffffffffffff1673ffffffffffffffffffffffffffffffffffffffff16815260200190815260200160002060009054906101000a900460ff16905092915050565b60007f01ffc9a7000000000000000000000000000000000000000000000000000000007bffffffffffffffffffffffffffffffffffffffffffffffffffffffff1916827bffffffffffffffffffffffffffffffffffffffffffffffffffffffff1916149050919050565b610bd2816114cd565b610c11576040517f08c379a0000000000000000000000000000000000000000000000000000000008152600401610c0890612471565b60405180910390fd5b50565b600033905090565b816069600083815260200190815260200160002060006101000a81548173ffffffffffffffffffffffffffffffffffffffff021916908373ffffffffffffffffffffffffffffffffffffffff160217905550808273ffffffffffffffffffffffffffffffffffffffff16610c8f836107ef565b73ffffffffffffffffffffffffffffffffffffffff167f8c5be1e5ebec7d5bd14f71427d1e84f3dd0314c0f7b2291e5b200ac8c7c3b92560405160405180910390a45050565b600080610ce1836107ef565b90508073ffffffffffffffffffffffffffffffffffffffff168473ffffffffffffffffffffffffffffffffffffffff161480610d235750610d228185610acb565b5b80610d6157508373ffffffffffffffffffffffffffffffffffffffff16610d49846104b5565b73ffffffffffffffffffffffffffffffffffffffff16145b91505092915050565b8273ffffffffffffffffffffffffffffffffffffffff16610d8a826107ef565b73ffffffffffffffffffffffffffffffffffffffff1614610de0576040517f08c379a0000000000000000000000000000000000000000000000000000000008152600401610dd7906125f5565b60405180910390fd5b600073ffffffffffffffffffffffffffffffffffffffff168273ffffffffffffffffffffffffffffffffffffffff161415610e50576040517f08c379a0000000000000000000000000000000000000000000000000000000008152600401610e4790612687565b60405180910390fd5b610e5b838383611539565b610e66600082610c1c565b6001606860008573ffffffffffffffffffffffffffffffffffffffff1673ffffffffffffffffffffffffffffffffffffffff1681526020019081526020016000206000828254610eb691906126d6565b925050819055506001606860008473ffffffffffffffffffffffffffffffffffffffff1673ffffffffffffffffffffffffffffffffffffffff1681526020019081526020016000206000828254610f0d919061270a565b92505081905550816067600083815260200190815260200160002060006101000a81548173ffffffffffffffffffffffffffffffffffffffff021916908373ffffffffffffffffffffffffffffffffffffffff160217905550808273ffffffffffffffffffffffffffffffffffffffff168473ffffffffffffffffffffffffffffffffffffffff167fddf252ad1be2c89b69c2b068fc378daa952ba7f163c4a11628f55a4df523b3ef60405160405180910390a4610fcc83838361153e565b505050565b610feb828260405180602001604052806000815250611543565b5050565b6000610ffa826107ef565b905061100881600084611539565b611013600083610c1c565b6001606860008373ffffffffffffffffffffffffffffffffffffffff1673ffffffffffffffffffffffffffffffffffffffff168152602001908152602001600020600082825461106391906126d6565b925050819055506067600083815260200190815260200160002060006101000a81549073ffffffffffffffffffffffffffffffffffffffff021916905581600073ffffffffffffffffffffffffffffffffffffffff168273ffffffffffffffffffffffffffffffffffffffff167fddf252ad1be2c89b69c2b068fc378daa952ba7f163c4a11628f55a4df523b3ef60405160405180910390a46111088160008461153e565b5050565b6000808273ffffffffffffffffffffffffffffffffffffffff163b119050919050565b600060019054906101000a900460ff1661117e576040517f08c379a0000000000000000000000000000000000000000000000000000000008152600401611175906127d2565b60405180910390fd5b611188828261159e565b5050565b8173ffffffffffffffffffffffffffffffffffffffff168373ffffffffffffffffffffffffffffffffffffffff1614156111fb576040517f08c379a00000000000000000000000000000000000000000000000000000000081526004016111f29061283e565b60405180910390fd5b80606a60008573ffffffffffffffffffffffffffffffffffffffff1673ffffffffffffffffffffffffffffffffffffffff16815260200190815260200160002060008473ffffffffffffffffffffffffffffffffffffffff1673ffffffffffffffffffffffffffffffffffffffff16815260200190815260200160002060006101000a81548160ff0219169083151502179055508173ffffffffffffffffffffffffffffffffffffffff168373ffffffffffffffffffffffffffffffffffffffff167f17307eab39ab6107e8899845ad3d59bd9653f200f220920489ca2b5937696c31836040516112ec9190611ae7565b60405180910390a3505050565b611304848484610d6a565b6113108484848461161f565b61134f576040517f08c379a0000000000000000000000000000000000000000000000000000000008152600401611346906128d0565b60405180910390fd5b50505050565b606060405180602001604052806000815250905090565b606060008214156113b4576040518060400160405280600181526020017f300000000000000000000000000000000000000000000000000000000000000081525090506114c8565b600082905060005b600082146113e65780806113cf906128f0565b915050600a826113df9190612968565b91506113bc565b60008167ffffffffffffffff81111561140257611401611d45565b5b6040519080825280601f01601f1916602001820160405280156114345781602001600182028036833780820191505090505b5090505b600085146114c15760018261144d91906126d6565b9150600a8561145c9190612999565b6030611468919061270a565b60f81b81838151811061147e5761147d6129ca565b5b60200101907effffffffffffffffffffffffffffffffffffffffffffffffffffffffffffff1916908160001a905350600a856114ba9190612968565b9450611438565b8093505050505b919050565b60008073ffffffffffffffffffffffffffffffffffffffff166067600084815260200190815260200160002060009054906101000a900473ffffffffffffffffffffffffffffffffffffffff1673ffffffffffffffffffffffffffffffffffffffff1614159050919050565b505050565b505050565b61154d83836117b6565b61155a600084848461161f565b611599576040517f08c379a0000000000000000000000000000000000000000000000000000000008152600401611590906128d0565b60405180910390fd5b505050565b600060019054906101000a900460ff166115ed576040517f08c379a00000000000000000000000000000000000000000000000000000000081526004016115e4906127d2565b60405180910390fd5b8160659080519060200190611603929190611990565b50806066908051906020019061161a929190611990565b505050565b60006116408473ffffffffffffffffffffffffffffffffffffffff1661110c565b156117a9578373ffffffffffffffffffffffffffffffffffffffff1663150b7a02611669610c14565b8786866040518563ffffffff1660e01b815260040161168b9493929190612a4e565b602060405180830381600087803b1580156116a557600080fd5b505af19250505080156116d657506040513d601f19601f820116820180604052508101906116d39190612aaf565b60015b611759573d8060008114611706576040519150601f19603f3d011682016040523d82523d6000602084013e61170b565b606091505b50600081511415611751576040517f08c379a0000000000000000000000000000000000000000000000000000000008152600401611748906128d0565b60405180910390fd5b805181602001fd5b63150b7a0260e01b7bffffffffffffffffffffffffffffffffffffffffffffffffffffffff1916817bffffffffffffffffffffffffffffffffffffffffffffffffffffffff1916149150506117ae565b600190505b949350505050565b600073ffffffffffffffffffffffffffffffffffffffff168273ffffffffffffffffffffffffffffffffffffffff161415611826576040517f08c379a000000000000000000000000000000000000000000000000000000000815260040161181d90612b28565b60405180910390fd5b61182f816114cd565b1561186f576040517f08c379a000000000000000000000000000000000000000000000000000000000815260040161186690612b94565b60405180910390fd5b61187b60008383611539565b6001606860008473ffffffffffffffffffffffffffffffffffffffff1673ffffffffffffffffffffffffffffffffffffffff16815260200190815260200160002060008282546118cb919061270a565b92505081905550816067600083815260200190815260200160002060006101000a81548173ffffffffffffffffffffffffffffffffffffffff021916908373ffffffffffffffffffffffffffffffffffffffff160217905550808273ffffffffffffffffffffffffffffffffffffffff16600073ffffffffffffffffffffffffffffffffffffffff167fddf252ad1be2c89b69c2b068fc378daa952ba7f163c4a11628f55a4df523b3ef60405160405180910390a461198c6000838361153e565b5050565b82805461199c9061213e565b90600052602060002090601f0160209004810192826119be5760008555611a05565b82601f106119d757805160ff1916838001178555611a05565b82800160010185558215611a05579182015b82811115611a045782518255916020019190600101906119e9565b5b509050611a129190611a16565b5090565b5b80821115611a2f576000816000905550600101611a17565b5090565b6000604051905090565b600080fd5b600080fd5b60007fffffffff0000000000000000000000000000000000000000000000000000000082169050919050565b611a7c81611a47565b8114611a8757600080fd5b50565b600081359050611a9981611a73565b92915050565b600060208284031215611ab557611ab4611a3d565b5b6000611ac384828501611a8a565b91505092915050565b60008115159050919050565b611ae181611acc565b82525050565b6000602082019050611afc6000830184611ad8565b92915050565b600081519050919050565b600082825260208201905092915050565b60005b83811015611b3c578082015181840152602081019050611b21565b83811115611b4b576000848401525b50505050565b6000601f19601f8301169050919050565b6000611b6d82611b02565b611b778185611b0d565b9350611b87818560208601611b1e565b611b9081611b51565b840191505092915050565b60006020820190508181036000830152611bb58184611b62565b905092915050565b6000819050919050565b611bd081611bbd565b8114611bdb57600080fd5b50565b600081359050611bed81611bc7565b92915050565b600060208284031215611c0957611c08611a3d565b5b6000611c1784828501611bde565b91505092915050565b600073ffffffffffffffffffffffffffffffffffffffff82169050919050565b6000611c4b82611c20565b9050919050565b611c5b81611c40565b82525050565b6000602082019050611c766000830184611c52565b92915050565b611c8581611c40565b8114611c9057600080fd5b50565b600081359050611ca281611c7c565b92915050565b60008060408385031215611cbf57611cbe611a3d565b5b6000611ccd85828601611c93565b9250506020611cde85828601611bde565b9150509250929050565b600080600060608486031215611d0157611d00611a3d565b5b6000611d0f86828701611c93565b9350506020611d2086828701611c93565b9250506040611d3186828701611bde565b9150509250925092565b600080fd5b600080fd5b7f4e487b7100000000000000000000000000000000000000000000000000000000600052604160045260246000fd5b611d7d82611b51565b810181811067ffffffffffffffff82111715611d9c57611d9b611d45565b5b80604052505050565b6000611daf611a33565b9050611dbb8282611d74565b919050565b600067ffffffffffffffff821115611ddb57611dda611d45565b5b611de482611b51565b9050602081019050919050565b82818337600083830152505050565b6000611e13611e0e84611dc0565b611da5565b905082815260208101848484011115611e2f57611e2e611d40565b5b611e3a848285611df1565b509392505050565b600082601f830112611e5757611e56611d3b565b5b8135611e67848260208601611e00565b91505092915050565b60008060408385031215611e8757611e86611a3d565b5b600083013567ffffffffffffffff811115611ea557611ea4611a42565b5b611eb185828601611e42565b925050602083013567ffffffffffffffff811115611ed257611ed1611a42565b5b611ede85828601611e42565b9150509250929050565b600060208284031215611efe57611efd611a3d565b5b6000611f0c84828501611c93565b91505092915050565b611f1e81611bbd565b82525050565b6000602082019050611f396000830184611f15565b92915050565b611f4881611acc565b8114611f5357600080fd5b50565b600081359050611f6581611f3f565b92915050565b60008060408385031215611f8257611f81611a3d565b5b6000611f9085828601611c93565b9250506020611fa185828601611f56565b9150509250929050565b600067ffffffffffffffff821115611fc657611fc5611d45565b5b611fcf82611b51565b9050602081019050919050565b6000611fef611fea84611fab565b611da5565b90508281526020810184848401111561200b5761200a611d40565b5b612016848285611df1565b509392505050565b600082601f83011261203357612032611d3b565b5b8135612043848260208601611fdc565b91505092915050565b6000806000806080858703121561206657612065611a3d565b5b600061207487828801611c93565b945050602061208587828801611c93565b935050604061209687828801611bde565b925050606085013567ffffffffffffffff8111156120b7576120b6611a42565b5b6120c38782880161201e565b91505092959194509250565b600080604083850312156120e6576120e5611a3d565b5b60006120f485828601611c93565b925050602061210585828601611c93565b9150509250929050565b7f4e487b7100000000000000000000000000000000000000000000000000000000600052602260045260246000fd5b6000600282049050600182168061215657607f821691505b6020821081141561216a5761216961210f565b5b50919050565b7f4552433732313a20617070726f76616c20746f2063757272656e74206f776e6560008201527f7200000000000000000000000000000000000000000000000000000000000000602082015250565b60006121cc602183611b0d565b91506121d782612170565b604082019050919050565b600060208201905081810360008301526121fb816121bf565b9050919050565b7f4552433732313a20617070726f76652063616c6c6572206973206e6f7420746f60008201527f6b656e206f776e6572206e6f7220617070726f76656420666f7220616c6c0000602082015250565b600061225e603e83611b0d565b915061226982612202565b604082019050919050565b6000602082019050818103600083015261228d81612251565b9050919050565b7f4552433732313a2063616c6c6572206973206e6f7420746f6b656e206f776e6560008201527f72206e6f7220617070726f766564000000000000000000000000000000000000602082015250565b60006122f0602e83611b0d565b91506122fb82612294565b604082019050919050565b6000602082019050818103600083015261231f816122e3565b9050919050565b7f496e697469616c697a61626c653a20636f6e747261637420697320616c72656160008201527f647920696e697469616c697a6564000000000000000000000000000000000000602082015250565b6000612382602e83611b0d565b915061238d82612326565b604082019050919050565b600060208201905081810360008301526123b181612375565b9050919050565b6000819050919050565b600060ff82169050919050565b6000819050919050565b60006123f46123ef6123ea846123b8565b6123cf565b6123c2565b9050919050565b612404816123d9565b82525050565b600060208201905061241f60008301846123fb565b92915050565b7f4552433732313a20696e76616c696420746f6b656e2049440000000000000000600082015250565b600061245b601883611b0d565b915061246682612425565b602082019050919050565b6000602082019050818103600083015261248a8161244e565b9050919050565b7f4552433732313a2061646472657373207a65726f206973206e6f74206120766160008201527f6c6964206f776e65720000000000000000000000000000000000000000000000602082015250565b60006124ed602983611b0d565b91506124f882612491565b604082019050919050565b6000602082019050818103600083015261251c816124e0565b9050919050565b600081905092915050565b600061253982611b02565b6125438185612523565b9350612553818560208601611b1e565b80840191505092915050565b600061256b828561252e565b9150612577828461252e565b91508190509392505050565b7f4552433732313a207472616e736665722066726f6d20696e636f72726563742060008201527f6f776e6572000000000000000000000000000000000000000000000000000000602082015250565b60006125df602583611b0d565b91506125ea82612583565b604082019050919050565b6000602082019050818103600083015261260e816125d2565b9050919050565b7f4552433732313a207472616e7366657220746f20746865207a65726f2061646460008201527f7265737300000000000000000000000000000000000000000000000000000000602082015250565b6000612671602483611b0d565b915061267c82612615565b604082019050919050565b600060208201905081810360008301526126a081612664565b9050919050565b7f4e487b7100000000000000000000000000000000000000000000000000000000600052601160045260246000fd5b60006126e182611bbd565b91506126ec83611bbd565b9250828210156126ff576126fe6126a7565b5b828203905092915050565b600061271582611bbd565b915061272083611bbd565b9250827fffffffffffffffffffffffffffffffffffffffffffffffffffffffffffffffff03821115612755576127546126a7565b5b828201905092915050565b7f496e697469616c697a61626c653a20636f6e7472616374206973206e6f74206960008201527f6e697469616c697a696e67000000000000000000000000000000000000000000602082015250565b60006127bc602b83611b0d565b91506127c782612760565b604082019050919050565b600060208201905081810360008301526127eb816127af565b9050919050565b7f4552433732313a20617070726f766520746f2063616c6c657200000000000000600082015250565b6000612828601983611b0d565b9150612833826127f2565b602082019050919050565b600060208201905081810360008301526128578161281b565b9050919050565b7f4552433732313a207472616e7366657220746f206e6f6e20455243373231526560008201527f63656976657220696d706c656d656e7465720000000000000000000000000000602082015250565b60006128ba603283611b0d565b91506128c58261285e565b604082019050919050565b600060208201905081810360008301526128e9816128ad565b9050919050565b60006128fb82611bbd565b91507fffffffffffffffffffffffffffffffffffffffffffffffffffffffffffffffff82141561292e5761292d6126a7565b5b600182019050919050565b7f4e487b7100000000000000000000000000000000000000000000000000000000600052601260045260246000fd5b600061297382611bbd565b915061297e83611bbd565b92508261298e5761298d612939565b5b828204905092915050565b60006129a482611bbd565b91506129af83611bbd565b9250826129bf576129be612939565b5b828206905092915050565b7f4e487b7100000000000000000000000000000000000000000000000000000000600052603260045260246000fd5b600081519050919050565b600082825260208201905092915050565b6000612a20826129f9565b612a2a8185612a04565b9350612a3a818560208601611b1e565b612a4381611b51565b840191505092915050565b6000608082019050612a636000830187611c52565b612a706020830186611c52565b612a7d6040830185611f15565b8181036060830152612a8f8184612a15565b905095945050505050565b600081519050612aa981611a73565b92915050565b600060208284031215612ac557612ac4611a3d565b5b6000612ad384828501612a9a565b91505092915050565b7f4552433732313a206d696e7420746f20746865207a65726f2061646472657373600082015250565b6000612b12602083611b0d565b9150612b1d82612adc565b602082019050919050565b60006020820190508181036000830152612b4181612b05565b9050919050565b7f4552433732313a20746f6b656e20616c7265616479206d696e74656400000000600082015250565b6000612b7e601c83611b0d565b9150612b8982612b48565b602082019050919050565b60006020820190508181036000830152612bad81612b71565b905091905056fea2646970667358221220e865e117c308b523776004816d3f6e4ef2262ee9042c846b922546416954706464736f6c63430008090033",
  "devdoc": {
    "details": "This contract implements the ERC721 standard and is used for unit testing purposes only Anyone can mint or burn tokens",
    "kind": "dev",
    "methods": {
      "approve(address,uint256)": {
        "details": "See {IERC721-approve}."
      },
      "balanceOf(address)": {
        "details": "See {IERC721-balanceOf}."
      },
      "getApproved(uint256)": {
        "details": "See {IERC721-getApproved}."
      },
      "initialize(string,string)": {
        "details": "initializer to call after deployment, can only be called once"
      },
      "isApprovedForAll(address,address)": {
        "details": "See {IERC721-isApprovedForAll}."
      },
      "name()": {
        "details": "See {IERC721Metadata-name}."
      },
      "ownerOf(uint256)": {
        "details": "See {IERC721-ownerOf}."
      },
      "safeTransferFrom(address,address,uint256)": {
        "details": "See {IERC721-safeTransferFrom}."
      },
      "safeTransferFrom(address,address,uint256,bytes)": {
        "details": "See {IERC721-safeTransferFrom}."
      },
      "setApprovalForAll(address,bool)": {
        "details": "See {IERC721-setApprovalForAll}."
      },
      "supportsInterface(bytes4)": {
        "details": "See {IERC165-supportsInterface}."
      },
      "symbol()": {
        "details": "See {IERC721Metadata-symbol}."
      },
      "tokenURI(uint256)": {
        "details": "See {IERC721Metadata-tokenURI}."
      },
      "transferFrom(address,address,uint256)": {
        "details": "See {IERC721-transferFrom}."
      }
    },
    "title": "TestErc1155",
    "version": 1
  },
  "userdoc": {
    "kind": "user",
    "methods": {},
    "version": 1
  },
  "storageLayout": {
    "storage": [
      {
        "astId": 2366,
        "contract": "contracts/Testing/TestErc721.sol:TestErc721",
        "label": "_initialized",
        "offset": 0,
        "slot": "0",
        "type": "t_uint8"
      },
      {
        "astId": 2369,
        "contract": "contracts/Testing/TestErc721.sol:TestErc721",
        "label": "_initializing",
        "offset": 1,
        "slot": "0",
        "type": "t_bool"
      },
      {
        "astId": 6485,
        "contract": "contracts/Testing/TestErc721.sol:TestErc721",
        "label": "__gap",
        "offset": 0,
        "slot": "1",
        "type": "t_array(t_uint256)50_storage"
      },
      {
        "astId": 6755,
        "contract": "contracts/Testing/TestErc721.sol:TestErc721",
        "label": "__gap",
        "offset": 0,
        "slot": "51",
        "type": "t_array(t_uint256)50_storage"
      },
      {
        "astId": 5177,
        "contract": "contracts/Testing/TestErc721.sol:TestErc721",
        "label": "_name",
        "offset": 0,
        "slot": "101",
        "type": "t_string_storage"
      },
      {
        "astId": 5179,
        "contract": "contracts/Testing/TestErc721.sol:TestErc721",
        "label": "_symbol",
        "offset": 0,
        "slot": "102",
        "type": "t_string_storage"
      },
      {
        "astId": 5183,
        "contract": "contracts/Testing/TestErc721.sol:TestErc721",
        "label": "_owners",
        "offset": 0,
        "slot": "103",
        "type": "t_mapping(t_uint256,t_address)"
      },
      {
        "astId": 5187,
        "contract": "contracts/Testing/TestErc721.sol:TestErc721",
        "label": "_balances",
        "offset": 0,
        "slot": "104",
        "type": "t_mapping(t_address,t_uint256)"
      },
      {
        "astId": 5191,
        "contract": "contracts/Testing/TestErc721.sol:TestErc721",
        "label": "_tokenApprovals",
        "offset": 0,
        "slot": "105",
        "type": "t_mapping(t_uint256,t_address)"
      },
      {
        "astId": 5197,
        "contract": "contracts/Testing/TestErc721.sol:TestErc721",
        "label": "_operatorApprovals",
        "offset": 0,
        "slot": "106",
        "type": "t_mapping(t_address,t_mapping(t_address,t_bool))"
      },
      {
        "astId": 6039,
        "contract": "contracts/Testing/TestErc721.sol:TestErc721",
        "label": "__gap",
        "offset": 0,
        "slot": "107",
        "type": "t_array(t_uint256)44_storage"
      }
    ],
    "types": {
      "t_address": {
        "encoding": "inplace",
        "label": "address",
        "numberOfBytes": "20"
      },
      "t_array(t_uint256)44_storage": {
        "base": "t_uint256",
        "encoding": "inplace",
        "label": "uint256[44]",
        "numberOfBytes": "1408"
      },
      "t_array(t_uint256)50_storage": {
        "base": "t_uint256",
        "encoding": "inplace",
        "label": "uint256[50]",
        "numberOfBytes": "1600"
      },
      "t_bool": {
        "encoding": "inplace",
        "label": "bool",
        "numberOfBytes": "1"
      },
      "t_mapping(t_address,t_bool)": {
        "encoding": "mapping",
        "key": "t_address",
        "label": "mapping(address => bool)",
        "numberOfBytes": "32",
        "value": "t_bool"
      },
      "t_mapping(t_address,t_mapping(t_address,t_bool))": {
        "encoding": "mapping",
        "key": "t_address",
        "label": "mapping(address => mapping(address => bool))",
        "numberOfBytes": "32",
        "value": "t_mapping(t_address,t_bool)"
      },
      "t_mapping(t_address,t_uint256)": {
        "encoding": "mapping",
        "key": "t_address",
        "label": "mapping(address => uint256)",
        "numberOfBytes": "32",
        "value": "t_uint256"
      },
      "t_mapping(t_uint256,t_address)": {
        "encoding": "mapping",
        "key": "t_uint256",
        "label": "mapping(uint256 => address)",
        "numberOfBytes": "32",
        "value": "t_address"
      },
      "t_string_storage": {
        "encoding": "bytes",
        "label": "string",
        "numberOfBytes": "32"
      },
      "t_uint256": {
        "encoding": "inplace",
        "label": "uint256",
        "numberOfBytes": "32"
      },
      "t_uint8": {
        "encoding": "inplace",
        "label": "uint8",
        "numberOfBytes": "1"
      }
    }
  }
}